{
  "contractName": "DividendPayingToken",
  "abi": [
    {
      "inputs": [
        {
          "internalType": "string",
          "name": "_name",
          "type": "string"
        },
        {
          "internalType": "string",
          "name": "_symbol",
          "type": "string"
        },
        {
          "internalType": "address",
          "name": "_rewardToken",
          "type": "address"
        }
      ],
      "stateMutability": "nonpayable",
      "type": "constructor"
    },
    {
      "anonymous": false,
      "inputs": [
        {
          "indexed": true,
          "internalType": "address",
          "name": "owner",
          "type": "address"
        },
        {
          "indexed": true,
          "internalType": "address",
          "name": "spender",
          "type": "address"
        },
        {
          "indexed": false,
          "internalType": "uint256",
          "name": "value",
          "type": "uint256"
        }
      ],
      "name": "Approval",
      "type": "event"
    },
    {
      "anonymous": false,
      "inputs": [
        {
          "indexed": true,
          "internalType": "address",
          "name": "to",
          "type": "address"
        },
        {
          "indexed": false,
          "internalType": "uint256",
          "name": "weiAmount",
          "type": "uint256"
        }
      ],
      "name": "DividendWithdrawn",
      "type": "event"
    },
    {
      "anonymous": false,
      "inputs": [
        {
          "indexed": true,
          "internalType": "address",
          "name": "from",
          "type": "address"
        },
        {
          "indexed": false,
          "internalType": "uint256",
          "name": "weiAmount",
          "type": "uint256"
        }
      ],
      "name": "DividendsDistributed",
      "type": "event"
    },
    {
      "anonymous": false,
      "inputs": [
        {
          "indexed": true,
          "internalType": "address",
          "name": "previousOwner",
          "type": "address"
        },
        {
          "indexed": true,
          "internalType": "address",
          "name": "newOwner",
          "type": "address"
        }
      ],
      "name": "OwnershipTransferred",
      "type": "event"
    },
    {
      "anonymous": false,
      "inputs": [
        {
          "indexed": true,
          "internalType": "address",
          "name": "from",
          "type": "address"
        },
        {
          "indexed": true,
          "internalType": "address",
          "name": "to",
          "type": "address"
        },
        {
          "indexed": false,
          "internalType": "uint256",
          "name": "value",
          "type": "uint256"
        }
      ],
      "name": "Transfer",
      "type": "event"
    },
    {
      "inputs": [
        {
          "internalType": "address",
          "name": "owner",
          "type": "address"
        },
        {
          "internalType": "address",
          "name": "spender",
          "type": "address"
        }
      ],
      "name": "allowance",
      "outputs": [
        {
          "internalType": "uint256",
          "name": "",
          "type": "uint256"
        }
      ],
      "stateMutability": "view",
      "type": "function"
    },
    {
      "inputs": [
        {
          "internalType": "address",
          "name": "spender",
          "type": "address"
        },
        {
          "internalType": "uint256",
          "name": "amount",
          "type": "uint256"
        }
      ],
      "name": "approve",
      "outputs": [
        {
          "internalType": "bool",
          "name": "",
          "type": "bool"
        }
      ],
      "stateMutability": "nonpayable",
      "type": "function"
    },
    {
      "inputs": [
        {
          "internalType": "address",
          "name": "account",
          "type": "address"
        }
      ],
      "name": "balanceOf",
      "outputs": [
        {
          "internalType": "uint256",
          "name": "",
          "type": "uint256"
        }
      ],
      "stateMutability": "view",
      "type": "function"
    },
    {
      "inputs": [],
      "name": "decimals",
      "outputs": [
        {
          "internalType": "uint8",
          "name": "",
          "type": "uint8"
        }
      ],
      "stateMutability": "view",
      "type": "function"
    },
    {
      "inputs": [
        {
          "internalType": "address",
          "name": "spender",
          "type": "address"
        },
        {
          "internalType": "uint256",
          "name": "subtractedValue",
          "type": "uint256"
        }
      ],
      "name": "decreaseAllowance",
      "outputs": [
        {
          "internalType": "bool",
          "name": "",
          "type": "bool"
        }
      ],
      "stateMutability": "nonpayable",
      "type": "function"
    },
    {
      "inputs": [
        {
          "internalType": "address",
          "name": "spender",
          "type": "address"
        },
        {
          "internalType": "uint256",
          "name": "addedValue",
          "type": "uint256"
        }
      ],
      "name": "increaseAllowance",
      "outputs": [
        {
          "internalType": "bool",
          "name": "",
          "type": "bool"
        }
      ],
      "stateMutability": "nonpayable",
      "type": "function"
    },
    {
      "inputs": [],
      "name": "name",
      "outputs": [
        {
          "internalType": "string",
          "name": "",
          "type": "string"
        }
      ],
      "stateMutability": "view",
      "type": "function"
    },
    {
      "inputs": [],
      "name": "owner",
      "outputs": [
        {
          "internalType": "address",
          "name": "",
          "type": "address"
        }
      ],
      "stateMutability": "view",
      "type": "function"
    },
    {
      "inputs": [],
      "name": "renounceOwnership",
      "outputs": [],
      "stateMutability": "nonpayable",
      "type": "function"
    },
    {
      "inputs": [],
      "name": "rewardToken",
      "outputs": [
        {
          "internalType": "address",
          "name": "",
          "type": "address"
        }
      ],
      "stateMutability": "view",
      "type": "function"
    },
    {
      "inputs": [],
      "name": "symbol",
      "outputs": [
        {
          "internalType": "string",
          "name": "",
          "type": "string"
        }
      ],
      "stateMutability": "view",
      "type": "function"
    },
    {
      "inputs": [],
      "name": "totalDividendsDistributed",
      "outputs": [
        {
          "internalType": "uint256",
          "name": "",
          "type": "uint256"
        }
      ],
      "stateMutability": "view",
      "type": "function"
    },
    {
      "inputs": [],
      "name": "totalSupply",
      "outputs": [
        {
          "internalType": "uint256",
          "name": "",
          "type": "uint256"
        }
      ],
      "stateMutability": "view",
      "type": "function"
    },
    {
      "inputs": [
        {
          "internalType": "address",
          "name": "to",
          "type": "address"
        },
        {
          "internalType": "uint256",
          "name": "amount",
          "type": "uint256"
        }
      ],
      "name": "transfer",
      "outputs": [
        {
          "internalType": "bool",
          "name": "",
          "type": "bool"
        }
      ],
      "stateMutability": "nonpayable",
      "type": "function"
    },
    {
      "inputs": [
        {
          "internalType": "address",
          "name": "from",
          "type": "address"
        },
        {
          "internalType": "address",
          "name": "to",
          "type": "address"
        },
        {
          "internalType": "uint256",
          "name": "amount",
          "type": "uint256"
        }
      ],
      "name": "transferFrom",
      "outputs": [
        {
          "internalType": "bool",
          "name": "",
          "type": "bool"
        }
      ],
      "stateMutability": "nonpayable",
      "type": "function"
    },
    {
      "inputs": [
        {
          "internalType": "address",
          "name": "newOwner",
          "type": "address"
        }
      ],
      "name": "transferOwnership",
      "outputs": [],
      "stateMutability": "nonpayable",
      "type": "function"
    },
    {
      "inputs": [
        {
          "internalType": "uint256",
          "name": "amount",
          "type": "uint256"
        }
      ],
      "name": "distributeDividends",
      "outputs": [],
      "stateMutability": "nonpayable",
      "type": "function"
    },
    {
      "inputs": [],
      "name": "withdrawDividend",
      "outputs": [],
      "stateMutability": "nonpayable",
      "type": "function"
    },
    {
      "inputs": [
        {
          "internalType": "address",
          "name": "_owner",
          "type": "address"
        }
      ],
      "name": "dividendOf",
      "outputs": [
        {
          "internalType": "uint256",
          "name": "",
          "type": "uint256"
        }
      ],
      "stateMutability": "view",
      "type": "function"
    },
    {
      "inputs": [
        {
          "internalType": "address",
          "name": "_owner",
          "type": "address"
        }
      ],
      "name": "withdrawableDividendOf",
      "outputs": [
        {
          "internalType": "uint256",
          "name": "",
          "type": "uint256"
        }
      ],
      "stateMutability": "view",
      "type": "function"
    },
    {
      "inputs": [
        {
          "internalType": "address",
          "name": "_owner",
          "type": "address"
        }
      ],
      "name": "withdrawnDividendOf",
      "outputs": [
        {
          "internalType": "uint256",
          "name": "",
          "type": "uint256"
        }
      ],
      "stateMutability": "view",
      "type": "function"
    },
    {
      "inputs": [
        {
          "internalType": "address",
          "name": "_owner",
          "type": "address"
        }
      ],
      "name": "accumulativeDividendOf",
      "outputs": [
        {
          "internalType": "uint256",
          "name": "",
          "type": "uint256"
        }
      ],
      "stateMutability": "view",
      "type": "function"
    }
  ],
  "bytecode": "0x60a06040523480156200001157600080fd5b506040516200244238038062002442833981810160405281019062000037919062000382565b828281600390816200004a919062000667565b5080600490816200005c919062000667565b5050506200007f62000073620000bc60201b60201c565b620000c460201b60201c565b8073ffffffffffffffffffffffffffffffffffffffff1660808173ffffffffffffffffffffffffffffffffffffffff16815250505050506200074e565b600033905090565b6000600560009054906101000a900473ffffffffffffffffffffffffffffffffffffffff16905081600560006101000a81548173ffffffffffffffffffffffffffffffffffffffff021916908373ffffffffffffffffffffffffffffffffffffffff1602179055508173ffffffffffffffffffffffffffffffffffffffff168173ffffffffffffffffffffffffffffffffffffffff167f8be0079c531659141344cd1fd0a4f28419497f9722a3daafe3b4186f6b6457e060405160405180910390a35050565b6000604051905090565b600080fd5b600080fd5b600080fd5b600080fd5b6000601f19601f8301169050919050565b7f4e487b7100000000000000000000000000000000000000000000000000000000600052604160045260246000fd5b620001f382620001a8565b810181811067ffffffffffffffff82111715620002155762000214620001b9565b5b80604052505050565b60006200022a6200018a565b9050620002388282620001e8565b919050565b600067ffffffffffffffff8211156200025b576200025a620001b9565b5b6200026682620001a8565b9050602081019050919050565b60005b838110156200029357808201518184015260208101905062000276565b60008484015250505050565b6000620002b6620002b0846200023d565b6200021e565b905082815260208101848484011115620002d557620002d4620001a3565b5b620002e284828562000273565b509392505050565b600082601f8301126200030257620003016200019e565b5b8151620003148482602086016200029f565b91505092915050565b600073ffffffffffffffffffffffffffffffffffffffff82169050919050565b60006200034a826200031d565b9050919050565b6200035c816200033d565b81146200036857600080fd5b50565b6000815190506200037c8162000351565b92915050565b6000806000606084860312156200039e576200039d62000194565b5b600084015167ffffffffffffffff811115620003bf57620003be62000199565b5b620003cd86828701620002ea565b935050602084015167ffffffffffffffff811115620003f157620003f062000199565b5b620003ff86828701620002ea565b925050604062000412868287016200036b565b9150509250925092565b600081519050919050565b7f4e487b7100000000000000000000000000000000000000000000000000000000600052602260045260246000fd5b600060028204905060018216806200046f57607f821691505b60208210810362000485576200048462000427565b5b50919050565b60008190508160005260206000209050919050565b60006020601f8301049050919050565b600082821b905092915050565b600060088302620004ef7fffffffffffffffffffffffffffffffffffffffffffffffffffffffffffffffff82620004b0565b620004fb8683620004b0565b95508019841693508086168417925050509392505050565b6000819050919050565b6000819050919050565b600062000548620005426200053c8462000513565b6200051d565b62000513565b9050919050565b6000819050919050565b620005648362000527565b6200057c62000573826200054f565b848454620004bd565b825550505050565b600090565b6200059362000584565b620005a081848462000559565b505050565b5b81811015620005c857620005bc60008262000589565b600181019050620005a6565b5050565b601f8211156200061757620005e1816200048b565b620005ec84620004a0565b81016020851015620005fc578190505b620006146200060b85620004a0565b830182620005a5565b50505b505050565b600082821c905092915050565b60006200063c600019846008026200061c565b1980831691505092915050565b600062000657838362000629565b9150826002028217905092915050565b62000672826200041c565b67ffffffffffffffff8111156200068e576200068d620001b9565b5b6200069a825462000456565b620006a7828285620005cc565b600060209050601f831160018114620006df5760008415620006ca578287015190505b620006d6858262000649565b86555062000746565b601f198416620006ef866200048b565b60005b828110156200071957848901518255600182019150602085019450602081019050620006f2565b8683101562000739578489015162000735601f89168262000629565b8355505b6001600288020188555050505b505050505050565b608051611cd16200077160003960008181610ab601526110b80152611cd16000f3fe608060405234801561001057600080fd5b50600436106101425760003560e01c806385a6b3ae116100b8578063a8b9d2401161007c578063a8b9d2401461037b578063a9059cbb146103ab578063aafd847a146103db578063dd62ed3e1461040b578063f2fde38b1461043b578063f7c618c11461045757610142565b806385a6b3ae146102c15780638da5cb5b146102df57806391b89fba146102fd57806395d89b411461032d578063a457c2d71461034b57610142565b8063313ce5671161010a578063313ce567146102135780633243c79114610231578063395093511461024d5780636a4740021461027d57806370a0823114610287578063715018a6146102b757610142565b806306fdde0314610147578063095ea7b31461016557806318160ddd1461019557806323b872dd146101b357806327ce0147146101e3575b600080fd5b61014f610475565b60405161015c91906113c7565b60405180910390f35b61017f600480360381019061017a9190611482565b610507565b60405161018c91906114dd565b60405180910390f35b61019d61052a565b6040516101aa9190611507565b60405180910390f35b6101cd60048036038101906101c89190611522565b610534565b6040516101da91906114dd565b60405180910390f35b6101fd60048036038101906101f89190611575565b610563565b60405161020a9190611507565b60405180910390f35b61021b610606565b60405161022891906115be565b60405180910390f35b61024b600480360381019061024691906115d9565b61060f565b005b61026760048036038101906102629190611482565b6106f1565b60405161027491906114dd565b60405180910390f35b610285610728565b005b6102a1600480360381019061029c9190611575565b610734565b6040516102ae9190611507565b60405180910390f35b6102bf61077c565b005b6102c9610790565b6040516102d69190611507565b60405180910390f35b6102e7610796565b6040516102f49190611615565b60405180910390f35b61031760048036038101906103129190611575565b6107c0565b6040516103249190611507565b60405180910390f35b6103356107d2565b60405161034291906113c7565b60405180910390f35b61036560048036038101906103609190611482565b610864565b60405161037291906114dd565b60405180910390f35b61039560048036038101906103909190611575565b6108db565b6040516103a29190611507565b60405180910390f35b6103c560048036038101906103c09190611482565b61093e565b6040516103d291906114dd565b60405180910390f35b6103f560048036038101906103f09190611575565b610961565b6040516104029190611507565b60405180910390f35b61042560048036038101906104209190611630565b6109aa565b6040516104329190611507565b60405180910390f35b61045560048036038101906104509190611575565b610a31565b005b61045f610ab4565b60405161046c9190611615565b60405180910390f35b6060600380546104849061169f565b80601f01602080910402602001604051908101604052809291908181526020018280546104b09061169f565b80156104fd5780601f106104d2576101008083540402835291602001916104fd565b820191906000526020600020905b8154815290600101906020018083116104e057829003601f168201915b5050505050905090565b600080610512610ad8565b905061051f818585610ae0565b600191505092915050565b6000600254905090565b60008061053f610ad8565b905061054c858285610ca9565b610557858585610d35565b60019150509392505050565b60007001000000000000000000000000000000006105f56105f0600860008673ffffffffffffffffffffffffffffffffffffffff1673ffffffffffffffffffffffffffffffffffffffff168152602001908152602001600020546105e26105dd6105cc88610734565b600654610e9190919063ffffffff16565b610ea7565b610ec490919063ffffffff16565b610f0f565b6105ff919061172e565b9050919050565b60006012905090565b610617610f26565b600061062161052a565b1161062b57600080fd5b60008111156106ee5761067e61063f61052a565b61066370010000000000000000000000000000000084610e9190919063ffffffff16565b61066d919061172e565b600654610fa490919063ffffffff16565b6006819055503373ffffffffffffffffffffffffffffffffffffffff167fa493a9229478c3fcd73f66d2cdeb7f94fd0f341da924d1054236d78454116511826040516106ca9190611507565b60405180910390a26106e781600754610fa490919063ffffffff16565b6007819055505b50565b6000806106fc610ad8565b905061071d81858561070e85896109aa565b610718919061175f565b610ae0565b600191505092915050565b61073133610fba565b50565b60008060008373ffffffffffffffffffffffffffffffffffffffff1673ffffffffffffffffffffffffffffffffffffffff168152602001908152602001600020549050919050565b610784610f26565b61078e6000611210565b565b60075481565b6000600560009054906101000a900473ffffffffffffffffffffffffffffffffffffffff16905090565b60006107cb826108db565b9050919050565b6060600480546107e19061169f565b80601f016020809104026020016040519081016040528092919081815260200182805461080d9061169f565b801561085a5780601f1061082f5761010080835404028352916020019161085a565b820191906000526020600020905b81548152906001019060200180831161083d57829003601f168201915b5050505050905090565b60008061086f610ad8565b9050600061087d82866109aa565b9050838110156108c2576040517f08c379a00000000000000000000000000000000000000000000000000000000081526004016108b990611805565b60405180910390fd5b6108cf8286868403610ae0565b60019250505092915050565b6000610937600960008473ffffffffffffffffffffffffffffffffffffffff1673ffffffffffffffffffffffffffffffffffffffff1681526020019081526020016000205461092984610563565b6112d690919063ffffffff16565b9050919050565b600080610949610ad8565b9050610956818585610d35565b600191505092915050565b6000600960008373ffffffffffffffffffffffffffffffffffffffff1673ffffffffffffffffffffffffffffffffffffffff168152602001908152602001600020549050919050565b6000600160008473ffffffffffffffffffffffffffffffffffffffff1673ffffffffffffffffffffffffffffffffffffffff16815260200190815260200160002060008373ffffffffffffffffffffffffffffffffffffffff1673ffffffffffffffffffffffffffffffffffffffff16815260200190815260200160002054905092915050565b610a39610f26565b600073ffffffffffffffffffffffffffffffffffffffff168173ffffffffffffffffffffffffffffffffffffffff1603610aa8576040517f08c379a0000000000000000000000000000000000000000000000000000000008152600401610a9f90611897565b60405180910390fd5b610ab181611210565b50565b7f000000000000000000000000000000000000000000000000000000000000000081565b600033905090565b600073ffffffffffffffffffffffffffffffffffffffff168373ffffffffffffffffffffffffffffffffffffffff1603610b4f576040517f08c379a0000000000000000000000000000000000000000000000000000000008152600401610b4690611929565b60405180910390fd5b600073ffffffffffffffffffffffffffffffffffffffff168273ffffffffffffffffffffffffffffffffffffffff1603610bbe576040517f08c379a0000000000000000000000000000000000000000000000000000000008152600401610bb5906119bb565b60405180910390fd5b80600160008573ffffffffffffffffffffffffffffffffffffffff1673ffffffffffffffffffffffffffffffffffffffff16815260200190815260200160002060008473ffffffffffffffffffffffffffffffffffffffff1673ffffffffffffffffffffffffffffffffffffffff168152602001908152602001600020819055508173ffffffffffffffffffffffffffffffffffffffff168373ffffffffffffffffffffffffffffffffffffffff167f8c5be1e5ebec7d5bd14f71427d1e84f3dd0314c0f7b2291e5b200ac8c7c3b92583604051610c9c9190611507565b60405180910390a3505050565b6000610cb584846109aa565b90507fffffffffffffffffffffffffffffffffffffffffffffffffffffffffffffffff8114610d2f5781811015610d21576040517f08c379a0000000000000000000000000000000000000000000000000000000008152600401610d1890611a27565b60405180910390fd5b610d2e8484848403610ae0565b5b50505050565b6000610d4057600080fd5b6000610d5f610d5a83600654610e9190919063ffffffff16565b610ea7565b9050610db381600860008773ffffffffffffffffffffffffffffffffffffffff1673ffffffffffffffffffffffffffffffffffffffff16815260200190815260200160002054610ec490919063ffffffff16565b600860008673ffffffffffffffffffffffffffffffffffffffff1673ffffffffffffffffffffffffffffffffffffffff16815260200190815260200160002081905550610e4881600860008673ffffffffffffffffffffffffffffffffffffffff1673ffffffffffffffffffffffffffffffffffffffff168152602001908152602001600020546112ec90919063ffffffff16565b600860008573ffffffffffffffffffffffffffffffffffffffff1673ffffffffffffffffffffffffffffffffffffffff1681526020019081526020016000208190555050505050565b60008183610e9f9190611a47565b905092915050565b6000808290506000811215610ebb57600080fd5b80915050919050565b6000808284610ed39190611a93565b905060008312158015610ee65750838112155b80610efc5750600083128015610efb57508381125b5b610f0557600080fd5b8091505092915050565b600080821215610f1e57600080fd5b819050919050565b610f2e610ad8565b73ffffffffffffffffffffffffffffffffffffffff16610f4c610796565b73ffffffffffffffffffffffffffffffffffffffff1614610fa2576040517f08c379a0000000000000000000000000000000000000000000000000000000008152600401610f9990611b23565b60405180910390fd5b565b60008183610fb2919061175f565b905092915050565b600080610fc6836108db565b905060008111156112055761102381600960008673ffffffffffffffffffffffffffffffffffffffff1673ffffffffffffffffffffffffffffffffffffffff16815260200190815260200160002054610fa490919063ffffffff16565b600960008573ffffffffffffffffffffffffffffffffffffffff1673ffffffffffffffffffffffffffffffffffffffff168152602001908152602001600020819055508273ffffffffffffffffffffffffffffffffffffffff167fee503bee2bb6a87e57bc57db795f98137327401a0e7b7ce42e37926cc1a9ca4d826040516110ac9190611507565b60405180910390a260007f000000000000000000000000000000000000000000000000000000000000000073ffffffffffffffffffffffffffffffffffffffff1663a9059cbb85846040518363ffffffff1660e01b8152600401611111929190611ba2565b6020604051808303816000875af1158015611130573d6000803e3d6000fd5b505050506040513d601f19601f820116820180604052508101906111549190611bf7565b9050806111fb576111ad82600960008773ffffffffffffffffffffffffffffffffffffffff1673ffffffffffffffffffffffffffffffffffffffff168152602001908152602001600020546112d690919063ffffffff16565b600960008673ffffffffffffffffffffffffffffffffffffffff1673ffffffffffffffffffffffffffffffffffffffff1681526020019081526020016000208190555060009250505061120b565b819250505061120b565b60009150505b919050565b6000600560009054906101000a900473ffffffffffffffffffffffffffffffffffffffff16905081600560006101000a81548173ffffffffffffffffffffffffffffffffffffffff021916908373ffffffffffffffffffffffffffffffffffffffff1602179055508173ffffffffffffffffffffffffffffffffffffffff168173ffffffffffffffffffffffffffffffffffffffff167f8be0079c531659141344cd1fd0a4f28419497f9722a3daafe3b4186f6b6457e060405160405180910390a35050565b600081836112e49190611c24565b905092915050565b60008082846112fb9190611c58565b90506000831215801561130e5750838113155b80611324575060008312801561132357508381135b5b61132d57600080fd5b8091505092915050565b600081519050919050565b600082825260208201905092915050565b60005b83811015611371578082015181840152602081019050611356565b60008484015250505050565b6000601f19601f8301169050919050565b600061139982611337565b6113a38185611342565b93506113b3818560208601611353565b6113bc8161137d565b840191505092915050565b600060208201905081810360008301526113e1818461138e565b905092915050565b600080fd5b600073ffffffffffffffffffffffffffffffffffffffff82169050919050565b6000611419826113ee565b9050919050565b6114298161140e565b811461143457600080fd5b50565b60008135905061144681611420565b92915050565b6000819050919050565b61145f8161144c565b811461146a57600080fd5b50565b60008135905061147c81611456565b92915050565b60008060408385031215611499576114986113e9565b5b60006114a785828601611437565b92505060206114b88582860161146d565b9150509250929050565b60008115159050919050565b6114d7816114c2565b82525050565b60006020820190506114f260008301846114ce565b92915050565b6115018161144c565b82525050565b600060208201905061151c60008301846114f8565b92915050565b60008060006060848603121561153b5761153a6113e9565b5b600061154986828701611437565b935050602061155a86828701611437565b925050604061156b8682870161146d565b9150509250925092565b60006020828403121561158b5761158a6113e9565b5b600061159984828501611437565b91505092915050565b600060ff82169050919050565b6115b8816115a2565b82525050565b60006020820190506115d360008301846115af565b92915050565b6000602082840312156115ef576115ee6113e9565b5b60006115fd8482850161146d565b91505092915050565b61160f8161140e565b82525050565b600060208201905061162a6000830184611606565b92915050565b60008060408385031215611647576116466113e9565b5b600061165585828601611437565b925050602061166685828601611437565b9150509250929050565b7f4e487b7100000000000000000000000000000000000000000000000000000000600052602260045260246000fd5b600060028204905060018216806116b757607f821691505b6020821081036116ca576116c9611670565b5b50919050565b7f4e487b7100000000000000000000000000000000000000000000000000000000600052601260045260246000fd5b7f4e487b7100000000000000000000000000000000000000000000000000000000600052601160045260246000fd5b60006117398261144c565b91506117448361144c565b925082611754576117536116d0565b5b828204905092915050565b600061176a8261144c565b91506117758361144c565b925082820190508082111561178d5761178c6116ff565b5b92915050565b7f45524332303a2064656372656173656420616c6c6f77616e63652062656c6f7760008201527f207a65726f000000000000000000000000000000000000000000000000000000602082015250565b60006117ef602583611342565b91506117fa82611793565b604082019050919050565b6000602082019050818103600083015261181e816117e2565b9050919050565b7f4f776e61626c653a206e6577206f776e657220697320746865207a65726f206160008201527f6464726573730000000000000000000000000000000000000000000000000000602082015250565b6000611881602683611342565b915061188c82611825565b604082019050919050565b600060208201905081810360008301526118b081611874565b9050919050565b7f45524332303a20617070726f76652066726f6d20746865207a65726f2061646460008201527f7265737300000000000000000000000000000000000000000000000000000000602082015250565b6000611913602483611342565b915061191e826118b7565b604082019050919050565b6000602082019050818103600083015261194281611906565b9050919050565b7f45524332303a20617070726f766520746f20746865207a65726f20616464726560008201527f7373000000000000000000000000000000000000000000000000000000000000602082015250565b60006119a5602283611342565b91506119b082611949565b604082019050919050565b600060208201905081810360008301526119d481611998565b9050919050565b7f45524332303a20696e73756666696369656e7420616c6c6f77616e6365000000600082015250565b6000611a11601d83611342565b9150611a1c826119db565b602082019050919050565b60006020820190508181036000830152611a4081611a04565b9050919050565b6000611a528261144c565b9150611a5d8361144c565b9250828202611a6b8161144c565b91508282048414831517611a8257611a816116ff565b5b5092915050565b6000819050919050565b6000611a9e82611a89565b9150611aa983611a89565b925082820190508281121560008312168382126000841215161715611ad157611ad06116ff565b5b92915050565b7f4f776e61626c653a2063616c6c6572206973206e6f7420746865206f776e6572600082015250565b6000611b0d602083611342565b9150611b1882611ad7565b602082019050919050565b60006020820190508181036000830152611b3c81611b00565b9050919050565b6000819050919050565b6000611b68611b63611b5e846113ee565b611b43565b6113ee565b9050919050565b6000611b7a82611b4d565b9050919050565b6000611b8c82611b6f565b9050919050565b611b9c81611b81565b82525050565b6000604082019050611bb76000830185611b93565b611bc460208301846114f8565b9392505050565b611bd4816114c2565b8114611bdf57600080fd5b50565b600081519050611bf181611bcb565b92915050565b600060208284031215611c0d57611c0c6113e9565b5b6000611c1b84828501611be2565b91505092915050565b6000611c2f8261144c565b9150611c3a8361144c565b9250828203905081811115611c5257611c516116ff565b5b92915050565b6000611c6382611a89565b9150611c6e83611a89565b9250828203905081811260008412168282136000851215161715611c9557611c946116ff565b5b9291505056fea264697066735822122068b9b4e5e9030ae5ac3d4f530b2b164a58934763135e2c04727d787f2e88821e64736f6c63430008130033",
  "immutableReferences": {
    "2479": [
      {
        "length": 32,
        "start": 2742
      },
      {
        "length": 32,
        "start": 4280
      }
    ]
  },
  "source": "// SPDX-License-Identifier: UNLICENSED\npragma solidity 0.8.19;\n\nimport \"@openzeppelin/contracts/token/ERC20/ERC20.sol\";\nimport \"@openzeppelin/contracts/access/Ownable.sol\";\nimport \"@openzeppelin/contracts/utils/Address.sol\";\nimport \"@openzeppelin/contracts/utils/math/SafeMath.sol\";\nimport \"@uniswap/v2-periphery/contracts/interfaces/IUniswapV2Router02.sol\";\nimport \"@uniswap/v2-core/contracts/interfaces/IUniswapV2Factory.sol\";\nimport \"./interfaces/DividendPayingTokenInterface.sol\";\nimport \"./interfaces/DividendPayingTokenOptionalInterface.sol\";\nimport \"./lib/SafeMathUint.sol\";\nimport \"./lib/SafeMathInt.sol\";\n\ncontract DividendPayingToken is\n    ERC20,\n    Ownable,\n    DividendPayingTokenInterface,\n    DividendPayingTokenOptionalInterface\n{\n    using SafeMath for uint256;\n    using SafeMathUint for uint256;\n    using SafeMathInt for int256;\n\n    uint256 internal constant magnitude = 2 ** 128;\n    uint256 internal magnifiedDividendPerShare;\n    uint256 public totalDividendsDistributed;\n\n    address public immutable rewardToken;\n\n    mapping(address => int256) internal magnifiedDividendCorrections;\n    mapping(address => uint256) internal withdrawnDividends;\n\n    constructor(\n        string memory _name,\n        string memory _symbol,\n        address _rewardToken\n    ) ERC20(_name, _symbol) {\n        rewardToken = _rewardToken;\n    }\n\n    function distributeDividends(uint256 amount) public onlyOwner {\n        require(totalSupply() > 0);\n\n        if (amount > 0) {\n            magnifiedDividendPerShare = magnifiedDividendPerShare.add(\n                (amount).mul(magnitude) / totalSupply()\n            );\n            emit DividendsDistributed(msg.sender, amount);\n\n            totalDividendsDistributed = totalDividendsDistributed.add(amount);\n        }\n    }\n\n    function withdrawDividend() public virtual override {\n        _withdrawDividendOfUser(payable(msg.sender));\n    }\n\n    function _withdrawDividendOfUser(\n        address payable user\n    ) internal returns (uint256) {\n        uint256 _withdrawableDividend = withdrawableDividendOf(user);\n        if (_withdrawableDividend > 0) {\n            withdrawnDividends[user] = withdrawnDividends[user].add(\n                _withdrawableDividend\n            );\n            emit DividendWithdrawn(user, _withdrawableDividend);\n            bool success = IERC20(rewardToken).transfer(\n                user,\n                _withdrawableDividend\n            );\n\n            if (!success) {\n                withdrawnDividends[user] = withdrawnDividends[user].sub(\n                    _withdrawableDividend\n                );\n                return 0;\n            }\n\n            return _withdrawableDividend;\n        }\n        return 0;\n    }\n\n    function dividendOf(address _owner) public view override returns (uint256) {\n        return withdrawableDividendOf(_owner);\n    }\n\n    function withdrawableDividendOf(\n        address _owner\n    ) public view override returns (uint256) {\n        return accumulativeDividendOf(_owner).sub(withdrawnDividends[_owner]);\n    }\n\n    function withdrawnDividendOf(\n        address _owner\n    ) public view override returns (uint256) {\n        return withdrawnDividends[_owner];\n    }\n\n    function accumulativeDividendOf(\n        address _owner\n    ) public view override returns (uint256) {\n        return\n            magnifiedDividendPerShare\n                .mul(balanceOf(_owner))\n                .toInt256Safe()\n                .add(magnifiedDividendCorrections[_owner])\n                .toUint256Safe() / magnitude;\n    }\n\n    function _transfer(\n        address from,\n        address to,\n        uint256 value\n    ) internal virtual override {\n        require(false);\n\n        int256 _magCorrection = magnifiedDividendPerShare\n            .mul(value)\n            .toInt256Safe();\n        magnifiedDividendCorrections[from] = magnifiedDividendCorrections[from]\n            .add(_magCorrection);\n        magnifiedDividendCorrections[to] = magnifiedDividendCorrections[to].sub(\n            _magCorrection\n        );\n    }\n\n    function _mint(address account, uint256 value) internal override {\n        super._mint(account, value);\n\n        magnifiedDividendCorrections[account] = magnifiedDividendCorrections[\n            account\n        ].sub((magnifiedDividendPerShare.mul(value)).toInt256Safe());\n    }\n\n    function _burn(address account, uint256 value) internal override {\n        super._burn(account, value);\n\n        magnifiedDividendCorrections[account] = magnifiedDividendCorrections[\n            account\n        ].add((magnifiedDividendPerShare.mul(value)).toInt256Safe());\n    }\n\n    function _setBalance(address account, uint256 newBalance) internal {\n        uint256 currentBalance = balanceOf(account);\n\n        if (newBalance > currentBalance) {\n            uint256 mintAmount = newBalance.sub(currentBalance);\n            _mint(account, mintAmount);\n        } else if (newBalance < currentBalance) {\n            uint256 burnAmount = currentBalance.sub(newBalance);\n            _burn(account, burnAmount);\n        }\n    }\n}\n",
  "sourcePath": "/Users/glenci/Xhype/src/DividendPayingToken.sol",
  "compiler": {
    "name": "solc",
    "version": "0.8.19+commit.7dd6d404.Emscripten.clang"
  },
  "schemaVersion": "3.4.10",
  "updatedAt": "2023-05-08T16:30:19.968Z",
  "devdoc": {
    "events": {
      "Approval(address,address,uint256)": {
        "details": "Emitted when the allowance of a `spender` for an `owner` is set by a call to {approve}. `value` is the new allowance."
      },
      "Transfer(address,address,uint256)": {
        "details": "Emitted when `value` tokens are moved from one account (`from`) to another (`to`). Note that `value` may be zero."
      }
    },
    "kind": "dev",
    "methods": {
      "allowance(address,address)": {
        "details": "See {IERC20-allowance}."
      },
      "approve(address,uint256)": {
        "details": "See {IERC20-approve}. NOTE: If `amount` is the maximum `uint256`, the allowance is not updated on `transferFrom`. This is semantically equivalent to an infinite approval. Requirements: - `spender` cannot be the zero address."
      },
      "balanceOf(address)": {
        "details": "See {IERC20-balanceOf}."
      },
      "decimals()": {
        "details": "Returns the number of decimals used to get its user representation. For example, if `decimals` equals `2`, a balance of `505` tokens should be displayed to a user as `5.05` (`505 / 10 ** 2`). Tokens usually opt for a value of 18, imitating the relationship between Ether and Wei. This is the value {ERC20} uses, unless this function is overridden; NOTE: This information is only used for _display_ purposes: it in no way affects any of the arithmetic of the contract, including {IERC20-balanceOf} and {IERC20-transfer}."
      },
      "decreaseAllowance(address,uint256)": {
        "details": "Atomically decreases the allowance granted to `spender` by the caller. This is an alternative to {approve} that can be used as a mitigation for problems described in {IERC20-approve}. Emits an {Approval} event indicating the updated allowance. Requirements: - `spender` cannot be the zero address. - `spender` must have allowance for the caller of at least `subtractedValue`."
      },
      "increaseAllowance(address,uint256)": {
        "details": "Atomically increases the allowance granted to `spender` by the caller. This is an alternative to {approve} that can be used as a mitigation for problems described in {IERC20-approve}. Emits an {Approval} event indicating the updated allowance. Requirements: - `spender` cannot be the zero address."
      },
      "name()": {
        "details": "Returns the name of the token."
      },
      "owner()": {
        "details": "Returns the address of the current owner."
      },
      "renounceOwnership()": {
        "details": "Leaves the contract without owner. It will not be possible to call `onlyOwner` functions anymore. Can only be called by the current owner. NOTE: Renouncing ownership will leave the contract without an owner, thereby removing any functionality that is only available to the owner."
      },
      "symbol()": {
        "details": "Returns the symbol of the token, usually a shorter version of the name."
      },
      "totalSupply()": {
        "details": "See {IERC20-totalSupply}."
      },
      "transfer(address,uint256)": {
        "details": "See {IERC20-transfer}. Requirements: - `to` cannot be the zero address. - the caller must have a balance of at least `amount`."
      },
      "transferFrom(address,address,uint256)": {
        "details": "See {IERC20-transferFrom}. Emits an {Approval} event indicating the updated allowance. This is not required by the EIP. See the note at the beginning of {ERC20}. NOTE: Does not update the allowance if the current allowance is the maximum `uint256`. Requirements: - `from` and `to` cannot be the zero address. - `from` must have a balance of at least `amount`. - the caller must have allowance for ``from``'s tokens of at least `amount`."
      },
      "transferOwnership(address)": {
        "details": "Transfers ownership of the contract to a new account (`newOwner`). Can only be called by the current owner."
      }
    },
    "version": 1
  },
  "userdoc": {
    "kind": "user",
    "methods": {},
    "version": 1
  }
}