{
  "contractName": "DividendTracker",
  "abi": [
    {
      "inputs": [
        {
          "internalType": "uint256",
          "name": "minBalance",
          "type": "uint256"
        },
        {
          "internalType": "address",
          "name": "_rewardToken",
          "type": "address"
        }
      ],
      "stateMutability": "nonpayable",
      "type": "constructor"
    },
    {
      "anonymous": false,
      "inputs": [
        {
          "indexed": true,
          "internalType": "address",
          "name": "owner",
          "type": "address"
        },
        {
          "indexed": true,
          "internalType": "address",
          "name": "spender",
          "type": "address"
        },
        {
          "indexed": false,
          "internalType": "uint256",
          "name": "value",
          "type": "uint256"
        }
      ],
      "name": "Approval",
      "type": "event"
    },
    {
      "anonymous": false,
      "inputs": [
        {
          "indexed": true,
          "internalType": "address",
          "name": "account",
          "type": "address"
        },
        {
          "indexed": false,
          "internalType": "uint256",
          "name": "amount",
          "type": "uint256"
        },
        {
          "indexed": true,
          "internalType": "bool",
          "name": "automatic",
          "type": "bool"
        }
      ],
      "name": "Claim",
      "type": "event"
    },
    {
      "anonymous": false,
      "inputs": [
        {
          "indexed": true,
          "internalType": "uint256",
          "name": "newValue",
          "type": "uint256"
        },
        {
          "indexed": true,
          "internalType": "uint256",
          "name": "oldValue",
          "type": "uint256"
        }
      ],
      "name": "ClaimWaitUpdated",
      "type": "event"
    },
    {
      "anonymous": false,
      "inputs": [
        {
          "indexed": true,
          "internalType": "address",
          "name": "to",
          "type": "address"
        },
        {
          "indexed": false,
          "internalType": "uint256",
          "name": "weiAmount",
          "type": "uint256"
        }
      ],
      "name": "DividendWithdrawn",
      "type": "event"
    },
    {
      "anonymous": false,
      "inputs": [
        {
          "indexed": true,
          "internalType": "address",
          "name": "from",
          "type": "address"
        },
        {
          "indexed": false,
          "internalType": "uint256",
          "name": "weiAmount",
          "type": "uint256"
        }
      ],
      "name": "DividendsDistributed",
      "type": "event"
    },
    {
      "anonymous": false,
      "inputs": [
        {
          "indexed": true,
          "internalType": "address",
          "name": "account",
          "type": "address"
        }
      ],
      "name": "ExcludeFromDividends",
      "type": "event"
    },
    {
      "anonymous": false,
      "inputs": [
        {
          "indexed": true,
          "internalType": "address",
          "name": "previousOwner",
          "type": "address"
        },
        {
          "indexed": true,
          "internalType": "address",
          "name": "newOwner",
          "type": "address"
        }
      ],
      "name": "OwnershipTransferred",
      "type": "event"
    },
    {
      "anonymous": false,
      "inputs": [
        {
          "indexed": true,
          "internalType": "address",
          "name": "from",
          "type": "address"
        },
        {
          "indexed": true,
          "internalType": "address",
          "name": "to",
          "type": "address"
        },
        {
          "indexed": false,
          "internalType": "uint256",
          "name": "value",
          "type": "uint256"
        }
      ],
      "name": "Transfer",
      "type": "event"
    },
    {
      "inputs": [
        {
          "internalType": "address",
          "name": "_owner",
          "type": "address"
        }
      ],
      "name": "accumulativeDividendOf",
      "outputs": [
        {
          "internalType": "uint256",
          "name": "",
          "type": "uint256"
        }
      ],
      "stateMutability": "view",
      "type": "function"
    },
    {
      "inputs": [
        {
          "internalType": "address",
          "name": "owner",
          "type": "address"
        },
        {
          "internalType": "address",
          "name": "spender",
          "type": "address"
        }
      ],
      "name": "allowance",
      "outputs": [
        {
          "internalType": "uint256",
          "name": "",
          "type": "uint256"
        }
      ],
      "stateMutability": "view",
      "type": "function"
    },
    {
      "inputs": [
        {
          "internalType": "address",
          "name": "spender",
          "type": "address"
        },
        {
          "internalType": "uint256",
          "name": "amount",
          "type": "uint256"
        }
      ],
      "name": "approve",
      "outputs": [
        {
          "internalType": "bool",
          "name": "",
          "type": "bool"
        }
      ],
      "stateMutability": "nonpayable",
      "type": "function"
    },
    {
      "inputs": [
        {
          "internalType": "address",
          "name": "account",
          "type": "address"
        }
      ],
      "name": "balanceOf",
      "outputs": [
        {
          "internalType": "uint256",
          "name": "",
          "type": "uint256"
        }
      ],
      "stateMutability": "view",
      "type": "function"
    },
    {
      "inputs": [],
      "name": "claimWait",
      "outputs": [
        {
          "internalType": "uint256",
          "name": "",
          "type": "uint256"
        }
      ],
      "stateMutability": "view",
      "type": "function"
    },
    {
      "inputs": [],
      "name": "decimals",
      "outputs": [
        {
          "internalType": "uint8",
          "name": "",
          "type": "uint8"
        }
      ],
      "stateMutability": "view",
      "type": "function"
    },
    {
      "inputs": [
        {
          "internalType": "address",
          "name": "spender",
          "type": "address"
        },
        {
          "internalType": "uint256",
          "name": "subtractedValue",
          "type": "uint256"
        }
      ],
      "name": "decreaseAllowance",
      "outputs": [
        {
          "internalType": "bool",
          "name": "",
          "type": "bool"
        }
      ],
      "stateMutability": "nonpayable",
      "type": "function"
    },
    {
      "inputs": [
        {
          "internalType": "uint256",
          "name": "amount",
          "type": "uint256"
        }
      ],
      "name": "distributeDividends",
      "outputs": [],
      "stateMutability": "nonpayable",
      "type": "function"
    },
    {
      "inputs": [
        {
          "internalType": "address",
          "name": "_owner",
          "type": "address"
        }
      ],
      "name": "dividendOf",
      "outputs": [
        {
          "internalType": "uint256",
          "name": "",
          "type": "uint256"
        }
      ],
      "stateMutability": "view",
      "type": "function"
    },
    {
      "inputs": [
        {
          "internalType": "address",
          "name": "",
          "type": "address"
        }
      ],
      "name": "excludedFromDividends",
      "outputs": [
        {
          "internalType": "bool",
          "name": "",
          "type": "bool"
        }
      ],
      "stateMutability": "view",
      "type": "function"
    },
    {
      "inputs": [
        {
          "internalType": "address",
          "name": "spender",
          "type": "address"
        },
        {
          "internalType": "uint256",
          "name": "addedValue",
          "type": "uint256"
        }
      ],
      "name": "increaseAllowance",
      "outputs": [
        {
          "internalType": "bool",
          "name": "",
          "type": "bool"
        }
      ],
      "stateMutability": "nonpayable",
      "type": "function"
    },
    {
      "inputs": [
        {
          "internalType": "address",
          "name": "",
          "type": "address"
        }
      ],
      "name": "lastClaimTimes",
      "outputs": [
        {
          "internalType": "uint256",
          "name": "",
          "type": "uint256"
        }
      ],
      "stateMutability": "view",
      "type": "function"
    },
    {
      "inputs": [],
      "name": "lastProcessedIndex",
      "outputs": [
        {
          "internalType": "uint256",
          "name": "",
          "type": "uint256"
        }
      ],
      "stateMutability": "view",
      "type": "function"
    },
    {
      "inputs": [],
      "name": "minimumTokenBalanceForDividends",
      "outputs": [
        {
          "internalType": "uint256",
          "name": "",
          "type": "uint256"
        }
      ],
      "stateMutability": "view",
      "type": "function"
    },
    {
      "inputs": [],
      "name": "name",
      "outputs": [
        {
          "internalType": "string",
          "name": "",
          "type": "string"
        }
      ],
      "stateMutability": "view",
      "type": "function"
    },
    {
      "inputs": [],
      "name": "owner",
      "outputs": [
        {
          "internalType": "address",
          "name": "",
          "type": "address"
        }
      ],
      "stateMutability": "view",
      "type": "function"
    },
    {
      "inputs": [],
      "name": "renounceOwnership",
      "outputs": [],
      "stateMutability": "nonpayable",
      "type": "function"
    },
    {
      "inputs": [],
      "name": "rewardToken",
      "outputs": [
        {
          "internalType": "address",
          "name": "",
          "type": "address"
        }
      ],
      "stateMutability": "view",
      "type": "function"
    },
    {
      "inputs": [],
      "name": "symbol",
      "outputs": [
        {
          "internalType": "string",
          "name": "",
          "type": "string"
        }
      ],
      "stateMutability": "view",
      "type": "function"
    },
    {
      "inputs": [],
      "name": "totalDividendsDistributed",
      "outputs": [
        {
          "internalType": "uint256",
          "name": "",
          "type": "uint256"
        }
      ],
      "stateMutability": "view",
      "type": "function"
    },
    {
      "inputs": [],
      "name": "totalSupply",
      "outputs": [
        {
          "internalType": "uint256",
          "name": "",
          "type": "uint256"
        }
      ],
      "stateMutability": "view",
      "type": "function"
    },
    {
      "inputs": [
        {
          "internalType": "address",
          "name": "to",
          "type": "address"
        },
        {
          "internalType": "uint256",
          "name": "amount",
          "type": "uint256"
        }
      ],
      "name": "transfer",
      "outputs": [
        {
          "internalType": "bool",
          "name": "",
          "type": "bool"
        }
      ],
      "stateMutability": "nonpayable",
      "type": "function"
    },
    {
      "inputs": [
        {
          "internalType": "address",
          "name": "from",
          "type": "address"
        },
        {
          "internalType": "address",
          "name": "to",
          "type": "address"
        },
        {
          "internalType": "uint256",
          "name": "amount",
          "type": "uint256"
        }
      ],
      "name": "transferFrom",
      "outputs": [
        {
          "internalType": "bool",
          "name": "",
          "type": "bool"
        }
      ],
      "stateMutability": "nonpayable",
      "type": "function"
    },
    {
      "inputs": [
        {
          "internalType": "address",
          "name": "newOwner",
          "type": "address"
        }
      ],
      "name": "transferOwnership",
      "outputs": [],
      "stateMutability": "nonpayable",
      "type": "function"
    },
    {
      "inputs": [
        {
          "internalType": "address",
          "name": "_owner",
          "type": "address"
        }
      ],
      "name": "withdrawableDividendOf",
      "outputs": [
        {
          "internalType": "uint256",
          "name": "",
          "type": "uint256"
        }
      ],
      "stateMutability": "view",
      "type": "function"
    },
    {
      "inputs": [
        {
          "internalType": "address",
          "name": "_owner",
          "type": "address"
        }
      ],
      "name": "withdrawnDividendOf",
      "outputs": [
        {
          "internalType": "uint256",
          "name": "",
          "type": "uint256"
        }
      ],
      "stateMutability": "view",
      "type": "function"
    },
    {
      "inputs": [],
      "name": "withdrawDividend",
      "outputs": [],
      "stateMutability": "pure",
      "type": "function"
    },
    {
      "inputs": [
        {
          "internalType": "uint256",
          "name": "_newMinimumBalance",
          "type": "uint256"
        }
      ],
      "name": "updateMinimumTokenBalanceForDividends",
      "outputs": [],
      "stateMutability": "nonpayable",
      "type": "function"
    },
    {
      "inputs": [
        {
          "internalType": "address",
          "name": "account",
          "type": "address"
        }
      ],
      "name": "excludeFromDividends",
      "outputs": [],
      "stateMutability": "nonpayable",
      "type": "function"
    },
    {
      "inputs": [
        {
          "internalType": "uint256",
          "name": "newClaimWait",
          "type": "uint256"
        }
      ],
      "name": "updateClaimWait",
      "outputs": [],
      "stateMutability": "nonpayable",
      "type": "function"
    },
    {
      "inputs": [
        {
          "internalType": "uint256",
          "name": "index",
          "type": "uint256"
        }
      ],
      "name": "setLastProcessedIndex",
      "outputs": [],
      "stateMutability": "nonpayable",
      "type": "function"
    },
    {
      "inputs": [],
      "name": "getLastProcessedIndex",
      "outputs": [
        {
          "internalType": "uint256",
          "name": "",
          "type": "uint256"
        }
      ],
      "stateMutability": "view",
      "type": "function"
    },
    {
      "inputs": [],
      "name": "getNumberOfTokenHolders",
      "outputs": [
        {
          "internalType": "uint256",
          "name": "",
          "type": "uint256"
        }
      ],
      "stateMutability": "view",
      "type": "function"
    },
    {
      "inputs": [
        {
          "internalType": "address",
          "name": "_account",
          "type": "address"
        }
      ],
      "name": "getAccount",
      "outputs": [
        {
          "internalType": "address",
          "name": "account",
          "type": "address"
        },
        {
          "internalType": "int256",
          "name": "index",
          "type": "int256"
        },
        {
          "internalType": "int256",
          "name": "iterationsUntilProcessed",
          "type": "int256"
        },
        {
          "internalType": "uint256",
          "name": "withdrawableDividends",
          "type": "uint256"
        },
        {
          "internalType": "uint256",
          "name": "totalDividends",
          "type": "uint256"
        },
        {
          "internalType": "uint256",
          "name": "lastClaimTime",
          "type": "uint256"
        },
        {
          "internalType": "uint256",
          "name": "nextClaimTime",
          "type": "uint256"
        },
        {
          "internalType": "uint256",
          "name": "secondsUntilAutoClaimAvailable",
          "type": "uint256"
        }
      ],
      "stateMutability": "view",
      "type": "function"
    },
    {
      "inputs": [
        {
          "internalType": "uint256",
          "name": "index",
          "type": "uint256"
        }
      ],
      "name": "getAccountAtIndex",
      "outputs": [
        {
          "internalType": "address",
          "name": "",
          "type": "address"
        },
        {
          "internalType": "int256",
          "name": "",
          "type": "int256"
        },
        {
          "internalType": "int256",
          "name": "",
          "type": "int256"
        },
        {
          "internalType": "uint256",
          "name": "",
          "type": "uint256"
        },
        {
          "internalType": "uint256",
          "name": "",
          "type": "uint256"
        },
        {
          "internalType": "uint256",
          "name": "",
          "type": "uint256"
        },
        {
          "internalType": "uint256",
          "name": "",
          "type": "uint256"
        },
        {
          "internalType": "uint256",
          "name": "",
          "type": "uint256"
        }
      ],
      "stateMutability": "view",
      "type": "function"
    },
    {
      "inputs": [
        {
          "internalType": "address payable",
          "name": "account",
          "type": "address"
        },
        {
          "internalType": "uint256",
          "name": "newBalance",
          "type": "uint256"
        }
      ],
      "name": "setBalance",
      "outputs": [],
      "stateMutability": "nonpayable",
      "type": "function"
    },
    {
      "inputs": [
        {
          "internalType": "uint256",
          "name": "gas",
          "type": "uint256"
        }
      ],
      "name": "process",
      "outputs": [
        {
          "internalType": "uint256",
          "name": "",
          "type": "uint256"
        },
        {
          "internalType": "uint256",
          "name": "",
          "type": "uint256"
        },
        {
          "internalType": "uint256",
          "name": "",
          "type": "uint256"
        }
      ],
      "stateMutability": "nonpayable",
      "type": "function"
    },
    {
      "inputs": [
        {
          "internalType": "address payable",
          "name": "account",
          "type": "address"
        },
        {
          "internalType": "bool",
          "name": "automatic",
          "type": "bool"
        }
      ],
      "name": "processAccount",
      "outputs": [
        {
          "internalType": "bool",
          "name": "",
          "type": "bool"
        }
      ],
      "stateMutability": "nonpayable",
      "type": "function"
    }
  ],
  "bytecode": "0x60a06040523480156200001157600080fd5b5060405162003e2b38038062003e2b8339818101604052810190620000379190620002c3565b6040518060400160405280600e81526020017f52657761726420547261636b65720000000000000000000000000000000000008152506040518060400160405280600f81526020017f4469766964656e64547261636b657200000000000000000000000000000000008152508282828160039081620000b791906200057a565b508060049081620000c991906200057a565b505050620000ec620000e06200015060201b60201c565b6200015860201b60201c565b8073ffffffffffffffffffffffffffffffffffffffff1660808173ffffffffffffffffffffffffffffffffffffffff1681525050505050610e10601181905550670de0b6b3a76400008262000142919062000690565b6012819055505050620006db565b600033905090565b6000600560009054906101000a900473ffffffffffffffffffffffffffffffffffffffff16905081600560006101000a81548173ffffffffffffffffffffffffffffffffffffffff021916908373ffffffffffffffffffffffffffffffffffffffff1602179055508173ffffffffffffffffffffffffffffffffffffffff168173ffffffffffffffffffffffffffffffffffffffff167f8be0079c531659141344cd1fd0a4f28419497f9722a3daafe3b4186f6b6457e060405160405180910390a35050565b600080fd5b6000819050919050565b620002388162000223565b81146200024457600080fd5b50565b60008151905062000258816200022d565b92915050565b600073ffffffffffffffffffffffffffffffffffffffff82169050919050565b60006200028b826200025e565b9050919050565b6200029d816200027e565b8114620002a957600080fd5b50565b600081519050620002bd8162000292565b92915050565b60008060408385031215620002dd57620002dc6200021e565b5b6000620002ed8582860162000247565b92505060206200030085828601620002ac565b9150509250929050565b600081519050919050565b7f4e487b7100000000000000000000000000000000000000000000000000000000600052604160045260246000fd5b7f4e487b7100000000000000000000000000000000000000000000000000000000600052602260045260246000fd5b600060028204905060018216806200038c57607f821691505b602082108103620003a257620003a162000344565b5b50919050565b60008190508160005260206000209050919050565b60006020601f8301049050919050565b600082821b905092915050565b6000600883026200040c7fffffffffffffffffffffffffffffffffffffffffffffffffffffffffffffffff82620003cd565b620004188683620003cd565b95508019841693508086168417925050509392505050565b6000819050919050565b60006200045b620004556200044f8462000223565b62000430565b62000223565b9050919050565b6000819050919050565b62000477836200043a565b6200048f620004868262000462565b848454620003da565b825550505050565b600090565b620004a662000497565b620004b38184846200046c565b505050565b5b81811015620004db57620004cf6000826200049c565b600181019050620004b9565b5050565b601f8211156200052a57620004f481620003a8565b620004ff84620003bd565b810160208510156200050f578190505b620005276200051e85620003bd565b830182620004b8565b50505b505050565b600082821c905092915050565b60006200054f600019846008026200052f565b1980831691505092915050565b60006200056a83836200053c565b9150826002028217905092915050565b62000585826200030a565b67ffffffffffffffff811115620005a157620005a062000315565b5b620005ad825462000373565b620005ba828285620004df565b600060209050601f831160018114620005f25760008415620005dd578287015190505b620005e985826200055c565b86555062000659565b601f1984166200060286620003a8565b60005b828110156200062c5784890151825560018201915060208501945060208101905062000605565b868310156200064c578489015162000648601f8916826200053c565b8355505b6001600288020188555050505b505050505050565b7f4e487b7100000000000000000000000000000000000000000000000000000000600052601160045260246000fd5b60006200069d8262000223565b9150620006aa8362000223565b9250828202620006ba8162000223565b91508282048414831517620006d457620006d362000661565b5b5092915050565b60805161372d620006fe600039600081816114f10152611e96015261372d6000f3fe608060405234801561001057600080fd5b50600436106102325760003560e01c8063715018a611610130578063bc4c4b37116100b8578063e98030c71161007c578063e98030c7146106f8578063f2fde38b14610714578063f7c618c114610730578063fbcbc0f11461074e578063ffb2c4791461078557610232565b8063bc4c4b3714610640578063be10b61414610670578063dd62ed3e1461068e578063e30443bc146106be578063e7841ec0146106da57610232565b806395d89b41116100ff57806395d89b4114610562578063a457c2d714610580578063a8b9d240146105b0578063a9059cbb146105e0578063aafd847a1461061057610232565b8063715018a6146104ec57806385a6b3ae146104f65780638da5cb5b1461051457806391b89fba1461053257610232565b80633009a609116101be5780634e7b827f116101825780634e7b827f1461042d5780635183d6fd1461045d5780636a474002146104945780636f2789ec1461049e57806370a08231146104bc57610232565b80633009a60914610389578063313ce567146103a757806331e79db0146103c55780633243c791146103e157806339509351146103fd57610232565b806318160ddd1161020557806318160ddd146102bf578063226cfa3d146102dd57806323b872dd1461030d57806327ce01471461033d578063286b3aa01461036d57610232565b806306fdde0314610237578063095ea7b31461025557806309bbedde146102855780630dcb2e89146102a3575b600080fd5b61023f6107b7565b60405161024c91906125a7565b60405180910390f35b61026f600480360381019061026a9190612662565b610849565b60405161027c91906126bd565b60405180910390f35b61028d61086c565b60405161029a91906126e7565b60405180910390f35b6102bd60048036038101906102b89190612702565b61087c565b005b6102c76108d2565b6040516102d491906126e7565b60405180910390f35b6102f760048036038101906102f2919061272f565b6108dc565b60405161030491906126e7565b60405180910390f35b6103276004803603810190610322919061275c565b6108f4565b60405161033491906126bd565b60405180910390f35b6103576004803603810190610352919061272f565b610923565b60405161036491906126e7565b60405180910390f35b61038760048036038101906103829190612702565b6109c6565b005b6103916109d8565b60405161039e91906126e7565b60405180910390f35b6103af6109de565b6040516103bc91906127cb565b60405180910390f35b6103df60048036038101906103da919061272f565b6109e7565b005b6103fb60048036038101906103f69190612702565b610b5b565b005b61041760048036038101906104129190612662565b610c3d565b60405161042491906126bd565b60405180910390f35b6104476004803603810190610442919061272f565b610c74565b60405161045491906126bd565b60405180910390f35b61047760048036038101906104729190612702565b610c94565b60405161048b98979695949392919061280e565b60405180910390f35b61049c610e09565b005b6104a6610e4c565b6040516104b391906126e7565b60405180910390f35b6104d660048036038101906104d1919061272f565b610e52565b6040516104e391906126e7565b60405180910390f35b6104f4610e9a565b005b6104fe610eae565b60405161050b91906126e7565b60405180910390f35b61051c610eb4565b604051610529919061288c565b60405180910390f35b61054c6004803603810190610547919061272f565b610ede565b60405161055991906126e7565b60405180910390f35b61056a610ef0565b60405161057791906125a7565b60405180910390f35b61059a60048036038101906105959190612662565b610f82565b6040516105a791906126bd565b60405180910390f35b6105ca60048036038101906105c5919061272f565b610ff9565b6040516105d791906126e7565b60405180910390f35b6105fa60048036038101906105f59190612662565b61105c565b60405161060791906126bd565b60405180910390f35b61062a6004803603810190610625919061272f565b61107f565b60405161063791906126e7565b60405180910390f35b61065a60048036038101906106559190612911565b6110c8565b60405161066791906126bd565b60405180910390f35b610678611193565b60405161068591906126e7565b60405180910390f35b6106a860048036038101906106a39190612951565b611199565b6040516106b591906126e7565b60405180910390f35b6106d860048036038101906106d39190612991565b611220565b005b6106e2611388565b6040516106ef91906126e7565b60405180910390f35b610712600480360381019061070d9190612702565b611392565b005b61072e6004803603810190610729919061272f565b61146c565b005b6107386114ef565b604051610745919061288c565b60405180910390f35b6107686004803603810190610763919061272f565b611513565b60405161077c98979695949392919061280e565b60405180910390f35b61079f600480360381019061079a9190612702565b6116f2565b6040516107ae939291906129d1565b60405180910390f35b6060600380546107c690612a37565b80601f01602080910402602001604051908101604052809291908181526020018280546107f290612a37565b801561083f5780601f106108145761010080835404028352916020019161083f565b820191906000526020600020905b81548152906001019060200180831161082257829003601f168201915b5050505050905090565b600080610854611883565b905061086181858561188b565b600191505092915050565b6000600a60000180549050905090565b610884611a54565b60125481036108c8576040517f08c379a00000000000000000000000000000000000000000000000000000000081526004016108bf90612b00565b60405180910390fd5b8060128190555050565b6000600254905090565b60106020528060005260406000206000915090505481565b6000806108ff611883565b905061090c858285611ad2565b610917858585611b5e565b60019150509392505050565b60007001000000000000000000000000000000006109b56109b0600860008673ffffffffffffffffffffffffffffffffffffffff1673ffffffffffffffffffffffffffffffffffffffff168152602001908152602001600020546109a261099d61098c88610e52565b600654611ba490919063ffffffff16565b611bba565b611bd790919063ffffffff16565b611c22565b6109bf9190612b7e565b9050919050565b6109ce611a54565b80600e8190555050565b600e5481565b60006012905090565b6109ef611a54565b600f60008273ffffffffffffffffffffffffffffffffffffffff1673ffffffffffffffffffffffffffffffffffffffff16815260200190815260200160002060009054906101000a900460ff1615610a4657600080fd5b6001600f60008373ffffffffffffffffffffffffffffffffffffffff1673ffffffffffffffffffffffffffffffffffffffff16815260200190815260200160002060006101000a81548160ff021916908315150217905550610aa9816000611c39565b600a73__IterableMapping_______________________634c60db9c9091836040518363ffffffff1660e01b8152600401610ae5929190612bc5565b60006040518083038186803b158015610afd57600080fd5b505af4158015610b11573d6000803e3d6000fd5b505050508073ffffffffffffffffffffffffffffffffffffffff167fa878b31040b2e6d0a9a3d3361209db3908ba62014b0dca52adbaee451d128b2560405160405180910390a250565b610b63611a54565b6000610b6d6108d2565b11610b7757600080fd5b6000811115610c3a57610bca610b8b6108d2565b610baf70010000000000000000000000000000000084611ba490919063ffffffff16565b610bb99190612b7e565b600654611ca690919063ffffffff16565b6006819055503373ffffffffffffffffffffffffffffffffffffffff167fa493a9229478c3fcd73f66d2cdeb7f94fd0f341da924d1054236d7845411651182604051610c1691906126e7565b60405180910390a2610c3381600754611ca690919063ffffffff16565b6007819055505b50565b600080610c48611883565b9050610c69818585610c5a8589611199565b610c649190612bee565b61188b565b600191505092915050565b600f6020528060005260406000206000915054906101000a900460ff1681565b600080600080600080600080600a73__IterableMapping_______________________63deb3d89690916040518263ffffffff1660e01b8152600401610cda9190612c22565b602060405180830381865af4158015610cf7573d6000803e3d6000fd5b505050506040513d601f19601f82011682018060405250810190610d1b9190612c52565b8910610d625760007fffffffffffffffffffffffffffffffffffffffffffffffffffffffffffffffff80600080600080600097509750975097509750975097509750610dfe565b6000600a73__IterableMapping_______________________63d1aa9e7e90918c6040518363ffffffff1660e01b8152600401610da0929190612c8e565b602060405180830381865af4158015610dbd573d6000803e3d6000fd5b505050506040513d601f19601f82011682018060405250810190610de19190612ccc565b9050610dec81611513565b98509850985098509850985098509850505b919395975091939597565b6000610e4a576040517f08c379a0000000000000000000000000000000000000000000000000000000008152600401610e4190612d91565b60405180910390fd5b565b60115481565b60008060008373ffffffffffffffffffffffffffffffffffffffff1673ffffffffffffffffffffffffffffffffffffffff168152602001908152602001600020549050919050565b610ea2611a54565b610eac6000611cbc565b565b60075481565b6000600560009054906101000a900473ffffffffffffffffffffffffffffffffffffffff16905090565b6000610ee982610ff9565b9050919050565b606060048054610eff90612a37565b80601f0160208091040260200160405190810160405280929190818152602001828054610f2b90612a37565b8015610f785780601f10610f4d57610100808354040283529160200191610f78565b820191906000526020600020905b815481529060010190602001808311610f5b57829003601f168201915b5050505050905090565b600080610f8d611883565b90506000610f9b8286611199565b905083811015610fe0576040517f08c379a0000000000000000000000000000000000000000000000000000000008152600401610fd790612e23565b60405180910390fd5b610fed828686840361188b565b60019250505092915050565b6000611055600960008473ffffffffffffffffffffffffffffffffffffffff1673ffffffffffffffffffffffffffffffffffffffff1681526020019081526020016000205461104784610923565b611d8290919063ffffffff16565b9050919050565b600080611067611883565b9050611074818585611b5e565b600191505092915050565b6000600960008373ffffffffffffffffffffffffffffffffffffffff1673ffffffffffffffffffffffffffffffffffffffff168152602001908152602001600020549050919050565b60006110d2611a54565b60006110dd84611d98565b905060008111156111875742601060008673ffffffffffffffffffffffffffffffffffffffff1673ffffffffffffffffffffffffffffffffffffffff168152602001908152602001600020819055508215158473ffffffffffffffffffffffffffffffffffffffff167fa2c38e2d2fb7e3e1912d937fd1ca11ed6d51864dee4cfa7a7bf02becd7acf0928360405161117591906126e7565b60405180910390a3600191505061118d565b60009150505b92915050565b60125481565b6000600160008473ffffffffffffffffffffffffffffffffffffffff1673ffffffffffffffffffffffffffffffffffffffff16815260200190815260200160002060008373ffffffffffffffffffffffffffffffffffffffff1673ffffffffffffffffffffffffffffffffffffffff16815260200190815260200160002054905092915050565b611228611a54565b600f60008373ffffffffffffffffffffffffffffffffffffffff1673ffffffffffffffffffffffffffffffffffffffff16815260200190815260200160002060009054906101000a900460ff166113845760125481106112ff5761128c8282611c39565b600a73__IterableMapping_______________________63bc2b405c909184846040518463ffffffff1660e01b81526004016112ca93929190612ea2565b60006040518083038186803b1580156112e257600080fd5b505af41580156112f6573d6000803e3d6000fd5b50505050611377565b61130a826000611c39565b600a73__IterableMapping_______________________634c60db9c9091846040518363ffffffff1660e01b8152600401611346929190612ed9565b60006040518083038186803b15801561135e57600080fd5b505af4158015611372573d6000803e3d6000fd5b505050505b6113828260016110c8565b505b5050565b6000600e54905090565b61139a611a54565b610e1081101580156113af5750620151808111155b6113ee576040517f08c379a00000000000000000000000000000000000000000000000000000000081526004016113e590612f74565b60405180910390fd5b6011548103611432576040517f08c379a000000000000000000000000000000000000000000000000000000000815260040161142990613006565b60405180910390fd5b601154817f474ea64804364a1e29a4487ddb63c3342a2dd826ccd8acf48825e680a0e6f20f60405160405180910390a38060118190555050565b611474611a54565b600073ffffffffffffffffffffffffffffffffffffffff168173ffffffffffffffffffffffffffffffffffffffff16036114e3576040517f08c379a00000000000000000000000000000000000000000000000000000000081526004016114da90613098565b60405180910390fd5b6114ec81611cbc565b50565b7f000000000000000000000000000000000000000000000000000000000000000081565b600080600080600080600080889750600a73__IterableMapping_______________________6317e142d190918a6040518363ffffffff1660e01b815260040161155e929190612bc5565b602060405180830381865af415801561157b573d6000803e3d6000fd5b505050506040513d601f19601f8201168201806040525081019061159f91906130e4565b96507fffffffffffffffffffffffffffffffffffffffffffffffffffffffffffffffff95506000871261164457600e548711156115f2576115eb600e5488611fee90919063ffffffff16565b9550611643565b6000600e54600a600001805490501161160c57600061162a565b611629600e54600a60000180549050611d8290919063ffffffff16565b5b905061163f8189611bd790919063ffffffff16565b9650505b5b61164d88610ff9565b945061165888610923565b9350601060008973ffffffffffffffffffffffffffffffffffffffff1673ffffffffffffffffffffffffffffffffffffffff168152602001908152602001600020549250600083116116ab5760006116c1565b6116c060115484611ca690919063ffffffff16565b5b91504282116116d15760006116e5565b6116e44283611d8290919063ffffffff16565b5b9050919395975091939597565b600080600080600a6000018054905090506000810361171d57600080600e549350935093505061187c565b6000600e5490506000805a90506000805b898410801561173c57508582105b1561186357848061174c90613111565b955050600a60000180549050851061176357600094505b6000600a600001868154811061177c5761177b613159565b5b9060005260206000200160009054906101000a900473ffffffffffffffffffffffffffffffffffffffff1690506117f1601060008373ffffffffffffffffffffffffffffffffffffffff1673ffffffffffffffffffffffffffffffffffffffff16815260200190815260200160002054612039565b15611816576118018160016110c8565b1561181557818061181190613111565b9250505b5b828061182190613111565b93505060005a905080851115611859576118566118478287611d8290919063ffffffff16565b87611ca690919063ffffffff16565b95505b809450505061172e565b84600e819055508181600e549850985098505050505050505b9193909250565b600033905090565b600073ffffffffffffffffffffffffffffffffffffffff168373ffffffffffffffffffffffffffffffffffffffff16036118fa576040517f08c379a00000000000000000000000000000000000000000000000000000000081526004016118f1906131fa565b60405180910390fd5b600073ffffffffffffffffffffffffffffffffffffffff168273ffffffffffffffffffffffffffffffffffffffff1603611969576040517f08c379a00000000000000000000000000000000000000000000000000000000081526004016119609061328c565b60405180910390fd5b80600160008573ffffffffffffffffffffffffffffffffffffffff1673ffffffffffffffffffffffffffffffffffffffff16815260200190815260200160002060008473ffffffffffffffffffffffffffffffffffffffff1673ffffffffffffffffffffffffffffffffffffffff168152602001908152602001600020819055508173ffffffffffffffffffffffffffffffffffffffff168373ffffffffffffffffffffffffffffffffffffffff167f8c5be1e5ebec7d5bd14f71427d1e84f3dd0314c0f7b2291e5b200ac8c7c3b92583604051611a4791906126e7565b60405180910390a3505050565b611a5c611883565b73ffffffffffffffffffffffffffffffffffffffff16611a7a610eb4565b73ffffffffffffffffffffffffffffffffffffffff1614611ad0576040517f08c379a0000000000000000000000000000000000000000000000000000000008152600401611ac7906132f8565b60405180910390fd5b565b6000611ade8484611199565b90507fffffffffffffffffffffffffffffffffffffffffffffffffffffffffffffffff8114611b585781811015611b4a576040517f08c379a0000000000000000000000000000000000000000000000000000000008152600401611b4190613364565b60405180910390fd5b611b57848484840361188b565b5b50505050565b6000611b9f576040517f08c379a0000000000000000000000000000000000000000000000000000000008152600401611b96906133d0565b60405180910390fd5b505050565b60008183611bb291906133f0565b905092915050565b6000808290506000811215611bce57600080fd5b80915050919050565b6000808284611be69190613432565b905060008312158015611bf95750838112155b80611c0f5750600083128015611c0e57508381125b5b611c1857600080fd5b8091505092915050565b600080821215611c3157600080fd5b819050919050565b6000611c4483610e52565b905080821115611c75576000611c638284611d8290919063ffffffff16565b9050611c6f848261206c565b50611ca1565b80821015611ca0576000611c928383611d8290919063ffffffff16565b9050611c9e848261212b565b505b5b505050565b60008183611cb49190612bee565b905092915050565b6000600560009054906101000a900473ffffffffffffffffffffffffffffffffffffffff16905081600560006101000a81548173ffffffffffffffffffffffffffffffffffffffff021916908373ffffffffffffffffffffffffffffffffffffffff1602179055508173ffffffffffffffffffffffffffffffffffffffff168173ffffffffffffffffffffffffffffffffffffffff167f8be0079c531659141344cd1fd0a4f28419497f9722a3daafe3b4186f6b6457e060405160405180910390a35050565b60008183611d909190613476565b905092915050565b600080611da483610ff9565b90506000811115611fe357611e0181600960008673ffffffffffffffffffffffffffffffffffffffff1673ffffffffffffffffffffffffffffffffffffffff16815260200190815260200160002054611ca690919063ffffffff16565b600960008573ffffffffffffffffffffffffffffffffffffffff1673ffffffffffffffffffffffffffffffffffffffff168152602001908152602001600020819055508273ffffffffffffffffffffffffffffffffffffffff167fee503bee2bb6a87e57bc57db795f98137327401a0e7b7ce42e37926cc1a9ca4d82604051611e8a91906126e7565b60405180910390a260007f000000000000000000000000000000000000000000000000000000000000000073ffffffffffffffffffffffffffffffffffffffff1663a9059cbb85846040518363ffffffff1660e01b8152600401611eef9291906134b9565b6020604051808303816000875af1158015611f0e573d6000803e3d6000fd5b505050506040513d601f19601f82011682018060405250810190611f3291906134f7565b905080611fd957611f8b82600960008773ffffffffffffffffffffffffffffffffffffffff1673ffffffffffffffffffffffffffffffffffffffff16815260200190815260200160002054611d8290919063ffffffff16565b600960008673ffffffffffffffffffffffffffffffffffffffff1673ffffffffffffffffffffffffffffffffffffffff16815260200190815260200160002081905550600092505050611fe9565b8192505050611fe9565b60009150505b919050565b6000808284611ffd9190613524565b9050600083121580156120105750838113155b80612026575060008312801561202557508381135b5b61202f57600080fd5b8091505092915050565b60004282111561204c5760009050612067565b6011546120628342611d8290919063ffffffff16565b101590505b919050565b61207682826121ea565b6120e461209661209183600654611ba490919063ffffffff16565b611bba565b600860008573ffffffffffffffffffffffffffffffffffffffff1673ffffffffffffffffffffffffffffffffffffffff16815260200190815260200160002054611fee90919063ffffffff16565b600860008473ffffffffffffffffffffffffffffffffffffffff1673ffffffffffffffffffffffffffffffffffffffff168152602001908152602001600020819055505050565b6121358282612340565b6121a361215561215083600654611ba490919063ffffffff16565b611bba565b600860008573ffffffffffffffffffffffffffffffffffffffff1673ffffffffffffffffffffffffffffffffffffffff16815260200190815260200160002054611bd790919063ffffffff16565b600860008473ffffffffffffffffffffffffffffffffffffffff1673ffffffffffffffffffffffffffffffffffffffff168152602001908152602001600020819055505050565b600073ffffffffffffffffffffffffffffffffffffffff168273ffffffffffffffffffffffffffffffffffffffff1603612259576040517f08c379a0000000000000000000000000000000000000000000000000000000008152600401612250906135b3565b60405180910390fd5b6122656000838361250d565b80600260008282546122779190612bee565b92505081905550806000808473ffffffffffffffffffffffffffffffffffffffff1673ffffffffffffffffffffffffffffffffffffffff168152602001908152602001600020600082825401925050819055508173ffffffffffffffffffffffffffffffffffffffff16600073ffffffffffffffffffffffffffffffffffffffff167fddf252ad1be2c89b69c2b068fc378daa952ba7f163c4a11628f55a4df523b3ef8360405161232891906126e7565b60405180910390a361233c60008383612512565b5050565b600073ffffffffffffffffffffffffffffffffffffffff168273ffffffffffffffffffffffffffffffffffffffff16036123af576040517f08c379a00000000000000000000000000000000000000000000000000000000081526004016123a690613645565b60405180910390fd5b6123bb8260008361250d565b60008060008473ffffffffffffffffffffffffffffffffffffffff1673ffffffffffffffffffffffffffffffffffffffff16815260200190815260200160002054905081811015612441576040517f08c379a0000000000000000000000000000000000000000000000000000000008152600401612438906136d7565b60405180910390fd5b8181036000808573ffffffffffffffffffffffffffffffffffffffff1673ffffffffffffffffffffffffffffffffffffffff1681526020019081526020016000208190555081600260008282540392505081905550600073ffffffffffffffffffffffffffffffffffffffff168373ffffffffffffffffffffffffffffffffffffffff167fddf252ad1be2c89b69c2b068fc378daa952ba7f163c4a11628f55a4df523b3ef846040516124f491906126e7565b60405180910390a361250883600084612512565b505050565b505050565b505050565b600081519050919050565b600082825260208201905092915050565b60005b83811015612551578082015181840152602081019050612536565b60008484015250505050565b6000601f19601f8301169050919050565b600061257982612517565b6125838185612522565b9350612593818560208601612533565b61259c8161255d565b840191505092915050565b600060208201905081810360008301526125c1818461256e565b905092915050565b600080fd5b600073ffffffffffffffffffffffffffffffffffffffff82169050919050565b60006125f9826125ce565b9050919050565b612609816125ee565b811461261457600080fd5b50565b60008135905061262681612600565b92915050565b6000819050919050565b61263f8161262c565b811461264a57600080fd5b50565b60008135905061265c81612636565b92915050565b60008060408385031215612679576126786125c9565b5b600061268785828601612617565b92505060206126988582860161264d565b9150509250929050565b60008115159050919050565b6126b7816126a2565b82525050565b60006020820190506126d260008301846126ae565b92915050565b6126e18161262c565b82525050565b60006020820190506126fc60008301846126d8565b92915050565b600060208284031215612718576127176125c9565b5b60006127268482850161264d565b91505092915050565b600060208284031215612745576127446125c9565b5b600061275384828501612617565b91505092915050565b600080600060608486031215612775576127746125c9565b5b600061278386828701612617565b935050602061279486828701612617565b92505060406127a58682870161264d565b9150509250925092565b600060ff82169050919050565b6127c5816127af565b82525050565b60006020820190506127e060008301846127bc565b92915050565b6127ef816125ee565b82525050565b6000819050919050565b612808816127f5565b82525050565b600061010082019050612824600083018b6127e6565b612831602083018a6127ff565b61283e60408301896127ff565b61284b60608301886126d8565b61285860808301876126d8565b61286560a08301866126d8565b61287260c08301856126d8565b61287f60e08301846126d8565b9998505050505050505050565b60006020820190506128a160008301846127e6565b92915050565b60006128b2826125ce565b9050919050565b6128c2816128a7565b81146128cd57600080fd5b50565b6000813590506128df816128b9565b92915050565b6128ee816126a2565b81146128f957600080fd5b50565b60008135905061290b816128e5565b92915050565b60008060408385031215612928576129276125c9565b5b6000612936858286016128d0565b9250506020612947858286016128fc565b9150509250929050565b60008060408385031215612968576129676125c9565b5b600061297685828601612617565b925050602061298785828601612617565b9150509250929050565b600080604083850312156129a8576129a76125c9565b5b60006129b6858286016128d0565b92505060206129c78582860161264d565b9150509250929050565b60006060820190506129e660008301866126d8565b6129f360208301856126d8565b612a0060408301846126d8565b949350505050565b7f4e487b7100000000000000000000000000000000000000000000000000000000600052602260045260246000fd5b60006002820490506001821680612a4f57607f821691505b602082108103612a6257612a61612a08565b5b50919050565b7f4e6577206d696d696d756d2062616c616e636520666f72206469766964656e6460008201527f2063616e6e6f742062652073616d652061732063757272656e74206d696e696d60208201527f756d2062616c616e636500000000000000000000000000000000000000000000604082015250565b6000612aea604a83612522565b9150612af582612a68565b606082019050919050565b60006020820190508181036000830152612b1981612add565b9050919050565b7f4e487b7100000000000000000000000000000000000000000000000000000000600052601260045260246000fd5b7f4e487b7100000000000000000000000000000000000000000000000000000000600052601160045260246000fd5b6000612b898261262c565b9150612b948361262c565b925082612ba457612ba3612b20565b5b828204905092915050565b8082525050565b612bbf816125ee565b82525050565b6000604082019050612bda6000830185612baf565b612be76020830184612bb6565b9392505050565b6000612bf98261262c565b9150612c048361262c565b9250828201905080821115612c1c57612c1b612b4f565b5b92915050565b6000602082019050612c376000830184612baf565b92915050565b600081519050612c4c81612636565b92915050565b600060208284031215612c6857612c676125c9565b5b6000612c7684828501612c3d565b91505092915050565b612c888161262c565b82525050565b6000604082019050612ca36000830185612baf565b612cb06020830184612c7f565b9392505050565b600081519050612cc681612600565b92915050565b600060208284031215612ce257612ce16125c9565b5b6000612cf084828501612cb7565b91505092915050565b7f77697468647261774469766964656e642064697361626c65642e20557365207460008201527f68652027636c61696d272066756e6374696f6e206f6e20746865206d61696e2060208201527f636f6e74726163742e0000000000000000000000000000000000000000000000604082015250565b6000612d7b604983612522565b9150612d8682612cf9565b606082019050919050565b60006020820190508181036000830152612daa81612d6e565b9050919050565b7f45524332303a2064656372656173656420616c6c6f77616e63652062656c6f7760008201527f207a65726f000000000000000000000000000000000000000000000000000000602082015250565b6000612e0d602583612522565b9150612e1882612db1565b604082019050919050565b60006020820190508181036000830152612e3c81612e00565b9050919050565b6000819050919050565b6000612e68612e63612e5e846125ce565b612e43565b6125ce565b9050919050565b6000612e7a82612e4d565b9050919050565b6000612e8c82612e6f565b9050919050565b612e9c81612e81565b82525050565b6000606082019050612eb76000830186612baf565b612ec46020830185612e93565b612ed16040830184612c7f565b949350505050565b6000604082019050612eee6000830185612baf565b612efb6020830184612e93565b9392505050565b7f636c61696d57616974206d757374206265207570646174656420746f2062657460008201527f7765656e203120616e6420323420686f75727300000000000000000000000000602082015250565b6000612f5e603383612522565b9150612f6982612f02565b604082019050919050565b60006020820190508181036000830152612f8d81612f51565b9050919050565b7f43616e6e6f742075706461746520636c61696d5761697420746f2073616d652060008201527f76616c7565000000000000000000000000000000000000000000000000000000602082015250565b6000612ff0602583612522565b9150612ffb82612f94565b604082019050919050565b6000602082019050818103600083015261301f81612fe3565b9050919050565b7f4f776e61626c653a206e6577206f776e657220697320746865207a65726f206160008201527f6464726573730000000000000000000000000000000000000000000000000000602082015250565b6000613082602683612522565b915061308d82613026565b604082019050919050565b600060208201905081810360008301526130b181613075565b9050919050565b6130c1816127f5565b81146130cc57600080fd5b50565b6000815190506130de816130b8565b92915050565b6000602082840312156130fa576130f96125c9565b5b6000613108848285016130cf565b91505092915050565b600061311c8261262c565b91507fffffffffffffffffffffffffffffffffffffffffffffffffffffffffffffffff820361314e5761314d612b4f565b5b600182019050919050565b7f4e487b7100000000000000000000000000000000000000000000000000000000600052603260045260246000fd5b7f45524332303a20617070726f76652066726f6d20746865207a65726f2061646460008201527f7265737300000000000000000000000000000000000000000000000000000000602082015250565b60006131e4602483612522565b91506131ef82613188565b604082019050919050565b60006020820190508181036000830152613213816131d7565b9050919050565b7f45524332303a20617070726f766520746f20746865207a65726f20616464726560008201527f7373000000000000000000000000000000000000000000000000000000000000602082015250565b6000613276602283612522565b91506132818261321a565b604082019050919050565b600060208201905081810360008301526132a581613269565b9050919050565b7f4f776e61626c653a2063616c6c6572206973206e6f7420746865206f776e6572600082015250565b60006132e2602083612522565b91506132ed826132ac565b602082019050919050565b60006020820190508181036000830152613311816132d5565b9050919050565b7f45524332303a20696e73756666696369656e7420616c6c6f77616e6365000000600082015250565b600061334e601d83612522565b915061335982613318565b602082019050919050565b6000602082019050818103600083015261337d81613341565b9050919050565b7f4e6f207472616e736665727320616c6c6f776564000000000000000000000000600082015250565b60006133ba601483612522565b91506133c582613384565b602082019050919050565b600060208201905081810360008301526133e9816133ad565b9050919050565b60006133fb8261262c565b91506134068361262c565b92508282026134148161262c565b9150828204841483151761342b5761342a612b4f565b5b5092915050565b600061343d826127f5565b9150613448836127f5565b9250828201905082811215600083121683821260008412151617156134705761346f612b4f565b5b92915050565b60006134818261262c565b915061348c8361262c565b92508282039050818111156134a4576134a3612b4f565b5b92915050565b6134b381612e81565b82525050565b60006040820190506134ce60008301856134aa565b6134db60208301846126d8565b9392505050565b6000815190506134f1816128e5565b92915050565b60006020828403121561350d5761350c6125c9565b5b600061351b848285016134e2565b91505092915050565b600061352f826127f5565b915061353a836127f5565b925082820390508181126000841216828213600085121516171561356157613560612b4f565b5b92915050565b7f45524332303a206d696e7420746f20746865207a65726f206164647265737300600082015250565b600061359d601f83612522565b91506135a882613567565b602082019050919050565b600060208201905081810360008301526135cc81613590565b9050919050565b7f45524332303a206275726e2066726f6d20746865207a65726f2061646472657360008201527f7300000000000000000000000000000000000000000000000000000000000000602082015250565b600061362f602183612522565b915061363a826135d3565b604082019050919050565b6000602082019050818103600083015261365e81613622565b9050919050565b7f45524332303a206275726e20616d6f756e7420657863656564732062616c616e60008201527f6365000000000000000000000000000000000000000000000000000000000000602082015250565b60006136c1602283612522565b91506136cc82613665565b604082019050919050565b600060208201905081810360008301526136f0816136b4565b905091905056fea26469706673582212209e9ababe4c1e928474775f2f0fcb272519e29674b0b4e283db24c8790f4ba39e64736f6c63430008130033",
  "immutableReferences": {
    "2479": [
      {
        "length": 32,
        "start": 5361
      },
      {
        "length": 32,
        "start": 7830
      }
    ]
  },
  "source": "// SPDX-License-Identifier: UNLICENSED\npragma solidity 0.8.19;\n\nimport \"@openzeppelin/contracts/token/ERC20/ERC20.sol\";\nimport \"@openzeppelin/contracts/access/Ownable.sol\";\nimport \"@openzeppelin/contracts/utils/Address.sol\";\nimport \"@uniswap/v2-periphery/contracts/interfaces/IUniswapV2Router02.sol\";\nimport \"@uniswap/v2-core/contracts/interfaces/IUniswapV2Factory.sol\";\nimport \"./DividendPayingToken.sol\";\nimport \"./lib/IterableMapping.sol\";\n\ncontract DividendTracker is Ownable, DividendPayingToken {\n\t\n    using SafeMath for uint256;\n    using SafeMathInt for int256;\n    using IterableMapping for IterableMapping.Map;\n\n    IterableMapping.Map private tokenHoldersMap;\n    uint256 public lastProcessedIndex;\n\n    mapping(address => bool) public excludedFromDividends;\n    mapping(address => uint256) public lastClaimTimes;\n\n    uint256 public claimWait;\n    uint256 public minimumTokenBalanceForDividends;\n\n    event ExcludeFromDividends(address indexed account);\n    event ClaimWaitUpdated(uint256 indexed newValue, uint256 indexed oldValue);\n\n    event Claim(\n        address indexed account,\n        uint256 amount,\n        bool indexed automatic\n    );\n\n    constructor(\n        uint256 minBalance,\n        address _rewardToken\n    ) DividendPayingToken(\"Reward Tracker\", \"DividendTracker\", _rewardToken) {\n        claimWait = 3600;\n        minimumTokenBalanceForDividends = minBalance * 10 ** 18;\n    }\n\n    function _transfer(address, address, uint256) internal pure override {\n        require(false, \"No transfers allowed\");\n    }\n\n    function withdrawDividend() public pure override {\n        require(\n            false,\n            \"withdrawDividend disabled. Use the 'claim' function on the main contract.\"\n        );\n    }\n\n    function updateMinimumTokenBalanceForDividends(\n        uint256 _newMinimumBalance\n    ) external onlyOwner {\n        require(\n            _newMinimumBalance != minimumTokenBalanceForDividends,\n            \"New mimimum balance for dividend cannot be same as current minimum balance\"\n        );\n        minimumTokenBalanceForDividends = _newMinimumBalance;\n    }\n\n    function excludeFromDividends(address account) external onlyOwner {\n        require(!excludedFromDividends[account]);\n        excludedFromDividends[account] = true;\n\n        _setBalance(account, 0);\n        tokenHoldersMap.remove(account);\n\n        emit ExcludeFromDividends(account);\n    }\n\n    function updateClaimWait(uint256 newClaimWait) external onlyOwner {\n        require(\n            newClaimWait >= 3600 && newClaimWait <= 86400,\n            \"claimWait must be updated to between 1 and 24 hours\"\n        );\n        require(\n            newClaimWait != claimWait,\n            \"Cannot update claimWait to same value\"\n        );\n        emit ClaimWaitUpdated(newClaimWait, claimWait);\n        claimWait = newClaimWait;\n    }\n\n    function setLastProcessedIndex(uint256 index) external onlyOwner {\n        lastProcessedIndex = index;\n    }\n\n    function getLastProcessedIndex() external view returns (uint256) {\n        return lastProcessedIndex;\n    }\n\n    function getNumberOfTokenHolders() external view returns (uint256) {\n        return tokenHoldersMap.keys.length;\n    }\n\n    function getAccount(\n        address _account\n    )\n        public\n        view\n        returns (\n            address account,\n            int256 index,\n            int256 iterationsUntilProcessed,\n            uint256 withdrawableDividends,\n            uint256 totalDividends,\n            uint256 lastClaimTime,\n            uint256 nextClaimTime,\n            uint256 secondsUntilAutoClaimAvailable\n        )\n    {\n        account = _account;\n\n        index = tokenHoldersMap.getIndexOfKey(account);\n\n        iterationsUntilProcessed = -1;\n\n        if (index >= 0) {\n            if (uint256(index) > lastProcessedIndex) {\n                iterationsUntilProcessed = index.sub(\n                    int256(lastProcessedIndex)\n                );\n            } else {\n                uint256 processesUntilEndOfArray = tokenHoldersMap.keys.length >\n                    lastProcessedIndex\n                    ? tokenHoldersMap.keys.length.sub(lastProcessedIndex)\n                    : 0;\n\n                iterationsUntilProcessed = index.add(\n                    int256(processesUntilEndOfArray)\n                );\n            }\n        }\n\n        withdrawableDividends = withdrawableDividendOf(account);\n        totalDividends = accumulativeDividendOf(account);\n\n        lastClaimTime = lastClaimTimes[account];\n\n        nextClaimTime = lastClaimTime > 0 ? lastClaimTime.add(claimWait) : 0;\n\n        secondsUntilAutoClaimAvailable = nextClaimTime > block.timestamp\n            ? nextClaimTime.sub(block.timestamp)\n            : 0;\n    }\n\n    function getAccountAtIndex(\n        uint256 index\n    )\n        public\n        view\n        returns (\n            address,\n            int256,\n            int256,\n            uint256,\n            uint256,\n            uint256,\n            uint256,\n            uint256\n        )\n    {\n        if (index >= tokenHoldersMap.size()) {\n            return (\n                0x0000000000000000000000000000000000000000,\n                -1,\n                -1,\n                0,\n                0,\n                0,\n                0,\n                0\n            );\n        }\n\n        address account = tokenHoldersMap.getKeyAtIndex(index);\n\n        return getAccount(account);\n    }\n\n    function canAutoClaim(uint256 lastClaimTime) private view returns (bool) {\n        if (lastClaimTime > block.timestamp) {\n            return false;\n        }\n\n        return block.timestamp.sub(lastClaimTime) >= claimWait;\n    }\n\n    function setBalance(\n        address payable account,\n        uint256 newBalance\n    ) external onlyOwner {\n        if (excludedFromDividends[account]) {\n            return;\n        }\n\n        if (newBalance >= minimumTokenBalanceForDividends) {\n            _setBalance(account, newBalance);\n            tokenHoldersMap.set(account, newBalance);\n        } else {\n            _setBalance(account, 0);\n            tokenHoldersMap.remove(account);\n        }\n\n        processAccount(account, true);\n    }\n\n    function process(uint256 gas) public returns (uint256, uint256, uint256) {\n        uint256 numberOfTokenHolders = tokenHoldersMap.keys.length;\n\n        if (numberOfTokenHolders == 0) {\n            return (0, 0, lastProcessedIndex);\n        }\n\n        uint256 _lastProcessedIndex = lastProcessedIndex;\n\n        uint256 gasUsed = 0;\n\n        uint256 gasLeft = gasleft();\n\n        uint256 iterations = 0;\n        uint256 claims = 0;\n\n        while (gasUsed < gas && iterations < numberOfTokenHolders) {\n            _lastProcessedIndex++;\n\n            if (_lastProcessedIndex >= tokenHoldersMap.keys.length) {\n                _lastProcessedIndex = 0;\n            }\n\n            address account = tokenHoldersMap.keys[_lastProcessedIndex];\n\n            if (canAutoClaim(lastClaimTimes[account])) {\n                if (processAccount(payable(account), true)) {\n                    claims++;\n                }\n            }\n\n            iterations++;\n\n            uint256 newGasLeft = gasleft();\n\n            if (gasLeft > newGasLeft) {\n                gasUsed = gasUsed.add(gasLeft.sub(newGasLeft));\n            }\n\n            gasLeft = newGasLeft;\n        }\n\n        lastProcessedIndex = _lastProcessedIndex;\n\n        return (iterations, claims, lastProcessedIndex);\n    }\n\n    function processAccount(\n        address payable account,\n        bool automatic\n    ) public onlyOwner returns (bool) {\n        uint256 amount = _withdrawDividendOfUser(account);\n\n        if (amount > 0) {\n            lastClaimTimes[account] = block.timestamp;\n            emit Claim(account, amount, automatic);\n            return true;\n        }\n\n        return false;\n    }\n}\n",
  "sourcePath": "/Users/glenci/Xhype/src/DividendTracker.sol",
  "compiler": {
    "name": "solc",
    "version": "0.8.19+commit.7dd6d404.Emscripten.clang"
  },
  "schemaVersion": "3.4.10",
  "updatedAt": "2023-05-08T16:30:19.977Z",
  "devdoc": {
    "events": {
      "Approval(address,address,uint256)": {
        "details": "Emitted when the allowance of a `spender` for an `owner` is set by a call to {approve}. `value` is the new allowance."
      },
      "Transfer(address,address,uint256)": {
        "details": "Emitted when `value` tokens are moved from one account (`from`) to another (`to`). Note that `value` may be zero."
      }
    },
    "kind": "dev",
    "methods": {
      "allowance(address,address)": {
        "details": "See {IERC20-allowance}."
      },
      "approve(address,uint256)": {
        "details": "See {IERC20-approve}. NOTE: If `amount` is the maximum `uint256`, the allowance is not updated on `transferFrom`. This is semantically equivalent to an infinite approval. Requirements: - `spender` cannot be the zero address."
      },
      "balanceOf(address)": {
        "details": "See {IERC20-balanceOf}."
      },
      "decimals()": {
        "details": "Returns the number of decimals used to get its user representation. For example, if `decimals` equals `2`, a balance of `505` tokens should be displayed to a user as `5.05` (`505 / 10 ** 2`). Tokens usually opt for a value of 18, imitating the relationship between Ether and Wei. This is the value {ERC20} uses, unless this function is overridden; NOTE: This information is only used for _display_ purposes: it in no way affects any of the arithmetic of the contract, including {IERC20-balanceOf} and {IERC20-transfer}."
      },
      "decreaseAllowance(address,uint256)": {
        "details": "Atomically decreases the allowance granted to `spender` by the caller. This is an alternative to {approve} that can be used as a mitigation for problems described in {IERC20-approve}. Emits an {Approval} event indicating the updated allowance. Requirements: - `spender` cannot be the zero address. - `spender` must have allowance for the caller of at least `subtractedValue`."
      },
      "increaseAllowance(address,uint256)": {
        "details": "Atomically increases the allowance granted to `spender` by the caller. This is an alternative to {approve} that can be used as a mitigation for problems described in {IERC20-approve}. Emits an {Approval} event indicating the updated allowance. Requirements: - `spender` cannot be the zero address."
      },
      "name()": {
        "details": "Returns the name of the token."
      },
      "owner()": {
        "details": "Returns the address of the current owner."
      },
      "renounceOwnership()": {
        "details": "Leaves the contract without owner. It will not be possible to call `onlyOwner` functions anymore. Can only be called by the current owner. NOTE: Renouncing ownership will leave the contract without an owner, thereby removing any functionality that is only available to the owner."
      },
      "symbol()": {
        "details": "Returns the symbol of the token, usually a shorter version of the name."
      },
      "totalSupply()": {
        "details": "See {IERC20-totalSupply}."
      },
      "transfer(address,uint256)": {
        "details": "See {IERC20-transfer}. Requirements: - `to` cannot be the zero address. - the caller must have a balance of at least `amount`."
      },
      "transferFrom(address,address,uint256)": {
        "details": "See {IERC20-transferFrom}. Emits an {Approval} event indicating the updated allowance. This is not required by the EIP. See the note at the beginning of {ERC20}. NOTE: Does not update the allowance if the current allowance is the maximum `uint256`. Requirements: - `from` and `to` cannot be the zero address. - `from` must have a balance of at least `amount`. - the caller must have allowance for ``from``'s tokens of at least `amount`."
      },
      "transferOwnership(address)": {
        "details": "Transfers ownership of the contract to a new account (`newOwner`). Can only be called by the current owner."
      }
    },
    "version": 1
  },
  "userdoc": {
    "kind": "user",
    "methods": {},
    "version": 1
  }
}