{
  "contractName": "ERC20",
  "abi": [
    {
      "inputs": [
        {
          "internalType": "string",
          "name": "name_",
          "type": "string"
        },
        {
          "internalType": "string",
          "name": "symbol_",
          "type": "string"
        }
      ],
      "stateMutability": "nonpayable",
      "type": "constructor"
    },
    {
      "anonymous": false,
      "inputs": [
        {
          "indexed": true,
          "internalType": "address",
          "name": "owner",
          "type": "address"
        },
        {
          "indexed": true,
          "internalType": "address",
          "name": "spender",
          "type": "address"
        },
        {
          "indexed": false,
          "internalType": "uint256",
          "name": "value",
          "type": "uint256"
        }
      ],
      "name": "Approval",
      "type": "event"
    },
    {
      "anonymous": false,
      "inputs": [
        {
          "indexed": true,
          "internalType": "address",
          "name": "from",
          "type": "address"
        },
        {
          "indexed": true,
          "internalType": "address",
          "name": "to",
          "type": "address"
        },
        {
          "indexed": false,
          "internalType": "uint256",
          "name": "value",
          "type": "uint256"
        }
      ],
      "name": "Transfer",
      "type": "event"
    },
    {
      "inputs": [],
      "name": "name",
      "outputs": [
        {
          "internalType": "string",
          "name": "",
          "type": "string"
        }
      ],
      "stateMutability": "view",
      "type": "function"
    },
    {
      "inputs": [],
      "name": "symbol",
      "outputs": [
        {
          "internalType": "string",
          "name": "",
          "type": "string"
        }
      ],
      "stateMutability": "view",
      "type": "function"
    },
    {
      "inputs": [],
      "name": "decimals",
      "outputs": [
        {
          "internalType": "uint8",
          "name": "",
          "type": "uint8"
        }
      ],
      "stateMutability": "view",
      "type": "function"
    },
    {
      "inputs": [],
      "name": "totalSupply",
      "outputs": [
        {
          "internalType": "uint256",
          "name": "",
          "type": "uint256"
        }
      ],
      "stateMutability": "view",
      "type": "function"
    },
    {
      "inputs": [
        {
          "internalType": "address",
          "name": "account",
          "type": "address"
        }
      ],
      "name": "balanceOf",
      "outputs": [
        {
          "internalType": "uint256",
          "name": "",
          "type": "uint256"
        }
      ],
      "stateMutability": "view",
      "type": "function"
    },
    {
      "inputs": [
        {
          "internalType": "address",
          "name": "to",
          "type": "address"
        },
        {
          "internalType": "uint256",
          "name": "amount",
          "type": "uint256"
        }
      ],
      "name": "transfer",
      "outputs": [
        {
          "internalType": "bool",
          "name": "",
          "type": "bool"
        }
      ],
      "stateMutability": "nonpayable",
      "type": "function"
    },
    {
      "inputs": [
        {
          "internalType": "address",
          "name": "owner",
          "type": "address"
        },
        {
          "internalType": "address",
          "name": "spender",
          "type": "address"
        }
      ],
      "name": "allowance",
      "outputs": [
        {
          "internalType": "uint256",
          "name": "",
          "type": "uint256"
        }
      ],
      "stateMutability": "view",
      "type": "function"
    },
    {
      "inputs": [
        {
          "internalType": "address",
          "name": "spender",
          "type": "address"
        },
        {
          "internalType": "uint256",
          "name": "amount",
          "type": "uint256"
        }
      ],
      "name": "approve",
      "outputs": [
        {
          "internalType": "bool",
          "name": "",
          "type": "bool"
        }
      ],
      "stateMutability": "nonpayable",
      "type": "function"
    },
    {
      "inputs": [
        {
          "internalType": "address",
          "name": "from",
          "type": "address"
        },
        {
          "internalType": "address",
          "name": "to",
          "type": "address"
        },
        {
          "internalType": "uint256",
          "name": "amount",
          "type": "uint256"
        }
      ],
      "name": "transferFrom",
      "outputs": [
        {
          "internalType": "bool",
          "name": "",
          "type": "bool"
        }
      ],
      "stateMutability": "nonpayable",
      "type": "function"
    },
    {
      "inputs": [
        {
          "internalType": "address",
          "name": "spender",
          "type": "address"
        },
        {
          "internalType": "uint256",
          "name": "addedValue",
          "type": "uint256"
        }
      ],
      "name": "increaseAllowance",
      "outputs": [
        {
          "internalType": "bool",
          "name": "",
          "type": "bool"
        }
      ],
      "stateMutability": "nonpayable",
      "type": "function"
    },
    {
      "inputs": [
        {
          "internalType": "address",
          "name": "spender",
          "type": "address"
        },
        {
          "internalType": "uint256",
          "name": "subtractedValue",
          "type": "uint256"
        }
      ],
      "name": "decreaseAllowance",
      "outputs": [
        {
          "internalType": "bool",
          "name": "",
          "type": "bool"
        }
      ],
      "stateMutability": "nonpayable",
      "type": "function"
    }
  ],
  "bytecode": "0x60806040523480156200001157600080fd5b50604051620017ec380380620017ec8339818101604052810190620000379190620001f6565b8160039081620000489190620004c6565b5080600490816200005a9190620004c6565b505050620005ad565b6000604051905090565b600080fd5b600080fd5b600080fd5b600080fd5b6000601f19601f8301169050919050565b7f4e487b7100000000000000000000000000000000000000000000000000000000600052604160045260246000fd5b620000cc8262000081565b810181811067ffffffffffffffff82111715620000ee57620000ed62000092565b5b80604052505050565b60006200010362000063565b9050620001118282620000c1565b919050565b600067ffffffffffffffff82111562000134576200013362000092565b5b6200013f8262000081565b9050602081019050919050565b60005b838110156200016c5780820151818401526020810190506200014f565b60008484015250505050565b60006200018f620001898462000116565b620000f7565b905082815260208101848484011115620001ae57620001ad6200007c565b5b620001bb8482856200014c565b509392505050565b600082601f830112620001db57620001da62000077565b5b8151620001ed84826020860162000178565b91505092915050565b6000806040838503121562000210576200020f6200006d565b5b600083015167ffffffffffffffff81111562000231576200023062000072565b5b6200023f85828601620001c3565b925050602083015167ffffffffffffffff81111562000263576200026262000072565b5b6200027185828601620001c3565b9150509250929050565b600081519050919050565b7f4e487b7100000000000000000000000000000000000000000000000000000000600052602260045260246000fd5b60006002820490506001821680620002ce57607f821691505b602082108103620002e457620002e362000286565b5b50919050565b60008190508160005260206000209050919050565b60006020601f8301049050919050565b600082821b905092915050565b6000600883026200034e7fffffffffffffffffffffffffffffffffffffffffffffffffffffffffffffffff826200030f565b6200035a86836200030f565b95508019841693508086168417925050509392505050565b6000819050919050565b6000819050919050565b6000620003a7620003a16200039b8462000372565b6200037c565b62000372565b9050919050565b6000819050919050565b620003c38362000386565b620003db620003d282620003ae565b8484546200031c565b825550505050565b600090565b620003f2620003e3565b620003ff818484620003b8565b505050565b5b8181101562000427576200041b600082620003e8565b60018101905062000405565b5050565b601f82111562000476576200044081620002ea565b6200044b84620002ff565b810160208510156200045b578190505b620004736200046a85620002ff565b83018262000404565b50505b505050565b600082821c905092915050565b60006200049b600019846008026200047b565b1980831691505092915050565b6000620004b6838362000488565b9150826002028217905092915050565b620004d1826200027b565b67ffffffffffffffff811115620004ed57620004ec62000092565b5b620004f98254620002b5565b620005068282856200042b565b600060209050601f8311600181146200053e576000841562000529578287015190505b620005358582620004a8565b865550620005a5565b601f1984166200054e86620002ea565b60005b82811015620005785784890151825560018201915060208501945060208101905062000551565b8683101562000598578489015162000594601f89168262000488565b8355505b6001600288020188555050505b505050505050565b61122f80620005bd6000396000f3fe608060405234801561001057600080fd5b50600436106100a95760003560e01c80633950935111610071578063395093511461016857806370a082311461019857806395d89b41146101c8578063a457c2d7146101e6578063a9059cbb14610216578063dd62ed3e14610246576100a9565b806306fdde03146100ae578063095ea7b3146100cc57806318160ddd146100fc57806323b872dd1461011a578063313ce5671461014a575b600080fd5b6100b6610276565b6040516100c39190610b0c565b60405180910390f35b6100e660048036038101906100e19190610bc7565b610308565b6040516100f39190610c22565b60405180910390f35b61010461032b565b6040516101119190610c4c565b60405180910390f35b610134600480360381019061012f9190610c67565b610335565b6040516101419190610c22565b60405180910390f35b610152610364565b60405161015f9190610cd6565b60405180910390f35b610182600480360381019061017d9190610bc7565b61036d565b60405161018f9190610c22565b60405180910390f35b6101b260048036038101906101ad9190610cf1565b6103a4565b6040516101bf9190610c4c565b60405180910390f35b6101d06103ec565b6040516101dd9190610b0c565b60405180910390f35b61020060048036038101906101fb9190610bc7565b61047e565b60405161020d9190610c22565b60405180910390f35b610230600480360381019061022b9190610bc7565b6104f5565b60405161023d9190610c22565b60405180910390f35b610260600480360381019061025b9190610d1e565b610518565b60405161026d9190610c4c565b60405180910390f35b60606003805461028590610d8d565b80601f01602080910402602001604051908101604052809291908181526020018280546102b190610d8d565b80156102fe5780601f106102d3576101008083540402835291602001916102fe565b820191906000526020600020905b8154815290600101906020018083116102e157829003601f168201915b5050505050905090565b60008061031361059f565b90506103208185856105a7565b600191505092915050565b6000600254905090565b60008061034061059f565b905061034d858285610770565b6103588585856107fc565b60019150509392505050565b60006012905090565b60008061037861059f565b905061039981858561038a8589610518565b6103949190610ded565b6105a7565b600191505092915050565b60008060008373ffffffffffffffffffffffffffffffffffffffff1673ffffffffffffffffffffffffffffffffffffffff168152602001908152602001600020549050919050565b6060600480546103fb90610d8d565b80601f016020809104026020016040519081016040528092919081815260200182805461042790610d8d565b80156104745780601f1061044957610100808354040283529160200191610474565b820191906000526020600020905b81548152906001019060200180831161045757829003601f168201915b5050505050905090565b60008061048961059f565b905060006104978286610518565b9050838110156104dc576040517f08c379a00000000000000000000000000000000000000000000000000000000081526004016104d390610e93565b60405180910390fd5b6104e982868684036105a7565b60019250505092915050565b60008061050061059f565b905061050d8185856107fc565b600191505092915050565b6000600160008473ffffffffffffffffffffffffffffffffffffffff1673ffffffffffffffffffffffffffffffffffffffff16815260200190815260200160002060008373ffffffffffffffffffffffffffffffffffffffff1673ffffffffffffffffffffffffffffffffffffffff16815260200190815260200160002054905092915050565b600033905090565b600073ffffffffffffffffffffffffffffffffffffffff168373ffffffffffffffffffffffffffffffffffffffff1603610616576040517f08c379a000000000000000000000000000000000000000000000000000000000815260040161060d90610f25565b60405180910390fd5b600073ffffffffffffffffffffffffffffffffffffffff168273ffffffffffffffffffffffffffffffffffffffff1603610685576040517f08c379a000000000000000000000000000000000000000000000000000000000815260040161067c90610fb7565b60405180910390fd5b80600160008573ffffffffffffffffffffffffffffffffffffffff1673ffffffffffffffffffffffffffffffffffffffff16815260200190815260200160002060008473ffffffffffffffffffffffffffffffffffffffff1673ffffffffffffffffffffffffffffffffffffffff168152602001908152602001600020819055508173ffffffffffffffffffffffffffffffffffffffff168373ffffffffffffffffffffffffffffffffffffffff167f8c5be1e5ebec7d5bd14f71427d1e84f3dd0314c0f7b2291e5b200ac8c7c3b925836040516107639190610c4c565b60405180910390a3505050565b600061077c8484610518565b90507fffffffffffffffffffffffffffffffffffffffffffffffffffffffffffffffff81146107f657818110156107e8576040517f08c379a00000000000000000000000000000000000000000000000000000000081526004016107df90611023565b60405180910390fd5b6107f584848484036105a7565b5b50505050565b600073ffffffffffffffffffffffffffffffffffffffff168373ffffffffffffffffffffffffffffffffffffffff160361086b576040517f08c379a0000000000000000000000000000000000000000000000000000000008152600401610862906110b5565b60405180910390fd5b600073ffffffffffffffffffffffffffffffffffffffff168273ffffffffffffffffffffffffffffffffffffffff16036108da576040517f08c379a00000000000000000000000000000000000000000000000000000000081526004016108d190611147565b60405180910390fd5b6108e5838383610a72565b60008060008573ffffffffffffffffffffffffffffffffffffffff1673ffffffffffffffffffffffffffffffffffffffff1681526020019081526020016000205490508181101561096b576040517f08c379a0000000000000000000000000000000000000000000000000000000008152600401610962906111d9565b60405180910390fd5b8181036000808673ffffffffffffffffffffffffffffffffffffffff1673ffffffffffffffffffffffffffffffffffffffff16815260200190815260200160002081905550816000808573ffffffffffffffffffffffffffffffffffffffff1673ffffffffffffffffffffffffffffffffffffffff168152602001908152602001600020600082825401925050819055508273ffffffffffffffffffffffffffffffffffffffff168473ffffffffffffffffffffffffffffffffffffffff167fddf252ad1be2c89b69c2b068fc378daa952ba7f163c4a11628f55a4df523b3ef84604051610a599190610c4c565b60405180910390a3610a6c848484610a77565b50505050565b505050565b505050565b600081519050919050565b600082825260208201905092915050565b60005b83811015610ab6578082015181840152602081019050610a9b565b60008484015250505050565b6000601f19601f8301169050919050565b6000610ade82610a7c565b610ae88185610a87565b9350610af8818560208601610a98565b610b0181610ac2565b840191505092915050565b60006020820190508181036000830152610b268184610ad3565b905092915050565b600080fd5b600073ffffffffffffffffffffffffffffffffffffffff82169050919050565b6000610b5e82610b33565b9050919050565b610b6e81610b53565b8114610b7957600080fd5b50565b600081359050610b8b81610b65565b92915050565b6000819050919050565b610ba481610b91565b8114610baf57600080fd5b50565b600081359050610bc181610b9b565b92915050565b60008060408385031215610bde57610bdd610b2e565b5b6000610bec85828601610b7c565b9250506020610bfd85828601610bb2565b9150509250929050565b60008115159050919050565b610c1c81610c07565b82525050565b6000602082019050610c376000830184610c13565b92915050565b610c4681610b91565b82525050565b6000602082019050610c616000830184610c3d565b92915050565b600080600060608486031215610c8057610c7f610b2e565b5b6000610c8e86828701610b7c565b9350506020610c9f86828701610b7c565b9250506040610cb086828701610bb2565b9150509250925092565b600060ff82169050919050565b610cd081610cba565b82525050565b6000602082019050610ceb6000830184610cc7565b92915050565b600060208284031215610d0757610d06610b2e565b5b6000610d1584828501610b7c565b91505092915050565b60008060408385031215610d3557610d34610b2e565b5b6000610d4385828601610b7c565b9250506020610d5485828601610b7c565b9150509250929050565b7f4e487b7100000000000000000000000000000000000000000000000000000000600052602260045260246000fd5b60006002820490506001821680610da557607f821691505b602082108103610db857610db7610d5e565b5b50919050565b7f4e487b7100000000000000000000000000000000000000000000000000000000600052601160045260246000fd5b6000610df882610b91565b9150610e0383610b91565b9250828201905080821115610e1b57610e1a610dbe565b5b92915050565b7f45524332303a2064656372656173656420616c6c6f77616e63652062656c6f7760008201527f207a65726f000000000000000000000000000000000000000000000000000000602082015250565b6000610e7d602583610a87565b9150610e8882610e21565b604082019050919050565b60006020820190508181036000830152610eac81610e70565b9050919050565b7f45524332303a20617070726f76652066726f6d20746865207a65726f2061646460008201527f7265737300000000000000000000000000000000000000000000000000000000602082015250565b6000610f0f602483610a87565b9150610f1a82610eb3565b604082019050919050565b60006020820190508181036000830152610f3e81610f02565b9050919050565b7f45524332303a20617070726f766520746f20746865207a65726f20616464726560008201527f7373000000000000000000000000000000000000000000000000000000000000602082015250565b6000610fa1602283610a87565b9150610fac82610f45565b604082019050919050565b60006020820190508181036000830152610fd081610f94565b9050919050565b7f45524332303a20696e73756666696369656e7420616c6c6f77616e6365000000600082015250565b600061100d601d83610a87565b915061101882610fd7565b602082019050919050565b6000602082019050818103600083015261103c81611000565b9050919050565b7f45524332303a207472616e736665722066726f6d20746865207a65726f20616460008201527f6472657373000000000000000000000000000000000000000000000000000000602082015250565b600061109f602583610a87565b91506110aa82611043565b604082019050919050565b600060208201905081810360008301526110ce81611092565b9050919050565b7f45524332303a207472616e7366657220746f20746865207a65726f206164647260008201527f6573730000000000000000000000000000000000000000000000000000000000602082015250565b6000611131602383610a87565b915061113c826110d5565b604082019050919050565b6000602082019050818103600083015261116081611124565b9050919050565b7f45524332303a207472616e7366657220616d6f756e742065786365656473206260008201527f616c616e63650000000000000000000000000000000000000000000000000000602082015250565b60006111c3602683610a87565b91506111ce82611167565b604082019050919050565b600060208201905081810360008301526111f2816111b6565b905091905056fea2646970667358221220f26c0800cf72e98b56b767a331266e80d58e275449110684c0c196f75d545f0864736f6c63430008110033",
  "immutableReferences": {},
  "source": "// File: @openzeppelin/contracts/token/ERC20/IERC20.sol\n\n// OpenZeppelin Contracts (last updated v4.6.0) (token/ERC20/IERC20.sol)\n\npragma solidity ^0.8.0;\n\n/**\n * @dev Interface of the ERC20 standard as defined in the EIP.\n */\ninterface IERC20 {\n    /**\n     * @dev Emitted when `value` tokens are moved from one account (`from`) to\n     * another (`to`).\n     *\n     * Note that `value` may be zero.\n     */\n    event Transfer(address indexed from, address indexed to, uint256 value);\n\n    /**\n     * @dev Emitted when the allowance of a `spender` for an `owner` is set by\n     * a call to {approve}. `value` is the new allowance.\n     */\n    event Approval(address indexed owner, address indexed spender, uint256 value);\n\n    /**\n     * @dev Returns the amount of tokens in existence.\n     */\n    function totalSupply() external view returns (uint256);\n\n    /**\n     * @dev Returns the amount of tokens owned by `account`.\n     */\n    function balanceOf(address account) external view returns (uint256);\n\n    /**\n     * @dev Moves `amount` tokens from the caller's account to `to`.\n     *\n     * Returns a boolean value indicating whether the operation succeeded.\n     *\n     * Emits a {Transfer} event.\n     */\n    function transfer(address to, uint256 amount) external returns (bool);\n\n    /**\n     * @dev Returns the remaining number of tokens that `spender` will be\n     * allowed to spend on behalf of `owner` through {transferFrom}. This is\n     * zero by default.\n     *\n     * This value changes when {approve} or {transferFrom} are called.\n     */\n    function allowance(address owner, address spender) external view returns (uint256);\n\n    /**\n     * @dev Sets `amount` as the allowance of `spender` over the caller's tokens.\n     *\n     * Returns a boolean value indicating whether the operation succeeded.\n     *\n     * IMPORTANT: Beware that changing an allowance with this method brings the risk\n     * that someone may use both the old and the new allowance by unfortunate\n     * transaction ordering. One possible solution to mitigate this race\n     * condition is to first reduce the spender's allowance to 0 and set the\n     * desired value afterwards:\n     * https://github.com/ethereum/EIPs/issues/20#issuecomment-263524729\n     *\n     * Emits an {Approval} event.\n     */\n    function approve(address spender, uint256 amount) external returns (bool);\n\n    /**\n     * @dev Moves `amount` tokens from `from` to `to` using the\n     * allowance mechanism. `amount` is then deducted from the caller's\n     * allowance.\n     *\n     * Returns a boolean value indicating whether the operation succeeded.\n     *\n     * Emits a {Transfer} event.\n     */\n    function transferFrom(\n        address from,\n        address to,\n        uint256 amount\n    ) external returns (bool);\n}\n\n// File: @openzeppelin/contracts/token/ERC20/extensions/IERC20Metadata.sol\n\n// OpenZeppelin Contracts v4.4.1 (token/ERC20/extensions/IERC20Metadata.sol)\n\npragma solidity ^0.8.0;\n\n/**\n * @dev Interface for the optional metadata functions from the ERC20 standard.\n *\n * _Available since v4.1._\n */\ninterface IERC20Metadata is IERC20 {\n    /**\n     * @dev Returns the name of the token.\n     */\n    function name() external view returns (string memory);\n\n    /**\n     * @dev Returns the symbol of the token.\n     */\n    function symbol() external view returns (string memory);\n\n    /**\n     * @dev Returns the decimals places of the token.\n     */\n    function decimals() external view returns (uint8);\n}\n\n// File: @openzeppelin/contracts/utils/Context.sol\n\n// OpenZeppelin Contracts v4.4.1 (utils/Context.sol)\n\npragma solidity ^0.8.0;\n\n/**\n * @dev Provides information about the current execution context, including the\n * sender of the transaction and its data. While these are generally available\n * via msg.sender and msg.data, they should not be accessed in such a direct\n * manner, since when dealing with meta-transactions the account sending and\n * paying for execution may not be the actual sender (as far as an application\n * is concerned).\n *\n * This contract is only required for intermediate, library-like contracts.\n */\nabstract contract Context {\n    function _msgSender() internal view virtual returns (address) {\n        return msg.sender;\n    }\n\n    function _msgData() internal view virtual returns (bytes calldata) {\n        return msg.data;\n    }\n}\n\n// File: @openzeppelin/contracts/token/ERC20/ERC20.sol\n\n// OpenZeppelin Contracts (last updated v4.8.0) (token/ERC20/ERC20.sol)\n\npragma solidity ^0.8.0;\n\n\n\n/**\n * @dev Implementation of the {IERC20} interface.\n *\n * This implementation is agnostic to the way tokens are created. This means\n * that a supply mechanism has to be added in a derived contract using {_mint}.\n * For a generic mechanism see {ERC20PresetMinterPauser}.\n *\n * TIP: For a detailed writeup see our guide\n * https://forum.openzeppelin.com/t/how-to-implement-erc20-supply-mechanisms/226[How\n * to implement supply mechanisms].\n *\n * We have followed general OpenZeppelin Contracts guidelines: functions revert\n * instead returning `false` on failure. This behavior is nonetheless\n * conventional and does not conflict with the expectations of ERC20\n * applications.\n *\n * Additionally, an {Approval} event is emitted on calls to {transferFrom}.\n * This allows applications to reconstruct the allowance for all accounts just\n * by listening to said events. Other implementations of the EIP may not emit\n * these events, as it isn't required by the specification.\n *\n * Finally, the non-standard {decreaseAllowance} and {increaseAllowance}\n * functions have been added to mitigate the well-known issues around setting\n * allowances. See {IERC20-approve}.\n */\ncontract ERC20 is Context, IERC20, IERC20Metadata {\n    mapping(address => uint256) private _balances;\n\n    mapping(address => mapping(address => uint256)) private _allowances;\n\n    uint256 private _totalSupply;\n\n    string private _name;\n    string private _symbol;\n\n    /**\n     * @dev Sets the values for {name} and {symbol}.\n     *\n     * The default value of {decimals} is 18. To select a different value for\n     * {decimals} you should overload it.\n     *\n     * All two of these values are immutable: they can only be set once during\n     * construction.\n     */\n    constructor(string memory name_, string memory symbol_) {\n        _name = name_;\n        _symbol = symbol_;\n    }\n\n    /**\n     * @dev Returns the name of the token.\n     */\n    function name() public view virtual override returns (string memory) {\n        return _name;\n    }\n\n    /**\n     * @dev Returns the symbol of the token, usually a shorter version of the\n     * name.\n     */\n    function symbol() public view virtual override returns (string memory) {\n        return _symbol;\n    }\n\n    /**\n     * @dev Returns the number of decimals used to get its user representation.\n     * For example, if `decimals` equals `2`, a balance of `505` tokens should\n     * be displayed to a user as `5.05` (`505 / 10 ** 2`).\n     *\n     * Tokens usually opt for a value of 18, imitating the relationship between\n     * Ether and Wei. This is the value {ERC20} uses, unless this function is\n     * overridden;\n     *\n     * NOTE: This information is only used for _display_ purposes: it in\n     * no way affects any of the arithmetic of the contract, including\n     * {IERC20-balanceOf} and {IERC20-transfer}.\n     */\n    function decimals() public view virtual override returns (uint8) {\n        return 18;\n    }\n\n    /**\n     * @dev See {IERC20-totalSupply}.\n     */\n    function totalSupply() public view virtual override returns (uint256) {\n        return _totalSupply;\n    }\n\n    /**\n     * @dev See {IERC20-balanceOf}.\n     */\n    function balanceOf(address account) public view virtual override returns (uint256) {\n        return _balances[account];\n    }\n\n    /**\n     * @dev See {IERC20-transfer}.\n     *\n     * Requirements:\n     *\n     * - `to` cannot be the zero address.\n     * - the caller must have a balance of at least `amount`.\n     */\n    function transfer(address to, uint256 amount) public virtual override returns (bool) {\n        address owner = _msgSender();\n        _transfer(owner, to, amount);\n        return true;\n    }\n\n    /**\n     * @dev See {IERC20-allowance}.\n     */\n    function allowance(address owner, address spender) public view virtual override returns (uint256) {\n        return _allowances[owner][spender];\n    }\n\n    /**\n     * @dev See {IERC20-approve}.\n     *\n     * NOTE: If `amount` is the maximum `uint256`, the allowance is not updated on\n     * `transferFrom`. This is semantically equivalent to an infinite approval.\n     *\n     * Requirements:\n     *\n     * - `spender` cannot be the zero address.\n     */\n    function approve(address spender, uint256 amount) public virtual override returns (bool) {\n        address owner = _msgSender();\n        _approve(owner, spender, amount);\n        return true;\n    }\n\n    /**\n     * @dev See {IERC20-transferFrom}.\n     *\n     * Emits an {Approval} event indicating the updated allowance. This is not\n     * required by the EIP. See the note at the beginning of {ERC20}.\n     *\n     * NOTE: Does not update the allowance if the current allowance\n     * is the maximum `uint256`.\n     *\n     * Requirements:\n     *\n     * - `from` and `to` cannot be the zero address.\n     * - `from` must have a balance of at least `amount`.\n     * - the caller must have allowance for ``from``'s tokens of at least\n     * `amount`.\n     */\n    function transferFrom(\n        address from,\n        address to,\n        uint256 amount\n    ) public virtual override returns (bool) {\n        address spender = _msgSender();\n        _spendAllowance(from, spender, amount);\n        _transfer(from, to, amount);\n        return true;\n    }\n\n    /**\n     * @dev Atomically increases the allowance granted to `spender` by the caller.\n     *\n     * This is an alternative to {approve} that can be used as a mitigation for\n     * problems described in {IERC20-approve}.\n     *\n     * Emits an {Approval} event indicating the updated allowance.\n     *\n     * Requirements:\n     *\n     * - `spender` cannot be the zero address.\n     */\n    function increaseAllowance(address spender, uint256 addedValue) public virtual returns (bool) {\n        address owner = _msgSender();\n        _approve(owner, spender, allowance(owner, spender) + addedValue);\n        return true;\n    }\n\n    /**\n     * @dev Atomically decreases the allowance granted to `spender` by the caller.\n     *\n     * This is an alternative to {approve} that can be used as a mitigation for\n     * problems described in {IERC20-approve}.\n     *\n     * Emits an {Approval} event indicating the updated allowance.\n     *\n     * Requirements:\n     *\n     * - `spender` cannot be the zero address.\n     * - `spender` must have allowance for the caller of at least\n     * `subtractedValue`.\n     */\n    function decreaseAllowance(address spender, uint256 subtractedValue) public virtual returns (bool) {\n        address owner = _msgSender();\n        uint256 currentAllowance = allowance(owner, spender);\n        require(currentAllowance >= subtractedValue, \"ERC20: decreased allowance below zero\");\n        unchecked {\n            _approve(owner, spender, currentAllowance - subtractedValue);\n        }\n\n        return true;\n    }\n\n    /**\n     * @dev Moves `amount` of tokens from `from` to `to`.\n     *\n     * This internal function is equivalent to {transfer}, and can be used to\n     * e.g. implement automatic token fees, slashing mechanisms, etc.\n     *\n     * Emits a {Transfer} event.\n     *\n     * Requirements:\n     *\n     * - `from` cannot be the zero address.\n     * - `to` cannot be the zero address.\n     * - `from` must have a balance of at least `amount`.\n     */\n    function _transfer(\n        address from,\n        address to,\n        uint256 amount\n    ) internal virtual {\n        require(from != address(0), \"ERC20: transfer from the zero address\");\n        require(to != address(0), \"ERC20: transfer to the zero address\");\n\n        _beforeTokenTransfer(from, to, amount);\n\n        uint256 fromBalance = _balances[from];\n        require(fromBalance >= amount, \"ERC20: transfer amount exceeds balance\");\n        unchecked {\n            _balances[from] = fromBalance - amount;\n            // Overflow not possible: the sum of all balances is capped by totalSupply, and the sum is preserved by\n            // decrementing then incrementing.\n            _balances[to] += amount;\n        }\n\n        emit Transfer(from, to, amount);\n\n        _afterTokenTransfer(from, to, amount);\n    }\n\n    /** @dev Creates `amount` tokens and assigns them to `account`, increasing\n     * the total supply.\n     *\n     * Emits a {Transfer} event with `from` set to the zero address.\n     *\n     * Requirements:\n     *\n     * - `account` cannot be the zero address.\n     */\n    function _mint(address account, uint256 amount) internal virtual {\n        require(account != address(0), \"ERC20: mint to the zero address\");\n\n        _beforeTokenTransfer(address(0), account, amount);\n\n        _totalSupply += amount;\n        unchecked {\n            // Overflow not possible: balance + amount is at most totalSupply + amount, which is checked above.\n            _balances[account] += amount;\n        }\n        emit Transfer(address(0), account, amount);\n\n        _afterTokenTransfer(address(0), account, amount);\n    }\n\n    /**\n     * @dev Destroys `amount` tokens from `account`, reducing the\n     * total supply.\n     *\n     * Emits a {Transfer} event with `to` set to the zero address.\n     *\n     * Requirements:\n     *\n     * - `account` cannot be the zero address.\n     * - `account` must have at least `amount` tokens.\n     */\n    function _burn(address account, uint256 amount) internal virtual {\n        require(account != address(0), \"ERC20: burn from the zero address\");\n\n        _beforeTokenTransfer(account, address(0), amount);\n\n        uint256 accountBalance = _balances[account];\n        require(accountBalance >= amount, \"ERC20: burn amount exceeds balance\");\n        unchecked {\n            _balances[account] = accountBalance - amount;\n            // Overflow not possible: amount <= accountBalance <= totalSupply.\n            _totalSupply -= amount;\n        }\n\n        emit Transfer(account, address(0), amount);\n\n        _afterTokenTransfer(account, address(0), amount);\n    }\n\n    /**\n     * @dev Sets `amount` as the allowance of `spender` over the `owner` s tokens.\n     *\n     * This internal function is equivalent to `approve`, and can be used to\n     * e.g. set automatic allowances for certain subsystems, etc.\n     *\n     * Emits an {Approval} event.\n     *\n     * Requirements:\n     *\n     * - `owner` cannot be the zero address.\n     * - `spender` cannot be the zero address.\n     */\n    function _approve(\n        address owner,\n        address spender,\n        uint256 amount\n    ) internal virtual {\n        require(owner != address(0), \"ERC20: approve from the zero address\");\n        require(spender != address(0), \"ERC20: approve to the zero address\");\n\n        _allowances[owner][spender] = amount;\n        emit Approval(owner, spender, amount);\n    }\n\n    /**\n     * @dev Updates `owner` s allowance for `spender` based on spent `amount`.\n     *\n     * Does not update the allowance amount in case of infinite allowance.\n     * Revert if not enough allowance is available.\n     *\n     * Might emit an {Approval} event.\n     */\n    function _spendAllowance(\n        address owner,\n        address spender,\n        uint256 amount\n    ) internal virtual {\n        uint256 currentAllowance = allowance(owner, spender);\n        if (currentAllowance != type(uint256).max) {\n            require(currentAllowance >= amount, \"ERC20: insufficient allowance\");\n            unchecked {\n                _approve(owner, spender, currentAllowance - amount);\n            }\n        }\n    }\n\n    /**\n     * @dev Hook that is called before any transfer of tokens. This includes\n     * minting and burning.\n     *\n     * Calling conditions:\n     *\n     * - when `from` and `to` are both non-zero, `amount` of ``from``'s tokens\n     * will be transferred to `to`.\n     * - when `from` is zero, `amount` tokens will be minted for `to`.\n     * - when `to` is zero, `amount` of ``from``'s tokens will be burned.\n     * - `from` and `to` are never both zero.\n     *\n     * To learn more about hooks, head to xref:ROOT:extending-contracts.adoc#using-hooks[Using Hooks].\n     */\n    function _beforeTokenTransfer(\n        address from,\n        address to,\n        uint256 amount\n    ) internal virtual {}\n\n    /**\n     * @dev Hook that is called after any transfer of tokens. This includes\n     * minting and burning.\n     *\n     * Calling conditions:\n     *\n     * - when `from` and `to` are both non-zero, `amount` of ``from``'s tokens\n     * has been transferred to `to`.\n     * - when `from` is zero, `amount` tokens have been minted for `to`.\n     * - when `to` is zero, `amount` of ``from``'s tokens have been burned.\n     * - `from` and `to` are never both zero.\n     *\n     * To learn more about hooks, head to xref:ROOT:extending-contracts.adoc#using-hooks[Using Hooks].\n     */\n    function _afterTokenTransfer(\n        address from,\n        address to,\n        uint256 amount\n    ) internal virtual {}\n}\n\n// File: @openzeppelin/contracts/access/Ownable.sol\n\n// OpenZeppelin Contracts (last updated v4.7.0) (access/Ownable.sol)\n\npragma solidity ^0.8.0;\n\n/**\n * @dev Contract module which provides a basic access control mechanism, where\n * there is an account (an owner) that can be granted exclusive access to\n * specific functions.\n *\n * By default, the owner account will be the one that deploys the contract. This\n * can later be changed with {transferOwnership}.\n *\n * This module is used through inheritance. It will make available the modifier\n * `onlyOwner`, which can be applied to your functions to restrict their use to\n * the owner.\n */\nabstract contract Ownable is Context {\n    address private _owner;\n\n    event OwnershipTransferred(address indexed previousOwner, address indexed newOwner);\n\n    /**\n     * @dev Initializes the contract setting the deployer as the initial owner.\n     */\n    constructor() {\n        _transferOwnership(_msgSender());\n    }\n\n    /**\n     * @dev Throws if called by any account other than the owner.\n     */\n    modifier onlyOwner() {\n        _checkOwner();\n        _;\n    }\n\n    /**\n     * @dev Returns the address of the current owner.\n     */\n    function owner() public view virtual returns (address) {\n        return _owner;\n    }\n\n    /**\n     * @dev Throws if the sender is not the owner.\n     */\n    function _checkOwner() internal view virtual {\n        require(owner() == _msgSender(), \"Ownable: caller is not the owner\");\n    }\n\n    /**\n     * @dev Leaves the contract without owner. It will not be possible to call\n     * `onlyOwner` functions anymore. Can only be called by the current owner.\n     *\n     * NOTE: Renouncing ownership will leave the contract without an owner,\n     * thereby removing any functionality that is only available to the owner.\n     */\n    function renounceOwnership() public virtual onlyOwner {\n        _transferOwnership(address(0));\n    }\n\n    /**\n     * @dev Transfers ownership of the contract to a new account (`newOwner`).\n     * Can only be called by the current owner.\n     */\n    function transferOwnership(address newOwner) public virtual onlyOwner {\n        require(newOwner != address(0), \"Ownable: new owner is the zero address\");\n        _transferOwnership(newOwner);\n    }\n\n    /**\n     * @dev Transfers ownership of the contract to a new account (`newOwner`).\n     * Internal function without access restriction.\n     */\n    function _transferOwnership(address newOwner) internal virtual {\n        address oldOwner = _owner;\n        _owner = newOwner;\n        emit OwnershipTransferred(oldOwner, newOwner);\n    }\n}\n\n// File: @openzeppelin/contracts/utils/Address.sol\n\n// OpenZeppelin Contracts (last updated v4.8.0) (utils/Address.sol)\n\npragma solidity ^0.8.1;\n\n/**\n * @dev Collection of functions related to the address type\n */\nlibrary Address {\n    /**\n     * @dev Returns true if `account` is a contract.\n     *\n     * [IMPORTANT]\n     * ====\n     * It is unsafe to assume that an address for which this function returns\n     * false is an externally-owned account (EOA) and not a contract.\n     *\n     * Among others, `isContract` will return false for the following\n     * types of addresses:\n     *\n     *  - an externally-owned account\n     *  - a contract in construction\n     *  - an address where a contract will be created\n     *  - an address where a contract lived, but was destroyed\n     * ====\n     *\n     * [IMPORTANT]\n     * ====\n     * You shouldn't rely on `isContract` to protect against flash loan attacks!\n     *\n     * Preventing calls from contracts is highly discouraged. It breaks composability, breaks support for smart wallets\n     * like Gnosis Safe, and does not provide security since it can be circumvented by calling from a contract\n     * constructor.\n     * ====\n     */\n    function isContract(address account) internal view returns (bool) {\n        // This method relies on extcodesize/address.code.length, which returns 0\n        // for contracts in construction, since the code is only stored at the end\n        // of the constructor execution.\n\n        return account.code.length > 0;\n    }\n\n    /**\n     * @dev Replacement for Solidity's `transfer`: sends `amount` wei to\n     * `recipient`, forwarding all available gas and reverting on errors.\n     *\n     * https://eips.ethereum.org/EIPS/eip-1884[EIP1884] increases the gas cost\n     * of certain opcodes, possibly making contracts go over the 2300 gas limit\n     * imposed by `transfer`, making them unable to receive funds via\n     * `transfer`. {sendValue} removes this limitation.\n     *\n     * https://diligence.consensys.net/posts/2019/09/stop-using-soliditys-transfer-now/[Learn more].\n     *\n     * IMPORTANT: because control is transferred to `recipient`, care must be\n     * taken to not create reentrancy vulnerabilities. Consider using\n     * {ReentrancyGuard} or the\n     * https://solidity.readthedocs.io/en/v0.5.11/security-considerations.html#use-the-checks-effects-interactions-pattern[checks-effects-interactions pattern].\n     */\n    function sendValue(address payable recipient, uint256 amount) internal {\n        require(address(this).balance >= amount, \"Address: insufficient balance\");\n\n        (bool success, ) = recipient.call{value: amount}(\"\");\n        require(success, \"Address: unable to send value, recipient may have reverted\");\n    }\n\n    /**\n     * @dev Performs a Solidity function call using a low level `call`. A\n     * plain `call` is an unsafe replacement for a function call: use this\n     * function instead.\n     *\n     * If `target` reverts with a revert reason, it is bubbled up by this\n     * function (like regular Solidity function calls).\n     *\n     * Returns the raw returned data. To convert to the expected return value,\n     * use https://solidity.readthedocs.io/en/latest/units-and-global-variables.html?highlight=abi.decode#abi-encoding-and-decoding-functions[`abi.decode`].\n     *\n     * Requirements:\n     *\n     * - `target` must be a contract.\n     * - calling `target` with `data` must not revert.\n     *\n     * _Available since v3.1._\n     */\n    function functionCall(address target, bytes memory data) internal returns (bytes memory) {\n        return functionCallWithValue(target, data, 0, \"Address: low-level call failed\");\n    }\n\n    /**\n     * @dev Same as {xref-Address-functionCall-address-bytes-}[`functionCall`], but with\n     * `errorMessage` as a fallback revert reason when `target` reverts.\n     *\n     * _Available since v3.1._\n     */\n    function functionCall(\n        address target,\n        bytes memory data,\n        string memory errorMessage\n    ) internal returns (bytes memory) {\n        return functionCallWithValue(target, data, 0, errorMessage);\n    }\n\n    /**\n     * @dev Same as {xref-Address-functionCall-address-bytes-}[`functionCall`],\n     * but also transferring `value` wei to `target`.\n     *\n     * Requirements:\n     *\n     * - the calling contract must have an ETH balance of at least `value`.\n     * - the called Solidity function must be `payable`.\n     *\n     * _Available since v3.1._\n     */\n    function functionCallWithValue(\n        address target,\n        bytes memory data,\n        uint256 value\n    ) internal returns (bytes memory) {\n        return functionCallWithValue(target, data, value, \"Address: low-level call with value failed\");\n    }\n\n    /**\n     * @dev Same as {xref-Address-functionCallWithValue-address-bytes-uint256-}[`functionCallWithValue`], but\n     * with `errorMessage` as a fallback revert reason when `target` reverts.\n     *\n     * _Available since v3.1._\n     */\n    function functionCallWithValue(\n        address target,\n        bytes memory data,\n        uint256 value,\n        string memory errorMessage\n    ) internal returns (bytes memory) {\n        require(address(this).balance >= value, \"Address: insufficient balance for call\");\n        (bool success, bytes memory returndata) = target.call{value: value}(data);\n        return verifyCallResultFromTarget(target, success, returndata, errorMessage);\n    }\n\n    /**\n     * @dev Same as {xref-Address-functionCall-address-bytes-}[`functionCall`],\n     * but performing a static call.\n     *\n     * _Available since v3.3._\n     */\n    function functionStaticCall(address target, bytes memory data) internal view returns (bytes memory) {\n        return functionStaticCall(target, data, \"Address: low-level static call failed\");\n    }\n\n    /**\n     * @dev Same as {xref-Address-functionCall-address-bytes-string-}[`functionCall`],\n     * but performing a static call.\n     *\n     * _Available since v3.3._\n     */\n    function functionStaticCall(\n        address target,\n        bytes memory data,\n        string memory errorMessage\n    ) internal view returns (bytes memory) {\n        (bool success, bytes memory returndata) = target.staticcall(data);\n        return verifyCallResultFromTarget(target, success, returndata, errorMessage);\n    }\n\n    /**\n     * @dev Same as {xref-Address-functionCall-address-bytes-}[`functionCall`],\n     * but performing a delegate call.\n     *\n     * _Available since v3.4._\n     */\n    function functionDelegateCall(address target, bytes memory data) internal returns (bytes memory) {\n        return functionDelegateCall(target, data, \"Address: low-level delegate call failed\");\n    }\n\n    /**\n     * @dev Same as {xref-Address-functionCall-address-bytes-string-}[`functionCall`],\n     * but performing a delegate call.\n     *\n     * _Available since v3.4._\n     */\n    function functionDelegateCall(\n        address target,\n        bytes memory data,\n        string memory errorMessage\n    ) internal returns (bytes memory) {\n        (bool success, bytes memory returndata) = target.delegatecall(data);\n        return verifyCallResultFromTarget(target, success, returndata, errorMessage);\n    }\n\n    /**\n     * @dev Tool to verify that a low level call to smart-contract was successful, and revert (either by bubbling\n     * the revert reason or using the provided one) in case of unsuccessful call or if target was not a contract.\n     *\n     * _Available since v4.8._\n     */\n    function verifyCallResultFromTarget(\n        address target,\n        bool success,\n        bytes memory returndata,\n        string memory errorMessage\n    ) internal view returns (bytes memory) {\n        if (success) {\n            if (returndata.length == 0) {\n                // only check isContract if the call was successful and the return data is empty\n                // otherwise we already know that it was a contract\n                require(isContract(target), \"Address: call to non-contract\");\n            }\n            return returndata;\n        } else {\n            _revert(returndata, errorMessage);\n        }\n    }\n\n    /**\n     * @dev Tool to verify that a low level call was successful, and revert if it wasn't, either by bubbling the\n     * revert reason or using the provided one.\n     *\n     * _Available since v4.3._\n     */\n    function verifyCallResult(\n        bool success,\n        bytes memory returndata,\n        string memory errorMessage\n    ) internal pure returns (bytes memory) {\n        if (success) {\n            return returndata;\n        } else {\n            _revert(returndata, errorMessage);\n        }\n    }\n\n    function _revert(bytes memory returndata, string memory errorMessage) private pure {\n        // Look for revert reason and bubble it up if present\n        if (returndata.length > 0) {\n            // The easiest way to bubble the revert reason is using memory via assembly\n            /// @solidity memory-safe-assembly\n            assembly {\n                let returndata_size := mload(returndata)\n                revert(add(32, returndata), returndata_size)\n            }\n        } else {\n            revert(errorMessage);\n        }\n    }\n}\n\n// File: @uniswap/v2-periphery/contracts/interfaces/IUniswapV2Router01.sol\n\npragma solidity >=0.6.2;\n\ninterface IUniswapV2Router01 {\n    function factory() external pure returns (address);\n    function WETH() external pure returns (address);\n\n    function addLiquidity(\n        address tokenA,\n        address tokenB,\n        uint amountADesired,\n        uint amountBDesired,\n        uint amountAMin,\n        uint amountBMin,\n        address to,\n        uint deadline\n    ) external returns (uint amountA, uint amountB, uint liquidity);\n    function addLiquidityETH(\n        address token,\n        uint amountTokenDesired,\n        uint amountTokenMin,\n        uint amountETHMin,\n        address to,\n        uint deadline\n    ) external payable returns (uint amountToken, uint amountETH, uint liquidity);\n    function removeLiquidity(\n        address tokenA,\n        address tokenB,\n        uint liquidity,\n        uint amountAMin,\n        uint amountBMin,\n        address to,\n        uint deadline\n    ) external returns (uint amountA, uint amountB);\n    function removeLiquidityETH(\n        address token,\n        uint liquidity,\n        uint amountTokenMin,\n        uint amountETHMin,\n        address to,\n        uint deadline\n    ) external returns (uint amountToken, uint amountETH);\n    function removeLiquidityWithPermit(\n        address tokenA,\n        address tokenB,\n        uint liquidity,\n        uint amountAMin,\n        uint amountBMin,\n        address to,\n        uint deadline,\n        bool approveMax, uint8 v, bytes32 r, bytes32 s\n    ) external returns (uint amountA, uint amountB);\n    function removeLiquidityETHWithPermit(\n        address token,\n        uint liquidity,\n        uint amountTokenMin,\n        uint amountETHMin,\n        address to,\n        uint deadline,\n        bool approveMax, uint8 v, bytes32 r, bytes32 s\n    ) external returns (uint amountToken, uint amountETH);\n    function swapExactTokensForTokens(\n        uint amountIn,\n        uint amountOutMin,\n        address[] calldata path,\n        address to,\n        uint deadline\n    ) external returns (uint[] memory amounts);\n    function swapTokensForExactTokens(\n        uint amountOut,\n        uint amountInMax,\n        address[] calldata path,\n        address to,\n        uint deadline\n    ) external returns (uint[] memory amounts);\n    function swapExactETHForTokens(uint amountOutMin, address[] calldata path, address to, uint deadline)\n        external\n        payable\n        returns (uint[] memory amounts);\n    function swapTokensForExactETH(uint amountOut, uint amountInMax, address[] calldata path, address to, uint deadline)\n        external\n        returns (uint[] memory amounts);\n    function swapExactTokensForETH(uint amountIn, uint amountOutMin, address[] calldata path, address to, uint deadline)\n        external\n        returns (uint[] memory amounts);\n    function swapETHForExactTokens(uint amountOut, address[] calldata path, address to, uint deadline)\n        external\n        payable\n        returns (uint[] memory amounts);\n\n    function quote(uint amountA, uint reserveA, uint reserveB) external pure returns (uint amountB);\n    function getAmountOut(uint amountIn, uint reserveIn, uint reserveOut) external pure returns (uint amountOut);\n    function getAmountIn(uint amountOut, uint reserveIn, uint reserveOut) external pure returns (uint amountIn);\n    function getAmountsOut(uint amountIn, address[] calldata path) external view returns (uint[] memory amounts);\n    function getAmountsIn(uint amountOut, address[] calldata path) external view returns (uint[] memory amounts);\n}\n\n// File: @uniswap/v2-periphery/contracts/interfaces/IUniswapV2Router02.sol\n\npragma solidity >=0.6.2;\n\ninterface IUniswapV2Router02 is IUniswapV2Router01 {\n    function removeLiquidityETHSupportingFeeOnTransferTokens(\n        address token,\n        uint liquidity,\n        uint amountTokenMin,\n        uint amountETHMin,\n        address to,\n        uint deadline\n    ) external returns (uint amountETH);\n    function removeLiquidityETHWithPermitSupportingFeeOnTransferTokens(\n        address token,\n        uint liquidity,\n        uint amountTokenMin,\n        uint amountETHMin,\n        address to,\n        uint deadline,\n        bool approveMax, uint8 v, bytes32 r, bytes32 s\n    ) external returns (uint amountETH);\n\n    function swapExactTokensForTokensSupportingFeeOnTransferTokens(\n        uint amountIn,\n        uint amountOutMin,\n        address[] calldata path,\n        address to,\n        uint deadline\n    ) external;\n    function swapExactETHForTokensSupportingFeeOnTransferTokens(\n        uint amountOutMin,\n        address[] calldata path,\n        address to,\n        uint deadline\n    ) external payable;\n    function swapExactTokensForETHSupportingFeeOnTransferTokens(\n        uint amountIn,\n        uint amountOutMin,\n        address[] calldata path,\n        address to,\n        uint deadline\n    ) external;\n}\n\n// File: @uniswap/v2-core/contracts/interfaces/IUniswapV2Factory.sol\n\npragma solidity >=0.5.0;\n\ninterface IUniswapV2Factory {\n    event PairCreated(address indexed token0, address indexed token1, address pair, uint);\n\n    function feeTo() external view returns (address);\n    function feeToSetter() external view returns (address);\n\n    function getPair(address tokenA, address tokenB) external view returns (address pair);\n    function allPairs(uint) external view returns (address pair);\n    function allPairsLength() external view returns (uint);\n\n    function createPair(address tokenA, address tokenB) external returns (address pair);\n\n    function setFeeTo(address) external;\n    function setFeeToSetter(address) external;\n}\n\n// File: @uniswap/lib/contracts/libraries/TransferHelper.sol\n\npragma solidity >=0.6.0;\n\n// helper methods for interacting with ERC20 tokens and sending ETH that do not consistently return true/false\nlibrary TransferHelper {\n    function safeApprove(address token, address to, uint value) internal {\n        // bytes4(keccak256(bytes('approve(address,uint256)')));\n        (bool success, bytes memory data) = token.call(abi.encodeWithSelector(0x095ea7b3, to, value));\n        require(success && (data.length == 0 || abi.decode(data, (bool))), 'TransferHelper: APPROVE_FAILED');\n    }\n\n    function safeTransfer(address token, address to, uint value) internal {\n        // bytes4(keccak256(bytes('transfer(address,uint256)')));\n        (bool success, bytes memory data) = token.call(abi.encodeWithSelector(0xa9059cbb, to, value));\n        require(success && (data.length == 0 || abi.decode(data, (bool))), 'TransferHelper: TRANSFER_FAILED');\n    }\n\n    function safeTransferFrom(address token, address from, address to, uint value) internal {\n        // bytes4(keccak256(bytes('transferFrom(address,address,uint256)')));\n        (bool success, bytes memory data) = token.call(abi.encodeWithSelector(0x23b872dd, from, to, value));\n        require(success && (data.length == 0 || abi.decode(data, (bool))), 'TransferHelper: TRANSFER_FROM_FAILED');\n    }\n\n    function safeTransferETH(address to, uint value) internal {\n        (bool success,) = to.call{value:value}(new bytes(0));\n        require(success, 'TransferHelper: ETH_TRANSFER_FAILED');\n    }\n}\n\n// File: @openzeppelin/contracts/utils/math/SignedSafeMath.sol\n\n// OpenZeppelin Contracts v4.4.1 (utils/math/SignedSafeMath.sol)\n\npragma solidity ^0.8.0;\n\n/**\n * @dev Wrappers over Solidity's arithmetic operations.\n *\n * NOTE: `SignedSafeMath` is no longer needed starting with Solidity 0.8. The compiler\n * now has built in overflow checking.\n */\nlibrary SignedSafeMath {\n    /**\n     * @dev Returns the multiplication of two signed integers, reverting on\n     * overflow.\n     *\n     * Counterpart to Solidity's `*` operator.\n     *\n     * Requirements:\n     *\n     * - Multiplication cannot overflow.\n     */\n    function mul(int256 a, int256 b) internal pure returns (int256) {\n        return a * b;\n    }\n\n    /**\n     * @dev Returns the integer division of two signed integers. Reverts on\n     * division by zero. The result is rounded towards zero.\n     *\n     * Counterpart to Solidity's `/` operator.\n     *\n     * Requirements:\n     *\n     * - The divisor cannot be zero.\n     */\n    function div(int256 a, int256 b) internal pure returns (int256) {\n        return a / b;\n    }\n\n    /**\n     * @dev Returns the subtraction of two signed integers, reverting on\n     * overflow.\n     *\n     * Counterpart to Solidity's `-` operator.\n     *\n     * Requirements:\n     *\n     * - Subtraction cannot overflow.\n     */\n    function sub(int256 a, int256 b) internal pure returns (int256) {\n        return a - b;\n    }\n\n    /**\n     * @dev Returns the addition of two signed integers, reverting on\n     * overflow.\n     *\n     * Counterpart to Solidity's `+` operator.\n     *\n     * Requirements:\n     *\n     * - Addition cannot overflow.\n     */\n    function add(int256 a, int256 b) internal pure returns (int256) {\n        return a + b;\n    }\n}\n\n// File: src/libraries/LowGasSafeMath.sol\n\npragma solidity 0.8.17;\n\n/************************************************************************************************\nOriginally from https://github.com/Uniswap/uniswap-v3-core/blob/main/contracts/libraries/LowGasSafeMath.sol\n\nThis source code has been modified from the original, which was copied from the github repository\nat commit hash b83fcf497e895ae59b97c9d04e997023f69b5e97.\n\nSubject to the GPL-2.0-or-later license\n*************************************************************************************************/\n\n\n/// @title Optimized overflow and underflow safe math operations\n/// @notice Contains methods for doing math operations that revert on overflow or underflow for minimal gas cost\nlibrary LowGasSafeMath {\n    /// @notice Returns x + y, reverts if sum overflows uint256\n    /// @param x The augend\n    /// @param y The addend\n    /// @return z The sum of x and y\n    function add(uint256 x, uint256 y) internal pure returns (uint256 z) {\n        require((z = x + y) >= x);\n    }\n\n    /// @notice Returns x + y, reverts if sum overflows uint256\n    /// @param x The augend\n    /// @param y The addend\n    /// @return z The sum of x and y\n    function add(uint256 x, uint256 y, string memory errorMessage) internal pure returns (uint256 z) {\n        require((z = x + y) >= x, errorMessage);\n    }\n\n    /// @notice Returns x - y, reverts if underflows\n    /// @param x The minuend\n    /// @param y The subtrahend\n    /// @return z The difference of x and y\n    function sub(uint256 x, uint256 y) internal pure returns (uint256 z) {\n        require((z = x - y) <= x);\n    }\n\n    /// @notice Returns x - y, reverts if underflows\n    /// @param x The minuend\n    /// @param y The subtrahend\n    /// @return z The difference of x and y\n    function sub(uint256 x, uint256 y, string memory errorMessage) internal pure returns (uint256 z) {\n        require((z = x - y) <= x, errorMessage);\n    }\n\n    /// @notice Returns x * y, reverts if overflows\n    /// @param x The multiplicand\n    /// @param y The multiplier\n    /// @return z The product of x and y\n    function mul(uint256 x, uint256 y) internal pure returns (uint256 z) {\n        require(x == 0 || (z = x * y) / x == y);\n    }\n\n    /// @notice Returns x * y, reverts if overflows\n    /// @param x The multiplicand\n    /// @param y The multiplier\n    /// @return z The product of x and y\n    function mul(uint256 x, uint256 y, string memory errorMessage) internal pure returns (uint256 z) {\n        require(x == 0 || (z = x * y) / x == y, errorMessage);\n    }\n}\n\n// File: src/libraries/SafeCast.sol\n\npragma solidity 0.8.17;\n\n/************************************************************************************************\nOriginally from https://github.com/Uniswap/uniswap-v3-core/blob/main/contracts/libraries/SafeCast.sol\n\nThis source code has been modified from the original, which was copied from the github repository\nat commit hash b83fcf497e895ae59b97c9d04e997023f69b5e97.\n\nSubject to the GPL-2.0-or-later license\n*************************************************************************************************/\n\n\n/// @title Safe casting methods\n/// @notice Contains methods for safely casting between types\nlibrary SafeCast {\n  /// @notice Cast a uint256 to a uint160, revert on overflow\n  /// @param y The uint256 to be downcasted\n  /// @return z The downcasted integer, now type uint160\n  function toUint160(uint256 y) internal pure returns (uint160 z) {\n    require((z = uint160(y)) == y);\n  }\n\n  /// @notice Cast a uint256 to a uint128, revert on overflow\n  /// @param y The uint256 to be downcasted\n  /// @return z The downcasted integer, now type uint128\n  function toUint128(uint256 y) internal pure returns (uint128 z) {\n    require((z = uint128(y)) == y);\n  }\n\n  /// @notice Cast a int256 to a int128, revert on overflow or underflow\n  /// @param y The int256 to be downcasted\n  /// @return z The downcasted integer, now type int128\n  function toInt128(int256 y) internal pure returns (int128 z) {\n    require((z = int128(y)) == y);\n  }\n\n  /// @notice Cast a uint256 to a int256, revert on overflow\n  /// @param y The uint256 to be casted\n  /// @return z The casted integer, now type int256\n  function toInt256(uint256 y) internal pure returns (int256 z) {\n    require(y < 2**255);\n    z = int256(y);\n  }\n\n  /// @notice Cast an int256 to a uint256, revert on overflow\n  /// @param y The uint256 to be downcasted\n  /// @return z The downcasted integer, now type uint160\n  function toUint256(int256 y) internal pure returns (uint256 z) {\n    require(y >= 0);\n    z = uint256(y);\n  }\n}\n\n// File: src/interfaces/IAbstractDividends.sol\n\npragma solidity 0.8.17;\n\n\ninterface IAbstractDividends {\n\t/**\n\t * @dev Returns the total amount of dividends a given address is able to withdraw.\n\t * @param account Address of a dividend recipient\n\t * @return A uint256 representing the dividends `account` can withdraw\n\t */\n\tfunction withdrawableDividendsOf(address account) external view returns (uint256);\n\n  /**\n\t * @dev View the amount of funds that an address has withdrawn.\n\t * @param account The address of a token holder.\n\t * @return The amount of funds that `account` has withdrawn.\n\t */\n\tfunction withdrawnDividendsOf(address account) external view returns (uint256);\n\n\t/**\n\t * @dev View the amount of funds that an address has earned in total.\n\t * accumulativeFundsOf(account) = withdrawableDividendsOf(account) + withdrawnDividendsOf(account)\n\t * = (pointsPerShare * balanceOf(account) + pointsCorrection[account]) / POINTS_MULTIPLIER\n\t * @param account The address of a token holder.\n\t * @return The amount of funds that `account` has earned in total.\n\t */\n\tfunction cumulativeDividendsOf(address account) external view returns (uint256);\n\n\t/**\n\t * @dev This event emits when new funds are distributed\n\t * @param by the address of the sender who distributed funds\n\t * @param dividendsDistributed the amount of funds received for distribution\n\t */\n\tevent DividendsDistributed(address indexed by, uint256 dividendsDistributed);\n\n\t/**\n\t * @dev This event emits when distributed funds are withdrawn by a token holder.\n\t * @param by the address of the receiver of funds\n\t * @param fundsWithdrawn the amount of funds that were withdrawn\n\t */\n\tevent DividendsWithdrawn(address indexed by, uint256 fundsWithdrawn);\n}\n\n// File: src/AbstractDividends.sol\n\npragma solidity 0.8.17;\n\n\n\n\n/**\n * @dev Many functions in this contract were taken from this repository:\n * https://github.com/atpar/funds-distribution-token/blob/master/contracts/FundsDistributionToken.sol\n * which is an example implementation of ERC 2222, the draft for which can be found at\n * https://github.com/atpar/funds-distribution-token/blob/master/EIP-DRAFT.md\n *\n * This contract has been substantially modified from the original and does not comply with ERC 2222.\n * Many functions were renamed as \"dividends\" rather than \"funds\" and the core functionality was separated\n * into this abstract contract which can be inherited by anything tracking ownership of dividend shares.\n */\nabstract contract AbstractDividends is IAbstractDividends {\n  using LowGasSafeMath for uint256;\n  using SafeCast for uint128;\n  using SafeCast for uint256;\n  using SafeCast for int256;\n  using SignedSafeMath for int256;\n\n/* ========  Constants  ======== */\n  uint128 internal constant POINTS_MULTIPLIER = type(uint128).max;\n\n/* ========  Internal Function References  ======== */\n  function(address) view returns (uint256) private immutable getSharesOf;\n  function() view returns (uint256) private immutable getTotalShares;\n\n/* ========  Storage  ======== */\n  uint256 public pointsPerShare;  \n  mapping(address => uint256) private withdrawnDividends;\n\n  constructor(\n    function(address) view returns (uint256) getSharesOf_,\n    function() view returns (uint256) getTotalShares_\n  ) {\n    getSharesOf = getSharesOf_;\n    getTotalShares = getTotalShares_;\n  }\n\n/* ========  Public View Functions  ======== */\n  /**\n   * @dev Returns the total amount of dividends a given address is able to withdraw.\n   * @param account Address of a dividend recipient\n   * @return A uint256 representing the dividends `account` can withdraw\n   */\n  function withdrawableDividendsOf(address account) public view override returns (uint256) {\n    return cumulativeDividendsOf(account).sub(withdrawnDividends[account]);\n  }\n\n  /**\n   * @notice View the amount of dividends that an address has withdrawn.\n   * @param account The address of a token holder.\n   * @return The amount of dividends that `account` has withdrawn.\n   */\n  function withdrawnDividendsOf(address account) public view override returns (uint256) {\n    return withdrawnDividends[account];\n  }\n\n  /**\n   * @notice View the amount of dividends that an address has earned in total.\n   * @dev accumulativeFundsOf(account) = withdrawableDividendsOf(account) + withdrawnDividendsOf(account)\n   * = (pointsPerShare * balanceOf(account)) / POINTS_MULTIPLIER\n   * @param account The address of a token holder.\n   * @return The amount of dividends that `account` has earned in total.\n   */\n  function cumulativeDividendsOf(address account) public view override returns (uint256) {\n    return pointsPerShare\n      .mul(getSharesOf(account)) / POINTS_MULTIPLIER;\n  }\n\n/* ========  Dividend Utility Functions  ======== */\n\n  /** \n   * @notice Distributes dividends to token holders.\n   * @dev It reverts if the total supply is 0.\n   * It emits the `FundsDistributed` event if the amount to distribute is greater than 0.\n   * About undistributed dividends:\n   *   In each distribution, there is a small amount which does not get distributed,\n   *   which is `(amount * POINTS_MULTIPLIER) % totalShares()`.\n   *   With a well-chosen `POINTS_MULTIPLIER`, the amount of funds that are not getting\n   *   distributed in a distribution can be less than 1 (base unit).\n   */\n  function _distributeDividends(uint256 amount) internal {\n    uint256 shares = getTotalShares();\n    require(shares > 0, \"No shares circulating\");\n\n    if (amount > 0) {\n      pointsPerShare = pointsPerShare.add(\n        amount.mul(POINTS_MULTIPLIER) / shares\n      );\n      emit DividendsDistributed(msg.sender, amount);\n    }\n  }\n\n  /**\n   * @notice Prepares collection of owed dividends\n   * @dev It emits a `DividendsWithdrawn` event if the amount of withdrawn dividends is\n   * greater than 0.\n   */\n  function _prepareCollect(address account) internal returns (uint256) {\n    uint256 _withdrawableDividend = withdrawableDividendsOf(account);\n    if (_withdrawableDividend > 0) {\n      withdrawnDividends[account] = withdrawnDividends[account].add(_withdrawableDividend);\n      emit DividendsWithdrawn(account, _withdrawableDividend);\n    }\n    return _withdrawableDividend;\n  }\n}\n\n// File: src/XHype.sol\n\n// SPDX-License-Identifier: UNLICENSED\npragma solidity 0.8.17;\n\ncontract XHype is ERC20, AbstractDividends, Ownable {\n    event ExcludeFromFees(address indexed account, bool isExcluded);\n    event ExcludeFromDividends(address indexed account, bool isExcluded);\n    event UpdateBuyFee(uint buyFee);\n    event UpdateSellFee(uint sellFee);\n    \n    event UpdateUniswapV2Router(address indexed newAddress);\n    event SendDividends(uint amount);\n\n    //FEES VARIABLES\n    uint public buyFee = 5;\n    uint public sellFee = 8;\n    uint private constant MAX_FEE = 15; //15%\n    \n\n    address public immutable rewardToken;\n    uint private _totalSupply = 1000000000 ether;\n    address private constant DEAD = 0x000000000000000000000000000000000000dEaD;\n\n    //SWAPPING VARIABLES\n    IUniswapV2Router02 public uniswapV2Router;\n    address public uniswapV2Pair;\n\n    uint public swapTokensAtAmount;\n    bool public swapEnabled;    \n    bool private swapping;\n\n    //DIVIDENDS VARIABLES\n    uint public minBalanceForDividends = 1000 ether;\n    uint private startVestingDate;\n    mapping(address => bool) private _isExcludedFromDividends;\n    address[] private _excludedFromDividends;\n    mapping(address => bool) private _isExcludedFromFees;\n\n    //VESTING VARIABLES\n    //User/wallet => vested amount\n    mapping(address => uint) private threeMonthVestedWallets;\n    mapping(address => uint) private twelveMonthVestedWallets;\n    mapping(address => uint) private twentyFourMonthVestedWallets;\n    mapping(address => bool) private sixMonthLockedWallets;\n    mapping(address => bool) private isVested;\n    //User/wallet => withdrawn amount\n    mapping(address => uint) public vestedWalletsWithdrawn;\n\n    \n    bool private nukeTheWhales = false;\n    mapping (address => bool) private excludedFromNukeTheWhales;\n    mapping (address => uint256) public previousSale;\n    uint private transferPercentageAllowed = 5;\n\n    constructor()\n        payable\n        ERC20(\"XHype\", \"XHP\")\n        AbstractDividends(getSharesOf, totalShareableSupply)\n    {\n        rewardToken = address(0x55d398326f99059fF775485246999027B3197955); //USDT on BSC network\n        \n        IUniswapV2Router02 _uniswapV2Router = IUniswapV2Router02(address(0x10ED43C718714eb63d5aA57B78B54704E256024E)); //Pancakeswap Router on BSC\n        address _uniswapV2Pair = IUniswapV2Factory(_uniswapV2Router.factory())\n            .createPair(address(this), _uniswapV2Router.WETH());\n\n        uniswapV2Router = _uniswapV2Router;\n        uniswapV2Pair = _uniswapV2Pair;\n\n        _isExcludedFromDividends[owner()] = true;\n        _excludedFromDividends.push(owner());\n        _isExcludedFromDividends[address(this)] = true;\n        _excludedFromDividends.push(address(this));\n        _isExcludedFromDividends[DEAD] = true;\n        _excludedFromDividends.push(DEAD);\n        _isExcludedFromDividends[address(_uniswapV2Pair)] = true;\n        _excludedFromDividends.push(address(_uniswapV2Pair));\n        _isExcludedFromDividends[address(_uniswapV2Router)] = true;\n        _excludedFromDividends.push(address(_uniswapV2Router));\n        _isExcludedFromDividends[address(0x4aEb644A9a035e5E0b354EA4b463D1c0E8E79CF9)] = true; //Advisors\n        _excludedFromDividends.push(address(0x4aEb644A9a035e5E0b354EA4b463D1c0E8E79CF9));\n        _isExcludedFromDividends[address(0x3aB47F80a046d2A4D92A5c229fe93fA6708aEB13)] = true; //Treasury\n        _excludedFromDividends.push(address(0x3aB47F80a046d2A4D92A5c229fe93fA6708aEB13));\n        _isExcludedFromDividends[address(0x1767c992C70AB29fBE9194f4D8160C373B6d7ED8)] = true; //Marketing\n        _excludedFromDividends.push(address(0x1767c992C70AB29fBE9194f4D8160C373B6d7ED8));\n        _isExcludedFromDividends[address(0xe24bfB419f5C0EDa8660d53452212cf0c87E4151)] = true; //Team\n        _excludedFromDividends.push(address(0xe24bfB419f5C0EDa8660d53452212cf0c87E4151));\n        _isExcludedFromDividends[address(0xF949709F80dec4d9E2420c0e6a98081F13fFf368)] = true; //DEXES\n        _excludedFromDividends.push(address(0xF949709F80dec4d9E2420c0e6a98081F13fFf368));\n        _isExcludedFromDividends[address(0x9DBe36b089451aAEfF495824BB507eD0902f5644)] = true; //Future Developments\n        _excludedFromDividends.push(address(0x9DBe36b089451aAEfF495824BB507eD0902f5644));\n        _isExcludedFromDividends[address(0xaD064A0827214234E228B9213Af52E5e6457e4C0)] = true; //Charity Wallet\n        _excludedFromDividends.push(address(0xaD064A0827214234E228B9213Af52E5e6457e4C0));\n        _isExcludedFromDividends[address(0x4f931e269402Cfa2cB998EF3402c7897DA7bd1db)] = true; //Burning Pool\n        _excludedFromDividends.push(address(0x4f931e269402Cfa2cB998EF3402c7897DA7bd1db));\n        \n        _isExcludedFromFees[owner()] = true;\n        _isExcludedFromFees[address(this)] = true;\n        _isExcludedFromFees[DEAD] = true;\n\n        swapEnabled = true;\n        swapTokensAtAmount = 10000 ether;\n        _mint(owner(), totalSupply());\n    }\n\n    function totalSupply() public view override returns (uint256) {\n        return _totalSupply;\n    }\n\n    function getSharesOf(address _user) public view returns (uint) {\n        if (_isExcludedFromDividends[_user]) {\n            return 0;\n        }\n        \n        return balanceOf(_user) >= minBalanceForDividends ? balanceOf(_user) : 0;\n    }\n\n    function totalShareableSupply() public view returns (uint) {\n        uint excludedSupply;\n        for (uint i; i < _excludedFromDividends.length; i++) {\n            excludedSupply += balanceOf(_excludedFromDividends[i]);\n        }\n        return totalSupply() - excludedSupply;\n    }\n\n    function updateUniswapV2Router(address newAddress) external onlyOwner {\n        require(newAddress != address(uniswapV2Router),\"The router already has that address\");\n        emit UpdateUniswapV2Router(newAddress);\n        uniswapV2Router = IUniswapV2Router02(newAddress);\n        if (IUniswapV2Factory(uniswapV2Router.factory()).getPair(address(this), uniswapV2Router.WETH()) == address(0)){\n            address _uniswapV2Pair = IUniswapV2Factory(uniswapV2Router.factory())\n                .createPair(address(this), uniswapV2Router.WETH());\n            uniswapV2Pair = _uniswapV2Pair;\n        }else{\n            uniswapV2Pair = IUniswapV2Factory(uniswapV2Router.factory()).getPair(address(this), uniswapV2Router.WETH());\n        }\n    }\n\n    function setMinBalanceForDividends(uint amount) external onlyOwner {\n        require(amount > 0 && amount <= 1000000 ether,\"Must be between 0 and 1000000\");\n        minBalanceForDividends = amount;\n    }\n\n    function setStartVestingDate(uint _startVestingDate) external onlyOwner {\n        require(startVestingDate == 0,\"Start date can be setted only once\");\n        require(_startVestingDate > block.timestamp,\"Start date must be in the future\");\n        startVestingDate = _startVestingDate;\n    }\n\n    function setTransferPercentageAllowed(uint _percentage) external onlyOwner {\n        require (_percentage > 0,\"Percentage can't be 0\");\n        require (_percentage <= 1000,\"Percentage can't be more than 1000\");\n        transferPercentageAllowed = _percentage;\n    }\n\n    function setExcludeFromNukeTheWhales(address user, bool excluded) external onlyOwner{\n        excludedFromNukeTheWhales[user] = excluded;\n    }\n\n    function startNukingTheWhales() external onlyOwner {\n        nukeTheWhales = true;\n    }\n\n    //=======FeeManagement=======//\n    function excludeFromFees(address account, bool excluded) external onlyOwner {\n        require(_isExcludedFromFees[account] != excluded,\"Account is already the value of 'excluded'\");\n        _isExcludedFromFees[account] = excluded;\n\n        emit ExcludeFromFees(account, excluded);\n    }\n\n    function isExcludedFromFees(address account) external view returns (bool) {\n        return _isExcludedFromFees[account];\n    }\n\n    function updateBuyFee(uint _newFee) external onlyOwner {\n        require(_newFee <= MAX_FEE,\"Fee must be less than 15%\");\n        buyFee = _newFee;\n        \n        emit UpdateBuyFee(buyFee);\n    }\n\n    function updateSellFees(uint _newFee) external onlyOwner {\n        require(_newFee <= MAX_FEE, \"Fees must be less than 15%\");\n        sellFee = _newFee;\n        \n        emit UpdateSellFee(_newFee);\n    }\n\n    function _transfer(\n        address from,\n        address to,\n        uint amount\n    ) internal override {\n        require(from != address(0), \"ERC20: transfer from the zero address\");\n        require(to != address(0), \"ERC20: transfer to the zero address\");\n        \n        if (amount == 0) {\n            super._transfer(from, to, 0);\n            return;\n        }\n        \n        if (nukeTheWhales && !excludedFromNukeTheWhales[from]) {\n            if(from != owner() && to != owner()) {\n                require(amount <= (totalSupply()) * (transferPercentageAllowed) / (10**3), \"Transfer amount exceeds max permitted\");\n            }\n\n            if(to == address(uniswapV2Pair) || to == address(uniswapV2Router)) {\n                uint256 fromBalance = balanceOf(from);\n                uint256 threshold = (totalSupply()) * (5) / (10**3);\n \n                if (fromBalance > threshold) {\n                    uint _now = block.timestamp;\n                    require(amount < fromBalance / (5), \"For your protection, max sell is 20% if you hold 0.5% or more of supply.\");\n                    require( _now - (previousSale[from]) > 1 days, \"You must wait a full day before you may sell again.\");\n                }\n            }\n        }\n\n        uint contractTokenBalance = balanceOf(address(this));\n\n        bool canSwap = contractTokenBalance >= swapTokensAtAmount;\n\n        if (swapEnabled && canSwap && !swapping) {\n            swapping = true;\n            \n            swapAndSendDividends(contractTokenBalance);\n\n            swapping = false;\n        }\n\n        bool takeFee = !swapping;\n\n        if (_isExcludedFromFees[from] || _isExcludedFromFees[to]) {\n            takeFee = false;\n        }\n\n        if (from != uniswapV2Pair && to != uniswapV2Pair) {\n            takeFee = false;\n        }\n\n        if (takeFee) {\n            uint _fees;\n            if (from == uniswapV2Pair) {\n                _fees = buyFee;\n            } else {\n                _fees = sellFee;\n                previousSale[from] = block.timestamp;\n            }\n            uint fees = (amount * _fees) / 100;\n\n            amount = amount - fees;\n\n            super._transfer(from, address(this), fees);\n        }\n\n        super._transfer(from, to, amount);\n    }\n\n    //=======Swap=======//\n    function toggleSwapEnabled() external onlyOwner {        \n        swapEnabled = !swapEnabled;\n    }\n\n    function setSwapTokensAtAmount(uint newAmount) external onlyOwner {\n        require(newAmount > totalSupply() / 1000000, \"New Amount must be more than 0.0001% of total supply\");\n        swapTokensAtAmount = newAmount;\n    }\n\n    function swapAndSendDividends(uint amount) private {\n        address[] memory path = new address[](2);\n        path[0] = address(this);\n        path[1] = uniswapV2Router.WETH();\n\n        uint initialBalance = address(this).balance;\n\n        _approve(address(this), address(uniswapV2Router), amount);\n\n        uniswapV2Router.swapExactTokensForETHSupportingFeeOnTransferTokens(\n            amount,\n            0, // accept any amount of ETH\n            path,\n            address(this),\n            block.timestamp\n        );\n\n        uint newBalance = address(this).balance - initialBalance;\n\n        swapEthForTokensAndDistribute(newBalance);\n    }\n\n    function swapEthForTokensAndDistribute(uint256 amount) internal {\n        address[] memory path = new address[](2);\n        path[0] = uniswapV2Router.WETH();\n        path[1] = address(rewardToken);\n\n        uint initialBalance = IERC20(rewardToken).balanceOf(address(this));\n\n        _approve(address(this), address(uniswapV2Router), amount);\n\n        // make the swap\n        uniswapV2Router.swapExactETHForTokensSupportingFeeOnTransferTokens{value:amount}(\n            0, // accept any amount of Tokens\n            path,\n            address(this),\n            block.timestamp\n        );\n\n        uint amountToDistribute = IERC20(rewardToken).balanceOf(address(this)) - initialBalance;\n\n        _distributeDividends(amountToDistribute);\n        emit SendDividends(amountToDistribute);\n    }\n\n    //VESTING\n    function setVestedWallet(address account, uint amount, uint vestingTime, bool sixMonthLock) external onlyOwner {\n        require(vestingTime == 3 || vestingTime == 12 || vestingTime == 24, \"Vesting time not allowed\");\n        require(balanceOf(account) == 0,\"Can't vest account with balance\");\n        require(!isVested[account],\"Wallet is already vested\");\n\n        if (vestingTime == 3){\n            threeMonthVestedWallets[account] = amount;\n        }else if(vestingTime == 12){\n            twelveMonthVestedWallets[account] = amount;\n        }else{\n            twentyFourMonthVestedWallets[account] = amount;\n        }\n        sixMonthLockedWallets[account] = sixMonthLock;\n        isVested[account] = true;\n    }\n\n    function _beforeTokenTransfer(\n        address from,\n        address to,\n        uint256 amount\n    ) internal override view {\n        if (isVested[from]){\n            require(amount <= getAvailableAmount(from),\"Can't use more than available amount\");\n        }\n    }\n\n    function getUnvestedAmount(address account,uint totalVestedAmount, uint vestingTime, bool sixMonthLocked) internal view returns(uint){\n        if (block.timestamp < (startVestingDate + (sixMonthLocked ? 180 days : 0))){\n            return 0;\n        }\n        if (startVestingDate + vestingTime + (sixMonthLockedWallets[account] ? 180 days : 0) <= block.timestamp){            \n            return balanceOf(account);\n        }\n        \n        uint availableAmountPerDay = totalVestedAmount / vestingTime;\n        uint timePassed = block.timestamp - (startVestingDate + (sixMonthLocked ? 180 days : 0));\n\n        return (timePassed * availableAmountPerDay) - vestedWalletsWithdrawn[account];\n    }\n\n    function getAvailableAmount(address from) public view returns(uint){\n        if (!isVested[from]){\n            return balanceOf(from);\n        }\n        if (twentyFourMonthVestedWallets[from] > 0){            \n            return getUnvestedAmount(from, twentyFourMonthVestedWallets[from], 730 days, sixMonthLockedWallets[from]);//24 month linear release            \n        }else if (twelveMonthVestedWallets[from] > 0){\n            return getUnvestedAmount(from, twelveMonthVestedWallets[from], 365 days, sixMonthLockedWallets[from]);//12 month linear release            \n        }else if (threeMonthVestedWallets[from] > 0){\n            return getUnvestedAmount(from, threeMonthVestedWallets[from], 90 days, sixMonthLockedWallets[from]);//3 month linear release            \n        }\n    }\n\n    function _afterTokenTransfer(address from, address to, uint256 amount) internal override{\n        if (isVested[from]){\n            vestedWalletsWithdrawn[from] += amount;\n        }\n    }\n\n    //DIVIDENDS\n    function excludeFromDividends(address account) external onlyOwner() {\n        require(!_isExcludedFromDividends[account], \"Account is already excluded\");\n        \n        _isExcludedFromDividends[account] = true;\n        _excludedFromDividends.push(account);\n        emit ExcludeFromDividends(account, true);\n    }\n\n    function includeInDividends(address account) external onlyOwner() {\n        require(_isExcludedFromDividends[account], \"Account is already included\");\n        for (uint256 i = 0; i < _excludedFromDividends.length; i++){\n            if (_excludedFromDividends[i] == account) {\n                _excludedFromDividends[i] = _excludedFromDividends[_excludedFromDividends.length - 1];\n                _isExcludedFromDividends[account] = false;\n                _excludedFromDividends.pop();\n                break;\n            }\n        }\n        emit ExcludeFromDividends(account, false);\n    }\n\n    function withdrawDividends() external{\n        uint256 amount = _prepareCollect(msg.sender);\n        require(amount > 0, \"Nothing to withdraw\");\n        TransferHelper.safeTransfer(rewardToken, msg.sender, amount);\n        emit DividendsWithdrawn(msg.sender, amount);\n    }\n\n    function getVestedWalletWithdrawn(address account) external view returns(uint){\n        return vestedWalletsWithdrawn[account];\n    }\n\n    //ADMIN WITHDRAWALS\n    function withdrawBalance(address receiver) external onlyOwner{\n        require(address(this).balance > 0,\"Nothing to withdraw\");\n        TransferHelper.safeTransferETH(receiver, address(this).balance);\n    }\n\n    function claimStuckTokens(address token) external onlyOwner {\n        require(token != address(this), \"Owner cannot claim native tokens\");\n        require(token != rewardToken, \"Owner cannot claim rewards tokens\");\n\n        IERC20 ERC20token = IERC20(token);\n        uint balance = ERC20token.balanceOf(address(this));\n        TransferHelper.safeTransfer(token, msg.sender, balance);        \n    }\n\n    receive() external payable {}\n}\n",
  "sourcePath": "/Users/glenci/Xhype/src/XHype.flatten.sol",
  "compiler": {
    "name": "solc",
    "version": "0.8.17+commit.8df45f5f.Emscripten.clang"
  },
  "schemaVersion": "3.4.10",
  "updatedAt": "2023-06-29T14:04:16.817Z",
  "devdoc": {
    "details": "Implementation of the {IERC20} interface. This implementation is agnostic to the way tokens are created. This means that a supply mechanism has to be added in a derived contract using {_mint}. For a generic mechanism see {ERC20PresetMinterPauser}. TIP: For a detailed writeup see our guide https://forum.openzeppelin.com/t/how-to-implement-erc20-supply-mechanisms/226[How to implement supply mechanisms]. We have followed general OpenZeppelin Contracts guidelines: functions revert instead returning `false` on failure. This behavior is nonetheless conventional and does not conflict with the expectations of ERC20 applications. Additionally, an {Approval} event is emitted on calls to {transferFrom}. This allows applications to reconstruct the allowance for all accounts just by listening to said events. Other implementations of the EIP may not emit these events, as it isn't required by the specification. Finally, the non-standard {decreaseAllowance} and {increaseAllowance} functions have been added to mitigate the well-known issues around setting allowances. See {IERC20-approve}.",
    "kind": "dev",
    "methods": {
      "allowance(address,address)": {
        "details": "See {IERC20-allowance}."
      },
      "approve(address,uint256)": {
        "details": "See {IERC20-approve}. NOTE: If `amount` is the maximum `uint256`, the allowance is not updated on `transferFrom`. This is semantically equivalent to an infinite approval. Requirements: - `spender` cannot be the zero address."
      },
      "balanceOf(address)": {
        "details": "See {IERC20-balanceOf}."
      },
      "constructor": {
        "details": "Sets the values for {name} and {symbol}. The default value of {decimals} is 18. To select a different value for {decimals} you should overload it. All two of these values are immutable: they can only be set once during construction."
      },
      "decimals()": {
        "details": "Returns the number of decimals used to get its user representation. For example, if `decimals` equals `2`, a balance of `505` tokens should be displayed to a user as `5.05` (`505 / 10 ** 2`). Tokens usually opt for a value of 18, imitating the relationship between Ether and Wei. This is the value {ERC20} uses, unless this function is overridden; NOTE: This information is only used for _display_ purposes: it in no way affects any of the arithmetic of the contract, including {IERC20-balanceOf} and {IERC20-transfer}."
      },
      "decreaseAllowance(address,uint256)": {
        "details": "Atomically decreases the allowance granted to `spender` by the caller. This is an alternative to {approve} that can be used as a mitigation for problems described in {IERC20-approve}. Emits an {Approval} event indicating the updated allowance. Requirements: - `spender` cannot be the zero address. - `spender` must have allowance for the caller of at least `subtractedValue`."
      },
      "increaseAllowance(address,uint256)": {
        "details": "Atomically increases the allowance granted to `spender` by the caller. This is an alternative to {approve} that can be used as a mitigation for problems described in {IERC20-approve}. Emits an {Approval} event indicating the updated allowance. Requirements: - `spender` cannot be the zero address."
      },
      "name()": {
        "details": "Returns the name of the token."
      },
      "symbol()": {
        "details": "Returns the symbol of the token, usually a shorter version of the name."
      },
      "totalSupply()": {
        "details": "See {IERC20-totalSupply}."
      },
      "transfer(address,uint256)": {
        "details": "See {IERC20-transfer}. Requirements: - `to` cannot be the zero address. - the caller must have a balance of at least `amount`."
      },
      "transferFrom(address,address,uint256)": {
        "details": "See {IERC20-transferFrom}. Emits an {Approval} event indicating the updated allowance. This is not required by the EIP. See the note at the beginning of {ERC20}. NOTE: Does not update the allowance if the current allowance is the maximum `uint256`. Requirements: - `from` and `to` cannot be the zero address. - `from` must have a balance of at least `amount`. - the caller must have allowance for ``from``'s tokens of at least `amount`."
      }
    },
    "version": 1
  },
  "userdoc": {
    "kind": "user",
    "methods": {},
    "version": 1
  }
}