{
  "contractName": "Token",
  "abi": [
    {
      "inputs": [],
      "stateMutability": "nonpayable",
      "type": "constructor"
    },
    {
      "anonymous": false,
      "inputs": [
        {
          "indexed": true,
          "internalType": "address",
          "name": "owner",
          "type": "address"
        },
        {
          "indexed": true,
          "internalType": "address",
          "name": "spender",
          "type": "address"
        },
        {
          "indexed": false,
          "internalType": "uint256",
          "name": "value",
          "type": "uint256"
        }
      ],
      "name": "Approval",
      "type": "event"
    },
    {
      "anonymous": false,
      "inputs": [
        {
          "indexed": true,
          "internalType": "address",
          "name": "from",
          "type": "address"
        },
        {
          "indexed": true,
          "internalType": "address",
          "name": "to",
          "type": "address"
        },
        {
          "indexed": false,
          "internalType": "uint256",
          "name": "value",
          "type": "uint256"
        }
      ],
      "name": "Transfer",
      "type": "event"
    },
    {
      "inputs": [
        {
          "internalType": "address",
          "name": "owner",
          "type": "address"
        },
        {
          "internalType": "address",
          "name": "spender",
          "type": "address"
        }
      ],
      "name": "allowance",
      "outputs": [
        {
          "internalType": "uint256",
          "name": "",
          "type": "uint256"
        }
      ],
      "stateMutability": "view",
      "type": "function"
    },
    {
      "inputs": [
        {
          "internalType": "address",
          "name": "spender",
          "type": "address"
        },
        {
          "internalType": "uint256",
          "name": "amount",
          "type": "uint256"
        }
      ],
      "name": "approve",
      "outputs": [
        {
          "internalType": "bool",
          "name": "",
          "type": "bool"
        }
      ],
      "stateMutability": "nonpayable",
      "type": "function"
    },
    {
      "inputs": [
        {
          "internalType": "address",
          "name": "account",
          "type": "address"
        }
      ],
      "name": "balanceOf",
      "outputs": [
        {
          "internalType": "uint256",
          "name": "",
          "type": "uint256"
        }
      ],
      "stateMutability": "view",
      "type": "function"
    },
    {
      "inputs": [
        {
          "internalType": "address",
          "name": "spender",
          "type": "address"
        },
        {
          "internalType": "uint256",
          "name": "subtractedValue",
          "type": "uint256"
        }
      ],
      "name": "decreaseAllowance",
      "outputs": [
        {
          "internalType": "bool",
          "name": "",
          "type": "bool"
        }
      ],
      "stateMutability": "nonpayable",
      "type": "function"
    },
    {
      "inputs": [
        {
          "internalType": "address",
          "name": "spender",
          "type": "address"
        },
        {
          "internalType": "uint256",
          "name": "addedValue",
          "type": "uint256"
        }
      ],
      "name": "increaseAllowance",
      "outputs": [
        {
          "internalType": "bool",
          "name": "",
          "type": "bool"
        }
      ],
      "stateMutability": "nonpayable",
      "type": "function"
    },
    {
      "inputs": [],
      "name": "name",
      "outputs": [
        {
          "internalType": "string",
          "name": "",
          "type": "string"
        }
      ],
      "stateMutability": "view",
      "type": "function"
    },
    {
      "inputs": [],
      "name": "symbol",
      "outputs": [
        {
          "internalType": "string",
          "name": "",
          "type": "string"
        }
      ],
      "stateMutability": "view",
      "type": "function"
    },
    {
      "inputs": [],
      "name": "totalSupply",
      "outputs": [
        {
          "internalType": "uint256",
          "name": "",
          "type": "uint256"
        }
      ],
      "stateMutability": "view",
      "type": "function"
    },
    {
      "inputs": [
        {
          "internalType": "address",
          "name": "to",
          "type": "address"
        },
        {
          "internalType": "uint256",
          "name": "amount",
          "type": "uint256"
        }
      ],
      "name": "transfer",
      "outputs": [
        {
          "internalType": "bool",
          "name": "",
          "type": "bool"
        }
      ],
      "stateMutability": "nonpayable",
      "type": "function"
    },
    {
      "inputs": [
        {
          "internalType": "address",
          "name": "from",
          "type": "address"
        },
        {
          "internalType": "address",
          "name": "to",
          "type": "address"
        },
        {
          "internalType": "uint256",
          "name": "amount",
          "type": "uint256"
        }
      ],
      "name": "transferFrom",
      "outputs": [
        {
          "internalType": "bool",
          "name": "",
          "type": "bool"
        }
      ],
      "stateMutability": "nonpayable",
      "type": "function"
    },
    {
      "inputs": [
        {
          "internalType": "uint256",
          "name": "amount",
          "type": "uint256"
        }
      ],
      "name": "burn",
      "outputs": [],
      "stateMutability": "nonpayable",
      "type": "function"
    },
    {
      "inputs": [],
      "name": "decimals",
      "outputs": [
        {
          "internalType": "uint8",
          "name": "",
          "type": "uint8"
        }
      ],
      "stateMutability": "view",
      "type": "function"
    }
  ],
  "bytecode": "0x60806040523480156200001157600080fd5b506040518060400160405280600981526020017f54657374205553445400000000000000000000000000000000000000000000008152506040518060400160405280600581526020017f545553445400000000000000000000000000000000000000000000000000000081525081600390816200008f9190620004b9565b508060049081620000a19190620004b9565b505050620000c2336b033b2e3c9fd0803ce8000000620000c860201b60201c565b620006bb565b600073ffffffffffffffffffffffffffffffffffffffff168273ffffffffffffffffffffffffffffffffffffffff16036200013a576040517f08c379a0000000000000000000000000000000000000000000000000000000008152600401620001319062000601565b60405180910390fd5b6200014e600083836200023560201b60201c565b806002600082825462000162919062000652565b92505081905550806000808473ffffffffffffffffffffffffffffffffffffffff1673ffffffffffffffffffffffffffffffffffffffff168152602001908152602001600020600082825401925050819055508173ffffffffffffffffffffffffffffffffffffffff16600073ffffffffffffffffffffffffffffffffffffffff167fddf252ad1be2c89b69c2b068fc378daa952ba7f163c4a11628f55a4df523b3ef836040516200021591906200069e565b60405180910390a362000231600083836200023a60201b60201c565b5050565b505050565b505050565b600081519050919050565b7f4e487b7100000000000000000000000000000000000000000000000000000000600052604160045260246000fd5b7f4e487b7100000000000000000000000000000000000000000000000000000000600052602260045260246000fd5b60006002820490506001821680620002c157607f821691505b602082108103620002d757620002d662000279565b5b50919050565b60008190508160005260206000209050919050565b60006020601f8301049050919050565b600082821b905092915050565b600060088302620003417fffffffffffffffffffffffffffffffffffffffffffffffffffffffffffffffff8262000302565b6200034d868362000302565b95508019841693508086168417925050509392505050565b6000819050919050565b6000819050919050565b60006200039a620003946200038e8462000365565b6200036f565b62000365565b9050919050565b6000819050919050565b620003b68362000379565b620003ce620003c582620003a1565b8484546200030f565b825550505050565b600090565b620003e5620003d6565b620003f2818484620003ab565b505050565b5b818110156200041a576200040e600082620003db565b600181019050620003f8565b5050565b601f82111562000469576200043381620002dd565b6200043e84620002f2565b810160208510156200044e578190505b620004666200045d85620002f2565b830182620003f7565b50505b505050565b600082821c905092915050565b60006200048e600019846008026200046e565b1980831691505092915050565b6000620004a983836200047b565b9150826002028217905092915050565b620004c4826200023f565b67ffffffffffffffff811115620004e057620004df6200024a565b5b620004ec8254620002a8565b620004f98282856200041e565b600060209050601f8311600181146200053157600084156200051c578287015190505b6200052885826200049b565b86555062000598565b601f1984166200054186620002dd565b60005b828110156200056b5784890151825560018201915060208501945060208101905062000544565b868310156200058b578489015162000587601f8916826200047b565b8355505b6001600288020188555050505b505050505050565b600082825260208201905092915050565b7f45524332303a206d696e7420746f20746865207a65726f206164647265737300600082015250565b6000620005e9601f83620005a0565b9150620005f682620005b1565b602082019050919050565b600060208201905081810360008301526200061c81620005da565b9050919050565b7f4e487b7100000000000000000000000000000000000000000000000000000000600052601160045260246000fd5b60006200065f8262000365565b91506200066c8362000365565b925082820190508082111562000687576200068662000623565b5b92915050565b620006988162000365565b82525050565b6000602082019050620006b560008301846200068d565b92915050565b61158180620006cb6000396000f3fe608060405234801561001057600080fd5b50600436106100b45760003560e01c806342966c681161007157806342966c68146101a357806370a08231146101bf57806395d89b41146101ef578063a457c2d71461020d578063a9059cbb1461023d578063dd62ed3e1461026d576100b4565b806306fdde03146100b9578063095ea7b3146100d757806318160ddd1461010757806323b872dd14610125578063313ce567146101555780633950935114610173575b600080fd5b6100c161029d565b6040516100ce9190610d0d565b60405180910390f35b6100f160048036038101906100ec9190610dc8565b61032f565b6040516100fe9190610e23565b60405180910390f35b61010f610352565b60405161011c9190610e4d565b60405180910390f35b61013f600480360381019061013a9190610e68565b61035c565b60405161014c9190610e23565b60405180910390f35b61015d61038b565b60405161016a9190610ed7565b60405180910390f35b61018d60048036038101906101889190610dc8565b610394565b60405161019a9190610e23565b60405180910390f35b6101bd60048036038101906101b89190610ef2565b6103cb565b005b6101d960048036038101906101d49190610f1f565b6103d8565b6040516101e69190610e4d565b60405180910390f35b6101f7610420565b6040516102049190610d0d565b60405180910390f35b61022760048036038101906102229190610dc8565b6104b2565b6040516102349190610e23565b60405180910390f35b61025760048036038101906102529190610dc8565b610529565b6040516102649190610e23565b60405180910390f35b61028760048036038101906102829190610f4c565b61054c565b6040516102949190610e4d565b60405180910390f35b6060600380546102ac90610fbb565b80601f01602080910402602001604051908101604052809291908181526020018280546102d890610fbb565b80156103255780601f106102fa57610100808354040283529160200191610325565b820191906000526020600020905b81548152906001019060200180831161030857829003601f168201915b5050505050905090565b60008061033a6105d3565b90506103478185856105db565b600191505092915050565b6000600254905090565b6000806103676105d3565b90506103748582856107a4565b61037f858585610830565b60019150509392505050565b60006006905090565b60008061039f6105d3565b90506103c08185856103b1858961054c565b6103bb919061101b565b6105db565b600191505092915050565b6103d53382610aa6565b50565b60008060008373ffffffffffffffffffffffffffffffffffffffff1673ffffffffffffffffffffffffffffffffffffffff168152602001908152602001600020549050919050565b60606004805461042f90610fbb565b80601f016020809104026020016040519081016040528092919081815260200182805461045b90610fbb565b80156104a85780601f1061047d576101008083540402835291602001916104a8565b820191906000526020600020905b81548152906001019060200180831161048b57829003601f168201915b5050505050905090565b6000806104bd6105d3565b905060006104cb828661054c565b905083811015610510576040517f08c379a0000000000000000000000000000000000000000000000000000000008152600401610507906110c1565b60405180910390fd5b61051d82868684036105db565b60019250505092915050565b6000806105346105d3565b9050610541818585610830565b600191505092915050565b6000600160008473ffffffffffffffffffffffffffffffffffffffff1673ffffffffffffffffffffffffffffffffffffffff16815260200190815260200160002060008373ffffffffffffffffffffffffffffffffffffffff1673ffffffffffffffffffffffffffffffffffffffff16815260200190815260200160002054905092915050565b600033905090565b600073ffffffffffffffffffffffffffffffffffffffff168373ffffffffffffffffffffffffffffffffffffffff160361064a576040517f08c379a000000000000000000000000000000000000000000000000000000000815260040161064190611153565b60405180910390fd5b600073ffffffffffffffffffffffffffffffffffffffff168273ffffffffffffffffffffffffffffffffffffffff16036106b9576040517f08c379a00000000000000000000000000000000000000000000000000000000081526004016106b0906111e5565b60405180910390fd5b80600160008573ffffffffffffffffffffffffffffffffffffffff1673ffffffffffffffffffffffffffffffffffffffff16815260200190815260200160002060008473ffffffffffffffffffffffffffffffffffffffff1673ffffffffffffffffffffffffffffffffffffffff168152602001908152602001600020819055508173ffffffffffffffffffffffffffffffffffffffff168373ffffffffffffffffffffffffffffffffffffffff167f8c5be1e5ebec7d5bd14f71427d1e84f3dd0314c0f7b2291e5b200ac8c7c3b925836040516107979190610e4d565b60405180910390a3505050565b60006107b0848461054c565b90507fffffffffffffffffffffffffffffffffffffffffffffffffffffffffffffffff811461082a578181101561081c576040517f08c379a000000000000000000000000000000000000000000000000000000000815260040161081390611251565b60405180910390fd5b61082984848484036105db565b5b50505050565b600073ffffffffffffffffffffffffffffffffffffffff168373ffffffffffffffffffffffffffffffffffffffff160361089f576040517f08c379a0000000000000000000000000000000000000000000000000000000008152600401610896906112e3565b60405180910390fd5b600073ffffffffffffffffffffffffffffffffffffffff168273ffffffffffffffffffffffffffffffffffffffff160361090e576040517f08c379a000000000000000000000000000000000000000000000000000000000815260040161090590611375565b60405180910390fd5b610919838383610c73565b60008060008573ffffffffffffffffffffffffffffffffffffffff1673ffffffffffffffffffffffffffffffffffffffff1681526020019081526020016000205490508181101561099f576040517f08c379a000000000000000000000000000000000000000000000000000000000815260040161099690611407565b60405180910390fd5b8181036000808673ffffffffffffffffffffffffffffffffffffffff1673ffffffffffffffffffffffffffffffffffffffff16815260200190815260200160002081905550816000808573ffffffffffffffffffffffffffffffffffffffff1673ffffffffffffffffffffffffffffffffffffffff168152602001908152602001600020600082825401925050819055508273ffffffffffffffffffffffffffffffffffffffff168473ffffffffffffffffffffffffffffffffffffffff167fddf252ad1be2c89b69c2b068fc378daa952ba7f163c4a11628f55a4df523b3ef84604051610a8d9190610e4d565b60405180910390a3610aa0848484610c78565b50505050565b600073ffffffffffffffffffffffffffffffffffffffff168273ffffffffffffffffffffffffffffffffffffffff1603610b15576040517f08c379a0000000000000000000000000000000000000000000000000000000008152600401610b0c90611499565b60405180910390fd5b610b2182600083610c73565b60008060008473ffffffffffffffffffffffffffffffffffffffff1673ffffffffffffffffffffffffffffffffffffffff16815260200190815260200160002054905081811015610ba7576040517f08c379a0000000000000000000000000000000000000000000000000000000008152600401610b9e9061152b565b60405180910390fd5b8181036000808573ffffffffffffffffffffffffffffffffffffffff1673ffffffffffffffffffffffffffffffffffffffff1681526020019081526020016000208190555081600260008282540392505081905550600073ffffffffffffffffffffffffffffffffffffffff168373ffffffffffffffffffffffffffffffffffffffff167fddf252ad1be2c89b69c2b068fc378daa952ba7f163c4a11628f55a4df523b3ef84604051610c5a9190610e4d565b60405180910390a3610c6e83600084610c78565b505050565b505050565b505050565b600081519050919050565b600082825260208201905092915050565b60005b83811015610cb7578082015181840152602081019050610c9c565b60008484015250505050565b6000601f19601f8301169050919050565b6000610cdf82610c7d565b610ce98185610c88565b9350610cf9818560208601610c99565b610d0281610cc3565b840191505092915050565b60006020820190508181036000830152610d278184610cd4565b905092915050565b600080fd5b600073ffffffffffffffffffffffffffffffffffffffff82169050919050565b6000610d5f82610d34565b9050919050565b610d6f81610d54565b8114610d7a57600080fd5b50565b600081359050610d8c81610d66565b92915050565b6000819050919050565b610da581610d92565b8114610db057600080fd5b50565b600081359050610dc281610d9c565b92915050565b60008060408385031215610ddf57610dde610d2f565b5b6000610ded85828601610d7d565b9250506020610dfe85828601610db3565b9150509250929050565b60008115159050919050565b610e1d81610e08565b82525050565b6000602082019050610e386000830184610e14565b92915050565b610e4781610d92565b82525050565b6000602082019050610e626000830184610e3e565b92915050565b600080600060608486031215610e8157610e80610d2f565b5b6000610e8f86828701610d7d565b9350506020610ea086828701610d7d565b9250506040610eb186828701610db3565b9150509250925092565b600060ff82169050919050565b610ed181610ebb565b82525050565b6000602082019050610eec6000830184610ec8565b92915050565b600060208284031215610f0857610f07610d2f565b5b6000610f1684828501610db3565b91505092915050565b600060208284031215610f3557610f34610d2f565b5b6000610f4384828501610d7d565b91505092915050565b60008060408385031215610f6357610f62610d2f565b5b6000610f7185828601610d7d565b9250506020610f8285828601610d7d565b9150509250929050565b7f4e487b7100000000000000000000000000000000000000000000000000000000600052602260045260246000fd5b60006002820490506001821680610fd357607f821691505b602082108103610fe657610fe5610f8c565b5b50919050565b7f4e487b7100000000000000000000000000000000000000000000000000000000600052601160045260246000fd5b600061102682610d92565b915061103183610d92565b925082820190508082111561104957611048610fec565b5b92915050565b7f45524332303a2064656372656173656420616c6c6f77616e63652062656c6f7760008201527f207a65726f000000000000000000000000000000000000000000000000000000602082015250565b60006110ab602583610c88565b91506110b68261104f565b604082019050919050565b600060208201905081810360008301526110da8161109e565b9050919050565b7f45524332303a20617070726f76652066726f6d20746865207a65726f2061646460008201527f7265737300000000000000000000000000000000000000000000000000000000602082015250565b600061113d602483610c88565b9150611148826110e1565b604082019050919050565b6000602082019050818103600083015261116c81611130565b9050919050565b7f45524332303a20617070726f766520746f20746865207a65726f20616464726560008201527f7373000000000000000000000000000000000000000000000000000000000000602082015250565b60006111cf602283610c88565b91506111da82611173565b604082019050919050565b600060208201905081810360008301526111fe816111c2565b9050919050565b7f45524332303a20696e73756666696369656e7420616c6c6f77616e6365000000600082015250565b600061123b601d83610c88565b915061124682611205565b602082019050919050565b6000602082019050818103600083015261126a8161122e565b9050919050565b7f45524332303a207472616e736665722066726f6d20746865207a65726f20616460008201527f6472657373000000000000000000000000000000000000000000000000000000602082015250565b60006112cd602583610c88565b91506112d882611271565b604082019050919050565b600060208201905081810360008301526112fc816112c0565b9050919050565b7f45524332303a207472616e7366657220746f20746865207a65726f206164647260008201527f6573730000000000000000000000000000000000000000000000000000000000602082015250565b600061135f602383610c88565b915061136a82611303565b604082019050919050565b6000602082019050818103600083015261138e81611352565b9050919050565b7f45524332303a207472616e7366657220616d6f756e742065786365656473206260008201527f616c616e63650000000000000000000000000000000000000000000000000000602082015250565b60006113f1602683610c88565b91506113fc82611395565b604082019050919050565b60006020820190508181036000830152611420816113e4565b9050919050565b7f45524332303a206275726e2066726f6d20746865207a65726f2061646472657360008201527f7300000000000000000000000000000000000000000000000000000000000000602082015250565b6000611483602183610c88565b915061148e82611427565b604082019050919050565b600060208201905081810360008301526114b281611476565b9050919050565b7f45524332303a206275726e20616d6f756e7420657863656564732062616c616e60008201527f6365000000000000000000000000000000000000000000000000000000000000602082015250565b6000611515602283610c88565b9150611520826114b9565b604082019050919050565b6000602082019050818103600083015261154481611508565b905091905056fea2646970667358221220279cf32248ce4613bd7c19c5c9dc51e5d2af99d116a6cadd43679aea00532e3964736f6c63430008110033",
  "immutableReferences": {},
  "source": "// SPDX-License-Identifier: MIT\npragma solidity 0.8.17;\n\nimport \"@openzeppelin/contracts/token/ERC20/ERC20.sol\";\n\n// This contract is for demo purposes only\ncontract Token is ERC20 {\n    constructor () ERC20(\"Test USDT\", \"TUSDT\") {        \n        _mint(msg.sender, 1000000000 ether); //1k Millones\n    }\n\n    function burn(uint256 amount) public virtual {\n        _burn(msg.sender, amount);\n    }\n\n    function decimals() public view override returns (uint8) {\n        return 6;\n    }\n}\n",
  "sourcePath": "/Users/glenci/Xhype/src/mocks/Token.sol",
  "compiler": {
    "name": "solc",
    "version": "0.8.17+commit.8df45f5f.Emscripten.clang"
  },
  "schemaVersion": "3.4.10",
  "updatedAt": "2023-05-19T12:55:07.378Z",
  "devdoc": {
    "kind": "dev",
    "methods": {
      "allowance(address,address)": {
        "details": "See {IERC20-allowance}."
      },
      "approve(address,uint256)": {
        "details": "See {IERC20-approve}. NOTE: If `amount` is the maximum `uint256`, the allowance is not updated on `transferFrom`. This is semantically equivalent to an infinite approval. Requirements: - `spender` cannot be the zero address."
      },
      "balanceOf(address)": {
        "details": "See {IERC20-balanceOf}."
      },
      "decimals()": {
        "details": "Returns the number of decimals used to get its user representation. For example, if `decimals` equals `2`, a balance of `505` tokens should be displayed to a user as `5.05` (`505 / 10 ** 2`). Tokens usually opt for a value of 18, imitating the relationship between Ether and Wei. This is the value {ERC20} uses, unless this function is overridden; NOTE: This information is only used for _display_ purposes: it in no way affects any of the arithmetic of the contract, including {IERC20-balanceOf} and {IERC20-transfer}."
      },
      "decreaseAllowance(address,uint256)": {
        "details": "Atomically decreases the allowance granted to `spender` by the caller. This is an alternative to {approve} that can be used as a mitigation for problems described in {IERC20-approve}. Emits an {Approval} event indicating the updated allowance. Requirements: - `spender` cannot be the zero address. - `spender` must have allowance for the caller of at least `subtractedValue`."
      },
      "increaseAllowance(address,uint256)": {
        "details": "Atomically increases the allowance granted to `spender` by the caller. This is an alternative to {approve} that can be used as a mitigation for problems described in {IERC20-approve}. Emits an {Approval} event indicating the updated allowance. Requirements: - `spender` cannot be the zero address."
      },
      "name()": {
        "details": "Returns the name of the token."
      },
      "symbol()": {
        "details": "Returns the symbol of the token, usually a shorter version of the name."
      },
      "totalSupply()": {
        "details": "See {IERC20-totalSupply}."
      },
      "transfer(address,uint256)": {
        "details": "See {IERC20-transfer}. Requirements: - `to` cannot be the zero address. - the caller must have a balance of at least `amount`."
      },
      "transferFrom(address,address,uint256)": {
        "details": "See {IERC20-transferFrom}. Emits an {Approval} event indicating the updated allowance. This is not required by the EIP. See the note at the beginning of {ERC20}. NOTE: Does not update the allowance if the current allowance is the maximum `uint256`. Requirements: - `from` and `to` cannot be the zero address. - `from` must have a balance of at least `amount`. - the caller must have allowance for ``from``'s tokens of at least `amount`."
      }
    },
    "version": 1
  },
  "userdoc": {
    "kind": "user",
    "methods": {},
    "version": 1
  }
}