{
  "contractName": "XHype",
  "abi": [
    {
      "inputs": [
        {
          "internalType": "address",
          "name": "_rewardToken",
          "type": "address"
        },
        {
          "internalType": "address",
          "name": "router",
          "type": "address"
        }
      ],
      "stateMutability": "payable",
      "type": "constructor"
    },
    {
      "anonymous": false,
      "inputs": [
        {
          "indexed": true,
          "internalType": "address",
          "name": "owner",
          "type": "address"
        },
        {
          "indexed": true,
          "internalType": "address",
          "name": "spender",
          "type": "address"
        },
        {
          "indexed": false,
          "internalType": "uint256",
          "name": "value",
          "type": "uint256"
        }
      ],
      "name": "Approval",
      "type": "event"
    },
    {
      "anonymous": false,
      "inputs": [
        {
          "indexed": true,
          "internalType": "address",
          "name": "by",
          "type": "address"
        },
        {
          "indexed": false,
          "internalType": "uint256",
          "name": "dividendsDistributed",
          "type": "uint256"
        }
      ],
      "name": "DividendsDistributed",
      "type": "event"
    },
    {
      "anonymous": false,
      "inputs": [
        {
          "indexed": true,
          "internalType": "address",
          "name": "by",
          "type": "address"
        },
        {
          "indexed": false,
          "internalType": "uint256",
          "name": "fundsWithdrawn",
          "type": "uint256"
        }
      ],
      "name": "DividendsWithdrawn",
      "type": "event"
    },
    {
      "anonymous": false,
      "inputs": [
        {
          "indexed": true,
          "internalType": "address",
          "name": "account",
          "type": "address"
        },
        {
          "indexed": false,
          "internalType": "bool",
          "name": "isExcluded",
          "type": "bool"
        }
      ],
      "name": "ExcludeFromDividends",
      "type": "event"
    },
    {
      "anonymous": false,
      "inputs": [
        {
          "indexed": true,
          "internalType": "address",
          "name": "account",
          "type": "address"
        },
        {
          "indexed": false,
          "internalType": "bool",
          "name": "isExcluded",
          "type": "bool"
        }
      ],
      "name": "ExcludeFromFees",
      "type": "event"
    },
    {
      "anonymous": false,
      "inputs": [
        {
          "indexed": true,
          "internalType": "address",
          "name": "previousOwner",
          "type": "address"
        },
        {
          "indexed": true,
          "internalType": "address",
          "name": "newOwner",
          "type": "address"
        }
      ],
      "name": "OwnershipTransferred",
      "type": "event"
    },
    {
      "anonymous": false,
      "inputs": [
        {
          "indexed": false,
          "internalType": "uint256",
          "name": "amount",
          "type": "uint256"
        }
      ],
      "name": "SendDividends",
      "type": "event"
    },
    {
      "anonymous": false,
      "inputs": [
        {
          "indexed": true,
          "internalType": "address",
          "name": "from",
          "type": "address"
        },
        {
          "indexed": true,
          "internalType": "address",
          "name": "to",
          "type": "address"
        },
        {
          "indexed": false,
          "internalType": "uint256",
          "name": "value",
          "type": "uint256"
        }
      ],
      "name": "Transfer",
      "type": "event"
    },
    {
      "anonymous": false,
      "inputs": [
        {
          "indexed": false,
          "internalType": "uint256",
          "name": "buyFee",
          "type": "uint256"
        }
      ],
      "name": "UpdateBuyFee",
      "type": "event"
    },
    {
      "anonymous": false,
      "inputs": [
        {
          "indexed": false,
          "internalType": "uint256",
          "name": "sellFee",
          "type": "uint256"
        }
      ],
      "name": "UpdateSellFee",
      "type": "event"
    },
    {
      "anonymous": false,
      "inputs": [
        {
          "indexed": true,
          "internalType": "address",
          "name": "newAddress",
          "type": "address"
        }
      ],
      "name": "UpdateUniswapV2Router",
      "type": "event"
    },
    {
      "inputs": [
        {
          "internalType": "address",
          "name": "owner",
          "type": "address"
        },
        {
          "internalType": "address",
          "name": "spender",
          "type": "address"
        }
      ],
      "name": "allowance",
      "outputs": [
        {
          "internalType": "uint256",
          "name": "",
          "type": "uint256"
        }
      ],
      "stateMutability": "view",
      "type": "function"
    },
    {
      "inputs": [
        {
          "internalType": "address",
          "name": "spender",
          "type": "address"
        },
        {
          "internalType": "uint256",
          "name": "amount",
          "type": "uint256"
        }
      ],
      "name": "approve",
      "outputs": [
        {
          "internalType": "bool",
          "name": "",
          "type": "bool"
        }
      ],
      "stateMutability": "nonpayable",
      "type": "function"
    },
    {
      "inputs": [
        {
          "internalType": "address",
          "name": "account",
          "type": "address"
        }
      ],
      "name": "balanceOf",
      "outputs": [
        {
          "internalType": "uint256",
          "name": "",
          "type": "uint256"
        }
      ],
      "stateMutability": "view",
      "type": "function"
    },
    {
      "inputs": [],
      "name": "buyFee",
      "outputs": [
        {
          "internalType": "uint256",
          "name": "",
          "type": "uint256"
        }
      ],
      "stateMutability": "view",
      "type": "function"
    },
    {
      "inputs": [
        {
          "internalType": "address",
          "name": "account",
          "type": "address"
        }
      ],
      "name": "cumulativeDividendsOf",
      "outputs": [
        {
          "internalType": "uint256",
          "name": "",
          "type": "uint256"
        }
      ],
      "stateMutability": "view",
      "type": "function"
    },
    {
      "inputs": [],
      "name": "decimals",
      "outputs": [
        {
          "internalType": "uint8",
          "name": "",
          "type": "uint8"
        }
      ],
      "stateMutability": "view",
      "type": "function"
    },
    {
      "inputs": [
        {
          "internalType": "address",
          "name": "spender",
          "type": "address"
        },
        {
          "internalType": "uint256",
          "name": "subtractedValue",
          "type": "uint256"
        }
      ],
      "name": "decreaseAllowance",
      "outputs": [
        {
          "internalType": "bool",
          "name": "",
          "type": "bool"
        }
      ],
      "stateMutability": "nonpayable",
      "type": "function"
    },
    {
      "inputs": [
        {
          "internalType": "address",
          "name": "spender",
          "type": "address"
        },
        {
          "internalType": "uint256",
          "name": "addedValue",
          "type": "uint256"
        }
      ],
      "name": "increaseAllowance",
      "outputs": [
        {
          "internalType": "bool",
          "name": "",
          "type": "bool"
        }
      ],
      "stateMutability": "nonpayable",
      "type": "function"
    },
    {
      "inputs": [],
      "name": "minBalanceForDividends",
      "outputs": [
        {
          "internalType": "uint256",
          "name": "",
          "type": "uint256"
        }
      ],
      "stateMutability": "view",
      "type": "function"
    },
    {
      "inputs": [],
      "name": "name",
      "outputs": [
        {
          "internalType": "string",
          "name": "",
          "type": "string"
        }
      ],
      "stateMutability": "view",
      "type": "function"
    },
    {
      "inputs": [],
      "name": "owner",
      "outputs": [
        {
          "internalType": "address",
          "name": "",
          "type": "address"
        }
      ],
      "stateMutability": "view",
      "type": "function"
    },
    {
      "inputs": [],
      "name": "pointsPerShare",
      "outputs": [
        {
          "internalType": "uint256",
          "name": "",
          "type": "uint256"
        }
      ],
      "stateMutability": "view",
      "type": "function"
    },
    {
      "inputs": [
        {
          "internalType": "address",
          "name": "",
          "type": "address"
        }
      ],
      "name": "previousSale",
      "outputs": [
        {
          "internalType": "uint256",
          "name": "",
          "type": "uint256"
        }
      ],
      "stateMutability": "view",
      "type": "function"
    },
    {
      "inputs": [],
      "name": "renounceOwnership",
      "outputs": [],
      "stateMutability": "nonpayable",
      "type": "function"
    },
    {
      "inputs": [],
      "name": "rewardToken",
      "outputs": [
        {
          "internalType": "address",
          "name": "",
          "type": "address"
        }
      ],
      "stateMutability": "view",
      "type": "function"
    },
    {
      "inputs": [],
      "name": "sellFee",
      "outputs": [
        {
          "internalType": "uint256",
          "name": "",
          "type": "uint256"
        }
      ],
      "stateMutability": "view",
      "type": "function"
    },
    {
      "inputs": [],
      "name": "swapEnabled",
      "outputs": [
        {
          "internalType": "bool",
          "name": "",
          "type": "bool"
        }
      ],
      "stateMutability": "view",
      "type": "function"
    },
    {
      "inputs": [],
      "name": "swapTokensAtAmount",
      "outputs": [
        {
          "internalType": "uint256",
          "name": "",
          "type": "uint256"
        }
      ],
      "stateMutability": "view",
      "type": "function"
    },
    {
      "inputs": [],
      "name": "symbol",
      "outputs": [
        {
          "internalType": "string",
          "name": "",
          "type": "string"
        }
      ],
      "stateMutability": "view",
      "type": "function"
    },
    {
      "inputs": [
        {
          "internalType": "address",
          "name": "to",
          "type": "address"
        },
        {
          "internalType": "uint256",
          "name": "amount",
          "type": "uint256"
        }
      ],
      "name": "transfer",
      "outputs": [
        {
          "internalType": "bool",
          "name": "",
          "type": "bool"
        }
      ],
      "stateMutability": "nonpayable",
      "type": "function"
    },
    {
      "inputs": [
        {
          "internalType": "address",
          "name": "from",
          "type": "address"
        },
        {
          "internalType": "address",
          "name": "to",
          "type": "address"
        },
        {
          "internalType": "uint256",
          "name": "amount",
          "type": "uint256"
        }
      ],
      "name": "transferFrom",
      "outputs": [
        {
          "internalType": "bool",
          "name": "",
          "type": "bool"
        }
      ],
      "stateMutability": "nonpayable",
      "type": "function"
    },
    {
      "inputs": [
        {
          "internalType": "address",
          "name": "newOwner",
          "type": "address"
        }
      ],
      "name": "transferOwnership",
      "outputs": [],
      "stateMutability": "nonpayable",
      "type": "function"
    },
    {
      "inputs": [],
      "name": "uniswapV2Pair",
      "outputs": [
        {
          "internalType": "address",
          "name": "",
          "type": "address"
        }
      ],
      "stateMutability": "view",
      "type": "function"
    },
    {
      "inputs": [],
      "name": "uniswapV2Router",
      "outputs": [
        {
          "internalType": "contract IUniswapV2Router02",
          "name": "",
          "type": "address"
        }
      ],
      "stateMutability": "view",
      "type": "function"
    },
    {
      "inputs": [
        {
          "internalType": "address",
          "name": "",
          "type": "address"
        }
      ],
      "name": "vestedWalletsWithdrawn",
      "outputs": [
        {
          "internalType": "uint256",
          "name": "",
          "type": "uint256"
        }
      ],
      "stateMutability": "view",
      "type": "function"
    },
    {
      "inputs": [
        {
          "internalType": "address",
          "name": "account",
          "type": "address"
        }
      ],
      "name": "withdrawableDividendsOf",
      "outputs": [
        {
          "internalType": "uint256",
          "name": "",
          "type": "uint256"
        }
      ],
      "stateMutability": "view",
      "type": "function"
    },
    {
      "inputs": [
        {
          "internalType": "address",
          "name": "account",
          "type": "address"
        }
      ],
      "name": "withdrawnDividendsOf",
      "outputs": [
        {
          "internalType": "uint256",
          "name": "",
          "type": "uint256"
        }
      ],
      "stateMutability": "view",
      "type": "function"
    },
    {
      "stateMutability": "payable",
      "type": "receive"
    },
    {
      "inputs": [],
      "name": "totalSupply",
      "outputs": [
        {
          "internalType": "uint256",
          "name": "",
          "type": "uint256"
        }
      ],
      "stateMutability": "view",
      "type": "function"
    },
    {
      "inputs": [
        {
          "internalType": "address",
          "name": "_user",
          "type": "address"
        }
      ],
      "name": "getSharesOf",
      "outputs": [
        {
          "internalType": "uint256",
          "name": "",
          "type": "uint256"
        }
      ],
      "stateMutability": "view",
      "type": "function"
    },
    {
      "inputs": [],
      "name": "totalShareableSupply",
      "outputs": [
        {
          "internalType": "uint256",
          "name": "",
          "type": "uint256"
        }
      ],
      "stateMutability": "view",
      "type": "function"
    },
    {
      "inputs": [
        {
          "internalType": "address",
          "name": "newAddress",
          "type": "address"
        }
      ],
      "name": "updateUniswapV2Router",
      "outputs": [],
      "stateMutability": "nonpayable",
      "type": "function"
    },
    {
      "inputs": [
        {
          "internalType": "uint256",
          "name": "amount",
          "type": "uint256"
        }
      ],
      "name": "setMinBalanceForDividends",
      "outputs": [],
      "stateMutability": "nonpayable",
      "type": "function"
    },
    {
      "inputs": [
        {
          "internalType": "uint256",
          "name": "_startVestingDate",
          "type": "uint256"
        }
      ],
      "name": "setStartVestingDate",
      "outputs": [],
      "stateMutability": "nonpayable",
      "type": "function"
    },
    {
      "inputs": [
        {
          "internalType": "uint256",
          "name": "_percentage",
          "type": "uint256"
        }
      ],
      "name": "setTransferPercentageAllowed",
      "outputs": [],
      "stateMutability": "nonpayable",
      "type": "function"
    },
    {
      "inputs": [],
      "name": "startNukingTheWhales",
      "outputs": [],
      "stateMutability": "nonpayable",
      "type": "function"
    },
    {
      "inputs": [
        {
          "internalType": "address",
          "name": "account",
          "type": "address"
        },
        {
          "internalType": "bool",
          "name": "excluded",
          "type": "bool"
        }
      ],
      "name": "excludeFromFees",
      "outputs": [],
      "stateMutability": "nonpayable",
      "type": "function"
    },
    {
      "inputs": [
        {
          "internalType": "address",
          "name": "account",
          "type": "address"
        }
      ],
      "name": "isExcludedFromFees",
      "outputs": [
        {
          "internalType": "bool",
          "name": "",
          "type": "bool"
        }
      ],
      "stateMutability": "view",
      "type": "function"
    },
    {
      "inputs": [
        {
          "internalType": "uint256",
          "name": "_newFee",
          "type": "uint256"
        }
      ],
      "name": "updateBuyFee",
      "outputs": [],
      "stateMutability": "nonpayable",
      "type": "function"
    },
    {
      "inputs": [
        {
          "internalType": "uint256",
          "name": "_newFee",
          "type": "uint256"
        }
      ],
      "name": "updateSellFees",
      "outputs": [],
      "stateMutability": "nonpayable",
      "type": "function"
    },
    {
      "inputs": [],
      "name": "toggleSwapEnabled",
      "outputs": [],
      "stateMutability": "nonpayable",
      "type": "function"
    },
    {
      "inputs": [
        {
          "internalType": "uint256",
          "name": "newAmount",
          "type": "uint256"
        }
      ],
      "name": "setSwapTokensAtAmount",
      "outputs": [],
      "stateMutability": "nonpayable",
      "type": "function"
    },
    {
      "inputs": [
        {
          "internalType": "address",
          "name": "account",
          "type": "address"
        },
        {
          "internalType": "uint256",
          "name": "amount",
          "type": "uint256"
        },
        {
          "internalType": "uint256",
          "name": "vestingTime",
          "type": "uint256"
        },
        {
          "internalType": "bool",
          "name": "sixMonthLock",
          "type": "bool"
        }
      ],
      "name": "setVestedWallet",
      "outputs": [],
      "stateMutability": "nonpayable",
      "type": "function"
    },
    {
      "inputs": [
        {
          "internalType": "address",
          "name": "from",
          "type": "address"
        }
      ],
      "name": "getAvailableAmount",
      "outputs": [
        {
          "internalType": "uint256",
          "name": "",
          "type": "uint256"
        }
      ],
      "stateMutability": "view",
      "type": "function"
    },
    {
      "inputs": [
        {
          "internalType": "address",
          "name": "account",
          "type": "address"
        }
      ],
      "name": "excludeFromDividends",
      "outputs": [],
      "stateMutability": "nonpayable",
      "type": "function"
    },
    {
      "inputs": [
        {
          "internalType": "address",
          "name": "account",
          "type": "address"
        }
      ],
      "name": "includeInDividends",
      "outputs": [],
      "stateMutability": "nonpayable",
      "type": "function"
    },
    {
      "inputs": [],
      "name": "withdrawDividends",
      "outputs": [],
      "stateMutability": "nonpayable",
      "type": "function"
    },
    {
      "inputs": [
        {
          "internalType": "address",
          "name": "account",
          "type": "address"
        }
      ],
      "name": "getVestedWalletWithdrawn",
      "outputs": [
        {
          "internalType": "uint256",
          "name": "",
          "type": "uint256"
        }
      ],
      "stateMutability": "view",
      "type": "function"
    },
    {
      "inputs": [
        {
          "internalType": "address",
          "name": "receiver",
          "type": "address"
        }
      ],
      "name": "withdrawBalance",
      "outputs": [],
      "stateMutability": "nonpayable",
      "type": "function"
    },
    {
      "inputs": [
        {
          "internalType": "address",
          "name": "token",
          "type": "address"
        }
      ],
      "name": "claimStuckTokens",
      "outputs": [],
      "stateMutability": "nonpayable",
      "type": "function"
    }
  ],
  "bytecode": "0x60e060405260056009556008600a556b033b2e3c9fd0803ce8000000600b5561dead600c60006101000a81548173ffffffffffffffffffffffffffffffffffffffff021916908373ffffffffffffffffffffffffffffffffffffffff160217905550683635c9adc5dea000006011556000601c60006101000a81548160ff0219169083151502179055506005601f556040516200824c3803806200824c8339818101604052810190620000b3919062001b41565b6200109b60201b62002508176200113760201b6200235a176040518060400160405280600581526020017f58487970650000000000000000000000000000000000000000000000000000008152506040518060400160405280600381526020017f5848500000000000000000000000000000000000000000000000000000000000815250816003908162000148919062001e02565b5080600490816200015a919062001e02565b5050508167ffffffffffffffff1660808167ffffffffffffffff16815250508067ffffffffffffffff1660a08167ffffffffffffffff16815250505050620001b7620001ab620011e660201b60201c565b620011ee60201b60201c565b8173ffffffffffffffffffffffffffffffffffffffff1660c08173ffffffffffffffffffffffffffffffffffffffff1681525050600081905060008173ffffffffffffffffffffffffffffffffffffffff1663c45a01556040518163ffffffff1660e01b8152600401602060405180830381865afa1580156200023e573d6000803e3d6000fd5b505050506040513d601f19601f8201168201806040525081019062000264919062001ee9565b73ffffffffffffffffffffffffffffffffffffffff1663c9c65396308473ffffffffffffffffffffffffffffffffffffffff1663ad5c46486040518163ffffffff1660e01b8152600401602060405180830381865afa158015620002cc573d6000803e3d6000fd5b505050506040513d601f19601f82011682018060405250810190620002f2919062001ee9565b6040518363ffffffff1660e01b81526004016200031192919062001f2c565b6020604051808303816000875af115801562000331573d6000803e3d6000fd5b505050506040513d601f19601f8201168201806040525081019062000357919062001ee9565b905081600d60006101000a81548173ffffffffffffffffffffffffffffffffffffffff021916908373ffffffffffffffffffffffffffffffffffffffff16021790555080600e60006101000a81548173ffffffffffffffffffffffffffffffffffffffff021916908373ffffffffffffffffffffffffffffffffffffffff160217905550600160136000620003f1620012b460201b60201c565b73ffffffffffffffffffffffffffffffffffffffff1673ffffffffffffffffffffffffffffffffffffffff16815260200190815260200160002060006101000a81548160ff021916908315150217905550601462000454620012b460201b60201c565b9080600181540180825580915050600190039060005260206000200160009091909190916101000a81548173ffffffffffffffffffffffffffffffffffffffff021916908373ffffffffffffffffffffffffffffffffffffffff1602179055506001601360003073ffffffffffffffffffffffffffffffffffffffff1673ffffffffffffffffffffffffffffffffffffffff16815260200190815260200160002060006101000a81548160ff0219169083151502179055506014309080600181540180825580915050600190039060005260206000200160009091909190916101000a81548173ffffffffffffffffffffffffffffffffffffffff021916908373ffffffffffffffffffffffffffffffffffffffff160217905550600160136000600c60009054906101000a900473ffffffffffffffffffffffffffffffffffffffff1673ffffffffffffffffffffffffffffffffffffffff1673ffffffffffffffffffffffffffffffffffffffff16815260200190815260200160002060006101000a81548160ff0219169083151502179055506014600c60009054906101000a900473ffffffffffffffffffffffffffffffffffffffff169080600181540180825580915050600190039060005260206000200160009091909190916101000a81548173ffffffffffffffffffffffffffffffffffffffff021916908373ffffffffffffffffffffffffffffffffffffffff1602179055506001601360008373ffffffffffffffffffffffffffffffffffffffff1673ffffffffffffffffffffffffffffffffffffffff16815260200190815260200160002060006101000a81548160ff0219169083151502179055506014819080600181540180825580915050600190039060005260206000200160009091909190916101000a81548173ffffffffffffffffffffffffffffffffffffffff021916908373ffffffffffffffffffffffffffffffffffffffff1602179055506001601360008473ffffffffffffffffffffffffffffffffffffffff1673ffffffffffffffffffffffffffffffffffffffff16815260200190815260200160002060006101000a81548160ff0219169083151502179055506014829080600181540180825580915050600190039060005260206000200160009091909190916101000a81548173ffffffffffffffffffffffffffffffffffffffff021916908373ffffffffffffffffffffffffffffffffffffffff160217905550600160136000734aeb644a9a035e5e0b354ea4b463d1c0e8e79cf973ffffffffffffffffffffffffffffffffffffffff1673ffffffffffffffffffffffffffffffffffffffff16815260200190815260200160002060006101000a81548160ff0219169083151502179055506014734aeb644a9a035e5e0b354ea4b463d1c0e8e79cf99080600181540180825580915050600190039060005260206000200160009091909190916101000a81548173ffffffffffffffffffffffffffffffffffffffff021916908373ffffffffffffffffffffffffffffffffffffffff160217905550600160136000733ab47f80a046d2a4d92a5c229fe93fa6708aeb1373ffffffffffffffffffffffffffffffffffffffff1673ffffffffffffffffffffffffffffffffffffffff16815260200190815260200160002060006101000a81548160ff0219169083151502179055506014733ab47f80a046d2a4d92a5c229fe93fa6708aeb139080600181540180825580915050600190039060005260206000200160009091909190916101000a81548173ffffffffffffffffffffffffffffffffffffffff021916908373ffffffffffffffffffffffffffffffffffffffff160217905550600160136000731767c992c70ab29fbe9194f4d8160c373b6d7ed873ffffffffffffffffffffffffffffffffffffffff1673ffffffffffffffffffffffffffffffffffffffff16815260200190815260200160002060006101000a81548160ff0219169083151502179055506014731767c992c70ab29fbe9194f4d8160c373b6d7ed89080600181540180825580915050600190039060005260206000200160009091909190916101000a81548173ffffffffffffffffffffffffffffffffffffffff021916908373ffffffffffffffffffffffffffffffffffffffff16021790555060016013600073e24bfb419f5c0eda8660d53452212cf0c87e415173ffffffffffffffffffffffffffffffffffffffff1673ffffffffffffffffffffffffffffffffffffffff16815260200190815260200160002060006101000a81548160ff021916908315150217905550601473e24bfb419f5c0eda8660d53452212cf0c87e41519080600181540180825580915050600190039060005260206000200160009091909190916101000a81548173ffffffffffffffffffffffffffffffffffffffff021916908373ffffffffffffffffffffffffffffffffffffffff16021790555060016013600073f949709f80dec4d9e2420c0e6a98081f13fff36873ffffffffffffffffffffffffffffffffffffffff1673ffffffffffffffffffffffffffffffffffffffff16815260200190815260200160002060006101000a81548160ff021916908315150217905550601473f949709f80dec4d9e2420c0e6a98081f13fff3689080600181540180825580915050600190039060005260206000200160009091909190916101000a81548173ffffffffffffffffffffffffffffffffffffffff021916908373ffffffffffffffffffffffffffffffffffffffff160217905550600160136000739dbe36b089451aaeff495824bb507ed0902f564473ffffffffffffffffffffffffffffffffffffffff1673ffffffffffffffffffffffffffffffffffffffff16815260200190815260200160002060006101000a81548160ff0219169083151502179055506014739dbe36b089451aaeff495824bb507ed0902f56449080600181540180825580915050600190039060005260206000200160009091909190916101000a81548173ffffffffffffffffffffffffffffffffffffffff021916908373ffffffffffffffffffffffffffffffffffffffff16021790555060016013600073ad064a0827214234e228b9213af52e5e6457e4c073ffffffffffffffffffffffffffffffffffffffff1673ffffffffffffffffffffffffffffffffffffffff16815260200190815260200160002060006101000a81548160ff021916908315150217905550601473ad064a0827214234e228b9213af52e5e6457e4c09080600181540180825580915050600190039060005260206000200160009091909190916101000a81548173ffffffffffffffffffffffffffffffffffffffff021916908373ffffffffffffffffffffffffffffffffffffffff160217905550600160136000734f931e269402cfa2cb998ef3402c7897da7bd1db73ffffffffffffffffffffffffffffffffffffffff1673ffffffffffffffffffffffffffffffffffffffff16815260200190815260200160002060006101000a81548160ff0219169083151502179055506014734f931e269402cfa2cb998ef3402c7897da7bd1db9080600181540180825580915050600190039060005260206000200160009091909190916101000a81548173ffffffffffffffffffffffffffffffffffffffff021916908373ffffffffffffffffffffffffffffffffffffffff16021790555060016015600062000f12620012b460201b60201c565b73ffffffffffffffffffffffffffffffffffffffff1673ffffffffffffffffffffffffffffffffffffffff16815260200190815260200160002060006101000a81548160ff0219169083151502179055506001601560003073ffffffffffffffffffffffffffffffffffffffff1673ffffffffffffffffffffffffffffffffffffffff16815260200190815260200160002060006101000a81548160ff021916908315150217905550600160156000600c60009054906101000a900473ffffffffffffffffffffffffffffffffffffffff1673ffffffffffffffffffffffffffffffffffffffff1673ffffffffffffffffffffffffffffffffffffffff16815260200190815260200160002060006101000a81548160ff0219169083151502179055506001601060006101000a81548160ff02191690831515021790555069021e19e0c9bab2400000600f819055506200109162001075620012b460201b60201c565b62001085620012de60201b60201c565b620012e860201b60201c565b5050505062002275565b6000601360008373ffffffffffffffffffffffffffffffffffffffff1673ffffffffffffffffffffffffffffffffffffffff16815260200190815260200160002060009054906101000a900460ff1615620010fa576000905062001132565b6011546200110e836200145560201b60201c565b10156200111d5760006200112f565b6200112e826200145560201b60201c565b5b90505b919050565b60008060005b601480549050811015620011c2576200119d6014828154811062001166576200116562001f59565b5b9060005260206000200160009054906101000a900473ffffffffffffffffffffffffffffffffffffffff166200145560201b60201c565b82620011aa919062001fb7565b91508080620011b99062001ff2565b9150506200113d565b5080620011d4620012de60201b60201c565b620011e091906200203f565b91505090565b600033905090565b6000600860009054906101000a900473ffffffffffffffffffffffffffffffffffffffff16905081600860006101000a81548173ffffffffffffffffffffffffffffffffffffffff021916908373ffffffffffffffffffffffffffffffffffffffff1602179055508173ffffffffffffffffffffffffffffffffffffffff168173ffffffffffffffffffffffffffffffffffffffff167f8be0079c531659141344cd1fd0a4f28419497f9722a3daafe3b4186f6b6457e060405160405180910390a35050565b6000600860009054906101000a900473ffffffffffffffffffffffffffffffffffffffff16905090565b6000600b54905090565b600073ffffffffffffffffffffffffffffffffffffffff168273ffffffffffffffffffffffffffffffffffffffff16036200135a576040517f08c379a00000000000000000000000000000000000000000000000000000000081526004016200135190620020db565b60405180910390fd5b6200136e600083836200149d60201b60201c565b806002600082825462001382919062001fb7565b92505081905550806000808473ffffffffffffffffffffffffffffffffffffffff1673ffffffffffffffffffffffffffffffffffffffff168152602001908152602001600020600082825401925050819055508173ffffffffffffffffffffffffffffffffffffffff16600073ffffffffffffffffffffffffffffffffffffffff167fddf252ad1be2c89b69c2b068fc378daa952ba7f163c4a11628f55a4df523b3ef836040516200143591906200210e565b60405180910390a362001451600083836200154c60201b60201c565b5050565b60008060008373ffffffffffffffffffffffffffffffffffffffff1673ffffffffffffffffffffffffffffffffffffffff168152602001908152602001600020549050919050565b601a60008473ffffffffffffffffffffffffffffffffffffffff1673ffffffffffffffffffffffffffffffffffffffff16815260200190815260200160002060009054906101000a900460ff161562001547576200150183620015fd60201b60201c565b81111562001546576040517f08c379a00000000000000000000000000000000000000000000000000000000081526004016200153d90620021a1565b60405180910390fd5b5b505050565b601a60008473ffffffffffffffffffffffffffffffffffffffff1673ffffffffffffffffffffffffffffffffffffffff16815260200190815260200160002060009054906101000a900460ff1615620015f85780601b60008573ffffffffffffffffffffffffffffffffffffffff1673ffffffffffffffffffffffffffffffffffffffff1681526020019081526020016000206000828254620015f0919062001fb7565b925050819055505b505050565b6000601a60008373ffffffffffffffffffffffffffffffffffffffff1673ffffffffffffffffffffffffffffffffffffffff16815260200190815260200160002060009054906101000a900460ff166200166a5762001662826200145560201b60201c565b905062001946565b6000601860008473ffffffffffffffffffffffffffffffffffffffff1673ffffffffffffffffffffffffffffffffffffffff1681526020019081526020016000205411156200175e576200175682601860008573ffffffffffffffffffffffffffffffffffffffff1673ffffffffffffffffffffffffffffffffffffffff168152602001908152602001600020546303c26700601960008773ffffffffffffffffffffffffffffffffffffffff1673ffffffffffffffffffffffffffffffffffffffff16815260200190815260200160002060009054906101000a900460ff166200194b60201b60201c565b905062001946565b6000601760008473ffffffffffffffffffffffffffffffffffffffff1673ffffffffffffffffffffffffffffffffffffffff16815260200190815260200160002054111562001852576200184a82601760008573ffffffffffffffffffffffffffffffffffffffff1673ffffffffffffffffffffffffffffffffffffffff168152602001908152602001600020546301e13380601960008773ffffffffffffffffffffffffffffffffffffffff1673ffffffffffffffffffffffffffffffffffffffff16815260200190815260200160002060009054906101000a900460ff166200194b60201b60201c565b905062001946565b6000601660008473ffffffffffffffffffffffffffffffffffffffff1673ffffffffffffffffffffffffffffffffffffffff16815260200190815260200160002054111562001945576200193d82601660008573ffffffffffffffffffffffffffffffffffffffff1673ffffffffffffffffffffffffffffffffffffffff168152602001908152602001600020546276a700601960008773ffffffffffffffffffffffffffffffffffffffff1673ffffffffffffffffffffffffffffffffffffffff16815260200190815260200160002060009054906101000a900460ff166200194b60201b60201c565b905062001946565b5b919050565b6000816200195b57600062001960565b62ed4e005b62ffffff1660125462001974919062001fb7565b42101562001986576000905062001acf565b42601960008773ffffffffffffffffffffffffffffffffffffffff1673ffffffffffffffffffffffffffffffffffffffff16815260200190815260200160002060009054906101000a900460ff16620019e1576000620019e6565b62ed4e005b62ffffff1684601254620019fb919062001fb7565b62001a07919062001fb7565b1162001a265762001a1e856200145560201b60201c565b905062001acf565b6000838562001a369190620021f2565b905060008362001a4857600062001a4d565b62ed4e005b62ffffff1660125462001a61919062001fb7565b4262001a6e91906200203f565b9050601b60008873ffffffffffffffffffffffffffffffffffffffff1673ffffffffffffffffffffffffffffffffffffffff16815260200190815260200160002054828262001abe91906200222a565b62001aca91906200203f565b925050505b949350505050565b600080fd5b600073ffffffffffffffffffffffffffffffffffffffff82169050919050565b600062001b098262001adc565b9050919050565b62001b1b8162001afc565b811462001b2757600080fd5b50565b60008151905062001b3b8162001b10565b92915050565b6000806040838503121562001b5b5762001b5a62001ad7565b5b600062001b6b8582860162001b2a565b925050602062001b7e8582860162001b2a565b9150509250929050565b600081519050919050565b7f4e487b7100000000000000000000000000000000000000000000000000000000600052604160045260246000fd5b7f4e487b7100000000000000000000000000000000000000000000000000000000600052602260045260246000fd5b6000600282049050600182168062001c0a57607f821691505b60208210810362001c205762001c1f62001bc2565b5b50919050565b60008190508160005260206000209050919050565b60006020601f8301049050919050565b600082821b905092915050565b60006008830262001c8a7fffffffffffffffffffffffffffffffffffffffffffffffffffffffffffffffff8262001c4b565b62001c96868362001c4b565b95508019841693508086168417925050509392505050565b6000819050919050565b6000819050919050565b600062001ce362001cdd62001cd78462001cae565b62001cb8565b62001cae565b9050919050565b6000819050919050565b62001cff8362001cc2565b62001d1762001d0e8262001cea565b84845462001c58565b825550505050565b600090565b62001d2e62001d1f565b62001d3b81848462001cf4565b505050565b5b8181101562001d635762001d5760008262001d24565b60018101905062001d41565b5050565b601f82111562001db25762001d7c8162001c26565b62001d878462001c3b565b8101602085101562001d97578190505b62001daf62001da68562001c3b565b83018262001d40565b50505b505050565b600082821c905092915050565b600062001dd76000198460080262001db7565b1980831691505092915050565b600062001df2838362001dc4565b9150826002028217905092915050565b62001e0d8262001b88565b67ffffffffffffffff81111562001e295762001e2862001b93565b5b62001e35825462001bf1565b62001e4282828562001d67565b600060209050601f83116001811462001e7a576000841562001e65578287015190505b62001e71858262001de4565b86555062001ee1565b601f19841662001e8a8662001c26565b60005b8281101562001eb45784890151825560018201915060208501945060208101905062001e8d565b8683101562001ed4578489015162001ed0601f89168262001dc4565b8355505b6001600288020188555050505b505050505050565b60006020828403121562001f025762001f0162001ad7565b5b600062001f128482850162001b2a565b91505092915050565b62001f268162001afc565b82525050565b600060408201905062001f43600083018562001f1b565b62001f52602083018462001f1b565b9392505050565b7f4e487b7100000000000000000000000000000000000000000000000000000000600052603260045260246000fd5b7f4e487b7100000000000000000000000000000000000000000000000000000000600052601160045260246000fd5b600062001fc48262001cae565b915062001fd18362001cae565b925082820190508082111562001fec5762001feb62001f88565b5b92915050565b600062001fff8262001cae565b91507fffffffffffffffffffffffffffffffffffffffffffffffffffffffffffffffff820362002034576200203362001f88565b5b600182019050919050565b60006200204c8262001cae565b9150620020598362001cae565b925082820390508181111562002074576200207362001f88565b5b92915050565b600082825260208201905092915050565b7f45524332303a206d696e7420746f20746865207a65726f206164647265737300600082015250565b6000620020c3601f836200207a565b9150620020d0826200208b565b602082019050919050565b60006020820190508181036000830152620020f681620020b4565b9050919050565b620021088162001cae565b82525050565b6000602082019050620021256000830184620020fd565b92915050565b7f43616e277420757365206d6f7265207468616e20617661696c61626c6520616d60008201527f6f756e7400000000000000000000000000000000000000000000000000000000602082015250565b6000620021896024836200207a565b915062002196826200212b565b604082019050919050565b60006020820190508181036000830152620021bc816200217a565b9050919050565b7f4e487b7100000000000000000000000000000000000000000000000000000000600052601260045260246000fd5b6000620021ff8262001cae565b91506200220c8362001cae565b9250826200221f576200221e620021c3565b5b828204905092915050565b6000620022378262001cae565b9150620022448362001cae565b9250828202620022548162001cae565b915082820484148315176200226e576200226d62001f88565b5b5092915050565b60805160a05160c051615f84620022c8600039600081816111a4015281816126ae0152818161274801528181613ff80152818161406901526141ca015260006142bb01526000610cf90152615f846000f3fe6080604052600436106102b25760003560e01c8063756af45f11610175578063b131e610116100dc578063e2f4560511610095578063f2fde38b1161006f578063f2fde38b14610b07578063f55d09a714610b30578063f7c618c114610b59578063f9d0831a14610b84576102b9565b8063e2f4560514610a76578063eba4c33314610aa1578063ee85348e14610aca576102b9565b8063b131e61014610942578063c02466681461097f578063c0f306ef146109a8578063c12614cd146109d1578063d8e56bc014610a0e578063dd62ed3e14610a39576102b9565b806396e0eb951161012e57806396e0eb95146108345780639d7ceafb1461085f578063a457c2d714610888578063a83ac89b146108c5578063a9059cbb146108dc578063afa4f3b214610919576102b9565b8063756af45f146107245780637e245d791461074d57806383cd10ff146107785780638da5cb5b146107a15780639267f61c146107cc57806395d89b4114610809576102b9565b8063395093511161021957806353f83ad7116101d257806353f83ad7146106285780635ef460221461066557806365b8dbc01461067c5780636ddd1713146106a557806370a08231146106d0578063715018a61461070d576102b9565b806339509351146104f2578063467abe0a1461052f578063470624021461055857806349bd5a5e146105835780634fbee193146105ae5780634fe038fc146105eb576102b9565b806323b872dd1161026b57806323b872dd146103f657806323bdf021146104335780632b14ca561461045c5780632e92abdd14610487578063313ce5671461049e57806331e79db0146104c9576102b9565b806306fdde03146102be578063095ea7b3146102e95780631694505e1461032657806318160ddd146103515780631a60b63d1461037c5780631f3a71ba146103b9576102b9565b366102b957005b600080fd5b3480156102ca57600080fd5b506102d3610bad565b6040516102e0919061445d565b60405180910390f35b3480156102f557600080fd5b50610310600480360381019061030b9190614518565b610c3f565b60405161031d9190614573565b60405180910390f35b34801561033257600080fd5b5061033b610c62565b60405161034891906145ed565b60405180910390f35b34801561035d57600080fd5b50610366610c88565b6040516103739190614617565b60405180910390f35b34801561038857600080fd5b506103a3600480360381019061039e9190614632565b610c92565b6040516103b09190614617565b60405180910390f35b3480156103c557600080fd5b506103e060048036038101906103db9190614632565b610d5a565b6040516103ed9190614617565b60405180910390f35b34801561040257600080fd5b5061041d6004803603810190610418919061465f565b611080565b60405161042a9190614573565b60405180910390f35b34801561043f57600080fd5b5061045a600480360381019061045591906146b2565b6110af565b005b34801561046857600080fd5b50610471611149565b60405161047e9190614617565b60405180910390f35b34801561049357600080fd5b5061049c61114f565b005b3480156104aa57600080fd5b506104b361121b565b6040516104c091906146fb565b60405180910390f35b3480156104d557600080fd5b506104f060048036038101906104eb9190614632565b611224565b005b3480156104fe57600080fd5b5061051960048036038101906105149190614518565b6113c6565b6040516105269190614573565b60405180910390f35b34801561053b57600080fd5b50610556600480360381019061055191906146b2565b6113fd565b005b34801561056457600080fd5b5061056d61148c565b60405161057a9190614617565b60405180910390f35b34801561058f57600080fd5b50610598611492565b6040516105a59190614725565b60405180910390f35b3480156105ba57600080fd5b506105d560048036038101906105d09190614632565b6114b8565b6040516105e29190614573565b60405180910390f35b3480156105f757600080fd5b50610612600480360381019061060d9190614632565b61150e565b60405161061f9190614617565b60405180910390f35b34801561063457600080fd5b5061064f600480360381019061064a9190614632565b611557565b60405161065c9190614617565b60405180910390f35b34801561067157600080fd5b5061067a6115a0565b005b34801561068857600080fd5b506106a3600480360381019061069e9190614632565b6115d4565b005b3480156106b157600080fd5b506106ba6118d7565b6040516106c79190614573565b60405180910390f35b3480156106dc57600080fd5b506106f760048036038101906106f29190614632565b6118ea565b6040516107049190614617565b60405180910390f35b34801561071957600080fd5b50610722611932565b005b34801561073057600080fd5b5061074b60048036038101906107469190614632565b611946565b005b34801561075957600080fd5b5061076261199e565b60405161076f9190614617565b60405180910390f35b34801561078457600080fd5b5061079f600480360381019061079a919061476c565b6119a4565b005b3480156107ad57600080fd5b506107b6611c7a565b6040516107c39190614725565b60405180910390f35b3480156107d857600080fd5b506107f360048036038101906107ee9190614632565b611ca4565b6040516108009190614617565b60405180910390f35b34801561081557600080fd5b5061081e611cbc565b60405161082b919061445d565b60405180910390f35b34801561084057600080fd5b50610849611d4e565b6040516108569190614617565b60405180910390f35b34801561086b57600080fd5b50610886600480360381019061088191906146b2565b611d54565b005b34801561089457600080fd5b506108af60048036038101906108aa9190614518565b611da9565b6040516108bc9190614573565b60405180910390f35b3480156108d157600080fd5b506108da611e20565b005b3480156108e857600080fd5b5061090360048036038101906108fe9190614518565b611e45565b6040516109109190614573565b60405180910390f35b34801561092557600080fd5b50610940600480360381019061093b91906146b2565b611e68565b005b34801561094e57600080fd5b5061096960048036038101906109649190614632565b611ed1565b6040516109769190614617565b60405180910390f35b34801561098b57600080fd5b506109a660048036038101906109a191906147d3565b611f34565b005b3480156109b457600080fd5b506109cf60048036038101906109ca9190614632565b612077565b005b3480156109dd57600080fd5b506109f860048036038101906109f39190614632565b612342565b604051610a059190614617565b60405180910390f35b348015610a1a57600080fd5b50610a2361235a565b604051610a309190614617565b60405180910390f35b348015610a4557600080fd5b50610a606004803603810190610a5b9190614813565b6123ee565b604051610a6d9190614617565b60405180910390f35b348015610a8257600080fd5b50610a8b612475565b604051610a989190614617565b60405180910390f35b348015610aad57600080fd5b50610ac86004803603810190610ac391906146b2565b61247b565b005b348015610ad657600080fd5b50610af16004803603810190610aec9190614632565b612508565b604051610afe9190614617565b60405180910390f35b348015610b1357600080fd5b50610b2e6004803603810190610b299190614632565b612590565b005b348015610b3c57600080fd5b50610b576004803603810190610b5291906146b2565b612613565b005b348015610b6557600080fd5b50610b6e6126ac565b604051610b7b9190614725565b60405180910390f35b348015610b9057600080fd5b50610bab6004803603810190610ba69190614632565b6126d0565b005b606060038054610bbc90614882565b80601f0160208091040260200160405190810160405280929190818152602001828054610be890614882565b8015610c355780601f10610c0a57610100808354040283529160200191610c35565b820191906000526020600020905b815481529060010190602001808311610c1857829003601f168201915b5050505050905090565b600080610c4a612867565b9050610c5781858561286f565b600191505092915050565b600d60009054906101000a900473ffffffffffffffffffffffffffffffffffffffff1681565b6000600b54905090565b60006fffffffffffffffffffffffffffffffff8016610d49610d44600660008673ffffffffffffffffffffffffffffffffffffffff1673ffffffffffffffffffffffffffffffffffffffff16815260200190815260200160002054610d36610d31610d20887f000000000000000000000000000000000000000000000000000000000000000063ffffffff16565b600554612a3890919063ffffffff16565b612a6f565b612aa590919063ffffffff16565b612abb565b610d539190614911565b9050919050565b6000601a60008373ffffffffffffffffffffffffffffffffffffffff1673ffffffffffffffffffffffffffffffffffffffff16815260200190815260200160002060009054906101000a900460ff16610dbd57610db6826118ea565b905061107b565b6000601860008473ffffffffffffffffffffffffffffffffffffffff1673ffffffffffffffffffffffffffffffffffffffff168152602001908152602001600020541115610ea757610ea082601860008573ffffffffffffffffffffffffffffffffffffffff1673ffffffffffffffffffffffffffffffffffffffff168152602001908152602001600020546303c26700601960008773ffffffffffffffffffffffffffffffffffffffff1673ffffffffffffffffffffffffffffffffffffffff16815260200190815260200160002060009054906101000a900460ff16612ad2565b905061107b565b6000601760008473ffffffffffffffffffffffffffffffffffffffff1673ffffffffffffffffffffffffffffffffffffffff168152602001908152602001600020541115610f9157610f8a82601760008573ffffffffffffffffffffffffffffffffffffffff1673ffffffffffffffffffffffffffffffffffffffff168152602001908152602001600020546301e13380601960008773ffffffffffffffffffffffffffffffffffffffff1673ffffffffffffffffffffffffffffffffffffffff16815260200190815260200160002060009054906101000a900460ff16612ad2565b905061107b565b6000601660008473ffffffffffffffffffffffffffffffffffffffff1673ffffffffffffffffffffffffffffffffffffffff16815260200190815260200160002054111561107a5761107382601660008573ffffffffffffffffffffffffffffffffffffffff1673ffffffffffffffffffffffffffffffffffffffff168152602001908152602001600020546276a700601960008773ffffffffffffffffffffffffffffffffffffffff1673ffffffffffffffffffffffffffffffffffffffff16815260200190815260200160002060009054906101000a900460ff16612ad2565b905061107b565b5b919050565b60008061108b612867565b9050611098858285612c3c565b6110a3858585612cc8565b60019150509392505050565b6110b76133db565b600081116110fa576040517f08c379a00000000000000000000000000000000000000000000000000000000081526004016110f19061498e565b60405180910390fd5b6103e881111561113f576040517f08c379a000000000000000000000000000000000000000000000000000000000815260040161113690614a20565b60405180910390fd5b80601f8190555050565b600a5481565b600061115a33613459565b90506000811161119f576040517f08c379a000000000000000000000000000000000000000000000000000000000815260040161119690614a8c565b60405180910390fd5b6111ca7f0000000000000000000000000000000000000000000000000000000000000000338361355d565b3373ffffffffffffffffffffffffffffffffffffffff167f08d688a92fc311df9b853769e8a99b320411042a86f106fd29e7f21ee06e79da826040516112109190614617565b60405180910390a250565b60006012905090565b61122c6133db565b601360008273ffffffffffffffffffffffffffffffffffffffff1673ffffffffffffffffffffffffffffffffffffffff16815260200190815260200160002060009054906101000a900460ff16156112b9576040517f08c379a00000000000000000000000000000000000000000000000000000000081526004016112b090614af8565b60405180910390fd5b6001601360008373ffffffffffffffffffffffffffffffffffffffff1673ffffffffffffffffffffffffffffffffffffffff16815260200190815260200160002060006101000a81548160ff0219169083151502179055506014819080600181540180825580915050600190039060005260206000200160009091909190916101000a81548173ffffffffffffffffffffffffffffffffffffffff021916908373ffffffffffffffffffffffffffffffffffffffff1602179055508073ffffffffffffffffffffffffffffffffffffffff167fa3c7c11b2e12c4144b09a7813f3393ba646392788638998c97be8da908cf04be60016040516113bb9190614573565b60405180910390a250565b6000806113d1612867565b90506113f28185856113e385896123ee565b6113ed9190614b18565b61286f565b600191505092915050565b6114056133db565b600f811115611449576040517f08c379a000000000000000000000000000000000000000000000000000000000815260040161144090614b98565b60405180910390fd5b806009819055507fa480a3a15a511fbdc37ae77ae3f490e03ab3688adde11456ce779e6c1e0abaa26009546040516114819190614617565b60405180910390a150565b60095481565b600e60009054906101000a900473ffffffffffffffffffffffffffffffffffffffff1681565b6000601560008373ffffffffffffffffffffffffffffffffffffffff1673ffffffffffffffffffffffffffffffffffffffff16815260200190815260200160002060009054906101000a900460ff169050919050565b6000601b60008373ffffffffffffffffffffffffffffffffffffffff1673ffffffffffffffffffffffffffffffffffffffff168152602001908152602001600020549050919050565b6000600760008373ffffffffffffffffffffffffffffffffffffffff1673ffffffffffffffffffffffffffffffffffffffff168152602001908152602001600020549050919050565b6115a86133db565b601060009054906101000a900460ff1615601060006101000a81548160ff021916908315150217905550565b6115dc6133db565b600d60009054906101000a900473ffffffffffffffffffffffffffffffffffffffff1673ffffffffffffffffffffffffffffffffffffffff168173ffffffffffffffffffffffffffffffffffffffff160361166c576040517f08c379a000000000000000000000000000000000000000000000000000000000815260040161166390614c2a565b60405180910390fd5b8073ffffffffffffffffffffffffffffffffffffffff167f0c36f1f3a0f38cd9563b52fb110cc5b0fa22c509defc16728a6a42f1bddad22960405160405180910390a280600d60006101000a81548173ffffffffffffffffffffffffffffffffffffffff021916908373ffffffffffffffffffffffffffffffffffffffff1602179055506000600d60009054906101000a900473ffffffffffffffffffffffffffffffffffffffff1673ffffffffffffffffffffffffffffffffffffffff1663c45a01556040518163ffffffff1660e01b8152600401602060405180830381865afa15801561175f573d6000803e3d6000fd5b505050506040513d601f19601f820116820180604052508101906117839190614c5f565b73ffffffffffffffffffffffffffffffffffffffff1663c9c6539630600d60009054906101000a900473ffffffffffffffffffffffffffffffffffffffff1673ffffffffffffffffffffffffffffffffffffffff1663ad5c46486040518163ffffffff1660e01b8152600401602060405180830381865afa15801561180c573d6000803e3d6000fd5b505050506040513d601f19601f820116820180604052508101906118309190614c5f565b6040518363ffffffff1660e01b815260040161184d929190614c8c565b6020604051808303816000875af115801561186c573d6000803e3d6000fd5b505050506040513d601f19601f820116820180604052508101906118909190614c5f565b905080600e60006101000a81548173ffffffffffffffffffffffffffffffffffffffff021916908373ffffffffffffffffffffffffffffffffffffffff1602179055505050565b601060009054906101000a900460ff1681565b60008060008373ffffffffffffffffffffffffffffffffffffffff1673ffffffffffffffffffffffffffffffffffffffff168152602001908152602001600020549050919050565b61193a6133db565b6119446000613693565b565b61194e6133db565b60004711611991576040517f08c379a000000000000000000000000000000000000000000000000000000000815260040161198890614a8c565b60405180910390fd5b61199b8147613759565b50565b60055481565b6119ac6133db565b60038214806119bb5750600c82145b806119c65750601882145b611a05576040517f08c379a00000000000000000000000000000000000000000000000000000000081526004016119fc90614d01565b60405180910390fd5b6000611a10856118ea565b14611a50576040517f08c379a0000000000000000000000000000000000000000000000000000000008152600401611a4790614d6d565b60405180910390fd5b601a60008573ffffffffffffffffffffffffffffffffffffffff1673ffffffffffffffffffffffffffffffffffffffff16815260200190815260200160002060009054906101000a900460ff1615611add576040517f08c379a0000000000000000000000000000000000000000000000000000000008152600401611ad490614dd9565b60405180910390fd5b60038203611b2e5782601660008673ffffffffffffffffffffffffffffffffffffffff1673ffffffffffffffffffffffffffffffffffffffff16815260200190815260200160002081905550611bc5565b600c8203611b7f5782601760008673ffffffffffffffffffffffffffffffffffffffff1673ffffffffffffffffffffffffffffffffffffffff16815260200190815260200160002081905550611bc4565b82601860008673ffffffffffffffffffffffffffffffffffffffff1673ffffffffffffffffffffffffffffffffffffffff168152602001908152602001600020819055505b5b80601960008673ffffffffffffffffffffffffffffffffffffffff1673ffffffffffffffffffffffffffffffffffffffff16815260200190815260200160002060006101000a81548160ff0219169083151502179055506001601a60008673ffffffffffffffffffffffffffffffffffffffff1673ffffffffffffffffffffffffffffffffffffffff16815260200190815260200160002060006101000a81548160ff02191690831515021790555050505050565b6000600860009054906101000a900473ffffffffffffffffffffffffffffffffffffffff16905090565b601e6020528060005260406000206000915090505481565b606060048054611ccb90614882565b80601f0160208091040260200160405190810160405280929190818152602001828054611cf790614882565b8015611d445780601f10611d1957610100808354040283529160200191611d44565b820191906000526020600020905b815481529060010190602001808311611d2757829003601f168201915b5050505050905090565b60115481565b611d5c6133db565b60008111611d9f576040517f08c379a0000000000000000000000000000000000000000000000000000000008152600401611d9690614e45565b60405180910390fd5b8060118190555050565b600080611db4612867565b90506000611dc282866123ee565b905083811015611e07576040517f08c379a0000000000000000000000000000000000000000000000000000000008152600401611dfe90614ed7565b60405180910390fd5b611e14828686840361286f565b60019250505092915050565b611e286133db565b6001601c60006101000a81548160ff021916908315150217905550565b600080611e50612867565b9050611e5d818585612cc8565b600191505092915050565b611e706133db565b620f4240611e7c610c88565b611e869190614911565b8111611ec7576040517f08c379a0000000000000000000000000000000000000000000000000000000008152600401611ebe90614f69565b60405180910390fd5b80600f8190555050565b6000611f2d600760008473ffffffffffffffffffffffffffffffffffffffff1673ffffffffffffffffffffffffffffffffffffffff16815260200190815260200160002054611f1f84610c92565b61385990919063ffffffff16565b9050919050565b611f3c6133db565b801515601560008473ffffffffffffffffffffffffffffffffffffffff1673ffffffffffffffffffffffffffffffffffffffff16815260200190815260200160002060009054906101000a900460ff16151503611fce576040517f08c379a0000000000000000000000000000000000000000000000000000000008152600401611fc590614ffb565b60405180910390fd5b80601560008473ffffffffffffffffffffffffffffffffffffffff1673ffffffffffffffffffffffffffffffffffffffff16815260200190815260200160002060006101000a81548160ff0219169083151502179055508173ffffffffffffffffffffffffffffffffffffffff167f9d8f7706ea1113d1a167b526eca956215946dd36cc7df39eb16180222d8b5df78260405161206b9190614573565b60405180910390a25050565b61207f6133db565b601360008273ffffffffffffffffffffffffffffffffffffffff1673ffffffffffffffffffffffffffffffffffffffff16815260200190815260200160002060009054906101000a900460ff1661210b576040517f08c379a000000000000000000000000000000000000000000000000000000000815260040161210290615067565b60405180910390fd5b60005b6014805490508110156122ef578173ffffffffffffffffffffffffffffffffffffffff166014828154811061214657612145615087565b5b9060005260206000200160009054906101000a900473ffffffffffffffffffffffffffffffffffffffff1673ffffffffffffffffffffffffffffffffffffffff16036122dc57601460016014805490506121a091906150b6565b815481106121b1576121b0615087565b5b9060005260206000200160009054906101000a900473ffffffffffffffffffffffffffffffffffffffff16601482815481106121f0576121ef615087565b5b9060005260206000200160006101000a81548173ffffffffffffffffffffffffffffffffffffffff021916908373ffffffffffffffffffffffffffffffffffffffff1602179055506000601360008473ffffffffffffffffffffffffffffffffffffffff1673ffffffffffffffffffffffffffffffffffffffff16815260200190815260200160002060006101000a81548160ff02191690831515021790555060148054806122a2576122a16150ea565b5b6001900381819060005260206000200160006101000a81549073ffffffffffffffffffffffffffffffffffffffff021916905590556122ef565b80806122e790615119565b91505061210e565b508073ffffffffffffffffffffffffffffffffffffffff167fa3c7c11b2e12c4144b09a7813f3393ba646392788638998c97be8da908cf04be60006040516123379190614573565b60405180910390a250565b601b6020528060005260406000206000915090505481565b60008060005b6014805490508110156123d4576123b46014828154811061238457612383615087565b5b9060005260206000200160009054906101000a900473ffffffffffffffffffffffffffffffffffffffff166118ea565b826123bf9190614b18565b915080806123cc90615119565b915050612360565b50806123de610c88565b6123e891906150b6565b91505090565b6000600160008473ffffffffffffffffffffffffffffffffffffffff1673ffffffffffffffffffffffffffffffffffffffff16815260200190815260200160002060008373ffffffffffffffffffffffffffffffffffffffff1673ffffffffffffffffffffffffffffffffffffffff16815260200190815260200160002054905092915050565b600f5481565b6124836133db565b600f8111156124c7576040517f08c379a00000000000000000000000000000000000000000000000000000000081526004016124be906151ad565b60405180910390fd5b80600a819055507f7d59573ec4acab62b908b5c1cde109eb12273d011506abaa850256636a42d54a816040516124fd9190614617565b60405180910390a150565b6000601360008373ffffffffffffffffffffffffffffffffffffffff1673ffffffffffffffffffffffffffffffffffffffff16815260200190815260200160002060009054906101000a900460ff1615612565576000905061258b565b601154612571836118ea565b101561257e576000612588565b612587826118ea565b5b90505b919050565b6125986133db565b600073ffffffffffffffffffffffffffffffffffffffff168173ffffffffffffffffffffffffffffffffffffffff1603612607576040517f08c379a00000000000000000000000000000000000000000000000000000000081526004016125fe9061523f565b60405180910390fd5b61261081613693565b50565b61261b6133db565b600060125414612660576040517f08c379a0000000000000000000000000000000000000000000000000000000008152600401612657906152d1565b60405180910390fd5b4281116126a2576040517f08c379a00000000000000000000000000000000000000000000000000000000081526004016126999061533d565b60405180910390fd5b8060128190555050565b7f000000000000000000000000000000000000000000000000000000000000000081565b6126d86133db565b3073ffffffffffffffffffffffffffffffffffffffff168173ffffffffffffffffffffffffffffffffffffffff1603612746576040517f08c379a000000000000000000000000000000000000000000000000000000000815260040161273d906153a9565b60405180910390fd5b7f000000000000000000000000000000000000000000000000000000000000000073ffffffffffffffffffffffffffffffffffffffff168173ffffffffffffffffffffffffffffffffffffffff16036127d4576040517f08c379a00000000000000000000000000000000000000000000000000000000081526004016127cb9061543b565b60405180910390fd5b600081905060008173ffffffffffffffffffffffffffffffffffffffff166370a08231306040518263ffffffff1660e01b81526004016128149190614725565b602060405180830381865afa158015612831573d6000803e3d6000fd5b505050506040513d601f19601f820116820180604052508101906128559190615470565b905061286283338361355d565b505050565b600033905090565b600073ffffffffffffffffffffffffffffffffffffffff168373ffffffffffffffffffffffffffffffffffffffff16036128de576040517f08c379a00000000000000000000000000000000000000000000000000000000081526004016128d59061550f565b60405180910390fd5b600073ffffffffffffffffffffffffffffffffffffffff168273ffffffffffffffffffffffffffffffffffffffff160361294d576040517f08c379a0000000000000000000000000000000000000000000000000000000008152600401612944906155a1565b60405180910390fd5b80600160008573ffffffffffffffffffffffffffffffffffffffff1673ffffffffffffffffffffffffffffffffffffffff16815260200190815260200160002060008473ffffffffffffffffffffffffffffffffffffffff1673ffffffffffffffffffffffffffffffffffffffff168152602001908152602001600020819055508173ffffffffffffffffffffffffffffffffffffffff168373ffffffffffffffffffffffffffffffffffffffff167f8c5be1e5ebec7d5bd14f71427d1e84f3dd0314c0f7b2291e5b200ac8c7c3b92583604051612a2b9190614617565b60405180910390a3505050565b600080831480612a60575081838385612a5191906155c1565b925082612a5e9190614911565b145b612a6957600080fd5b92915050565b60007f80000000000000000000000000000000000000000000000000000000000000008210612a9d57600080fd5b819050919050565b60008183612ab3919061560d565b905092915050565b600080821215612aca57600080fd5b819050919050565b600081612ae0576000612ae5565b62ed4e005b62ffffff16601254612af79190614b18565b421015612b075760009050612c34565b42601960008773ffffffffffffffffffffffffffffffffffffffff1673ffffffffffffffffffffffffffffffffffffffff16815260200190815260200160002060009054906101000a900460ff16612b60576000612b65565b62ed4e005b62ffffff1684601254612b789190614b18565b612b829190614b18565b11612b9757612b90856118ea565b9050612c34565b60008385612ba59190614911565b9050600083612bb5576000612bba565b62ed4e005b62ffffff16601254612bcc9190614b18565b42612bd791906150b6565b9050601b60008873ffffffffffffffffffffffffffffffffffffffff1673ffffffffffffffffffffffffffffffffffffffff168152602001908152602001600020548282612c2591906155c1565b612c2f91906150b6565b925050505b949350505050565b6000612c4884846123ee565b90507fffffffffffffffffffffffffffffffffffffffffffffffffffffffffffffffff8114612cc25781811015612cb4576040517f08c379a0000000000000000000000000000000000000000000000000000000008152600401612cab9061569d565b60405180910390fd5b612cc1848484840361286f565b5b50505050565b600073ffffffffffffffffffffffffffffffffffffffff168373ffffffffffffffffffffffffffffffffffffffff1603612d37576040517f08c379a0000000000000000000000000000000000000000000000000000000008152600401612d2e9061572f565b60405180910390fd5b600073ffffffffffffffffffffffffffffffffffffffff168273ffffffffffffffffffffffffffffffffffffffff1603612da6576040517f08c379a0000000000000000000000000000000000000000000000000000000008152600401612d9d906157c1565b60405180910390fd5b60008103612dbf57612dba8383600061387c565b6133d6565b601c60009054906101000a900460ff168015612e255750601d60008473ffffffffffffffffffffffffffffffffffffffff1673ffffffffffffffffffffffffffffffffffffffff16815260200190815260200160002060009054906101000a900460ff16155b156130da57612e32611c7a565b73ffffffffffffffffffffffffffffffffffffffff168373ffffffffffffffffffffffffffffffffffffffff1614158015612ea05750612e70611c7a565b73ffffffffffffffffffffffffffffffffffffffff168273ffffffffffffffffffffffffffffffffffffffff1614155b15612f0a576103e8601f54612eb3610c88565b612ebd91906155c1565b612ec79190614911565b811115612f09576040517f08c379a0000000000000000000000000000000000000000000000000000000008152600401612f0090615853565b60405180910390fd5b5b600e60009054906101000a900473ffffffffffffffffffffffffffffffffffffffff1673ffffffffffffffffffffffffffffffffffffffff168273ffffffffffffffffffffffffffffffffffffffff161480612fb35750600d60009054906101000a900473ffffffffffffffffffffffffffffffffffffffff1673ffffffffffffffffffffffffffffffffffffffff168273ffffffffffffffffffffffffffffffffffffffff16145b156130d9576000612fc3846118ea565b905060006103e86005612fd4610c88565b612fde91906155c1565b612fe89190614911565b9050808211156130d65760004290506005836130049190614911565b8410613045576040517f08c379a000000000000000000000000000000000000000000000000000000000815260040161303c9061590b565b60405180910390fd5b62015180601e60008873ffffffffffffffffffffffffffffffffffffffff1673ffffffffffffffffffffffffffffffffffffffff168152602001908152602001600020548261309491906150b6565b116130d4576040517f08c379a00000000000000000000000000000000000000000000000000000000081526004016130cb9061599d565b60405180910390fd5b505b50505b5b60006130e5306118ea565b90506000600f548210159050601060009054906101000a900460ff16801561310a5750805b80156131235750601060019054906101000a900460ff16155b15613168576001601060016101000a81548160ff02191690831515021790555061314c82613af2565b6000601060016101000a81548160ff0219169083151502179055505b6000601060019054906101000a900460ff16159050601560008773ffffffffffffffffffffffffffffffffffffffff1673ffffffffffffffffffffffffffffffffffffffff16815260200190815260200160002060009054906101000a900460ff168061321e5750601560008673ffffffffffffffffffffffffffffffffffffffff1673ffffffffffffffffffffffffffffffffffffffff16815260200190815260200160002060009054906101000a900460ff165b1561322857600090505b600e60009054906101000a900473ffffffffffffffffffffffffffffffffffffffff1673ffffffffffffffffffffffffffffffffffffffff168673ffffffffffffffffffffffffffffffffffffffff16141580156132d45750600e60009054906101000a900473ffffffffffffffffffffffffffffffffffffffff1673ffffffffffffffffffffffffffffffffffffffff168573ffffffffffffffffffffffffffffffffffffffff1614155b156132de57600090505b80156133c7576000600e60009054906101000a900473ffffffffffffffffffffffffffffffffffffffff1673ffffffffffffffffffffffffffffffffffffffff168773ffffffffffffffffffffffffffffffffffffffff160361334557600954905061338f565b600a54905042601e60008973ffffffffffffffffffffffffffffffffffffffff1673ffffffffffffffffffffffffffffffffffffffff168152602001908152602001600020819055505b60006064828761339f91906155c1565b6133a99190614911565b905080866133b791906150b6565b95506133c488308361387c565b50505b6133d286868661387c565b5050505b505050565b6133e3612867565b73ffffffffffffffffffffffffffffffffffffffff16613401611c7a565b73ffffffffffffffffffffffffffffffffffffffff1614613457576040517f08c379a000000000000000000000000000000000000000000000000000000000815260040161344e90615a09565b60405180910390fd5b565b60008061346583611ed1565b90506000811115613554576134c281600760008673ffffffffffffffffffffffffffffffffffffffff1673ffffffffffffffffffffffffffffffffffffffff16815260200190815260200160002054613d5590919063ffffffff16565b600760008573ffffffffffffffffffffffffffffffffffffffff1673ffffffffffffffffffffffffffffffffffffffff168152602001908152602001600020819055508273ffffffffffffffffffffffffffffffffffffffff167f08d688a92fc311df9b853769e8a99b320411042a86f106fd29e7f21ee06e79da8260405161354b9190614617565b60405180910390a25b80915050919050565b6000808473ffffffffffffffffffffffffffffffffffffffff1663a9059cbb858560405160240161358f929190615a29565b6040516020818303038152906040529060e01b6020820180517bffffffffffffffffffffffffffffffffffffffffffffffffffffffff83818316178352505050506040516135dd9190615a99565b6000604051808303816000865af19150503d806000811461361a576040519150601f19603f3d011682016040523d82523d6000602084013e61361f565b606091505b509150915081801561364d575060008151148061364c57508080602001905181019061364b9190615ac5565b5b5b61368c576040517f08c379a000000000000000000000000000000000000000000000000000000000815260040161368390615b3e565b60405180910390fd5b5050505050565b6000600860009054906101000a900473ffffffffffffffffffffffffffffffffffffffff16905081600860006101000a81548173ffffffffffffffffffffffffffffffffffffffff021916908373ffffffffffffffffffffffffffffffffffffffff1602179055508173ffffffffffffffffffffffffffffffffffffffff168173ffffffffffffffffffffffffffffffffffffffff167f8be0079c531659141344cd1fd0a4f28419497f9722a3daafe3b4186f6b6457e060405160405180910390a35050565b60008273ffffffffffffffffffffffffffffffffffffffff1682600067ffffffffffffffff81111561378e5761378d615b5e565b5b6040519080825280601f01601f1916602001820160405280156137c05781602001600182028036833780820191505090505b506040516137ce9190615a99565b60006040518083038185875af1925050503d806000811461380b576040519150601f19603f3d011682016040523d82523d6000602084013e613810565b606091505b5050905080613854576040517f08c379a000000000000000000000000000000000000000000000000000000000815260040161384b90615bff565b60405180910390fd5b505050565b600082828461386891906150b6565b915081111561387657600080fd5b92915050565b600073ffffffffffffffffffffffffffffffffffffffff168373ffffffffffffffffffffffffffffffffffffffff16036138eb576040517f08c379a00000000000000000000000000000000000000000000000000000000081526004016138e29061572f565b60405180910390fd5b600073ffffffffffffffffffffffffffffffffffffffff168273ffffffffffffffffffffffffffffffffffffffff160361395a576040517f08c379a0000000000000000000000000000000000000000000000000000000008152600401613951906157c1565b60405180910390fd5b613965838383613d78565b60008060008573ffffffffffffffffffffffffffffffffffffffff1673ffffffffffffffffffffffffffffffffffffffff168152602001908152602001600020549050818110156139eb576040517f08c379a00000000000000000000000000000000000000000000000000000000081526004016139e290615c91565b60405180910390fd5b8181036000808673ffffffffffffffffffffffffffffffffffffffff1673ffffffffffffffffffffffffffffffffffffffff16815260200190815260200160002081905550816000808573ffffffffffffffffffffffffffffffffffffffff1673ffffffffffffffffffffffffffffffffffffffff168152602001908152602001600020600082825401925050819055508273ffffffffffffffffffffffffffffffffffffffff168473ffffffffffffffffffffffffffffffffffffffff167fddf252ad1be2c89b69c2b068fc378daa952ba7f163c4a11628f55a4df523b3ef84604051613ad99190614617565b60405180910390a3613aec848484613e1b565b50505050565b6000600267ffffffffffffffff811115613b0f57613b0e615b5e565b5b604051908082528060200260200182016040528015613b3d5781602001602082028036833780820191505090505b5090503081600081518110613b5557613b54615087565b5b602002602001019073ffffffffffffffffffffffffffffffffffffffff16908173ffffffffffffffffffffffffffffffffffffffff1681525050600d60009054906101000a900473ffffffffffffffffffffffffffffffffffffffff1673ffffffffffffffffffffffffffffffffffffffff1663ad5c46486040518163ffffffff1660e01b8152600401602060405180830381865afa158015613bfc573d6000803e3d6000fd5b505050506040513d601f19601f82011682018060405250810190613c209190614c5f565b81600181518110613c3457613c33615087565b5b602002602001019073ffffffffffffffffffffffffffffffffffffffff16908173ffffffffffffffffffffffffffffffffffffffff16815250506000479050613ca030600d60009054906101000a900473ffffffffffffffffffffffffffffffffffffffff168561286f565b600d60009054906101000a900473ffffffffffffffffffffffffffffffffffffffff1673ffffffffffffffffffffffffffffffffffffffff1663791ac9478460008530426040518663ffffffff1660e01b8152600401613d04959493929190615daa565b600060405180830381600087803b158015613d1e57600080fd5b505af1158015613d32573d6000803e3d6000fd5b5050505060008147613d4491906150b6565b9050613d4f81613ec9565b50505050565b6000828284613d649190614b18565b9150811015613d7257600080fd5b92915050565b601a60008473ffffffffffffffffffffffffffffffffffffffff1673ffffffffffffffffffffffffffffffffffffffff16815260200190815260200160002060009054906101000a900460ff1615613e1657613dd383610d5a565b811115613e15576040517f08c379a0000000000000000000000000000000000000000000000000000000008152600401613e0c90615e76565b60405180910390fd5b5b505050565b601a60008473ffffffffffffffffffffffffffffffffffffffff1673ffffffffffffffffffffffffffffffffffffffff16815260200190815260200160002060009054906101000a900460ff1615613ec45780601b60008573ffffffffffffffffffffffffffffffffffffffff1673ffffffffffffffffffffffffffffffffffffffff1681526020019081526020016000206000828254613ebc9190614b18565b925050819055505b505050565b6000600267ffffffffffffffff811115613ee657613ee5615b5e565b5b604051908082528060200260200182016040528015613f145781602001602082028036833780820191505090505b509050600d60009054906101000a900473ffffffffffffffffffffffffffffffffffffffff1673ffffffffffffffffffffffffffffffffffffffff1663ad5c46486040518163ffffffff1660e01b8152600401602060405180830381865afa158015613f84573d6000803e3d6000fd5b505050506040513d601f19601f82011682018060405250810190613fa89190614c5f565b81600081518110613fbc57613fbb615087565b5b602002602001019073ffffffffffffffffffffffffffffffffffffffff16908173ffffffffffffffffffffffffffffffffffffffff16815250507f00000000000000000000000000000000000000000000000000000000000000008160018151811061402b5761402a615087565b5b602002602001019073ffffffffffffffffffffffffffffffffffffffff16908173ffffffffffffffffffffffffffffffffffffffff168152505060007f000000000000000000000000000000000000000000000000000000000000000073ffffffffffffffffffffffffffffffffffffffff166370a08231306040518263ffffffff1660e01b81526004016140c09190614725565b602060405180830381865afa1580156140dd573d6000803e3d6000fd5b505050506040513d601f19601f820116820180604052508101906141019190615470565b905061413030600d60009054906101000a900473ffffffffffffffffffffffffffffffffffffffff168561286f565b600d60009054906101000a900473ffffffffffffffffffffffffffffffffffffffff1673ffffffffffffffffffffffffffffffffffffffff1663b6f9de958460008530426040518663ffffffff1660e01b81526004016141939493929190615e96565b6000604051808303818588803b1580156141ac57600080fd5b505af11580156141c0573d6000803e3d6000fd5b50505050506000817f000000000000000000000000000000000000000000000000000000000000000073ffffffffffffffffffffffffffffffffffffffff166370a08231306040518263ffffffff1660e01b81526004016142219190614725565b602060405180830381865afa15801561423e573d6000803e3d6000fd5b505050506040513d601f19601f820116820180604052508101906142629190615470565b61426c91906150b6565b9050614277816142b4565b7fb0cc2628d6d644cf6be9d8110e142297ac910d6d8026d795a99f272fd9ad60b1816040516142a69190614617565b60405180910390a150505050565b60006142e27f000000000000000000000000000000000000000000000000000000000000000063ffffffff16565b905060008111614327576040517f08c379a000000000000000000000000000000000000000000000000000000000815260040161431e90615f2e565b60405180910390fd5b60008211156143c957614374816143596fffffffffffffffffffffffffffffffff801685612a3890919063ffffffff16565b6143639190614911565b600554613d5590919063ffffffff16565b6005819055503373ffffffffffffffffffffffffffffffffffffffff167fa493a9229478c3fcd73f66d2cdeb7f94fd0f341da924d1054236d78454116511836040516143c09190614617565b60405180910390a25b5050565b600081519050919050565b600082825260208201905092915050565b60005b838110156144075780820151818401526020810190506143ec565b60008484015250505050565b6000601f19601f8301169050919050565b600061442f826143cd565b61443981856143d8565b93506144498185602086016143e9565b61445281614413565b840191505092915050565b600060208201905081810360008301526144778184614424565b905092915050565b600080fd5b600073ffffffffffffffffffffffffffffffffffffffff82169050919050565b60006144af82614484565b9050919050565b6144bf816144a4565b81146144ca57600080fd5b50565b6000813590506144dc816144b6565b92915050565b6000819050919050565b6144f5816144e2565b811461450057600080fd5b50565b600081359050614512816144ec565b92915050565b6000806040838503121561452f5761452e61447f565b5b600061453d858286016144cd565b925050602061454e85828601614503565b9150509250929050565b60008115159050919050565b61456d81614558565b82525050565b60006020820190506145886000830184614564565b92915050565b6000819050919050565b60006145b36145ae6145a984614484565b61458e565b614484565b9050919050565b60006145c582614598565b9050919050565b60006145d7826145ba565b9050919050565b6145e7816145cc565b82525050565b600060208201905061460260008301846145de565b92915050565b614611816144e2565b82525050565b600060208201905061462c6000830184614608565b92915050565b6000602082840312156146485761464761447f565b5b6000614656848285016144cd565b91505092915050565b6000806000606084860312156146785761467761447f565b5b6000614686868287016144cd565b9350506020614697868287016144cd565b92505060406146a886828701614503565b9150509250925092565b6000602082840312156146c8576146c761447f565b5b60006146d684828501614503565b91505092915050565b600060ff82169050919050565b6146f5816146df565b82525050565b600060208201905061471060008301846146ec565b92915050565b61471f816144a4565b82525050565b600060208201905061473a6000830184614716565b92915050565b61474981614558565b811461475457600080fd5b50565b60008135905061476681614740565b92915050565b600080600080608085870312156147865761478561447f565b5b6000614794878288016144cd565b94505060206147a587828801614503565b93505060406147b687828801614503565b92505060606147c787828801614757565b91505092959194509250565b600080604083850312156147ea576147e961447f565b5b60006147f8858286016144cd565b925050602061480985828601614757565b9150509250929050565b6000806040838503121561482a5761482961447f565b5b6000614838858286016144cd565b9250506020614849858286016144cd565b9150509250929050565b7f4e487b7100000000000000000000000000000000000000000000000000000000600052602260045260246000fd5b6000600282049050600182168061489a57607f821691505b6020821081036148ad576148ac614853565b5b50919050565b7f4e487b7100000000000000000000000000000000000000000000000000000000600052601260045260246000fd5b7f4e487b7100000000000000000000000000000000000000000000000000000000600052601160045260246000fd5b600061491c826144e2565b9150614927836144e2565b925082614937576149366148b3565b5b828204905092915050565b7f50657263656e746167652063616e277420626520300000000000000000000000600082015250565b60006149786015836143d8565b915061498382614942565b602082019050919050565b600060208201905081810360008301526149a78161496b565b9050919050565b7f50657263656e746167652063616e2774206265206d6f7265207468616e20313060008201527f3030000000000000000000000000000000000000000000000000000000000000602082015250565b6000614a0a6022836143d8565b9150614a15826149ae565b604082019050919050565b60006020820190508181036000830152614a39816149fd565b9050919050565b7f4e6f7468696e6720746f20776974686472617700000000000000000000000000600082015250565b6000614a766013836143d8565b9150614a8182614a40565b602082019050919050565b60006020820190508181036000830152614aa581614a69565b9050919050565b7f4163636f756e7420697320616c7265616479206578636c756465640000000000600082015250565b6000614ae2601b836143d8565b9150614aed82614aac565b602082019050919050565b60006020820190508181036000830152614b1181614ad5565b9050919050565b6000614b23826144e2565b9150614b2e836144e2565b9250828201905080821115614b4657614b456148e2565b5b92915050565b7f466565206d757374206265206c657373207468616e2031352500000000000000600082015250565b6000614b826019836143d8565b9150614b8d82614b4c565b602082019050919050565b60006020820190508181036000830152614bb181614b75565b9050919050565b7f54686520726f7574657220616c7265616479206861732074686174206164647260008201527f6573730000000000000000000000000000000000000000000000000000000000602082015250565b6000614c146023836143d8565b9150614c1f82614bb8565b604082019050919050565b60006020820190508181036000830152614c4381614c07565b9050919050565b600081519050614c59816144b6565b92915050565b600060208284031215614c7557614c7461447f565b5b6000614c8384828501614c4a565b91505092915050565b6000604082019050614ca16000830185614716565b614cae6020830184614716565b9392505050565b7f56657374696e672074696d65206e6f7420616c6c6f7765640000000000000000600082015250565b6000614ceb6018836143d8565b9150614cf682614cb5565b602082019050919050565b60006020820190508181036000830152614d1a81614cde565b9050919050565b7f43616e27742076657374206163636f756e7420776974682062616c616e636500600082015250565b6000614d57601f836143d8565b9150614d6282614d21565b602082019050919050565b60006020820190508181036000830152614d8681614d4a565b9050919050565b7f57616c6c657420697320616c7265616479207665737465640000000000000000600082015250565b6000614dc36018836143d8565b9150614dce82614d8d565b602082019050919050565b60006020820190508181036000830152614df281614db6565b9050919050565b7f43616e2774206265203000000000000000000000000000000000000000000000600082015250565b6000614e2f600a836143d8565b9150614e3a82614df9565b602082019050919050565b60006020820190508181036000830152614e5e81614e22565b9050919050565b7f45524332303a2064656372656173656420616c6c6f77616e63652062656c6f7760008201527f207a65726f000000000000000000000000000000000000000000000000000000602082015250565b6000614ec16025836143d8565b9150614ecc82614e65565b604082019050919050565b60006020820190508181036000830152614ef081614eb4565b9050919050565b7f4e657720416d6f756e74206d757374206265206d6f7265207468616e20302e3060008201527f30303125206f6620746f74616c20737570706c79000000000000000000000000602082015250565b6000614f536034836143d8565b9150614f5e82614ef7565b604082019050919050565b60006020820190508181036000830152614f8281614f46565b9050919050565b7f4163636f756e7420697320616c7265616479207468652076616c7565206f662060008201527f276578636c756465642700000000000000000000000000000000000000000000602082015250565b6000614fe5602a836143d8565b9150614ff082614f89565b604082019050919050565b6000602082019050818103600083015261501481614fd8565b9050919050565b7f4163636f756e7420697320616c726561647920696e636c756465640000000000600082015250565b6000615051601b836143d8565b915061505c8261501b565b602082019050919050565b6000602082019050818103600083015261508081615044565b9050919050565b7f4e487b7100000000000000000000000000000000000000000000000000000000600052603260045260246000fd5b60006150c1826144e2565b91506150cc836144e2565b92508282039050818111156150e4576150e36148e2565b5b92915050565b7f4e487b7100000000000000000000000000000000000000000000000000000000600052603160045260246000fd5b6000615124826144e2565b91507fffffffffffffffffffffffffffffffffffffffffffffffffffffffffffffffff8203615156576151556148e2565b5b600182019050919050565b7f46656573206d757374206265206c657373207468616e20313525000000000000600082015250565b6000615197601a836143d8565b91506151a282615161565b602082019050919050565b600060208201905081810360008301526151c68161518a565b9050919050565b7f4f776e61626c653a206e6577206f776e657220697320746865207a65726f206160008201527f6464726573730000000000000000000000000000000000000000000000000000602082015250565b60006152296026836143d8565b9150615234826151cd565b604082019050919050565b600060208201905081810360008301526152588161521c565b9050919050565b7f537461727420646174652063616e20626520736574746564206f6e6c79206f6e60008201527f6365000000000000000000000000000000000000000000000000000000000000602082015250565b60006152bb6022836143d8565b91506152c68261525f565b604082019050919050565b600060208201905081810360008301526152ea816152ae565b9050919050565b7f53746172742064617465206d75737420626520696e2074686520667574757265600082015250565b60006153276020836143d8565b9150615332826152f1565b602082019050919050565b600060208201905081810360008301526153568161531a565b9050919050565b7f4f776e65722063616e6e6f7420636c61696d206e617469766520746f6b656e73600082015250565b60006153936020836143d8565b915061539e8261535d565b602082019050919050565b600060208201905081810360008301526153c281615386565b9050919050565b7f4f776e65722063616e6e6f7420636c61696d207265776172647320746f6b656e60008201527f7300000000000000000000000000000000000000000000000000000000000000602082015250565b60006154256021836143d8565b9150615430826153c9565b604082019050919050565b6000602082019050818103600083015261545481615418565b9050919050565b60008151905061546a816144ec565b92915050565b6000602082840312156154865761548561447f565b5b60006154948482850161545b565b91505092915050565b7f45524332303a20617070726f76652066726f6d20746865207a65726f2061646460008201527f7265737300000000000000000000000000000000000000000000000000000000602082015250565b60006154f96024836143d8565b91506155048261549d565b604082019050919050565b60006020820190508181036000830152615528816154ec565b9050919050565b7f45524332303a20617070726f766520746f20746865207a65726f20616464726560008201527f7373000000000000000000000000000000000000000000000000000000000000602082015250565b600061558b6022836143d8565b91506155968261552f565b604082019050919050565b600060208201905081810360008301526155ba8161557e565b9050919050565b60006155cc826144e2565b91506155d7836144e2565b92508282026155e5816144e2565b915082820484148315176155fc576155fb6148e2565b5b5092915050565b6000819050919050565b600061561882615603565b915061562383615603565b92508282019050828112156000831216838212600084121516171561564b5761564a6148e2565b5b92915050565b7f45524332303a20696e73756666696369656e7420616c6c6f77616e6365000000600082015250565b6000615687601d836143d8565b915061569282615651565b602082019050919050565b600060208201905081810360008301526156b68161567a565b9050919050565b7f45524332303a207472616e736665722066726f6d20746865207a65726f20616460008201527f6472657373000000000000000000000000000000000000000000000000000000602082015250565b60006157196025836143d8565b9150615724826156bd565b604082019050919050565b600060208201905081810360008301526157488161570c565b9050919050565b7f45524332303a207472616e7366657220746f20746865207a65726f206164647260008201527f6573730000000000000000000000000000000000000000000000000000000000602082015250565b60006157ab6023836143d8565b91506157b68261574f565b604082019050919050565b600060208201905081810360008301526157da8161579e565b9050919050565b7f5472616e7366657220616d6f756e742065786365656473206d6178207065726d60008201527f6974746564000000000000000000000000000000000000000000000000000000602082015250565b600061583d6025836143d8565b9150615848826157e1565b604082019050919050565b6000602082019050818103600083015261586c81615830565b9050919050565b7f466f7220796f75722070726f74656374696f6e2c206d61782073656c6c20697360008201527f2032302520696620796f7520686f6c6420302e3525206f72206d6f7265206f6660208201527f20737570706c792e000000000000000000000000000000000000000000000000604082015250565b60006158f56048836143d8565b915061590082615873565b606082019050919050565b60006020820190508181036000830152615924816158e8565b9050919050565b7f596f75206d757374207761697420612066756c6c20646179206265666f72652060008201527f796f75206d61792073656c6c20616761696e2e00000000000000000000000000602082015250565b60006159876033836143d8565b91506159928261592b565b604082019050919050565b600060208201905081810360008301526159b68161597a565b9050919050565b7f4f776e61626c653a2063616c6c6572206973206e6f7420746865206f776e6572600082015250565b60006159f36020836143d8565b91506159fe826159bd565b602082019050919050565b60006020820190508181036000830152615a22816159e6565b9050919050565b6000604082019050615a3e6000830185614716565b615a4b6020830184614608565b9392505050565b600081519050919050565b600081905092915050565b6000615a7382615a52565b615a7d8185615a5d565b9350615a8d8185602086016143e9565b80840191505092915050565b6000615aa58284615a68565b915081905092915050565b600081519050615abf81614740565b92915050565b600060208284031215615adb57615ada61447f565b5b6000615ae984828501615ab0565b91505092915050565b7f5472616e7366657248656c7065723a205452414e534645525f4641494c454400600082015250565b6000615b28601f836143d8565b9150615b3382615af2565b602082019050919050565b60006020820190508181036000830152615b5781615b1b565b9050919050565b7f4e487b7100000000000000000000000000000000000000000000000000000000600052604160045260246000fd5b7f5472616e7366657248656c7065723a204554485f5452414e534645525f46414960008201527f4c45440000000000000000000000000000000000000000000000000000000000602082015250565b6000615be96023836143d8565b9150615bf482615b8d565b604082019050919050565b60006020820190508181036000830152615c1881615bdc565b9050919050565b7f45524332303a207472616e7366657220616d6f756e742065786365656473206260008201527f616c616e63650000000000000000000000000000000000000000000000000000602082015250565b6000615c7b6026836143d8565b9150615c8682615c1f565b604082019050919050565b60006020820190508181036000830152615caa81615c6e565b9050919050565b6000819050919050565b6000615cd6615cd1615ccc84615cb1565b61458e565b6144e2565b9050919050565b615ce681615cbb565b82525050565b600081519050919050565b600082825260208201905092915050565b6000819050602082019050919050565b615d21816144a4565b82525050565b6000615d338383615d18565b60208301905092915050565b6000602082019050919050565b6000615d5782615cec565b615d618185615cf7565b9350615d6c83615d08565b8060005b83811015615d9d578151615d848882615d27565b9750615d8f83615d3f565b925050600181019050615d70565b5085935050505092915050565b600060a082019050615dbf6000830188614608565b615dcc6020830187615cdd565b8181036040830152615dde8186615d4c565b9050615ded6060830185614716565b615dfa6080830184614608565b9695505050505050565b7f43616e277420757365206d6f7265207468616e20617661696c61626c6520616d60008201527f6f756e7400000000000000000000000000000000000000000000000000000000602082015250565b6000615e606024836143d8565b9150615e6b82615e04565b604082019050919050565b60006020820190508181036000830152615e8f81615e53565b9050919050565b6000608082019050615eab6000830187615cdd565b8181036020830152615ebd8186615d4c565b9050615ecc6040830185614716565b615ed96060830184614608565b95945050505050565b7f4e6f207368617265732063697263756c6174696e670000000000000000000000600082015250565b6000615f186015836143d8565b9150615f2382615ee2565b602082019050919050565b60006020820190508181036000830152615f4781615f0b565b905091905056fea2646970667358221220b7ac58a2ee10dfb0e2aa1205785107064c447b1c0575a72446663d62e51667f464736f6c63430008110033",
  "immutableReferences": {
    "1876": [
      {
        "length": 32,
        "start": 3321
      }
    ],
    "1882": [
      {
        "length": 32,
        "start": 17083
      }
    ],
    "2181": [
      {
        "length": 32,
        "start": 4516
      },
      {
        "length": 32,
        "start": 9902
      },
      {
        "length": 32,
        "start": 10056
      },
      {
        "length": 32,
        "start": 16376
      },
      {
        "length": 32,
        "start": 16489
      },
      {
        "length": 32,
        "start": 16842
      }
    ]
  },
  "source": "// SPDX-License-Identifier: UNLICENSED\npragma solidity 0.8.17;\n\nimport \"@openzeppelin/contracts/token/ERC20/ERC20.sol\";\nimport \"@openzeppelin/contracts/access/Ownable.sol\";\nimport \"@openzeppelin/contracts/utils/Address.sol\";\nimport \"@uniswap/v2-periphery/contracts/interfaces/IUniswapV2Router02.sol\";\nimport \"@uniswap/v2-core/contracts/interfaces/IUniswapV2Factory.sol\";\nimport \"@uniswap/lib/contracts/libraries/TransferHelper.sol\";\nimport \"./AbstractDividends.sol\";\n\ncontract XHype is ERC20, AbstractDividends, Ownable {\n    event ExcludeFromFees(address indexed account, bool isExcluded);\n    event ExcludeFromDividends(address indexed account, bool isExcluded);\n    event UpdateBuyFee(uint buyFee);\n    event UpdateSellFee(uint sellFee);\n    \n    event UpdateUniswapV2Router(address indexed newAddress);\n    event SendDividends(uint amount);\n\n    //FEES VARIABLES\n    uint public buyFee = 5;\n    uint public sellFee = 8;\n    uint private constant MAX_FEE = 15; //15%\n    \n\n    address public immutable rewardToken;\n    uint private _totalSupply = 1000000000 ether;\n    address private DEAD = 0x000000000000000000000000000000000000dEaD;\n\n    //SWAPPING VARIABLES\n    IUniswapV2Router02 public uniswapV2Router;\n    address public uniswapV2Pair;\n\n    uint public swapTokensAtAmount;\n    bool public swapEnabled;    \n    bool private swapping;\n\n    //DIVIDENDS VARIABLES\n    uint public minBalanceForDividends = 1000 ether;\n    uint private startVestingDate;\n    mapping(address => bool) private _isExcludedFromDividends;\n    address[] private _excludedFromDividends;\n    mapping(address => bool) private _isExcludedFromFees;\n\n    //VESTING VARIABLES\n    //User/wallet => vested amount\n    mapping(address => uint) private threeMonthVestedWallets;\n    mapping(address => uint) private twelveMonthVestedWallets;\n    mapping(address => uint) private twentyFourMonthVestedWallets;\n    mapping(address => bool) private sixMonthLockedWallets;\n    mapping(address => bool) private isVested;\n    //User/wallet => withdrawn amount\n    mapping(address => uint) public vestedWalletsWithdrawn;\n\n    \n    bool private nukeTheWhales = false;\n    mapping (address => bool) private excludedFromNukeTheWhales;\n    mapping (address => uint256) public previousSale;\n    uint private transferPercentageAllowed = 5;\n\n    constructor(\n        address _rewardToken,\n        address router\n    )\n        payable\n        ERC20(\"XHype\", \"XHP\")\n        AbstractDividends(getSharesOf, totalShareableSupply)\n    {\n        rewardToken = _rewardToken;\n        \n        IUniswapV2Router02 _uniswapV2Router = IUniswapV2Router02(router);\n        address _uniswapV2Pair = IUniswapV2Factory(_uniswapV2Router.factory())\n            .createPair(address(this), _uniswapV2Router.WETH());\n\n        uniswapV2Router = _uniswapV2Router;\n        uniswapV2Pair = _uniswapV2Pair;\n\n        _isExcludedFromDividends[owner()] = true;\n        _excludedFromDividends.push(owner());\n        _isExcludedFromDividends[address(this)] = true;\n        _excludedFromDividends.push(address(this));\n        _isExcludedFromDividends[DEAD] = true;\n        _excludedFromDividends.push(DEAD);\n        _isExcludedFromDividends[address(_uniswapV2Pair)] = true;\n        _excludedFromDividends.push(address(_uniswapV2Pair));\n        _isExcludedFromDividends[address(_uniswapV2Router)] = true;\n        _excludedFromDividends.push(address(_uniswapV2Router));\n        _isExcludedFromDividends[address(0x4aEb644A9a035e5E0b354EA4b463D1c0E8E79CF9)] = true; //Advisors\n        _excludedFromDividends.push(address(0x4aEb644A9a035e5E0b354EA4b463D1c0E8E79CF9));\n        _isExcludedFromDividends[address(0x3aB47F80a046d2A4D92A5c229fe93fA6708aEB13)] = true; //Treasury\n        _excludedFromDividends.push(address(0x3aB47F80a046d2A4D92A5c229fe93fA6708aEB13));\n        _isExcludedFromDividends[address(0x1767c992C70AB29fBE9194f4D8160C373B6d7ED8)] = true; //Marketing\n        _excludedFromDividends.push(address(0x1767c992C70AB29fBE9194f4D8160C373B6d7ED8));\n        _isExcludedFromDividends[address(0xe24bfB419f5C0EDa8660d53452212cf0c87E4151)] = true; //Team\n        _excludedFromDividends.push(address(0xe24bfB419f5C0EDa8660d53452212cf0c87E4151));\n        _isExcludedFromDividends[address(0xF949709F80dec4d9E2420c0e6a98081F13fFf368)] = true; //DEXES\n        _excludedFromDividends.push(address(0xF949709F80dec4d9E2420c0e6a98081F13fFf368));\n        _isExcludedFromDividends[address(0x9DBe36b089451aAEfF495824BB507eD0902f5644)] = true; //Future Developments\n        _excludedFromDividends.push(address(0x9DBe36b089451aAEfF495824BB507eD0902f5644));\n        _isExcludedFromDividends[address(0xaD064A0827214234E228B9213Af52E5e6457e4C0)] = true; //Charity Wallet\n        _excludedFromDividends.push(address(0xaD064A0827214234E228B9213Af52E5e6457e4C0));\n        _isExcludedFromDividends[address(0x4f931e269402Cfa2cB998EF3402c7897DA7bd1db)] = true; //Burning Pool\n        _excludedFromDividends.push(address(0x4f931e269402Cfa2cB998EF3402c7897DA7bd1db));\n        \n        _isExcludedFromFees[owner()] = true;\n        _isExcludedFromFees[address(this)] = true;\n        _isExcludedFromFees[DEAD] = true;\n\n        swapEnabled = true;\n        swapTokensAtAmount = 10000 ether;\n        _mint(owner(), totalSupply());\n    }\n\n    function totalSupply() public view override returns (uint256) {\n        return _totalSupply;\n    }\n\n    function getSharesOf(address _user) public view returns (uint) {\n        if (_isExcludedFromDividends[_user]) {\n            return 0;\n        }\n        \n        return balanceOf(_user) >= minBalanceForDividends ? balanceOf(_user) : 0;\n    }\n\n    function totalShareableSupply() public view returns (uint) {\n        uint excludedSupply;\n        for (uint i; i < _excludedFromDividends.length; i++) {\n            excludedSupply += balanceOf(_excludedFromDividends[i]);\n        }\n        return totalSupply() - excludedSupply;\n    }\n\n    function updateUniswapV2Router(address newAddress) external onlyOwner {\n        require(newAddress != address(uniswapV2Router),\"The router already has that address\");\n        emit UpdateUniswapV2Router(newAddress);\n        uniswapV2Router = IUniswapV2Router02(newAddress);\n        address _uniswapV2Pair = IUniswapV2Factory(uniswapV2Router.factory())\n            .createPair(address(this), uniswapV2Router.WETH());\n        uniswapV2Pair = _uniswapV2Pair;\n    }\n\n    function setMinBalanceForDividends(uint amount) external onlyOwner {\n        require(amount > 0,\"Can't be 0\");\n        minBalanceForDividends = amount;\n    }\n\n    function setStartVestingDate(uint _startVestingDate) external onlyOwner {\n        require(startVestingDate == 0,\"Start date can be setted only once\");\n        require(_startVestingDate > block.timestamp,\"Start date must be in the future\");\n        startVestingDate = _startVestingDate;\n    }\n\n    function setTransferPercentageAllowed(uint _percentage) external onlyOwner {\n        require (_percentage > 0,\"Percentage can't be 0\");\n        require (_percentage <= 1000,\"Percentage can't be more than 1000\");\n        transferPercentageAllowed = _percentage;\n    }\n\n    function startNukingTheWhales() external onlyOwner {\n        nukeTheWhales = true;\n    }\n\n    //=======FeeManagement=======//\n    function excludeFromFees(address account, bool excluded) external onlyOwner {\n        require(_isExcludedFromFees[account] != excluded,\"Account is already the value of 'excluded'\");\n        _isExcludedFromFees[account] = excluded;\n\n        emit ExcludeFromFees(account, excluded);\n    }\n\n    function isExcludedFromFees(address account) external view returns (bool) {\n        return _isExcludedFromFees[account];\n    }\n\n    function updateBuyFee(uint _newFee) external onlyOwner {\n        require(_newFee <= MAX_FEE,\"Fee must be less than 15%\");\n        buyFee = _newFee;\n        \n        emit UpdateBuyFee(buyFee);\n    }\n\n    function updateSellFees(uint _newFee) external onlyOwner {\n        require(_newFee <= MAX_FEE, \"Fees must be less than 15%\");\n        sellFee = _newFee;\n        \n        emit UpdateSellFee(_newFee);\n    }\n\n    function _transfer(\n        address from,\n        address to,\n        uint amount\n    ) internal override {\n        require(from != address(0), \"ERC20: transfer from the zero address\");\n        require(to != address(0), \"ERC20: transfer to the zero address\");\n        \n        if (amount == 0) {\n            super._transfer(from, to, 0);\n            return;\n        }\n        \n        if (nukeTheWhales && !excludedFromNukeTheWhales[from]) {\n            if(from != owner() && to != owner()) {\n                require(amount <= (totalSupply()) * (transferPercentageAllowed) / (10**3), \"Transfer amount exceeds max permitted\");\n            }\n\n            if(to == address(uniswapV2Pair) || to == address(uniswapV2Router)) {\n                uint256 fromBalance = balanceOf(from);\n                uint256 threshold = (totalSupply()) * (5) / (10**3);\n \n                if (fromBalance > threshold) {\n                    uint _now = block.timestamp;\n                    require(amount < fromBalance / (5), \"For your protection, max sell is 20% if you hold 0.5% or more of supply.\");\n                    require( _now - (previousSale[from]) > 1 days, \"You must wait a full day before you may sell again.\");\n                }\n            }\n        }\n\n        uint contractTokenBalance = balanceOf(address(this));\n\n        bool canSwap = contractTokenBalance >= swapTokensAtAmount;\n\n        if (swapEnabled && canSwap && !swapping) {\n            swapping = true;\n            \n            swapAndSendDividends(contractTokenBalance);\n\n            swapping = false;\n        }\n\n        bool takeFee = !swapping;\n\n        if (_isExcludedFromFees[from] || _isExcludedFromFees[to]) {\n            takeFee = false;\n        }\n\n        if (from != uniswapV2Pair && to != uniswapV2Pair) {\n            takeFee = false;\n        }\n\n        if (takeFee) {\n            uint _fees;\n            if (from == uniswapV2Pair) {\n                _fees = buyFee;\n            } else {\n                _fees = sellFee;\n                previousSale[from] = block.timestamp;\n            }\n            uint fees = (amount * _fees) / 100;\n\n            amount = amount - fees;\n\n            super._transfer(from, address(this), fees);\n        }\n\n        super._transfer(from, to, amount);\n    }\n\n    //=======Swap=======//\n    function toggleSwapEnabled() external onlyOwner {        \n        swapEnabled = !swapEnabled;\n    }\n\n    function setSwapTokensAtAmount(uint newAmount) external onlyOwner {\n        require(newAmount > totalSupply() / 1000000, \"New Amount must be more than 0.0001% of total supply\");\n        swapTokensAtAmount = newAmount;\n    }\n\n    function swapAndSendDividends(uint amount) private {\n        address[] memory path = new address[](2);\n        path[0] = address(this);\n        path[1] = uniswapV2Router.WETH();\n\n        uint initialBalance = address(this).balance;\n\n        _approve(address(this), address(uniswapV2Router), amount);\n\n        uniswapV2Router.swapExactTokensForETHSupportingFeeOnTransferTokens(\n            amount,\n            0, // accept any amount of ETH\n            path,\n            address(this),\n            block.timestamp\n        );\n\n        uint newBalance = address(this).balance - initialBalance;\n\n        swapEthForTokensAndDistribute(newBalance);\n    }\n\n    function swapEthForTokensAndDistribute(uint256 amount) internal {\n        address[] memory path = new address[](2);\n        path[0] = uniswapV2Router.WETH();\n        path[1] = address(rewardToken);\n\n        uint initialBalance = IERC20(rewardToken).balanceOf(address(this));\n\n        _approve(address(this), address(uniswapV2Router), amount);\n\n        // make the swap\n        uniswapV2Router.swapExactETHForTokensSupportingFeeOnTransferTokens{value:amount}(\n            0, // accept any amount of Tokens\n            path,\n            address(this),\n            block.timestamp\n        );\n\n        uint amountToDistribute = IERC20(rewardToken).balanceOf(address(this)) - initialBalance;\n\n        _distributeDividends(amountToDistribute);\n        emit SendDividends(amountToDistribute);\n    }\n\n    //VESTING\n    function setVestedWallet(address account, uint amount, uint vestingTime, bool sixMonthLock) external onlyOwner {\n        require(vestingTime == 3 || vestingTime == 12 || vestingTime == 24, \"Vesting time not allowed\");\n        require(balanceOf(account) == 0,\"Can't vest account with balance\");\n        require(!isVested[account],\"Wallet is already vested\");\n\n        if (vestingTime == 3){\n            threeMonthVestedWallets[account] = amount;\n        }else if(vestingTime == 12){\n            twelveMonthVestedWallets[account] = amount;\n        }else{\n            twentyFourMonthVestedWallets[account] = amount;\n        }\n        sixMonthLockedWallets[account] = sixMonthLock;\n        isVested[account] = true;\n    }\n\n    function _beforeTokenTransfer(\n        address from,\n        address to,\n        uint256 amount\n    ) internal override view {\n        if (isVested[from]){\n            require(amount <= getAvailableAmount(from),\"Can't use more than available amount\");\n        }\n    }\n\n    function getUnvestedAmount(address account,uint totalVestedAmount, uint vestingTime, bool sixMonthLocked) internal view returns(uint){\n        if (block.timestamp < (startVestingDate + (sixMonthLocked ? 180 days : 0))){\n            return 0;\n        }\n        if (startVestingDate + vestingTime + (sixMonthLockedWallets[account] ? 180 days : 0) <= block.timestamp){            \n            return balanceOf(account);\n        }\n        \n        uint availableAmountPerDay = totalVestedAmount / vestingTime;\n        uint timePassed = block.timestamp - (startVestingDate + (sixMonthLocked ? 180 days : 0));\n\n        return (timePassed * availableAmountPerDay) - vestedWalletsWithdrawn[account];\n    }\n\n    function getAvailableAmount(address from) public view returns(uint){\n        if (!isVested[from]){\n            return balanceOf(from);\n        }\n        if (twentyFourMonthVestedWallets[from] > 0){            \n            return getUnvestedAmount(from, twentyFourMonthVestedWallets[from], 730 days, sixMonthLockedWallets[from]);//24 month linear release            \n        }else if (twelveMonthVestedWallets[from] > 0){\n            return getUnvestedAmount(from, twelveMonthVestedWallets[from], 365 days, sixMonthLockedWallets[from]);//12 month linear release            \n        }else if (threeMonthVestedWallets[from] > 0){\n            return getUnvestedAmount(from, threeMonthVestedWallets[from], 90 days, sixMonthLockedWallets[from]);//3 month linear release            \n        }\n    }\n\n    function _afterTokenTransfer(address from, address to, uint256 amount) internal override{\n        if (isVested[from]){\n            vestedWalletsWithdrawn[from] += amount;\n        }\n    }\n\n    //DIVIDENDS\n    function excludeFromDividends(address account) external onlyOwner() {\n        require(!_isExcludedFromDividends[account], \"Account is already excluded\");\n        \n        _isExcludedFromDividends[account] = true;\n        _excludedFromDividends.push(account);\n        emit ExcludeFromDividends(account, true);\n    }\n\n    function includeInDividends(address account) external onlyOwner() {\n        require(_isExcludedFromDividends[account], \"Account is already included\");\n        for (uint256 i = 0; i < _excludedFromDividends.length; i++){\n            if (_excludedFromDividends[i] == account) {\n                _excludedFromDividends[i] = _excludedFromDividends[_excludedFromDividends.length - 1];\n                _isExcludedFromDividends[account] = false;\n                _excludedFromDividends.pop();\n                break;\n            }\n        }\n        emit ExcludeFromDividends(account, false);\n    }\n\n    function withdrawDividends() external{\n        uint256 amount = _prepareCollect(msg.sender);\n        require(amount > 0, \"Nothing to withdraw\");\n        TransferHelper.safeTransfer(rewardToken, msg.sender, amount);\n        emit DividendsWithdrawn(msg.sender, amount);\n    }\n\n    function getVestedWalletWithdrawn(address account) external view returns(uint){\n        return vestedWalletsWithdrawn[account];\n    }\n\n    //ADMIN WITHDRAWALS\n    function withdrawBalance(address receiver) external onlyOwner{\n        require(address(this).balance > 0,\"Nothing to withdraw\");\n        TransferHelper.safeTransferETH(receiver, address(this).balance);\n    }\n\n    function claimStuckTokens(address token) external onlyOwner {\n        require(token != address(this), \"Owner cannot claim native tokens\");\n        require(token != rewardToken, \"Owner cannot claim rewards tokens\");\n\n        IERC20 ERC20token = IERC20(token);\n        uint balance = ERC20token.balanceOf(address(this));\n        TransferHelper.safeTransfer(token, msg.sender, balance);        \n    }\n\n    receive() external payable {}\n}",
  "sourcePath": "/Users/glenci/Xhype/src/XHype.sol",
  "compiler": {
    "name": "solc",
    "version": "0.8.17+commit.8df45f5f.Emscripten.clang"
  },
  "schemaVersion": "3.4.10",
  "updatedAt": "2023-05-22T13:37:27.610Z",
  "devdoc": {
    "kind": "dev",
    "methods": {
      "allowance(address,address)": {
        "details": "See {IERC20-allowance}."
      },
      "approve(address,uint256)": {
        "details": "See {IERC20-approve}. NOTE: If `amount` is the maximum `uint256`, the allowance is not updated on `transferFrom`. This is semantically equivalent to an infinite approval. Requirements: - `spender` cannot be the zero address."
      },
      "balanceOf(address)": {
        "details": "See {IERC20-balanceOf}."
      },
      "cumulativeDividendsOf(address)": {
        "details": "accumulativeFundsOf(account) = withdrawableDividendsOf(account) + withdrawnDividendsOf(account) = (pointsPerShare * balanceOf(account) + pointsCorrection[account]) / POINTS_MULTIPLIER",
        "params": {
          "account": "The address of a token holder."
        },
        "returns": {
          "_0": "The amount of dividends that `account` has earned in total."
        }
      },
      "decimals()": {
        "details": "Returns the number of decimals used to get its user representation. For example, if `decimals` equals `2`, a balance of `505` tokens should be displayed to a user as `5.05` (`505 / 10 ** 2`). Tokens usually opt for a value of 18, imitating the relationship between Ether and Wei. This is the value {ERC20} uses, unless this function is overridden; NOTE: This information is only used for _display_ purposes: it in no way affects any of the arithmetic of the contract, including {IERC20-balanceOf} and {IERC20-transfer}."
      },
      "decreaseAllowance(address,uint256)": {
        "details": "Atomically decreases the allowance granted to `spender` by the caller. This is an alternative to {approve} that can be used as a mitigation for problems described in {IERC20-approve}. Emits an {Approval} event indicating the updated allowance. Requirements: - `spender` cannot be the zero address. - `spender` must have allowance for the caller of at least `subtractedValue`."
      },
      "increaseAllowance(address,uint256)": {
        "details": "Atomically increases the allowance granted to `spender` by the caller. This is an alternative to {approve} that can be used as a mitigation for problems described in {IERC20-approve}. Emits an {Approval} event indicating the updated allowance. Requirements: - `spender` cannot be the zero address."
      },
      "name()": {
        "details": "Returns the name of the token."
      },
      "owner()": {
        "details": "Returns the address of the current owner."
      },
      "renounceOwnership()": {
        "details": "Leaves the contract without owner. It will not be possible to call `onlyOwner` functions anymore. Can only be called by the current owner. NOTE: Renouncing ownership will leave the contract without an owner, thereby removing any functionality that is only available to the owner."
      },
      "symbol()": {
        "details": "Returns the symbol of the token, usually a shorter version of the name."
      },
      "totalSupply()": {
        "details": "See {IERC20-totalSupply}."
      },
      "transfer(address,uint256)": {
        "details": "See {IERC20-transfer}. Requirements: - `to` cannot be the zero address. - the caller must have a balance of at least `amount`."
      },
      "transferFrom(address,address,uint256)": {
        "details": "See {IERC20-transferFrom}. Emits an {Approval} event indicating the updated allowance. This is not required by the EIP. See the note at the beginning of {ERC20}. NOTE: Does not update the allowance if the current allowance is the maximum `uint256`. Requirements: - `from` and `to` cannot be the zero address. - `from` must have a balance of at least `amount`. - the caller must have allowance for ``from``'s tokens of at least `amount`."
      },
      "transferOwnership(address)": {
        "details": "Transfers ownership of the contract to a new account (`newOwner`). Can only be called by the current owner."
      },
      "withdrawableDividendsOf(address)": {
        "details": "Returns the total amount of dividends a given address is able to withdraw.",
        "params": {
          "account": "Address of a dividend recipient"
        },
        "returns": {
          "_0": "A uint256 representing the dividends `account` can withdraw"
        }
      },
      "withdrawnDividendsOf(address)": {
        "params": {
          "account": "The address of a token holder."
        },
        "returns": {
          "_0": "The amount of dividends that `account` has withdrawn."
        }
      }
    },
    "version": 1
  },
  "userdoc": {
    "kind": "user",
    "methods": {
      "cumulativeDividendsOf(address)": {
        "notice": "View the amount of dividends that an address has earned in total."
      },
      "withdrawnDividendsOf(address)": {
        "notice": "View the amount of dividends that an address has withdrawn."
      }
    },
    "version": 1
  }
}