{
  "contractName": "XHype",
  "abi": [
    {
      "inputs": [],
      "stateMutability": "payable",
      "type": "constructor"
    },
    {
      "anonymous": false,
      "inputs": [
        {
          "indexed": true,
          "internalType": "address",
          "name": "owner",
          "type": "address"
        },
        {
          "indexed": true,
          "internalType": "address",
          "name": "spender",
          "type": "address"
        },
        {
          "indexed": false,
          "internalType": "uint256",
          "name": "value",
          "type": "uint256"
        }
      ],
      "name": "Approval",
      "type": "event"
    },
    {
      "anonymous": false,
      "inputs": [
        {
          "indexed": true,
          "internalType": "address",
          "name": "by",
          "type": "address"
        },
        {
          "indexed": false,
          "internalType": "uint256",
          "name": "dividendsDistributed",
          "type": "uint256"
        }
      ],
      "name": "DividendsDistributed",
      "type": "event"
    },
    {
      "anonymous": false,
      "inputs": [
        {
          "indexed": true,
          "internalType": "address",
          "name": "by",
          "type": "address"
        },
        {
          "indexed": false,
          "internalType": "uint256",
          "name": "fundsWithdrawn",
          "type": "uint256"
        }
      ],
      "name": "DividendsWithdrawn",
      "type": "event"
    },
    {
      "anonymous": false,
      "inputs": [
        {
          "indexed": true,
          "internalType": "address",
          "name": "account",
          "type": "address"
        },
        {
          "indexed": false,
          "internalType": "bool",
          "name": "isExcluded",
          "type": "bool"
        }
      ],
      "name": "ExcludeFromDividends",
      "type": "event"
    },
    {
      "anonymous": false,
      "inputs": [
        {
          "indexed": true,
          "internalType": "address",
          "name": "account",
          "type": "address"
        },
        {
          "indexed": false,
          "internalType": "bool",
          "name": "isExcluded",
          "type": "bool"
        }
      ],
      "name": "ExcludeFromFees",
      "type": "event"
    },
    {
      "anonymous": false,
      "inputs": [
        {
          "indexed": true,
          "internalType": "address",
          "name": "previousOwner",
          "type": "address"
        },
        {
          "indexed": true,
          "internalType": "address",
          "name": "newOwner",
          "type": "address"
        }
      ],
      "name": "OwnershipTransferred",
      "type": "event"
    },
    {
      "anonymous": false,
      "inputs": [
        {
          "indexed": false,
          "internalType": "uint256",
          "name": "amount",
          "type": "uint256"
        }
      ],
      "name": "SendDividends",
      "type": "event"
    },
    {
      "anonymous": false,
      "inputs": [
        {
          "indexed": true,
          "internalType": "address",
          "name": "from",
          "type": "address"
        },
        {
          "indexed": true,
          "internalType": "address",
          "name": "to",
          "type": "address"
        },
        {
          "indexed": false,
          "internalType": "uint256",
          "name": "value",
          "type": "uint256"
        }
      ],
      "name": "Transfer",
      "type": "event"
    },
    {
      "anonymous": false,
      "inputs": [
        {
          "indexed": false,
          "internalType": "uint256",
          "name": "buyFee",
          "type": "uint256"
        }
      ],
      "name": "UpdateBuyFee",
      "type": "event"
    },
    {
      "anonymous": false,
      "inputs": [
        {
          "indexed": false,
          "internalType": "uint256",
          "name": "sellFee",
          "type": "uint256"
        }
      ],
      "name": "UpdateSellFee",
      "type": "event"
    },
    {
      "anonymous": false,
      "inputs": [
        {
          "indexed": true,
          "internalType": "address",
          "name": "newAddress",
          "type": "address"
        }
      ],
      "name": "UpdateUniswapV2Router",
      "type": "event"
    },
    {
      "inputs": [
        {
          "internalType": "address",
          "name": "owner",
          "type": "address"
        },
        {
          "internalType": "address",
          "name": "spender",
          "type": "address"
        }
      ],
      "name": "allowance",
      "outputs": [
        {
          "internalType": "uint256",
          "name": "",
          "type": "uint256"
        }
      ],
      "stateMutability": "view",
      "type": "function"
    },
    {
      "inputs": [
        {
          "internalType": "address",
          "name": "spender",
          "type": "address"
        },
        {
          "internalType": "uint256",
          "name": "amount",
          "type": "uint256"
        }
      ],
      "name": "approve",
      "outputs": [
        {
          "internalType": "bool",
          "name": "",
          "type": "bool"
        }
      ],
      "stateMutability": "nonpayable",
      "type": "function"
    },
    {
      "inputs": [
        {
          "internalType": "address",
          "name": "account",
          "type": "address"
        }
      ],
      "name": "balanceOf",
      "outputs": [
        {
          "internalType": "uint256",
          "name": "",
          "type": "uint256"
        }
      ],
      "stateMutability": "view",
      "type": "function"
    },
    {
      "inputs": [],
      "name": "buyFee",
      "outputs": [
        {
          "internalType": "uint256",
          "name": "",
          "type": "uint256"
        }
      ],
      "stateMutability": "view",
      "type": "function"
    },
    {
      "inputs": [
        {
          "internalType": "address",
          "name": "account",
          "type": "address"
        }
      ],
      "name": "cumulativeDividendsOf",
      "outputs": [
        {
          "internalType": "uint256",
          "name": "",
          "type": "uint256"
        }
      ],
      "stateMutability": "view",
      "type": "function"
    },
    {
      "inputs": [],
      "name": "decimals",
      "outputs": [
        {
          "internalType": "uint8",
          "name": "",
          "type": "uint8"
        }
      ],
      "stateMutability": "view",
      "type": "function"
    },
    {
      "inputs": [
        {
          "internalType": "address",
          "name": "spender",
          "type": "address"
        },
        {
          "internalType": "uint256",
          "name": "subtractedValue",
          "type": "uint256"
        }
      ],
      "name": "decreaseAllowance",
      "outputs": [
        {
          "internalType": "bool",
          "name": "",
          "type": "bool"
        }
      ],
      "stateMutability": "nonpayable",
      "type": "function"
    },
    {
      "inputs": [
        {
          "internalType": "address",
          "name": "spender",
          "type": "address"
        },
        {
          "internalType": "uint256",
          "name": "addedValue",
          "type": "uint256"
        }
      ],
      "name": "increaseAllowance",
      "outputs": [
        {
          "internalType": "bool",
          "name": "",
          "type": "bool"
        }
      ],
      "stateMutability": "nonpayable",
      "type": "function"
    },
    {
      "inputs": [],
      "name": "minBalanceForDividends",
      "outputs": [
        {
          "internalType": "uint256",
          "name": "",
          "type": "uint256"
        }
      ],
      "stateMutability": "view",
      "type": "function"
    },
    {
      "inputs": [],
      "name": "name",
      "outputs": [
        {
          "internalType": "string",
          "name": "",
          "type": "string"
        }
      ],
      "stateMutability": "view",
      "type": "function"
    },
    {
      "inputs": [],
      "name": "owner",
      "outputs": [
        {
          "internalType": "address",
          "name": "",
          "type": "address"
        }
      ],
      "stateMutability": "view",
      "type": "function"
    },
    {
      "inputs": [],
      "name": "pointsPerShare",
      "outputs": [
        {
          "internalType": "uint256",
          "name": "",
          "type": "uint256"
        }
      ],
      "stateMutability": "view",
      "type": "function"
    },
    {
      "inputs": [
        {
          "internalType": "address",
          "name": "",
          "type": "address"
        }
      ],
      "name": "previousSale",
      "outputs": [
        {
          "internalType": "uint256",
          "name": "",
          "type": "uint256"
        }
      ],
      "stateMutability": "view",
      "type": "function"
    },
    {
      "inputs": [],
      "name": "renounceOwnership",
      "outputs": [],
      "stateMutability": "nonpayable",
      "type": "function"
    },
    {
      "inputs": [],
      "name": "rewardToken",
      "outputs": [
        {
          "internalType": "address",
          "name": "",
          "type": "address"
        }
      ],
      "stateMutability": "view",
      "type": "function"
    },
    {
      "inputs": [],
      "name": "sellFee",
      "outputs": [
        {
          "internalType": "uint256",
          "name": "",
          "type": "uint256"
        }
      ],
      "stateMutability": "view",
      "type": "function"
    },
    {
      "inputs": [],
      "name": "swapEnabled",
      "outputs": [
        {
          "internalType": "bool",
          "name": "",
          "type": "bool"
        }
      ],
      "stateMutability": "view",
      "type": "function"
    },
    {
      "inputs": [],
      "name": "swapTokensAtAmount",
      "outputs": [
        {
          "internalType": "uint256",
          "name": "",
          "type": "uint256"
        }
      ],
      "stateMutability": "view",
      "type": "function"
    },
    {
      "inputs": [],
      "name": "symbol",
      "outputs": [
        {
          "internalType": "string",
          "name": "",
          "type": "string"
        }
      ],
      "stateMutability": "view",
      "type": "function"
    },
    {
      "inputs": [
        {
          "internalType": "address",
          "name": "to",
          "type": "address"
        },
        {
          "internalType": "uint256",
          "name": "amount",
          "type": "uint256"
        }
      ],
      "name": "transfer",
      "outputs": [
        {
          "internalType": "bool",
          "name": "",
          "type": "bool"
        }
      ],
      "stateMutability": "nonpayable",
      "type": "function"
    },
    {
      "inputs": [
        {
          "internalType": "address",
          "name": "from",
          "type": "address"
        },
        {
          "internalType": "address",
          "name": "to",
          "type": "address"
        },
        {
          "internalType": "uint256",
          "name": "amount",
          "type": "uint256"
        }
      ],
      "name": "transferFrom",
      "outputs": [
        {
          "internalType": "bool",
          "name": "",
          "type": "bool"
        }
      ],
      "stateMutability": "nonpayable",
      "type": "function"
    },
    {
      "inputs": [
        {
          "internalType": "address",
          "name": "newOwner",
          "type": "address"
        }
      ],
      "name": "transferOwnership",
      "outputs": [],
      "stateMutability": "nonpayable",
      "type": "function"
    },
    {
      "inputs": [],
      "name": "uniswapV2Pair",
      "outputs": [
        {
          "internalType": "address",
          "name": "",
          "type": "address"
        }
      ],
      "stateMutability": "view",
      "type": "function"
    },
    {
      "inputs": [],
      "name": "uniswapV2Router",
      "outputs": [
        {
          "internalType": "contract IUniswapV2Router02",
          "name": "",
          "type": "address"
        }
      ],
      "stateMutability": "view",
      "type": "function"
    },
    {
      "inputs": [
        {
          "internalType": "address",
          "name": "",
          "type": "address"
        }
      ],
      "name": "vestedWalletsWithdrawn",
      "outputs": [
        {
          "internalType": "uint256",
          "name": "",
          "type": "uint256"
        }
      ],
      "stateMutability": "view",
      "type": "function"
    },
    {
      "inputs": [
        {
          "internalType": "address",
          "name": "account",
          "type": "address"
        }
      ],
      "name": "withdrawableDividendsOf",
      "outputs": [
        {
          "internalType": "uint256",
          "name": "",
          "type": "uint256"
        }
      ],
      "stateMutability": "view",
      "type": "function"
    },
    {
      "inputs": [
        {
          "internalType": "address",
          "name": "account",
          "type": "address"
        }
      ],
      "name": "withdrawnDividendsOf",
      "outputs": [
        {
          "internalType": "uint256",
          "name": "",
          "type": "uint256"
        }
      ],
      "stateMutability": "view",
      "type": "function"
    },
    {
      "stateMutability": "payable",
      "type": "receive"
    },
    {
      "inputs": [],
      "name": "totalSupply",
      "outputs": [
        {
          "internalType": "uint256",
          "name": "",
          "type": "uint256"
        }
      ],
      "stateMutability": "view",
      "type": "function"
    },
    {
      "inputs": [
        {
          "internalType": "address",
          "name": "_user",
          "type": "address"
        }
      ],
      "name": "getSharesOf",
      "outputs": [
        {
          "internalType": "uint256",
          "name": "",
          "type": "uint256"
        }
      ],
      "stateMutability": "view",
      "type": "function"
    },
    {
      "inputs": [],
      "name": "totalShareableSupply",
      "outputs": [
        {
          "internalType": "uint256",
          "name": "",
          "type": "uint256"
        }
      ],
      "stateMutability": "view",
      "type": "function"
    },
    {
      "inputs": [
        {
          "internalType": "address",
          "name": "newAddress",
          "type": "address"
        }
      ],
      "name": "updateUniswapV2Router",
      "outputs": [],
      "stateMutability": "nonpayable",
      "type": "function"
    },
    {
      "inputs": [
        {
          "internalType": "uint256",
          "name": "amount",
          "type": "uint256"
        }
      ],
      "name": "setMinBalanceForDividends",
      "outputs": [],
      "stateMutability": "nonpayable",
      "type": "function"
    },
    {
      "inputs": [
        {
          "internalType": "uint256",
          "name": "_startVestingDate",
          "type": "uint256"
        }
      ],
      "name": "setStartVestingDate",
      "outputs": [],
      "stateMutability": "nonpayable",
      "type": "function"
    },
    {
      "inputs": [
        {
          "internalType": "uint256",
          "name": "_percentage",
          "type": "uint256"
        }
      ],
      "name": "setTransferPercentageAllowed",
      "outputs": [],
      "stateMutability": "nonpayable",
      "type": "function"
    },
    {
      "inputs": [
        {
          "internalType": "address",
          "name": "user",
          "type": "address"
        },
        {
          "internalType": "bool",
          "name": "excluded",
          "type": "bool"
        }
      ],
      "name": "setExcludeFromNukeTheWhales",
      "outputs": [],
      "stateMutability": "nonpayable",
      "type": "function"
    },
    {
      "inputs": [],
      "name": "startNukingTheWhales",
      "outputs": [],
      "stateMutability": "nonpayable",
      "type": "function"
    },
    {
      "inputs": [
        {
          "internalType": "address",
          "name": "account",
          "type": "address"
        },
        {
          "internalType": "bool",
          "name": "excluded",
          "type": "bool"
        }
      ],
      "name": "excludeFromFees",
      "outputs": [],
      "stateMutability": "nonpayable",
      "type": "function"
    },
    {
      "inputs": [
        {
          "internalType": "address",
          "name": "account",
          "type": "address"
        }
      ],
      "name": "isExcludedFromFees",
      "outputs": [
        {
          "internalType": "bool",
          "name": "",
          "type": "bool"
        }
      ],
      "stateMutability": "view",
      "type": "function"
    },
    {
      "inputs": [
        {
          "internalType": "uint256",
          "name": "_newFee",
          "type": "uint256"
        }
      ],
      "name": "updateBuyFee",
      "outputs": [],
      "stateMutability": "nonpayable",
      "type": "function"
    },
    {
      "inputs": [
        {
          "internalType": "uint256",
          "name": "_newFee",
          "type": "uint256"
        }
      ],
      "name": "updateSellFees",
      "outputs": [],
      "stateMutability": "nonpayable",
      "type": "function"
    },
    {
      "inputs": [],
      "name": "toggleSwapEnabled",
      "outputs": [],
      "stateMutability": "nonpayable",
      "type": "function"
    },
    {
      "inputs": [
        {
          "internalType": "uint256",
          "name": "newAmount",
          "type": "uint256"
        }
      ],
      "name": "setSwapTokensAtAmount",
      "outputs": [],
      "stateMutability": "nonpayable",
      "type": "function"
    },
    {
      "inputs": [
        {
          "internalType": "address",
          "name": "account",
          "type": "address"
        },
        {
          "internalType": "uint256",
          "name": "amount",
          "type": "uint256"
        },
        {
          "internalType": "uint256",
          "name": "vestingTime",
          "type": "uint256"
        },
        {
          "internalType": "bool",
          "name": "sixMonthLock",
          "type": "bool"
        }
      ],
      "name": "setVestedWallet",
      "outputs": [],
      "stateMutability": "nonpayable",
      "type": "function"
    },
    {
      "inputs": [
        {
          "internalType": "address",
          "name": "from",
          "type": "address"
        }
      ],
      "name": "getAvailableAmount",
      "outputs": [
        {
          "internalType": "uint256",
          "name": "",
          "type": "uint256"
        }
      ],
      "stateMutability": "view",
      "type": "function"
    },
    {
      "inputs": [
        {
          "internalType": "address",
          "name": "account",
          "type": "address"
        }
      ],
      "name": "excludeFromDividends",
      "outputs": [],
      "stateMutability": "nonpayable",
      "type": "function"
    },
    {
      "inputs": [
        {
          "internalType": "address",
          "name": "account",
          "type": "address"
        }
      ],
      "name": "includeInDividends",
      "outputs": [],
      "stateMutability": "nonpayable",
      "type": "function"
    },
    {
      "inputs": [],
      "name": "withdrawDividends",
      "outputs": [],
      "stateMutability": "nonpayable",
      "type": "function"
    },
    {
      "inputs": [
        {
          "internalType": "address",
          "name": "account",
          "type": "address"
        }
      ],
      "name": "getVestedWalletWithdrawn",
      "outputs": [
        {
          "internalType": "uint256",
          "name": "",
          "type": "uint256"
        }
      ],
      "stateMutability": "view",
      "type": "function"
    },
    {
      "inputs": [
        {
          "internalType": "address",
          "name": "receiver",
          "type": "address"
        }
      ],
      "name": "withdrawBalance",
      "outputs": [],
      "stateMutability": "nonpayable",
      "type": "function"
    },
    {
      "inputs": [
        {
          "internalType": "address",
          "name": "token",
          "type": "address"
        }
      ],
      "name": "claimStuckTokens",
      "outputs": [],
      "stateMutability": "nonpayable",
      "type": "function"
    }
  ],
  "bytecode": "0x60e0604052600560085560086009556b033b2e3c9fd0803ce8000000600a55683635c9adc5dea00000600f556000601a60006101000a81548160ff0219169083151502179055506005601d5562000ff960201b62002915176200109560201b62002704176040518060400160405280600581526020017f58487970650000000000000000000000000000000000000000000000000000008152506040518060400160405280600381526020017f58485000000000000000000000000000000000000000000000000000000000008152508160039081620000e0919062001caf565b508060049081620000f2919062001caf565b5050508167ffffffffffffffff1660808167ffffffffffffffff16815250508067ffffffffffffffff1660a08167ffffffffffffffff168152505050506200014f620001436200114460201b60201c565b6200114c60201b60201c565b7355d398326f99059ff775485246999027b319795573ffffffffffffffffffffffffffffffffffffffff1660c08173ffffffffffffffffffffffffffffffffffffffff168152505060007310ed43c718714eb63d5aa57b78b54704e256024e905060008173ffffffffffffffffffffffffffffffffffffffff1663c45a01556040518163ffffffff1660e01b8152600401602060405180830381865afa158015620001fe573d6000803e3d6000fd5b505050506040513d601f19601f8201168201806040525081019062000224919062001e00565b73ffffffffffffffffffffffffffffffffffffffff1663c9c65396308473ffffffffffffffffffffffffffffffffffffffff1663ad5c46486040518163ffffffff1660e01b8152600401602060405180830381865afa1580156200028c573d6000803e3d6000fd5b505050506040513d601f19601f82011682018060405250810190620002b2919062001e00565b6040518363ffffffff1660e01b8152600401620002d192919062001e43565b6020604051808303816000875af1158015620002f1573d6000803e3d6000fd5b505050506040513d601f19601f8201168201806040525081019062000317919062001e00565b905081600b60006101000a81548173ffffffffffffffffffffffffffffffffffffffff021916908373ffffffffffffffffffffffffffffffffffffffff16021790555080600c60006101000a81548173ffffffffffffffffffffffffffffffffffffffff021916908373ffffffffffffffffffffffffffffffffffffffff160217905550600160116000620003b16200121260201b60201c565b73ffffffffffffffffffffffffffffffffffffffff1673ffffffffffffffffffffffffffffffffffffffff16815260200190815260200160002060006101000a81548160ff0219169083151502179055506012620004146200121260201b60201c565b9080600181540180825580915050600190039060005260206000200160009091909190916101000a81548173ffffffffffffffffffffffffffffffffffffffff021916908373ffffffffffffffffffffffffffffffffffffffff1602179055506001601160003073ffffffffffffffffffffffffffffffffffffffff1673ffffffffffffffffffffffffffffffffffffffff16815260200190815260200160002060006101000a81548160ff0219169083151502179055506012309080600181540180825580915050600190039060005260206000200160009091909190916101000a81548173ffffffffffffffffffffffffffffffffffffffff021916908373ffffffffffffffffffffffffffffffffffffffff16021790555060016011600061dead73ffffffffffffffffffffffffffffffffffffffff1673ffffffffffffffffffffffffffffffffffffffff16815260200190815260200160002060006101000a81548160ff021916908315150217905550601261dead9080600181540180825580915050600190039060005260206000200160009091909190916101000a81548173ffffffffffffffffffffffffffffffffffffffff021916908373ffffffffffffffffffffffffffffffffffffffff1602179055506001601160008373ffffffffffffffffffffffffffffffffffffffff1673ffffffffffffffffffffffffffffffffffffffff16815260200190815260200160002060006101000a81548160ff0219169083151502179055506012819080600181540180825580915050600190039060005260206000200160009091909190916101000a81548173ffffffffffffffffffffffffffffffffffffffff021916908373ffffffffffffffffffffffffffffffffffffffff1602179055506001601160008473ffffffffffffffffffffffffffffffffffffffff1673ffffffffffffffffffffffffffffffffffffffff16815260200190815260200160002060006101000a81548160ff0219169083151502179055506012829080600181540180825580915050600190039060005260206000200160009091909190916101000a81548173ffffffffffffffffffffffffffffffffffffffff021916908373ffffffffffffffffffffffffffffffffffffffff160217905550600160116000734aeb644a9a035e5e0b354ea4b463d1c0e8e79cf973ffffffffffffffffffffffffffffffffffffffff1673ffffffffffffffffffffffffffffffffffffffff16815260200190815260200160002060006101000a81548160ff0219169083151502179055506012734aeb644a9a035e5e0b354ea4b463d1c0e8e79cf99080600181540180825580915050600190039060005260206000200160009091909190916101000a81548173ffffffffffffffffffffffffffffffffffffffff021916908373ffffffffffffffffffffffffffffffffffffffff160217905550600160116000733ab47f80a046d2a4d92a5c229fe93fa6708aeb1373ffffffffffffffffffffffffffffffffffffffff1673ffffffffffffffffffffffffffffffffffffffff16815260200190815260200160002060006101000a81548160ff0219169083151502179055506012733ab47f80a046d2a4d92a5c229fe93fa6708aeb139080600181540180825580915050600190039060005260206000200160009091909190916101000a81548173ffffffffffffffffffffffffffffffffffffffff021916908373ffffffffffffffffffffffffffffffffffffffff160217905550600160116000731767c992c70ab29fbe9194f4d8160c373b6d7ed873ffffffffffffffffffffffffffffffffffffffff1673ffffffffffffffffffffffffffffffffffffffff16815260200190815260200160002060006101000a81548160ff0219169083151502179055506012731767c992c70ab29fbe9194f4d8160c373b6d7ed89080600181540180825580915050600190039060005260206000200160009091909190916101000a81548173ffffffffffffffffffffffffffffffffffffffff021916908373ffffffffffffffffffffffffffffffffffffffff16021790555060016011600073e24bfb419f5c0eda8660d53452212cf0c87e415173ffffffffffffffffffffffffffffffffffffffff1673ffffffffffffffffffffffffffffffffffffffff16815260200190815260200160002060006101000a81548160ff021916908315150217905550601273e24bfb419f5c0eda8660d53452212cf0c87e41519080600181540180825580915050600190039060005260206000200160009091909190916101000a81548173ffffffffffffffffffffffffffffffffffffffff021916908373ffffffffffffffffffffffffffffffffffffffff16021790555060016011600073f949709f80dec4d9e2420c0e6a98081f13fff36873ffffffffffffffffffffffffffffffffffffffff1673ffffffffffffffffffffffffffffffffffffffff16815260200190815260200160002060006101000a81548160ff021916908315150217905550601273f949709f80dec4d9e2420c0e6a98081f13fff3689080600181540180825580915050600190039060005260206000200160009091909190916101000a81548173ffffffffffffffffffffffffffffffffffffffff021916908373ffffffffffffffffffffffffffffffffffffffff160217905550600160116000739dbe36b089451aaeff495824bb507ed0902f564473ffffffffffffffffffffffffffffffffffffffff1673ffffffffffffffffffffffffffffffffffffffff16815260200190815260200160002060006101000a81548160ff0219169083151502179055506012739dbe36b089451aaeff495824bb507ed0902f56449080600181540180825580915050600190039060005260206000200160009091909190916101000a81548173ffffffffffffffffffffffffffffffffffffffff021916908373ffffffffffffffffffffffffffffffffffffffff16021790555060016011600073ad064a0827214234e228b9213af52e5e6457e4c073ffffffffffffffffffffffffffffffffffffffff1673ffffffffffffffffffffffffffffffffffffffff16815260200190815260200160002060006101000a81548160ff021916908315150217905550601273ad064a0827214234e228b9213af52e5e6457e4c09080600181540180825580915050600190039060005260206000200160009091909190916101000a81548173ffffffffffffffffffffffffffffffffffffffff021916908373ffffffffffffffffffffffffffffffffffffffff160217905550600160116000734f931e269402cfa2cb998ef3402c7897da7bd1db73ffffffffffffffffffffffffffffffffffffffff1673ffffffffffffffffffffffffffffffffffffffff16815260200190815260200160002060006101000a81548160ff0219169083151502179055506012734f931e269402cfa2cb998ef3402c7897da7bd1db9080600181540180825580915050600190039060005260206000200160009091909190916101000a81548173ffffffffffffffffffffffffffffffffffffffff021916908373ffffffffffffffffffffffffffffffffffffffff16021790555060016013600062000e926200121260201b60201c565b73ffffffffffffffffffffffffffffffffffffffff1673ffffffffffffffffffffffffffffffffffffffff16815260200190815260200160002060006101000a81548160ff0219169083151502179055506001601360003073ffffffffffffffffffffffffffffffffffffffff1673ffffffffffffffffffffffffffffffffffffffff16815260200190815260200160002060006101000a81548160ff02191690831515021790555060016013600061dead73ffffffffffffffffffffffffffffffffffffffff1673ffffffffffffffffffffffffffffffffffffffff16815260200190815260200160002060006101000a81548160ff0219169083151502179055506001600e60006101000a81548160ff02191690831515021790555069021e19e0c9bab2400000600d8190555062000ff162000fd56200121260201b60201c565b62000fe56200123c60201b60201c565b6200124660201b60201c565b50506200218c565b6000601160008373ffffffffffffffffffffffffffffffffffffffff1673ffffffffffffffffffffffffffffffffffffffff16815260200190815260200160002060009054906101000a900460ff161562001058576000905062001090565b600f546200106c83620013b360201b60201c565b10156200107b5760006200108d565b6200108c82620013b360201b60201c565b5b90505b919050565b60008060005b6012805490508110156200112057620010fb60128281548110620010c457620010c362001e70565b5b9060005260206000200160009054906101000a900473ffffffffffffffffffffffffffffffffffffffff16620013b360201b60201c565b8262001108919062001ece565b91508080620011179062001f09565b9150506200109b565b5080620011326200123c60201b60201c565b6200113e919062001f56565b91505090565b600033905090565b6000600760009054906101000a900473ffffffffffffffffffffffffffffffffffffffff16905081600760006101000a81548173ffffffffffffffffffffffffffffffffffffffff021916908373ffffffffffffffffffffffffffffffffffffffff1602179055508173ffffffffffffffffffffffffffffffffffffffff168173ffffffffffffffffffffffffffffffffffffffff167f8be0079c531659141344cd1fd0a4f28419497f9722a3daafe3b4186f6b6457e060405160405180910390a35050565b6000600760009054906101000a900473ffffffffffffffffffffffffffffffffffffffff16905090565b6000600a54905090565b600073ffffffffffffffffffffffffffffffffffffffff168273ffffffffffffffffffffffffffffffffffffffff1603620012b8576040517f08c379a0000000000000000000000000000000000000000000000000000000008152600401620012af9062001ff2565b60405180910390fd5b620012cc60008383620013fb60201b60201c565b8060026000828254620012e0919062001ece565b92505081905550806000808473ffffffffffffffffffffffffffffffffffffffff1673ffffffffffffffffffffffffffffffffffffffff168152602001908152602001600020600082825401925050819055508173ffffffffffffffffffffffffffffffffffffffff16600073ffffffffffffffffffffffffffffffffffffffff167fddf252ad1be2c89b69c2b068fc378daa952ba7f163c4a11628f55a4df523b3ef8360405162001393919062002025565b60405180910390a3620013af60008383620014aa60201b60201c565b5050565b60008060008373ffffffffffffffffffffffffffffffffffffffff1673ffffffffffffffffffffffffffffffffffffffff168152602001908152602001600020549050919050565b601860008473ffffffffffffffffffffffffffffffffffffffff1673ffffffffffffffffffffffffffffffffffffffff16815260200190815260200160002060009054906101000a900460ff1615620014a5576200145f836200155b60201b60201c565b811115620014a4576040517f08c379a00000000000000000000000000000000000000000000000000000000081526004016200149b90620020b8565b60405180910390fd5b5b505050565b601860008473ffffffffffffffffffffffffffffffffffffffff1673ffffffffffffffffffffffffffffffffffffffff16815260200190815260200160002060009054906101000a900460ff1615620015565780601960008573ffffffffffffffffffffffffffffffffffffffff1673ffffffffffffffffffffffffffffffffffffffff16815260200190815260200160002060008282546200154e919062001ece565b925050819055505b505050565b6000601860008373ffffffffffffffffffffffffffffffffffffffff1673ffffffffffffffffffffffffffffffffffffffff16815260200190815260200160002060009054906101000a900460ff16620015c857620015c082620013b360201b60201c565b9050620018a4565b6000601660008473ffffffffffffffffffffffffffffffffffffffff1673ffffffffffffffffffffffffffffffffffffffff168152602001908152602001600020541115620016bc57620016b482601660008573ffffffffffffffffffffffffffffffffffffffff1673ffffffffffffffffffffffffffffffffffffffff168152602001908152602001600020546303c26700601760008773ffffffffffffffffffffffffffffffffffffffff1673ffffffffffffffffffffffffffffffffffffffff16815260200190815260200160002060009054906101000a900460ff16620018a960201b60201c565b9050620018a4565b6000601560008473ffffffffffffffffffffffffffffffffffffffff1673ffffffffffffffffffffffffffffffffffffffff168152602001908152602001600020541115620017b057620017a882601560008573ffffffffffffffffffffffffffffffffffffffff1673ffffffffffffffffffffffffffffffffffffffff168152602001908152602001600020546301e13380601760008773ffffffffffffffffffffffffffffffffffffffff1673ffffffffffffffffffffffffffffffffffffffff16815260200190815260200160002060009054906101000a900460ff16620018a960201b60201c565b9050620018a4565b6000601460008473ffffffffffffffffffffffffffffffffffffffff1673ffffffffffffffffffffffffffffffffffffffff168152602001908152602001600020541115620018a3576200189b82601460008573ffffffffffffffffffffffffffffffffffffffff1673ffffffffffffffffffffffffffffffffffffffff168152602001908152602001600020546276a700601760008773ffffffffffffffffffffffffffffffffffffffff1673ffffffffffffffffffffffffffffffffffffffff16815260200190815260200160002060009054906101000a900460ff16620018a960201b60201c565b9050620018a4565b5b919050565b600081620018b9576000620018be565b62ed4e005b62ffffff16601054620018d2919062001ece565b421015620018e4576000905062001a2d565b42601760008773ffffffffffffffffffffffffffffffffffffffff1673ffffffffffffffffffffffffffffffffffffffff16815260200190815260200160002060009054906101000a900460ff166200193f57600062001944565b62ed4e005b62ffffff168460105462001959919062001ece565b62001965919062001ece565b1162001984576200197c85620013b360201b60201c565b905062001a2d565b6000838562001994919062002109565b9050600083620019a6576000620019ab565b62ed4e005b62ffffff16601054620019bf919062001ece565b42620019cc919062001f56565b9050601960008873ffffffffffffffffffffffffffffffffffffffff1673ffffffffffffffffffffffffffffffffffffffff16815260200190815260200160002054828262001a1c919062002141565b62001a28919062001f56565b925050505b949350505050565b600081519050919050565b7f4e487b7100000000000000000000000000000000000000000000000000000000600052604160045260246000fd5b7f4e487b7100000000000000000000000000000000000000000000000000000000600052602260045260246000fd5b6000600282049050600182168062001ab757607f821691505b60208210810362001acd5762001acc62001a6f565b5b50919050565b60008190508160005260206000209050919050565b60006020601f8301049050919050565b600082821b905092915050565b60006008830262001b377fffffffffffffffffffffffffffffffffffffffffffffffffffffffffffffffff8262001af8565b62001b43868362001af8565b95508019841693508086168417925050509392505050565b6000819050919050565b6000819050919050565b600062001b9062001b8a62001b848462001b5b565b62001b65565b62001b5b565b9050919050565b6000819050919050565b62001bac8362001b6f565b62001bc462001bbb8262001b97565b84845462001b05565b825550505050565b600090565b62001bdb62001bcc565b62001be881848462001ba1565b505050565b5b8181101562001c105762001c0460008262001bd1565b60018101905062001bee565b5050565b601f82111562001c5f5762001c298162001ad3565b62001c348462001ae8565b8101602085101562001c44578190505b62001c5c62001c538562001ae8565b83018262001bed565b50505b505050565b600082821c905092915050565b600062001c846000198460080262001c64565b1980831691505092915050565b600062001c9f838362001c71565b9150826002028217905092915050565b62001cba8262001a35565b67ffffffffffffffff81111562001cd65762001cd562001a40565b5b62001ce2825462001a9e565b62001cef82828562001c14565b600060209050601f83116001811462001d27576000841562001d12578287015190505b62001d1e858262001c91565b86555062001d8e565b601f19841662001d378662001ad3565b60005b8281101562001d615784890151825560018201915060208501945060208101905062001d3a565b8683101562001d81578489015162001d7d601f89168262001c71565b8355505b6001600288020188555050505b505050505050565b600080fd5b600073ffffffffffffffffffffffffffffffffffffffff82169050919050565b600062001dc88262001d9b565b9050919050565b62001dda8162001dbb565b811462001de657600080fd5b50565b60008151905062001dfa8162001dcf565b92915050565b60006020828403121562001e195762001e1862001d96565b5b600062001e298482850162001de9565b91505092915050565b62001e3d8162001dbb565b82525050565b600060408201905062001e5a600083018562001e32565b62001e69602083018462001e32565b9392505050565b7f4e487b7100000000000000000000000000000000000000000000000000000000600052603260045260246000fd5b7f4e487b7100000000000000000000000000000000000000000000000000000000600052601160045260246000fd5b600062001edb8262001b5b565b915062001ee88362001b5b565b925082820190508082111562001f035762001f0262001e9f565b5b92915050565b600062001f168262001b5b565b91507fffffffffffffffffffffffffffffffffffffffffffffffffffffffffffffffff820362001f4b5762001f4a62001e9f565b5b600182019050919050565b600062001f638262001b5b565b915062001f708362001b5b565b925082820390508181111562001f8b5762001f8a62001e9f565b5b92915050565b600082825260208201905092915050565b7f45524332303a206d696e7420746f20746865207a65726f206164647265737300600082015250565b600062001fda601f8362001f91565b915062001fe78262001fa2565b602082019050919050565b600060208201905081810360008301526200200d8162001fcb565b9050919050565b6200201f8162001b5b565b82525050565b60006020820190506200203c600083018462002014565b92915050565b7f43616e277420757365206d6f7265207468616e20617661696c61626c6520616d60008201527f6f756e7400000000000000000000000000000000000000000000000000000000602082015250565b6000620020a060248362001f91565b9150620020ad8262002042565b604082019050919050565b60006020820190508181036000830152620020d38162002091565b9050919050565b7f4e487b7100000000000000000000000000000000000000000000000000000000600052601260045260246000fd5b6000620021168262001b5b565b9150620021238362001b5b565b925082620021365762002135620020da565b5b828204905092915050565b60006200214e8262001b5b565b91506200215b8362001b5b565b92508282026200216b8162001b5b565b9150828204841483151762002185576200218462001e9f565b5b5092915050565b60805160a05160c0516162e0620021df6000396000818161118701528181612abb01528181612b55015281816143a20152818161441301526145740152600061466501526000610cf401526162e06000f3fe6080604052600436106102cd5760003560e01c80637e245d7911610175578063c0246668116100dc578063eba4c33311610095578063f2fde38b1161006f578063f2fde38b14610b4b578063f55d09a714610b74578063f7c618c114610b9d578063f9d0831a14610bc8576102d4565b8063eba4c33314610abc578063ec19b2f614610ae5578063ee85348e14610b0e576102d4565b8063c02466681461099a578063c0f306ef146109c3578063c12614cd146109ec578063d8e56bc014610a29578063dd62ed3e14610a54578063e2f4560514610a91576102d4565b80639d7ceafb1161012e5780639d7ceafb1461087a578063a457c2d7146108a3578063a83ac89b146108e0578063a9059cbb146108f7578063afa4f3b214610934578063b131e6101461095d576102d4565b80637e245d791461076857806383cd10ff146107935780638da5cb5b146107bc5780639267f61c146107e757806395d89b411461082457806396e0eb951461084f576102d4565b8063395093511161023457806353f83ad7116101ed5780636ddd1713116101c75780636ddd1713146106c057806370a08231146106eb578063715018a614610728578063756af45f1461073f576102d4565b806353f83ad7146106435780635ef460221461068057806365b8dbc014610697576102d4565b8063395093511461050d578063467abe0a1461054a578063470624021461057357806349bd5a5e1461059e5780634fbee193146105c95780634fe038fc14610606576102d4565b806323b872dd1161028657806323b872dd1461041157806323bdf0211461044e5780632b14ca56146104775780632e92abdd146104a2578063313ce567146104b957806331e79db0146104e4576102d4565b806306fdde03146102d9578063095ea7b3146103045780631694505e1461034157806318160ddd1461036c5780631a60b63d146103975780631f3a71ba146103d4576102d4565b366102d457005b600080fd5b3480156102e557600080fd5b506102ee610bf1565b6040516102fb9190614807565b60405180910390f35b34801561031057600080fd5b5061032b600480360381019061032691906148c2565b610c83565b604051610338919061491d565b60405180910390f35b34801561034d57600080fd5b50610356610ca6565b6040516103639190614997565b60405180910390f35b34801561037857600080fd5b50610381610ccc565b60405161038e91906149c1565b60405180910390f35b3480156103a357600080fd5b506103be60048036038101906103b991906149dc565b610cd6565b6040516103cb91906149c1565b60405180910390f35b3480156103e057600080fd5b506103fb60048036038101906103f691906149dc565b610d3d565b60405161040891906149c1565b60405180910390f35b34801561041d57600080fd5b5061043860048036038101906104339190614a09565b611063565b604051610445919061491d565b60405180910390f35b34801561045a57600080fd5b5061047560048036038101906104709190614a5c565b611092565b005b34801561048357600080fd5b5061048c61112c565b60405161049991906149c1565b60405180910390f35b3480156104ae57600080fd5b506104b7611132565b005b3480156104c557600080fd5b506104ce6111fe565b6040516104db9190614aa5565b60405180910390f35b3480156104f057600080fd5b5061050b600480360381019061050691906149dc565b611207565b005b34801561051957600080fd5b50610534600480360381019061052f91906148c2565b6113a9565b604051610541919061491d565b60405180910390f35b34801561055657600080fd5b50610571600480360381019061056c9190614a5c565b6113e0565b005b34801561057f57600080fd5b5061058861146f565b60405161059591906149c1565b60405180910390f35b3480156105aa57600080fd5b506105b3611475565b6040516105c09190614acf565b60405180910390f35b3480156105d557600080fd5b506105f060048036038101906105eb91906149dc565b61149b565b6040516105fd919061491d565b60405180910390f35b34801561061257600080fd5b5061062d600480360381019061062891906149dc565b6114f1565b60405161063a91906149c1565b60405180910390f35b34801561064f57600080fd5b5061066a600480360381019061066591906149dc565b61153a565b60405161067791906149c1565b60405180910390f35b34801561068c57600080fd5b50610695611583565b005b3480156106a357600080fd5b506106be60048036038101906106b991906149dc565b6115b7565b005b3480156106cc57600080fd5b506106d5611c6b565b6040516106e2919061491d565b60405180910390f35b3480156106f757600080fd5b50610712600480360381019061070d91906149dc565b611c7e565b60405161071f91906149c1565b60405180910390f35b34801561073457600080fd5b5061073d611cc6565b005b34801561074b57600080fd5b50610766600480360381019061076191906149dc565b611cda565b005b34801561077457600080fd5b5061077d611d32565b60405161078a91906149c1565b60405180910390f35b34801561079f57600080fd5b506107ba60048036038101906107b59190614b16565b611d38565b005b3480156107c857600080fd5b506107d161200e565b6040516107de9190614acf565b60405180910390f35b3480156107f357600080fd5b5061080e600480360381019061080991906149dc565b612038565b60405161081b91906149c1565b60405180910390f35b34801561083057600080fd5b50610839612050565b6040516108469190614807565b60405180910390f35b34801561085b57600080fd5b506108646120e2565b60405161087191906149c1565b60405180910390f35b34801561088657600080fd5b506108a1600480360381019061089c9190614a5c565b6120e8565b005b3480156108af57600080fd5b506108ca60048036038101906108c591906148c2565b612153565b6040516108d7919061491d565b60405180910390f35b3480156108ec57600080fd5b506108f56121ca565b005b34801561090357600080fd5b5061091e600480360381019061091991906148c2565b6121ef565b60405161092b919061491d565b60405180910390f35b34801561094057600080fd5b5061095b60048036038101906109569190614a5c565b612212565b005b34801561096957600080fd5b50610984600480360381019061097f91906149dc565b61227b565b60405161099191906149c1565b60405180910390f35b3480156109a657600080fd5b506109c160048036038101906109bc9190614b7d565b6122de565b005b3480156109cf57600080fd5b506109ea60048036038101906109e591906149dc565b612421565b005b3480156109f857600080fd5b50610a136004803603810190610a0e91906149dc565b6126ec565b604051610a2091906149c1565b60405180910390f35b348015610a3557600080fd5b50610a3e612704565b604051610a4b91906149c1565b60405180910390f35b348015610a6057600080fd5b50610a7b6004803603810190610a769190614bbd565b612798565b604051610a8891906149c1565b60405180910390f35b348015610a9d57600080fd5b50610aa661281f565b604051610ab391906149c1565b60405180910390f35b348015610ac857600080fd5b50610ae36004803603810190610ade9190614a5c565b612825565b005b348015610af157600080fd5b50610b0c6004803603810190610b079190614b7d565b6128b2565b005b348015610b1a57600080fd5b50610b356004803603810190610b3091906149dc565b612915565b604051610b4291906149c1565b60405180910390f35b348015610b5757600080fd5b50610b726004803603810190610b6d91906149dc565b61299d565b005b348015610b8057600080fd5b50610b9b6004803603810190610b969190614a5c565b612a20565b005b348015610ba957600080fd5b50610bb2612ab9565b604051610bbf9190614acf565b60405180910390f35b348015610bd457600080fd5b50610bef6004803603810190610bea91906149dc565b612add565b005b606060038054610c0090614c2c565b80601f0160208091040260200160405190810160405280929190818152602001828054610c2c90614c2c565b8015610c795780601f10610c4e57610100808354040283529160200191610c79565b820191906000526020600020905b815481529060010190602001808311610c5c57829003601f168201915b5050505050905090565b600080610c8e612c74565b9050610c9b818585612c7c565b600191505092915050565b600b60009054906101000a900473ffffffffffffffffffffffffffffffffffffffff1681565b6000600a54905090565b60006fffffffffffffffffffffffffffffffff8016610d2c610d1b847f000000000000000000000000000000000000000000000000000000000000000063ffffffff16565b600554612e4590919063ffffffff16565b610d369190614cbb565b9050919050565b6000601860008373ffffffffffffffffffffffffffffffffffffffff1673ffffffffffffffffffffffffffffffffffffffff16815260200190815260200160002060009054906101000a900460ff16610da057610d9982611c7e565b905061105e565b6000601660008473ffffffffffffffffffffffffffffffffffffffff1673ffffffffffffffffffffffffffffffffffffffff168152602001908152602001600020541115610e8a57610e8382601660008573ffffffffffffffffffffffffffffffffffffffff1673ffffffffffffffffffffffffffffffffffffffff168152602001908152602001600020546303c26700601760008773ffffffffffffffffffffffffffffffffffffffff1673ffffffffffffffffffffffffffffffffffffffff16815260200190815260200160002060009054906101000a900460ff16612e7c565b905061105e565b6000601560008473ffffffffffffffffffffffffffffffffffffffff1673ffffffffffffffffffffffffffffffffffffffff168152602001908152602001600020541115610f7457610f6d82601560008573ffffffffffffffffffffffffffffffffffffffff1673ffffffffffffffffffffffffffffffffffffffff168152602001908152602001600020546301e13380601760008773ffffffffffffffffffffffffffffffffffffffff1673ffffffffffffffffffffffffffffffffffffffff16815260200190815260200160002060009054906101000a900460ff16612e7c565b905061105e565b6000601460008473ffffffffffffffffffffffffffffffffffffffff1673ffffffffffffffffffffffffffffffffffffffff16815260200190815260200160002054111561105d5761105682601460008573ffffffffffffffffffffffffffffffffffffffff1673ffffffffffffffffffffffffffffffffffffffff168152602001908152602001600020546276a700601760008773ffffffffffffffffffffffffffffffffffffffff1673ffffffffffffffffffffffffffffffffffffffff16815260200190815260200160002060009054906101000a900460ff16612e7c565b905061105e565b5b919050565b60008061106e612c74565b905061107b858285612fe6565b611086858585613072565b60019150509392505050565b61109a613785565b600081116110dd576040517f08c379a00000000000000000000000000000000000000000000000000000000081526004016110d490614d38565b60405180910390fd5b6103e8811115611122576040517f08c379a000000000000000000000000000000000000000000000000000000000815260040161111990614dca565b60405180910390fd5b80601d8190555050565b60095481565b600061113d33613803565b905060008111611182576040517f08c379a000000000000000000000000000000000000000000000000000000000815260040161117990614e36565b60405180910390fd5b6111ad7f00000000000000000000000000000000000000000000000000000000000000003383613907565b3373ffffffffffffffffffffffffffffffffffffffff167f08d688a92fc311df9b853769e8a99b320411042a86f106fd29e7f21ee06e79da826040516111f391906149c1565b60405180910390a250565b60006012905090565b61120f613785565b601160008273ffffffffffffffffffffffffffffffffffffffff1673ffffffffffffffffffffffffffffffffffffffff16815260200190815260200160002060009054906101000a900460ff161561129c576040517f08c379a000000000000000000000000000000000000000000000000000000000815260040161129390614ea2565b60405180910390fd5b6001601160008373ffffffffffffffffffffffffffffffffffffffff1673ffffffffffffffffffffffffffffffffffffffff16815260200190815260200160002060006101000a81548160ff0219169083151502179055506012819080600181540180825580915050600190039060005260206000200160009091909190916101000a81548173ffffffffffffffffffffffffffffffffffffffff021916908373ffffffffffffffffffffffffffffffffffffffff1602179055508073ffffffffffffffffffffffffffffffffffffffff167fa3c7c11b2e12c4144b09a7813f3393ba646392788638998c97be8da908cf04be600160405161139e919061491d565b60405180910390a250565b6000806113b4612c74565b90506113d58185856113c68589612798565b6113d09190614ec2565b612c7c565b600191505092915050565b6113e8613785565b600f81111561142c576040517f08c379a000000000000000000000000000000000000000000000000000000000815260040161142390614f42565b60405180910390fd5b806008819055507fa480a3a15a511fbdc37ae77ae3f490e03ab3688adde11456ce779e6c1e0abaa260085460405161146491906149c1565b60405180910390a150565b60085481565b600c60009054906101000a900473ffffffffffffffffffffffffffffffffffffffff1681565b6000601360008373ffffffffffffffffffffffffffffffffffffffff1673ffffffffffffffffffffffffffffffffffffffff16815260200190815260200160002060009054906101000a900460ff169050919050565b6000601960008373ffffffffffffffffffffffffffffffffffffffff1673ffffffffffffffffffffffffffffffffffffffff168152602001908152602001600020549050919050565b6000600660008373ffffffffffffffffffffffffffffffffffffffff1673ffffffffffffffffffffffffffffffffffffffff168152602001908152602001600020549050919050565b61158b613785565b600e60009054906101000a900460ff1615600e60006101000a81548160ff021916908315150217905550565b6115bf613785565b600b60009054906101000a900473ffffffffffffffffffffffffffffffffffffffff1673ffffffffffffffffffffffffffffffffffffffff168173ffffffffffffffffffffffffffffffffffffffff160361164f576040517f08c379a000000000000000000000000000000000000000000000000000000000815260040161164690614fd4565b60405180910390fd5b8073ffffffffffffffffffffffffffffffffffffffff167f0c36f1f3a0f38cd9563b52fb110cc5b0fa22c509defc16728a6a42f1bddad22960405160405180910390a280600b60006101000a81548173ffffffffffffffffffffffffffffffffffffffff021916908373ffffffffffffffffffffffffffffffffffffffff160217905550600073ffffffffffffffffffffffffffffffffffffffff16600b60009054906101000a900473ffffffffffffffffffffffffffffffffffffffff1673ffffffffffffffffffffffffffffffffffffffff1663c45a01556040518163ffffffff1660e01b8152600401602060405180830381865afa158015611758573d6000803e3d6000fd5b505050506040513d601f19601f8201168201806040525081019061177c9190615009565b73ffffffffffffffffffffffffffffffffffffffff1663e6a4390530600b60009054906101000a900473ffffffffffffffffffffffffffffffffffffffff1673ffffffffffffffffffffffffffffffffffffffff1663ad5c46486040518163ffffffff1660e01b8152600401602060405180830381865afa158015611805573d6000803e3d6000fd5b505050506040513d601f19601f820116820180604052508101906118299190615009565b6040518363ffffffff1660e01b8152600401611846929190615036565b602060405180830381865afa158015611863573d6000803e3d6000fd5b505050506040513d601f19601f820116820180604052508101906118879190615009565b73ffffffffffffffffffffffffffffffffffffffff1603611a8b576000600b60009054906101000a900473ffffffffffffffffffffffffffffffffffffffff1673ffffffffffffffffffffffffffffffffffffffff1663c45a01556040518163ffffffff1660e01b8152600401602060405180830381865afa158015611911573d6000803e3d6000fd5b505050506040513d601f19601f820116820180604052508101906119359190615009565b73ffffffffffffffffffffffffffffffffffffffff1663c9c6539630600b60009054906101000a900473ffffffffffffffffffffffffffffffffffffffff1673ffffffffffffffffffffffffffffffffffffffff1663ad5c46486040518163ffffffff1660e01b8152600401602060405180830381865afa1580156119be573d6000803e3d6000fd5b505050506040513d601f19601f820116820180604052508101906119e29190615009565b6040518363ffffffff1660e01b81526004016119ff929190615036565b6020604051808303816000875af1158015611a1e573d6000803e3d6000fd5b505050506040513d601f19601f82011682018060405250810190611a429190615009565b905080600c60006101000a81548173ffffffffffffffffffffffffffffffffffffffff021916908373ffffffffffffffffffffffffffffffffffffffff16021790555050611c68565b600b60009054906101000a900473ffffffffffffffffffffffffffffffffffffffff1673ffffffffffffffffffffffffffffffffffffffff1663c45a01556040518163ffffffff1660e01b8152600401602060405180830381865afa158015611af8573d6000803e3d6000fd5b505050506040513d601f19601f82011682018060405250810190611b1c9190615009565b73ffffffffffffffffffffffffffffffffffffffff1663e6a4390530600b60009054906101000a900473ffffffffffffffffffffffffffffffffffffffff1673ffffffffffffffffffffffffffffffffffffffff1663ad5c46486040518163ffffffff1660e01b8152600401602060405180830381865afa158015611ba5573d6000803e3d6000fd5b505050506040513d601f19601f82011682018060405250810190611bc99190615009565b6040518363ffffffff1660e01b8152600401611be6929190615036565b602060405180830381865afa158015611c03573d6000803e3d6000fd5b505050506040513d601f19601f82011682018060405250810190611c279190615009565b600c60006101000a81548173ffffffffffffffffffffffffffffffffffffffff021916908373ffffffffffffffffffffffffffffffffffffffff1602179055505b50565b600e60009054906101000a900460ff1681565b60008060008373ffffffffffffffffffffffffffffffffffffffff1673ffffffffffffffffffffffffffffffffffffffff168152602001908152602001600020549050919050565b611cce613785565b611cd86000613a3d565b565b611ce2613785565b60004711611d25576040517f08c379a0000000000000000000000000000000000000000000000000000000008152600401611d1c90614e36565b60405180910390fd5b611d2f8147613b03565b50565b60055481565b611d40613785565b6003821480611d4f5750600c82145b80611d5a5750601882145b611d99576040517f08c379a0000000000000000000000000000000000000000000000000000000008152600401611d90906150ab565b60405180910390fd5b6000611da485611c7e565b14611de4576040517f08c379a0000000000000000000000000000000000000000000000000000000008152600401611ddb90615117565b60405180910390fd5b601860008573ffffffffffffffffffffffffffffffffffffffff1673ffffffffffffffffffffffffffffffffffffffff16815260200190815260200160002060009054906101000a900460ff1615611e71576040517f08c379a0000000000000000000000000000000000000000000000000000000008152600401611e6890615183565b60405180910390fd5b60038203611ec25782601460008673ffffffffffffffffffffffffffffffffffffffff1673ffffffffffffffffffffffffffffffffffffffff16815260200190815260200160002081905550611f59565b600c8203611f135782601560008673ffffffffffffffffffffffffffffffffffffffff1673ffffffffffffffffffffffffffffffffffffffff16815260200190815260200160002081905550611f58565b82601660008673ffffffffffffffffffffffffffffffffffffffff1673ffffffffffffffffffffffffffffffffffffffff168152602001908152602001600020819055505b5b80601760008673ffffffffffffffffffffffffffffffffffffffff1673ffffffffffffffffffffffffffffffffffffffff16815260200190815260200160002060006101000a81548160ff0219169083151502179055506001601860008673ffffffffffffffffffffffffffffffffffffffff1673ffffffffffffffffffffffffffffffffffffffff16815260200190815260200160002060006101000a81548160ff02191690831515021790555050505050565b6000600760009054906101000a900473ffffffffffffffffffffffffffffffffffffffff16905090565b601c6020528060005260406000206000915090505481565b60606004805461205f90614c2c565b80601f016020809104026020016040519081016040528092919081815260200182805461208b90614c2c565b80156120d85780601f106120ad576101008083540402835291602001916120d8565b820191906000526020600020905b8154815290600101906020018083116120bb57829003601f168201915b5050505050905090565b600f5481565b6120f0613785565b60008111801561210a575069d3c21bcecceda10000008111155b612149576040517f08c379a0000000000000000000000000000000000000000000000000000000008152600401612140906151ef565b60405180910390fd5b80600f8190555050565b60008061215e612c74565b9050600061216c8286612798565b9050838110156121b1576040517f08c379a00000000000000000000000000000000000000000000000000000000081526004016121a890615281565b60405180910390fd5b6121be8286868403612c7c565b60019250505092915050565b6121d2613785565b6001601a60006101000a81548160ff021916908315150217905550565b6000806121fa612c74565b9050612207818585613072565b600191505092915050565b61221a613785565b620f4240612226610ccc565b6122309190614cbb565b8111612271576040517f08c379a000000000000000000000000000000000000000000000000000000000815260040161226890615313565b60405180910390fd5b80600d8190555050565b60006122d7600660008473ffffffffffffffffffffffffffffffffffffffff1673ffffffffffffffffffffffffffffffffffffffff168152602001908152602001600020546122c984610cd6565b613c0390919063ffffffff16565b9050919050565b6122e6613785565b801515601360008473ffffffffffffffffffffffffffffffffffffffff1673ffffffffffffffffffffffffffffffffffffffff16815260200190815260200160002060009054906101000a900460ff16151503612378576040517f08c379a000000000000000000000000000000000000000000000000000000000815260040161236f906153a5565b60405180910390fd5b80601360008473ffffffffffffffffffffffffffffffffffffffff1673ffffffffffffffffffffffffffffffffffffffff16815260200190815260200160002060006101000a81548160ff0219169083151502179055508173ffffffffffffffffffffffffffffffffffffffff167f9d8f7706ea1113d1a167b526eca956215946dd36cc7df39eb16180222d8b5df782604051612415919061491d565b60405180910390a25050565b612429613785565b601160008273ffffffffffffffffffffffffffffffffffffffff1673ffffffffffffffffffffffffffffffffffffffff16815260200190815260200160002060009054906101000a900460ff166124b5576040517f08c379a00000000000000000000000000000000000000000000000000000000081526004016124ac90615411565b60405180910390fd5b60005b601280549050811015612699578173ffffffffffffffffffffffffffffffffffffffff16601282815481106124f0576124ef615431565b5b9060005260206000200160009054906101000a900473ffffffffffffffffffffffffffffffffffffffff1673ffffffffffffffffffffffffffffffffffffffff1603612686576012600160128054905061254a9190615460565b8154811061255b5761255a615431565b5b9060005260206000200160009054906101000a900473ffffffffffffffffffffffffffffffffffffffff166012828154811061259a57612599615431565b5b9060005260206000200160006101000a81548173ffffffffffffffffffffffffffffffffffffffff021916908373ffffffffffffffffffffffffffffffffffffffff1602179055506000601160008473ffffffffffffffffffffffffffffffffffffffff1673ffffffffffffffffffffffffffffffffffffffff16815260200190815260200160002060006101000a81548160ff021916908315150217905550601280548061264c5761264b615494565b5b6001900381819060005260206000200160006101000a81549073ffffffffffffffffffffffffffffffffffffffff02191690559055612699565b8080612691906154c3565b9150506124b8565b508073ffffffffffffffffffffffffffffffffffffffff167fa3c7c11b2e12c4144b09a7813f3393ba646392788638998c97be8da908cf04be60006040516126e1919061491d565b60405180910390a250565b60196020528060005260406000206000915090505481565b60008060005b60128054905081101561277e5761275e6012828154811061272e5761272d615431565b5b9060005260206000200160009054906101000a900473ffffffffffffffffffffffffffffffffffffffff16611c7e565b826127699190614ec2565b91508080612776906154c3565b91505061270a565b5080612788610ccc565b6127929190615460565b91505090565b6000600160008473ffffffffffffffffffffffffffffffffffffffff1673ffffffffffffffffffffffffffffffffffffffff16815260200190815260200160002060008373ffffffffffffffffffffffffffffffffffffffff1673ffffffffffffffffffffffffffffffffffffffff16815260200190815260200160002054905092915050565b600d5481565b61282d613785565b600f811115612871576040517f08c379a000000000000000000000000000000000000000000000000000000000815260040161286890615557565b60405180910390fd5b806009819055507f7d59573ec4acab62b908b5c1cde109eb12273d011506abaa850256636a42d54a816040516128a791906149c1565b60405180910390a150565b6128ba613785565b80601b60008473ffffffffffffffffffffffffffffffffffffffff1673ffffffffffffffffffffffffffffffffffffffff16815260200190815260200160002060006101000a81548160ff0219169083151502179055505050565b6000601160008373ffffffffffffffffffffffffffffffffffffffff1673ffffffffffffffffffffffffffffffffffffffff16815260200190815260200160002060009054906101000a900460ff16156129725760009050612998565b600f5461297e83611c7e565b101561298b576000612995565b61299482611c7e565b5b90505b919050565b6129a5613785565b600073ffffffffffffffffffffffffffffffffffffffff168173ffffffffffffffffffffffffffffffffffffffff1603612a14576040517f08c379a0000000000000000000000000000000000000000000000000000000008152600401612a0b906155e9565b60405180910390fd5b612a1d81613a3d565b50565b612a28613785565b600060105414612a6d576040517f08c379a0000000000000000000000000000000000000000000000000000000008152600401612a649061567b565b60405180910390fd5b428111612aaf576040517f08c379a0000000000000000000000000000000000000000000000000000000008152600401612aa6906156e7565b60405180910390fd5b8060108190555050565b7f000000000000000000000000000000000000000000000000000000000000000081565b612ae5613785565b3073ffffffffffffffffffffffffffffffffffffffff168173ffffffffffffffffffffffffffffffffffffffff1603612b53576040517f08c379a0000000000000000000000000000000000000000000000000000000008152600401612b4a90615753565b60405180910390fd5b7f000000000000000000000000000000000000000000000000000000000000000073ffffffffffffffffffffffffffffffffffffffff168173ffffffffffffffffffffffffffffffffffffffff1603612be1576040517f08c379a0000000000000000000000000000000000000000000000000000000008152600401612bd8906157e5565b60405180910390fd5b600081905060008173ffffffffffffffffffffffffffffffffffffffff166370a08231306040518263ffffffff1660e01b8152600401612c219190614acf565b602060405180830381865afa158015612c3e573d6000803e3d6000fd5b505050506040513d601f19601f82011682018060405250810190612c62919061581a565b9050612c6f833383613907565b505050565b600033905090565b600073ffffffffffffffffffffffffffffffffffffffff168373ffffffffffffffffffffffffffffffffffffffff1603612ceb576040517f08c379a0000000000000000000000000000000000000000000000000000000008152600401612ce2906158b9565b60405180910390fd5b600073ffffffffffffffffffffffffffffffffffffffff168273ffffffffffffffffffffffffffffffffffffffff1603612d5a576040517f08c379a0000000000000000000000000000000000000000000000000000000008152600401612d519061594b565b60405180910390fd5b80600160008573ffffffffffffffffffffffffffffffffffffffff1673ffffffffffffffffffffffffffffffffffffffff16815260200190815260200160002060008473ffffffffffffffffffffffffffffffffffffffff1673ffffffffffffffffffffffffffffffffffffffff168152602001908152602001600020819055508173ffffffffffffffffffffffffffffffffffffffff168373ffffffffffffffffffffffffffffffffffffffff167f8c5be1e5ebec7d5bd14f71427d1e84f3dd0314c0f7b2291e5b200ac8c7c3b92583604051612e3891906149c1565b60405180910390a3505050565b600080831480612e6d575081838385612e5e919061596b565b925082612e6b9190614cbb565b145b612e7657600080fd5b92915050565b600081612e8a576000612e8f565b62ed4e005b62ffffff16601054612ea19190614ec2565b421015612eb15760009050612fde565b42601760008773ffffffffffffffffffffffffffffffffffffffff1673ffffffffffffffffffffffffffffffffffffffff16815260200190815260200160002060009054906101000a900460ff16612f0a576000612f0f565b62ed4e005b62ffffff1684601054612f229190614ec2565b612f2c9190614ec2565b11612f4157612f3a85611c7e565b9050612fde565b60008385612f4f9190614cbb565b9050600083612f5f576000612f64565b62ed4e005b62ffffff16601054612f769190614ec2565b42612f819190615460565b9050601960008873ffffffffffffffffffffffffffffffffffffffff1673ffffffffffffffffffffffffffffffffffffffff168152602001908152602001600020548282612fcf919061596b565b612fd99190615460565b925050505b949350505050565b6000612ff28484612798565b90507fffffffffffffffffffffffffffffffffffffffffffffffffffffffffffffffff811461306c578181101561305e576040517f08c379a0000000000000000000000000000000000000000000000000000000008152600401613055906159f9565b60405180910390fd5b61306b8484848403612c7c565b5b50505050565b600073ffffffffffffffffffffffffffffffffffffffff168373ffffffffffffffffffffffffffffffffffffffff16036130e1576040517f08c379a00000000000000000000000000000000000000000000000000000000081526004016130d890615a8b565b60405180910390fd5b600073ffffffffffffffffffffffffffffffffffffffff168273ffffffffffffffffffffffffffffffffffffffff1603613150576040517f08c379a000000000000000000000000000000000000000000000000000000000815260040161314790615b1d565b60405180910390fd5b600081036131695761316483836000613c26565b613780565b601a60009054906101000a900460ff1680156131cf5750601b60008473ffffffffffffffffffffffffffffffffffffffff1673ffffffffffffffffffffffffffffffffffffffff16815260200190815260200160002060009054906101000a900460ff16155b15613484576131dc61200e565b73ffffffffffffffffffffffffffffffffffffffff168373ffffffffffffffffffffffffffffffffffffffff161415801561324a575061321a61200e565b73ffffffffffffffffffffffffffffffffffffffff168273ffffffffffffffffffffffffffffffffffffffff1614155b156132b4576103e8601d5461325d610ccc565b613267919061596b565b6132719190614cbb565b8111156132b3576040517f08c379a00000000000000000000000000000000000000000000000000000000081526004016132aa90615baf565b60405180910390fd5b5b600c60009054906101000a900473ffffffffffffffffffffffffffffffffffffffff1673ffffffffffffffffffffffffffffffffffffffff168273ffffffffffffffffffffffffffffffffffffffff16148061335d5750600b60009054906101000a900473ffffffffffffffffffffffffffffffffffffffff1673ffffffffffffffffffffffffffffffffffffffff168273ffffffffffffffffffffffffffffffffffffffff16145b1561348357600061336d84611c7e565b905060006103e8600561337e610ccc565b613388919061596b565b6133929190614cbb565b9050808211156134805760004290506005836133ae9190614cbb565b84106133ef576040517f08c379a00000000000000000000000000000000000000000000000000000000081526004016133e690615c67565b60405180910390fd5b62015180601c60008873ffffffffffffffffffffffffffffffffffffffff1673ffffffffffffffffffffffffffffffffffffffff168152602001908152602001600020548261343e9190615460565b1161347e576040517f08c379a000000000000000000000000000000000000000000000000000000000815260040161347590615cf9565b60405180910390fd5b505b50505b5b600061348f30611c7e565b90506000600d548210159050600e60009054906101000a900460ff1680156134b45750805b80156134cd5750600e60019054906101000a900460ff16155b15613512576001600e60016101000a81548160ff0219169083151502179055506134f682613e9c565b6000600e60016101000a81548160ff0219169083151502179055505b6000600e60019054906101000a900460ff16159050601360008773ffffffffffffffffffffffffffffffffffffffff1673ffffffffffffffffffffffffffffffffffffffff16815260200190815260200160002060009054906101000a900460ff16806135c85750601360008673ffffffffffffffffffffffffffffffffffffffff1673ffffffffffffffffffffffffffffffffffffffff16815260200190815260200160002060009054906101000a900460ff165b156135d257600090505b600c60009054906101000a900473ffffffffffffffffffffffffffffffffffffffff1673ffffffffffffffffffffffffffffffffffffffff168673ffffffffffffffffffffffffffffffffffffffff161415801561367e5750600c60009054906101000a900473ffffffffffffffffffffffffffffffffffffffff1673ffffffffffffffffffffffffffffffffffffffff168573ffffffffffffffffffffffffffffffffffffffff1614155b1561368857600090505b8015613771576000600c60009054906101000a900473ffffffffffffffffffffffffffffffffffffffff1673ffffffffffffffffffffffffffffffffffffffff168773ffffffffffffffffffffffffffffffffffffffff16036136ef576008549050613739565b600954905042601c60008973ffffffffffffffffffffffffffffffffffffffff1673ffffffffffffffffffffffffffffffffffffffff168152602001908152602001600020819055505b600060648287613749919061596b565b6137539190614cbb565b905080866137619190615460565b955061376e883083613c26565b50505b61377c868686613c26565b5050505b505050565b61378d612c74565b73ffffffffffffffffffffffffffffffffffffffff166137ab61200e565b73ffffffffffffffffffffffffffffffffffffffff1614613801576040517f08c379a00000000000000000000000000000000000000000000000000000000081526004016137f890615d65565b60405180910390fd5b565b60008061380f8361227b565b905060008111156138fe5761386c81600660008673ffffffffffffffffffffffffffffffffffffffff1673ffffffffffffffffffffffffffffffffffffffff168152602001908152602001600020546140ff90919063ffffffff16565b600660008573ffffffffffffffffffffffffffffffffffffffff1673ffffffffffffffffffffffffffffffffffffffff168152602001908152602001600020819055508273ffffffffffffffffffffffffffffffffffffffff167f08d688a92fc311df9b853769e8a99b320411042a86f106fd29e7f21ee06e79da826040516138f591906149c1565b60405180910390a25b80915050919050565b6000808473ffffffffffffffffffffffffffffffffffffffff1663a9059cbb8585604051602401613939929190615d85565b6040516020818303038152906040529060e01b6020820180517bffffffffffffffffffffffffffffffffffffffffffffffffffffffff83818316178352505050506040516139879190615df5565b6000604051808303816000865af19150503d80600081146139c4576040519150601f19603f3d011682016040523d82523d6000602084013e6139c9565b606091505b50915091508180156139f757506000815114806139f65750808060200190518101906139f59190615e21565b5b5b613a36576040517f08c379a0000000000000000000000000000000000000000000000000000000008152600401613a2d90615e9a565b60405180910390fd5b5050505050565b6000600760009054906101000a900473ffffffffffffffffffffffffffffffffffffffff16905081600760006101000a81548173ffffffffffffffffffffffffffffffffffffffff021916908373ffffffffffffffffffffffffffffffffffffffff1602179055508173ffffffffffffffffffffffffffffffffffffffff168173ffffffffffffffffffffffffffffffffffffffff167f8be0079c531659141344cd1fd0a4f28419497f9722a3daafe3b4186f6b6457e060405160405180910390a35050565b60008273ffffffffffffffffffffffffffffffffffffffff1682600067ffffffffffffffff811115613b3857613b37615eba565b5b6040519080825280601f01601f191660200182016040528015613b6a5781602001600182028036833780820191505090505b50604051613b789190615df5565b60006040518083038185875af1925050503d8060008114613bb5576040519150601f19603f3d011682016040523d82523d6000602084013e613bba565b606091505b5050905080613bfe576040517f08c379a0000000000000000000000000000000000000000000000000000000008152600401613bf590615f5b565b60405180910390fd5b505050565b6000828284613c129190615460565b9150811115613c2057600080fd5b92915050565b600073ffffffffffffffffffffffffffffffffffffffff168373ffffffffffffffffffffffffffffffffffffffff1603613c95576040517f08c379a0000000000000000000000000000000000000000000000000000000008152600401613c8c90615a8b565b60405180910390fd5b600073ffffffffffffffffffffffffffffffffffffffff168273ffffffffffffffffffffffffffffffffffffffff1603613d04576040517f08c379a0000000000000000000000000000000000000000000000000000000008152600401613cfb90615b1d565b60405180910390fd5b613d0f838383614122565b60008060008573ffffffffffffffffffffffffffffffffffffffff1673ffffffffffffffffffffffffffffffffffffffff16815260200190815260200160002054905081811015613d95576040517f08c379a0000000000000000000000000000000000000000000000000000000008152600401613d8c90615fed565b60405180910390fd5b8181036000808673ffffffffffffffffffffffffffffffffffffffff1673ffffffffffffffffffffffffffffffffffffffff16815260200190815260200160002081905550816000808573ffffffffffffffffffffffffffffffffffffffff1673ffffffffffffffffffffffffffffffffffffffff168152602001908152602001600020600082825401925050819055508273ffffffffffffffffffffffffffffffffffffffff168473ffffffffffffffffffffffffffffffffffffffff167fddf252ad1be2c89b69c2b068fc378daa952ba7f163c4a11628f55a4df523b3ef84604051613e8391906149c1565b60405180910390a3613e968484846141c5565b50505050565b6000600267ffffffffffffffff811115613eb957613eb8615eba565b5b604051908082528060200260200182016040528015613ee75781602001602082028036833780820191505090505b5090503081600081518110613eff57613efe615431565b5b602002602001019073ffffffffffffffffffffffffffffffffffffffff16908173ffffffffffffffffffffffffffffffffffffffff1681525050600b60009054906101000a900473ffffffffffffffffffffffffffffffffffffffff1673ffffffffffffffffffffffffffffffffffffffff1663ad5c46486040518163ffffffff1660e01b8152600401602060405180830381865afa158015613fa6573d6000803e3d6000fd5b505050506040513d601f19601f82011682018060405250810190613fca9190615009565b81600181518110613fde57613fdd615431565b5b602002602001019073ffffffffffffffffffffffffffffffffffffffff16908173ffffffffffffffffffffffffffffffffffffffff1681525050600047905061404a30600b60009054906101000a900473ffffffffffffffffffffffffffffffffffffffff1685612c7c565b600b60009054906101000a900473ffffffffffffffffffffffffffffffffffffffff1673ffffffffffffffffffffffffffffffffffffffff1663791ac9478460008530426040518663ffffffff1660e01b81526004016140ae959493929190616106565b600060405180830381600087803b1580156140c857600080fd5b505af11580156140dc573d6000803e3d6000fd5b50505050600081476140ee9190615460565b90506140f981614273565b50505050565b600082828461410e9190614ec2565b915081101561411c57600080fd5b92915050565b601860008473ffffffffffffffffffffffffffffffffffffffff1673ffffffffffffffffffffffffffffffffffffffff16815260200190815260200160002060009054906101000a900460ff16156141c05761417d83610d3d565b8111156141bf576040517f08c379a00000000000000000000000000000000000000000000000000000000081526004016141b6906161d2565b60405180910390fd5b5b505050565b601860008473ffffffffffffffffffffffffffffffffffffffff1673ffffffffffffffffffffffffffffffffffffffff16815260200190815260200160002060009054906101000a900460ff161561426e5780601960008573ffffffffffffffffffffffffffffffffffffffff1673ffffffffffffffffffffffffffffffffffffffff16815260200190815260200160002060008282546142669190614ec2565b925050819055505b505050565b6000600267ffffffffffffffff8111156142905761428f615eba565b5b6040519080825280602002602001820160405280156142be5781602001602082028036833780820191505090505b509050600b60009054906101000a900473ffffffffffffffffffffffffffffffffffffffff1673ffffffffffffffffffffffffffffffffffffffff1663ad5c46486040518163ffffffff1660e01b8152600401602060405180830381865afa15801561432e573d6000803e3d6000fd5b505050506040513d601f19601f820116820180604052508101906143529190615009565b8160008151811061436657614365615431565b5b602002602001019073ffffffffffffffffffffffffffffffffffffffff16908173ffffffffffffffffffffffffffffffffffffffff16815250507f0000000000000000000000000000000000000000000000000000000000000000816001815181106143d5576143d4615431565b5b602002602001019073ffffffffffffffffffffffffffffffffffffffff16908173ffffffffffffffffffffffffffffffffffffffff168152505060007f000000000000000000000000000000000000000000000000000000000000000073ffffffffffffffffffffffffffffffffffffffff166370a08231306040518263ffffffff1660e01b815260040161446a9190614acf565b602060405180830381865afa158015614487573d6000803e3d6000fd5b505050506040513d601f19601f820116820180604052508101906144ab919061581a565b90506144da30600b60009054906101000a900473ffffffffffffffffffffffffffffffffffffffff1685612c7c565b600b60009054906101000a900473ffffffffffffffffffffffffffffffffffffffff1673ffffffffffffffffffffffffffffffffffffffff1663b6f9de958460008530426040518663ffffffff1660e01b815260040161453d94939291906161f2565b6000604051808303818588803b15801561455657600080fd5b505af115801561456a573d6000803e3d6000fd5b50505050506000817f000000000000000000000000000000000000000000000000000000000000000073ffffffffffffffffffffffffffffffffffffffff166370a08231306040518263ffffffff1660e01b81526004016145cb9190614acf565b602060405180830381865afa1580156145e8573d6000803e3d6000fd5b505050506040513d601f19601f8201168201806040525081019061460c919061581a565b6146169190615460565b90506146218161465e565b7fb0cc2628d6d644cf6be9d8110e142297ac910d6d8026d795a99f272fd9ad60b18160405161465091906149c1565b60405180910390a150505050565b600061468c7f000000000000000000000000000000000000000000000000000000000000000063ffffffff16565b9050600081116146d1576040517f08c379a00000000000000000000000000000000000000000000000000000000081526004016146c89061628a565b60405180910390fd5b60008211156147735761471e816147036fffffffffffffffffffffffffffffffff801685612e4590919063ffffffff16565b61470d9190614cbb565b6005546140ff90919063ffffffff16565b6005819055503373ffffffffffffffffffffffffffffffffffffffff167fa493a9229478c3fcd73f66d2cdeb7f94fd0f341da924d1054236d784541165118360405161476a91906149c1565b60405180910390a25b5050565b600081519050919050565b600082825260208201905092915050565b60005b838110156147b1578082015181840152602081019050614796565b60008484015250505050565b6000601f19601f8301169050919050565b60006147d982614777565b6147e38185614782565b93506147f3818560208601614793565b6147fc816147bd565b840191505092915050565b6000602082019050818103600083015261482181846147ce565b905092915050565b600080fd5b600073ffffffffffffffffffffffffffffffffffffffff82169050919050565b60006148598261482e565b9050919050565b6148698161484e565b811461487457600080fd5b50565b60008135905061488681614860565b92915050565b6000819050919050565b61489f8161488c565b81146148aa57600080fd5b50565b6000813590506148bc81614896565b92915050565b600080604083850312156148d9576148d8614829565b5b60006148e785828601614877565b92505060206148f8858286016148ad565b9150509250929050565b60008115159050919050565b61491781614902565b82525050565b6000602082019050614932600083018461490e565b92915050565b6000819050919050565b600061495d6149586149538461482e565b614938565b61482e565b9050919050565b600061496f82614942565b9050919050565b600061498182614964565b9050919050565b61499181614976565b82525050565b60006020820190506149ac6000830184614988565b92915050565b6149bb8161488c565b82525050565b60006020820190506149d660008301846149b2565b92915050565b6000602082840312156149f2576149f1614829565b5b6000614a0084828501614877565b91505092915050565b600080600060608486031215614a2257614a21614829565b5b6000614a3086828701614877565b9350506020614a4186828701614877565b9250506040614a52868287016148ad565b9150509250925092565b600060208284031215614a7257614a71614829565b5b6000614a80848285016148ad565b91505092915050565b600060ff82169050919050565b614a9f81614a89565b82525050565b6000602082019050614aba6000830184614a96565b92915050565b614ac98161484e565b82525050565b6000602082019050614ae46000830184614ac0565b92915050565b614af381614902565b8114614afe57600080fd5b50565b600081359050614b1081614aea565b92915050565b60008060008060808587031215614b3057614b2f614829565b5b6000614b3e87828801614877565b9450506020614b4f878288016148ad565b9350506040614b60878288016148ad565b9250506060614b7187828801614b01565b91505092959194509250565b60008060408385031215614b9457614b93614829565b5b6000614ba285828601614877565b9250506020614bb385828601614b01565b9150509250929050565b60008060408385031215614bd457614bd3614829565b5b6000614be285828601614877565b9250506020614bf385828601614877565b9150509250929050565b7f4e487b7100000000000000000000000000000000000000000000000000000000600052602260045260246000fd5b60006002820490506001821680614c4457607f821691505b602082108103614c5757614c56614bfd565b5b50919050565b7f4e487b7100000000000000000000000000000000000000000000000000000000600052601260045260246000fd5b7f4e487b7100000000000000000000000000000000000000000000000000000000600052601160045260246000fd5b6000614cc68261488c565b9150614cd18361488c565b925082614ce157614ce0614c5d565b5b828204905092915050565b7f50657263656e746167652063616e277420626520300000000000000000000000600082015250565b6000614d22601583614782565b9150614d2d82614cec565b602082019050919050565b60006020820190508181036000830152614d5181614d15565b9050919050565b7f50657263656e746167652063616e2774206265206d6f7265207468616e20313060008201527f3030000000000000000000000000000000000000000000000000000000000000602082015250565b6000614db4602283614782565b9150614dbf82614d58565b604082019050919050565b60006020820190508181036000830152614de381614da7565b9050919050565b7f4e6f7468696e6720746f20776974686472617700000000000000000000000000600082015250565b6000614e20601383614782565b9150614e2b82614dea565b602082019050919050565b60006020820190508181036000830152614e4f81614e13565b9050919050565b7f4163636f756e7420697320616c7265616479206578636c756465640000000000600082015250565b6000614e8c601b83614782565b9150614e9782614e56565b602082019050919050565b60006020820190508181036000830152614ebb81614e7f565b9050919050565b6000614ecd8261488c565b9150614ed88361488c565b9250828201905080821115614ef057614eef614c8c565b5b92915050565b7f466565206d757374206265206c657373207468616e2031352500000000000000600082015250565b6000614f2c601983614782565b9150614f3782614ef6565b602082019050919050565b60006020820190508181036000830152614f5b81614f1f565b9050919050565b7f54686520726f7574657220616c7265616479206861732074686174206164647260008201527f6573730000000000000000000000000000000000000000000000000000000000602082015250565b6000614fbe602383614782565b9150614fc982614f62565b604082019050919050565b60006020820190508181036000830152614fed81614fb1565b9050919050565b60008151905061500381614860565b92915050565b60006020828403121561501f5761501e614829565b5b600061502d84828501614ff4565b91505092915050565b600060408201905061504b6000830185614ac0565b6150586020830184614ac0565b9392505050565b7f56657374696e672074696d65206e6f7420616c6c6f7765640000000000000000600082015250565b6000615095601883614782565b91506150a08261505f565b602082019050919050565b600060208201905081810360008301526150c481615088565b9050919050565b7f43616e27742076657374206163636f756e7420776974682062616c616e636500600082015250565b6000615101601f83614782565b915061510c826150cb565b602082019050919050565b60006020820190508181036000830152615130816150f4565b9050919050565b7f57616c6c657420697320616c7265616479207665737465640000000000000000600082015250565b600061516d601883614782565b915061517882615137565b602082019050919050565b6000602082019050818103600083015261519c81615160565b9050919050565b7f4d757374206265206265747765656e203020616e642031303030303030000000600082015250565b60006151d9601d83614782565b91506151e4826151a3565b602082019050919050565b60006020820190508181036000830152615208816151cc565b9050919050565b7f45524332303a2064656372656173656420616c6c6f77616e63652062656c6f7760008201527f207a65726f000000000000000000000000000000000000000000000000000000602082015250565b600061526b602583614782565b91506152768261520f565b604082019050919050565b6000602082019050818103600083015261529a8161525e565b9050919050565b7f4e657720416d6f756e74206d757374206265206d6f7265207468616e20302e3060008201527f30303125206f6620746f74616c20737570706c79000000000000000000000000602082015250565b60006152fd603483614782565b9150615308826152a1565b604082019050919050565b6000602082019050818103600083015261532c816152f0565b9050919050565b7f4163636f756e7420697320616c7265616479207468652076616c7565206f662060008201527f276578636c756465642700000000000000000000000000000000000000000000602082015250565b600061538f602a83614782565b915061539a82615333565b604082019050919050565b600060208201905081810360008301526153be81615382565b9050919050565b7f4163636f756e7420697320616c726561647920696e636c756465640000000000600082015250565b60006153fb601b83614782565b9150615406826153c5565b602082019050919050565b6000602082019050818103600083015261542a816153ee565b9050919050565b7f4e487b7100000000000000000000000000000000000000000000000000000000600052603260045260246000fd5b600061546b8261488c565b91506154768361488c565b925082820390508181111561548e5761548d614c8c565b5b92915050565b7f4e487b7100000000000000000000000000000000000000000000000000000000600052603160045260246000fd5b60006154ce8261488c565b91507fffffffffffffffffffffffffffffffffffffffffffffffffffffffffffffffff8203615500576154ff614c8c565b5b600182019050919050565b7f46656573206d757374206265206c657373207468616e20313525000000000000600082015250565b6000615541601a83614782565b915061554c8261550b565b602082019050919050565b6000602082019050818103600083015261557081615534565b9050919050565b7f4f776e61626c653a206e6577206f776e657220697320746865207a65726f206160008201527f6464726573730000000000000000000000000000000000000000000000000000602082015250565b60006155d3602683614782565b91506155de82615577565b604082019050919050565b60006020820190508181036000830152615602816155c6565b9050919050565b7f537461727420646174652063616e20626520736574746564206f6e6c79206f6e60008201527f6365000000000000000000000000000000000000000000000000000000000000602082015250565b6000615665602283614782565b915061567082615609565b604082019050919050565b6000602082019050818103600083015261569481615658565b9050919050565b7f53746172742064617465206d75737420626520696e2074686520667574757265600082015250565b60006156d1602083614782565b91506156dc8261569b565b602082019050919050565b60006020820190508181036000830152615700816156c4565b9050919050565b7f4f776e65722063616e6e6f7420636c61696d206e617469766520746f6b656e73600082015250565b600061573d602083614782565b915061574882615707565b602082019050919050565b6000602082019050818103600083015261576c81615730565b9050919050565b7f4f776e65722063616e6e6f7420636c61696d207265776172647320746f6b656e60008201527f7300000000000000000000000000000000000000000000000000000000000000602082015250565b60006157cf602183614782565b91506157da82615773565b604082019050919050565b600060208201905081810360008301526157fe816157c2565b9050919050565b60008151905061581481614896565b92915050565b6000602082840312156158305761582f614829565b5b600061583e84828501615805565b91505092915050565b7f45524332303a20617070726f76652066726f6d20746865207a65726f2061646460008201527f7265737300000000000000000000000000000000000000000000000000000000602082015250565b60006158a3602483614782565b91506158ae82615847565b604082019050919050565b600060208201905081810360008301526158d281615896565b9050919050565b7f45524332303a20617070726f766520746f20746865207a65726f20616464726560008201527f7373000000000000000000000000000000000000000000000000000000000000602082015250565b6000615935602283614782565b9150615940826158d9565b604082019050919050565b6000602082019050818103600083015261596481615928565b9050919050565b60006159768261488c565b91506159818361488c565b925082820261598f8161488c565b915082820484148315176159a6576159a5614c8c565b5b5092915050565b7f45524332303a20696e73756666696369656e7420616c6c6f77616e6365000000600082015250565b60006159e3601d83614782565b91506159ee826159ad565b602082019050919050565b60006020820190508181036000830152615a12816159d6565b9050919050565b7f45524332303a207472616e736665722066726f6d20746865207a65726f20616460008201527f6472657373000000000000000000000000000000000000000000000000000000602082015250565b6000615a75602583614782565b9150615a8082615a19565b604082019050919050565b60006020820190508181036000830152615aa481615a68565b9050919050565b7f45524332303a207472616e7366657220746f20746865207a65726f206164647260008201527f6573730000000000000000000000000000000000000000000000000000000000602082015250565b6000615b07602383614782565b9150615b1282615aab565b604082019050919050565b60006020820190508181036000830152615b3681615afa565b9050919050565b7f5472616e7366657220616d6f756e742065786365656473206d6178207065726d60008201527f6974746564000000000000000000000000000000000000000000000000000000602082015250565b6000615b99602583614782565b9150615ba482615b3d565b604082019050919050565b60006020820190508181036000830152615bc881615b8c565b9050919050565b7f466f7220796f75722070726f74656374696f6e2c206d61782073656c6c20697360008201527f2032302520696620796f7520686f6c6420302e3525206f72206d6f7265206f6660208201527f20737570706c792e000000000000000000000000000000000000000000000000604082015250565b6000615c51604883614782565b9150615c5c82615bcf565b606082019050919050565b60006020820190508181036000830152615c8081615c44565b9050919050565b7f596f75206d757374207761697420612066756c6c20646179206265666f72652060008201527f796f75206d61792073656c6c20616761696e2e00000000000000000000000000602082015250565b6000615ce3603383614782565b9150615cee82615c87565b604082019050919050565b60006020820190508181036000830152615d1281615cd6565b9050919050565b7f4f776e61626c653a2063616c6c6572206973206e6f7420746865206f776e6572600082015250565b6000615d4f602083614782565b9150615d5a82615d19565b602082019050919050565b60006020820190508181036000830152615d7e81615d42565b9050919050565b6000604082019050615d9a6000830185614ac0565b615da760208301846149b2565b9392505050565b600081519050919050565b600081905092915050565b6000615dcf82615dae565b615dd98185615db9565b9350615de9818560208601614793565b80840191505092915050565b6000615e018284615dc4565b915081905092915050565b600081519050615e1b81614aea565b92915050565b600060208284031215615e3757615e36614829565b5b6000615e4584828501615e0c565b91505092915050565b7f5472616e7366657248656c7065723a205452414e534645525f4641494c454400600082015250565b6000615e84601f83614782565b9150615e8f82615e4e565b602082019050919050565b60006020820190508181036000830152615eb381615e77565b9050919050565b7f4e487b7100000000000000000000000000000000000000000000000000000000600052604160045260246000fd5b7f5472616e7366657248656c7065723a204554485f5452414e534645525f46414960008201527f4c45440000000000000000000000000000000000000000000000000000000000602082015250565b6000615f45602383614782565b9150615f5082615ee9565b604082019050919050565b60006020820190508181036000830152615f7481615f38565b9050919050565b7f45524332303a207472616e7366657220616d6f756e742065786365656473206260008201527f616c616e63650000000000000000000000000000000000000000000000000000602082015250565b6000615fd7602683614782565b9150615fe282615f7b565b604082019050919050565b6000602082019050818103600083015261600681615fca565b9050919050565b6000819050919050565b600061603261602d6160288461600d565b614938565b61488c565b9050919050565b61604281616017565b82525050565b600081519050919050565b600082825260208201905092915050565b6000819050602082019050919050565b61607d8161484e565b82525050565b600061608f8383616074565b60208301905092915050565b6000602082019050919050565b60006160b382616048565b6160bd8185616053565b93506160c883616064565b8060005b838110156160f95781516160e08882616083565b97506160eb8361609b565b9250506001810190506160cc565b5085935050505092915050565b600060a08201905061611b60008301886149b2565b6161286020830187616039565b818103604083015261613a81866160a8565b90506161496060830185614ac0565b61615660808301846149b2565b9695505050505050565b7f43616e277420757365206d6f7265207468616e20617661696c61626c6520616d60008201527f6f756e7400000000000000000000000000000000000000000000000000000000602082015250565b60006161bc602483614782565b91506161c782616160565b604082019050919050565b600060208201905081810360008301526161eb816161af565b9050919050565b60006080820190506162076000830187616039565b818103602083015261621981866160a8565b90506162286040830185614ac0565b61623560608301846149b2565b95945050505050565b7f4e6f207368617265732063697263756c6174696e670000000000000000000000600082015250565b6000616274601583614782565b915061627f8261623e565b602082019050919050565b600060208201905081810360008301526162a381616267565b905091905056fea2646970667358221220fafc6cbe229ee3c52cae68e40ec31e1230107eccf37c34cb01e2310819f1e55464736f6c63430008110033",
  "immutableReferences": {
    "1876": [
      {
        "length": 32,
        "start": 3316
      }
    ],
    "1882": [
      {
        "length": 32,
        "start": 18021
      }
    ],
    "2101": [
      {
        "length": 32,
        "start": 4487
      },
      {
        "length": 32,
        "start": 10939
      },
      {
        "length": 32,
        "start": 11093
      },
      {
        "length": 32,
        "start": 17314
      },
      {
        "length": 32,
        "start": 17427
      },
      {
        "length": 32,
        "start": 17780
      }
    ]
  },
  "source": "// SPDX-License-Identifier: UNLICENSED\npragma solidity 0.8.17;\n\nimport \"@openzeppelin/contracts/token/ERC20/ERC20.sol\";\nimport \"@openzeppelin/contracts/access/Ownable.sol\";\nimport \"@openzeppelin/contracts/utils/Address.sol\";\nimport \"@uniswap/v2-periphery/contracts/interfaces/IUniswapV2Router02.sol\";\nimport \"@uniswap/v2-core/contracts/interfaces/IUniswapV2Factory.sol\";\nimport \"@uniswap/lib/contracts/libraries/TransferHelper.sol\";\nimport \"./AbstractDividends.sol\";\n\ncontract XHype is ERC20, AbstractDividends, Ownable {\n    event ExcludeFromFees(address indexed account, bool isExcluded);\n    event ExcludeFromDividends(address indexed account, bool isExcluded);\n    event UpdateBuyFee(uint buyFee);\n    event UpdateSellFee(uint sellFee);\n    \n    event UpdateUniswapV2Router(address indexed newAddress);\n    event SendDividends(uint amount);\n\n    //FEES VARIABLES\n    uint public buyFee = 5;\n    uint public sellFee = 8;\n    uint private constant MAX_FEE = 15; //15%\n    \n\n    address public immutable rewardToken;\n    uint private _totalSupply = 1000000000 ether;\n    address private constant DEAD = 0x000000000000000000000000000000000000dEaD;\n\n    //SWAPPING VARIABLES\n    IUniswapV2Router02 public uniswapV2Router;\n    address public uniswapV2Pair;\n\n    uint public swapTokensAtAmount;\n    bool public swapEnabled;    \n    bool private swapping;\n\n    //DIVIDENDS VARIABLES\n    uint public minBalanceForDividends = 1000 ether;\n    uint private startVestingDate;\n    mapping(address => bool) private _isExcludedFromDividends;\n    address[] private _excludedFromDividends;\n    mapping(address => bool) private _isExcludedFromFees;\n\n    //VESTING VARIABLES\n    //User/wallet => vested amount\n    mapping(address => uint) private threeMonthVestedWallets;\n    mapping(address => uint) private twelveMonthVestedWallets;\n    mapping(address => uint) private twentyFourMonthVestedWallets;\n    mapping(address => bool) private sixMonthLockedWallets;\n    mapping(address => bool) private isVested;\n    //User/wallet => withdrawn amount\n    mapping(address => uint) public vestedWalletsWithdrawn;\n\n    \n    bool private nukeTheWhales = false;\n    mapping (address => bool) private excludedFromNukeTheWhales;\n    mapping (address => uint256) public previousSale;\n    uint private transferPercentageAllowed = 5;\n\n    constructor()\n        payable\n        ERC20(\"XHype\", \"XHP\")\n        AbstractDividends(getSharesOf, totalShareableSupply)\n    {\n        rewardToken = address(0x55d398326f99059fF775485246999027B3197955); //USDT on BSC network\n        \n        IUniswapV2Router02 _uniswapV2Router = IUniswapV2Router02(address(0x10ED43C718714eb63d5aA57B78B54704E256024E)); //Pancakeswap Router on BSC\n        address _uniswapV2Pair = IUniswapV2Factory(_uniswapV2Router.factory())\n            .createPair(address(this), _uniswapV2Router.WETH());\n\n        uniswapV2Router = _uniswapV2Router;\n        uniswapV2Pair = _uniswapV2Pair;\n\n        _isExcludedFromDividends[owner()] = true;\n        _excludedFromDividends.push(owner());\n        _isExcludedFromDividends[address(this)] = true;\n        _excludedFromDividends.push(address(this));\n        _isExcludedFromDividends[DEAD] = true;\n        _excludedFromDividends.push(DEAD);\n        _isExcludedFromDividends[address(_uniswapV2Pair)] = true;\n        _excludedFromDividends.push(address(_uniswapV2Pair));\n        _isExcludedFromDividends[address(_uniswapV2Router)] = true;\n        _excludedFromDividends.push(address(_uniswapV2Router));\n        _isExcludedFromDividends[address(0x4aEb644A9a035e5E0b354EA4b463D1c0E8E79CF9)] = true; //Advisors\n        _excludedFromDividends.push(address(0x4aEb644A9a035e5E0b354EA4b463D1c0E8E79CF9));\n        _isExcludedFromDividends[address(0x3aB47F80a046d2A4D92A5c229fe93fA6708aEB13)] = true; //Treasury\n        _excludedFromDividends.push(address(0x3aB47F80a046d2A4D92A5c229fe93fA6708aEB13));\n        _isExcludedFromDividends[address(0x1767c992C70AB29fBE9194f4D8160C373B6d7ED8)] = true; //Marketing\n        _excludedFromDividends.push(address(0x1767c992C70AB29fBE9194f4D8160C373B6d7ED8));\n        _isExcludedFromDividends[address(0xe24bfB419f5C0EDa8660d53452212cf0c87E4151)] = true; //Team\n        _excludedFromDividends.push(address(0xe24bfB419f5C0EDa8660d53452212cf0c87E4151));\n        _isExcludedFromDividends[address(0xF949709F80dec4d9E2420c0e6a98081F13fFf368)] = true; //DEXES\n        _excludedFromDividends.push(address(0xF949709F80dec4d9E2420c0e6a98081F13fFf368));\n        _isExcludedFromDividends[address(0x9DBe36b089451aAEfF495824BB507eD0902f5644)] = true; //Future Developments\n        _excludedFromDividends.push(address(0x9DBe36b089451aAEfF495824BB507eD0902f5644));\n        _isExcludedFromDividends[address(0xaD064A0827214234E228B9213Af52E5e6457e4C0)] = true; //Charity Wallet\n        _excludedFromDividends.push(address(0xaD064A0827214234E228B9213Af52E5e6457e4C0));\n        _isExcludedFromDividends[address(0x4f931e269402Cfa2cB998EF3402c7897DA7bd1db)] = true; //Burning Pool\n        _excludedFromDividends.push(address(0x4f931e269402Cfa2cB998EF3402c7897DA7bd1db));\n        \n        _isExcludedFromFees[owner()] = true;\n        _isExcludedFromFees[address(this)] = true;\n        _isExcludedFromFees[DEAD] = true;\n\n        swapEnabled = true;\n        swapTokensAtAmount = 10000 ether;\n        _mint(owner(), totalSupply());\n    }\n\n    function totalSupply() public view override returns (uint256) {\n        return _totalSupply;\n    }\n\n    function getSharesOf(address _user) public view returns (uint) {\n        if (_isExcludedFromDividends[_user]) {\n            return 0;\n        }\n        \n        return balanceOf(_user) >= minBalanceForDividends ? balanceOf(_user) : 0;\n    }\n\n    function totalShareableSupply() public view returns (uint) {\n        uint excludedSupply;\n        for (uint i; i < _excludedFromDividends.length; i++) {\n            excludedSupply += balanceOf(_excludedFromDividends[i]);\n        }\n        return totalSupply() - excludedSupply;\n    }\n\n    function updateUniswapV2Router(address newAddress) external onlyOwner {\n        require(newAddress != address(uniswapV2Router),\"The router already has that address\");\n        emit UpdateUniswapV2Router(newAddress);\n        uniswapV2Router = IUniswapV2Router02(newAddress);\n        if (IUniswapV2Factory(uniswapV2Router.factory()).getPair(address(this), uniswapV2Router.WETH()) == address(0)){\n            address _uniswapV2Pair = IUniswapV2Factory(uniswapV2Router.factory())\n                .createPair(address(this), uniswapV2Router.WETH());\n            uniswapV2Pair = _uniswapV2Pair;\n        }else{\n            uniswapV2Pair = IUniswapV2Factory(uniswapV2Router.factory()).getPair(address(this), uniswapV2Router.WETH());\n        }\n    }\n\n    function setMinBalanceForDividends(uint amount) external onlyOwner {\n        require(amount > 0 && amount <= 1000000 ether,\"Must be between 0 and 1000000\");\n        minBalanceForDividends = amount;\n    }\n\n    function setStartVestingDate(uint _startVestingDate) external onlyOwner {\n        require(startVestingDate == 0,\"Start date can be setted only once\");\n        require(_startVestingDate > block.timestamp,\"Start date must be in the future\");\n        startVestingDate = _startVestingDate;\n    }\n\n    function setTransferPercentageAllowed(uint _percentage) external onlyOwner {\n        require (_percentage > 0,\"Percentage can't be 0\");\n        require (_percentage <= 1000,\"Percentage can't be more than 1000\");\n        transferPercentageAllowed = _percentage;\n    }\n\n    function setExcludeFromNukeTheWhales(address user, bool excluded) external onlyOwner{\n        excludedFromNukeTheWhales[user] = excluded;\n    }\n\n    function startNukingTheWhales() external onlyOwner {\n        nukeTheWhales = true;\n    }\n\n    //=======FeeManagement=======//\n    function excludeFromFees(address account, bool excluded) external onlyOwner {\n        require(_isExcludedFromFees[account] != excluded,\"Account is already the value of 'excluded'\");\n        _isExcludedFromFees[account] = excluded;\n\n        emit ExcludeFromFees(account, excluded);\n    }\n\n    function isExcludedFromFees(address account) external view returns (bool) {\n        return _isExcludedFromFees[account];\n    }\n\n    function updateBuyFee(uint _newFee) external onlyOwner {\n        require(_newFee <= MAX_FEE,\"Fee must be less than 15%\");\n        buyFee = _newFee;\n        \n        emit UpdateBuyFee(buyFee);\n    }\n\n    function updateSellFees(uint _newFee) external onlyOwner {\n        require(_newFee <= MAX_FEE, \"Fees must be less than 15%\");\n        sellFee = _newFee;\n        \n        emit UpdateSellFee(_newFee);\n    }\n\n    function _transfer(\n        address from,\n        address to,\n        uint amount\n    ) internal override {\n        require(from != address(0), \"ERC20: transfer from the zero address\");\n        require(to != address(0), \"ERC20: transfer to the zero address\");\n        \n        if (amount == 0) {\n            super._transfer(from, to, 0);\n            return;\n        }\n        \n        if (nukeTheWhales && !excludedFromNukeTheWhales[from]) {\n            if(from != owner() && to != owner()) {\n                require(amount <= (totalSupply()) * (transferPercentageAllowed) / (10**3), \"Transfer amount exceeds max permitted\");\n            }\n\n            if(to == address(uniswapV2Pair) || to == address(uniswapV2Router)) {\n                uint256 fromBalance = balanceOf(from);\n                uint256 threshold = (totalSupply()) * (5) / (10**3);\n \n                if (fromBalance > threshold) {\n                    uint _now = block.timestamp;\n                    require(amount < fromBalance / (5), \"For your protection, max sell is 20% if you hold 0.5% or more of supply.\");\n                    require( _now - (previousSale[from]) > 1 days, \"You must wait a full day before you may sell again.\");\n                }\n            }\n        }\n\n        uint contractTokenBalance = balanceOf(address(this));\n\n        bool canSwap = contractTokenBalance >= swapTokensAtAmount;\n\n        if (swapEnabled && canSwap && !swapping) {\n            swapping = true;\n            \n            swapAndSendDividends(contractTokenBalance);\n\n            swapping = false;\n        }\n\n        bool takeFee = !swapping;\n\n        if (_isExcludedFromFees[from] || _isExcludedFromFees[to]) {\n            takeFee = false;\n        }\n\n        if (from != uniswapV2Pair && to != uniswapV2Pair) {\n            takeFee = false;\n        }\n\n        if (takeFee) {\n            uint _fees;\n            if (from == uniswapV2Pair) {\n                _fees = buyFee;\n            } else {\n                _fees = sellFee;\n                previousSale[from] = block.timestamp;\n            }\n            uint fees = (amount * _fees) / 100;\n\n            amount = amount - fees;\n\n            super._transfer(from, address(this), fees);\n        }\n\n        super._transfer(from, to, amount);\n    }\n\n    //=======Swap=======//\n    function toggleSwapEnabled() external onlyOwner {        \n        swapEnabled = !swapEnabled;\n    }\n\n    function setSwapTokensAtAmount(uint newAmount) external onlyOwner {\n        require(newAmount > totalSupply() / 1000000, \"New Amount must be more than 0.0001% of total supply\");\n        swapTokensAtAmount = newAmount;\n    }\n\n    function swapAndSendDividends(uint amount) private {\n        address[] memory path = new address[](2);\n        path[0] = address(this);\n        path[1] = uniswapV2Router.WETH();\n\n        uint initialBalance = address(this).balance;\n\n        _approve(address(this), address(uniswapV2Router), amount);\n\n        uniswapV2Router.swapExactTokensForETHSupportingFeeOnTransferTokens(\n            amount,\n            0, // accept any amount of ETH\n            path,\n            address(this),\n            block.timestamp\n        );\n\n        uint newBalance = address(this).balance - initialBalance;\n\n        swapEthForTokensAndDistribute(newBalance);\n    }\n\n    function swapEthForTokensAndDistribute(uint256 amount) internal {\n        address[] memory path = new address[](2);\n        path[0] = uniswapV2Router.WETH();\n        path[1] = address(rewardToken);\n\n        uint initialBalance = IERC20(rewardToken).balanceOf(address(this));\n\n        _approve(address(this), address(uniswapV2Router), amount);\n\n        // make the swap\n        uniswapV2Router.swapExactETHForTokensSupportingFeeOnTransferTokens{value:amount}(\n            0, // accept any amount of Tokens\n            path,\n            address(this),\n            block.timestamp\n        );\n\n        uint amountToDistribute = IERC20(rewardToken).balanceOf(address(this)) - initialBalance;\n\n        _distributeDividends(amountToDistribute);\n        emit SendDividends(amountToDistribute);\n    }\n\n    //VESTING\n    function setVestedWallet(address account, uint amount, uint vestingTime, bool sixMonthLock) external onlyOwner {\n        require(vestingTime == 3 || vestingTime == 12 || vestingTime == 24, \"Vesting time not allowed\");\n        require(balanceOf(account) == 0,\"Can't vest account with balance\");\n        require(!isVested[account],\"Wallet is already vested\");\n\n        if (vestingTime == 3){\n            threeMonthVestedWallets[account] = amount;\n        }else if(vestingTime == 12){\n            twelveMonthVestedWallets[account] = amount;\n        }else{\n            twentyFourMonthVestedWallets[account] = amount;\n        }\n        sixMonthLockedWallets[account] = sixMonthLock;\n        isVested[account] = true;\n    }\n\n    function _beforeTokenTransfer(\n        address from,\n        address to,\n        uint256 amount\n    ) internal override view {\n        if (isVested[from]){\n            require(amount <= getAvailableAmount(from),\"Can't use more than available amount\");\n        }\n    }\n\n    function getUnvestedAmount(address account,uint totalVestedAmount, uint vestingTime, bool sixMonthLocked) internal view returns(uint){\n        if (block.timestamp < (startVestingDate + (sixMonthLocked ? 180 days : 0))){\n            return 0;\n        }\n        if (startVestingDate + vestingTime + (sixMonthLockedWallets[account] ? 180 days : 0) <= block.timestamp){            \n            return balanceOf(account);\n        }\n        \n        uint availableAmountPerDay = totalVestedAmount / vestingTime;\n        uint timePassed = block.timestamp - (startVestingDate + (sixMonthLocked ? 180 days : 0));\n\n        return (timePassed * availableAmountPerDay) - vestedWalletsWithdrawn[account];\n    }\n\n    function getAvailableAmount(address from) public view returns(uint){\n        if (!isVested[from]){\n            return balanceOf(from);\n        }\n        if (twentyFourMonthVestedWallets[from] > 0){            \n            return getUnvestedAmount(from, twentyFourMonthVestedWallets[from], 730 days, sixMonthLockedWallets[from]);//24 month linear release            \n        }else if (twelveMonthVestedWallets[from] > 0){\n            return getUnvestedAmount(from, twelveMonthVestedWallets[from], 365 days, sixMonthLockedWallets[from]);//12 month linear release            \n        }else if (threeMonthVestedWallets[from] > 0){\n            return getUnvestedAmount(from, threeMonthVestedWallets[from], 90 days, sixMonthLockedWallets[from]);//3 month linear release            \n        }\n    }\n\n    function _afterTokenTransfer(address from, address to, uint256 amount) internal override{\n        if (isVested[from]){\n            vestedWalletsWithdrawn[from] += amount;\n        }\n    }\n\n    //DIVIDENDS\n    function excludeFromDividends(address account) external onlyOwner() {\n        require(!_isExcludedFromDividends[account], \"Account is already excluded\");\n        \n        _isExcludedFromDividends[account] = true;\n        _excludedFromDividends.push(account);\n        emit ExcludeFromDividends(account, true);\n    }\n\n    function includeInDividends(address account) external onlyOwner() {\n        require(_isExcludedFromDividends[account], \"Account is already included\");\n        for (uint256 i = 0; i < _excludedFromDividends.length; i++){\n            if (_excludedFromDividends[i] == account) {\n                _excludedFromDividends[i] = _excludedFromDividends[_excludedFromDividends.length - 1];\n                _isExcludedFromDividends[account] = false;\n                _excludedFromDividends.pop();\n                break;\n            }\n        }\n        emit ExcludeFromDividends(account, false);\n    }\n\n    function withdrawDividends() external{\n        uint256 amount = _prepareCollect(msg.sender);\n        require(amount > 0, \"Nothing to withdraw\");\n        TransferHelper.safeTransfer(rewardToken, msg.sender, amount);\n        emit DividendsWithdrawn(msg.sender, amount);\n    }\n\n    function getVestedWalletWithdrawn(address account) external view returns(uint){\n        return vestedWalletsWithdrawn[account];\n    }\n\n    //ADMIN WITHDRAWALS\n    function withdrawBalance(address receiver) external onlyOwner{\n        require(address(this).balance > 0,\"Nothing to withdraw\");\n        TransferHelper.safeTransferETH(receiver, address(this).balance);\n    }\n\n    function claimStuckTokens(address token) external onlyOwner {\n        require(token != address(this), \"Owner cannot claim native tokens\");\n        require(token != rewardToken, \"Owner cannot claim rewards tokens\");\n\n        IERC20 ERC20token = IERC20(token);\n        uint balance = ERC20token.balanceOf(address(this));\n        TransferHelper.safeTransfer(token, msg.sender, balance);        \n    }\n\n    receive() external payable {}\n}",
  "sourcePath": "/Users/glenci/Xhype/src/XHype.sol",
  "compiler": {
    "name": "solc",
    "version": "0.8.17+commit.8df45f5f.Emscripten.clang"
  },
  "schemaVersion": "3.4.10",
  "updatedAt": "2023-06-29T13:54:04.600Z",
  "devdoc": {
    "kind": "dev",
    "methods": {
      "allowance(address,address)": {
        "details": "See {IERC20-allowance}."
      },
      "approve(address,uint256)": {
        "details": "See {IERC20-approve}. NOTE: If `amount` is the maximum `uint256`, the allowance is not updated on `transferFrom`. This is semantically equivalent to an infinite approval. Requirements: - `spender` cannot be the zero address."
      },
      "balanceOf(address)": {
        "details": "See {IERC20-balanceOf}."
      },
      "cumulativeDividendsOf(address)": {
        "details": "accumulativeFundsOf(account) = withdrawableDividendsOf(account) + withdrawnDividendsOf(account) = (pointsPerShare * balanceOf(account)) / POINTS_MULTIPLIER",
        "params": {
          "account": "The address of a token holder."
        },
        "returns": {
          "_0": "The amount of dividends that `account` has earned in total."
        }
      },
      "decimals()": {
        "details": "Returns the number of decimals used to get its user representation. For example, if `decimals` equals `2`, a balance of `505` tokens should be displayed to a user as `5.05` (`505 / 10 ** 2`). Tokens usually opt for a value of 18, imitating the relationship between Ether and Wei. This is the value {ERC20} uses, unless this function is overridden; NOTE: This information is only used for _display_ purposes: it in no way affects any of the arithmetic of the contract, including {IERC20-balanceOf} and {IERC20-transfer}."
      },
      "decreaseAllowance(address,uint256)": {
        "details": "Atomically decreases the allowance granted to `spender` by the caller. This is an alternative to {approve} that can be used as a mitigation for problems described in {IERC20-approve}. Emits an {Approval} event indicating the updated allowance. Requirements: - `spender` cannot be the zero address. - `spender` must have allowance for the caller of at least `subtractedValue`."
      },
      "increaseAllowance(address,uint256)": {
        "details": "Atomically increases the allowance granted to `spender` by the caller. This is an alternative to {approve} that can be used as a mitigation for problems described in {IERC20-approve}. Emits an {Approval} event indicating the updated allowance. Requirements: - `spender` cannot be the zero address."
      },
      "name()": {
        "details": "Returns the name of the token."
      },
      "owner()": {
        "details": "Returns the address of the current owner."
      },
      "renounceOwnership()": {
        "details": "Leaves the contract without owner. It will not be possible to call `onlyOwner` functions anymore. Can only be called by the current owner. NOTE: Renouncing ownership will leave the contract without an owner, thereby removing any functionality that is only available to the owner."
      },
      "symbol()": {
        "details": "Returns the symbol of the token, usually a shorter version of the name."
      },
      "totalSupply()": {
        "details": "See {IERC20-totalSupply}."
      },
      "transfer(address,uint256)": {
        "details": "See {IERC20-transfer}. Requirements: - `to` cannot be the zero address. - the caller must have a balance of at least `amount`."
      },
      "transferFrom(address,address,uint256)": {
        "details": "See {IERC20-transferFrom}. Emits an {Approval} event indicating the updated allowance. This is not required by the EIP. See the note at the beginning of {ERC20}. NOTE: Does not update the allowance if the current allowance is the maximum `uint256`. Requirements: - `from` and `to` cannot be the zero address. - `from` must have a balance of at least `amount`. - the caller must have allowance for ``from``'s tokens of at least `amount`."
      },
      "transferOwnership(address)": {
        "details": "Transfers ownership of the contract to a new account (`newOwner`). Can only be called by the current owner."
      },
      "withdrawableDividendsOf(address)": {
        "details": "Returns the total amount of dividends a given address is able to withdraw.",
        "params": {
          "account": "Address of a dividend recipient"
        },
        "returns": {
          "_0": "A uint256 representing the dividends `account` can withdraw"
        }
      },
      "withdrawnDividendsOf(address)": {
        "params": {
          "account": "The address of a token holder."
        },
        "returns": {
          "_0": "The amount of dividends that `account` has withdrawn."
        }
      }
    },
    "version": 1
  },
  "userdoc": {
    "kind": "user",
    "methods": {
      "cumulativeDividendsOf(address)": {
        "notice": "View the amount of dividends that an address has earned in total."
      },
      "withdrawnDividendsOf(address)": {
        "notice": "View the amount of dividends that an address has withdrawn."
      }
    },
    "version": 1
  }
}