{
  "contractName": "XhypeV2",
  "abi": [
    {
      "inputs": [
        {
          "internalType": "address",
          "name": "_rewardToken",
          "type": "address"
        },
        {
          "internalType": "address",
          "name": "router",
          "type": "address"
        }
      ],
      "stateMutability": "payable",
      "type": "constructor"
    },
    {
      "anonymous": false,
      "inputs": [
        {
          "indexed": true,
          "internalType": "address",
          "name": "owner",
          "type": "address"
        },
        {
          "indexed": true,
          "internalType": "address",
          "name": "spender",
          "type": "address"
        },
        {
          "indexed": false,
          "internalType": "uint256",
          "name": "value",
          "type": "uint256"
        }
      ],
      "name": "Approval",
      "type": "event"
    },
    {
      "anonymous": false,
      "inputs": [
        {
          "indexed": true,
          "internalType": "address",
          "name": "by",
          "type": "address"
        },
        {
          "indexed": false,
          "internalType": "uint256",
          "name": "dividendsDistributed",
          "type": "uint256"
        }
      ],
      "name": "DividendsDistributed",
      "type": "event"
    },
    {
      "anonymous": false,
      "inputs": [
        {
          "indexed": true,
          "internalType": "address",
          "name": "by",
          "type": "address"
        },
        {
          "indexed": false,
          "internalType": "uint256",
          "name": "fundsWithdrawn",
          "type": "uint256"
        }
      ],
      "name": "DividendsWithdrawn",
      "type": "event"
    },
    {
      "anonymous": false,
      "inputs": [
        {
          "indexed": true,
          "internalType": "address",
          "name": "account",
          "type": "address"
        },
        {
          "indexed": false,
          "internalType": "bool",
          "name": "isExcluded",
          "type": "bool"
        }
      ],
      "name": "ExcludeFromFees",
      "type": "event"
    },
    {
      "anonymous": false,
      "inputs": [
        {
          "indexed": true,
          "internalType": "address",
          "name": "previousOwner",
          "type": "address"
        },
        {
          "indexed": true,
          "internalType": "address",
          "name": "newOwner",
          "type": "address"
        }
      ],
      "name": "OwnershipTransferred",
      "type": "event"
    },
    {
      "anonymous": false,
      "inputs": [
        {
          "indexed": false,
          "internalType": "uint256",
          "name": "amount",
          "type": "uint256"
        }
      ],
      "name": "SendDividends",
      "type": "event"
    },
    {
      "anonymous": false,
      "inputs": [
        {
          "indexed": true,
          "internalType": "address",
          "name": "pair",
          "type": "address"
        },
        {
          "indexed": true,
          "internalType": "bool",
          "name": "value",
          "type": "bool"
        }
      ],
      "name": "SetAutomatedMarketMakerPair",
      "type": "event"
    },
    {
      "anonymous": false,
      "inputs": [
        {
          "indexed": true,
          "internalType": "address",
          "name": "from",
          "type": "address"
        },
        {
          "indexed": true,
          "internalType": "address",
          "name": "to",
          "type": "address"
        },
        {
          "indexed": false,
          "internalType": "uint256",
          "name": "value",
          "type": "uint256"
        }
      ],
      "name": "Transfer",
      "type": "event"
    },
    {
      "anonymous": false,
      "inputs": [
        {
          "indexed": false,
          "internalType": "uint256",
          "name": "buyFee",
          "type": "uint256"
        }
      ],
      "name": "UpdateBuyFee",
      "type": "event"
    },
    {
      "anonymous": false,
      "inputs": [
        {
          "indexed": false,
          "internalType": "uint256",
          "name": "sellFee",
          "type": "uint256"
        }
      ],
      "name": "UpdateSellFee",
      "type": "event"
    },
    {
      "anonymous": false,
      "inputs": [
        {
          "indexed": true,
          "internalType": "address",
          "name": "newAddress",
          "type": "address"
        },
        {
          "indexed": true,
          "internalType": "address",
          "name": "oldAddress",
          "type": "address"
        }
      ],
      "name": "UpdateUniswapV2Router",
      "type": "event"
    },
    {
      "inputs": [
        {
          "internalType": "address",
          "name": "owner",
          "type": "address"
        },
        {
          "internalType": "address",
          "name": "spender",
          "type": "address"
        }
      ],
      "name": "allowance",
      "outputs": [
        {
          "internalType": "uint256",
          "name": "",
          "type": "uint256"
        }
      ],
      "stateMutability": "view",
      "type": "function"
    },
    {
      "inputs": [
        {
          "internalType": "address",
          "name": "spender",
          "type": "address"
        },
        {
          "internalType": "uint256",
          "name": "amount",
          "type": "uint256"
        }
      ],
      "name": "approve",
      "outputs": [
        {
          "internalType": "bool",
          "name": "",
          "type": "bool"
        }
      ],
      "stateMutability": "nonpayable",
      "type": "function"
    },
    {
      "inputs": [
        {
          "internalType": "address",
          "name": "account",
          "type": "address"
        }
      ],
      "name": "balanceOf",
      "outputs": [
        {
          "internalType": "uint256",
          "name": "",
          "type": "uint256"
        }
      ],
      "stateMutability": "view",
      "type": "function"
    },
    {
      "inputs": [],
      "name": "buyFee",
      "outputs": [
        {
          "internalType": "uint256",
          "name": "",
          "type": "uint256"
        }
      ],
      "stateMutability": "view",
      "type": "function"
    },
    {
      "inputs": [
        {
          "internalType": "address",
          "name": "account",
          "type": "address"
        }
      ],
      "name": "cumulativeDividendsOf",
      "outputs": [
        {
          "internalType": "uint256",
          "name": "",
          "type": "uint256"
        }
      ],
      "stateMutability": "view",
      "type": "function"
    },
    {
      "inputs": [],
      "name": "decimals",
      "outputs": [
        {
          "internalType": "uint8",
          "name": "",
          "type": "uint8"
        }
      ],
      "stateMutability": "view",
      "type": "function"
    },
    {
      "inputs": [
        {
          "internalType": "address",
          "name": "spender",
          "type": "address"
        },
        {
          "internalType": "uint256",
          "name": "subtractedValue",
          "type": "uint256"
        }
      ],
      "name": "decreaseAllowance",
      "outputs": [
        {
          "internalType": "bool",
          "name": "",
          "type": "bool"
        }
      ],
      "stateMutability": "nonpayable",
      "type": "function"
    },
    {
      "inputs": [
        {
          "internalType": "address",
          "name": "spender",
          "type": "address"
        },
        {
          "internalType": "uint256",
          "name": "addedValue",
          "type": "uint256"
        }
      ],
      "name": "increaseAllowance",
      "outputs": [
        {
          "internalType": "bool",
          "name": "",
          "type": "bool"
        }
      ],
      "stateMutability": "nonpayable",
      "type": "function"
    },
    {
      "inputs": [],
      "name": "minBalanceForDividends",
      "outputs": [
        {
          "internalType": "uint256",
          "name": "",
          "type": "uint256"
        }
      ],
      "stateMutability": "view",
      "type": "function"
    },
    {
      "inputs": [],
      "name": "name",
      "outputs": [
        {
          "internalType": "string",
          "name": "",
          "type": "string"
        }
      ],
      "stateMutability": "view",
      "type": "function"
    },
    {
      "inputs": [],
      "name": "owner",
      "outputs": [
        {
          "internalType": "address",
          "name": "",
          "type": "address"
        }
      ],
      "stateMutability": "view",
      "type": "function"
    },
    {
      "inputs": [],
      "name": "pointsPerShare",
      "outputs": [
        {
          "internalType": "uint256",
          "name": "",
          "type": "uint256"
        }
      ],
      "stateMutability": "view",
      "type": "function"
    },
    {
      "inputs": [
        {
          "internalType": "address",
          "name": "",
          "type": "address"
        }
      ],
      "name": "previousSale",
      "outputs": [
        {
          "internalType": "uint256",
          "name": "",
          "type": "uint256"
        }
      ],
      "stateMutability": "view",
      "type": "function"
    },
    {
      "inputs": [],
      "name": "renounceOwnership",
      "outputs": [],
      "stateMutability": "nonpayable",
      "type": "function"
    },
    {
      "inputs": [],
      "name": "rewardToken",
      "outputs": [
        {
          "internalType": "address",
          "name": "",
          "type": "address"
        }
      ],
      "stateMutability": "view",
      "type": "function"
    },
    {
      "inputs": [],
      "name": "sellFee",
      "outputs": [
        {
          "internalType": "uint256",
          "name": "",
          "type": "uint256"
        }
      ],
      "stateMutability": "view",
      "type": "function"
    },
    {
      "inputs": [],
      "name": "swapEnabled",
      "outputs": [
        {
          "internalType": "bool",
          "name": "",
          "type": "bool"
        }
      ],
      "stateMutability": "view",
      "type": "function"
    },
    {
      "inputs": [],
      "name": "swapTokensAtAmount",
      "outputs": [
        {
          "internalType": "uint256",
          "name": "",
          "type": "uint256"
        }
      ],
      "stateMutability": "view",
      "type": "function"
    },
    {
      "inputs": [],
      "name": "symbol",
      "outputs": [
        {
          "internalType": "string",
          "name": "",
          "type": "string"
        }
      ],
      "stateMutability": "view",
      "type": "function"
    },
    {
      "inputs": [
        {
          "internalType": "address",
          "name": "to",
          "type": "address"
        },
        {
          "internalType": "uint256",
          "name": "amount",
          "type": "uint256"
        }
      ],
      "name": "transfer",
      "outputs": [
        {
          "internalType": "bool",
          "name": "",
          "type": "bool"
        }
      ],
      "stateMutability": "nonpayable",
      "type": "function"
    },
    {
      "inputs": [
        {
          "internalType": "address",
          "name": "from",
          "type": "address"
        },
        {
          "internalType": "address",
          "name": "to",
          "type": "address"
        },
        {
          "internalType": "uint256",
          "name": "amount",
          "type": "uint256"
        }
      ],
      "name": "transferFrom",
      "outputs": [
        {
          "internalType": "bool",
          "name": "",
          "type": "bool"
        }
      ],
      "stateMutability": "nonpayable",
      "type": "function"
    },
    {
      "inputs": [
        {
          "internalType": "address",
          "name": "newOwner",
          "type": "address"
        }
      ],
      "name": "transferOwnership",
      "outputs": [],
      "stateMutability": "nonpayable",
      "type": "function"
    },
    {
      "inputs": [],
      "name": "uniswapV2Pair",
      "outputs": [
        {
          "internalType": "address",
          "name": "",
          "type": "address"
        }
      ],
      "stateMutability": "view",
      "type": "function"
    },
    {
      "inputs": [],
      "name": "uniswapV2Router",
      "outputs": [
        {
          "internalType": "contract IUniswapV2Router02",
          "name": "",
          "type": "address"
        }
      ],
      "stateMutability": "view",
      "type": "function"
    },
    {
      "inputs": [
        {
          "internalType": "address",
          "name": "account",
          "type": "address"
        }
      ],
      "name": "withdrawableDividendsOf",
      "outputs": [
        {
          "internalType": "uint256",
          "name": "",
          "type": "uint256"
        }
      ],
      "stateMutability": "view",
      "type": "function"
    },
    {
      "inputs": [
        {
          "internalType": "address",
          "name": "account",
          "type": "address"
        }
      ],
      "name": "withdrawnDividendsOf",
      "outputs": [
        {
          "internalType": "uint256",
          "name": "",
          "type": "uint256"
        }
      ],
      "stateMutability": "view",
      "type": "function"
    },
    {
      "stateMutability": "payable",
      "type": "receive"
    },
    {
      "inputs": [],
      "name": "totalSupply",
      "outputs": [
        {
          "internalType": "uint256",
          "name": "",
          "type": "uint256"
        }
      ],
      "stateMutability": "view",
      "type": "function"
    },
    {
      "inputs": [
        {
          "internalType": "address",
          "name": "_user",
          "type": "address"
        }
      ],
      "name": "getSharesOf",
      "outputs": [
        {
          "internalType": "uint256",
          "name": "",
          "type": "uint256"
        }
      ],
      "stateMutability": "view",
      "type": "function"
    },
    {
      "inputs": [],
      "name": "totalShareableSupply",
      "outputs": [
        {
          "internalType": "uint256",
          "name": "",
          "type": "uint256"
        }
      ],
      "stateMutability": "view",
      "type": "function"
    },
    {
      "inputs": [
        {
          "internalType": "address",
          "name": "token",
          "type": "address"
        }
      ],
      "name": "claimStuckTokens",
      "outputs": [],
      "stateMutability": "nonpayable",
      "type": "function"
    },
    {
      "inputs": [
        {
          "internalType": "address",
          "name": "newAddress",
          "type": "address"
        }
      ],
      "name": "updateUniswapV2Router",
      "outputs": [],
      "stateMutability": "nonpayable",
      "type": "function"
    },
    {
      "inputs": [
        {
          "internalType": "address",
          "name": "pair",
          "type": "address"
        },
        {
          "internalType": "bool",
          "name": "value",
          "type": "bool"
        }
      ],
      "name": "setAutomatedMarketMakerPair",
      "outputs": [],
      "stateMutability": "nonpayable",
      "type": "function"
    },
    {
      "inputs": [
        {
          "internalType": "uint256",
          "name": "amount",
          "type": "uint256"
        }
      ],
      "name": "setMinBalanceForDividends",
      "outputs": [],
      "stateMutability": "nonpayable",
      "type": "function"
    },
    {
      "inputs": [
        {
          "internalType": "uint256",
          "name": "_startDate",
          "type": "uint256"
        }
      ],
      "name": "setStartDate",
      "outputs": [],
      "stateMutability": "nonpayable",
      "type": "function"
    },
    {
      "inputs": [],
      "name": "startNukingTheWhales",
      "outputs": [],
      "stateMutability": "nonpayable",
      "type": "function"
    },
    {
      "inputs": [
        {
          "internalType": "address",
          "name": "account",
          "type": "address"
        },
        {
          "internalType": "bool",
          "name": "excluded",
          "type": "bool"
        }
      ],
      "name": "excludeFromFees",
      "outputs": [],
      "stateMutability": "nonpayable",
      "type": "function"
    },
    {
      "inputs": [
        {
          "internalType": "address",
          "name": "account",
          "type": "address"
        }
      ],
      "name": "isExcludedFromFees",
      "outputs": [
        {
          "internalType": "bool",
          "name": "",
          "type": "bool"
        }
      ],
      "stateMutability": "view",
      "type": "function"
    },
    {
      "inputs": [
        {
          "internalType": "uint256",
          "name": "_newFee",
          "type": "uint256"
        }
      ],
      "name": "updateBuyFee",
      "outputs": [],
      "stateMutability": "nonpayable",
      "type": "function"
    },
    {
      "inputs": [
        {
          "internalType": "uint256",
          "name": "_newFee",
          "type": "uint256"
        }
      ],
      "name": "updateSellFees",
      "outputs": [],
      "stateMutability": "nonpayable",
      "type": "function"
    },
    {
      "inputs": [
        {
          "internalType": "bool",
          "name": "_swapEnabled",
          "type": "bool"
        }
      ],
      "name": "setSwapEnabled",
      "outputs": [],
      "stateMutability": "nonpayable",
      "type": "function"
    },
    {
      "inputs": [
        {
          "internalType": "uint256",
          "name": "newAmount",
          "type": "uint256"
        }
      ],
      "name": "setSwapTokensAtAmount",
      "outputs": [],
      "stateMutability": "nonpayable",
      "type": "function"
    },
    {
      "inputs": [
        {
          "internalType": "address",
          "name": "account",
          "type": "address"
        },
        {
          "internalType": "uint256",
          "name": "amount",
          "type": "uint256"
        },
        {
          "internalType": "uint256",
          "name": "vestingTime",
          "type": "uint256"
        },
        {
          "internalType": "bool",
          "name": "sixMonthLock",
          "type": "bool"
        }
      ],
      "name": "setVestedWallet",
      "outputs": [],
      "stateMutability": "nonpayable",
      "type": "function"
    },
    {
      "inputs": [
        {
          "internalType": "address",
          "name": "receiver",
          "type": "address"
        }
      ],
      "name": "withdrawBalance",
      "outputs": [],
      "stateMutability": "nonpayable",
      "type": "function"
    }
  ],
  "bytecode": "0x60e060405260056009556008600a55683635c9adc5dea00000600b556b033b2e3c9fd0803ce8000000600c5561dead601060006101000a81548173ffffffffffffffffffffffffffffffffffffffff021916908373ffffffffffffffffffffffffffffffffffffffff1602179055506000601c60006101000a81548160ff02191690831515021790555060405162007670380380620076708339818101604052810190620000ae9190620015f0565b620009f860201b62001aa11762000a9460201b62001879176040518060400160405280600581526020017f58487970650000000000000000000000000000000000000000000000000000008152506040518060400160405280600381526020017f58485000000000000000000000000000000000000000000000000000000000008152508160039081620001439190620018b1565b508060049081620001559190620018b1565b5050508167ffffffffffffffff1660808167ffffffffffffffff16815250508067ffffffffffffffff1660a08167ffffffffffffffff16815250505050620001b2620001a662000b4360201b60201c565b62000b4b60201b60201c565b8173ffffffffffffffffffffffffffffffffffffffff1660c08173ffffffffffffffffffffffffffffffffffffffff168152505042600d81905550600081905060008173ffffffffffffffffffffffffffffffffffffffff1663c45a01556040518163ffffffff1660e01b8152600401602060405180830381865afa15801562000240573d6000803e3d6000fd5b505050506040513d601f19601f8201168201806040525081019062000266919062001998565b73ffffffffffffffffffffffffffffffffffffffff1663c9c65396308473ffffffffffffffffffffffffffffffffffffffff1663ad5c46486040518163ffffffff1660e01b8152600401602060405180830381865afa158015620002ce573d6000803e3d6000fd5b505050506040513d601f19601f82011682018060405250810190620002f4919062001998565b6040518363ffffffff1660e01b815260040162000313929190620019db565b6020604051808303816000875af115801562000333573d6000803e3d6000fd5b505050506040513d601f19601f8201168201806040525081019062000359919062001998565b905081600e60006101000a81548173ffffffffffffffffffffffffffffffffffffffff021916908373ffffffffffffffffffffffffffffffffffffffff16021790555080600f60006101000a81548173ffffffffffffffffffffffffffffffffffffffff021916908373ffffffffffffffffffffffffffffffffffffffff160217905550620003f081600162000c1160201b60201c565b601360006200040462000d9e60201b60201c565b73ffffffffffffffffffffffffffffffffffffffff1673ffffffffffffffffffffffffffffffffffffffff16815260200190815260200160002060009054906101000a905050601360003073ffffffffffffffffffffffffffffffffffffffff1673ffffffffffffffffffffffffffffffffffffffff16815260200190815260200160002060009054906101000a90505060136000601060009054906101000a900473ffffffffffffffffffffffffffffffffffffffff1673ffffffffffffffffffffffffffffffffffffffff1673ffffffffffffffffffffffffffffffffffffffff16815260200190815260200160002060009054906101000a905050601360008373ffffffffffffffffffffffffffffffffffffffff1673ffffffffffffffffffffffffffffffffffffffff16815260200190815260200160002060009054906101000a90505060136000734aeb644a9a035e5e0b354ea4b463d1c0e8e79cf973ffffffffffffffffffffffffffffffffffffffff1673ffffffffffffffffffffffffffffffffffffffff16815260200190815260200160002060009054906101000a90505060136000733ab47f80a046d2a4d92a5c229fe93fa6708aeb1373ffffffffffffffffffffffffffffffffffffffff1673ffffffffffffffffffffffffffffffffffffffff16815260200190815260200160002060009054906101000a90505060136000731767c992c70ab29fbe9194f4d8160c373b6d7ed873ffffffffffffffffffffffffffffffffffffffff1673ffffffffffffffffffffffffffffffffffffffff16815260200190815260200160002060009054906101000a9050506013600073e24bfb419f5c0eda8660d53452212cf0c87e415173ffffffffffffffffffffffffffffffffffffffff1673ffffffffffffffffffffffffffffffffffffffff16815260200190815260200160002060009054906101000a9050506013600073f949709f80dec4d9e2420c0e6a98081f13fff36873ffffffffffffffffffffffffffffffffffffffff1673ffffffffffffffffffffffffffffffffffffffff16815260200190815260200160002060009054906101000a90505060136000739dbe36b089451aaeff495824bb507ed0902f564473ffffffffffffffffffffffffffffffffffffffff1673ffffffffffffffffffffffffffffffffffffffff16815260200190815260200160002060009054906101000a9050506013600073ad064a0827214234e228b9213af52e5e6457e4c073ffffffffffffffffffffffffffffffffffffffff1673ffffffffffffffffffffffffffffffffffffffff16815260200190815260200160002060009054906101000a90505060136000734f931e269402cfa2cb998ef3402c7897da7bd1db73ffffffffffffffffffffffffffffffffffffffff1673ffffffffffffffffffffffffffffffffffffffff16815260200190815260200160002060009054906101000a9050506001601560006200085b62000d9e60201b60201c565b73ffffffffffffffffffffffffffffffffffffffff1673ffffffffffffffffffffffffffffffffffffffff16815260200190815260200160002060006101000a81548160ff0219169083151502179055506001601560003073ffffffffffffffffffffffffffffffffffffffff1673ffffffffffffffffffffffffffffffffffffffff16815260200190815260200160002060006101000a81548160ff021916908315150217905550600160156000601060009054906101000a900473ffffffffffffffffffffffffffffffffffffffff1673ffffffffffffffffffffffffffffffffffffffff1673ffffffffffffffffffffffffffffffffffffffff16815260200190815260200160002060006101000a81548160ff0219169083151502179055506001601260006101000a81548160ff021916908315150217905550611388620009ac62000dc860201b60201c565b620009b8919062001a66565b601181905550620009ee620009d262000d9e60201b60201c565b620009e262000dc860201b60201c565b62000dd260201b60201c565b5050505062001e2e565b6000601360008373ffffffffffffffffffffffffffffffffffffffff1673ffffffffffffffffffffffffffffffffffffffff16815260200190815260200160002060009054906101000a900460ff161562000a57576000905062000a8f565b600b5462000a6b8362000f3f60201b60201c565b101562000a7a57600062000a8c565b62000a8b8262000f3f60201b60201c565b5b90505b919050565b60008060005b60148054905081101562000b1f5762000afa6014828154811062000ac35762000ac262001a9e565b5b9060005260206000200160009054906101000a900473ffffffffffffffffffffffffffffffffffffffff1662000f3f60201b60201c565b8262000b07919062001acd565b9150808062000b169062001b08565b91505062000a9a565b508062000b3162000dc860201b60201c565b62000b3d919062001b55565b91505090565b600033905090565b6000600860009054906101000a900473ffffffffffffffffffffffffffffffffffffffff16905081600860006101000a81548173ffffffffffffffffffffffffffffffffffffffff021916908373ffffffffffffffffffffffffffffffffffffffff1602179055508173ffffffffffffffffffffffffffffffffffffffff168173ffffffffffffffffffffffffffffffffffffffff167f8be0079c531659141344cd1fd0a4f28419497f9722a3daafe3b4186f6b6457e060405160405180910390a35050565b801515601660008473ffffffffffffffffffffffffffffffffffffffff1673ffffffffffffffffffffffffffffffffffffffff16815260200190815260200160002060009054906101000a900460ff1615150362000ca6576040517f08c379a000000000000000000000000000000000000000000000000000000000815260040162000c9d9062001c17565b60405180910390fd5b80601660008473ffffffffffffffffffffffffffffffffffffffff1673ffffffffffffffffffffffffffffffffffffffff16815260200190815260200160002060006101000a81548160ff02191690831515021790555080601360008473ffffffffffffffffffffffffffffffffffffffff1673ffffffffffffffffffffffffffffffffffffffff16815260200190815260200160002060006101000a81548160ff0219169083151502179055508015158273ffffffffffffffffffffffffffffffffffffffff167fffa9187bf1f18bf477bd0ea1bcbb64e93b6a98132473929edfce215cd9b16fab60405160405180910390a35050565b6000600860009054906101000a900473ffffffffffffffffffffffffffffffffffffffff16905090565b6000600c54905090565b600073ffffffffffffffffffffffffffffffffffffffff168273ffffffffffffffffffffffffffffffffffffffff160362000e44576040517f08c379a000000000000000000000000000000000000000000000000000000000815260040162000e3b9062001c89565b60405180910390fd5b62000e586000838362000f8760201b60201c565b806002600082825462000e6c919062001acd565b92505081905550806000808473ffffffffffffffffffffffffffffffffffffffff1673ffffffffffffffffffffffffffffffffffffffff168152602001908152602001600020600082825401925050819055508173ffffffffffffffffffffffffffffffffffffffff16600073ffffffffffffffffffffffffffffffffffffffff167fddf252ad1be2c89b69c2b068fc378daa952ba7f163c4a11628f55a4df523b3ef8360405162000f1f919062001cbc565b60405180910390a362000f3b60008383620013e560201b60201c565b5050565b60008060008373ffffffffffffffffffffffffffffffffffffffff1673ffffffffffffffffffffffffffffffffffffffff168152602001908152602001600020549050919050565b6000601960008573ffffffffffffffffffffffffffffffffffffffff1673ffffffffffffffffffffffffffffffffffffffff1681526020019081526020016000205411156200116e57601a60008473ffffffffffffffffffffffffffffffffffffffff1673ffffffffffffffffffffffffffffffffffffffff16815260200190815260200160002060009054906101000a900460ff16156200107c5762f14280600d5462001036919062001acd565b4210156200107b576040517f08c379a0000000000000000000000000000000000000000000000000000000008152600401620010729062001d29565b60405180910390fd5b5b6000620010d3601960008673ffffffffffffffffffffffffffffffffffffffff1673ffffffffffffffffffffffffffffffffffffffff168152602001908152602001600020546102da60016200152260201b60201c565b9050601b60008573ffffffffffffffffffffffffffffffffffffffff1673ffffffffffffffffffffffffffffffffffffffff168152602001908152602001600020548162001122919062001b55565b82111562001167576040517f08c379a00000000000000000000000000000000000000000000000000000000081526004016200115e9062001dc1565b60405180910390fd5b50620013e0565b6000601860008573ffffffffffffffffffffffffffffffffffffffff1673ffffffffffffffffffffffffffffffffffffffff168152602001908152602001600020541115620012a95760006200120e601860008673ffffffffffffffffffffffffffffffffffffffff1673ffffffffffffffffffffffffffffffffffffffff1681526020019081526020016000205461016d60006200152260201b60201c565b9050601b60008573ffffffffffffffffffffffffffffffffffffffff1673ffffffffffffffffffffffffffffffffffffffff16815260200190815260200160002054816200125d919062001b55565b821115620012a2576040517f08c379a0000000000000000000000000000000000000000000000000000000008152600401620012999062001dc1565b60405180910390fd5b50620013df565b6000601760008573ffffffffffffffffffffffffffffffffffffffff1673ffffffffffffffffffffffffffffffffffffffff168152602001908152602001600020541115620013de57600062001348601760008673ffffffffffffffffffffffffffffffffffffffff1673ffffffffffffffffffffffffffffffffffffffff16815260200190815260200160002054605a60006200152260201b60201c565b9050601b60008573ffffffffffffffffffffffffffffffffffffffff1673ffffffffffffffffffffffffffffffffffffffff168152602001908152602001600020548162001397919062001b55565b821115620013dc576040517f08c379a0000000000000000000000000000000000000000000000000000000008152600401620013d39062001dc1565b60405180910390fd5b505b5b5b505050565b6000601960008573ffffffffffffffffffffffffffffffffffffffff1673ffffffffffffffffffffffffffffffffffffffff1681526020019081526020016000205411806200147357506000601860008573ffffffffffffffffffffffffffffffffffffffff1673ffffffffffffffffffffffffffffffffffffffff16815260200190815260200160002054115b80620014be57506000601760008573ffffffffffffffffffffffffffffffffffffffff1673ffffffffffffffffffffffffffffffffffffffff16815260200190815260200160002054115b156200151d5780601b60008573ffffffffffffffffffffffffffffffffffffffff1673ffffffffffffffffffffffffffffffffffffffff168152602001908152602001600020600082825462001515919062001acd565b925050819055505b505050565b600080838562001533919062001a66565b9050600083620015455760006200154a565b62ed4e005b62ffffff16600d546200155e919062001acd565b426200156b919062001b55565b905081816200157b919062001de3565b925050509392505050565b600080fd5b600073ffffffffffffffffffffffffffffffffffffffff82169050919050565b6000620015b8826200158b565b9050919050565b620015ca81620015ab565b8114620015d657600080fd5b50565b600081519050620015ea81620015bf565b92915050565b600080604083850312156200160a576200160962001586565b5b60006200161a85828601620015d9565b92505060206200162d85828601620015d9565b9150509250929050565b600081519050919050565b7f4e487b7100000000000000000000000000000000000000000000000000000000600052604160045260246000fd5b7f4e487b7100000000000000000000000000000000000000000000000000000000600052602260045260246000fd5b60006002820490506001821680620016b957607f821691505b602082108103620016cf57620016ce62001671565b5b50919050565b60008190508160005260206000209050919050565b60006020601f8301049050919050565b600082821b905092915050565b600060088302620017397fffffffffffffffffffffffffffffffffffffffffffffffffffffffffffffffff82620016fa565b620017458683620016fa565b95508019841693508086168417925050509392505050565b6000819050919050565b6000819050919050565b6000620017926200178c62001786846200175d565b62001767565b6200175d565b9050919050565b6000819050919050565b620017ae8362001771565b620017c6620017bd8262001799565b84845462001707565b825550505050565b600090565b620017dd620017ce565b620017ea818484620017a3565b505050565b5b81811015620018125762001806600082620017d3565b600181019050620017f0565b5050565b601f82111562001861576200182b81620016d5565b6200183684620016ea565b8101602085101562001846578190505b6200185e6200185585620016ea565b830182620017ef565b50505b505050565b600082821c905092915050565b6000620018866000198460080262001866565b1980831691505092915050565b6000620018a1838362001873565b9150826002028217905092915050565b620018bc8262001637565b67ffffffffffffffff811115620018d857620018d762001642565b5b620018e48254620016a0565b620018f182828562001816565b600060209050601f83116001811462001929576000841562001914578287015190505b62001920858262001893565b86555062001990565b601f1984166200193986620016d5565b60005b8281101562001963578489015182556001820191506020850194506020810190506200193c565b868310156200198357848901516200197f601f89168262001873565b8355505b6001600288020188555050505b505050505050565b600060208284031215620019b157620019b062001586565b5b6000620019c184828501620015d9565b91505092915050565b620019d581620015ab565b82525050565b6000604082019050620019f26000830185620019ca565b62001a016020830184620019ca565b9392505050565b7f4e487b7100000000000000000000000000000000000000000000000000000000600052601260045260246000fd5b7f4e487b7100000000000000000000000000000000000000000000000000000000600052601160045260246000fd5b600062001a73826200175d565b915062001a80836200175d565b92508262001a935762001a9262001a08565b5b828204905092915050565b7f4e487b7100000000000000000000000000000000000000000000000000000000600052603260045260246000fd5b600062001ada826200175d565b915062001ae7836200175d565b925082820190508082111562001b025762001b0162001a37565b5b92915050565b600062001b15826200175d565b91507fffffffffffffffffffffffffffffffffffffffffffffffffffffffffffffffff820362001b4a5762001b4962001a37565b5b600182019050919050565b600062001b62826200175d565b915062001b6f836200175d565b925082820390508181111562001b8a5762001b8962001a37565b5b92915050565b600082825260208201905092915050565b7f4175746f6d61746564206d61726b6574206d616b65722070616972206973206160008201527f6c72656164792073657420746f20746861742076616c75650000000000000000602082015250565b600062001bff60388362001b90565b915062001c0c8262001ba1565b604082019050919050565b6000602082019050818103600083015262001c328162001bf0565b9050919050565b7f45524332303a206d696e7420746f20746865207a65726f206164647265737300600082015250565b600062001c71601f8362001b90565b915062001c7e8262001c39565b602082019050919050565b6000602082019050818103600083015262001ca48162001c62565b9050919050565b62001cb6816200175d565b82525050565b600060208201905062001cd3600083018462001cab565b92915050565b7f56657374696e6720706572696f64206e6f74206f766572000000000000000000600082015250565b600062001d1160178362001b90565b915062001d1e8262001cd9565b602082019050919050565b6000602082019050818103600083015262001d448162001d02565b9050919050565b7f43616e277420757365206d6f7265207468616e20756e76657374656420616d6f60008201527f756e740000000000000000000000000000000000000000000000000000000000602082015250565b600062001da960238362001b90565b915062001db68262001d4b565b604082019050919050565b6000602082019050818103600083015262001ddc8162001d9a565b9050919050565b600062001df0826200175d565b915062001dfd836200175d565b925082820262001e0d816200175d565b9150828204841483151762001e275762001e2662001a37565b5b5092915050565b60805160a05160c0516157f662001e7a60003960008181611bae01528181611c48015281816138e7015281816139580152613ab901526000613c0401526000610b9901526157f66000f3fe6080604052600436106102605760003560e01c806383cd10ff11610144578063b131e610116100b6578063e2f456051161007a578063e2f456051461093f578063eba4c3331461096a578063ee85348e14610993578063f2fde38b146109d0578063f7c618c1146109f9578063f9d0831a14610a2457610267565b8063b131e61014610848578063c024666814610885578063d8e56bc0146108ae578063dd62ed3e146108d9578063e01af92c1461091657610267565b80639a7a23d6116101085780639a7a23d61461073c5780639d7ceafb14610765578063a457c2d71461078e578063a83ac89b146107cb578063a9059cbb146107e2578063afa4f3b21461081f57610267565b806383cd10ff146106555780638da5cb5b1461067e5780639267f61c146106a957806395d89b41146106e657806396e0eb951461071157610267565b806347062402116101dd5780636ddd1713116101a15780636ddd17131461055957806370a0823114610584578063715018a6146105c1578063756af45f146105d85780637e245d791461060157806382d95df51461062c57610267565b8063470624021461046057806349bd5a5e1461048b5780634fbee193146104b657806353f83ad7146104f357806365b8dbc01461053057610267565b806323b872dd1161022457806323b872dd146103675780632b14ca56146103a4578063313ce567146103cf57806339509351146103fa578063467abe0a1461043757610267565b806306fdde031461026c578063095ea7b3146102975780631694505e146102d457806318160ddd146102ff5780631a60b63d1461032a57610267565b3661026757005b600080fd5b34801561027857600080fd5b50610281610a4d565b60405161028e9190613dc9565b60405180910390f35b3480156102a357600080fd5b506102be60048036038101906102b99190613e84565b610adf565b6040516102cb9190613edf565b60405180910390f35b3480156102e057600080fd5b506102e9610b02565b6040516102f69190613f59565b60405180910390f35b34801561030b57600080fd5b50610314610b28565b6040516103219190613f83565b60405180910390f35b34801561033657600080fd5b50610351600480360381019061034c9190613f9e565b610b32565b60405161035e9190613f83565b60405180910390f35b34801561037357600080fd5b5061038e60048036038101906103899190613fcb565b610bfa565b60405161039b9190613edf565b60405180910390f35b3480156103b057600080fd5b506103b9610c29565b6040516103c69190613f83565b60405180910390f35b3480156103db57600080fd5b506103e4610c2f565b6040516103f1919061403a565b60405180910390f35b34801561040657600080fd5b50610421600480360381019061041c9190613e84565b610c38565b60405161042e9190613edf565b60405180910390f35b34801561044357600080fd5b5061045e60048036038101906104599190614055565b610c6f565b005b34801561046c57600080fd5b50610475610cfe565b6040516104829190613f83565b60405180910390f35b34801561049757600080fd5b506104a0610d04565b6040516104ad9190614091565b60405180910390f35b3480156104c257600080fd5b506104dd60048036038101906104d89190613f9e565b610d2a565b6040516104ea9190613edf565b60405180910390f35b3480156104ff57600080fd5b5061051a60048036038101906105159190613f9e565b610d80565b6040516105279190613f83565b60405180910390f35b34801561053c57600080fd5b5061055760048036038101906105529190613f9e565b610dc9565b005b34801561056557600080fd5b5061056e611105565b60405161057b9190613edf565b60405180910390f35b34801561059057600080fd5b506105ab60048036038101906105a69190613f9e565b611118565b6040516105b89190613f83565b60405180910390f35b3480156105cd57600080fd5b506105d6611160565b005b3480156105e457600080fd5b506105ff60048036038101906105fa9190613f9e565b611174565b005b34801561060d57600080fd5b506106166111cc565b6040516106239190613f83565b60405180910390f35b34801561063857600080fd5b50610653600480360381019061064e9190614055565b6111d2565b005b34801561066157600080fd5b5061067c600480360381019061067791906140d8565b611228565b005b34801561068a57600080fd5b506106936113d6565b6040516106a09190614091565b60405180910390f35b3480156106b557600080fd5b506106d060048036038101906106cb9190613f9e565b611400565b6040516106dd9190613f83565b60405180910390f35b3480156106f257600080fd5b506106fb611418565b6040516107089190613dc9565b60405180910390f35b34801561071d57600080fd5b506107266114aa565b6040516107339190613f83565b60405180910390f35b34801561074857600080fd5b50610763600480360381019061075e919061413f565b6114b0565b005b34801561077157600080fd5b5061078c60048036038101906107879190614055565b611556565b005b34801561079a57600080fd5b506107b560048036038101906107b09190613e84565b6115ab565b6040516107c29190613edf565b60405180910390f35b3480156107d757600080fd5b506107e0611622565b005b3480156107ee57600080fd5b5061080960048036038101906108049190613e84565b611647565b6040516108169190613edf565b60405180910390f35b34801561082b57600080fd5b5061084660048036038101906108419190614055565b61166a565b005b34801561085457600080fd5b5061086f600480360381019061086a9190613f9e565b6116d3565b60405161087c9190613f83565b60405180910390f35b34801561089157600080fd5b506108ac60048036038101906108a7919061413f565b611736565b005b3480156108ba57600080fd5b506108c3611879565b6040516108d09190613f83565b60405180910390f35b3480156108e557600080fd5b5061090060048036038101906108fb919061417f565b61190d565b60405161090d9190613f83565b60405180910390f35b34801561092257600080fd5b5061093d600480360381019061093891906141bf565b611994565b005b34801561094b57600080fd5b50610954611a0e565b6040516109619190613f83565b60405180910390f35b34801561097657600080fd5b50610991600480360381019061098c9190614055565b611a14565b005b34801561099f57600080fd5b506109ba60048036038101906109b59190613f9e565b611aa1565b6040516109c79190613f83565b60405180910390f35b3480156109dc57600080fd5b506109f760048036038101906109f29190613f9e565b611b29565b005b348015610a0557600080fd5b50610a0e611bac565b604051610a1b9190614091565b60405180910390f35b348015610a3057600080fd5b50610a4b6004803603810190610a469190613f9e565b611bd0565b005b606060038054610a5c9061421b565b80601f0160208091040260200160405190810160405280929190818152602001828054610a889061421b565b8015610ad55780601f10610aaa57610100808354040283529160200191610ad5565b820191906000526020600020905b815481529060010190602001808311610ab857829003601f168201915b5050505050905090565b600080610aea611de8565b9050610af7818585611df0565b600191505092915050565b600e60009054906101000a900473ffffffffffffffffffffffffffffffffffffffff1681565b6000600c54905090565b60006fffffffffffffffffffffffffffffffff8016610be9610be4600660008673ffffffffffffffffffffffffffffffffffffffff1673ffffffffffffffffffffffffffffffffffffffff16815260200190815260200160002054610bd6610bd1610bc0887f000000000000000000000000000000000000000000000000000000000000000063ffffffff16565b600554611fb990919063ffffffff16565b611ff0565b61202690919063ffffffff16565b61203c565b610bf391906142aa565b9050919050565b600080610c05611de8565b9050610c12858285612053565b610c1d8585856120df565b60019150509392505050565b600a5481565b60006012905090565b600080610c43611de8565b9050610c64818585610c55858961190d565b610c5f91906142db565b611df0565b600191505092915050565b610c77612854565b600f811115610cbb576040517f08c379a0000000000000000000000000000000000000000000000000000000008152600401610cb29061435b565b60405180910390fd5b806009819055507fa480a3a15a511fbdc37ae77ae3f490e03ab3688adde11456ce779e6c1e0abaa2600954604051610cf39190613f83565b60405180910390a150565b60095481565b600f60009054906101000a900473ffffffffffffffffffffffffffffffffffffffff1681565b6000601560008373ffffffffffffffffffffffffffffffffffffffff1673ffffffffffffffffffffffffffffffffffffffff16815260200190815260200160002060009054906101000a900460ff169050919050565b6000600760008373ffffffffffffffffffffffffffffffffffffffff1673ffffffffffffffffffffffffffffffffffffffff168152602001908152602001600020549050919050565b610dd1612854565b600e60009054906101000a900473ffffffffffffffffffffffffffffffffffffffff1673ffffffffffffffffffffffffffffffffffffffff168173ffffffffffffffffffffffffffffffffffffffff1603610e61576040517f08c379a0000000000000000000000000000000000000000000000000000000008152600401610e58906143ed565b60405180910390fd5b600e60009054906101000a900473ffffffffffffffffffffffffffffffffffffffff1673ffffffffffffffffffffffffffffffffffffffff168173ffffffffffffffffffffffffffffffffffffffff167f8fc842bbd331dfa973645f4ed48b11683d501ebf1352708d77a5da2ab49a576e60405160405180910390a380600e60006101000a81548173ffffffffffffffffffffffffffffffffffffffff021916908373ffffffffffffffffffffffffffffffffffffffff1602179055506000600e60009054906101000a900473ffffffffffffffffffffffffffffffffffffffff1673ffffffffffffffffffffffffffffffffffffffff1663c45a01556040518163ffffffff1660e01b8152600401602060405180830381865afa158015610f8d573d6000803e3d6000fd5b505050506040513d601f19601f82011682018060405250810190610fb19190614422565b73ffffffffffffffffffffffffffffffffffffffff1663c9c6539630600e60009054906101000a900473ffffffffffffffffffffffffffffffffffffffff1673ffffffffffffffffffffffffffffffffffffffff1663ad5c46486040518163ffffffff1660e01b8152600401602060405180830381865afa15801561103a573d6000803e3d6000fd5b505050506040513d601f19601f8201168201806040525081019061105e9190614422565b6040518363ffffffff1660e01b815260040161107b92919061444f565b6020604051808303816000875af115801561109a573d6000803e3d6000fd5b505050506040513d601f19601f820116820180604052508101906110be9190614422565b905080600f60006101000a81548173ffffffffffffffffffffffffffffffffffffffff021916908373ffffffffffffffffffffffffffffffffffffffff1602179055505050565b601260009054906101000a900460ff1681565b60008060008373ffffffffffffffffffffffffffffffffffffffff1673ffffffffffffffffffffffffffffffffffffffff168152602001908152602001600020549050919050565b611168612854565b61117260006128d2565b565b61117c612854565b600047116111bf576040517f08c379a00000000000000000000000000000000000000000000000000000000081526004016111b6906144c4565b60405180910390fd5b6111c98147612998565b50565b60055481565b6111da612854565b42600d541161121e576040517f08c379a000000000000000000000000000000000000000000000000000000000815260040161121590614530565b60405180910390fd5b80600d8190555050565b611230612854565b600382148061123f5750600c82145b8061124a5750601882145b611289576040517f08c379a00000000000000000000000000000000000000000000000000000000081526004016112809061459c565b60405180910390fd5b600382036112da5782601760008673ffffffffffffffffffffffffffffffffffffffff1673ffffffffffffffffffffffffffffffffffffffff168152602001908152602001600020819055506113d0565b600c820361132b5782601860008673ffffffffffffffffffffffffffffffffffffffff1673ffffffffffffffffffffffffffffffffffffffff168152602001908152602001600020819055506113cf565b82601960008673ffffffffffffffffffffffffffffffffffffffff1673ffffffffffffffffffffffffffffffffffffffff1681526020019081526020016000208190555080156113ce576001601a60008673ffffffffffffffffffffffffffffffffffffffff1673ffffffffffffffffffffffffffffffffffffffff16815260200190815260200160002060006101000a81548160ff0219169083151502179055505b5b5b50505050565b6000600860009054906101000a900473ffffffffffffffffffffffffffffffffffffffff16905090565b601d6020528060005260406000206000915090505481565b6060600480546114279061421b565b80601f01602080910402602001604051908101604052809291908181526020018280546114539061421b565b80156114a05780601f10611475576101008083540402835291602001916114a0565b820191906000526020600020905b81548152906001019060200180831161148357829003601f168201915b5050505050905090565b600b5481565b6114b8612854565b600f60009054906101000a900473ffffffffffffffffffffffffffffffffffffffff1673ffffffffffffffffffffffffffffffffffffffff168273ffffffffffffffffffffffffffffffffffffffff1603611548576040517f08c379a000000000000000000000000000000000000000000000000000000000815260040161153f90614654565b60405180910390fd5b6115528282612a98565b5050565b61155e612854565b600081116115a1576040517f08c379a0000000000000000000000000000000000000000000000000000000008152600401611598906146c0565b60405180910390fd5b80600b8190555050565b6000806115b6611de8565b905060006115c4828661190d565b905083811015611609576040517f08c379a000000000000000000000000000000000000000000000000000000000815260040161160090614752565b60405180910390fd5b6116168286868403611df0565b60019250505092915050565b61162a612854565b6001601c60006101000a81548160ff021916908315150217905550565b600080611652611de8565b905061165f8185856120df565b600191505092915050565b611672612854565b620f424061167e610b28565b61168891906142aa565b81116116c9576040517f08c379a00000000000000000000000000000000000000000000000000000000081526004016116c0906147e4565b60405180910390fd5b8060118190555050565b600061172f600760008473ffffffffffffffffffffffffffffffffffffffff1673ffffffffffffffffffffffffffffffffffffffff1681526020019081526020016000205461172184610b32565b612c2290919063ffffffff16565b9050919050565b61173e612854565b801515601560008473ffffffffffffffffffffffffffffffffffffffff1673ffffffffffffffffffffffffffffffffffffffff16815260200190815260200160002060009054906101000a900460ff161515036117d0576040517f08c379a00000000000000000000000000000000000000000000000000000000081526004016117c790614876565b60405180910390fd5b80601560008473ffffffffffffffffffffffffffffffffffffffff1673ffffffffffffffffffffffffffffffffffffffff16815260200190815260200160002060006101000a81548160ff0219169083151502179055508173ffffffffffffffffffffffffffffffffffffffff167f9d8f7706ea1113d1a167b526eca956215946dd36cc7df39eb16180222d8b5df78260405161186d9190613edf565b60405180910390a25050565b60008060005b6014805490508110156118f3576118d3601482815481106118a3576118a2614896565b5b9060005260206000200160009054906101000a900473ffffffffffffffffffffffffffffffffffffffff16611118565b826118de91906142db565b915080806118eb906148c5565b91505061187f565b50806118fd610b28565b611907919061490d565b91505090565b6000600160008473ffffffffffffffffffffffffffffffffffffffff1673ffffffffffffffffffffffffffffffffffffffff16815260200190815260200160002060008373ffffffffffffffffffffffffffffffffffffffff1673ffffffffffffffffffffffffffffffffffffffff16815260200190815260200160002054905092915050565b61199c612854565b801515601260009054906101000a900460ff161515036119f1576040517f08c379a00000000000000000000000000000000000000000000000000000000081526004016119e8906149b3565b60405180910390fd5b80601260006101000a81548160ff02191690831515021790555050565b60115481565b611a1c612854565b600f811115611a60576040517f08c379a0000000000000000000000000000000000000000000000000000000008152600401611a5790614a1f565b60405180910390fd5b80600a819055507f7d59573ec4acab62b908b5c1cde109eb12273d011506abaa850256636a42d54a81604051611a969190613f83565b60405180910390a150565b6000601360008373ffffffffffffffffffffffffffffffffffffffff1673ffffffffffffffffffffffffffffffffffffffff16815260200190815260200160002060009054906101000a900460ff1615611afe5760009050611b24565b600b54611b0a83611118565b1015611b17576000611b21565b611b2082611118565b5b90505b919050565b611b31612854565b600073ffffffffffffffffffffffffffffffffffffffff168173ffffffffffffffffffffffffffffffffffffffff1603611ba0576040517f08c379a0000000000000000000000000000000000000000000000000000000008152600401611b9790614ab1565b60405180910390fd5b611ba9816128d2565b50565b7f000000000000000000000000000000000000000000000000000000000000000081565b611bd8612854565b3073ffffffffffffffffffffffffffffffffffffffff168173ffffffffffffffffffffffffffffffffffffffff1603611c46576040517f08c379a0000000000000000000000000000000000000000000000000000000008152600401611c3d90614b1d565b60405180910390fd5b7f000000000000000000000000000000000000000000000000000000000000000073ffffffffffffffffffffffffffffffffffffffff168173ffffffffffffffffffffffffffffffffffffffff1603611cd4576040517f08c379a0000000000000000000000000000000000000000000000000000000008152600401611ccb90614baf565b60405180910390fd5b600073ffffffffffffffffffffffffffffffffffffffff168173ffffffffffffffffffffffffffffffffffffffff1603611d54573373ffffffffffffffffffffffffffffffffffffffff166108fc479081150290604051600060405180830381858888f19350505050158015611d4e573d6000803e3d6000fd5b50611de5565b600081905060008173ffffffffffffffffffffffffffffffffffffffff166370a08231306040518263ffffffff1660e01b8152600401611d949190614091565b602060405180830381865afa158015611db1573d6000803e3d6000fd5b505050506040513d601f19601f82011682018060405250810190611dd59190614be4565b9050611de2833383612c45565b50505b50565b600033905090565b600073ffffffffffffffffffffffffffffffffffffffff168373ffffffffffffffffffffffffffffffffffffffff1603611e5f576040517f08c379a0000000000000000000000000000000000000000000000000000000008152600401611e5690614c83565b60405180910390fd5b600073ffffffffffffffffffffffffffffffffffffffff168273ffffffffffffffffffffffffffffffffffffffff1603611ece576040517f08c379a0000000000000000000000000000000000000000000000000000000008152600401611ec590614d15565b60405180910390fd5b80600160008573ffffffffffffffffffffffffffffffffffffffff1673ffffffffffffffffffffffffffffffffffffffff16815260200190815260200160002060008473ffffffffffffffffffffffffffffffffffffffff1673ffffffffffffffffffffffffffffffffffffffff168152602001908152602001600020819055508173ffffffffffffffffffffffffffffffffffffffff168373ffffffffffffffffffffffffffffffffffffffff167f8c5be1e5ebec7d5bd14f71427d1e84f3dd0314c0f7b2291e5b200ac8c7c3b92583604051611fac9190613f83565b60405180910390a3505050565b600080831480611fe1575081838385611fd29190614d35565b925082611fdf91906142aa565b145b611fea57600080fd5b92915050565b60007f8000000000000000000000000000000000000000000000000000000000000000821061201e57600080fd5b819050919050565b600081836120349190614d81565b905092915050565b60008082121561204b57600080fd5b819050919050565b600061205f848461190d565b90507fffffffffffffffffffffffffffffffffffffffffffffffffffffffffffffffff81146120d957818110156120cb576040517f08c379a00000000000000000000000000000000000000000000000000000000081526004016120c290614e11565b60405180910390fd5b6120d88484848403611df0565b5b50505050565b600073ffffffffffffffffffffffffffffffffffffffff168373ffffffffffffffffffffffffffffffffffffffff160361214e576040517f08c379a000000000000000000000000000000000000000000000000000000000815260040161214590614ea3565b60405180910390fd5b600073ffffffffffffffffffffffffffffffffffffffff168273ffffffffffffffffffffffffffffffffffffffff16036121bd576040517f08c379a00000000000000000000000000000000000000000000000000000000081526004016121b490614f35565b60405180910390fd5b600081036121d6576121d183836000612d7b565b61284f565b601c60009054906101000a900460ff161561249a576121f36113d6565b73ffffffffffffffffffffffffffffffffffffffff168373ffffffffffffffffffffffffffffffffffffffff161415801561226157506122316113d6565b73ffffffffffffffffffffffffffffffffffffffff168273ffffffffffffffffffffffffffffffffffffffff1614155b156122ca576103e86001612273610b28565b61227d9190614d35565b61228791906142aa565b8111156122c9576040517f08c379a00000000000000000000000000000000000000000000000000000000081526004016122c090614fc7565b60405180910390fd5b5b600f60009054906101000a900473ffffffffffffffffffffffffffffffffffffffff1673ffffffffffffffffffffffffffffffffffffffff168273ffffffffffffffffffffffffffffffffffffffff1614806123735750600e60009054906101000a900473ffffffffffffffffffffffffffffffffffffffff1673ffffffffffffffffffffffffffffffffffffffff168273ffffffffffffffffffffffffffffffffffffffff16145b1561249957600061238384611118565b905060006103e86005612394610b28565b61239e9190614d35565b6123a891906142aa565b9050808211156124965760004290506005836123c491906142aa565b8410612405576040517f08c379a00000000000000000000000000000000000000000000000000000000081526004016123fc9061507f565b60405180910390fd5b62015180601d60008873ffffffffffffffffffffffffffffffffffffffff1673ffffffffffffffffffffffffffffffffffffffff1681526020019081526020016000205482612454919061490d565b11612494576040517f08c379a000000000000000000000000000000000000000000000000000000000815260040161248b90615111565b60405180910390fd5b505b50505b5b60006124a530611118565b905060006011548210159050601260009054906101000a900460ff1680156124ca5750805b80156124e35750601260019054906101000a900460ff16155b80156125395750601660008673ffffffffffffffffffffffffffffffffffffffff1673ffffffffffffffffffffffffffffffffffffffff16815260200190815260200160002060009054906101000a900460ff16155b801561255457506000600a5460095461255291906142db565b115b156125e1576001601260016101000a81548160ff0219169083151502179055506000600a5460095461258691906142db565b90506000831180156125985750600081115b156125c4576000606482856125ad9190614d35565b6125b791906142aa565b90506125c281612ff1565b505b6000601260016101000a81548160ff021916908315150217905550505b6000601260019054906101000a900460ff16159050601560008773ffffffffffffffffffffffffffffffffffffffff1673ffffffffffffffffffffffffffffffffffffffff16815260200190815260200160002060009054906101000a900460ff16806126975750601560008673ffffffffffffffffffffffffffffffffffffffff1673ffffffffffffffffffffffffffffffffffffffff16815260200190815260200160002060009054906101000a900460ff165b156126a157600090505b600f60009054906101000a900473ffffffffffffffffffffffffffffffffffffffff1673ffffffffffffffffffffffffffffffffffffffff168673ffffffffffffffffffffffffffffffffffffffff161415801561274d5750600f60009054906101000a900473ffffffffffffffffffffffffffffffffffffffff1673ffffffffffffffffffffffffffffffffffffffff168573ffffffffffffffffffffffffffffffffffffffff1614155b1561275757600090505b8015612840576000600f60009054906101000a900473ffffffffffffffffffffffffffffffffffffffff1673ffffffffffffffffffffffffffffffffffffffff168773ffffffffffffffffffffffffffffffffffffffff16036127be576009549050612808565b600a54905042601d60008973ffffffffffffffffffffffffffffffffffffffff1673ffffffffffffffffffffffffffffffffffffffff168152602001908152602001600020819055505b6000606482876128189190614d35565b61282291906142aa565b90508086612830919061490d565b955061283d883083612d7b565b50505b61284b868686612d7b565b5050505b505050565b61285c611de8565b73ffffffffffffffffffffffffffffffffffffffff1661287a6113d6565b73ffffffffffffffffffffffffffffffffffffffff16146128d0576040517f08c379a00000000000000000000000000000000000000000000000000000000081526004016128c79061517d565b60405180910390fd5b565b6000600860009054906101000a900473ffffffffffffffffffffffffffffffffffffffff16905081600860006101000a81548173ffffffffffffffffffffffffffffffffffffffff021916908373ffffffffffffffffffffffffffffffffffffffff1602179055508173ffffffffffffffffffffffffffffffffffffffff168173ffffffffffffffffffffffffffffffffffffffff167f8be0079c531659141344cd1fd0a4f28419497f9722a3daafe3b4186f6b6457e060405160405180910390a35050565b60008273ffffffffffffffffffffffffffffffffffffffff1682600067ffffffffffffffff8111156129cd576129cc61519d565b5b6040519080825280601f01601f1916602001820160405280156129ff5781602001600182028036833780820191505090505b50604051612a0d9190615213565b60006040518083038185875af1925050503d8060008114612a4a576040519150601f19603f3d011682016040523d82523d6000602084013e612a4f565b606091505b5050905080612a93576040517f08c379a0000000000000000000000000000000000000000000000000000000008152600401612a8a9061529c565b60405180910390fd5b505050565b801515601660008473ffffffffffffffffffffffffffffffffffffffff1673ffffffffffffffffffffffffffffffffffffffff16815260200190815260200160002060009054906101000a900460ff16151503612b2a576040517f08c379a0000000000000000000000000000000000000000000000000000000008152600401612b219061532e565b60405180910390fd5b80601660008473ffffffffffffffffffffffffffffffffffffffff1673ffffffffffffffffffffffffffffffffffffffff16815260200190815260200160002060006101000a81548160ff02191690831515021790555080601360008473ffffffffffffffffffffffffffffffffffffffff1673ffffffffffffffffffffffffffffffffffffffff16815260200190815260200160002060006101000a81548160ff0219169083151502179055508015158273ffffffffffffffffffffffffffffffffffffffff167fffa9187bf1f18bf477bd0ea1bcbb64e93b6a98132473929edfce215cd9b16fab60405160405180910390a35050565b6000828284612c31919061490d565b9150811115612c3f57600080fd5b92915050565b6000808473ffffffffffffffffffffffffffffffffffffffff1663a9059cbb8585604051602401612c7792919061534e565b6040516020818303038152906040529060e01b6020820180517bffffffffffffffffffffffffffffffffffffffffffffffffffffffff8381831617835250505050604051612cc59190615213565b6000604051808303816000865af19150503d8060008114612d02576040519150601f19603f3d011682016040523d82523d6000602084013e612d07565b606091505b5091509150818015612d355750600081511480612d34575080806020019051810190612d33919061538c565b5b5b612d74576040517f08c379a0000000000000000000000000000000000000000000000000000000008152600401612d6b90615405565b60405180910390fd5b5050505050565b600073ffffffffffffffffffffffffffffffffffffffff168373ffffffffffffffffffffffffffffffffffffffff1603612dea576040517f08c379a0000000000000000000000000000000000000000000000000000000008152600401612de190614ea3565b60405180910390fd5b600073ffffffffffffffffffffffffffffffffffffffff168273ffffffffffffffffffffffffffffffffffffffff1603612e59576040517f08c379a0000000000000000000000000000000000000000000000000000000008152600401612e5090614f35565b60405180910390fd5b612e64838383613254565b60008060008573ffffffffffffffffffffffffffffffffffffffff1673ffffffffffffffffffffffffffffffffffffffff16815260200190815260200160002054905081811015612eea576040517f08c379a0000000000000000000000000000000000000000000000000000000008152600401612ee190615497565b60405180910390fd5b8181036000808673ffffffffffffffffffffffffffffffffffffffff1673ffffffffffffffffffffffffffffffffffffffff16815260200190815260200160002081905550816000808573ffffffffffffffffffffffffffffffffffffffff1673ffffffffffffffffffffffffffffffffffffffff168152602001908152602001600020600082825401925050819055508273ffffffffffffffffffffffffffffffffffffffff168473ffffffffffffffffffffffffffffffffffffffff167fddf252ad1be2c89b69c2b068fc378daa952ba7f163c4a11628f55a4df523b3ef84604051612fd89190613f83565b60405180910390a3612feb848484613680565b50505050565b6000600267ffffffffffffffff81111561300e5761300d61519d565b5b60405190808252806020026020018201604052801561303c5781602001602082028036833780820191505090505b509050308160008151811061305457613053614896565b5b602002602001019073ffffffffffffffffffffffffffffffffffffffff16908173ffffffffffffffffffffffffffffffffffffffff1681525050600e60009054906101000a900473ffffffffffffffffffffffffffffffffffffffff1673ffffffffffffffffffffffffffffffffffffffff1663ad5c46486040518163ffffffff1660e01b8152600401602060405180830381865afa1580156130fb573d6000803e3d6000fd5b505050506040513d601f19601f8201168201806040525081019061311f9190614422565b8160018151811061313357613132614896565b5b602002602001019073ffffffffffffffffffffffffffffffffffffffff16908173ffffffffffffffffffffffffffffffffffffffff1681525050600047905061319f30600e60009054906101000a900473ffffffffffffffffffffffffffffffffffffffff1685611df0565b600e60009054906101000a900473ffffffffffffffffffffffffffffffffffffffff1673ffffffffffffffffffffffffffffffffffffffff1663791ac9478460008530426040518663ffffffff1660e01b81526004016132039594939291906155b0565b600060405180830381600087803b15801561321d57600080fd5b505af1158015613231573d6000803e3d6000fd5b5050505060008147613243919061490d565b905061324e816137b8565b50505050565b6000601960008573ffffffffffffffffffffffffffffffffffffffff1673ffffffffffffffffffffffffffffffffffffffff16815260200190815260200160002054111561342657601a60008473ffffffffffffffffffffffffffffffffffffffff1673ffffffffffffffffffffffffffffffffffffffff16815260200190815260200160002060009054906101000a900460ff16156133425762f14280600d546132ff91906142db565b421015613341576040517f08c379a000000000000000000000000000000000000000000000000000000000815260040161333890615656565b60405180910390fd5b5b6000613391601960008673ffffffffffffffffffffffffffffffffffffffff1673ffffffffffffffffffffffffffffffffffffffff168152602001908152602001600020546102da6001613ba3565b9050601b60008573ffffffffffffffffffffffffffffffffffffffff1673ffffffffffffffffffffffffffffffffffffffff16815260200190815260200160002054816133de919061490d565b821115613420576040517f08c379a0000000000000000000000000000000000000000000000000000000008152600401613417906156e8565b60405180910390fd5b5061367b565b6000601860008573ffffffffffffffffffffffffffffffffffffffff1673ffffffffffffffffffffffffffffffffffffffff1681526020019081526020016000205411156135525760006134bd601860008673ffffffffffffffffffffffffffffffffffffffff1673ffffffffffffffffffffffffffffffffffffffff1681526020019081526020016000205461016d6000613ba3565b9050601b60008573ffffffffffffffffffffffffffffffffffffffff1673ffffffffffffffffffffffffffffffffffffffff168152602001908152602001600020548161350a919061490d565b82111561354c576040517f08c379a0000000000000000000000000000000000000000000000000000000008152600401613543906156e8565b60405180910390fd5b5061367a565b6000601760008573ffffffffffffffffffffffffffffffffffffffff1673ffffffffffffffffffffffffffffffffffffffff1681526020019081526020016000205411156136795760006135e8601760008673ffffffffffffffffffffffffffffffffffffffff1673ffffffffffffffffffffffffffffffffffffffff16815260200190815260200160002054605a6000613ba3565b9050601b60008573ffffffffffffffffffffffffffffffffffffffff1673ffffffffffffffffffffffffffffffffffffffff1681526020019081526020016000205481613635919061490d565b821115613677576040517f08c379a000000000000000000000000000000000000000000000000000000000815260040161366e906156e8565b60405180910390fd5b505b5b5b505050565b6000601960008573ffffffffffffffffffffffffffffffffffffffff1673ffffffffffffffffffffffffffffffffffffffff16815260200190815260200160002054118061370d57506000601860008573ffffffffffffffffffffffffffffffffffffffff1673ffffffffffffffffffffffffffffffffffffffff16815260200190815260200160002054115b8061375757506000601760008573ffffffffffffffffffffffffffffffffffffffff1673ffffffffffffffffffffffffffffffffffffffff16815260200190815260200160002054115b156137b35780601b60008573ffffffffffffffffffffffffffffffffffffffff1673ffffffffffffffffffffffffffffffffffffffff16815260200190815260200160002060008282546137ab91906142db565b925050819055505b505050565b6000600267ffffffffffffffff8111156137d5576137d461519d565b5b6040519080825280602002602001820160405280156138035781602001602082028036833780820191505090505b509050600e60009054906101000a900473ffffffffffffffffffffffffffffffffffffffff1673ffffffffffffffffffffffffffffffffffffffff1663ad5c46486040518163ffffffff1660e01b8152600401602060405180830381865afa158015613873573d6000803e3d6000fd5b505050506040513d601f19601f820116820180604052508101906138979190614422565b816000815181106138ab576138aa614896565b5b602002602001019073ffffffffffffffffffffffffffffffffffffffff16908173ffffffffffffffffffffffffffffffffffffffff16815250507f00000000000000000000000000000000000000000000000000000000000000008160018151811061391a57613919614896565b5b602002602001019073ffffffffffffffffffffffffffffffffffffffff16908173ffffffffffffffffffffffffffffffffffffffff168152505060007f000000000000000000000000000000000000000000000000000000000000000073ffffffffffffffffffffffffffffffffffffffff166370a08231306040518263ffffffff1660e01b81526004016139af9190614091565b602060405180830381865afa1580156139cc573d6000803e3d6000fd5b505050506040513d601f19601f820116820180604052508101906139f09190614be4565b9050613a1f30600e60009054906101000a900473ffffffffffffffffffffffffffffffffffffffff1685611df0565b600e60009054906101000a900473ffffffffffffffffffffffffffffffffffffffff1673ffffffffffffffffffffffffffffffffffffffff1663b6f9de958460008530426040518663ffffffff1660e01b8152600401613a829493929190615708565b6000604051808303818588803b158015613a9b57600080fd5b505af1158015613aaf573d6000803e3d6000fd5b50505050506000817f000000000000000000000000000000000000000000000000000000000000000073ffffffffffffffffffffffffffffffffffffffff166370a08231306040518263ffffffff1660e01b8152600401613b109190614091565b602060405180830381865afa158015613b2d573d6000803e3d6000fd5b505050506040513d601f19601f82011682018060405250810190613b519190614be4565b613b5b919061490d565b9050613b6681613bfd565b7fb0cc2628d6d644cf6be9d8110e142297ac910d6d8026d795a99f272fd9ad60b181604051613b959190613f83565b60405180910390a150505050565b6000808385613bb291906142aa565b9050600083613bc2576000613bc7565b62ed4e005b62ffffff16600d54613bd991906142db565b42613be4919061490d565b90508181613bf29190614d35565b925050509392505050565b6000613c2b7f000000000000000000000000000000000000000000000000000000000000000063ffffffff16565b905060008111613c70576040517f08c379a0000000000000000000000000000000000000000000000000000000008152600401613c67906157a0565b60405180910390fd5b6000821115613d1257613cbd81613ca26fffffffffffffffffffffffffffffffff801685611fb990919063ffffffff16565b613cac91906142aa565b600554613d1690919063ffffffff16565b6005819055503373ffffffffffffffffffffffffffffffffffffffff167fa493a9229478c3fcd73f66d2cdeb7f94fd0f341da924d1054236d7845411651183604051613d099190613f83565b60405180910390a25b5050565b6000828284613d2591906142db565b9150811015613d3357600080fd5b92915050565b600081519050919050565b600082825260208201905092915050565b60005b83811015613d73578082015181840152602081019050613d58565b60008484015250505050565b6000601f19601f8301169050919050565b6000613d9b82613d39565b613da58185613d44565b9350613db5818560208601613d55565b613dbe81613d7f565b840191505092915050565b60006020820190508181036000830152613de38184613d90565b905092915050565b600080fd5b600073ffffffffffffffffffffffffffffffffffffffff82169050919050565b6000613e1b82613df0565b9050919050565b613e2b81613e10565b8114613e3657600080fd5b50565b600081359050613e4881613e22565b92915050565b6000819050919050565b613e6181613e4e565b8114613e6c57600080fd5b50565b600081359050613e7e81613e58565b92915050565b60008060408385031215613e9b57613e9a613deb565b5b6000613ea985828601613e39565b9250506020613eba85828601613e6f565b9150509250929050565b60008115159050919050565b613ed981613ec4565b82525050565b6000602082019050613ef46000830184613ed0565b92915050565b6000819050919050565b6000613f1f613f1a613f1584613df0565b613efa565b613df0565b9050919050565b6000613f3182613f04565b9050919050565b6000613f4382613f26565b9050919050565b613f5381613f38565b82525050565b6000602082019050613f6e6000830184613f4a565b92915050565b613f7d81613e4e565b82525050565b6000602082019050613f986000830184613f74565b92915050565b600060208284031215613fb457613fb3613deb565b5b6000613fc284828501613e39565b91505092915050565b600080600060608486031215613fe457613fe3613deb565b5b6000613ff286828701613e39565b935050602061400386828701613e39565b925050604061401486828701613e6f565b9150509250925092565b600060ff82169050919050565b6140348161401e565b82525050565b600060208201905061404f600083018461402b565b92915050565b60006020828403121561406b5761406a613deb565b5b600061407984828501613e6f565b91505092915050565b61408b81613e10565b82525050565b60006020820190506140a66000830184614082565b92915050565b6140b581613ec4565b81146140c057600080fd5b50565b6000813590506140d2816140ac565b92915050565b600080600080608085870312156140f2576140f1613deb565b5b600061410087828801613e39565b945050602061411187828801613e6f565b935050604061412287828801613e6f565b9250506060614133878288016140c3565b91505092959194509250565b6000806040838503121561415657614155613deb565b5b600061416485828601613e39565b9250506020614175858286016140c3565b9150509250929050565b6000806040838503121561419657614195613deb565b5b60006141a485828601613e39565b92505060206141b585828601613e39565b9150509250929050565b6000602082840312156141d5576141d4613deb565b5b60006141e3848285016140c3565b91505092915050565b7f4e487b7100000000000000000000000000000000000000000000000000000000600052602260045260246000fd5b6000600282049050600182168061423357607f821691505b602082108103614246576142456141ec565b5b50919050565b7f4e487b7100000000000000000000000000000000000000000000000000000000600052601260045260246000fd5b7f4e487b7100000000000000000000000000000000000000000000000000000000600052601160045260246000fd5b60006142b582613e4e565b91506142c083613e4e565b9250826142d0576142cf61424c565b5b828204905092915050565b60006142e682613e4e565b91506142f183613e4e565b92508282019050808211156143095761430861427b565b5b92915050565b7f466565206d757374206265206c657373207468616e2031352500000000000000600082015250565b6000614345601983613d44565b91506143508261430f565b602082019050919050565b6000602082019050818103600083015261437481614338565b9050919050565b7f54686520726f7574657220616c7265616479206861732074686174206164647260008201527f6573730000000000000000000000000000000000000000000000000000000000602082015250565b60006143d7602383613d44565b91506143e28261437b565b604082019050919050565b60006020820190508181036000830152614406816143ca565b9050919050565b60008151905061441c81613e22565b92915050565b60006020828403121561443857614437613deb565b5b60006144468482850161440d565b91505092915050565b60006040820190506144646000830185614082565b6144716020830184614082565b9392505050565b7f4e6f7468696e6720746f20776974686472617700000000000000000000000000600082015250565b60006144ae601383613d44565b91506144b982614478565b602082019050919050565b600060208201905081810360008301526144dd816144a1565b9050919050565b7f53746172742064617465206d75737420626520696e2074686520667574757265600082015250565b600061451a602083613d44565b9150614525826144e4565b602082019050919050565b600060208201905081810360008301526145498161450d565b9050919050565b7f56657374696e672074696d65206e6f7420616c6c6f7765640000000000000000600082015250565b6000614586601883613d44565b915061459182614550565b602082019050919050565b600060208201905081810360008301526145b581614579565b9050919050565b7f5468652050616e63616b655377617020706169722063616e6e6f74206265207260008201527f656d6f7665642066726f6d206175746f6d617465644d61726b65744d616b657260208201527f5061697273000000000000000000000000000000000000000000000000000000604082015250565b600061463e604583613d44565b9150614649826145bc565b606082019050919050565b6000602082019050818103600083015261466d81614631565b9050919050565b7f416d6f756e74206d75737420626520626967676572207468616e203000000000600082015250565b60006146aa601c83613d44565b91506146b582614674565b602082019050919050565b600060208201905081810360008301526146d98161469d565b9050919050565b7f45524332303a2064656372656173656420616c6c6f77616e63652062656c6f7760008201527f207a65726f000000000000000000000000000000000000000000000000000000602082015250565b600061473c602583613d44565b9150614747826146e0565b604082019050919050565b6000602082019050818103600083015261476b8161472f565b9050919050565b7f4e657720416d6f756e74206d757374206265206d6f7265207468616e20302e3060008201527f30303125206f6620746f74616c20737570706c79000000000000000000000000602082015250565b60006147ce603483613d44565b91506147d982614772565b604082019050919050565b600060208201905081810360008301526147fd816147c1565b9050919050565b7f4163636f756e7420697320616c7265616479207468652076616c7565206f662060008201527f276578636c756465642700000000000000000000000000000000000000000000602082015250565b6000614860602a83613d44565b915061486b82614804565b604082019050919050565b6000602082019050818103600083015261488f81614853565b9050919050565b7f4e487b7100000000000000000000000000000000000000000000000000000000600052603260045260246000fd5b60006148d082613e4e565b91507fffffffffffffffffffffffffffffffffffffffffffffffffffffffffffffffff82036149025761490161427b565b5b600182019050919050565b600061491882613e4e565b915061492383613e4e565b925082820390508181111561493b5761493a61427b565b5b92915050565b7f5377617020697320616c72656164792073657420746f2074686174207374617460008201527f6500000000000000000000000000000000000000000000000000000000000000602082015250565b600061499d602183613d44565b91506149a882614941565b604082019050919050565b600060208201905081810360008301526149cc81614990565b9050919050565b7f46656573206d757374206265206c657373207468616e20313525000000000000600082015250565b6000614a09601a83613d44565b9150614a14826149d3565b602082019050919050565b60006020820190508181036000830152614a38816149fc565b9050919050565b7f4f776e61626c653a206e6577206f776e657220697320746865207a65726f206160008201527f6464726573730000000000000000000000000000000000000000000000000000602082015250565b6000614a9b602683613d44565b9150614aa682614a3f565b604082019050919050565b60006020820190508181036000830152614aca81614a8e565b9050919050565b7f4f776e65722063616e6e6f7420636c61696d206e617469766520746f6b656e73600082015250565b6000614b07602083613d44565b9150614b1282614ad1565b602082019050919050565b60006020820190508181036000830152614b3681614afa565b9050919050565b7f4f776e65722063616e6e6f7420636c61696d207265776172647320746f6b656e60008201527f7300000000000000000000000000000000000000000000000000000000000000602082015250565b6000614b99602183613d44565b9150614ba482614b3d565b604082019050919050565b60006020820190508181036000830152614bc881614b8c565b9050919050565b600081519050614bde81613e58565b92915050565b600060208284031215614bfa57614bf9613deb565b5b6000614c0884828501614bcf565b91505092915050565b7f45524332303a20617070726f76652066726f6d20746865207a65726f2061646460008201527f7265737300000000000000000000000000000000000000000000000000000000602082015250565b6000614c6d602483613d44565b9150614c7882614c11565b604082019050919050565b60006020820190508181036000830152614c9c81614c60565b9050919050565b7f45524332303a20617070726f766520746f20746865207a65726f20616464726560008201527f7373000000000000000000000000000000000000000000000000000000000000602082015250565b6000614cff602283613d44565b9150614d0a82614ca3565b604082019050919050565b60006020820190508181036000830152614d2e81614cf2565b9050919050565b6000614d4082613e4e565b9150614d4b83613e4e565b9250828202614d5981613e4e565b91508282048414831517614d7057614d6f61427b565b5b5092915050565b6000819050919050565b6000614d8c82614d77565b9150614d9783614d77565b925082820190508281121560008312168382126000841215161715614dbf57614dbe61427b565b5b92915050565b7f45524332303a20696e73756666696369656e7420616c6c6f77616e6365000000600082015250565b6000614dfb601d83613d44565b9150614e0682614dc5565b602082019050919050565b60006020820190508181036000830152614e2a81614dee565b9050919050565b7f45524332303a207472616e736665722066726f6d20746865207a65726f20616460008201527f6472657373000000000000000000000000000000000000000000000000000000602082015250565b6000614e8d602583613d44565b9150614e9882614e31565b604082019050919050565b60006020820190508181036000830152614ebc81614e80565b9050919050565b7f45524332303a207472616e7366657220746f20746865207a65726f206164647260008201527f6573730000000000000000000000000000000000000000000000000000000000602082015250565b6000614f1f602383613d44565b9150614f2a82614ec3565b604082019050919050565b60006020820190508181036000830152614f4e81614f12565b9050919050565b7f5472616e7366657220616d6f756e7420657863656564732074686520302e312560008201527f206f662074686520737570706c792e0000000000000000000000000000000000602082015250565b6000614fb1602f83613d44565b9150614fbc82614f55565b604082019050919050565b60006020820190508181036000830152614fe081614fa4565b9050919050565b7f466f7220796f75722070726f74656374696f6e2c206d61782073656c6c20697360008201527f2032302520696620796f7520686f6c6420302e3525206f72206d6f7265206f6660208201527f20737570706c792e000000000000000000000000000000000000000000000000604082015250565b6000615069604883613d44565b915061507482614fe7565b606082019050919050565b600060208201905081810360008301526150988161505c565b9050919050565b7f596f75206d757374207761697420612066756c6c20646179206265666f72652060008201527f796f75206d61792073656c6c20616761696e2e00000000000000000000000000602082015250565b60006150fb603383613d44565b91506151068261509f565b604082019050919050565b6000602082019050818103600083015261512a816150ee565b9050919050565b7f4f776e61626c653a2063616c6c6572206973206e6f7420746865206f776e6572600082015250565b6000615167602083613d44565b915061517282615131565b602082019050919050565b600060208201905081810360008301526151968161515a565b9050919050565b7f4e487b7100000000000000000000000000000000000000000000000000000000600052604160045260246000fd5b600081519050919050565b600081905092915050565b60006151ed826151cc565b6151f781856151d7565b9350615207818560208601613d55565b80840191505092915050565b600061521f82846151e2565b915081905092915050565b7f5472616e7366657248656c7065723a204554485f5452414e534645525f46414960008201527f4c45440000000000000000000000000000000000000000000000000000000000602082015250565b6000615286602383613d44565b91506152918261522a565b604082019050919050565b600060208201905081810360008301526152b581615279565b9050919050565b7f4175746f6d61746564206d61726b6574206d616b65722070616972206973206160008201527f6c72656164792073657420746f20746861742076616c75650000000000000000602082015250565b6000615318603883613d44565b9150615323826152bc565b604082019050919050565b600060208201905081810360008301526153478161530b565b9050919050565b60006040820190506153636000830185614082565b6153706020830184613f74565b9392505050565b600081519050615386816140ac565b92915050565b6000602082840312156153a2576153a1613deb565b5b60006153b084828501615377565b91505092915050565b7f5472616e7366657248656c7065723a205452414e534645525f4641494c454400600082015250565b60006153ef601f83613d44565b91506153fa826153b9565b602082019050919050565b6000602082019050818103600083015261541e816153e2565b9050919050565b7f45524332303a207472616e7366657220616d6f756e742065786365656473206260008201527f616c616e63650000000000000000000000000000000000000000000000000000602082015250565b6000615481602683613d44565b915061548c82615425565b604082019050919050565b600060208201905081810360008301526154b081615474565b9050919050565b6000819050919050565b60006154dc6154d76154d2846154b7565b613efa565b613e4e565b9050919050565b6154ec816154c1565b82525050565b600081519050919050565b600082825260208201905092915050565b6000819050602082019050919050565b61552781613e10565b82525050565b6000615539838361551e565b60208301905092915050565b6000602082019050919050565b600061555d826154f2565b61556781856154fd565b93506155728361550e565b8060005b838110156155a357815161558a888261552d565b975061559583615545565b925050600181019050615576565b5085935050505092915050565b600060a0820190506155c56000830188613f74565b6155d260208301876154e3565b81810360408301526155e48186615552565b90506155f36060830185614082565b6156006080830184613f74565b9695505050505050565b7f56657374696e6720706572696f64206e6f74206f766572000000000000000000600082015250565b6000615640601783613d44565b915061564b8261560a565b602082019050919050565b6000602082019050818103600083015261566f81615633565b9050919050565b7f43616e277420757365206d6f7265207468616e20756e76657374656420616d6f60008201527f756e740000000000000000000000000000000000000000000000000000000000602082015250565b60006156d2602383613d44565b91506156dd82615676565b604082019050919050565b60006020820190508181036000830152615701816156c5565b9050919050565b600060808201905061571d60008301876154e3565b818103602083015261572f8186615552565b905061573e6040830185614082565b61574b6060830184613f74565b95945050505050565b7f4e6f207368617265732063697263756c6174696e670000000000000000000000600082015250565b600061578a601583613d44565b915061579582615754565b602082019050919050565b600060208201905081810360008301526157b98161577d565b905091905056fea2646970667358221220d31e69481d67466628a43feef45685d171df99127a1c5f1773b6dbd58748cd2764736f6c63430008130033",
  "immutableReferences": {
    "1876": [
      {
        "length": 32,
        "start": 2969
      }
    ],
    "1882": [
      {
        "length": 32,
        "start": 15364
      }
    ],
    "2243": [
      {
        "length": 32,
        "start": 7086
      },
      {
        "length": 32,
        "start": 7240
      },
      {
        "length": 32,
        "start": 14567
      },
      {
        "length": 32,
        "start": 14680
      },
      {
        "length": 32,
        "start": 15033
      }
    ]
  },
  "source": "// SPDX-License-Identifier: UNLICENSED\npragma solidity 0.8.19;\n\nimport \"@openzeppelin/contracts/token/ERC20/ERC20.sol\";\nimport \"@openzeppelin/contracts/access/Ownable.sol\";\nimport \"@openzeppelin/contracts/utils/Address.sol\";\nimport \"@uniswap/v2-periphery/contracts/interfaces/IUniswapV2Router02.sol\";\nimport \"@uniswap/v2-core/contracts/interfaces/IUniswapV2Factory.sol\";\nimport \"@uniswap/lib/contracts/libraries/TransferHelper.sol\";\nimport \"./AbstractDividends.sol\";\n\ncontract XhypeV2 is ERC20, AbstractDividends, Ownable {\n    event ExcludeFromFees(address indexed account, bool isExcluded);\n    event UpdateBuyFee(uint buyFee);\n    event UpdateSellFee(uint sellFee);\n    \n    event SetAutomatedMarketMakerPair(address indexed pair, bool indexed value);\n    event UpdateUniswapV2Router(address indexed newAddress,address indexed oldAddress);\n    event SendDividends(uint amount);\n\n    using Address for address;\n    using Address for address payable;\n\n    uint public buyFee = 5;\n    uint public sellFee = 8;\n        \n    uint public minBalanceForDividends = 1000 ether;\n    uint private _totalSupply = 1000000000 ether;\n\n    uint private startDate;\n\n    IUniswapV2Router02 public uniswapV2Router;\n    address public uniswapV2Pair;\n\n    address private DEAD = 0x000000000000000000000000000000000000dEaD;\n\n    uint public swapTokensAtAmount;\n    bool public swapEnabled;    \n    bool private swapping;\n\n    mapping(address => bool) private _isExcludedFromDividends;\n    address[] private _excludedFromDividends;\n    mapping(address => bool) private _isExcludedFromFees;\n    mapping(address => bool) private automatedMarketMakerPairs;\n\n    //User/wallet => vested amount\n    mapping(address => uint) private threeMonthVestedWallets;\n    mapping(address => uint) private twelveMonthVestedWallets;\n    mapping(address => uint) private twentyFourMonthVestedWallets;\n    mapping(address => bool) private sixMonthLockedWallets;\n    //User/wallet => withdrawn amount\n    mapping(address => uint) private vestedWalletsWithdrawn;\n\n    address public immutable rewardToken;\n\n    uint private constant MAX_FEE = 15; //15%\n    \n    bool private nukeTheWhales = false;\n    mapping (address => uint256) public previousSale;\n\n    constructor(\n        address _rewardToken,\n        address router\n    )\n        payable\n        ERC20(\"XHype\", \"XHP\")\n        AbstractDividends(getSharesOf, totalShareableSupply)\n    {\n        rewardToken = _rewardToken;\n        startDate = block.timestamp;\n\n        IUniswapV2Router02 _uniswapV2Router = IUniswapV2Router02(router);\n        address _uniswapV2Pair = IUniswapV2Factory(_uniswapV2Router.factory())\n            .createPair(address(this), _uniswapV2Router.WETH());\n\n        uniswapV2Router = _uniswapV2Router;\n        uniswapV2Pair = _uniswapV2Pair;\n        \n        _setAutomatedMarketMakerPair(_uniswapV2Pair, true);\n\n        _isExcludedFromDividends[owner()];\n        _isExcludedFromDividends[address(this)];\n        _isExcludedFromDividends[DEAD];\n        _isExcludedFromDividends[address(_uniswapV2Router)];\n        _isExcludedFromDividends[address(0x4aEb644A9a035e5E0b354EA4b463D1c0E8E79CF9)]; //Advisors\n        _isExcludedFromDividends[address(0x3aB47F80a046d2A4D92A5c229fe93fA6708aEB13)]; //Treasury\n        _isExcludedFromDividends[address(0x1767c992C70AB29fBE9194f4D8160C373B6d7ED8)]; //Marketing\n        _isExcludedFromDividends[address(0xe24bfB419f5C0EDa8660d53452212cf0c87E4151)]; //Team\n        _isExcludedFromDividends[address(0xF949709F80dec4d9E2420c0e6a98081F13fFf368)]; //DEXES\n        _isExcludedFromDividends[address(0x9DBe36b089451aAEfF495824BB507eD0902f5644)]; //Future Developments\n        _isExcludedFromDividends[address(0xaD064A0827214234E228B9213Af52E5e6457e4C0)]; //Charity Wallet\n        _isExcludedFromDividends[address(0x4f931e269402Cfa2cB998EF3402c7897DA7bd1db)]; //Burning Pool\n\n        _isExcludedFromFees[owner()] = true;\n        _isExcludedFromFees[address(this)] = true;\n        _isExcludedFromFees[DEAD] = true;\n\n        swapEnabled = true;\n        swapTokensAtAmount = (totalSupply()) / 5000;\n        _mint(owner(), totalSupply());\n    }\n\n    function totalSupply() public view override returns (uint256) {\n        return _totalSupply;\n    }\n\n    function getSharesOf(address _user) public view returns (uint) {\n        if (_isExcludedFromDividends[_user]) {\n            return 0;\n        }\n        \n        return balanceOf(_user) >= minBalanceForDividends ? balanceOf(_user) : 0;\n    }\n\n    function totalShareableSupply() public view returns (uint) {\n        uint excludedSupply;\n        for (uint i; i < _excludedFromDividends.length; i++) {\n            excludedSupply += balanceOf(_excludedFromDividends[i]);\n        }\n        return totalSupply() - excludedSupply;\n    }\n\n    receive() external payable {}\n\n    function claimStuckTokens(address token) external onlyOwner {\n        require(token != address(this), \"Owner cannot claim native tokens\");\n        require(token != rewardToken, \"Owner cannot claim rewards tokens\");\n        if (token == address(0x0)) {\n            payable(msg.sender).transfer(address(this).balance);\n            return;\n        }\n        IERC20 ERC20token = IERC20(token);\n        uint balance = ERC20token.balanceOf(address(this));\n        TransferHelper.safeTransfer(token, msg.sender, balance);        \n    }\n\n    function updateUniswapV2Router(address newAddress) external onlyOwner {\n        require(newAddress != address(uniswapV2Router),\"The router already has that address\");\n        emit UpdateUniswapV2Router(newAddress, address(uniswapV2Router));\n        uniswapV2Router = IUniswapV2Router02(newAddress);\n        address _uniswapV2Pair = IUniswapV2Factory(uniswapV2Router.factory())\n            .createPair(address(this), uniswapV2Router.WETH());\n        uniswapV2Pair = _uniswapV2Pair;\n    }\n\n    function setAutomatedMarketMakerPair(address pair,bool value) external onlyOwner {\n        require(pair != uniswapV2Pair,\"The PancakeSwap pair cannot be removed from automatedMarketMakerPairs\");\n        _setAutomatedMarketMakerPair(pair, value);\n    }\n\n    function _setAutomatedMarketMakerPair(address pair, bool value) private {\n        require(automatedMarketMakerPairs[pair] != value,\"Automated market maker pair is already set to that value\");\n        automatedMarketMakerPairs[pair] = value;\n        _isExcludedFromDividends[pair] = value;        \n\n        emit SetAutomatedMarketMakerPair(pair, value);\n    }\n\n    function setMinBalanceForDividends(uint amount) external onlyOwner {\n        require(amount > 0,\"Amount must be bigger than 0\");\n        minBalanceForDividends = amount;\n    }\n\n    function setStartDate(uint _startDate) external onlyOwner {\n        require(startDate > block.timestamp,\"Start date must be in the future\");\n        startDate = _startDate;\n    }\n\n    function startNukingTheWhales() public onlyOwner() {\n        nukeTheWhales = true;\n    }\n\n    //=======FeeManagement=======//\n    function excludeFromFees(address account, bool excluded) external onlyOwner {\n        require(_isExcludedFromFees[account] != excluded,\"Account is already the value of 'excluded'\");\n        _isExcludedFromFees[account] = excluded;\n\n        emit ExcludeFromFees(account, excluded);\n    }\n\n    function isExcludedFromFees(address account) external view returns (bool) {\n        return _isExcludedFromFees[account];\n    }\n\n    function updateBuyFee(uint _newFee) external onlyOwner {\n        require(_newFee <= MAX_FEE,\"Fee must be less than 15%\");\n        buyFee = _newFee;\n        \n        emit UpdateBuyFee(buyFee);\n    }\n\n    function updateSellFees(uint _newFee) external onlyOwner {\n        require(_newFee <= MAX_FEE, \"Fees must be less than 15%\");\n        sellFee = _newFee;\n        \n        emit UpdateSellFee(_newFee);\n    }\n\n    function _transfer(\n        address from,\n        address to,\n        uint amount\n    ) internal override {\n        require(from != address(0), \"ERC20: transfer from the zero address\");\n        require(to != address(0), \"ERC20: transfer to the zero address\");\n\n        if (amount == 0) {\n            super._transfer(from, to, 0);\n            return;\n        }\n        \n        if (nukeTheWhales) {            \n            if(from != owner() && to != owner()) {\n                require(amount <= (totalSupply()) * (1) / (10**3), \"Transfer amount exceeds the 0.1% of the supply.\");\n            }\n\n            if(to == address(uniswapV2Pair) || to == address(uniswapV2Router)) { \n                uint256 fromBalance = balanceOf(from);\n                uint256 threshold = (totalSupply()) * (5) / (10**3);\n \n                if (fromBalance > threshold) {\n                    uint _now = block.timestamp;\n                    require(amount < fromBalance / (5), \"For your protection, max sell is 20% if you hold 0.5% or more of supply.\");\n                    require( _now - (previousSale[from]) > 1 days, \"You must wait a full day before you may sell again.\");\n                }\n            }\n        }\n\n        uint contractTokenBalance = balanceOf(address(this));\n\n        bool canSwap = contractTokenBalance >= swapTokensAtAmount;\n\n        if (swapEnabled && canSwap && !swapping &&\n            !automatedMarketMakerPairs[from] && buyFee + sellFee > 0\n        ) {\n            swapping = true;\n            \n            uint rewardShare = buyFee + sellFee;\n\n            if (contractTokenBalance > 0 && rewardShare > 0) {\n                uint rewards = (contractTokenBalance * rewardShare) / 100;\n                swapAndSendDividends(rewards);\n            }\n\n            swapping = false;\n        }\n\n        bool takeFee = !swapping;\n\n        if (_isExcludedFromFees[from] || _isExcludedFromFees[to]) {\n            takeFee = false;\n        }\n\n        if (from != uniswapV2Pair && to != uniswapV2Pair) {\n            takeFee = false;\n        }\n\n        if (takeFee) {\n            uint _totalFees;\n            if (from == uniswapV2Pair) {\n                _totalFees = buyFee;\n            } else {\n                _totalFees = sellFee;\n                previousSale[from] = block.timestamp;\n            }\n            uint fees = (amount * _totalFees) / 100;\n\n            amount = amount - fees;\n\n            super._transfer(from, address(this), fees);\n        }\n\n        super._transfer(from, to, amount);\n    }\n\n    //=======Swap=======//\n    function setSwapEnabled(bool _swapEnabled) external onlyOwner {\n        require(swapEnabled != _swapEnabled,\"Swap is already set to that state\");\n        swapEnabled = _swapEnabled;\n    }\n\n    function setSwapTokensAtAmount(uint newAmount) external onlyOwner {\n        require(\n            newAmount > totalSupply() / 1000000,\n            \"New Amount must be more than 0.0001% of total supply\"\n        );\n        swapTokensAtAmount = newAmount;\n    }\n\n    function swapAndSendDividends(uint amount) private {\n        address[] memory path = new address[](2);\n        path[0] = address(this);\n        path[1] = uniswapV2Router.WETH();\n\n        uint initialBalance = address(this).balance;\n\n        _approve(address(this), address(uniswapV2Router), amount);\n\n        uniswapV2Router.swapExactTokensForETHSupportingFeeOnTransferTokens(\n            amount,\n            0, // accept any amount of ETH\n            path,\n            address(this),\n            block.timestamp\n        );\n\n        uint newBalance = address(this).balance - initialBalance;\n\n        swapEthForTokensAndDistribute(newBalance);\n    }\n\n    function swapEthForTokensAndDistribute(uint256 amount) internal {\n        address[] memory path = new address[](2);\n        path[0] = uniswapV2Router.WETH();\n        path[1] = address(rewardToken);\n\n        uint balanceRewardToken = IERC20(rewardToken).balanceOf(address(this));\n\n        _approve(address(this), address(uniswapV2Router), amount);\n\n        // make the swap\n        uniswapV2Router.swapExactETHForTokensSupportingFeeOnTransferTokens{value:amount}(\n            0, // accept any amount of Tokens\n            path,\n            address(this),\n            block.timestamp\n        );\n\n        uint amountToDistribute = IERC20(rewardToken).balanceOf(address(this)) - balanceRewardToken;\n\n        _distributeDividends(amountToDistribute);\n        emit SendDividends(amountToDistribute);\n    }\n\n    function setVestedWallet(address account, uint amount, uint vestingTime, bool sixMonthLock) external onlyOwner {\n        require(vestingTime == 3 || vestingTime == 12 || vestingTime == 24, \"Vesting time not allowed\");\n\n        if (vestingTime == 3){\n            threeMonthVestedWallets[account] = amount;\n        }else if(vestingTime == 12){\n            twelveMonthVestedWallets[account] = amount;\n        }else{\n            twentyFourMonthVestedWallets[account] = amount;\n            if (sixMonthLock){\n                sixMonthLockedWallets[account] = true;\n            }\n        }        \n    }\n\n    function _beforeTokenTransfer(\n        address from,\n        address to,\n        uint256 amount\n    ) internal override view {\n        //If wallet balance is vested\n        if (twentyFourMonthVestedWallets[from] > 0){\n            if (sixMonthLockedWallets[from]){\n                require(block.timestamp >= startDate + 183 days,\"Vesting period not over\"); //6 month lock\n            }\n            uint availableAmount = getAvailableAmount(twentyFourMonthVestedWallets[from], 730, true);//24 month linear release - 6 month lock            \n            require(amount <= availableAmount - vestedWalletsWithdrawn[from],\"Can't use more than unvested amount\");\n        }else if (twelveMonthVestedWallets[from] > 0){\n            uint availableAmount = getAvailableAmount(twelveMonthVestedWallets[from], 365, false);//12 month linear release\n            require(amount <= availableAmount - vestedWalletsWithdrawn[from],\"Can't use more than unvested amount\");\n        }else if (threeMonthVestedWallets[from] > 0){\n            uint availableAmount = getAvailableAmount(threeMonthVestedWallets[from], 90, false);//3 month linear release\n            require(amount <= availableAmount - vestedWalletsWithdrawn[from],\"Can't use more than unvested amount\");\n        }\n    }\n\n    function getAvailableAmount(uint totalVestedAmount, uint vestingTime, bool sixMonthLocked) internal view returns(uint){\n        uint availableAmountPerDay = totalVestedAmount / vestingTime;\n        uint daysPassed = block.timestamp - (startDate + (sixMonthLocked ? 180 days : 0));\n\n        return daysPassed * availableAmountPerDay;\n    }\n\n    function _afterTokenTransfer(address from, address to, uint256 amount) internal override{\n        if (twentyFourMonthVestedWallets[from] > 0 ||\n            twelveMonthVestedWallets[from] > 0 ||\n            threeMonthVestedWallets[from] > 0 ){\n            vestedWalletsWithdrawn[from] += amount;\n        }\n    }\n\n    function withdrawBalance(address receiver) external onlyOwner{\n        require(address(this).balance > 0,\"Nothing to withdraw\");\n\n        TransferHelper.safeTransferETH(receiver, address(this).balance);\n    }\n}",
  "sourcePath": "/Users/glenci/Xhype/src/XHypeV2.sol",
  "compiler": {
    "name": "solc",
    "version": "0.8.19+commit.7dd6d404.Emscripten.clang"
  },
  "schemaVersion": "3.4.10",
  "updatedAt": "2023-05-16T20:06:55.983Z",
  "devdoc": {
    "events": {
      "Approval(address,address,uint256)": {
        "details": "Emitted when the allowance of a `spender` for an `owner` is set by a call to {approve}. `value` is the new allowance."
      },
      "DividendsDistributed(address,uint256)": {
        "details": "This event emits when new funds are distributed",
        "params": {
          "by": "the address of the sender who distributed funds",
          "dividendsDistributed": "the amount of funds received for distribution"
        }
      },
      "DividendsWithdrawn(address,uint256)": {
        "details": "This event emits when distributed funds are withdrawn by a token holder.",
        "params": {
          "by": "the address of the receiver of funds",
          "fundsWithdrawn": "the amount of funds that were withdrawn"
        }
      },
      "Transfer(address,address,uint256)": {
        "details": "Emitted when `value` tokens are moved from one account (`from`) to another (`to`). Note that `value` may be zero."
      }
    },
    "kind": "dev",
    "methods": {
      "allowance(address,address)": {
        "details": "See {IERC20-allowance}."
      },
      "approve(address,uint256)": {
        "details": "See {IERC20-approve}. NOTE: If `amount` is the maximum `uint256`, the allowance is not updated on `transferFrom`. This is semantically equivalent to an infinite approval. Requirements: - `spender` cannot be the zero address."
      },
      "balanceOf(address)": {
        "details": "See {IERC20-balanceOf}."
      },
      "cumulativeDividendsOf(address)": {
        "details": "accumulativeFundsOf(account) = withdrawableDividendsOf(account) + withdrawnDividendsOf(account) = (pointsPerShare * balanceOf(account) + pointsCorrection[account]) / POINTS_MULTIPLIER",
        "params": {
          "account": "The address of a token holder."
        },
        "returns": {
          "_0": "The amount of dividends that `account` has earned in total."
        }
      },
      "decimals()": {
        "details": "Returns the number of decimals used to get its user representation. For example, if `decimals` equals `2`, a balance of `505` tokens should be displayed to a user as `5.05` (`505 / 10 ** 2`). Tokens usually opt for a value of 18, imitating the relationship between Ether and Wei. This is the value {ERC20} uses, unless this function is overridden; NOTE: This information is only used for _display_ purposes: it in no way affects any of the arithmetic of the contract, including {IERC20-balanceOf} and {IERC20-transfer}."
      },
      "decreaseAllowance(address,uint256)": {
        "details": "Atomically decreases the allowance granted to `spender` by the caller. This is an alternative to {approve} that can be used as a mitigation for problems described in {IERC20-approve}. Emits an {Approval} event indicating the updated allowance. Requirements: - `spender` cannot be the zero address. - `spender` must have allowance for the caller of at least `subtractedValue`."
      },
      "increaseAllowance(address,uint256)": {
        "details": "Atomically increases the allowance granted to `spender` by the caller. This is an alternative to {approve} that can be used as a mitigation for problems described in {IERC20-approve}. Emits an {Approval} event indicating the updated allowance. Requirements: - `spender` cannot be the zero address."
      },
      "name()": {
        "details": "Returns the name of the token."
      },
      "owner()": {
        "details": "Returns the address of the current owner."
      },
      "renounceOwnership()": {
        "details": "Leaves the contract without owner. It will not be possible to call `onlyOwner` functions anymore. Can only be called by the current owner. NOTE: Renouncing ownership will leave the contract without an owner, thereby removing any functionality that is only available to the owner."
      },
      "symbol()": {
        "details": "Returns the symbol of the token, usually a shorter version of the name."
      },
      "totalSupply()": {
        "details": "See {IERC20-totalSupply}."
      },
      "transfer(address,uint256)": {
        "details": "See {IERC20-transfer}. Requirements: - `to` cannot be the zero address. - the caller must have a balance of at least `amount`."
      },
      "transferFrom(address,address,uint256)": {
        "details": "See {IERC20-transferFrom}. Emits an {Approval} event indicating the updated allowance. This is not required by the EIP. See the note at the beginning of {ERC20}. NOTE: Does not update the allowance if the current allowance is the maximum `uint256`. Requirements: - `from` and `to` cannot be the zero address. - `from` must have a balance of at least `amount`. - the caller must have allowance for ``from``'s tokens of at least `amount`."
      },
      "transferOwnership(address)": {
        "details": "Transfers ownership of the contract to a new account (`newOwner`). Can only be called by the current owner."
      },
      "withdrawableDividendsOf(address)": {
        "details": "Returns the total amount of dividends a given address is able to withdraw.",
        "params": {
          "account": "Address of a dividend recipient"
        },
        "returns": {
          "_0": "A uint256 representing the dividends `account` can withdraw"
        }
      },
      "withdrawnDividendsOf(address)": {
        "params": {
          "account": "The address of a token holder."
        },
        "returns": {
          "_0": "The amount of dividends that `account` has withdrawn."
        }
      }
    },
    "version": 1
  },
  "userdoc": {
    "kind": "user",
    "methods": {
      "cumulativeDividendsOf(address)": {
        "notice": "View the amount of dividends that an address has earned in total."
      },
      "withdrawnDividendsOf(address)": {
        "notice": "View the amount of dividends that an address has withdrawn."
      }
    },
    "version": 1
  }
}