{
  "contractName": "XHype",
  "abi": [
    {
      "inputs": [],
      "stateMutability": "payable",
      "type": "constructor"
    },
    {
      "anonymous": false,
      "inputs": [
        {
          "indexed": true,
          "internalType": "address",
          "name": "owner",
          "type": "address"
        },
        {
          "indexed": true,
          "internalType": "address",
          "name": "spender",
          "type": "address"
        },
        {
          "indexed": false,
          "internalType": "uint256",
          "name": "value",
          "type": "uint256"
        }
      ],
      "name": "Approval",
      "type": "event"
    },
    {
      "anonymous": false,
      "inputs": [
        {
          "indexed": true,
          "internalType": "address",
          "name": "by",
          "type": "address"
        },
        {
          "indexed": false,
          "internalType": "uint256",
          "name": "dividendsDistributed",
          "type": "uint256"
        }
      ],
      "name": "DividendsDistributed",
      "type": "event"
    },
    {
      "anonymous": false,
      "inputs": [
        {
          "indexed": true,
          "internalType": "address",
          "name": "by",
          "type": "address"
        },
        {
          "indexed": false,
          "internalType": "uint256",
          "name": "fundsWithdrawn",
          "type": "uint256"
        }
      ],
      "name": "DividendsWithdrawn",
      "type": "event"
    },
    {
      "anonymous": false,
      "inputs": [
        {
          "indexed": true,
          "internalType": "address",
          "name": "account",
          "type": "address"
        },
        {
          "indexed": false,
          "internalType": "bool",
          "name": "isExcluded",
          "type": "bool"
        }
      ],
      "name": "ExcludeFromDividends",
      "type": "event"
    },
    {
      "anonymous": false,
      "inputs": [
        {
          "indexed": true,
          "internalType": "address",
          "name": "account",
          "type": "address"
        },
        {
          "indexed": false,
          "internalType": "bool",
          "name": "isExcluded",
          "type": "bool"
        }
      ],
      "name": "ExcludeFromFees",
      "type": "event"
    },
    {
      "anonymous": false,
      "inputs": [
        {
          "indexed": true,
          "internalType": "address",
          "name": "previousOwner",
          "type": "address"
        },
        {
          "indexed": true,
          "internalType": "address",
          "name": "newOwner",
          "type": "address"
        }
      ],
      "name": "OwnershipTransferred",
      "type": "event"
    },
    {
      "anonymous": false,
      "inputs": [
        {
          "indexed": false,
          "internalType": "uint256",
          "name": "amount",
          "type": "uint256"
        }
      ],
      "name": "SendDividends",
      "type": "event"
    },
    {
      "anonymous": false,
      "inputs": [
        {
          "indexed": true,
          "internalType": "address",
          "name": "from",
          "type": "address"
        },
        {
          "indexed": true,
          "internalType": "address",
          "name": "to",
          "type": "address"
        },
        {
          "indexed": false,
          "internalType": "uint256",
          "name": "value",
          "type": "uint256"
        }
      ],
      "name": "Transfer",
      "type": "event"
    },
    {
      "anonymous": false,
      "inputs": [
        {
          "indexed": false,
          "internalType": "uint256",
          "name": "buyFee",
          "type": "uint256"
        }
      ],
      "name": "UpdateBuyFee",
      "type": "event"
    },
    {
      "anonymous": false,
      "inputs": [
        {
          "indexed": false,
          "internalType": "uint256",
          "name": "sellFee",
          "type": "uint256"
        }
      ],
      "name": "UpdateSellFee",
      "type": "event"
    },
    {
      "anonymous": false,
      "inputs": [
        {
          "indexed": true,
          "internalType": "address",
          "name": "newAddress",
          "type": "address"
        }
      ],
      "name": "UpdateUniswapV2Router",
      "type": "event"
    },
    {
      "inputs": [
        {
          "internalType": "address",
          "name": "owner",
          "type": "address"
        },
        {
          "internalType": "address",
          "name": "spender",
          "type": "address"
        }
      ],
      "name": "allowance",
      "outputs": [
        {
          "internalType": "uint256",
          "name": "",
          "type": "uint256"
        }
      ],
      "stateMutability": "view",
      "type": "function"
    },
    {
      "inputs": [
        {
          "internalType": "address",
          "name": "spender",
          "type": "address"
        },
        {
          "internalType": "uint256",
          "name": "amount",
          "type": "uint256"
        }
      ],
      "name": "approve",
      "outputs": [
        {
          "internalType": "bool",
          "name": "",
          "type": "bool"
        }
      ],
      "stateMutability": "nonpayable",
      "type": "function"
    },
    {
      "inputs": [
        {
          "internalType": "address",
          "name": "account",
          "type": "address"
        }
      ],
      "name": "balanceOf",
      "outputs": [
        {
          "internalType": "uint256",
          "name": "",
          "type": "uint256"
        }
      ],
      "stateMutability": "view",
      "type": "function"
    },
    {
      "inputs": [],
      "name": "buyFee",
      "outputs": [
        {
          "internalType": "uint256",
          "name": "",
          "type": "uint256"
        }
      ],
      "stateMutability": "view",
      "type": "function"
    },
    {
      "inputs": [
        {
          "internalType": "address",
          "name": "account",
          "type": "address"
        }
      ],
      "name": "cumulativeDividendsOf",
      "outputs": [
        {
          "internalType": "uint256",
          "name": "",
          "type": "uint256"
        }
      ],
      "stateMutability": "view",
      "type": "function"
    },
    {
      "inputs": [],
      "name": "decimals",
      "outputs": [
        {
          "internalType": "uint8",
          "name": "",
          "type": "uint8"
        }
      ],
      "stateMutability": "view",
      "type": "function"
    },
    {
      "inputs": [
        {
          "internalType": "address",
          "name": "spender",
          "type": "address"
        },
        {
          "internalType": "uint256",
          "name": "subtractedValue",
          "type": "uint256"
        }
      ],
      "name": "decreaseAllowance",
      "outputs": [
        {
          "internalType": "bool",
          "name": "",
          "type": "bool"
        }
      ],
      "stateMutability": "nonpayable",
      "type": "function"
    },
    {
      "inputs": [
        {
          "internalType": "address",
          "name": "spender",
          "type": "address"
        },
        {
          "internalType": "uint256",
          "name": "addedValue",
          "type": "uint256"
        }
      ],
      "name": "increaseAllowance",
      "outputs": [
        {
          "internalType": "bool",
          "name": "",
          "type": "bool"
        }
      ],
      "stateMutability": "nonpayable",
      "type": "function"
    },
    {
      "inputs": [],
      "name": "minBalanceForDividends",
      "outputs": [
        {
          "internalType": "uint256",
          "name": "",
          "type": "uint256"
        }
      ],
      "stateMutability": "view",
      "type": "function"
    },
    {
      "inputs": [],
      "name": "name",
      "outputs": [
        {
          "internalType": "string",
          "name": "",
          "type": "string"
        }
      ],
      "stateMutability": "view",
      "type": "function"
    },
    {
      "inputs": [],
      "name": "owner",
      "outputs": [
        {
          "internalType": "address",
          "name": "",
          "type": "address"
        }
      ],
      "stateMutability": "view",
      "type": "function"
    },
    {
      "inputs": [],
      "name": "pointsPerShare",
      "outputs": [
        {
          "internalType": "uint256",
          "name": "",
          "type": "uint256"
        }
      ],
      "stateMutability": "view",
      "type": "function"
    },
    {
      "inputs": [
        {
          "internalType": "address",
          "name": "",
          "type": "address"
        }
      ],
      "name": "previousSale",
      "outputs": [
        {
          "internalType": "uint256",
          "name": "",
          "type": "uint256"
        }
      ],
      "stateMutability": "view",
      "type": "function"
    },
    {
      "inputs": [],
      "name": "renounceOwnership",
      "outputs": [],
      "stateMutability": "nonpayable",
      "type": "function"
    },
    {
      "inputs": [],
      "name": "rewardToken",
      "outputs": [
        {
          "internalType": "address",
          "name": "",
          "type": "address"
        }
      ],
      "stateMutability": "view",
      "type": "function"
    },
    {
      "inputs": [],
      "name": "sellFee",
      "outputs": [
        {
          "internalType": "uint256",
          "name": "",
          "type": "uint256"
        }
      ],
      "stateMutability": "view",
      "type": "function"
    },
    {
      "inputs": [],
      "name": "swapEnabled",
      "outputs": [
        {
          "internalType": "bool",
          "name": "",
          "type": "bool"
        }
      ],
      "stateMutability": "view",
      "type": "function"
    },
    {
      "inputs": [],
      "name": "swapTokensAtAmount",
      "outputs": [
        {
          "internalType": "uint256",
          "name": "",
          "type": "uint256"
        }
      ],
      "stateMutability": "view",
      "type": "function"
    },
    {
      "inputs": [],
      "name": "symbol",
      "outputs": [
        {
          "internalType": "string",
          "name": "",
          "type": "string"
        }
      ],
      "stateMutability": "view",
      "type": "function"
    },
    {
      "inputs": [
        {
          "internalType": "address",
          "name": "to",
          "type": "address"
        },
        {
          "internalType": "uint256",
          "name": "amount",
          "type": "uint256"
        }
      ],
      "name": "transfer",
      "outputs": [
        {
          "internalType": "bool",
          "name": "",
          "type": "bool"
        }
      ],
      "stateMutability": "nonpayable",
      "type": "function"
    },
    {
      "inputs": [
        {
          "internalType": "address",
          "name": "from",
          "type": "address"
        },
        {
          "internalType": "address",
          "name": "to",
          "type": "address"
        },
        {
          "internalType": "uint256",
          "name": "amount",
          "type": "uint256"
        }
      ],
      "name": "transferFrom",
      "outputs": [
        {
          "internalType": "bool",
          "name": "",
          "type": "bool"
        }
      ],
      "stateMutability": "nonpayable",
      "type": "function"
    },
    {
      "inputs": [
        {
          "internalType": "address",
          "name": "newOwner",
          "type": "address"
        }
      ],
      "name": "transferOwnership",
      "outputs": [],
      "stateMutability": "nonpayable",
      "type": "function"
    },
    {
      "inputs": [],
      "name": "uniswapV2Pair",
      "outputs": [
        {
          "internalType": "address",
          "name": "",
          "type": "address"
        }
      ],
      "stateMutability": "view",
      "type": "function"
    },
    {
      "inputs": [],
      "name": "uniswapV2Router",
      "outputs": [
        {
          "internalType": "contract IUniswapV2Router02",
          "name": "",
          "type": "address"
        }
      ],
      "stateMutability": "view",
      "type": "function"
    },
    {
      "inputs": [
        {
          "internalType": "address",
          "name": "",
          "type": "address"
        }
      ],
      "name": "vestedWalletsWithdrawn",
      "outputs": [
        {
          "internalType": "uint256",
          "name": "",
          "type": "uint256"
        }
      ],
      "stateMutability": "view",
      "type": "function"
    },
    {
      "inputs": [
        {
          "internalType": "address",
          "name": "account",
          "type": "address"
        }
      ],
      "name": "withdrawableDividendsOf",
      "outputs": [
        {
          "internalType": "uint256",
          "name": "",
          "type": "uint256"
        }
      ],
      "stateMutability": "view",
      "type": "function"
    },
    {
      "inputs": [
        {
          "internalType": "address",
          "name": "account",
          "type": "address"
        }
      ],
      "name": "withdrawnDividendsOf",
      "outputs": [
        {
          "internalType": "uint256",
          "name": "",
          "type": "uint256"
        }
      ],
      "stateMutability": "view",
      "type": "function"
    },
    {
      "stateMutability": "payable",
      "type": "receive"
    },
    {
      "inputs": [],
      "name": "totalSupply",
      "outputs": [
        {
          "internalType": "uint256",
          "name": "",
          "type": "uint256"
        }
      ],
      "stateMutability": "view",
      "type": "function"
    },
    {
      "inputs": [
        {
          "internalType": "address",
          "name": "_user",
          "type": "address"
        }
      ],
      "name": "getSharesOf",
      "outputs": [
        {
          "internalType": "uint256",
          "name": "",
          "type": "uint256"
        }
      ],
      "stateMutability": "view",
      "type": "function"
    },
    {
      "inputs": [],
      "name": "totalShareableSupply",
      "outputs": [
        {
          "internalType": "uint256",
          "name": "",
          "type": "uint256"
        }
      ],
      "stateMutability": "view",
      "type": "function"
    },
    {
      "inputs": [
        {
          "internalType": "address",
          "name": "newAddress",
          "type": "address"
        }
      ],
      "name": "updateUniswapV2Router",
      "outputs": [],
      "stateMutability": "nonpayable",
      "type": "function"
    },
    {
      "inputs": [
        {
          "internalType": "uint256",
          "name": "amount",
          "type": "uint256"
        }
      ],
      "name": "setMinBalanceForDividends",
      "outputs": [],
      "stateMutability": "nonpayable",
      "type": "function"
    },
    {
      "inputs": [
        {
          "internalType": "uint256",
          "name": "_startVestingDate",
          "type": "uint256"
        }
      ],
      "name": "setStartVestingDate",
      "outputs": [],
      "stateMutability": "nonpayable",
      "type": "function"
    },
    {
      "inputs": [
        {
          "internalType": "uint256",
          "name": "_percentage",
          "type": "uint256"
        }
      ],
      "name": "setTransferPercentageAllowed",
      "outputs": [],
      "stateMutability": "nonpayable",
      "type": "function"
    },
    {
      "inputs": [
        {
          "internalType": "address",
          "name": "user",
          "type": "address"
        },
        {
          "internalType": "bool",
          "name": "excluded",
          "type": "bool"
        }
      ],
      "name": "setExcludeFromNukeTheWhales",
      "outputs": [],
      "stateMutability": "nonpayable",
      "type": "function"
    },
    {
      "inputs": [],
      "name": "startNukingTheWhales",
      "outputs": [],
      "stateMutability": "nonpayable",
      "type": "function"
    },
    {
      "inputs": [
        {
          "internalType": "address",
          "name": "account",
          "type": "address"
        },
        {
          "internalType": "bool",
          "name": "excluded",
          "type": "bool"
        }
      ],
      "name": "excludeFromFees",
      "outputs": [],
      "stateMutability": "nonpayable",
      "type": "function"
    },
    {
      "inputs": [
        {
          "internalType": "address",
          "name": "account",
          "type": "address"
        }
      ],
      "name": "isExcludedFromFees",
      "outputs": [
        {
          "internalType": "bool",
          "name": "",
          "type": "bool"
        }
      ],
      "stateMutability": "view",
      "type": "function"
    },
    {
      "inputs": [
        {
          "internalType": "uint256",
          "name": "_newFee",
          "type": "uint256"
        }
      ],
      "name": "updateBuyFee",
      "outputs": [],
      "stateMutability": "nonpayable",
      "type": "function"
    },
    {
      "inputs": [
        {
          "internalType": "uint256",
          "name": "_newFee",
          "type": "uint256"
        }
      ],
      "name": "updateSellFees",
      "outputs": [],
      "stateMutability": "nonpayable",
      "type": "function"
    },
    {
      "inputs": [],
      "name": "toggleSwapEnabled",
      "outputs": [],
      "stateMutability": "nonpayable",
      "type": "function"
    },
    {
      "inputs": [
        {
          "internalType": "uint256",
          "name": "newAmount",
          "type": "uint256"
        }
      ],
      "name": "setSwapTokensAtAmount",
      "outputs": [],
      "stateMutability": "nonpayable",
      "type": "function"
    },
    {
      "inputs": [
        {
          "internalType": "address",
          "name": "account",
          "type": "address"
        },
        {
          "internalType": "uint256",
          "name": "amount",
          "type": "uint256"
        },
        {
          "internalType": "uint256",
          "name": "vestingTime",
          "type": "uint256"
        },
        {
          "internalType": "uint256",
          "name": "lockingTime",
          "type": "uint256"
        }
      ],
      "name": "setVestedWallet",
      "outputs": [],
      "stateMutability": "nonpayable",
      "type": "function"
    },
    {
      "inputs": [
        {
          "internalType": "address",
          "name": "account",
          "type": "address"
        }
      ],
      "name": "getLockedTime",
      "outputs": [
        {
          "internalType": "uint256",
          "name": "",
          "type": "uint256"
        }
      ],
      "stateMutability": "view",
      "type": "function"
    },
    {
      "inputs": [
        {
          "internalType": "address",
          "name": "from",
          "type": "address"
        }
      ],
      "name": "getAvailableAmount",
      "outputs": [
        {
          "internalType": "uint256",
          "name": "",
          "type": "uint256"
        }
      ],
      "stateMutability": "view",
      "type": "function"
    },
    {
      "inputs": [
        {
          "internalType": "address",
          "name": "account",
          "type": "address"
        }
      ],
      "name": "excludeFromDividends",
      "outputs": [],
      "stateMutability": "nonpayable",
      "type": "function"
    },
    {
      "inputs": [
        {
          "internalType": "address",
          "name": "account",
          "type": "address"
        }
      ],
      "name": "includeInDividends",
      "outputs": [],
      "stateMutability": "nonpayable",
      "type": "function"
    },
    {
      "inputs": [],
      "name": "withdrawDividends",
      "outputs": [],
      "stateMutability": "nonpayable",
      "type": "function"
    },
    {
      "inputs": [
        {
          "internalType": "address",
          "name": "account",
          "type": "address"
        }
      ],
      "name": "getVestedWalletWithdrawn",
      "outputs": [
        {
          "internalType": "uint256",
          "name": "",
          "type": "uint256"
        }
      ],
      "stateMutability": "view",
      "type": "function"
    },
    {
      "inputs": [
        {
          "internalType": "address",
          "name": "receiver",
          "type": "address"
        }
      ],
      "name": "withdrawBalance",
      "outputs": [],
      "stateMutability": "nonpayable",
      "type": "function"
    },
    {
      "inputs": [
        {
          "internalType": "address",
          "name": "token",
          "type": "address"
        }
      ],
      "name": "claimStuckTokens",
      "outputs": [],
      "stateMutability": "nonpayable",
      "type": "function"
    }
  ],
  "bytecode": "0x60e0604052600560085560086009556b033b2e3c9fd0803ce8000000600a55683635c9adc5dea00000600f556000601a60006101000a81548160ff0219169083151502179055506005601d5562000ff960201b620028bc176200109560201b620026ab176040518060400160405280600581526020017f58487970650000000000000000000000000000000000000000000000000000008152506040518060400160405280600381526020017f58485000000000000000000000000000000000000000000000000000000000008152508160039081620000e0919062001bf3565b508060049081620000f2919062001bf3565b5050508167ffffffffffffffff1660808167ffffffffffffffff16815250508067ffffffffffffffff1660a08167ffffffffffffffff168152505050506200014f620001436200114460201b60201c565b6200114c60201b60201c565b7355d398326f99059ff775485246999027b319795573ffffffffffffffffffffffffffffffffffffffff1660c08173ffffffffffffffffffffffffffffffffffffffff168152505060007310ed43c718714eb63d5aa57b78b54704e256024e905060008173ffffffffffffffffffffffffffffffffffffffff1663c45a01556040518163ffffffff1660e01b8152600401602060405180830381865afa158015620001fe573d6000803e3d6000fd5b505050506040513d601f19601f8201168201806040525081019062000224919062001d44565b73ffffffffffffffffffffffffffffffffffffffff1663c9c65396308473ffffffffffffffffffffffffffffffffffffffff1663ad5c46486040518163ffffffff1660e01b8152600401602060405180830381865afa1580156200028c573d6000803e3d6000fd5b505050506040513d601f19601f82011682018060405250810190620002b2919062001d44565b6040518363ffffffff1660e01b8152600401620002d192919062001d87565b6020604051808303816000875af1158015620002f1573d6000803e3d6000fd5b505050506040513d601f19601f8201168201806040525081019062000317919062001d44565b905081600b60006101000a81548173ffffffffffffffffffffffffffffffffffffffff021916908373ffffffffffffffffffffffffffffffffffffffff16021790555080600c60006101000a81548173ffffffffffffffffffffffffffffffffffffffff021916908373ffffffffffffffffffffffffffffffffffffffff160217905550600160116000620003b16200121260201b60201c565b73ffffffffffffffffffffffffffffffffffffffff1673ffffffffffffffffffffffffffffffffffffffff16815260200190815260200160002060006101000a81548160ff0219169083151502179055506012620004146200121260201b60201c565b9080600181540180825580915050600190039060005260206000200160009091909190916101000a81548173ffffffffffffffffffffffffffffffffffffffff021916908373ffffffffffffffffffffffffffffffffffffffff1602179055506001601160003073ffffffffffffffffffffffffffffffffffffffff1673ffffffffffffffffffffffffffffffffffffffff16815260200190815260200160002060006101000a81548160ff0219169083151502179055506012309080600181540180825580915050600190039060005260206000200160009091909190916101000a81548173ffffffffffffffffffffffffffffffffffffffff021916908373ffffffffffffffffffffffffffffffffffffffff16021790555060016011600061dead73ffffffffffffffffffffffffffffffffffffffff1673ffffffffffffffffffffffffffffffffffffffff16815260200190815260200160002060006101000a81548160ff021916908315150217905550601261dead9080600181540180825580915050600190039060005260206000200160009091909190916101000a81548173ffffffffffffffffffffffffffffffffffffffff021916908373ffffffffffffffffffffffffffffffffffffffff1602179055506001601160008373ffffffffffffffffffffffffffffffffffffffff1673ffffffffffffffffffffffffffffffffffffffff16815260200190815260200160002060006101000a81548160ff0219169083151502179055506012819080600181540180825580915050600190039060005260206000200160009091909190916101000a81548173ffffffffffffffffffffffffffffffffffffffff021916908373ffffffffffffffffffffffffffffffffffffffff1602179055506001601160008473ffffffffffffffffffffffffffffffffffffffff1673ffffffffffffffffffffffffffffffffffffffff16815260200190815260200160002060006101000a81548160ff0219169083151502179055506012829080600181540180825580915050600190039060005260206000200160009091909190916101000a81548173ffffffffffffffffffffffffffffffffffffffff021916908373ffffffffffffffffffffffffffffffffffffffff160217905550600160116000734aeb644a9a035e5e0b354ea4b463d1c0e8e79cf973ffffffffffffffffffffffffffffffffffffffff1673ffffffffffffffffffffffffffffffffffffffff16815260200190815260200160002060006101000a81548160ff0219169083151502179055506012734aeb644a9a035e5e0b354ea4b463d1c0e8e79cf99080600181540180825580915050600190039060005260206000200160009091909190916101000a81548173ffffffffffffffffffffffffffffffffffffffff021916908373ffffffffffffffffffffffffffffffffffffffff160217905550600160116000733ab47f80a046d2a4d92a5c229fe93fa6708aeb1373ffffffffffffffffffffffffffffffffffffffff1673ffffffffffffffffffffffffffffffffffffffff16815260200190815260200160002060006101000a81548160ff0219169083151502179055506012733ab47f80a046d2a4d92a5c229fe93fa6708aeb139080600181540180825580915050600190039060005260206000200160009091909190916101000a81548173ffffffffffffffffffffffffffffffffffffffff021916908373ffffffffffffffffffffffffffffffffffffffff160217905550600160116000731767c992c70ab29fbe9194f4d8160c373b6d7ed873ffffffffffffffffffffffffffffffffffffffff1673ffffffffffffffffffffffffffffffffffffffff16815260200190815260200160002060006101000a81548160ff0219169083151502179055506012731767c992c70ab29fbe9194f4d8160c373b6d7ed89080600181540180825580915050600190039060005260206000200160009091909190916101000a81548173ffffffffffffffffffffffffffffffffffffffff021916908373ffffffffffffffffffffffffffffffffffffffff16021790555060016011600073e24bfb419f5c0eda8660d53452212cf0c87e415173ffffffffffffffffffffffffffffffffffffffff1673ffffffffffffffffffffffffffffffffffffffff16815260200190815260200160002060006101000a81548160ff021916908315150217905550601273e24bfb419f5c0eda8660d53452212cf0c87e41519080600181540180825580915050600190039060005260206000200160009091909190916101000a81548173ffffffffffffffffffffffffffffffffffffffff021916908373ffffffffffffffffffffffffffffffffffffffff16021790555060016011600073f949709f80dec4d9e2420c0e6a98081f13fff36873ffffffffffffffffffffffffffffffffffffffff1673ffffffffffffffffffffffffffffffffffffffff16815260200190815260200160002060006101000a81548160ff021916908315150217905550601273f949709f80dec4d9e2420c0e6a98081f13fff3689080600181540180825580915050600190039060005260206000200160009091909190916101000a81548173ffffffffffffffffffffffffffffffffffffffff021916908373ffffffffffffffffffffffffffffffffffffffff160217905550600160116000739dbe36b089451aaeff495824bb507ed0902f564473ffffffffffffffffffffffffffffffffffffffff1673ffffffffffffffffffffffffffffffffffffffff16815260200190815260200160002060006101000a81548160ff0219169083151502179055506012739dbe36b089451aaeff495824bb507ed0902f56449080600181540180825580915050600190039060005260206000200160009091909190916101000a81548173ffffffffffffffffffffffffffffffffffffffff021916908373ffffffffffffffffffffffffffffffffffffffff16021790555060016011600073ad064a0827214234e228b9213af52e5e6457e4c073ffffffffffffffffffffffffffffffffffffffff1673ffffffffffffffffffffffffffffffffffffffff16815260200190815260200160002060006101000a81548160ff021916908315150217905550601273ad064a0827214234e228b9213af52e5e6457e4c09080600181540180825580915050600190039060005260206000200160009091909190916101000a81548173ffffffffffffffffffffffffffffffffffffffff021916908373ffffffffffffffffffffffffffffffffffffffff160217905550600160116000734f931e269402cfa2cb998ef3402c7897da7bd1db73ffffffffffffffffffffffffffffffffffffffff1673ffffffffffffffffffffffffffffffffffffffff16815260200190815260200160002060006101000a81548160ff0219169083151502179055506012734f931e269402cfa2cb998ef3402c7897da7bd1db9080600181540180825580915050600190039060005260206000200160009091909190916101000a81548173ffffffffffffffffffffffffffffffffffffffff021916908373ffffffffffffffffffffffffffffffffffffffff16021790555060016013600062000e926200121260201b60201c565b73ffffffffffffffffffffffffffffffffffffffff1673ffffffffffffffffffffffffffffffffffffffff16815260200190815260200160002060006101000a81548160ff0219169083151502179055506001601360003073ffffffffffffffffffffffffffffffffffffffff1673ffffffffffffffffffffffffffffffffffffffff16815260200190815260200160002060006101000a81548160ff02191690831515021790555060016013600061dead73ffffffffffffffffffffffffffffffffffffffff1673ffffffffffffffffffffffffffffffffffffffff16815260200190815260200160002060006101000a81548160ff0219169083151502179055506001600e60006101000a81548160ff02191690831515021790555069021e19e0c9bab2400000600d8190555062000ff162000fd56200121260201b60201c565b62000fe56200123c60201b60201c565b6200124660201b60201c565b5050620020d0565b6000601160008373ffffffffffffffffffffffffffffffffffffffff1673ffffffffffffffffffffffffffffffffffffffff16815260200190815260200160002060009054906101000a900460ff161562001058576000905062001090565b600f546200106c83620013b360201b60201c565b10156200107b5760006200108d565b6200108c82620013b360201b60201c565b5b90505b919050565b60008060005b6012805490508110156200112057620010fb60128281548110620010c457620010c362001db4565b5b9060005260206000200160009054906101000a900473ffffffffffffffffffffffffffffffffffffffff16620013b360201b60201c565b8262001108919062001e12565b91508080620011179062001e4d565b9150506200109b565b5080620011326200123c60201b60201c565b6200113e919062001e9a565b91505090565b600033905090565b6000600760009054906101000a900473ffffffffffffffffffffffffffffffffffffffff16905081600760006101000a81548173ffffffffffffffffffffffffffffffffffffffff021916908373ffffffffffffffffffffffffffffffffffffffff1602179055508173ffffffffffffffffffffffffffffffffffffffff168173ffffffffffffffffffffffffffffffffffffffff167f8be0079c531659141344cd1fd0a4f28419497f9722a3daafe3b4186f6b6457e060405160405180910390a35050565b6000600760009054906101000a900473ffffffffffffffffffffffffffffffffffffffff16905090565b6000600a54905090565b600073ffffffffffffffffffffffffffffffffffffffff168273ffffffffffffffffffffffffffffffffffffffff1603620012b8576040517f08c379a0000000000000000000000000000000000000000000000000000000008152600401620012af9062001f36565b60405180910390fd5b620012cc60008383620013fb60201b60201c565b8060026000828254620012e0919062001e12565b92505081905550806000808473ffffffffffffffffffffffffffffffffffffffff1673ffffffffffffffffffffffffffffffffffffffff168152602001908152602001600020600082825401925050819055508173ffffffffffffffffffffffffffffffffffffffff16600073ffffffffffffffffffffffffffffffffffffffff167fddf252ad1be2c89b69c2b068fc378daa952ba7f163c4a11628f55a4df523b3ef8360405162001393919062001f69565b60405180910390a3620013af60008383620014aa60201b60201c565b5050565b60008060008373ffffffffffffffffffffffffffffffffffffffff1673ffffffffffffffffffffffffffffffffffffffff168152602001908152602001600020549050919050565b601860008473ffffffffffffffffffffffffffffffffffffffff1673ffffffffffffffffffffffffffffffffffffffff16815260200190815260200160002060009054906101000a900460ff1615620014a5576200145f836200155b60201b60201c565b811115620014a4576040517f08c379a00000000000000000000000000000000000000000000000000000000081526004016200149b9062001ffc565b60405180910390fd5b5b505050565b601860008473ffffffffffffffffffffffffffffffffffffffff1673ffffffffffffffffffffffffffffffffffffffff16815260200190815260200160002060009054906101000a900460ff1615620015565780601960008573ffffffffffffffffffffffffffffffffffffffff1673ffffffffffffffffffffffffffffffffffffffff16815260200190815260200160002060008282546200154e919062001e12565b925050819055505b505050565b6000601860008373ffffffffffffffffffffffffffffffffffffffff1673ffffffffffffffffffffffffffffffffffffffff16815260200190815260200160002060009054906101000a900460ff16620015c857620015c082620013b360201b60201c565b9050620017bd565b6000601660008473ffffffffffffffffffffffffffffffffffffffff1673ffffffffffffffffffffffffffffffffffffffff1681526020019081526020016000205411156200166f576200166782601660008573ffffffffffffffffffffffffffffffffffffffff1673ffffffffffffffffffffffffffffffffffffffff168152602001908152602001600020546303c26700620017c260201b60201c565b9050620017bd565b6000601560008473ffffffffffffffffffffffffffffffffffffffff1673ffffffffffffffffffffffffffffffffffffffff16815260200190815260200160002054111562001716576200170e82601560008573ffffffffffffffffffffffffffffffffffffffff1673ffffffffffffffffffffffffffffffffffffffff168152602001908152602001600020546301e13380620017c260201b60201c565b9050620017bd565b6000601460008473ffffffffffffffffffffffffffffffffffffffff1673ffffffffffffffffffffffffffffffffffffffff168152602001908152602001600020541115620017bc57620017b482601460008573ffffffffffffffffffffffffffffffffffffffff1673ffffffffffffffffffffffffffffffffffffffff168152602001908152602001600020546276a700620017c260201b60201c565b9050620017bd565b5b919050565b6000601760008573ffffffffffffffffffffffffffffffffffffffff1673ffffffffffffffffffffffffffffffffffffffff1681526020019081526020016000205460105462001813919062001e12565b42101562001825576000905062001972565b42601760008673ffffffffffffffffffffffffffffffffffffffff1673ffffffffffffffffffffffffffffffffffffffff168152602001908152602001600020548360105462001876919062001e12565b62001882919062001e12565b11620018a1576200189984620013b360201b60201c565b905062001972565b60008284620018b191906200204d565b90506000601760008773ffffffffffffffffffffffffffffffffffffffff1673ffffffffffffffffffffffffffffffffffffffff1681526020019081526020016000205460105462001904919062001e12565b4262001911919062001e9a565b9050601960008773ffffffffffffffffffffffffffffffffffffffff1673ffffffffffffffffffffffffffffffffffffffff16815260200190815260200160002054828262001961919062002085565b6200196d919062001e9a565b925050505b9392505050565b600081519050919050565b7f4e487b7100000000000000000000000000000000000000000000000000000000600052604160045260246000fd5b7f4e487b7100000000000000000000000000000000000000000000000000000000600052602260045260246000fd5b60006002820490506001821680620019fb57607f821691505b60208210810362001a115762001a10620019b3565b5b50919050565b60008190508160005260206000209050919050565b60006020601f8301049050919050565b600082821b905092915050565b60006008830262001a7b7fffffffffffffffffffffffffffffffffffffffffffffffffffffffffffffffff8262001a3c565b62001a87868362001a3c565b95508019841693508086168417925050509392505050565b6000819050919050565b6000819050919050565b600062001ad462001ace62001ac88462001a9f565b62001aa9565b62001a9f565b9050919050565b6000819050919050565b62001af08362001ab3565b62001b0862001aff8262001adb565b84845462001a49565b825550505050565b600090565b62001b1f62001b10565b62001b2c81848462001ae5565b505050565b5b8181101562001b545762001b4860008262001b15565b60018101905062001b32565b5050565b601f82111562001ba35762001b6d8162001a17565b62001b788462001a2c565b8101602085101562001b88578190505b62001ba062001b978562001a2c565b83018262001b31565b50505b505050565b600082821c905092915050565b600062001bc86000198460080262001ba8565b1980831691505092915050565b600062001be3838362001bb5565b9150826002028217905092915050565b62001bfe8262001979565b67ffffffffffffffff81111562001c1a5762001c1962001984565b5b62001c268254620019e2565b62001c3382828562001b58565b600060209050601f83116001811462001c6b576000841562001c56578287015190505b62001c62858262001bd5565b86555062001cd2565b601f19841662001c7b8662001a17565b60005b8281101562001ca55784890151825560018201915060208501945060208101905062001c7e565b8683101562001cc5578489015162001cc1601f89168262001bb5565b8355505b6001600288020188555050505b505050505050565b600080fd5b600073ffffffffffffffffffffffffffffffffffffffff82169050919050565b600062001d0c8262001cdf565b9050919050565b62001d1e8162001cff565b811462001d2a57600080fd5b50565b60008151905062001d3e8162001d13565b92915050565b60006020828403121562001d5d5762001d5c62001cda565b5b600062001d6d8482850162001d2d565b91505092915050565b62001d818162001cff565b82525050565b600060408201905062001d9e600083018562001d76565b62001dad602083018462001d76565b9392505050565b7f4e487b7100000000000000000000000000000000000000000000000000000000600052603260045260246000fd5b7f4e487b7100000000000000000000000000000000000000000000000000000000600052601160045260246000fd5b600062001e1f8262001a9f565b915062001e2c8362001a9f565b925082820190508082111562001e475762001e4662001de3565b5b92915050565b600062001e5a8262001a9f565b91507fffffffffffffffffffffffffffffffffffffffffffffffffffffffffffffffff820362001e8f5762001e8e62001de3565b5b600182019050919050565b600062001ea78262001a9f565b915062001eb48362001a9f565b925082820390508181111562001ecf5762001ece62001de3565b5b92915050565b600082825260208201905092915050565b7f45524332303a206d696e7420746f20746865207a65726f206164647265737300600082015250565b600062001f1e601f8362001ed5565b915062001f2b8262001ee6565b602082019050919050565b6000602082019050818103600083015262001f518162001f0f565b9050919050565b62001f638162001a9f565b82525050565b600060208201905062001f80600083018462001f58565b92915050565b7f43616e277420757365206d6f7265207468616e20617661696c61626c6520616d60008201527f6f756e7400000000000000000000000000000000000000000000000000000000602082015250565b600062001fe460248362001ed5565b915062001ff18262001f86565b604082019050919050565b60006020820190508181036000830152620020178162001fd5565b9050919050565b7f4e487b7100000000000000000000000000000000000000000000000000000000600052601260045260246000fd5b60006200205a8262001a9f565b9150620020678362001a9f565b9250826200207a57620020796200201e565b5b828204905092915050565b6000620020928262001a9f565b91506200209f8362001a9f565b9250828202620020af8162001a9f565b91508282048414831517620020c957620020c862001de3565b5b5092915050565b60805160a05160c0516162b862002123600039600081816110f801528181612a6201528181612afc0152818161437a015281816143eb015261454c0152600061463d01526000610d4c01526162b86000f3fe6080604052600436106102e85760003560e01c8063715018a611610190578063c0246668116100dc578063eba4c33311610095578063f2fde38b1161006f578063f2fde38b14610ba3578063f55d09a714610bcc578063f7c618c114610bf5578063f9d0831a14610c20576102ef565b8063eba4c33314610b14578063ec19b2f614610b3d578063ee85348e14610b66576102ef565b8063c0246668146109f2578063c0f306ef14610a1b578063c12614cd14610a44578063d8e56bc014610a81578063dd62ed3e14610aac578063e2f4560514610ae9576102ef565b806396e0eb9511610149578063a83ac89b11610123578063a83ac89b14610938578063a9059cbb1461094f578063afa4f3b21461098c578063b131e610146109b5576102ef565b806396e0eb95146108a75780639d7ceafb146108d2578063a457c2d7146108fb576102ef565b8063715018a6146107a9578063756af45f146107c05780637e245d79146107e95780638da5cb5b146108145780639267f61c1461083f57806395d89b411461087c576102ef565b806331e79db01161024f5780634fe038fc1161020857806365b8dbc0116101e257806365b8dbc0146106db5780636ddd1713146107045780636fde8cd61461072f57806370a082311461076c576102ef565b80634fe038fc1461064a57806353f83ad7146106875780635ef46022146106c4576102ef565b806331e79db0146105285780633950935114610551578063467abe0a1461058e57806347062402146105b757806349bd5a5e146105e25780634fbee1931461060d576102ef565b806323b872dd116102a157806323b872dd1461042c57806323bdf021146104695780632b14ca56146104925780632e92abdd146104bd5780632e95d05d146104d4578063313ce567146104fd576102ef565b806306fdde03146102f4578063095ea7b31461031f5780631694505e1461035c57806318160ddd146103875780631a60b63d146103b25780631f3a71ba146103ef576102ef565b366102ef57005b600080fd5b34801561030057600080fd5b50610309610c49565b60405161031691906147df565b60405180910390f35b34801561032b57600080fd5b506103466004803603810190610341919061489a565b610cdb565b60405161035391906148f5565b60405180910390f35b34801561036857600080fd5b50610371610cfe565b60405161037e919061496f565b60405180910390f35b34801561039357600080fd5b5061039c610d24565b6040516103a99190614999565b60405180910390f35b3480156103be57600080fd5b506103d960048036038101906103d491906149b4565b610d2e565b6040516103e69190614999565b60405180910390f35b3480156103fb57600080fd5b50610416600480360381019061041191906149b4565b610d95565b6040516104239190614999565b60405180910390f35b34801561043857600080fd5b50610453600480360381019061044e91906149e1565b610fd4565b60405161046091906148f5565b60405180910390f35b34801561047557600080fd5b50610490600480360381019061048b9190614a34565b611003565b005b34801561049e57600080fd5b506104a761109d565b6040516104b49190614999565b60405180910390f35b3480156104c957600080fd5b506104d26110a3565b005b3480156104e057600080fd5b506104fb60048036038101906104f69190614a61565b61116f565b005b34801561050957600080fd5b50610512611432565b60405161051f9190614ae4565b60405180910390f35b34801561053457600080fd5b5061054f600480360381019061054a91906149b4565b61143b565b005b34801561055d57600080fd5b506105786004803603810190610573919061489a565b6115dd565b60405161058591906148f5565b60405180910390f35b34801561059a57600080fd5b506105b560048036038101906105b09190614a34565b611614565b005b3480156105c357600080fd5b506105cc6116a3565b6040516105d99190614999565b60405180910390f35b3480156105ee57600080fd5b506105f76116a9565b6040516106049190614b0e565b60405180910390f35b34801561061957600080fd5b50610634600480360381019061062f91906149b4565b6116cf565b60405161064191906148f5565b60405180910390f35b34801561065657600080fd5b50610671600480360381019061066c91906149b4565b611725565b60405161067e9190614999565b60405180910390f35b34801561069357600080fd5b506106ae60048036038101906106a991906149b4565b61176e565b6040516106bb9190614999565b60405180910390f35b3480156106d057600080fd5b506106d96117b7565b005b3480156106e757600080fd5b5061070260048036038101906106fd91906149b4565b6117eb565b005b34801561071057600080fd5b50610719611e9f565b60405161072691906148f5565b60405180910390f35b34801561073b57600080fd5b50610756600480360381019061075191906149b4565b611eb2565b6040516107639190614999565b60405180910390f35b34801561077857600080fd5b50610793600480360381019061078e91906149b4565b611efb565b6040516107a09190614999565b60405180910390f35b3480156107b557600080fd5b506107be611f43565b005b3480156107cc57600080fd5b506107e760048036038101906107e291906149b4565b611f57565b005b3480156107f557600080fd5b506107fe611faf565b60405161080b9190614999565b60405180910390f35b34801561082057600080fd5b50610829611fb5565b6040516108369190614b0e565b60405180910390f35b34801561084b57600080fd5b50610866600480360381019061086191906149b4565b611fdf565b6040516108739190614999565b60405180910390f35b34801561088857600080fd5b50610891611ff7565b60405161089e91906147df565b60405180910390f35b3480156108b357600080fd5b506108bc612089565b6040516108c99190614999565b60405180910390f35b3480156108de57600080fd5b506108f960048036038101906108f49190614a34565b61208f565b005b34801561090757600080fd5b50610922600480360381019061091d919061489a565b6120fa565b60405161092f91906148f5565b60405180910390f35b34801561094457600080fd5b5061094d612171565b005b34801561095b57600080fd5b506109766004803603810190610971919061489a565b612196565b60405161098391906148f5565b60405180910390f35b34801561099857600080fd5b506109b360048036038101906109ae9190614a34565b6121b9565b005b3480156109c157600080fd5b506109dc60048036038101906109d791906149b4565b612222565b6040516109e99190614999565b60405180910390f35b3480156109fe57600080fd5b50610a196004803603810190610a149190614b55565b612285565b005b348015610a2757600080fd5b50610a426004803603810190610a3d91906149b4565b6123c8565b005b348015610a5057600080fd5b50610a6b6004803603810190610a6691906149b4565b612693565b604051610a789190614999565b60405180910390f35b348015610a8d57600080fd5b50610a966126ab565b604051610aa39190614999565b60405180910390f35b348015610ab857600080fd5b50610ad36004803603810190610ace9190614b95565b61273f565b604051610ae09190614999565b60405180910390f35b348015610af557600080fd5b50610afe6127c6565b604051610b0b9190614999565b60405180910390f35b348015610b2057600080fd5b50610b3b6004803603810190610b369190614a34565b6127cc565b005b348015610b4957600080fd5b50610b646004803603810190610b5f9190614b55565b612859565b005b348015610b7257600080fd5b50610b8d6004803603810190610b8891906149b4565b6128bc565b604051610b9a9190614999565b60405180910390f35b348015610baf57600080fd5b50610bca6004803603810190610bc591906149b4565b612944565b005b348015610bd857600080fd5b50610bf36004803603810190610bee9190614a34565b6129c7565b005b348015610c0157600080fd5b50610c0a612a60565b604051610c179190614b0e565b60405180910390f35b348015610c2c57600080fd5b50610c476004803603810190610c4291906149b4565b612a84565b005b606060038054610c5890614c04565b80601f0160208091040260200160405190810160405280929190818152602001828054610c8490614c04565b8015610cd15780601f10610ca657610100808354040283529160200191610cd1565b820191906000526020600020905b815481529060010190602001808311610cb457829003601f168201915b5050505050905090565b600080610ce6612c1b565b9050610cf3818585612c23565b600191505092915050565b600b60009054906101000a900473ffffffffffffffffffffffffffffffffffffffff1681565b6000600a54905090565b60006fffffffffffffffffffffffffffffffff8016610d84610d73847f000000000000000000000000000000000000000000000000000000000000000063ffffffff16565b600554612dec90919063ffffffff16565b610d8e9190614c93565b9050919050565b6000601860008373ffffffffffffffffffffffffffffffffffffffff1673ffffffffffffffffffffffffffffffffffffffff16815260200190815260200160002060009054906101000a900460ff16610df857610df182611efb565b9050610fcf565b6000601660008473ffffffffffffffffffffffffffffffffffffffff1673ffffffffffffffffffffffffffffffffffffffff168152602001908152602001600020541115610e9557610e8e82601660008573ffffffffffffffffffffffffffffffffffffffff1673ffffffffffffffffffffffffffffffffffffffff168152602001908152602001600020546303c26700612e23565b9050610fcf565b6000601560008473ffffffffffffffffffffffffffffffffffffffff1673ffffffffffffffffffffffffffffffffffffffff168152602001908152602001600020541115610f3257610f2b82601560008573ffffffffffffffffffffffffffffffffffffffff1673ffffffffffffffffffffffffffffffffffffffff168152602001908152602001600020546301e13380612e23565b9050610fcf565b6000601460008473ffffffffffffffffffffffffffffffffffffffff1673ffffffffffffffffffffffffffffffffffffffff168152602001908152602001600020541115610fce57610fc782601460008573ffffffffffffffffffffffffffffffffffffffff1673ffffffffffffffffffffffffffffffffffffffff168152602001908152602001600020546276a700612e23565b9050610fcf565b5b919050565b600080610fdf612c1b565b9050610fec858285612fbe565b610ff785858561304a565b60019150509392505050565b61100b61375d565b6000811161104e576040517f08c379a000000000000000000000000000000000000000000000000000000000815260040161104590614d10565b60405180910390fd5b6103e8811115611093576040517f08c379a000000000000000000000000000000000000000000000000000000000815260040161108a90614da2565b60405180910390fd5b80601d8190555050565b60095481565b60006110ae336137db565b9050600081116110f3576040517f08c379a00000000000000000000000000000000000000000000000000000000081526004016110ea90614e0e565b60405180910390fd5b61111e7f000000000000000000000000000000000000000000000000000000000000000033836138df565b3373ffffffffffffffffffffffffffffffffffffffff167f08d688a92fc311df9b853769e8a99b320411042a86f106fd29e7f21ee06e79da826040516111649190614999565b60405180910390a250565b61117761375d565b60038214806111865750600c82145b806111915750601882145b6111d0576040517f08c379a00000000000000000000000000000000000000000000000000000000081526004016111c790614e7a565b60405180910390fd5b60006111db85611efb565b1461121b576040517f08c379a000000000000000000000000000000000000000000000000000000000815260040161121290614ee6565b60405180910390fd5b601860008573ffffffffffffffffffffffffffffffffffffffff1673ffffffffffffffffffffffffffffffffffffffff16815260200190815260200160002060009054906101000a900460ff16156112a8576040517f08c379a000000000000000000000000000000000000000000000000000000000815260040161129f90614f52565b60405180910390fd5b600382036112f95782601460008673ffffffffffffffffffffffffffffffffffffffff1673ffffffffffffffffffffffffffffffffffffffff16815260200190815260200160002081905550611390565b600c820361134a5782601560008673ffffffffffffffffffffffffffffffffffffffff1673ffffffffffffffffffffffffffffffffffffffff1681526020019081526020016000208190555061138f565b82601660008673ffffffffffffffffffffffffffffffffffffffff1673ffffffffffffffffffffffffffffffffffffffff168152602001908152602001600020819055505b5b80601760008673ffffffffffffffffffffffffffffffffffffffff1673ffffffffffffffffffffffffffffffffffffffff168152602001908152602001600020819055506001601860008673ffffffffffffffffffffffffffffffffffffffff1673ffffffffffffffffffffffffffffffffffffffff16815260200190815260200160002060006101000a81548160ff02191690831515021790555050505050565b60006012905090565b61144361375d565b601160008273ffffffffffffffffffffffffffffffffffffffff1673ffffffffffffffffffffffffffffffffffffffff16815260200190815260200160002060009054906101000a900460ff16156114d0576040517f08c379a00000000000000000000000000000000000000000000000000000000081526004016114c790614fbe565b60405180910390fd5b6001601160008373ffffffffffffffffffffffffffffffffffffffff1673ffffffffffffffffffffffffffffffffffffffff16815260200190815260200160002060006101000a81548160ff0219169083151502179055506012819080600181540180825580915050600190039060005260206000200160009091909190916101000a81548173ffffffffffffffffffffffffffffffffffffffff021916908373ffffffffffffffffffffffffffffffffffffffff1602179055508073ffffffffffffffffffffffffffffffffffffffff167fa3c7c11b2e12c4144b09a7813f3393ba646392788638998c97be8da908cf04be60016040516115d291906148f5565b60405180910390a250565b6000806115e8612c1b565b90506116098185856115fa858961273f565b6116049190614fde565b612c23565b600191505092915050565b61161c61375d565b600f811115611660576040517f08c379a00000000000000000000000000000000000000000000000000000000081526004016116579061505e565b60405180910390fd5b806008819055507fa480a3a15a511fbdc37ae77ae3f490e03ab3688adde11456ce779e6c1e0abaa26008546040516116989190614999565b60405180910390a150565b60085481565b600c60009054906101000a900473ffffffffffffffffffffffffffffffffffffffff1681565b6000601360008373ffffffffffffffffffffffffffffffffffffffff1673ffffffffffffffffffffffffffffffffffffffff16815260200190815260200160002060009054906101000a900460ff169050919050565b6000601960008373ffffffffffffffffffffffffffffffffffffffff1673ffffffffffffffffffffffffffffffffffffffff168152602001908152602001600020549050919050565b6000600660008373ffffffffffffffffffffffffffffffffffffffff1673ffffffffffffffffffffffffffffffffffffffff168152602001908152602001600020549050919050565b6117bf61375d565b600e60009054906101000a900460ff1615600e60006101000a81548160ff021916908315150217905550565b6117f361375d565b600b60009054906101000a900473ffffffffffffffffffffffffffffffffffffffff1673ffffffffffffffffffffffffffffffffffffffff168173ffffffffffffffffffffffffffffffffffffffff1603611883576040517f08c379a000000000000000000000000000000000000000000000000000000000815260040161187a906150f0565b60405180910390fd5b8073ffffffffffffffffffffffffffffffffffffffff167f0c36f1f3a0f38cd9563b52fb110cc5b0fa22c509defc16728a6a42f1bddad22960405160405180910390a280600b60006101000a81548173ffffffffffffffffffffffffffffffffffffffff021916908373ffffffffffffffffffffffffffffffffffffffff160217905550600073ffffffffffffffffffffffffffffffffffffffff16600b60009054906101000a900473ffffffffffffffffffffffffffffffffffffffff1673ffffffffffffffffffffffffffffffffffffffff1663c45a01556040518163ffffffff1660e01b8152600401602060405180830381865afa15801561198c573d6000803e3d6000fd5b505050506040513d601f19601f820116820180604052508101906119b09190615125565b73ffffffffffffffffffffffffffffffffffffffff1663e6a4390530600b60009054906101000a900473ffffffffffffffffffffffffffffffffffffffff1673ffffffffffffffffffffffffffffffffffffffff1663ad5c46486040518163ffffffff1660e01b8152600401602060405180830381865afa158015611a39573d6000803e3d6000fd5b505050506040513d601f19601f82011682018060405250810190611a5d9190615125565b6040518363ffffffff1660e01b8152600401611a7a929190615152565b602060405180830381865afa158015611a97573d6000803e3d6000fd5b505050506040513d601f19601f82011682018060405250810190611abb9190615125565b73ffffffffffffffffffffffffffffffffffffffff1603611cbf576000600b60009054906101000a900473ffffffffffffffffffffffffffffffffffffffff1673ffffffffffffffffffffffffffffffffffffffff1663c45a01556040518163ffffffff1660e01b8152600401602060405180830381865afa158015611b45573d6000803e3d6000fd5b505050506040513d601f19601f82011682018060405250810190611b699190615125565b73ffffffffffffffffffffffffffffffffffffffff1663c9c6539630600b60009054906101000a900473ffffffffffffffffffffffffffffffffffffffff1673ffffffffffffffffffffffffffffffffffffffff1663ad5c46486040518163ffffffff1660e01b8152600401602060405180830381865afa158015611bf2573d6000803e3d6000fd5b505050506040513d601f19601f82011682018060405250810190611c169190615125565b6040518363ffffffff1660e01b8152600401611c33929190615152565b6020604051808303816000875af1158015611c52573d6000803e3d6000fd5b505050506040513d601f19601f82011682018060405250810190611c769190615125565b905080600c60006101000a81548173ffffffffffffffffffffffffffffffffffffffff021916908373ffffffffffffffffffffffffffffffffffffffff16021790555050611e9c565b600b60009054906101000a900473ffffffffffffffffffffffffffffffffffffffff1673ffffffffffffffffffffffffffffffffffffffff1663c45a01556040518163ffffffff1660e01b8152600401602060405180830381865afa158015611d2c573d6000803e3d6000fd5b505050506040513d601f19601f82011682018060405250810190611d509190615125565b73ffffffffffffffffffffffffffffffffffffffff1663e6a4390530600b60009054906101000a900473ffffffffffffffffffffffffffffffffffffffff1673ffffffffffffffffffffffffffffffffffffffff1663ad5c46486040518163ffffffff1660e01b8152600401602060405180830381865afa158015611dd9573d6000803e3d6000fd5b505050506040513d601f19601f82011682018060405250810190611dfd9190615125565b6040518363ffffffff1660e01b8152600401611e1a929190615152565b602060405180830381865afa158015611e37573d6000803e3d6000fd5b505050506040513d601f19601f82011682018060405250810190611e5b9190615125565b600c60006101000a81548173ffffffffffffffffffffffffffffffffffffffff021916908373ffffffffffffffffffffffffffffffffffffffff1602179055505b50565b600e60009054906101000a900460ff1681565b6000601760008373ffffffffffffffffffffffffffffffffffffffff1673ffffffffffffffffffffffffffffffffffffffff168152602001908152602001600020549050919050565b60008060008373ffffffffffffffffffffffffffffffffffffffff1673ffffffffffffffffffffffffffffffffffffffff168152602001908152602001600020549050919050565b611f4b61375d565b611f556000613a15565b565b611f5f61375d565b60004711611fa2576040517f08c379a0000000000000000000000000000000000000000000000000000000008152600401611f9990614e0e565b60405180910390fd5b611fac8147613adb565b50565b60055481565b6000600760009054906101000a900473ffffffffffffffffffffffffffffffffffffffff16905090565b601c6020528060005260406000206000915090505481565b60606004805461200690614c04565b80601f016020809104026020016040519081016040528092919081815260200182805461203290614c04565b801561207f5780601f106120545761010080835404028352916020019161207f565b820191906000526020600020905b81548152906001019060200180831161206257829003601f168201915b5050505050905090565b600f5481565b61209761375d565b6000811180156120b1575069d3c21bcecceda10000008111155b6120f0576040517f08c379a00000000000000000000000000000000000000000000000000000000081526004016120e7906151c7565b60405180910390fd5b80600f8190555050565b600080612105612c1b565b90506000612113828661273f565b905083811015612158576040517f08c379a000000000000000000000000000000000000000000000000000000000815260040161214f90615259565b60405180910390fd5b6121658286868403612c23565b60019250505092915050565b61217961375d565b6001601a60006101000a81548160ff021916908315150217905550565b6000806121a1612c1b565b90506121ae81858561304a565b600191505092915050565b6121c161375d565b620f42406121cd610d24565b6121d79190614c93565b8111612218576040517f08c379a000000000000000000000000000000000000000000000000000000000815260040161220f906152eb565b60405180910390fd5b80600d8190555050565b600061227e600660008473ffffffffffffffffffffffffffffffffffffffff1673ffffffffffffffffffffffffffffffffffffffff1681526020019081526020016000205461227084610d2e565b613bdb90919063ffffffff16565b9050919050565b61228d61375d565b801515601360008473ffffffffffffffffffffffffffffffffffffffff1673ffffffffffffffffffffffffffffffffffffffff16815260200190815260200160002060009054906101000a900460ff1615150361231f576040517f08c379a00000000000000000000000000000000000000000000000000000000081526004016123169061537d565b60405180910390fd5b80601360008473ffffffffffffffffffffffffffffffffffffffff1673ffffffffffffffffffffffffffffffffffffffff16815260200190815260200160002060006101000a81548160ff0219169083151502179055508173ffffffffffffffffffffffffffffffffffffffff167f9d8f7706ea1113d1a167b526eca956215946dd36cc7df39eb16180222d8b5df7826040516123bc91906148f5565b60405180910390a25050565b6123d061375d565b601160008273ffffffffffffffffffffffffffffffffffffffff1673ffffffffffffffffffffffffffffffffffffffff16815260200190815260200160002060009054906101000a900460ff1661245c576040517f08c379a0000000000000000000000000000000000000000000000000000000008152600401612453906153e9565b60405180910390fd5b60005b601280549050811015612640578173ffffffffffffffffffffffffffffffffffffffff166012828154811061249757612496615409565b5b9060005260206000200160009054906101000a900473ffffffffffffffffffffffffffffffffffffffff1673ffffffffffffffffffffffffffffffffffffffff160361262d57601260016012805490506124f19190615438565b8154811061250257612501615409565b5b9060005260206000200160009054906101000a900473ffffffffffffffffffffffffffffffffffffffff166012828154811061254157612540615409565b5b9060005260206000200160006101000a81548173ffffffffffffffffffffffffffffffffffffffff021916908373ffffffffffffffffffffffffffffffffffffffff1602179055506000601160008473ffffffffffffffffffffffffffffffffffffffff1673ffffffffffffffffffffffffffffffffffffffff16815260200190815260200160002060006101000a81548160ff02191690831515021790555060128054806125f3576125f261546c565b5b6001900381819060005260206000200160006101000a81549073ffffffffffffffffffffffffffffffffffffffff02191690559055612640565b80806126389061549b565b91505061245f565b508073ffffffffffffffffffffffffffffffffffffffff167fa3c7c11b2e12c4144b09a7813f3393ba646392788638998c97be8da908cf04be600060405161268891906148f5565b60405180910390a250565b60196020528060005260406000206000915090505481565b60008060005b60128054905081101561272557612705601282815481106126d5576126d4615409565b5b9060005260206000200160009054906101000a900473ffffffffffffffffffffffffffffffffffffffff16611efb565b826127109190614fde565b9150808061271d9061549b565b9150506126b1565b508061272f610d24565b6127399190615438565b91505090565b6000600160008473ffffffffffffffffffffffffffffffffffffffff1673ffffffffffffffffffffffffffffffffffffffff16815260200190815260200160002060008373ffffffffffffffffffffffffffffffffffffffff1673ffffffffffffffffffffffffffffffffffffffff16815260200190815260200160002054905092915050565b600d5481565b6127d461375d565b600f811115612818576040517f08c379a000000000000000000000000000000000000000000000000000000000815260040161280f9061552f565b60405180910390fd5b806009819055507f7d59573ec4acab62b908b5c1cde109eb12273d011506abaa850256636a42d54a8160405161284e9190614999565b60405180910390a150565b61286161375d565b80601b60008473ffffffffffffffffffffffffffffffffffffffff1673ffffffffffffffffffffffffffffffffffffffff16815260200190815260200160002060006101000a81548160ff0219169083151502179055505050565b6000601160008373ffffffffffffffffffffffffffffffffffffffff1673ffffffffffffffffffffffffffffffffffffffff16815260200190815260200160002060009054906101000a900460ff1615612919576000905061293f565b600f5461292583611efb565b101561293257600061293c565b61293b82611efb565b5b90505b919050565b61294c61375d565b600073ffffffffffffffffffffffffffffffffffffffff168173ffffffffffffffffffffffffffffffffffffffff16036129bb576040517f08c379a00000000000000000000000000000000000000000000000000000000081526004016129b2906155c1565b60405180910390fd5b6129c481613a15565b50565b6129cf61375d565b600060105414612a14576040517f08c379a0000000000000000000000000000000000000000000000000000000008152600401612a0b90615653565b60405180910390fd5b428111612a56576040517f08c379a0000000000000000000000000000000000000000000000000000000008152600401612a4d906156bf565b60405180910390fd5b8060108190555050565b7f000000000000000000000000000000000000000000000000000000000000000081565b612a8c61375d565b3073ffffffffffffffffffffffffffffffffffffffff168173ffffffffffffffffffffffffffffffffffffffff1603612afa576040517f08c379a0000000000000000000000000000000000000000000000000000000008152600401612af19061572b565b60405180910390fd5b7f000000000000000000000000000000000000000000000000000000000000000073ffffffffffffffffffffffffffffffffffffffff168173ffffffffffffffffffffffffffffffffffffffff1603612b88576040517f08c379a0000000000000000000000000000000000000000000000000000000008152600401612b7f906157bd565b60405180910390fd5b600081905060008173ffffffffffffffffffffffffffffffffffffffff166370a08231306040518263ffffffff1660e01b8152600401612bc89190614b0e565b602060405180830381865afa158015612be5573d6000803e3d6000fd5b505050506040513d601f19601f82011682018060405250810190612c0991906157f2565b9050612c168333836138df565b505050565b600033905090565b600073ffffffffffffffffffffffffffffffffffffffff168373ffffffffffffffffffffffffffffffffffffffff1603612c92576040517f08c379a0000000000000000000000000000000000000000000000000000000008152600401612c8990615891565b60405180910390fd5b600073ffffffffffffffffffffffffffffffffffffffff168273ffffffffffffffffffffffffffffffffffffffff1603612d01576040517f08c379a0000000000000000000000000000000000000000000000000000000008152600401612cf890615923565b60405180910390fd5b80600160008573ffffffffffffffffffffffffffffffffffffffff1673ffffffffffffffffffffffffffffffffffffffff16815260200190815260200160002060008473ffffffffffffffffffffffffffffffffffffffff1673ffffffffffffffffffffffffffffffffffffffff168152602001908152602001600020819055508173ffffffffffffffffffffffffffffffffffffffff168373ffffffffffffffffffffffffffffffffffffffff167f8c5be1e5ebec7d5bd14f71427d1e84f3dd0314c0f7b2291e5b200ac8c7c3b92583604051612ddf9190614999565b60405180910390a3505050565b600080831480612e14575081838385612e059190615943565b925082612e129190614c93565b145b612e1d57600080fd5b92915050565b6000601760008573ffffffffffffffffffffffffffffffffffffffff1673ffffffffffffffffffffffffffffffffffffffff16815260200190815260200160002054601054612e729190614fde565b421015612e825760009050612fb7565b42601760008673ffffffffffffffffffffffffffffffffffffffff1673ffffffffffffffffffffffffffffffffffffffff1681526020019081526020016000205483601054612ed19190614fde565b612edb9190614fde565b11612ef057612ee984611efb565b9050612fb7565b60008284612efe9190614c93565b90506000601760008773ffffffffffffffffffffffffffffffffffffffff1673ffffffffffffffffffffffffffffffffffffffff16815260200190815260200160002054601054612f4f9190614fde565b42612f5a9190615438565b9050601960008773ffffffffffffffffffffffffffffffffffffffff1673ffffffffffffffffffffffffffffffffffffffff168152602001908152602001600020548282612fa89190615943565b612fb29190615438565b925050505b9392505050565b6000612fca848461273f565b90507fffffffffffffffffffffffffffffffffffffffffffffffffffffffffffffffff81146130445781811015613036576040517f08c379a000000000000000000000000000000000000000000000000000000000815260040161302d906159d1565b60405180910390fd5b6130438484848403612c23565b5b50505050565b600073ffffffffffffffffffffffffffffffffffffffff168373ffffffffffffffffffffffffffffffffffffffff16036130b9576040517f08c379a00000000000000000000000000000000000000000000000000000000081526004016130b090615a63565b60405180910390fd5b600073ffffffffffffffffffffffffffffffffffffffff168273ffffffffffffffffffffffffffffffffffffffff1603613128576040517f08c379a000000000000000000000000000000000000000000000000000000000815260040161311f90615af5565b60405180910390fd5b600081036131415761313c83836000613bfe565b613758565b601a60009054906101000a900460ff1680156131a75750601b60008473ffffffffffffffffffffffffffffffffffffffff1673ffffffffffffffffffffffffffffffffffffffff16815260200190815260200160002060009054906101000a900460ff16155b1561345c576131b4611fb5565b73ffffffffffffffffffffffffffffffffffffffff168373ffffffffffffffffffffffffffffffffffffffff161415801561322257506131f2611fb5565b73ffffffffffffffffffffffffffffffffffffffff168273ffffffffffffffffffffffffffffffffffffffff1614155b1561328c576103e8601d54613235610d24565b61323f9190615943565b6132499190614c93565b81111561328b576040517f08c379a000000000000000000000000000000000000000000000000000000000815260040161328290615b87565b60405180910390fd5b5b600c60009054906101000a900473ffffffffffffffffffffffffffffffffffffffff1673ffffffffffffffffffffffffffffffffffffffff168273ffffffffffffffffffffffffffffffffffffffff1614806133355750600b60009054906101000a900473ffffffffffffffffffffffffffffffffffffffff1673ffffffffffffffffffffffffffffffffffffffff168273ffffffffffffffffffffffffffffffffffffffff16145b1561345b57600061334584611efb565b905060006103e86005613356610d24565b6133609190615943565b61336a9190614c93565b9050808211156134585760004290506005836133869190614c93565b84106133c7576040517f08c379a00000000000000000000000000000000000000000000000000000000081526004016133be90615c3f565b60405180910390fd5b62015180601c60008873ffffffffffffffffffffffffffffffffffffffff1673ffffffffffffffffffffffffffffffffffffffff16815260200190815260200160002054826134169190615438565b11613456576040517f08c379a000000000000000000000000000000000000000000000000000000000815260040161344d90615cd1565b60405180910390fd5b505b50505b5b600061346730611efb565b90506000600d548210159050600e60009054906101000a900460ff16801561348c5750805b80156134a55750600e60019054906101000a900460ff16155b156134ea576001600e60016101000a81548160ff0219169083151502179055506134ce82613e74565b6000600e60016101000a81548160ff0219169083151502179055505b6000600e60019054906101000a900460ff16159050601360008773ffffffffffffffffffffffffffffffffffffffff1673ffffffffffffffffffffffffffffffffffffffff16815260200190815260200160002060009054906101000a900460ff16806135a05750601360008673ffffffffffffffffffffffffffffffffffffffff1673ffffffffffffffffffffffffffffffffffffffff16815260200190815260200160002060009054906101000a900460ff165b156135aa57600090505b600c60009054906101000a900473ffffffffffffffffffffffffffffffffffffffff1673ffffffffffffffffffffffffffffffffffffffff168673ffffffffffffffffffffffffffffffffffffffff16141580156136565750600c60009054906101000a900473ffffffffffffffffffffffffffffffffffffffff1673ffffffffffffffffffffffffffffffffffffffff168573ffffffffffffffffffffffffffffffffffffffff1614155b1561366057600090505b8015613749576000600c60009054906101000a900473ffffffffffffffffffffffffffffffffffffffff1673ffffffffffffffffffffffffffffffffffffffff168773ffffffffffffffffffffffffffffffffffffffff16036136c7576008549050613711565b600954905042601c60008973ffffffffffffffffffffffffffffffffffffffff1673ffffffffffffffffffffffffffffffffffffffff168152602001908152602001600020819055505b6000606482876137219190615943565b61372b9190614c93565b905080866137399190615438565b9550613746883083613bfe565b50505b613754868686613bfe565b5050505b505050565b613765612c1b565b73ffffffffffffffffffffffffffffffffffffffff16613783611fb5565b73ffffffffffffffffffffffffffffffffffffffff16146137d9576040517f08c379a00000000000000000000000000000000000000000000000000000000081526004016137d090615d3d565b60405180910390fd5b565b6000806137e783612222565b905060008111156138d65761384481600660008673ffffffffffffffffffffffffffffffffffffffff1673ffffffffffffffffffffffffffffffffffffffff168152602001908152602001600020546140d790919063ffffffff16565b600660008573ffffffffffffffffffffffffffffffffffffffff1673ffffffffffffffffffffffffffffffffffffffff168152602001908152602001600020819055508273ffffffffffffffffffffffffffffffffffffffff167f08d688a92fc311df9b853769e8a99b320411042a86f106fd29e7f21ee06e79da826040516138cd9190614999565b60405180910390a25b80915050919050565b6000808473ffffffffffffffffffffffffffffffffffffffff1663a9059cbb8585604051602401613911929190615d5d565b6040516020818303038152906040529060e01b6020820180517bffffffffffffffffffffffffffffffffffffffffffffffffffffffff838183161783525050505060405161395f9190615dcd565b6000604051808303816000865af19150503d806000811461399c576040519150601f19603f3d011682016040523d82523d6000602084013e6139a1565b606091505b50915091508180156139cf57506000815114806139ce5750808060200190518101906139cd9190615df9565b5b5b613a0e576040517f08c379a0000000000000000000000000000000000000000000000000000000008152600401613a0590615e72565b60405180910390fd5b5050505050565b6000600760009054906101000a900473ffffffffffffffffffffffffffffffffffffffff16905081600760006101000a81548173ffffffffffffffffffffffffffffffffffffffff021916908373ffffffffffffffffffffffffffffffffffffffff1602179055508173ffffffffffffffffffffffffffffffffffffffff168173ffffffffffffffffffffffffffffffffffffffff167f8be0079c531659141344cd1fd0a4f28419497f9722a3daafe3b4186f6b6457e060405160405180910390a35050565b60008273ffffffffffffffffffffffffffffffffffffffff1682600067ffffffffffffffff811115613b1057613b0f615e92565b5b6040519080825280601f01601f191660200182016040528015613b425781602001600182028036833780820191505090505b50604051613b509190615dcd565b60006040518083038185875af1925050503d8060008114613b8d576040519150601f19603f3d011682016040523d82523d6000602084013e613b92565b606091505b5050905080613bd6576040517f08c379a0000000000000000000000000000000000000000000000000000000008152600401613bcd90615f33565b60405180910390fd5b505050565b6000828284613bea9190615438565b9150811115613bf857600080fd5b92915050565b600073ffffffffffffffffffffffffffffffffffffffff168373ffffffffffffffffffffffffffffffffffffffff1603613c6d576040517f08c379a0000000000000000000000000000000000000000000000000000000008152600401613c6490615a63565b60405180910390fd5b600073ffffffffffffffffffffffffffffffffffffffff168273ffffffffffffffffffffffffffffffffffffffff1603613cdc576040517f08c379a0000000000000000000000000000000000000000000000000000000008152600401613cd390615af5565b60405180910390fd5b613ce78383836140fa565b60008060008573ffffffffffffffffffffffffffffffffffffffff1673ffffffffffffffffffffffffffffffffffffffff16815260200190815260200160002054905081811015613d6d576040517f08c379a0000000000000000000000000000000000000000000000000000000008152600401613d6490615fc5565b60405180910390fd5b8181036000808673ffffffffffffffffffffffffffffffffffffffff1673ffffffffffffffffffffffffffffffffffffffff16815260200190815260200160002081905550816000808573ffffffffffffffffffffffffffffffffffffffff1673ffffffffffffffffffffffffffffffffffffffff168152602001908152602001600020600082825401925050819055508273ffffffffffffffffffffffffffffffffffffffff168473ffffffffffffffffffffffffffffffffffffffff167fddf252ad1be2c89b69c2b068fc378daa952ba7f163c4a11628f55a4df523b3ef84604051613e5b9190614999565b60405180910390a3613e6e84848461419d565b50505050565b6000600267ffffffffffffffff811115613e9157613e90615e92565b5b604051908082528060200260200182016040528015613ebf5781602001602082028036833780820191505090505b5090503081600081518110613ed757613ed6615409565b5b602002602001019073ffffffffffffffffffffffffffffffffffffffff16908173ffffffffffffffffffffffffffffffffffffffff1681525050600b60009054906101000a900473ffffffffffffffffffffffffffffffffffffffff1673ffffffffffffffffffffffffffffffffffffffff1663ad5c46486040518163ffffffff1660e01b8152600401602060405180830381865afa158015613f7e573d6000803e3d6000fd5b505050506040513d601f19601f82011682018060405250810190613fa29190615125565b81600181518110613fb657613fb5615409565b5b602002602001019073ffffffffffffffffffffffffffffffffffffffff16908173ffffffffffffffffffffffffffffffffffffffff1681525050600047905061402230600b60009054906101000a900473ffffffffffffffffffffffffffffffffffffffff1685612c23565b600b60009054906101000a900473ffffffffffffffffffffffffffffffffffffffff1673ffffffffffffffffffffffffffffffffffffffff1663791ac9478460008530426040518663ffffffff1660e01b81526004016140869594939291906160de565b600060405180830381600087803b1580156140a057600080fd5b505af11580156140b4573d6000803e3d6000fd5b50505050600081476140c69190615438565b90506140d18161424b565b50505050565b60008282846140e69190614fde565b91508110156140f457600080fd5b92915050565b601860008473ffffffffffffffffffffffffffffffffffffffff1673ffffffffffffffffffffffffffffffffffffffff16815260200190815260200160002060009054906101000a900460ff16156141985761415583610d95565b811115614197576040517f08c379a000000000000000000000000000000000000000000000000000000000815260040161418e906161aa565b60405180910390fd5b5b505050565b601860008473ffffffffffffffffffffffffffffffffffffffff1673ffffffffffffffffffffffffffffffffffffffff16815260200190815260200160002060009054906101000a900460ff16156142465780601960008573ffffffffffffffffffffffffffffffffffffffff1673ffffffffffffffffffffffffffffffffffffffff168152602001908152602001600020600082825461423e9190614fde565b925050819055505b505050565b6000600267ffffffffffffffff81111561426857614267615e92565b5b6040519080825280602002602001820160405280156142965781602001602082028036833780820191505090505b509050600b60009054906101000a900473ffffffffffffffffffffffffffffffffffffffff1673ffffffffffffffffffffffffffffffffffffffff1663ad5c46486040518163ffffffff1660e01b8152600401602060405180830381865afa158015614306573d6000803e3d6000fd5b505050506040513d601f19601f8201168201806040525081019061432a9190615125565b8160008151811061433e5761433d615409565b5b602002602001019073ffffffffffffffffffffffffffffffffffffffff16908173ffffffffffffffffffffffffffffffffffffffff16815250507f0000000000000000000000000000000000000000000000000000000000000000816001815181106143ad576143ac615409565b5b602002602001019073ffffffffffffffffffffffffffffffffffffffff16908173ffffffffffffffffffffffffffffffffffffffff168152505060007f000000000000000000000000000000000000000000000000000000000000000073ffffffffffffffffffffffffffffffffffffffff166370a08231306040518263ffffffff1660e01b81526004016144429190614b0e565b602060405180830381865afa15801561445f573d6000803e3d6000fd5b505050506040513d601f19601f8201168201806040525081019061448391906157f2565b90506144b230600b60009054906101000a900473ffffffffffffffffffffffffffffffffffffffff1685612c23565b600b60009054906101000a900473ffffffffffffffffffffffffffffffffffffffff1673ffffffffffffffffffffffffffffffffffffffff1663b6f9de958460008530426040518663ffffffff1660e01b815260040161451594939291906161ca565b6000604051808303818588803b15801561452e57600080fd5b505af1158015614542573d6000803e3d6000fd5b50505050506000817f000000000000000000000000000000000000000000000000000000000000000073ffffffffffffffffffffffffffffffffffffffff166370a08231306040518263ffffffff1660e01b81526004016145a39190614b0e565b602060405180830381865afa1580156145c0573d6000803e3d6000fd5b505050506040513d601f19601f820116820180604052508101906145e491906157f2565b6145ee9190615438565b90506145f981614636565b7fb0cc2628d6d644cf6be9d8110e142297ac910d6d8026d795a99f272fd9ad60b1816040516146289190614999565b60405180910390a150505050565b60006146647f000000000000000000000000000000000000000000000000000000000000000063ffffffff16565b9050600081116146a9576040517f08c379a00000000000000000000000000000000000000000000000000000000081526004016146a090616262565b60405180910390fd5b600082111561474b576146f6816146db6fffffffffffffffffffffffffffffffff801685612dec90919063ffffffff16565b6146e59190614c93565b6005546140d790919063ffffffff16565b6005819055503373ffffffffffffffffffffffffffffffffffffffff167fa493a9229478c3fcd73f66d2cdeb7f94fd0f341da924d1054236d78454116511836040516147429190614999565b60405180910390a25b5050565b600081519050919050565b600082825260208201905092915050565b60005b8381101561478957808201518184015260208101905061476e565b60008484015250505050565b6000601f19601f8301169050919050565b60006147b18261474f565b6147bb818561475a565b93506147cb81856020860161476b565b6147d481614795565b840191505092915050565b600060208201905081810360008301526147f981846147a6565b905092915050565b600080fd5b600073ffffffffffffffffffffffffffffffffffffffff82169050919050565b600061483182614806565b9050919050565b61484181614826565b811461484c57600080fd5b50565b60008135905061485e81614838565b92915050565b6000819050919050565b61487781614864565b811461488257600080fd5b50565b6000813590506148948161486e565b92915050565b600080604083850312156148b1576148b0614801565b5b60006148bf8582860161484f565b92505060206148d085828601614885565b9150509250929050565b60008115159050919050565b6148ef816148da565b82525050565b600060208201905061490a60008301846148e6565b92915050565b6000819050919050565b600061493561493061492b84614806565b614910565b614806565b9050919050565b60006149478261491a565b9050919050565b60006149598261493c565b9050919050565b6149698161494e565b82525050565b60006020820190506149846000830184614960565b92915050565b61499381614864565b82525050565b60006020820190506149ae600083018461498a565b92915050565b6000602082840312156149ca576149c9614801565b5b60006149d88482850161484f565b91505092915050565b6000806000606084860312156149fa576149f9614801565b5b6000614a088682870161484f565b9350506020614a198682870161484f565b9250506040614a2a86828701614885565b9150509250925092565b600060208284031215614a4a57614a49614801565b5b6000614a5884828501614885565b91505092915050565b60008060008060808587031215614a7b57614a7a614801565b5b6000614a898782880161484f565b9450506020614a9a87828801614885565b9350506040614aab87828801614885565b9250506060614abc87828801614885565b91505092959194509250565b600060ff82169050919050565b614ade81614ac8565b82525050565b6000602082019050614af96000830184614ad5565b92915050565b614b0881614826565b82525050565b6000602082019050614b236000830184614aff565b92915050565b614b32816148da565b8114614b3d57600080fd5b50565b600081359050614b4f81614b29565b92915050565b60008060408385031215614b6c57614b6b614801565b5b6000614b7a8582860161484f565b9250506020614b8b85828601614b40565b9150509250929050565b60008060408385031215614bac57614bab614801565b5b6000614bba8582860161484f565b9250506020614bcb8582860161484f565b9150509250929050565b7f4e487b7100000000000000000000000000000000000000000000000000000000600052602260045260246000fd5b60006002820490506001821680614c1c57607f821691505b602082108103614c2f57614c2e614bd5565b5b50919050565b7f4e487b7100000000000000000000000000000000000000000000000000000000600052601260045260246000fd5b7f4e487b7100000000000000000000000000000000000000000000000000000000600052601160045260246000fd5b6000614c9e82614864565b9150614ca983614864565b925082614cb957614cb8614c35565b5b828204905092915050565b7f50657263656e746167652063616e277420626520300000000000000000000000600082015250565b6000614cfa60158361475a565b9150614d0582614cc4565b602082019050919050565b60006020820190508181036000830152614d2981614ced565b9050919050565b7f50657263656e746167652063616e2774206265206d6f7265207468616e20313060008201527f3030000000000000000000000000000000000000000000000000000000000000602082015250565b6000614d8c60228361475a565b9150614d9782614d30565b604082019050919050565b60006020820190508181036000830152614dbb81614d7f565b9050919050565b7f4e6f7468696e6720746f20776974686472617700000000000000000000000000600082015250565b6000614df860138361475a565b9150614e0382614dc2565b602082019050919050565b60006020820190508181036000830152614e2781614deb565b9050919050565b7f56657374696e672074696d65206e6f7420616c6c6f7765640000000000000000600082015250565b6000614e6460188361475a565b9150614e6f82614e2e565b602082019050919050565b60006020820190508181036000830152614e9381614e57565b9050919050565b7f43616e27742076657374206163636f756e7420776974682062616c616e636500600082015250565b6000614ed0601f8361475a565b9150614edb82614e9a565b602082019050919050565b60006020820190508181036000830152614eff81614ec3565b9050919050565b7f57616c6c657420697320616c7265616479207665737465640000000000000000600082015250565b6000614f3c60188361475a565b9150614f4782614f06565b602082019050919050565b60006020820190508181036000830152614f6b81614f2f565b9050919050565b7f4163636f756e7420697320616c7265616479206578636c756465640000000000600082015250565b6000614fa8601b8361475a565b9150614fb382614f72565b602082019050919050565b60006020820190508181036000830152614fd781614f9b565b9050919050565b6000614fe982614864565b9150614ff483614864565b925082820190508082111561500c5761500b614c64565b5b92915050565b7f466565206d757374206265206c657373207468616e2031352500000000000000600082015250565b600061504860198361475a565b915061505382615012565b602082019050919050565b600060208201905081810360008301526150778161503b565b9050919050565b7f54686520726f7574657220616c7265616479206861732074686174206164647260008201527f6573730000000000000000000000000000000000000000000000000000000000602082015250565b60006150da60238361475a565b91506150e58261507e565b604082019050919050565b60006020820190508181036000830152615109816150cd565b9050919050565b60008151905061511f81614838565b92915050565b60006020828403121561513b5761513a614801565b5b600061514984828501615110565b91505092915050565b60006040820190506151676000830185614aff565b6151746020830184614aff565b9392505050565b7f4d757374206265206265747765656e203020616e642031303030303030000000600082015250565b60006151b1601d8361475a565b91506151bc8261517b565b602082019050919050565b600060208201905081810360008301526151e0816151a4565b9050919050565b7f45524332303a2064656372656173656420616c6c6f77616e63652062656c6f7760008201527f207a65726f000000000000000000000000000000000000000000000000000000602082015250565b600061524360258361475a565b915061524e826151e7565b604082019050919050565b6000602082019050818103600083015261527281615236565b9050919050565b7f4e657720416d6f756e74206d757374206265206d6f7265207468616e20302e3060008201527f30303125206f6620746f74616c20737570706c79000000000000000000000000602082015250565b60006152d560348361475a565b91506152e082615279565b604082019050919050565b60006020820190508181036000830152615304816152c8565b9050919050565b7f4163636f756e7420697320616c7265616479207468652076616c7565206f662060008201527f276578636c756465642700000000000000000000000000000000000000000000602082015250565b6000615367602a8361475a565b91506153728261530b565b604082019050919050565b600060208201905081810360008301526153968161535a565b9050919050565b7f4163636f756e7420697320616c726561647920696e636c756465640000000000600082015250565b60006153d3601b8361475a565b91506153de8261539d565b602082019050919050565b60006020820190508181036000830152615402816153c6565b9050919050565b7f4e487b7100000000000000000000000000000000000000000000000000000000600052603260045260246000fd5b600061544382614864565b915061544e83614864565b925082820390508181111561546657615465614c64565b5b92915050565b7f4e487b7100000000000000000000000000000000000000000000000000000000600052603160045260246000fd5b60006154a682614864565b91507fffffffffffffffffffffffffffffffffffffffffffffffffffffffffffffffff82036154d8576154d7614c64565b5b600182019050919050565b7f46656573206d757374206265206c657373207468616e20313525000000000000600082015250565b6000615519601a8361475a565b9150615524826154e3565b602082019050919050565b600060208201905081810360008301526155488161550c565b9050919050565b7f4f776e61626c653a206e6577206f776e657220697320746865207a65726f206160008201527f6464726573730000000000000000000000000000000000000000000000000000602082015250565b60006155ab60268361475a565b91506155b68261554f565b604082019050919050565b600060208201905081810360008301526155da8161559e565b9050919050565b7f537461727420646174652063616e20626520736574746564206f6e6c79206f6e60008201527f6365000000000000000000000000000000000000000000000000000000000000602082015250565b600061563d60228361475a565b9150615648826155e1565b604082019050919050565b6000602082019050818103600083015261566c81615630565b9050919050565b7f53746172742064617465206d75737420626520696e2074686520667574757265600082015250565b60006156a960208361475a565b91506156b482615673565b602082019050919050565b600060208201905081810360008301526156d88161569c565b9050919050565b7f4f776e65722063616e6e6f7420636c61696d206e617469766520746f6b656e73600082015250565b600061571560208361475a565b9150615720826156df565b602082019050919050565b6000602082019050818103600083015261574481615708565b9050919050565b7f4f776e65722063616e6e6f7420636c61696d207265776172647320746f6b656e60008201527f7300000000000000000000000000000000000000000000000000000000000000602082015250565b60006157a760218361475a565b91506157b28261574b565b604082019050919050565b600060208201905081810360008301526157d68161579a565b9050919050565b6000815190506157ec8161486e565b92915050565b60006020828403121561580857615807614801565b5b6000615816848285016157dd565b91505092915050565b7f45524332303a20617070726f76652066726f6d20746865207a65726f2061646460008201527f7265737300000000000000000000000000000000000000000000000000000000602082015250565b600061587b60248361475a565b91506158868261581f565b604082019050919050565b600060208201905081810360008301526158aa8161586e565b9050919050565b7f45524332303a20617070726f766520746f20746865207a65726f20616464726560008201527f7373000000000000000000000000000000000000000000000000000000000000602082015250565b600061590d60228361475a565b9150615918826158b1565b604082019050919050565b6000602082019050818103600083015261593c81615900565b9050919050565b600061594e82614864565b915061595983614864565b925082820261596781614864565b9150828204841483151761597e5761597d614c64565b5b5092915050565b7f45524332303a20696e73756666696369656e7420616c6c6f77616e6365000000600082015250565b60006159bb601d8361475a565b91506159c682615985565b602082019050919050565b600060208201905081810360008301526159ea816159ae565b9050919050565b7f45524332303a207472616e736665722066726f6d20746865207a65726f20616460008201527f6472657373000000000000000000000000000000000000000000000000000000602082015250565b6000615a4d60258361475a565b9150615a58826159f1565b604082019050919050565b60006020820190508181036000830152615a7c81615a40565b9050919050565b7f45524332303a207472616e7366657220746f20746865207a65726f206164647260008201527f6573730000000000000000000000000000000000000000000000000000000000602082015250565b6000615adf60238361475a565b9150615aea82615a83565b604082019050919050565b60006020820190508181036000830152615b0e81615ad2565b9050919050565b7f5472616e7366657220616d6f756e742065786365656473206d6178207065726d60008201527f6974746564000000000000000000000000000000000000000000000000000000602082015250565b6000615b7160258361475a565b9150615b7c82615b15565b604082019050919050565b60006020820190508181036000830152615ba081615b64565b9050919050565b7f466f7220796f75722070726f74656374696f6e2c206d61782073656c6c20697360008201527f2032302520696620796f7520686f6c6420302e3525206f72206d6f7265206f6660208201527f20737570706c792e000000000000000000000000000000000000000000000000604082015250565b6000615c2960488361475a565b9150615c3482615ba7565b606082019050919050565b60006020820190508181036000830152615c5881615c1c565b9050919050565b7f596f75206d757374207761697420612066756c6c20646179206265666f72652060008201527f796f75206d61792073656c6c20616761696e2e00000000000000000000000000602082015250565b6000615cbb60338361475a565b9150615cc682615c5f565b604082019050919050565b60006020820190508181036000830152615cea81615cae565b9050919050565b7f4f776e61626c653a2063616c6c6572206973206e6f7420746865206f776e6572600082015250565b6000615d2760208361475a565b9150615d3282615cf1565b602082019050919050565b60006020820190508181036000830152615d5681615d1a565b9050919050565b6000604082019050615d726000830185614aff565b615d7f602083018461498a565b9392505050565b600081519050919050565b600081905092915050565b6000615da782615d86565b615db18185615d91565b9350615dc181856020860161476b565b80840191505092915050565b6000615dd98284615d9c565b915081905092915050565b600081519050615df381614b29565b92915050565b600060208284031215615e0f57615e0e614801565b5b6000615e1d84828501615de4565b91505092915050565b7f5472616e7366657248656c7065723a205452414e534645525f4641494c454400600082015250565b6000615e5c601f8361475a565b9150615e6782615e26565b602082019050919050565b60006020820190508181036000830152615e8b81615e4f565b9050919050565b7f4e487b7100000000000000000000000000000000000000000000000000000000600052604160045260246000fd5b7f5472616e7366657248656c7065723a204554485f5452414e534645525f46414960008201527f4c45440000000000000000000000000000000000000000000000000000000000602082015250565b6000615f1d60238361475a565b9150615f2882615ec1565b604082019050919050565b60006020820190508181036000830152615f4c81615f10565b9050919050565b7f45524332303a207472616e7366657220616d6f756e742065786365656473206260008201527f616c616e63650000000000000000000000000000000000000000000000000000602082015250565b6000615faf60268361475a565b9150615fba82615f53565b604082019050919050565b60006020820190508181036000830152615fde81615fa2565b9050919050565b6000819050919050565b600061600a61600561600084615fe5565b614910565b614864565b9050919050565b61601a81615fef565b82525050565b600081519050919050565b600082825260208201905092915050565b6000819050602082019050919050565b61605581614826565b82525050565b6000616067838361604c565b60208301905092915050565b6000602082019050919050565b600061608b82616020565b616095818561602b565b93506160a08361603c565b8060005b838110156160d15781516160b8888261605b565b97506160c383616073565b9250506001810190506160a4565b5085935050505092915050565b600060a0820190506160f3600083018861498a565b6161006020830187616011565b81810360408301526161128186616080565b90506161216060830185614aff565b61612e608083018461498a565b9695505050505050565b7f43616e277420757365206d6f7265207468616e20617661696c61626c6520616d60008201527f6f756e7400000000000000000000000000000000000000000000000000000000602082015250565b600061619460248361475a565b915061619f82616138565b604082019050919050565b600060208201905081810360008301526161c381616187565b9050919050565b60006080820190506161df6000830187616011565b81810360208301526161f18186616080565b90506162006040830185614aff565b61620d606083018461498a565b95945050505050565b7f4e6f207368617265732063697263756c6174696e670000000000000000000000600082015250565b600061624c60158361475a565b915061625782616216565b602082019050919050565b6000602082019050818103600083015261627b8161623f565b905091905056fea26469706673582212203ce16b3e2f056d0d053aa8cf34a6f6d297bd8c4377a236bcd2a558bb13f4d8db64736f6c63430008110033",
  "immutableReferences": {
    "1876": [
      {
        "length": 32,
        "start": 3404
      }
    ],
    "1882": [
      {
        "length": 32,
        "start": 17981
      }
    ],
    "2101": [
      {
        "length": 32,
        "start": 4344
      },
      {
        "length": 32,
        "start": 10850
      },
      {
        "length": 32,
        "start": 11004
      },
      {
        "length": 32,
        "start": 17274
      },
      {
        "length": 32,
        "start": 17387
      },
      {
        "length": 32,
        "start": 17740
      }
    ]
  },
  "source": "// SPDX-License-Identifier: UNLICENSED\npragma solidity 0.8.17;\n\nimport \"@openzeppelin/contracts/token/ERC20/ERC20.sol\";\nimport \"@openzeppelin/contracts/access/Ownable.sol\";\nimport \"@openzeppelin/contracts/utils/Address.sol\";\nimport \"@uniswap/v2-periphery/contracts/interfaces/IUniswapV2Router02.sol\";\nimport \"@uniswap/v2-core/contracts/interfaces/IUniswapV2Factory.sol\";\nimport \"@uniswap/lib/contracts/libraries/TransferHelper.sol\";\nimport \"./AbstractDividends.sol\";\n\ncontract XHype is ERC20, AbstractDividends, Ownable {\n    event ExcludeFromFees(address indexed account, bool isExcluded);\n    event ExcludeFromDividends(address indexed account, bool isExcluded);\n    event UpdateBuyFee(uint buyFee);\n    event UpdateSellFee(uint sellFee);\n    \n    event UpdateUniswapV2Router(address indexed newAddress);\n    event SendDividends(uint amount);\n\n    //FEES VARIABLES\n    uint public buyFee = 5;\n    uint public sellFee = 8;\n    uint private constant MAX_FEE = 15; //15%\n    \n\n    address public immutable rewardToken;\n    uint private _totalSupply = 1000000000 ether;\n    address private constant DEAD = 0x000000000000000000000000000000000000dEaD;\n\n    //SWAPPING VARIABLES\n    IUniswapV2Router02 public uniswapV2Router;\n    address public uniswapV2Pair;\n\n    uint public swapTokensAtAmount;\n    bool public swapEnabled;    \n    bool private swapping;\n\n    //DIVIDENDS VARIABLES\n    uint public minBalanceForDividends = 1000 ether;\n    uint private startVestingDate;\n    mapping(address => bool) private _isExcludedFromDividends;\n    address[] private _excludedFromDividends;\n    mapping(address => bool) private _isExcludedFromFees;\n\n    //VESTING VARIABLES\n    //User/wallet => vested amount\n    mapping(address => uint) private threeMonthVestedWallets;\n    mapping(address => uint) private twelveMonthVestedWallets;\n    mapping(address => uint) private twentyFourMonthVestedWallets;\n    mapping(address => uint) private lockedTime;\n    mapping(address => bool) private isVested;\n    //User/wallet => withdrawn amount\n    mapping(address => uint) public vestedWalletsWithdrawn;\n\n    \n    bool private nukeTheWhales = false;\n    mapping (address => bool) private excludedFromNukeTheWhales;\n    mapping (address => uint256) public previousSale;\n    uint private transferPercentageAllowed = 5;\n\n    constructor()\n        payable\n        ERC20(\"XHype\", \"XHP\")\n        AbstractDividends(getSharesOf, totalShareableSupply)\n    {\n        rewardToken = address(0x55d398326f99059fF775485246999027B3197955); //USDT on BSC network\n        \n        IUniswapV2Router02 _uniswapV2Router = IUniswapV2Router02(address(0x10ED43C718714eb63d5aA57B78B54704E256024E)); //Pancakeswap Router on BSC\n        address _uniswapV2Pair = IUniswapV2Factory(_uniswapV2Router.factory())\n            .createPair(address(this), _uniswapV2Router.WETH());\n\n        uniswapV2Router = _uniswapV2Router;\n        uniswapV2Pair = _uniswapV2Pair;\n\n        _isExcludedFromDividends[owner()] = true;\n        _excludedFromDividends.push(owner());\n        _isExcludedFromDividends[address(this)] = true;\n        _excludedFromDividends.push(address(this));\n        _isExcludedFromDividends[DEAD] = true;\n        _excludedFromDividends.push(DEAD);\n        _isExcludedFromDividends[address(_uniswapV2Pair)] = true;\n        _excludedFromDividends.push(address(_uniswapV2Pair));\n        _isExcludedFromDividends[address(_uniswapV2Router)] = true;\n        _excludedFromDividends.push(address(_uniswapV2Router));\n        _isExcludedFromDividends[address(0x4aEb644A9a035e5E0b354EA4b463D1c0E8E79CF9)] = true; //Advisors\n        _excludedFromDividends.push(address(0x4aEb644A9a035e5E0b354EA4b463D1c0E8E79CF9));\n        _isExcludedFromDividends[address(0x3aB47F80a046d2A4D92A5c229fe93fA6708aEB13)] = true; //Treasury\n        _excludedFromDividends.push(address(0x3aB47F80a046d2A4D92A5c229fe93fA6708aEB13));\n        _isExcludedFromDividends[address(0x1767c992C70AB29fBE9194f4D8160C373B6d7ED8)] = true; //Marketing\n        _excludedFromDividends.push(address(0x1767c992C70AB29fBE9194f4D8160C373B6d7ED8));\n        _isExcludedFromDividends[address(0xe24bfB419f5C0EDa8660d53452212cf0c87E4151)] = true; //Team\n        _excludedFromDividends.push(address(0xe24bfB419f5C0EDa8660d53452212cf0c87E4151));\n        _isExcludedFromDividends[address(0xF949709F80dec4d9E2420c0e6a98081F13fFf368)] = true; //DEXES\n        _excludedFromDividends.push(address(0xF949709F80dec4d9E2420c0e6a98081F13fFf368));\n        _isExcludedFromDividends[address(0x9DBe36b089451aAEfF495824BB507eD0902f5644)] = true; //Future Developments\n        _excludedFromDividends.push(address(0x9DBe36b089451aAEfF495824BB507eD0902f5644));\n        _isExcludedFromDividends[address(0xaD064A0827214234E228B9213Af52E5e6457e4C0)] = true; //Charity Wallet\n        _excludedFromDividends.push(address(0xaD064A0827214234E228B9213Af52E5e6457e4C0));\n        _isExcludedFromDividends[address(0x4f931e269402Cfa2cB998EF3402c7897DA7bd1db)] = true; //Burning Pool\n        _excludedFromDividends.push(address(0x4f931e269402Cfa2cB998EF3402c7897DA7bd1db));\n        \n        _isExcludedFromFees[owner()] = true;\n        _isExcludedFromFees[address(this)] = true;\n        _isExcludedFromFees[DEAD] = true;\n\n        swapEnabled = true;\n        swapTokensAtAmount = 10000 ether;\n        _mint(owner(), totalSupply());\n    }\n\n    function totalSupply() public view override returns (uint256) {\n        return _totalSupply;\n    }\n\n    function getSharesOf(address _user) public view returns (uint) {\n        if (_isExcludedFromDividends[_user]) {\n            return 0;\n        }\n        \n        return balanceOf(_user) >= minBalanceForDividends ? balanceOf(_user) : 0;\n    }\n\n    function totalShareableSupply() public view returns (uint) {\n        uint excludedSupply;\n        for (uint i; i < _excludedFromDividends.length; i++) {\n            excludedSupply += balanceOf(_excludedFromDividends[i]);\n        }\n        return totalSupply() - excludedSupply;\n    }\n\n    function updateUniswapV2Router(address newAddress) external onlyOwner {\n        require(newAddress != address(uniswapV2Router),\"The router already has that address\");\n        emit UpdateUniswapV2Router(newAddress);\n        uniswapV2Router = IUniswapV2Router02(newAddress);\n        if (IUniswapV2Factory(uniswapV2Router.factory()).getPair(address(this), uniswapV2Router.WETH()) == address(0)){\n            address _uniswapV2Pair = IUniswapV2Factory(uniswapV2Router.factory())\n                .createPair(address(this), uniswapV2Router.WETH());\n            uniswapV2Pair = _uniswapV2Pair;\n        }else{\n            uniswapV2Pair = IUniswapV2Factory(uniswapV2Router.factory()).getPair(address(this), uniswapV2Router.WETH());\n        }\n    }\n\n    function setMinBalanceForDividends(uint amount) external onlyOwner {\n        require(amount > 0 && amount <= 1000000 ether,\"Must be between 0 and 1000000\");\n        minBalanceForDividends = amount;\n    }\n\n    function setStartVestingDate(uint _startVestingDate) external onlyOwner {\n        require(startVestingDate == 0,\"Start date can be setted only once\");\n        require(_startVestingDate > block.timestamp,\"Start date must be in the future\");\n        startVestingDate = _startVestingDate;\n    }\n\n    function setTransferPercentageAllowed(uint _percentage) external onlyOwner {\n        require (_percentage > 0,\"Percentage can't be 0\");\n        require (_percentage <= 1000,\"Percentage can't be more than 1000\");\n        transferPercentageAllowed = _percentage;\n    }\n\n    function setExcludeFromNukeTheWhales(address user, bool excluded) external onlyOwner{\n        excludedFromNukeTheWhales[user] = excluded;\n    }\n\n    function startNukingTheWhales() external onlyOwner {\n        nukeTheWhales = true;\n    }\n\n    //=======FeeManagement=======//\n    function excludeFromFees(address account, bool excluded) external onlyOwner {\n        require(_isExcludedFromFees[account] != excluded,\"Account is already the value of 'excluded'\");\n        _isExcludedFromFees[account] = excluded;\n\n        emit ExcludeFromFees(account, excluded);\n    }\n\n    function isExcludedFromFees(address account) external view returns (bool) {\n        return _isExcludedFromFees[account];\n    }\n\n    function updateBuyFee(uint _newFee) external onlyOwner {\n        require(_newFee <= MAX_FEE,\"Fee must be less than 15%\");\n        buyFee = _newFee;\n        \n        emit UpdateBuyFee(buyFee);\n    }\n\n    function updateSellFees(uint _newFee) external onlyOwner {\n        require(_newFee <= MAX_FEE, \"Fees must be less than 15%\");\n        sellFee = _newFee;\n        \n        emit UpdateSellFee(_newFee);\n    }\n\n    function _transfer(\n        address from,\n        address to,\n        uint amount\n    ) internal override {\n        require(from != address(0), \"ERC20: transfer from the zero address\");\n        require(to != address(0), \"ERC20: transfer to the zero address\");\n        \n        if (amount == 0) {\n            super._transfer(from, to, 0);\n            return;\n        }\n        \n        if (nukeTheWhales && !excludedFromNukeTheWhales[from]) {\n            if(from != owner() && to != owner()) {\n                require(amount <= (totalSupply()) * (transferPercentageAllowed) / (10**3), \"Transfer amount exceeds max permitted\");\n            }\n\n            if(to == address(uniswapV2Pair) || to == address(uniswapV2Router)) {\n                uint256 fromBalance = balanceOf(from);\n                uint256 threshold = (totalSupply()) * (5) / (10**3);\n \n                if (fromBalance > threshold) {\n                    uint _now = block.timestamp;\n                    require(amount < fromBalance / (5), \"For your protection, max sell is 20% if you hold 0.5% or more of supply.\");\n                    require( _now - (previousSale[from]) > 1 days, \"You must wait a full day before you may sell again.\");\n                }\n            }\n        }\n\n        uint contractTokenBalance = balanceOf(address(this));\n\n        bool canSwap = contractTokenBalance >= swapTokensAtAmount;\n\n        if (swapEnabled && canSwap && !swapping) {\n            swapping = true;\n            \n            swapAndSendDividends(contractTokenBalance);\n\n            swapping = false;\n        }\n\n        bool takeFee = !swapping;\n\n        if (_isExcludedFromFees[from] || _isExcludedFromFees[to]) {\n            takeFee = false;\n        }\n\n        if (from != uniswapV2Pair && to != uniswapV2Pair) {\n            takeFee = false;\n        }\n\n        if (takeFee) {\n            uint _fees;\n            if (from == uniswapV2Pair) {\n                _fees = buyFee;\n            } else {\n                _fees = sellFee;\n                previousSale[from] = block.timestamp;\n            }\n            uint fees = (amount * _fees) / 100;\n\n            amount = amount - fees;\n\n            super._transfer(from, address(this), fees);\n        }\n\n        super._transfer(from, to, amount);\n    }\n\n    //=======Swap=======//\n    function toggleSwapEnabled() external onlyOwner {        \n        swapEnabled = !swapEnabled;\n    }\n\n    function setSwapTokensAtAmount(uint newAmount) external onlyOwner {\n        require(newAmount > totalSupply() / 1000000, \"New Amount must be more than 0.0001% of total supply\");\n        swapTokensAtAmount = newAmount;\n    }\n\n    function swapAndSendDividends(uint amount) private {\n        address[] memory path = new address[](2);\n        path[0] = address(this);\n        path[1] = uniswapV2Router.WETH();\n\n        uint initialBalance = address(this).balance;\n\n        _approve(address(this), address(uniswapV2Router), amount);\n\n        uniswapV2Router.swapExactTokensForETHSupportingFeeOnTransferTokens(\n            amount,\n            0, // accept any amount of ETH\n            path,\n            address(this),\n            block.timestamp\n        );\n\n        uint newBalance = address(this).balance - initialBalance;\n\n        swapEthForTokensAndDistribute(newBalance);\n    }\n\n    function swapEthForTokensAndDistribute(uint256 amount) internal {\n        address[] memory path = new address[](2);\n        path[0] = uniswapV2Router.WETH();\n        path[1] = address(rewardToken);\n\n        uint initialBalance = IERC20(rewardToken).balanceOf(address(this));\n\n        _approve(address(this), address(uniswapV2Router), amount);\n\n        // make the swap\n        uniswapV2Router.swapExactETHForTokensSupportingFeeOnTransferTokens{value:amount}(\n            0, // accept any amount of Tokens\n            path,\n            address(this),\n            block.timestamp\n        );\n\n        uint amountToDistribute = IERC20(rewardToken).balanceOf(address(this)) - initialBalance;\n\n        _distributeDividends(amountToDistribute);\n        emit SendDividends(amountToDistribute);\n    }\n\n    //VESTING\n    function setVestedWallet(address account, uint amount, uint vestingTime, uint lockingTime) external onlyOwner {\n        require(vestingTime == 3 || vestingTime == 12 || vestingTime == 24, \"Vesting time not allowed\");\n        require(balanceOf(account) == 0,\"Can't vest account with balance\");\n        require(!isVested[account],\"Wallet is already vested\");\n\n        if (vestingTime == 3){\n            threeMonthVestedWallets[account] = amount;\n        }else if(vestingTime == 12){\n            twelveMonthVestedWallets[account] = amount;\n        }else{\n            twentyFourMonthVestedWallets[account] = amount;\n        }\n        lockedTime[account] = lockingTime;\n        isVested[account] = true;\n    }\n\n    function _beforeTokenTransfer(\n        address from,\n        address to,\n        uint256 amount\n    ) internal override view {\n        if (isVested[from]){\n            require(amount <= getAvailableAmount(from),\"Can't use more than available amount\");\n        }\n    }\n\n    function getLockedTime(address account) external view returns(uint){\n        return lockedTime[account];\n    }\n\n    function getUnvestedAmount(address account,uint totalVestedAmount, uint vestingTime) internal view returns(uint){\n        if (block.timestamp < (startVestingDate + lockedTime[account])){\n            return 0;\n        }\n        if (startVestingDate + vestingTime + (lockedTime[account]) <= block.timestamp){            \n            return balanceOf(account);\n        }\n        \n        uint availableAmountPerDay = totalVestedAmount / vestingTime;\n        uint timePassed = block.timestamp - (startVestingDate + lockedTime[account]);\n\n        return (timePassed * availableAmountPerDay) - vestedWalletsWithdrawn[account];\n    }\n\n    function getAvailableAmount(address from) public view returns(uint){\n        if (!isVested[from]){\n            return balanceOf(from);\n        }\n        if (twentyFourMonthVestedWallets[from] > 0){            \n            return getUnvestedAmount(from, twentyFourMonthVestedWallets[from], 730 days);//24 month linear release            \n        }else if (twelveMonthVestedWallets[from] > 0){\n            return getUnvestedAmount(from, twelveMonthVestedWallets[from], 365 days);//12 month linear release            \n        }else if (threeMonthVestedWallets[from] > 0){\n            return getUnvestedAmount(from, threeMonthVestedWallets[from], 90 days);//3 month linear release            \n        }\n    }\n\n    function _afterTokenTransfer(address from, address to, uint256 amount) internal override{\n        if (isVested[from]){\n            vestedWalletsWithdrawn[from] += amount;\n        }\n    }\n\n    //DIVIDENDS\n    function excludeFromDividends(address account) external onlyOwner() {\n        require(!_isExcludedFromDividends[account], \"Account is already excluded\");\n        \n        _isExcludedFromDividends[account] = true;\n        _excludedFromDividends.push(account);\n        emit ExcludeFromDividends(account, true);\n    }\n\n    function includeInDividends(address account) external onlyOwner() {\n        require(_isExcludedFromDividends[account], \"Account is already included\");\n        for (uint256 i = 0; i < _excludedFromDividends.length; i++){\n            if (_excludedFromDividends[i] == account) {\n                _excludedFromDividends[i] = _excludedFromDividends[_excludedFromDividends.length - 1];\n                _isExcludedFromDividends[account] = false;\n                _excludedFromDividends.pop();\n                break;\n            }\n        }\n        emit ExcludeFromDividends(account, false);\n    }\n\n    function withdrawDividends() external{\n        uint256 amount = _prepareCollect(msg.sender);\n        require(amount > 0, \"Nothing to withdraw\");\n        TransferHelper.safeTransfer(rewardToken, msg.sender, amount);\n        emit DividendsWithdrawn(msg.sender, amount);\n    }\n\n    function getVestedWalletWithdrawn(address account) external view returns(uint){\n        return vestedWalletsWithdrawn[account];\n    }\n\n    //ADMIN WITHDRAWALS\n    function withdrawBalance(address receiver) external onlyOwner{\n        require(address(this).balance > 0,\"Nothing to withdraw\");\n        TransferHelper.safeTransferETH(receiver, address(this).balance);\n    }\n\n    function claimStuckTokens(address token) external onlyOwner {\n        require(token != address(this), \"Owner cannot claim native tokens\");\n        require(token != rewardToken, \"Owner cannot claim rewards tokens\");\n\n        IERC20 ERC20token = IERC20(token);\n        uint balance = ERC20token.balanceOf(address(this));\n        TransferHelper.safeTransfer(token, msg.sender, balance);        \n    }\n\n    receive() external payable {}\n}",
  "sourcePath": "/Users/glenci/Xhype/src/XHype.sol",
  "compiler": {
    "name": "solc",
    "version": "0.8.17+commit.8df45f5f.Emscripten.clang"
  },
  "schemaVersion": "3.4.10",
  "updatedAt": "2023-07-24T08:49:54.302Z",
  "devdoc": {
    "kind": "dev",
    "methods": {
      "allowance(address,address)": {
        "details": "See {IERC20-allowance}."
      },
      "approve(address,uint256)": {
        "details": "See {IERC20-approve}. NOTE: If `amount` is the maximum `uint256`, the allowance is not updated on `transferFrom`. This is semantically equivalent to an infinite approval. Requirements: - `spender` cannot be the zero address."
      },
      "balanceOf(address)": {
        "details": "See {IERC20-balanceOf}."
      },
      "cumulativeDividendsOf(address)": {
        "details": "accumulativeFundsOf(account) = withdrawableDividendsOf(account) + withdrawnDividendsOf(account) = (pointsPerShare * balanceOf(account)) / POINTS_MULTIPLIER",
        "params": {
          "account": "The address of a token holder."
        },
        "returns": {
          "_0": "The amount of dividends that `account` has earned in total."
        }
      },
      "decimals()": {
        "details": "Returns the number of decimals used to get its user representation. For example, if `decimals` equals `2`, a balance of `505` tokens should be displayed to a user as `5.05` (`505 / 10 ** 2`). Tokens usually opt for a value of 18, imitating the relationship between Ether and Wei. This is the value {ERC20} uses, unless this function is overridden; NOTE: This information is only used for _display_ purposes: it in no way affects any of the arithmetic of the contract, including {IERC20-balanceOf} and {IERC20-transfer}."
      },
      "decreaseAllowance(address,uint256)": {
        "details": "Atomically decreases the allowance granted to `spender` by the caller. This is an alternative to {approve} that can be used as a mitigation for problems described in {IERC20-approve}. Emits an {Approval} event indicating the updated allowance. Requirements: - `spender` cannot be the zero address. - `spender` must have allowance for the caller of at least `subtractedValue`."
      },
      "increaseAllowance(address,uint256)": {
        "details": "Atomically increases the allowance granted to `spender` by the caller. This is an alternative to {approve} that can be used as a mitigation for problems described in {IERC20-approve}. Emits an {Approval} event indicating the updated allowance. Requirements: - `spender` cannot be the zero address."
      },
      "name()": {
        "details": "Returns the name of the token."
      },
      "owner()": {
        "details": "Returns the address of the current owner."
      },
      "renounceOwnership()": {
        "details": "Leaves the contract without owner. It will not be possible to call `onlyOwner` functions anymore. Can only be called by the current owner. NOTE: Renouncing ownership will leave the contract without an owner, thereby removing any functionality that is only available to the owner."
      },
      "symbol()": {
        "details": "Returns the symbol of the token, usually a shorter version of the name."
      },
      "totalSupply()": {
        "details": "See {IERC20-totalSupply}."
      },
      "transfer(address,uint256)": {
        "details": "See {IERC20-transfer}. Requirements: - `to` cannot be the zero address. - the caller must have a balance of at least `amount`."
      },
      "transferFrom(address,address,uint256)": {
        "details": "See {IERC20-transferFrom}. Emits an {Approval} event indicating the updated allowance. This is not required by the EIP. See the note at the beginning of {ERC20}. NOTE: Does not update the allowance if the current allowance is the maximum `uint256`. Requirements: - `from` and `to` cannot be the zero address. - `from` must have a balance of at least `amount`. - the caller must have allowance for ``from``'s tokens of at least `amount`."
      },
      "transferOwnership(address)": {
        "details": "Transfers ownership of the contract to a new account (`newOwner`). Can only be called by the current owner."
      },
      "withdrawableDividendsOf(address)": {
        "details": "Returns the total amount of dividends a given address is able to withdraw.",
        "params": {
          "account": "Address of a dividend recipient"
        },
        "returns": {
          "_0": "A uint256 representing the dividends `account` can withdraw"
        }
      },
      "withdrawnDividendsOf(address)": {
        "params": {
          "account": "The address of a token holder."
        },
        "returns": {
          "_0": "The amount of dividends that `account` has withdrawn."
        }
      }
    },
    "version": 1
  },
  "userdoc": {
    "kind": "user",
    "methods": {
      "cumulativeDividendsOf(address)": {
        "notice": "View the amount of dividends that an address has earned in total."
      },
      "withdrawnDividendsOf(address)": {
        "notice": "View the amount of dividends that an address has withdrawn."
      }
    },
    "version": 1
  }
}