{
  "contractName": "XhypeV2",
  "abi": [
    {
      "inputs": [
        {
          "internalType": "address",
          "name": "_rewardToken",
          "type": "address"
        },
        {
          "internalType": "address",
          "name": "router",
          "type": "address"
        }
      ],
      "stateMutability": "payable",
      "type": "constructor"
    },
    {
      "anonymous": false,
      "inputs": [
        {
          "indexed": true,
          "internalType": "address",
          "name": "owner",
          "type": "address"
        },
        {
          "indexed": true,
          "internalType": "address",
          "name": "spender",
          "type": "address"
        },
        {
          "indexed": false,
          "internalType": "uint256",
          "name": "value",
          "type": "uint256"
        }
      ],
      "name": "Approval",
      "type": "event"
    },
    {
      "anonymous": false,
      "inputs": [
        {
          "indexed": false,
          "internalType": "address",
          "name": "buybackWallet",
          "type": "address"
        }
      ],
      "name": "BuybackWalletChanged",
      "type": "event"
    },
    {
      "anonymous": false,
      "inputs": [
        {
          "indexed": true,
          "internalType": "address",
          "name": "by",
          "type": "address"
        },
        {
          "indexed": false,
          "internalType": "uint256",
          "name": "dividendsDistributed",
          "type": "uint256"
        }
      ],
      "name": "DividendsDistributed",
      "type": "event"
    },
    {
      "anonymous": false,
      "inputs": [
        {
          "indexed": true,
          "internalType": "address",
          "name": "by",
          "type": "address"
        },
        {
          "indexed": false,
          "internalType": "uint256",
          "name": "fundsWithdrawn",
          "type": "uint256"
        }
      ],
      "name": "DividendsWithdrawn",
      "type": "event"
    },
    {
      "anonymous": false,
      "inputs": [
        {
          "indexed": true,
          "internalType": "address",
          "name": "account",
          "type": "address"
        },
        {
          "indexed": false,
          "internalType": "bool",
          "name": "isExcluded",
          "type": "bool"
        }
      ],
      "name": "ExcludeFromFees",
      "type": "event"
    },
    {
      "anonymous": false,
      "inputs": [
        {
          "indexed": true,
          "internalType": "address",
          "name": "account",
          "type": "address"
        },
        {
          "indexed": false,
          "internalType": "bool",
          "name": "isExcluded",
          "type": "bool"
        }
      ],
      "name": "ExcludedFromMaxTransactionLimit",
      "type": "event"
    },
    {
      "anonymous": false,
      "inputs": [
        {
          "indexed": true,
          "internalType": "address",
          "name": "account",
          "type": "address"
        },
        {
          "indexed": false,
          "internalType": "bool",
          "name": "isExcluded",
          "type": "bool"
        }
      ],
      "name": "ExcludedFromMaxWalletLimit",
      "type": "event"
    },
    {
      "anonymous": false,
      "inputs": [
        {
          "indexed": false,
          "internalType": "address",
          "name": "marketingWallet",
          "type": "address"
        }
      ],
      "name": "MarketingWalletChanged",
      "type": "event"
    },
    {
      "anonymous": false,
      "inputs": [
        {
          "indexed": false,
          "internalType": "uint256",
          "name": "maxTransferRateBuy",
          "type": "uint256"
        },
        {
          "indexed": false,
          "internalType": "uint256",
          "name": "maxTransferRateSell",
          "type": "uint256"
        }
      ],
      "name": "MaxTransactionLimitRatesChanged",
      "type": "event"
    },
    {
      "anonymous": false,
      "inputs": [
        {
          "indexed": false,
          "internalType": "bool",
          "name": "maxTransactionLimit",
          "type": "bool"
        }
      ],
      "name": "MaxTransactionLimitStateChanged",
      "type": "event"
    },
    {
      "anonymous": false,
      "inputs": [
        {
          "indexed": false,
          "internalType": "uint256",
          "name": "maxWalletLimitRate",
          "type": "uint256"
        }
      ],
      "name": "MaxWalletLimitRateChanged",
      "type": "event"
    },
    {
      "anonymous": false,
      "inputs": [
        {
          "indexed": false,
          "internalType": "bool",
          "name": "maxWalletLimit",
          "type": "bool"
        }
      ],
      "name": "MaxWalletLimitStateChanged",
      "type": "event"
    },
    {
      "anonymous": false,
      "inputs": [
        {
          "indexed": true,
          "internalType": "address",
          "name": "previousOwner",
          "type": "address"
        },
        {
          "indexed": true,
          "internalType": "address",
          "name": "newOwner",
          "type": "address"
        }
      ],
      "name": "OwnershipTransferred",
      "type": "event"
    },
    {
      "anonymous": false,
      "inputs": [
        {
          "indexed": false,
          "internalType": "address",
          "name": "salaryWallet",
          "type": "address"
        }
      ],
      "name": "SalaryWalletChanged",
      "type": "event"
    },
    {
      "anonymous": false,
      "inputs": [
        {
          "indexed": false,
          "internalType": "uint256",
          "name": "bnbSend",
          "type": "uint256"
        }
      ],
      "name": "SendBuyback",
      "type": "event"
    },
    {
      "anonymous": false,
      "inputs": [
        {
          "indexed": false,
          "internalType": "uint256",
          "name": "amount",
          "type": "uint256"
        }
      ],
      "name": "SendDividends",
      "type": "event"
    },
    {
      "anonymous": false,
      "inputs": [
        {
          "indexed": false,
          "internalType": "uint256",
          "name": "bnbSend",
          "type": "uint256"
        }
      ],
      "name": "SendMarketing",
      "type": "event"
    },
    {
      "anonymous": false,
      "inputs": [
        {
          "indexed": false,
          "internalType": "uint256",
          "name": "bnbSend",
          "type": "uint256"
        }
      ],
      "name": "SendSalary",
      "type": "event"
    },
    {
      "anonymous": false,
      "inputs": [
        {
          "indexed": false,
          "internalType": "uint256",
          "name": "tokenSend",
          "type": "uint256"
        }
      ],
      "name": "SendStaking",
      "type": "event"
    },
    {
      "anonymous": false,
      "inputs": [
        {
          "indexed": true,
          "internalType": "address",
          "name": "pair",
          "type": "address"
        },
        {
          "indexed": true,
          "internalType": "bool",
          "name": "value",
          "type": "bool"
        }
      ],
      "name": "SetAutomatedMarketMakerPair",
      "type": "event"
    },
    {
      "anonymous": false,
      "inputs": [
        {
          "indexed": false,
          "internalType": "address",
          "name": "stakingWallet",
          "type": "address"
        }
      ],
      "name": "StakingWalletChanged",
      "type": "event"
    },
    {
      "anonymous": false,
      "inputs": [
        {
          "indexed": false,
          "internalType": "uint256",
          "name": "tokensSwapped",
          "type": "uint256"
        },
        {
          "indexed": false,
          "internalType": "uint256",
          "name": "bnbReceived",
          "type": "uint256"
        },
        {
          "indexed": false,
          "internalType": "uint256",
          "name": "tokensIntoLiqudity",
          "type": "uint256"
        }
      ],
      "name": "SwapAndLiquify",
      "type": "event"
    },
    {
      "anonymous": false,
      "inputs": [
        {
          "indexed": true,
          "internalType": "address",
          "name": "from",
          "type": "address"
        },
        {
          "indexed": true,
          "internalType": "address",
          "name": "to",
          "type": "address"
        },
        {
          "indexed": false,
          "internalType": "uint256",
          "name": "value",
          "type": "uint256"
        }
      ],
      "name": "Transfer",
      "type": "event"
    },
    {
      "anonymous": false,
      "inputs": [
        {
          "indexed": false,
          "internalType": "uint256",
          "name": "liquidityFeeOnBuy",
          "type": "uint256"
        },
        {
          "indexed": false,
          "internalType": "uint256",
          "name": "rewardFeeOnBuy",
          "type": "uint256"
        }
      ],
      "name": "UpdateBuyFees",
      "type": "event"
    },
    {
      "anonymous": false,
      "inputs": [
        {
          "indexed": false,
          "internalType": "uint256",
          "name": "liquidityFeeOnSell",
          "type": "uint256"
        },
        {
          "indexed": false,
          "internalType": "uint256",
          "name": "rewardFeeOnSell",
          "type": "uint256"
        }
      ],
      "name": "UpdateSellFees",
      "type": "event"
    },
    {
      "anonymous": false,
      "inputs": [
        {
          "indexed": true,
          "internalType": "address",
          "name": "newAddress",
          "type": "address"
        },
        {
          "indexed": true,
          "internalType": "address",
          "name": "oldAddress",
          "type": "address"
        }
      ],
      "name": "UpdateUniswapV2Router",
      "type": "event"
    },
    {
      "inputs": [
        {
          "internalType": "address",
          "name": "owner",
          "type": "address"
        },
        {
          "internalType": "address",
          "name": "spender",
          "type": "address"
        }
      ],
      "name": "allowance",
      "outputs": [
        {
          "internalType": "uint256",
          "name": "",
          "type": "uint256"
        }
      ],
      "stateMutability": "view",
      "type": "function"
    },
    {
      "inputs": [
        {
          "internalType": "address",
          "name": "spender",
          "type": "address"
        },
        {
          "internalType": "uint256",
          "name": "amount",
          "type": "uint256"
        }
      ],
      "name": "approve",
      "outputs": [
        {
          "internalType": "bool",
          "name": "",
          "type": "bool"
        }
      ],
      "stateMutability": "nonpayable",
      "type": "function"
    },
    {
      "inputs": [
        {
          "internalType": "address",
          "name": "",
          "type": "address"
        }
      ],
      "name": "automatedMarketMakerPairs",
      "outputs": [
        {
          "internalType": "bool",
          "name": "",
          "type": "bool"
        }
      ],
      "stateMutability": "view",
      "type": "function"
    },
    {
      "inputs": [
        {
          "internalType": "address",
          "name": "account",
          "type": "address"
        }
      ],
      "name": "balanceOf",
      "outputs": [
        {
          "internalType": "uint256",
          "name": "",
          "type": "uint256"
        }
      ],
      "stateMutability": "view",
      "type": "function"
    },
    {
      "inputs": [],
      "name": "buyFees",
      "outputs": [
        {
          "internalType": "uint256",
          "name": "liquidity",
          "type": "uint256"
        },
        {
          "internalType": "uint256",
          "name": "reward",
          "type": "uint256"
        },
        {
          "internalType": "uint256",
          "name": "total",
          "type": "uint256"
        }
      ],
      "stateMutability": "view",
      "type": "function"
    },
    {
      "inputs": [],
      "name": "config",
      "outputs": [
        {
          "internalType": "address",
          "name": "treasuryWallet",
          "type": "address"
        },
        {
          "internalType": "uint256",
          "name": "totalSupply",
          "type": "uint256"
        }
      ],
      "stateMutability": "view",
      "type": "function"
    },
    {
      "inputs": [
        {
          "internalType": "address",
          "name": "account",
          "type": "address"
        }
      ],
      "name": "cumulativeDividendsOf",
      "outputs": [
        {
          "internalType": "uint256",
          "name": "",
          "type": "uint256"
        }
      ],
      "stateMutability": "view",
      "type": "function"
    },
    {
      "inputs": [],
      "name": "decimals",
      "outputs": [
        {
          "internalType": "uint8",
          "name": "",
          "type": "uint8"
        }
      ],
      "stateMutability": "view",
      "type": "function"
    },
    {
      "inputs": [
        {
          "internalType": "address",
          "name": "spender",
          "type": "address"
        },
        {
          "internalType": "uint256",
          "name": "subtractedValue",
          "type": "uint256"
        }
      ],
      "name": "decreaseAllowance",
      "outputs": [
        {
          "internalType": "bool",
          "name": "",
          "type": "bool"
        }
      ],
      "stateMutability": "nonpayable",
      "type": "function"
    },
    {
      "inputs": [
        {
          "internalType": "address",
          "name": "spender",
          "type": "address"
        },
        {
          "internalType": "uint256",
          "name": "addedValue",
          "type": "uint256"
        }
      ],
      "name": "increaseAllowance",
      "outputs": [
        {
          "internalType": "bool",
          "name": "",
          "type": "bool"
        }
      ],
      "stateMutability": "nonpayable",
      "type": "function"
    },
    {
      "inputs": [],
      "name": "maxTransactionAmountBuy",
      "outputs": [
        {
          "internalType": "uint256",
          "name": "",
          "type": "uint256"
        }
      ],
      "stateMutability": "view",
      "type": "function"
    },
    {
      "inputs": [],
      "name": "maxTransactionAmountSell",
      "outputs": [
        {
          "internalType": "uint256",
          "name": "",
          "type": "uint256"
        }
      ],
      "stateMutability": "view",
      "type": "function"
    },
    {
      "inputs": [],
      "name": "maxTransactionAvailable",
      "outputs": [
        {
          "internalType": "bool",
          "name": "",
          "type": "bool"
        }
      ],
      "stateMutability": "view",
      "type": "function"
    },
    {
      "inputs": [],
      "name": "maxTransactionLimitEnabled",
      "outputs": [
        {
          "internalType": "bool",
          "name": "",
          "type": "bool"
        }
      ],
      "stateMutability": "view",
      "type": "function"
    },
    {
      "inputs": [],
      "name": "maxWalletAmount",
      "outputs": [
        {
          "internalType": "uint256",
          "name": "",
          "type": "uint256"
        }
      ],
      "stateMutability": "view",
      "type": "function"
    },
    {
      "inputs": [],
      "name": "maxWalletAvailable",
      "outputs": [
        {
          "internalType": "bool",
          "name": "",
          "type": "bool"
        }
      ],
      "stateMutability": "view",
      "type": "function"
    },
    {
      "inputs": [],
      "name": "maxWalletLimitEnabled",
      "outputs": [
        {
          "internalType": "bool",
          "name": "",
          "type": "bool"
        }
      ],
      "stateMutability": "view",
      "type": "function"
    },
    {
      "inputs": [],
      "name": "name",
      "outputs": [
        {
          "internalType": "string",
          "name": "",
          "type": "string"
        }
      ],
      "stateMutability": "view",
      "type": "function"
    },
    {
      "inputs": [],
      "name": "owner",
      "outputs": [
        {
          "internalType": "address",
          "name": "",
          "type": "address"
        }
      ],
      "stateMutability": "view",
      "type": "function"
    },
    {
      "inputs": [],
      "name": "pointsPerShare",
      "outputs": [
        {
          "internalType": "uint256",
          "name": "",
          "type": "uint256"
        }
      ],
      "stateMutability": "view",
      "type": "function"
    },
    {
      "inputs": [],
      "name": "renounceOwnership",
      "outputs": [],
      "stateMutability": "nonpayable",
      "type": "function"
    },
    {
      "inputs": [],
      "name": "rewardToken",
      "outputs": [
        {
          "internalType": "address",
          "name": "",
          "type": "address"
        }
      ],
      "stateMutability": "view",
      "type": "function"
    },
    {
      "inputs": [],
      "name": "sellFees",
      "outputs": [
        {
          "internalType": "uint256",
          "name": "liquidity",
          "type": "uint256"
        },
        {
          "internalType": "uint256",
          "name": "reward",
          "type": "uint256"
        },
        {
          "internalType": "uint256",
          "name": "total",
          "type": "uint256"
        }
      ],
      "stateMutability": "view",
      "type": "function"
    },
    {
      "inputs": [],
      "name": "swapEnabled",
      "outputs": [
        {
          "internalType": "bool",
          "name": "",
          "type": "bool"
        }
      ],
      "stateMutability": "view",
      "type": "function"
    },
    {
      "inputs": [],
      "name": "swapTokensAtAmount",
      "outputs": [
        {
          "internalType": "uint256",
          "name": "",
          "type": "uint256"
        }
      ],
      "stateMutability": "view",
      "type": "function"
    },
    {
      "inputs": [],
      "name": "symbol",
      "outputs": [
        {
          "internalType": "string",
          "name": "",
          "type": "string"
        }
      ],
      "stateMutability": "view",
      "type": "function"
    },
    {
      "inputs": [],
      "name": "totalSupply",
      "outputs": [
        {
          "internalType": "uint256",
          "name": "",
          "type": "uint256"
        }
      ],
      "stateMutability": "view",
      "type": "function"
    },
    {
      "inputs": [
        {
          "internalType": "address",
          "name": "to",
          "type": "address"
        },
        {
          "internalType": "uint256",
          "name": "amount",
          "type": "uint256"
        }
      ],
      "name": "transfer",
      "outputs": [
        {
          "internalType": "bool",
          "name": "",
          "type": "bool"
        }
      ],
      "stateMutability": "nonpayable",
      "type": "function"
    },
    {
      "inputs": [
        {
          "internalType": "address",
          "name": "from",
          "type": "address"
        },
        {
          "internalType": "address",
          "name": "to",
          "type": "address"
        },
        {
          "internalType": "uint256",
          "name": "amount",
          "type": "uint256"
        }
      ],
      "name": "transferFrom",
      "outputs": [
        {
          "internalType": "bool",
          "name": "",
          "type": "bool"
        }
      ],
      "stateMutability": "nonpayable",
      "type": "function"
    },
    {
      "inputs": [
        {
          "internalType": "address",
          "name": "newOwner",
          "type": "address"
        }
      ],
      "name": "transferOwnership",
      "outputs": [],
      "stateMutability": "nonpayable",
      "type": "function"
    },
    {
      "inputs": [],
      "name": "uniswapV2Pair",
      "outputs": [
        {
          "internalType": "address",
          "name": "",
          "type": "address"
        }
      ],
      "stateMutability": "view",
      "type": "function"
    },
    {
      "inputs": [],
      "name": "uniswapV2Router",
      "outputs": [
        {
          "internalType": "contract IUniswapV2Router02",
          "name": "",
          "type": "address"
        }
      ],
      "stateMutability": "view",
      "type": "function"
    },
    {
      "inputs": [
        {
          "internalType": "address",
          "name": "account",
          "type": "address"
        }
      ],
      "name": "withdrawableDividendsOf",
      "outputs": [
        {
          "internalType": "uint256",
          "name": "",
          "type": "uint256"
        }
      ],
      "stateMutability": "view",
      "type": "function"
    },
    {
      "inputs": [
        {
          "internalType": "address",
          "name": "account",
          "type": "address"
        }
      ],
      "name": "withdrawnDividendsOf",
      "outputs": [
        {
          "internalType": "uint256",
          "name": "",
          "type": "uint256"
        }
      ],
      "stateMutability": "view",
      "type": "function"
    },
    {
      "stateMutability": "payable",
      "type": "receive"
    },
    {
      "inputs": [
        {
          "internalType": "address",
          "name": "_user",
          "type": "address"
        }
      ],
      "name": "getSharesOf",
      "outputs": [
        {
          "internalType": "uint256",
          "name": "",
          "type": "uint256"
        }
      ],
      "stateMutability": "view",
      "type": "function"
    },
    {
      "inputs": [],
      "name": "totalShareableSupply",
      "outputs": [
        {
          "internalType": "uint256",
          "name": "",
          "type": "uint256"
        }
      ],
      "stateMutability": "view",
      "type": "function"
    },
    {
      "inputs": [
        {
          "internalType": "address",
          "name": "token",
          "type": "address"
        }
      ],
      "name": "claimStuckTokens",
      "outputs": [],
      "stateMutability": "nonpayable",
      "type": "function"
    },
    {
      "inputs": [
        {
          "internalType": "address",
          "name": "newAddress",
          "type": "address"
        }
      ],
      "name": "updateUniswapV2Router",
      "outputs": [],
      "stateMutability": "nonpayable",
      "type": "function"
    },
    {
      "inputs": [
        {
          "internalType": "address",
          "name": "pair",
          "type": "address"
        },
        {
          "internalType": "bool",
          "name": "value",
          "type": "bool"
        }
      ],
      "name": "setAutomatedMarketMakerPair",
      "outputs": [],
      "stateMutability": "nonpayable",
      "type": "function"
    },
    {
      "inputs": [
        {
          "internalType": "address",
          "name": "account",
          "type": "address"
        },
        {
          "internalType": "bool",
          "name": "excluded",
          "type": "bool"
        }
      ],
      "name": "excludeFromFees",
      "outputs": [],
      "stateMutability": "nonpayable",
      "type": "function"
    },
    {
      "inputs": [
        {
          "internalType": "address",
          "name": "account",
          "type": "address"
        }
      ],
      "name": "isExcludedFromFees",
      "outputs": [
        {
          "internalType": "bool",
          "name": "",
          "type": "bool"
        }
      ],
      "stateMutability": "view",
      "type": "function"
    },
    {
      "inputs": [
        {
          "internalType": "uint256",
          "name": "_liquidity",
          "type": "uint256"
        },
        {
          "internalType": "uint256",
          "name": "_reward",
          "type": "uint256"
        },
        {
          "internalType": "uint256",
          "name": "_staking",
          "type": "uint256"
        }
      ],
      "name": "updateBuyFees",
      "outputs": [],
      "stateMutability": "nonpayable",
      "type": "function"
    },
    {
      "inputs": [
        {
          "internalType": "uint256",
          "name": "_liquidity",
          "type": "uint256"
        },
        {
          "internalType": "uint256",
          "name": "_reward",
          "type": "uint256"
        },
        {
          "internalType": "uint256",
          "name": "_staking",
          "type": "uint256"
        }
      ],
      "name": "updateSellFees",
      "outputs": [],
      "stateMutability": "nonpayable",
      "type": "function"
    },
    {
      "inputs": [
        {
          "internalType": "address",
          "name": "_treasurykWallet",
          "type": "address"
        }
      ],
      "name": "changeTreasurykWallet",
      "outputs": [],
      "stateMutability": "nonpayable",
      "type": "function"
    },
    {
      "inputs": [
        {
          "internalType": "bool",
          "name": "_swapEnabled",
          "type": "bool"
        }
      ],
      "name": "setSwapEnabled",
      "outputs": [],
      "stateMutability": "nonpayable",
      "type": "function"
    },
    {
      "inputs": [
        {
          "internalType": "uint256",
          "name": "newAmount",
          "type": "uint256"
        }
      ],
      "name": "setSwapTokensAtAmount",
      "outputs": [],
      "stateMutability": "nonpayable",
      "type": "function"
    },
    {
      "inputs": [
        {
          "internalType": "bool",
          "name": "enable",
          "type": "bool"
        }
      ],
      "name": "setEnableMaxWalletLimit",
      "outputs": [],
      "stateMutability": "nonpayable",
      "type": "function"
    },
    {
      "inputs": [
        {
          "internalType": "uint256",
          "name": "_maxWalletAmount",
          "type": "uint256"
        }
      ],
      "name": "setMaxWalletAmount",
      "outputs": [],
      "stateMutability": "nonpayable",
      "type": "function"
    },
    {
      "inputs": [
        {
          "internalType": "address",
          "name": "account",
          "type": "address"
        },
        {
          "internalType": "bool",
          "name": "exclude",
          "type": "bool"
        }
      ],
      "name": "setExcludeFromMaxWallet",
      "outputs": [],
      "stateMutability": "nonpayable",
      "type": "function"
    },
    {
      "inputs": [
        {
          "internalType": "address",
          "name": "account",
          "type": "address"
        }
      ],
      "name": "isExcludedFromMaxWalletLimit",
      "outputs": [
        {
          "internalType": "bool",
          "name": "",
          "type": "bool"
        }
      ],
      "stateMutability": "view",
      "type": "function"
    },
    {
      "inputs": [
        {
          "internalType": "bool",
          "name": "enable",
          "type": "bool"
        }
      ],
      "name": "setEnableMaxTransactionLimit",
      "outputs": [],
      "stateMutability": "nonpayable",
      "type": "function"
    },
    {
      "inputs": [
        {
          "internalType": "uint256",
          "name": "_maxTransactionAmountBuy",
          "type": "uint256"
        },
        {
          "internalType": "uint256",
          "name": "_maxTransactionAmountSell",
          "type": "uint256"
        }
      ],
      "name": "setMaxTransactionAmounts",
      "outputs": [],
      "stateMutability": "nonpayable",
      "type": "function"
    },
    {
      "inputs": [
        {
          "internalType": "address",
          "name": "account",
          "type": "address"
        },
        {
          "internalType": "bool",
          "name": "exclude",
          "type": "bool"
        }
      ],
      "name": "setExcludeFromMaxTransactionLimit",
      "outputs": [],
      "stateMutability": "nonpayable",
      "type": "function"
    },
    {
      "inputs": [
        {
          "internalType": "address",
          "name": "account",
          "type": "address"
        }
      ],
      "name": "isExcludedFromMaxTransaction",
      "outputs": [
        {
          "internalType": "bool",
          "name": "",
          "type": "bool"
        }
      ],
      "stateMutability": "view",
      "type": "function"
    }
  ],
  "bytecode": "0x60e060405260405180606001604052806001815260200160018152602001600281525060096000820151816000015560208201518160010155604082015181600201555050604051806060016040528060018152602001600181526020016002815250600c6000820151816000015560208201518160010155604082015181600201555050604051806040016040528073bbb422b9464dda298e87edf776ea2d974c3a84ba73ffffffffffffffffffffffffffffffffffffffff1681526020016b033b2e3c9fd0803ce8000000815250600f60008201518160000160006101000a81548173ffffffffffffffffffffffffffffffffffffffff021916908373ffffffffffffffffffffffffffffffffffffffff16021790555060208201518160010155505061dead601360006101000a81548173ffffffffffffffffffffffffffffffffffffffff021916908373ffffffffffffffffffffffffffffffffffffffff160217905550604051620076873803806200768783398181016040528101906200018c9190620012d5565b62000cf660201b620025c31762000d6e60201b620023e5176040518060400160405280600581526020017f58487970650000000000000000000000000000000000000000000000000000008152506040518060400160405280600381526020017f5848500000000000000000000000000000000000000000000000000000000000815250816003908162000221919062001596565b50806004908162000233919062001596565b5050508167ffffffffffffffff1660808167ffffffffffffffff16815250508067ffffffffffffffff1660a08167ffffffffffffffff16815250505050620002906200028462000e1d60201b60201c565b62000e2560201b60201c565b8173ffffffffffffffffffffffffffffffffffffffff1660c08173ffffffffffffffffffffffffffffffffffffffff1681525050600081905060008173ffffffffffffffffffffffffffffffffffffffff1663c45a01556040518163ffffffff1660e01b8152600401602060405180830381865afa15801562000317573d6000803e3d6000fd5b505050506040513d601f19601f820116820180604052508101906200033d91906200167d565b73ffffffffffffffffffffffffffffffffffffffff1663c9c65396308473ffffffffffffffffffffffffffffffffffffffff1663ad5c46486040518163ffffffff1660e01b8152600401602060405180830381865afa158015620003a5573d6000803e3d6000fd5b505050506040513d601f19601f82011682018060405250810190620003cb91906200167d565b6040518363ffffffff1660e01b8152600401620003ea929190620016c0565b6020604051808303816000875af11580156200040a573d6000803e3d6000fd5b505050506040513d601f19601f820116820180604052508101906200043091906200167d565b905081601160006101000a81548173ffffffffffffffffffffffffffffffffffffffff021916908373ffffffffffffffffffffffffffffffffffffffff16021790555080601260006101000a81548173ffffffffffffffffffffffffffffffffffffffff021916908373ffffffffffffffffffffffffffffffffffffffff160217905550620004c781600162000eeb60201b60201c565b60166000620004db6200107860201b60201c565b73ffffffffffffffffffffffffffffffffffffffff1673ffffffffffffffffffffffffffffffffffffffff16815260200190815260200160002060009054906101000a905050601660003073ffffffffffffffffffffffffffffffffffffffff1673ffffffffffffffffffffffffffffffffffffffff16815260200190815260200160002060009054906101000a90505060166000601360009054906101000a900473ffffffffffffffffffffffffffffffffffffffff1673ffffffffffffffffffffffffffffffffffffffff1673ffffffffffffffffffffffffffffffffffffffff16815260200190815260200160002060009054906101000a90505060166000600f60000160009054906101000a900473ffffffffffffffffffffffffffffffffffffffff1673ffffffffffffffffffffffffffffffffffffffff1673ffffffffffffffffffffffffffffffffffffffff16815260200190815260200160002060009054906101000a905050601660008373ffffffffffffffffffffffffffffffffffffffff1673ffffffffffffffffffffffffffffffffffffffff16815260200190815260200160002060009054906101000a9050506001601d6000620006aa6200107860201b60201c565b73ffffffffffffffffffffffffffffffffffffffff1673ffffffffffffffffffffffffffffffffffffffff16815260200190815260200160002060006101000a81548160ff0219169083151502179055506001601d60008073ffffffffffffffffffffffffffffffffffffffff1673ffffffffffffffffffffffffffffffffffffffff16815260200190815260200160002060006101000a81548160ff0219169083151502179055506001601d60003073ffffffffffffffffffffffffffffffffffffffff1673ffffffffffffffffffffffffffffffffffffffff16815260200190815260200160002060006101000a81548160ff0219169083151502179055506001601d6000601360009054906101000a900473ffffffffffffffffffffffffffffffffffffffff1673ffffffffffffffffffffffffffffffffffffffff1673ffffffffffffffffffffffffffffffffffffffff16815260200190815260200160002060006101000a81548160ff0219169083151502179055506001601d6000600f60000160009054906101000a900473ffffffffffffffffffffffffffffffffffffffff1673ffffffffffffffffffffffffffffffffffffffff1673ffffffffffffffffffffffffffffffffffffffff16815260200190815260200160002060006101000a81548160ff0219169083151502179055506001601a6000620008b86200107860201b60201c565b73ffffffffffffffffffffffffffffffffffffffff1673ffffffffffffffffffffffffffffffffffffffff16815260200190815260200160002060006101000a81548160ff0219169083151502179055506001601a60008073ffffffffffffffffffffffffffffffffffffffff1673ffffffffffffffffffffffffffffffffffffffff16815260200190815260200160002060006101000a81548160ff0219169083151502179055506001601a60003073ffffffffffffffffffffffffffffffffffffffff1673ffffffffffffffffffffffffffffffffffffffff16815260200190815260200160002060006101000a81548160ff0219169083151502179055506001601a6000601360009054906101000a900473ffffffffffffffffffffffffffffffffffffffff1673ffffffffffffffffffffffffffffffffffffffff1673ffffffffffffffffffffffffffffffffffffffff16815260200190815260200160002060006101000a81548160ff0219169083151502179055506001601a6000600f60000160009054906101000a900473ffffffffffffffffffffffffffffffffffffffff1673ffffffffffffffffffffffffffffffffffffffff1673ffffffffffffffffffffffffffffffffffffffff16815260200190815260200160002060006101000a81548160ff02191690831515021790555060016018600062000ac66200107860201b60201c565b73ffffffffffffffffffffffffffffffffffffffff1673ffffffffffffffffffffffffffffffffffffffff16815260200190815260200160002060006101000a81548160ff0219169083151502179055506001601860003073ffffffffffffffffffffffffffffffffffffffff1673ffffffffffffffffffffffffffffffffffffffff16815260200190815260200160002060006101000a81548160ff021916908315150217905550600160186000601360009054906101000a900473ffffffffffffffffffffffffffffffffffffffff1673ffffffffffffffffffffffffffffffffffffffff1673ffffffffffffffffffffffffffffffffffffffff16815260200190815260200160002060006101000a81548160ff021916908315150217905550600160186000600f60000160009054906101000a900473ffffffffffffffffffffffffffffffffffffffff1673ffffffffffffffffffffffffffffffffffffffff1673ffffffffffffffffffffffffffffffffffffffff16815260200190815260200160002060006101000a81548160ff0219169083151502179055506001601560006101000a81548160ff021916908315150217905550611388670de0b6b3a7640000600f6001015462000c9f91906200171c565b62000cab919062001796565b60148190555062000cec62000cc56200107860201b60201c565b670de0b6b3a7640000600f6001015462000ce091906200171c565b620010a260201b60201c565b5050505062001a09565b6000601660008373ffffffffffffffffffffffffffffffffffffffff1673ffffffffffffffffffffffffffffffffffffffff16815260200190815260200160002060009054906101000a900460ff161562000d55576000905062000d69565b62000d66826200120f60201b60201c565b90505b919050565b60008060005b60178054905081101562000df95762000dd46017828154811062000d9d5762000d9c620017ce565b5b9060005260206000200160009054906101000a900473ffffffffffffffffffffffffffffffffffffffff166200120f60201b60201c565b8262000de19190620017fd565b9150808062000df09062001838565b91505062000d74565b508062000e0b6200125760201b60201c565b62000e17919062001885565b91505090565b600033905090565b6000600860009054906101000a900473ffffffffffffffffffffffffffffffffffffffff16905081600860006101000a81548173ffffffffffffffffffffffffffffffffffffffff021916908373ffffffffffffffffffffffffffffffffffffffff1602179055508173ffffffffffffffffffffffffffffffffffffffff168173ffffffffffffffffffffffffffffffffffffffff167f8be0079c531659141344cd1fd0a4f28419497f9722a3daafe3b4186f6b6457e060405160405180910390a35050565b801515601960008473ffffffffffffffffffffffffffffffffffffffff1673ffffffffffffffffffffffffffffffffffffffff16815260200190815260200160002060009054906101000a900460ff1615150362000f80576040517f08c379a000000000000000000000000000000000000000000000000000000000815260040162000f779062001947565b60405180910390fd5b80601960008473ffffffffffffffffffffffffffffffffffffffff1673ffffffffffffffffffffffffffffffffffffffff16815260200190815260200160002060006101000a81548160ff02191690831515021790555080601660008473ffffffffffffffffffffffffffffffffffffffff1673ffffffffffffffffffffffffffffffffffffffff16815260200190815260200160002060006101000a81548160ff0219169083151502179055508015158273ffffffffffffffffffffffffffffffffffffffff167fffa9187bf1f18bf477bd0ea1bcbb64e93b6a98132473929edfce215cd9b16fab60405160405180910390a35050565b6000600860009054906101000a900473ffffffffffffffffffffffffffffffffffffffff16905090565b600073ffffffffffffffffffffffffffffffffffffffff168273ffffffffffffffffffffffffffffffffffffffff160362001114576040517f08c379a00000000000000000000000000000000000000000000000000000000081526004016200110b90620019b9565b60405180910390fd5b62001128600083836200126160201b60201c565b80600260008282546200113c9190620017fd565b92505081905550806000808473ffffffffffffffffffffffffffffffffffffffff1673ffffffffffffffffffffffffffffffffffffffff168152602001908152602001600020600082825401925050819055508173ffffffffffffffffffffffffffffffffffffffff16600073ffffffffffffffffffffffffffffffffffffffff167fddf252ad1be2c89b69c2b068fc378daa952ba7f163c4a11628f55a4df523b3ef83604051620011ef9190620019ec565b60405180910390a36200120b600083836200126660201b60201c565b5050565b60008060008373ffffffffffffffffffffffffffffffffffffffff1673ffffffffffffffffffffffffffffffffffffffff168152602001908152602001600020549050919050565b6000600254905090565b505050565b505050565b600080fd5b600073ffffffffffffffffffffffffffffffffffffffff82169050919050565b60006200129d8262001270565b9050919050565b620012af8162001290565b8114620012bb57600080fd5b50565b600081519050620012cf81620012a4565b92915050565b60008060408385031215620012ef57620012ee6200126b565b5b6000620012ff85828601620012be565b92505060206200131285828601620012be565b9150509250929050565b600081519050919050565b7f4e487b7100000000000000000000000000000000000000000000000000000000600052604160045260246000fd5b7f4e487b7100000000000000000000000000000000000000000000000000000000600052602260045260246000fd5b600060028204905060018216806200139e57607f821691505b602082108103620013b457620013b362001356565b5b50919050565b60008190508160005260206000209050919050565b60006020601f8301049050919050565b600082821b905092915050565b6000600883026200141e7fffffffffffffffffffffffffffffffffffffffffffffffffffffffffffffffff82620013df565b6200142a8683620013df565b95508019841693508086168417925050509392505050565b6000819050919050565b6000819050919050565b600062001477620014716200146b8462001442565b6200144c565b62001442565b9050919050565b6000819050919050565b620014938362001456565b620014ab620014a2826200147e565b848454620013ec565b825550505050565b600090565b620014c2620014b3565b620014cf81848462001488565b505050565b5b81811015620014f757620014eb600082620014b8565b600181019050620014d5565b5050565b601f82111562001546576200151081620013ba565b6200151b84620013cf565b810160208510156200152b578190505b620015436200153a85620013cf565b830182620014d4565b50505b505050565b600082821c905092915050565b60006200156b600019846008026200154b565b1980831691505092915050565b600062001586838362001558565b9150826002028217905092915050565b620015a1826200131c565b67ffffffffffffffff811115620015bd57620015bc62001327565b5b620015c9825462001385565b620015d6828285620014fb565b600060209050601f8311600181146200160e5760008415620015f9578287015190505b62001605858262001578565b86555062001675565b601f1984166200161e86620013ba565b60005b82811015620016485784890151825560018201915060208501945060208101905062001621565b8683101562001668578489015162001664601f89168262001558565b8355505b6001600288020188555050505b505050505050565b6000602082840312156200169657620016956200126b565b5b6000620016a684828501620012be565b91505092915050565b620016ba8162001290565b82525050565b6000604082019050620016d76000830185620016af565b620016e66020830184620016af565b9392505050565b7f4e487b7100000000000000000000000000000000000000000000000000000000600052601160045260246000fd5b6000620017298262001442565b9150620017368362001442565b9250828202620017468162001442565b9150828204841483151762001760576200175f620016ed565b5b5092915050565b7f4e487b7100000000000000000000000000000000000000000000000000000000600052601260045260246000fd5b6000620017a38262001442565b9150620017b08362001442565b925082620017c357620017c262001767565b5b828204905092915050565b7f4e487b7100000000000000000000000000000000000000000000000000000000600052603260045260246000fd5b60006200180a8262001442565b9150620018178362001442565b9250828201905080821115620018325762001831620016ed565b5b92915050565b6000620018458262001442565b91507fffffffffffffffffffffffffffffffffffffffffffffffffffffffffffffffff82036200187a5762001879620016ed565b5b600182019050919050565b6000620018928262001442565b91506200189f8362001442565b9250828203905081811115620018ba57620018b9620016ed565b5b92915050565b600082825260208201905092915050565b7f4175746f6d61746564206d61726b6574206d616b65722070616972206973206160008201527f6c72656164792073657420746f20746861742076616c75650000000000000000602082015250565b60006200192f603883620018c0565b91506200193c82620018d1565b604082019050919050565b60006020820190508181036000830152620019628162001920565b9050919050565b7f45524332303a206d696e7420746f20746865207a65726f206164647265737300600082015250565b6000620019a1601f83620018c0565b9150620019ae8262001969565b602082019050919050565b60006020820190508181036000830152620019d48162001992565b9050919050565b620019e68162001442565b82525050565b600060208201905062001a036000830184620019db565b92915050565b60805160a05160c051615c3262001a55600039600081816126b60152818161275001528181613b8801528181613c260152613d5b01526000613e56015260006110700152615c326000f3fe6080604052600436106103395760003560e01c80637e245d79116101ab578063b6f7f681116100f7578063e2f4560511610095578063ee85348e1161006f578063ee85348e14610c7c578063f2fde38b14610cb9578063f7c618c114610ce2578063f9d0831a14610d0d57610340565b8063e2f4560514610bf9578063e4748b9e14610c24578063ea61629c14610c5157610340565b8063d8e56bc0116100d1578063d8e56bc014610b3b578063dd62ed3e14610b66578063e01af92c14610ba3578063e0f3ccf514610bcc57610340565b8063b6f7f68114610ac0578063c024666814610ae9578063c17b5b8c14610b1257610340565b8063a457c2d711610164578063aa4bde281161013e578063aa4bde28146109f2578063afa4f3b214610a1d578063b131e61014610a46578063b62496f514610a8357610340565b8063a457c2d71461093b578063a8a69b9d14610978578063a9059cbb146109b557610340565b80637e245d791461083f5780638095d5641461086a5780638da5cb5b14610893578063929f1360146108be57806395d89b41146108e75780639a7a23d61461091257610340565b8063313ce5671161028557806359136fa5116102235780636ddd1713116101fd5780636ddd17131461079457806370a08231146107bf578063715018a6146107fc57806379502c551461081357610340565b806359136fa51461071557806365b8dbc0146107405780636a3725f71461076957610340565b806349bd5a5e1161025f57806349bd5a5e146106475780634fbee1931461067257806353f83ad7146106af57806356a6cabf146106ec57610340565b8063313ce567146105b657806339509351146105e15780633e54835c1461061e57610340565b806318d9ceae116102f257806323b872dd116102cc57806323b872dd146104fc57806327a14fc2146105395780632a6c7dba146105625780632ba86bf21461058b57610340565b806318d9ceae146104575780631a60b63d1461049457806321a9d82a146104d157610340565b80630105d0fd1461034557806306fdde0314610370578063095ea7b31461039b578063150c880c146103d85780631694505e1461040157806318160ddd1461042c57610340565b3661034057005b600080fd5b34801561035157600080fd5b5061035a610d36565b6040516103679190613fa4565b60405180910390f35b34801561037c57600080fd5b50610385610d3c565b604051610392919061404f565b60405180910390f35b3480156103a757600080fd5b506103c260048036038101906103bd9190614100565b610dce565b6040516103cf919061415b565b60405180910390f35b3480156103e457600080fd5b506103ff60048036038101906103fa91906141a2565b610df1565b005b34801561040d57600080fd5b50610416610f83565b6040516104239190614241565b60405180910390f35b34801561043857600080fd5b50610441610fa9565b60405161044e9190613fa4565b60405180910390f35b34801561046357600080fd5b5061047e6004803603810190610479919061425c565b610fb3565b60405161048b919061415b565b60405180910390f35b3480156104a057600080fd5b506104bb60048036038101906104b6919061425c565b611009565b6040516104c89190613fa4565b60405180910390f35b3480156104dd57600080fd5b506104e66110d1565b6040516104f3919061415b565b60405180910390f35b34801561050857600080fd5b50610523600480360381019061051e9190614289565b6110e4565b604051610530919061415b565b60405180910390f35b34801561054557600080fd5b50610560600480360381019061055b91906142dc565b611113565b005b34801561056e57600080fd5b5061058960048036038101906105849190614309565b611221565b005b34801561059757600080fd5b506105a0611330565b6040516105ad919061415b565b60405180910390f35b3480156105c257600080fd5b506105cb611343565b6040516105d89190614352565b60405180910390f35b3480156105ed57600080fd5b5061060860048036038101906106039190614100565b61134c565b604051610615919061415b565b60405180910390f35b34801561062a57600080fd5b506106456004803603810190610640919061425c565b611383565b005b34801561065357600080fd5b5061065c6114c1565b604051610669919061437c565b60405180910390f35b34801561067e57600080fd5b506106996004803603810190610694919061425c565b6114e7565b6040516106a6919061415b565b60405180910390f35b3480156106bb57600080fd5b506106d660048036038101906106d1919061425c565b61153d565b6040516106e39190613fa4565b60405180910390f35b3480156106f857600080fd5b50610713600480360381019061070e9190614309565b611586565b005b34801561072157600080fd5b5061072a611695565b6040516107379190613fa4565b60405180910390f35b34801561074c57600080fd5b506107676004803603810190610762919061425c565b61169b565b005b34801561077557600080fd5b5061077e6119d7565b60405161078b919061415b565b60405180910390f35b3480156107a057600080fd5b506107a96119ea565b6040516107b6919061415b565b60405180910390f35b3480156107cb57600080fd5b506107e660048036038101906107e1919061425c565b6119fd565b6040516107f39190613fa4565b60405180910390f35b34801561080857600080fd5b50610811611a45565b005b34801561081f57600080fd5b50610828611a59565b604051610836929190614397565b60405180910390f35b34801561084b57600080fd5b50610854611a8b565b6040516108619190613fa4565b60405180910390f35b34801561087657600080fd5b50610891600480360381019061088c91906143c0565b611a91565b005b34801561089f57600080fd5b506108a8611b64565b6040516108b5919061437c565b60405180910390f35b3480156108ca57600080fd5b506108e560048036038101906108e091906141a2565b611b8e565b005b3480156108f357600080fd5b506108fc611d20565b604051610909919061404f565b60405180910390f35b34801561091e57600080fd5b50610939600480360381019061093491906141a2565b611db2565b005b34801561094757600080fd5b50610962600480360381019061095d9190614100565b611e58565b60405161096f919061415b565b60405180910390f35b34801561098457600080fd5b5061099f600480360381019061099a919061425c565b611ecf565b6040516109ac919061415b565b60405180910390f35b3480156109c157600080fd5b506109dc60048036038101906109d79190614100565b611f25565b6040516109e9919061415b565b60405180910390f35b3480156109fe57600080fd5b50610a07611f48565b604051610a149190613fa4565b60405180910390f35b348015610a2957600080fd5b50610a446004803603810190610a3f91906142dc565b611f4e565b005b348015610a5257600080fd5b50610a6d6004803603810190610a68919061425c565b611fb7565b604051610a7a9190613fa4565b60405180910390f35b348015610a8f57600080fd5b50610aaa6004803603810190610aa5919061425c565b61201a565b604051610ab7919061415b565b60405180910390f35b348015610acc57600080fd5b50610ae76004803603810190610ae29190614413565b61203a565b005b348015610af557600080fd5b50610b106004803603810190610b0b91906141a2565b6121cf565b005b348015610b1e57600080fd5b50610b396004803603810190610b3491906143c0565b612312565b005b348015610b4757600080fd5b50610b506123e5565b604051610b5d9190613fa4565b60405180910390f35b348015610b7257600080fd5b50610b8d6004803603810190610b889190614453565b612479565b604051610b9a9190613fa4565b60405180910390f35b348015610baf57600080fd5b50610bca6004803603810190610bc59190614309565b612500565b005b348015610bd857600080fd5b50610be161257a565b604051610bf093929190614493565b60405180910390f35b348015610c0557600080fd5b50610c0e612592565b604051610c1b9190613fa4565b60405180910390f35b348015610c3057600080fd5b50610c39612598565b604051610c4893929190614493565b60405180910390f35b348015610c5d57600080fd5b50610c666125b0565b604051610c73919061415b565b60405180910390f35b348015610c8857600080fd5b50610ca36004803603810190610c9e919061425c565b6125c3565b604051610cb09190613fa4565b60405180910390f35b348015610cc557600080fd5b50610ce06004803603810190610cdb919061425c565b612631565b005b348015610cee57600080fd5b50610cf76126b4565b604051610d04919061437c565b60405180910390f35b348015610d1957600080fd5b50610d346004803603810190610d2f919061425c565b6126d8565b005b601f5481565b606060038054610d4b906144f9565b80601f0160208091040260200160405190810160405280929190818152602001828054610d77906144f9565b8015610dc45780601f10610d9957610100808354040283529160200191610dc4565b820191906000526020600020905b815481529060010190602001808311610da757829003601f168201915b5050505050905090565b600080610dd96128f0565b9050610de68185856128f8565b600191505092915050565b610df9612ac1565b601e60009054906101000a900460ff16610e48576040517f08c379a0000000000000000000000000000000000000000000000000000000008152600401610e3f9061459c565b60405180910390fd5b801515601d60008473ffffffffffffffffffffffffffffffffffffffff1673ffffffffffffffffffffffffffffffffffffffff16815260200190815260200160002060009054906101000a900460ff16151503610eda576040517f08c379a0000000000000000000000000000000000000000000000000000000008152600401610ed19061462e565b60405180910390fd5b80601d60008473ffffffffffffffffffffffffffffffffffffffff1673ffffffffffffffffffffffffffffffffffffffff16815260200190815260200160002060006101000a81548160ff0219169083151502179055508173ffffffffffffffffffffffffffffffffffffffff167f8727c4afe988887760e8db0bbad9f9fcceee6428545956832f67c8fdbd589c1082604051610f77919061415b565b60405180910390a25050565b601160009054906101000a900473ffffffffffffffffffffffffffffffffffffffff1681565b6000600254905090565b6000601d60008373ffffffffffffffffffffffffffffffffffffffff1673ffffffffffffffffffffffffffffffffffffffff16815260200190815260200160002060009054906101000a900460ff169050919050565b60006fffffffffffffffffffffffffffffffff80166110c06110bb600660008673ffffffffffffffffffffffffffffffffffffffff1673ffffffffffffffffffffffffffffffffffffffff168152602001908152602001600020546110ad6110a8611097887f000000000000000000000000000000000000000000000000000000000000000063ffffffff16565b600554612b3f90919063ffffffff16565b612b76565b612bac90919063ffffffff16565b612bc2565b6110ca91906146ac565b9050919050565b601b60019054906101000a900460ff1681565b6000806110ef6128f0565b90506110fc858285612bd9565b611107858585612c65565b60019150509392505050565b61111b612ac1565b601b60009054906101000a900460ff1661116a576040517f08c379a00000000000000000000000000000000000000000000000000000000081526004016111619061474f565b60405180910390fd5b6064611174611343565b600a61118091906148a2565b611188610fa9565b61119291906146ac565b61119c91906146ac565b8110156111de576040517f08c379a00000000000000000000000000000000000000000000000000000000081526004016111d59061495f565b60405180910390fd5b80601c819055507ffbede00c52e68e7972265f0deb49773af2ec3e07ebaf22d74be3c4f0c6d56867601c546040516112169190613fa4565b60405180910390a150565b611229612ac1565b601b60009054906101000a900460ff16611278576040517f08c379a000000000000000000000000000000000000000000000000000000000815260040161126f9061474f565b60405180910390fd5b601b60019054906101000a900460ff161515811515036112cd576040517f08c379a00000000000000000000000000000000000000000000000000000000081526004016112c4906149f1565b60405180910390fd5b80601b60016101000a81548160ff0219169083151502179055507f670f884265aba2d05e7c26efbc42f8365effc4cb3fcfcefddba0c0b71a6231f1601b60019054906101000a900460ff16604051611325919061415b565b60405180910390a150565b601e60019054906101000a900460ff1681565b60006012905090565b6000806113576128f0565b90506113788185856113698589612479565b6113739190614a11565b6128f8565b600191505092915050565b61138b612ac1565b600f60000160009054906101000a900473ffffffffffffffffffffffffffffffffffffffff1673ffffffffffffffffffffffffffffffffffffffff168173ffffffffffffffffffffffffffffffffffffffff160361141e576040517f08c379a000000000000000000000000000000000000000000000000000000000815260040161141590614ab7565b60405180910390fd5b80600f60000160006101000a81548173ffffffffffffffffffffffffffffffffffffffff021916908373ffffffffffffffffffffffffffffffffffffffff1602179055507f3e00e5c2cd3f171acb433b785fca1f688d3fe2389451a73c271318e33c5ec02e600f60000160009054906101000a900473ffffffffffffffffffffffffffffffffffffffff166040516114b6919061437c565b60405180910390a150565b601260009054906101000a900473ffffffffffffffffffffffffffffffffffffffff1681565b6000601860008373ffffffffffffffffffffffffffffffffffffffff1673ffffffffffffffffffffffffffffffffffffffff16815260200190815260200160002060009054906101000a900460ff169050919050565b6000600760008373ffffffffffffffffffffffffffffffffffffffff1673ffffffffffffffffffffffffffffffffffffffff168152602001908152602001600020549050919050565b61158e612ac1565b601e60009054906101000a900460ff166115dd576040517f08c379a00000000000000000000000000000000000000000000000000000000081526004016115d49061459c565b60405180910390fd5b601e60019054906101000a900460ff16151581151503611632576040517f08c379a000000000000000000000000000000000000000000000000000000000815260040161162990614b49565b60405180910390fd5b80601e60016101000a81548160ff0219169083151502179055507fe81be35e61864c26afd7a4655e99f321378d0aaae1e5af8ee67b658a7460f3cf601e60019054906101000a900460ff1660405161168a919061415b565b60405180910390a150565b60205481565b6116a3612ac1565b601160009054906101000a900473ffffffffffffffffffffffffffffffffffffffff1673ffffffffffffffffffffffffffffffffffffffff168173ffffffffffffffffffffffffffffffffffffffff1603611733576040517f08c379a000000000000000000000000000000000000000000000000000000000815260040161172a90614bdb565b60405180910390fd5b601160009054906101000a900473ffffffffffffffffffffffffffffffffffffffff1673ffffffffffffffffffffffffffffffffffffffff168173ffffffffffffffffffffffffffffffffffffffff167f8fc842bbd331dfa973645f4ed48b11683d501ebf1352708d77a5da2ab49a576e60405160405180910390a380601160006101000a81548173ffffffffffffffffffffffffffffffffffffffff021916908373ffffffffffffffffffffffffffffffffffffffff1602179055506000601160009054906101000a900473ffffffffffffffffffffffffffffffffffffffff1673ffffffffffffffffffffffffffffffffffffffff1663c45a01556040518163ffffffff1660e01b8152600401602060405180830381865afa15801561185f573d6000803e3d6000fd5b505050506040513d601f19601f820116820180604052508101906118839190614c10565b73ffffffffffffffffffffffffffffffffffffffff1663c9c6539630601160009054906101000a900473ffffffffffffffffffffffffffffffffffffffff1673ffffffffffffffffffffffffffffffffffffffff1663ad5c46486040518163ffffffff1660e01b8152600401602060405180830381865afa15801561190c573d6000803e3d6000fd5b505050506040513d601f19601f820116820180604052508101906119309190614c10565b6040518363ffffffff1660e01b815260040161194d929190614c3d565b6020604051808303816000875af115801561196c573d6000803e3d6000fd5b505050506040513d601f19601f820116820180604052508101906119909190614c10565b905080601260006101000a81548173ffffffffffffffffffffffffffffffffffffffff021916908373ffffffffffffffffffffffffffffffffffffffff1602179055505050565b601b60009054906101000a900460ff1681565b601560009054906101000a900460ff1681565b60008060008373ffffffffffffffffffffffffffffffffffffffff1673ffffffffffffffffffffffffffffffffffffffff168152602001908152602001600020549050919050565b611a4d612ac1565b611a5760006134ca565b565b600f8060000160009054906101000a900473ffffffffffffffffffffffffffffffffffffffff16908060010154905082565b60055481565b611a99612ac1565b6019818385611aa89190614a11565b611ab29190614a11565b1115611af3576040517f08c379a0000000000000000000000000000000000000000000000000000000008152600401611aea90614cb2565b60405180910390fd5b8260096000018190555081600960010181905550600960010154600960000154611b1d9190614a11565b6009600201819055507fccd61cb5df2cb048d1a7af40a431d6f247af01b6cf048f7a3f2aa9d313e2bc508383604051611b57929190614cd2565b60405180910390a1505050565b6000600860009054906101000a900473ffffffffffffffffffffffffffffffffffffffff16905090565b611b96612ac1565b601b60009054906101000a900460ff16611be5576040517f08c379a0000000000000000000000000000000000000000000000000000000008152600401611bdc9061474f565b60405180910390fd5b801515601a60008473ffffffffffffffffffffffffffffffffffffffff1673ffffffffffffffffffffffffffffffffffffffff16815260200190815260200160002060009054906101000a900460ff16151503611c77576040517f08c379a0000000000000000000000000000000000000000000000000000000008152600401611c6e9061462e565b60405180910390fd5b80601a60008473ffffffffffffffffffffffffffffffffffffffff1673ffffffffffffffffffffffffffffffffffffffff16815260200190815260200160002060006101000a81548160ff0219169083151502179055508173ffffffffffffffffffffffffffffffffffffffff167f1d9a11e204b58ad56c619c61600e42167624659d218f0143f1f64956b0daae6c82604051611d14919061415b565b60405180910390a25050565b606060048054611d2f906144f9565b80601f0160208091040260200160405190810160405280929190818152602001828054611d5b906144f9565b8015611da85780601f10611d7d57610100808354040283529160200191611da8565b820191906000526020600020905b815481529060010190602001808311611d8b57829003601f168201915b5050505050905090565b611dba612ac1565b601260009054906101000a900473ffffffffffffffffffffffffffffffffffffffff1673ffffffffffffffffffffffffffffffffffffffff168273ffffffffffffffffffffffffffffffffffffffff1603611e4a576040517f08c379a0000000000000000000000000000000000000000000000000000000008152600401611e4190614d93565b60405180910390fd5b611e548282613590565b5050565b600080611e636128f0565b90506000611e718286612479565b905083811015611eb6576040517f08c379a0000000000000000000000000000000000000000000000000000000008152600401611ead90614e25565b60405180910390fd5b611ec382868684036128f8565b60019250505092915050565b6000601a60008373ffffffffffffffffffffffffffffffffffffffff1673ffffffffffffffffffffffffffffffffffffffff16815260200190815260200160002060009054906101000a900460ff169050919050565b600080611f306128f0565b9050611f3d818585612c65565b600191505092915050565b601c5481565b611f56612ac1565b620f4240611f62610fa9565b611f6c91906146ac565b8111611fad576040517f08c379a0000000000000000000000000000000000000000000000000000000008152600401611fa490614eb7565b60405180910390fd5b8060148190555050565b6000612013600760008473ffffffffffffffffffffffffffffffffffffffff1673ffffffffffffffffffffffffffffffffffffffff1681526020019081526020016000205461200584611009565b61371a90919063ffffffff16565b9050919050565b60196020528060005260406000206000915054906101000a900460ff1681565b612042612ac1565b601e60009054906101000a900460ff16612091576040517f08c379a00000000000000000000000000000000000000000000000000000000081526004016120889061459c565b60405180910390fd5b6103e861209c611343565b600a6120a891906148a2565b6120b0610fa9565b6120ba91906146ac565b6120c491906146ac565b821015801561210557506103e86120d9611343565b600a6120e591906148a2565b6120ed610fa9565b6120f791906146ac565b61210191906146ac565b8110155b612144576040517f08c379a000000000000000000000000000000000000000000000000000000000815260040161213b90614f49565b60405180910390fd5b61214c611343565b600a61215891906148a2565b826121639190614f69565b601f81905550612171611343565b600a61217d91906148a2565b816121889190614f69565b6020819055507f2a88f79986e057b8152c19cea35cd214cf53364efbf95d5b22b37797c05be55f601f546020546040516121c3929190614cd2565b60405180910390a15050565b6121d7612ac1565b801515601860008473ffffffffffffffffffffffffffffffffffffffff1673ffffffffffffffffffffffffffffffffffffffff16815260200190815260200160002060009054906101000a900460ff16151503612269576040517f08c379a00000000000000000000000000000000000000000000000000000000081526004016122609061501d565b60405180910390fd5b80601860008473ffffffffffffffffffffffffffffffffffffffff1673ffffffffffffffffffffffffffffffffffffffff16815260200190815260200160002060006101000a81548160ff0219169083151502179055508173ffffffffffffffffffffffffffffffffffffffff167f9d8f7706ea1113d1a167b526eca956215946dd36cc7df39eb16180222d8b5df782604051612306919061415b565b60405180910390a25050565b61231a612ac1565b60198183856123299190614a11565b6123339190614a11565b1115612374576040517f08c379a000000000000000000000000000000000000000000000000000000000815260040161236b90614cb2565b60405180910390fd5b82600c6000018190555081600c60010181905550600c60010154600c6000015461239e9190614a11565b600c600201819055507f12dd4f8337f0c236c7994706854cca8cd53921c0032cb0fba8cdb797e73f67c683836040516123d8929190614cd2565b60405180910390a1505050565b60008060005b60178054905081101561245f5761243f6017828154811061240f5761240e61503d565b5b9060005260206000200160009054906101000a900473ffffffffffffffffffffffffffffffffffffffff166119fd565b8261244a9190614a11565b915080806124579061506c565b9150506123eb565b5080612469610fa9565b61247391906150b4565b91505090565b6000600160008473ffffffffffffffffffffffffffffffffffffffff1673ffffffffffffffffffffffffffffffffffffffff16815260200190815260200160002060008373ffffffffffffffffffffffffffffffffffffffff1673ffffffffffffffffffffffffffffffffffffffff16815260200190815260200160002054905092915050565b612508612ac1565b801515601560009054906101000a900460ff1615150361255d576040517f08c379a00000000000000000000000000000000000000000000000000000000081526004016125549061515a565b60405180910390fd5b80601560006101000a81548160ff02191690831515021790555050565b600c8060000154908060010154908060020154905083565b60145481565b60098060000154908060010154908060020154905083565b601e60009054906101000a900460ff1681565b6000601660008373ffffffffffffffffffffffffffffffffffffffff1673ffffffffffffffffffffffffffffffffffffffff16815260200190815260200160002060009054906101000a900460ff1615612620576000905061262c565b612629826119fd565b90505b919050565b612639612ac1565b600073ffffffffffffffffffffffffffffffffffffffff168173ffffffffffffffffffffffffffffffffffffffff16036126a8576040517f08c379a000000000000000000000000000000000000000000000000000000000815260040161269f906151ec565b60405180910390fd5b6126b1816134ca565b50565b7f000000000000000000000000000000000000000000000000000000000000000081565b6126e0612ac1565b3073ffffffffffffffffffffffffffffffffffffffff168173ffffffffffffffffffffffffffffffffffffffff160361274e576040517f08c379a000000000000000000000000000000000000000000000000000000000815260040161274590615258565b60405180910390fd5b7f000000000000000000000000000000000000000000000000000000000000000073ffffffffffffffffffffffffffffffffffffffff168173ffffffffffffffffffffffffffffffffffffffff16036127dc576040517f08c379a00000000000000000000000000000000000000000000000000000000081526004016127d3906152ea565b60405180910390fd5b600073ffffffffffffffffffffffffffffffffffffffff168173ffffffffffffffffffffffffffffffffffffffff160361285c573373ffffffffffffffffffffffffffffffffffffffff166108fc479081150290604051600060405180830381858888f19350505050158015612856573d6000803e3d6000fd5b506128ed565b600081905060008173ffffffffffffffffffffffffffffffffffffffff166370a08231306040518263ffffffff1660e01b815260040161289c919061437c565b602060405180830381865afa1580156128b9573d6000803e3d6000fd5b505050506040513d601f19601f820116820180604052508101906128dd919061531f565b90506128ea83338361373d565b50505b50565b600033905090565b600073ffffffffffffffffffffffffffffffffffffffff168373ffffffffffffffffffffffffffffffffffffffff1603612967576040517f08c379a000000000000000000000000000000000000000000000000000000000815260040161295e906153be565b60405180910390fd5b600073ffffffffffffffffffffffffffffffffffffffff168273ffffffffffffffffffffffffffffffffffffffff16036129d6576040517f08c379a00000000000000000000000000000000000000000000000000000000081526004016129cd90615450565b60405180910390fd5b80600160008573ffffffffffffffffffffffffffffffffffffffff1673ffffffffffffffffffffffffffffffffffffffff16815260200190815260200160002060008473ffffffffffffffffffffffffffffffffffffffff1673ffffffffffffffffffffffffffffffffffffffff168152602001908152602001600020819055508173ffffffffffffffffffffffffffffffffffffffff168373ffffffffffffffffffffffffffffffffffffffff167f8c5be1e5ebec7d5bd14f71427d1e84f3dd0314c0f7b2291e5b200ac8c7c3b92583604051612ab49190613fa4565b60405180910390a3505050565b612ac96128f0565b73ffffffffffffffffffffffffffffffffffffffff16612ae7611b64565b73ffffffffffffffffffffffffffffffffffffffff1614612b3d576040517f08c379a0000000000000000000000000000000000000000000000000000000008152600401612b34906154bc565b60405180910390fd5b565b600080831480612b67575081838385612b589190614f69565b925082612b6591906146ac565b145b612b7057600080fd5b92915050565b60007f80000000000000000000000000000000000000000000000000000000000000008210612ba457600080fd5b819050919050565b60008183612bba91906154e6565b905092915050565b600080821215612bd157600080fd5b819050919050565b6000612be58484612479565b90507fffffffffffffffffffffffffffffffffffffffffffffffffffffffffffffffff8114612c5f5781811015612c51576040517f08c379a0000000000000000000000000000000000000000000000000000000008152600401612c4890615576565b60405180910390fd5b612c5e84848484036128f8565b5b50505050565b600073ffffffffffffffffffffffffffffffffffffffff168373ffffffffffffffffffffffffffffffffffffffff1603612cd4576040517f08c379a0000000000000000000000000000000000000000000000000000000008152600401612ccb90615608565b60405180910390fd5b600073ffffffffffffffffffffffffffffffffffffffff168273ffffffffffffffffffffffffffffffffffffffff1603612d43576040517f08c379a0000000000000000000000000000000000000000000000000000000008152600401612d3a9061569a565b60405180910390fd5b60008103612d5c57612d5783836000613873565b6134c5565b601e60019054906101000a900460ff1615612fbe57601260009054906101000a900473ffffffffffffffffffffffffffffffffffffffff1673ffffffffffffffffffffffffffffffffffffffff168373ffffffffffffffffffffffffffffffffffffffff161480612e1a5750601260009054906101000a900473ffffffffffffffffffffffffffffffffffffffff1673ffffffffffffffffffffffffffffffffffffffff168273ffffffffffffffffffffffffffffffffffffffff16145b8015612e76575060001515601d60008573ffffffffffffffffffffffffffffffffffffffff1673ffffffffffffffffffffffffffffffffffffffff16815260200190815260200160002060009054906101000a900460ff161515145b8015612ed2575060001515601d60008473ffffffffffffffffffffffffffffffffffffffff1673ffffffffffffffffffffffffffffffffffffffff16815260200190815260200160002060009054906101000a900460ff161515145b15612fbd57601260009054906101000a900473ffffffffffffffffffffffffffffffffffffffff1673ffffffffffffffffffffffffffffffffffffffff168373ffffffffffffffffffffffffffffffffffffffff1603612f7657601f54811115612f71576040517f08c379a0000000000000000000000000000000000000000000000000000000008152600401612f689061572c565b60405180910390fd5b612fbc565b602054811115612fbb576040517f08c379a0000000000000000000000000000000000000000000000000000000008152600401612fb29061572c565b60405180910390fd5b5b5b5b601b60019054906101000a900460ff16156131425760001515601a60008573ffffffffffffffffffffffffffffffffffffffff1673ffffffffffffffffffffffffffffffffffffffff16815260200190815260200160002060009054906101000a900460ff161515148015613083575060001515601a60008473ffffffffffffffffffffffffffffffffffffffff1673ffffffffffffffffffffffffffffffffffffffff16815260200190815260200160002060009054906101000a900460ff161515145b80156130dd5750601260009054906101000a900473ffffffffffffffffffffffffffffffffffffffff1673ffffffffffffffffffffffffffffffffffffffff168273ffffffffffffffffffffffffffffffffffffffff1614155b156131415760006130ed836119fd565b9050601c5482826130fe9190614a11565b111561313f576040517f08c379a0000000000000000000000000000000000000000000000000000000008152600401613136906157be565b60405180910390fd5b505b5b600061314d306119fd565b905060006014548210159050601560009054906101000a900460ff1680156131725750805b801561318b5750601560019054906101000a900460ff16155b80156131e15750601960008673ffffffffffffffffffffffffffffffffffffffff1673ffffffffffffffffffffffffffffffffffffffff16815260200190815260200160002060009054906101000a900460ff16155b801561320257506000600c600201546009600201546132009190614a11565b115b15613295576001601560016101000a81548160ff0219169083151502179055506000600c6001015460096001015461323a9190614a11565b905060008311801561324c5750600081115b15613278576000606482856132619190614f69565b61326b91906146ac565b905061327681613ae9565b505b6000601560016101000a81548160ff021916908315150217905550505b6000601560019054906101000a900460ff16159050601860008773ffffffffffffffffffffffffffffffffffffffff1673ffffffffffffffffffffffffffffffffffffffff16815260200190815260200160002060009054906101000a900460ff168061334b5750601860008673ffffffffffffffffffffffffffffffffffffffff1673ffffffffffffffffffffffffffffffffffffffff16815260200190815260200160002060009054906101000a900460ff165b1561335557600090505b601260009054906101000a900473ffffffffffffffffffffffffffffffffffffffff1673ffffffffffffffffffffffffffffffffffffffff168673ffffffffffffffffffffffffffffffffffffffff16141580156134015750601260009054906101000a900473ffffffffffffffffffffffffffffffffffffffff1673ffffffffffffffffffffffffffffffffffffffff168573ffffffffffffffffffffffffffffffffffffffff1614155b1561340b57600090505b80156134b6576000601260009054906101000a900473ffffffffffffffffffffffffffffffffffffffff1673ffffffffffffffffffffffffffffffffffffffff168773ffffffffffffffffffffffffffffffffffffffff160361347557600960020154905061347e565b600c6002015490505b60006064828761348e9190614f69565b61349891906146ac565b905080866134a691906150b4565b95506134b3883083613873565b50505b6134c1868686613873565b5050505b505050565b6000600860009054906101000a900473ffffffffffffffffffffffffffffffffffffffff16905081600860006101000a81548173ffffffffffffffffffffffffffffffffffffffff021916908373ffffffffffffffffffffffffffffffffffffffff1602179055508173ffffffffffffffffffffffffffffffffffffffff168173ffffffffffffffffffffffffffffffffffffffff167f8be0079c531659141344cd1fd0a4f28419497f9722a3daafe3b4186f6b6457e060405160405180910390a35050565b801515601960008473ffffffffffffffffffffffffffffffffffffffff1673ffffffffffffffffffffffffffffffffffffffff16815260200190815260200160002060009054906101000a900460ff16151503613622576040517f08c379a000000000000000000000000000000000000000000000000000000000815260040161361990615850565b60405180910390fd5b80601960008473ffffffffffffffffffffffffffffffffffffffff1673ffffffffffffffffffffffffffffffffffffffff16815260200190815260200160002060006101000a81548160ff02191690831515021790555080601660008473ffffffffffffffffffffffffffffffffffffffff1673ffffffffffffffffffffffffffffffffffffffff16815260200190815260200160002060006101000a81548160ff0219169083151502179055508015158273ffffffffffffffffffffffffffffffffffffffff167fffa9187bf1f18bf477bd0ea1bcbb64e93b6a98132473929edfce215cd9b16fab60405160405180910390a35050565b600082828461372991906150b4565b915081111561373757600080fd5b92915050565b6000808473ffffffffffffffffffffffffffffffffffffffff1663a9059cbb858560405160240161376f929190614397565b6040516020818303038152906040529060e01b6020820180517bffffffffffffffffffffffffffffffffffffffffffffffffffffffff83818316178352505050506040516137bd91906158b7565b6000604051808303816000865af19150503d80600081146137fa576040519150601f19603f3d011682016040523d82523d6000602084013e6137ff565b606091505b509150915081801561382d575060008151148061382c57508080602001905181019061382b91906158e3565b5b5b61386c576040517f08c379a00000000000000000000000000000000000000000000000000000000081526004016138639061595c565b60405180910390fd5b5050505050565b600073ffffffffffffffffffffffffffffffffffffffff168373ffffffffffffffffffffffffffffffffffffffff16036138e2576040517f08c379a00000000000000000000000000000000000000000000000000000000081526004016138d990615608565b60405180910390fd5b600073ffffffffffffffffffffffffffffffffffffffff168273ffffffffffffffffffffffffffffffffffffffff1603613951576040517f08c379a00000000000000000000000000000000000000000000000000000000081526004016139489061569a565b60405180910390fd5b61395c838383613e45565b60008060008573ffffffffffffffffffffffffffffffffffffffff1673ffffffffffffffffffffffffffffffffffffffff168152602001908152602001600020549050818110156139e2576040517f08c379a00000000000000000000000000000000000000000000000000000000081526004016139d9906159ee565b60405180910390fd5b8181036000808673ffffffffffffffffffffffffffffffffffffffff1673ffffffffffffffffffffffffffffffffffffffff16815260200190815260200160002081905550816000808573ffffffffffffffffffffffffffffffffffffffff1673ffffffffffffffffffffffffffffffffffffffff168152602001908152602001600020600082825401925050819055508273ffffffffffffffffffffffffffffffffffffffff168473ffffffffffffffffffffffffffffffffffffffff167fddf252ad1be2c89b69c2b068fc378daa952ba7f163c4a11628f55a4df523b3ef84604051613ad09190613fa4565b60405180910390a3613ae3848484613e4a565b50505050565b6000600267ffffffffffffffff811115613b0657613b05615a0e565b5b604051908082528060200260200182016040528015613b345781602001602082028036833780820191505090505b5090503081600081518110613b4c57613b4b61503d565b5b602002602001019073ffffffffffffffffffffffffffffffffffffffff16908173ffffffffffffffffffffffffffffffffffffffff16815250507f000000000000000000000000000000000000000000000000000000000000000081600181518110613bbb57613bba61503d565b5b602002602001019073ffffffffffffffffffffffffffffffffffffffff16908173ffffffffffffffffffffffffffffffffffffffff1681525050613c2230601160009054906101000a900473ffffffffffffffffffffffffffffffffffffffff16846128f8565b60007f000000000000000000000000000000000000000000000000000000000000000073ffffffffffffffffffffffffffffffffffffffff166370a08231306040518263ffffffff1660e01b8152600401613c7d919061437c565b602060405180830381865afa158015613c9a573d6000803e3d6000fd5b505050506040513d601f19601f82011682018060405250810190613cbe919061531f565b9050601160009054906101000a900473ffffffffffffffffffffffffffffffffffffffff1673ffffffffffffffffffffffffffffffffffffffff16635c11d7958460008530426040518663ffffffff1660e01b8152600401613d24959493929190615b36565b600060405180830381600087803b158015613d3e57600080fd5b505af1158015613d52573d6000803e3d6000fd5b505050506000817f000000000000000000000000000000000000000000000000000000000000000073ffffffffffffffffffffffffffffffffffffffff166370a08231306040518263ffffffff1660e01b8152600401613db2919061437c565b602060405180830381865afa158015613dcf573d6000803e3d6000fd5b505050506040513d601f19601f82011682018060405250810190613df3919061531f565b613dfd91906150b4565b9050613e0881613e4f565b7fb0cc2628d6d644cf6be9d8110e142297ac910d6d8026d795a99f272fd9ad60b181604051613e379190613fa4565b60405180910390a150505050565b505050565b505050565b6000613e7d7f000000000000000000000000000000000000000000000000000000000000000063ffffffff16565b905060008111613ec2576040517f08c379a0000000000000000000000000000000000000000000000000000000008152600401613eb990615bdc565b60405180910390fd5b6000821115613f6457613f0f81613ef46fffffffffffffffffffffffffffffffff801685612b3f90919063ffffffff16565b613efe91906146ac565b600554613f6890919063ffffffff16565b6005819055503373ffffffffffffffffffffffffffffffffffffffff167fa493a9229478c3fcd73f66d2cdeb7f94fd0f341da924d1054236d7845411651183604051613f5b9190613fa4565b60405180910390a25b5050565b6000828284613f779190614a11565b9150811015613f8557600080fd5b92915050565b6000819050919050565b613f9e81613f8b565b82525050565b6000602082019050613fb96000830184613f95565b92915050565b600081519050919050565b600082825260208201905092915050565b60005b83811015613ff9578082015181840152602081019050613fde565b60008484015250505050565b6000601f19601f8301169050919050565b600061402182613fbf565b61402b8185613fca565b935061403b818560208601613fdb565b61404481614005565b840191505092915050565b600060208201905081810360008301526140698184614016565b905092915050565b600080fd5b600073ffffffffffffffffffffffffffffffffffffffff82169050919050565b60006140a182614076565b9050919050565b6140b181614096565b81146140bc57600080fd5b50565b6000813590506140ce816140a8565b92915050565b6140dd81613f8b565b81146140e857600080fd5b50565b6000813590506140fa816140d4565b92915050565b6000806040838503121561411757614116614071565b5b6000614125858286016140bf565b9250506020614136858286016140eb565b9150509250929050565b60008115159050919050565b61415581614140565b82525050565b6000602082019050614170600083018461414c565b92915050565b61417f81614140565b811461418a57600080fd5b50565b60008135905061419c81614176565b92915050565b600080604083850312156141b9576141b8614071565b5b60006141c7858286016140bf565b92505060206141d88582860161418d565b9150509250929050565b6000819050919050565b60006142076142026141fd84614076565b6141e2565b614076565b9050919050565b6000614219826141ec565b9050919050565b600061422b8261420e565b9050919050565b61423b81614220565b82525050565b60006020820190506142566000830184614232565b92915050565b60006020828403121561427257614271614071565b5b6000614280848285016140bf565b91505092915050565b6000806000606084860312156142a2576142a1614071565b5b60006142b0868287016140bf565b93505060206142c1868287016140bf565b92505060406142d2868287016140eb565b9150509250925092565b6000602082840312156142f2576142f1614071565b5b6000614300848285016140eb565b91505092915050565b60006020828403121561431f5761431e614071565b5b600061432d8482850161418d565b91505092915050565b600060ff82169050919050565b61434c81614336565b82525050565b60006020820190506143676000830184614343565b92915050565b61437681614096565b82525050565b6000602082019050614391600083018461436d565b92915050565b60006040820190506143ac600083018561436d565b6143b96020830184613f95565b9392505050565b6000806000606084860312156143d9576143d8614071565b5b60006143e7868287016140eb565b93505060206143f8868287016140eb565b9250506040614409868287016140eb565b9150509250925092565b6000806040838503121561442a57614429614071565b5b6000614438858286016140eb565b9250506020614449858286016140eb565b9150509250929050565b6000806040838503121561446a57614469614071565b5b6000614478858286016140bf565b9250506020614489858286016140bf565b9150509250929050565b60006060820190506144a86000830186613f95565b6144b56020830185613f95565b6144c26040830184613f95565b949350505050565b7f4e487b7100000000000000000000000000000000000000000000000000000000600052602260045260246000fd5b6000600282049050600182168061451157607f821691505b602082108103614524576145236144ca565b5b50919050565b7f4d6178207472616e73616374696f6e206c696d6974206973206e6f742061766160008201527f696c61626c650000000000000000000000000000000000000000000000000000602082015250565b6000614586602683613fca565b91506145918261452a565b604082019050919050565b600060208201905081810360008301526145b581614579565b9050919050565b7f4163636f756e7420697320616c72656164792073657420746f2074686174207360008201527f7461746500000000000000000000000000000000000000000000000000000000602082015250565b6000614618602483613fca565b9150614623826145bc565b604082019050919050565b600060208201905081810360008301526146478161460b565b9050919050565b7f4e487b7100000000000000000000000000000000000000000000000000000000600052601260045260246000fd5b7f4e487b7100000000000000000000000000000000000000000000000000000000600052601160045260246000fd5b60006146b782613f8b565b91506146c283613f8b565b9250826146d2576146d161464e565b5b828204905092915050565b7f4d61782077616c6c6574206c696d6974206973206e6f7420617661696c61626c60008201527f6500000000000000000000000000000000000000000000000000000000000000602082015250565b6000614739602183613fca565b9150614744826146dd565b604082019050919050565b600060208201905081810360008301526147688161472c565b9050919050565b60008160011c9050919050565b6000808291508390505b60018511156147c6578086048111156147a2576147a161467d565b5b60018516156147b15780820291505b80810290506147bf8561476f565b9450614786565b94509492505050565b6000826147df576001905061489b565b816147ed576000905061489b565b8160018114614803576002811461480d5761483c565b600191505061489b565b60ff84111561481f5761481e61467d565b5b8360020a9150848211156148365761483561467d565b5b5061489b565b5060208310610133831016604e8410600b84101617156148715782820a90508381111561486c5761486b61467d565b5b61489b565b61487e848484600161477c565b925090508184048111156148955761489461467d565b5b81810290505b9392505050565b60006148ad82613f8b565b91506148b883614336565b92506148e57fffffffffffffffffffffffffffffffffffffffffffffffffffffffffffffffff84846147cf565b905092915050565b7f4d61782077616c6c65742070657263656e746167652063616e6e6f742062652060008201527f6c6f776572207468616e20312500000000000000000000000000000000000000602082015250565b6000614949602d83613fca565b9150614954826148ed565b604082019050919050565b600060208201905081810360008301526149788161493c565b9050919050565b7f4d61782077616c6c6574206c696d697420697320616c7265616479207365742060008201527f746f207468617420737461746500000000000000000000000000000000000000602082015250565b60006149db602d83613fca565b91506149e68261497f565b604082019050919050565b60006020820190508181036000830152614a0a816149ce565b9050919050565b6000614a1c82613f8b565b9150614a2783613f8b565b9250828201905080821115614a3f57614a3e61467d565b5b92915050565b7f4275796261636b2077616c6c657420697320616c72656164792074686174206160008201527f6464726573730000000000000000000000000000000000000000000000000000602082015250565b6000614aa1602683613fca565b9150614aac82614a45565b604082019050919050565b60006020820190508181036000830152614ad081614a94565b9050919050565b7f4d6178207472616e73616374696f6e206c696d697420697320616c726561647960008201527f2073657420746f20746861742073746174650000000000000000000000000000602082015250565b6000614b33603283613fca565b9150614b3e82614ad7565b604082019050919050565b60006020820190508181036000830152614b6281614b26565b9050919050565b7f54686520726f7574657220616c7265616479206861732074686174206164647260008201527f6573730000000000000000000000000000000000000000000000000000000000602082015250565b6000614bc5602383613fca565b9150614bd082614b69565b604082019050919050565b60006020820190508181036000830152614bf481614bb8565b9050919050565b600081519050614c0a816140a8565b92915050565b600060208284031215614c2657614c25614071565b5b6000614c3484828501614bfb565b91505092915050565b6000604082019050614c52600083018561436d565b614c5f602083018461436d565b9392505050565b7f46656573206d757374206265206c657373207468616e20323525000000000000600082015250565b6000614c9c601a83613fca565b9150614ca782614c66565b602082019050919050565b60006020820190508181036000830152614ccb81614c8f565b9050919050565b6000604082019050614ce76000830185613f95565b614cf46020830184613f95565b9392505050565b7f5468652050616e63616b655377617020706169722063616e6e6f74206265207260008201527f656d6f7665642066726f6d206175746f6d617465644d61726b65744d616b657260208201527f5061697273000000000000000000000000000000000000000000000000000000604082015250565b6000614d7d604583613fca565b9150614d8882614cfb565b606082019050919050565b60006020820190508181036000830152614dac81614d70565b9050919050565b7f45524332303a2064656372656173656420616c6c6f77616e63652062656c6f7760008201527f207a65726f000000000000000000000000000000000000000000000000000000602082015250565b6000614e0f602583613fca565b9150614e1a82614db3565b604082019050919050565b60006020820190508181036000830152614e3e81614e02565b9050919050565b7f4e657720416d6f756e74206d757374206d6f7265207468616e20302e3030303160008201527f25206f6620746f74616c20737570706c79000000000000000000000000000000602082015250565b6000614ea1603183613fca565b9150614eac82614e45565b604082019050919050565b60006020820190508181036000830152614ed081614e94565b9050919050565b7f4d6178205472616e73616374696f6e206c696d69732063616e6e6f742062652060008201527f6c6f776572207468616e20302e3125206f6620746f74616c20737570706c7900602082015250565b6000614f33603f83613fca565b9150614f3e82614ed7565b604082019050919050565b60006020820190508181036000830152614f6281614f26565b9050919050565b6000614f7482613f8b565b9150614f7f83613f8b565b9250828202614f8d81613f8b565b91508282048414831517614fa457614fa361467d565b5b5092915050565b7f4163636f756e7420697320616c7265616479207468652076616c7565206f662060008201527f276578636c756465642700000000000000000000000000000000000000000000602082015250565b6000615007602a83613fca565b915061501282614fab565b604082019050919050565b6000602082019050818103600083015261503681614ffa565b9050919050565b7f4e487b7100000000000000000000000000000000000000000000000000000000600052603260045260246000fd5b600061507782613f8b565b91507fffffffffffffffffffffffffffffffffffffffffffffffffffffffffffffffff82036150a9576150a861467d565b5b600182019050919050565b60006150bf82613f8b565b91506150ca83613f8b565b92508282039050818111156150e2576150e161467d565b5b92915050565b7f5377617020697320616c72656164792073657420746f2074686174207374617460008201527f6500000000000000000000000000000000000000000000000000000000000000602082015250565b6000615144602183613fca565b915061514f826150e8565b604082019050919050565b6000602082019050818103600083015261517381615137565b9050919050565b7f4f776e61626c653a206e6577206f776e657220697320746865207a65726f206160008201527f6464726573730000000000000000000000000000000000000000000000000000602082015250565b60006151d6602683613fca565b91506151e18261517a565b604082019050919050565b60006020820190508181036000830152615205816151c9565b9050919050565b7f4f776e65722063616e6e6f7420636c61696d206e617469766520746f6b656e73600082015250565b6000615242602083613fca565b915061524d8261520c565b602082019050919050565b6000602082019050818103600083015261527181615235565b9050919050565b7f4f776e65722063616e6e6f7420636c61696d207265776172647320746f6b656e60008201527f7300000000000000000000000000000000000000000000000000000000000000602082015250565b60006152d4602183613fca565b91506152df82615278565b604082019050919050565b60006020820190508181036000830152615303816152c7565b9050919050565b600081519050615319816140d4565b92915050565b60006020828403121561533557615334614071565b5b60006153438482850161530a565b91505092915050565b7f45524332303a20617070726f76652066726f6d20746865207a65726f2061646460008201527f7265737300000000000000000000000000000000000000000000000000000000602082015250565b60006153a8602483613fca565b91506153b38261534c565b604082019050919050565b600060208201905081810360008301526153d78161539b565b9050919050565b7f45524332303a20617070726f766520746f20746865207a65726f20616464726560008201527f7373000000000000000000000000000000000000000000000000000000000000602082015250565b600061543a602283613fca565b9150615445826153de565b604082019050919050565b600060208201905081810360008301526154698161542d565b9050919050565b7f4f776e61626c653a2063616c6c6572206973206e6f7420746865206f776e6572600082015250565b60006154a6602083613fca565b91506154b182615470565b602082019050919050565b600060208201905081810360008301526154d581615499565b9050919050565b6000819050919050565b60006154f1826154dc565b91506154fc836154dc565b9250828201905082811215600083121683821260008412151617156155245761552361467d565b5b92915050565b7f45524332303a20696e73756666696369656e7420616c6c6f77616e6365000000600082015250565b6000615560601d83613fca565b915061556b8261552a565b602082019050919050565b6000602082019050818103600083015261558f81615553565b9050919050565b7f45524332303a207472616e736665722066726f6d20746865207a65726f20616460008201527f6472657373000000000000000000000000000000000000000000000000000000602082015250565b60006155f2602583613fca565b91506155fd82615596565b604082019050919050565b60006020820190508181036000830152615621816155e5565b9050919050565b7f45524332303a207472616e7366657220746f20746865207a65726f206164647260008201527f6573730000000000000000000000000000000000000000000000000000000000602082015250565b6000615684602383613fca565b915061568f82615628565b604082019050919050565b600060208201905081810360008301526156b381615677565b9050919050565b7f416e74695768616c653a205472616e7366657220616d6f756e7420657863656560008201527f647320746865206d61785472616e73616374696f6e416d6f756e740000000000602082015250565b6000615716603b83613fca565b9150615721826156ba565b604082019050919050565b6000602082019050818103600083015261574581615709565b9050919050565b7f4d617857616c6c65743a20526563697069656e7420657863656564732074686560008201527f206d617857616c6c6574416d6f756e7400000000000000000000000000000000602082015250565b60006157a8603083613fca565b91506157b38261574c565b604082019050919050565b600060208201905081810360008301526157d78161579b565b9050919050565b7f4175746f6d61746564206d61726b6574206d616b65722070616972206973206160008201527f6c72656164792073657420746f20746861742076616c75650000000000000000602082015250565b600061583a603883613fca565b9150615845826157de565b604082019050919050565b600060208201905081810360008301526158698161582d565b9050919050565b600081519050919050565b600081905092915050565b600061589182615870565b61589b818561587b565b93506158ab818560208601613fdb565b80840191505092915050565b60006158c38284615886565b915081905092915050565b6000815190506158dd81614176565b92915050565b6000602082840312156158f9576158f8614071565b5b6000615907848285016158ce565b91505092915050565b7f5472616e7366657248656c7065723a205452414e534645525f4641494c454400600082015250565b6000615946601f83613fca565b915061595182615910565b602082019050919050565b6000602082019050818103600083015261597581615939565b9050919050565b7f45524332303a207472616e7366657220616d6f756e742065786365656473206260008201527f616c616e63650000000000000000000000000000000000000000000000000000602082015250565b60006159d8602683613fca565b91506159e38261597c565b604082019050919050565b60006020820190508181036000830152615a07816159cb565b9050919050565b7f4e487b7100000000000000000000000000000000000000000000000000000000600052604160045260246000fd5b6000819050919050565b6000615a62615a5d615a5884615a3d565b6141e2565b613f8b565b9050919050565b615a7281615a47565b82525050565b600081519050919050565b600082825260208201905092915050565b6000819050602082019050919050565b615aad81614096565b82525050565b6000615abf8383615aa4565b60208301905092915050565b6000602082019050919050565b6000615ae382615a78565b615aed8185615a83565b9350615af883615a94565b8060005b83811015615b29578151615b108882615ab3565b9750615b1b83615acb565b925050600181019050615afc565b5085935050505092915050565b600060a082019050615b4b6000830188613f95565b615b586020830187615a69565b8181036040830152615b6a8186615ad8565b9050615b79606083018561436d565b615b866080830184613f95565b9695505050505050565b7f4e6f207368617265732063697263756c6174696e670000000000000000000000600082015250565b6000615bc6601583613fca565b9150615bd182615b90565b602082019050919050565b60006020820190508181036000830152615bf581615bb9565b905091905056fea26469706673582212204dbedcdb1390b13df902bcdecd12338e10335f800031231d238a16416f229a8564736f6c63430008130033",
  "immutableReferences": {
    "2188": [
      {
        "length": 32,
        "start": 4208
      }
    ],
    "2194": [
      {
        "length": 32,
        "start": 15958
      }
    ],
    "6843": [
      {
        "length": 32,
        "start": 9910
      },
      {
        "length": 32,
        "start": 10064
      },
      {
        "length": 32,
        "start": 15240
      },
      {
        "length": 32,
        "start": 15398
      },
      {
        "length": 32,
        "start": 15707
      }
    ]
  },
  "source": "// SPDX-License-Identifier: UNLICENSED\npragma solidity 0.8.19;\n\nimport \"@openzeppelin/contracts/token/ERC20/IERC20.sol\";\nimport \"@openzeppelin/contracts/token/ERC20/ERC20.sol\";\nimport \"@openzeppelin/contracts/access/Ownable.sol\";\nimport \"@openzeppelin/contracts/utils/Context.sol\";\nimport \"@openzeppelin/contracts/utils/Address.sol\";\nimport \"@uniswap/v2-periphery/contracts/interfaces/IUniswapV2Router02.sol\";\nimport \"@uniswap/v2-core/contracts/interfaces/IUniswapV2Factory.sol\";\nimport \"@uniswap/lib/contracts/libraries/TransferHelper.sol\";\nimport \"./AbstractDividends.sol\";\n\ncontract XhypeV2 is ERC20, AbstractDividends, Ownable {\n    event ExcludeFromFees(address indexed account, bool isExcluded);\n    event ExcludedFromMaxTransactionLimit(\n        address indexed account,\n        bool isExcluded\n    );\n    event ExcludedFromMaxWalletLimit(address indexed account, bool isExcluded);\n    event UpdateBuyFees(\n        uint liquidityFeeOnBuy,\n        uint rewardFeeOnBuy\n    );\n    event UpdateSellFees(\n        uint liquidityFeeOnSell,\n        uint rewardFeeOnSell\n    );\n    event MarketingWalletChanged(address marketingWallet);\n    event BuybackWalletChanged(address buybackWallet);\n    event SalaryWalletChanged(address salaryWallet);\n    event StakingWalletChanged(address stakingWallet);\n    event MaxWalletLimitRateChanged(uint maxWalletLimitRate);\n    event MaxWalletLimitStateChanged(bool maxWalletLimit);\n    event MaxTransactionLimitRatesChanged(\n        uint maxTransferRateBuy,\n        uint maxTransferRateSell\n    );\n    event MaxTransactionLimitStateChanged(bool maxTransactionLimit);\n    event SetAutomatedMarketMakerPair(address indexed pair, bool indexed value);\n    event SwapAndLiquify(\n        uint tokensSwapped,\n        uint bnbReceived,\n        uint tokensIntoLiqudity\n    );\n    event SendMarketing(uint bnbSend);\n    event SendBuyback(uint bnbSend);\n    event SendSalary(uint bnbSend);\n    event SendStaking(uint tokenSend);\n    event UpdateUniswapV2Router(\n        address indexed newAddress,\n        address indexed oldAddress\n    );\n    event SendDividends(uint amount);\n\n    using Address for address;\n    using Address for address payable;\n\n    struct Fees {\n        uint liquidity;\n        uint reward;                \n        uint total;\n    }\n\n    Fees public buyFees = Fees(1, 1, 2);\n    Fees public sellFees = Fees(1, 1, 2);\n    \n    struct Config {\n        address treasuryWallet;\n        uint totalSupply;\n    }\n\n    Config public config =\n        Config(\n            address(0xBbb422b9464DDa298E87eDf776Ea2D974C3a84bA),            \n            1000000000 ether\n        );\n\n    IUniswapV2Router02 public uniswapV2Router;\n    address public uniswapV2Pair;\n\n    address private DEAD = 0x000000000000000000000000000000000000dEaD;\n\n    uint public swapTokensAtAmount;\n    bool public swapEnabled;    \n    bool private swapping;\n\n    mapping(address => bool) private _isExcludedFromDividends;\n    address[] private _excludedFromDividends;\n    mapping(address => bool) private _isExcludedFromFees;\n    mapping(address => bool) public automatedMarketMakerPairs;\n\n    address public immutable rewardToken;\n\n    uint private constant MAX_TOTAL_FEE = 10; //25%\n    \n    constructor(\n        address _rewardToken,\n        address router\n    )\n        payable\n        ERC20(\"XHype\", \"XHP\")\n        AbstractDividends(getSharesOf, totalShareableSupply)\n    {\n        rewardToken = _rewardToken;\n\n        IUniswapV2Router02 _uniswapV2Router = IUniswapV2Router02(router);\n        address _uniswapV2Pair = IUniswapV2Factory(_uniswapV2Router.factory())\n            .createPair(address(this), _uniswapV2Router.WETH());\n\n        uniswapV2Router = _uniswapV2Router;\n        uniswapV2Pair = _uniswapV2Pair;\n\n        // _approve(address(this), address(uniswapV2Router), type(uint).max);\n\n        _setAutomatedMarketMakerPair(_uniswapV2Pair, true);\n\n        _isExcludedFromDividends[owner()]; //Verificar si quieren excluir al owner/wallet de treasury\n        _isExcludedFromDividends[address(this)];\n        _isExcludedFromDividends[DEAD];\n        _isExcludedFromDividends[config.treasuryWallet];\n        _isExcludedFromDividends[address(_uniswapV2Router)];\n\n        _isExcludedFromMaxTxLimit[owner()] = true;\n        _isExcludedFromMaxTxLimit[address(0)] = true;\n        _isExcludedFromMaxTxLimit[address(this)] = true;\n        _isExcludedFromMaxTxLimit[DEAD] = true;\n        _isExcludedFromMaxTxLimit[config.treasuryWallet] = true;\n\n        _isExcludedFromMaxWalletLimit[owner()] = true;\n        _isExcludedFromMaxWalletLimit[address(0)] = true;\n        _isExcludedFromMaxWalletLimit[address(this)] = true;\n        _isExcludedFromMaxWalletLimit[DEAD] = true;\n        _isExcludedFromMaxWalletLimit[config.treasuryWallet] = true;\n\n        _isExcludedFromFees[owner()] = true;\n        _isExcludedFromFees[address(this)] = true;\n        _isExcludedFromFees[DEAD] = true;\n        _isExcludedFromFees[config.treasuryWallet] = true;\n\n        swapEnabled = true;\n        swapTokensAtAmount = (config.totalSupply * (10 ** 18)) / 5000;\n        _mint(owner(), config.totalSupply * (10 ** 18));\n    }\n\n    function getSharesOf(address _user) public view returns (uint) {\n        if (_isExcludedFromDividends[_user]) {\n            return 0;\n        }\n        return balanceOf(_user);\n    }\n\n    function totalShareableSupply() public view returns (uint) {\n        uint excludedSupply;\n        for (uint i; i < _excludedFromDividends.length; i++) {\n            excludedSupply += balanceOf(_excludedFromDividends[i]);\n        }\n        return totalSupply() - excludedSupply;\n    }\n\n    receive() external payable {}\n\n    function claimStuckTokens(address token) external onlyOwner {\n        require(token != address(this), \"Owner cannot claim native tokens\");\n        require(token != rewardToken, \"Owner cannot claim rewards tokens\");\n        if (token == address(0x0)) {\n            payable(msg.sender).transfer(address(this).balance);\n            return;\n        }\n        IERC20 ERC20token = IERC20(token);\n        uint balance = ERC20token.balanceOf(address(this));\n        TransferHelper.safeTransfer(token, msg.sender, balance);        \n    }\n\n    function isContract(address account) internal view returns (bool) {\n        return account.code.length > 0;\n    }\n\n    function updateUniswapV2Router(address newAddress) external onlyOwner {\n        require(\n            newAddress != address(uniswapV2Router),\n            \"The router already has that address\"\n        );\n        emit UpdateUniswapV2Router(newAddress, address(uniswapV2Router));\n        uniswapV2Router = IUniswapV2Router02(newAddress);\n        address _uniswapV2Pair = IUniswapV2Factory(uniswapV2Router.factory())\n            .createPair(address(this), uniswapV2Router.WETH());\n        uniswapV2Pair = _uniswapV2Pair;\n    }\n\n    function setAutomatedMarketMakerPair(\n        address pair,\n        bool value\n    ) external onlyOwner {\n        require(\n            pair != uniswapV2Pair,\n            \"The PancakeSwap pair cannot be removed from automatedMarketMakerPairs\"\n        );\n        _setAutomatedMarketMakerPair(pair, value);\n    }\n\n    function _setAutomatedMarketMakerPair(address pair, bool value) private {\n        require(\n            automatedMarketMakerPairs[pair] != value,\n            \"Automated market maker pair is already set to that value\"\n        );\n        automatedMarketMakerPairs[pair] = value;\n        _isExcludedFromDividends[pair] = value;        \n\n        emit SetAutomatedMarketMakerPair(pair, value);\n    }\n\n    //=======FeeManagement=======//\n    function excludeFromFees(\n        address account,\n        bool excluded\n    ) external onlyOwner {\n        require(\n            _isExcludedFromFees[account] != excluded,\n            \"Account is already the value of 'excluded'\"\n        );\n        _isExcludedFromFees[account] = excluded;\n\n        emit ExcludeFromFees(account, excluded);\n    }\n\n    function isExcludedFromFees(address account) public view returns (bool) {\n        return _isExcludedFromFees[account];\n    }\n\n    function updateBuyFees(\n        uint _liquidity,\n        uint _reward,\n        uint _staking\n    ) external onlyOwner {\n        require(\n            _liquidity + _reward + _staking <=\n                25,\n            \"Fees must be less than 25%\"\n        );\n        buyFees.liquidity = _liquidity;\n        buyFees.reward = _reward;\n        buyFees.total =\n            buyFees.liquidity +\n            buyFees.reward;\n        \n        emit UpdateBuyFees(\n            _liquidity,\n            _reward\n        );\n    }\n\n    function updateSellFees(\n        uint _liquidity,\n        uint _reward,\n        uint _staking\n    ) external onlyOwner {\n        require(\n            _liquidity + _reward + _staking <=\n                25,\n            \"Fees must be less than 25%\"\n        );\n        sellFees.liquidity = _liquidity;\n        sellFees.reward = _reward;\n        sellFees.total =\n            sellFees.liquidity +\n            sellFees.reward;\n        \n        emit UpdateSellFees(\n            _liquidity,\n            _reward\n        );\n    }\n\n\n    function changeTreasurykWallet(address _treasurykWallet) external onlyOwner {\n        require(\n            _treasurykWallet != config.treasuryWallet,\n            \"Buyback wallet is already that address\"\n        );        \n        config.treasuryWallet = _treasurykWallet;\n        emit BuybackWalletChanged(config.treasuryWallet);\n    }\n\n    function swapAndSendFee(\n        uint amount,\n        address feeReceiver,\n        address currency\n    ) private {\n        address[] memory path = new address[](2);\n        path[0] = uniswapV2Router.WETH();\n        path[1] = currency;\n\n        uniswapV2Router.swapExactETHForTokensSupportingFeeOnTransferTokens{\n            value: amount\n        }(0, path, feeReceiver, block.timestamp);\n    }\n\n    function _transfer(\n        address from,\n        address to,\n        uint amount\n    ) internal override {\n        require(from != address(0), \"ERC20: transfer from the zero address\");\n        require(to != address(0), \"ERC20: transfer to the zero address\");\n\n        if (amount == 0) {\n            super._transfer(from, to, 0);\n            return;\n        }\n\n        if (maxTransactionLimitEnabled) {\n            if (\n                (from == uniswapV2Pair || to == uniswapV2Pair) &&\n                _isExcludedFromMaxTxLimit[from] == false &&\n                _isExcludedFromMaxTxLimit[to] == false\n            ) {\n                if (from == uniswapV2Pair) {\n                    require(\n                        amount <= maxTransactionAmountBuy,\n                        \"AntiWhale: Transfer amount exceeds the maxTransactionAmount\"\n                    );\n                } else {\n                    require(\n                        amount <= maxTransactionAmountSell,\n                        \"AntiWhale: Transfer amount exceeds the maxTransactionAmount\"\n                    );\n                }\n            }\n        }\n\n        if (maxWalletLimitEnabled) {\n            if (\n                _isExcludedFromMaxWalletLimit[from] == false &&\n                _isExcludedFromMaxWalletLimit[to] == false &&\n                to != uniswapV2Pair\n            ) {\n                uint balance = balanceOf(to);\n                require(\n                    balance + amount <= maxWalletAmount,\n                    \"MaxWallet: Recipient exceeds the maxWalletAmount\"\n                );\n            }\n        }\n\n        uint contractTokenBalance = balanceOf(address(this));\n\n        bool canSwap = contractTokenBalance >= swapTokensAtAmount;\n\n        if (\n            swapEnabled &&\n            canSwap &&\n            !swapping &&\n            !automatedMarketMakerPairs[from] &&\n            buyFees.total + sellFees.total > 0\n        ) {\n            swapping = true;\n            \n            uint rewardShare = buyFees.reward + sellFees.reward;\n\n            if (contractTokenBalance > 0 && rewardShare > 0) {\n                uint rewards = (contractTokenBalance * rewardShare) / 100;\n                swapAndSendDividends(rewards);\n            }\n\n            swapping = false;\n        }\n\n        bool takeFee = !swapping;\n\n        if (_isExcludedFromFees[from] || _isExcludedFromFees[to]) {\n            takeFee = false;\n        }\n\n        if (            \n            from != uniswapV2Pair &&\n            to != uniswapV2Pair\n        ) {\n            takeFee = false;\n        }\n\n        if (takeFee) {\n            uint _totalFees;\n            if (from == uniswapV2Pair) {\n                _totalFees = buyFees.total;\n            } else {\n                _totalFees = sellFees.total;\n            }\n            uint fees = (amount * _totalFees) / 100;\n\n            amount = amount - fees;            \n\n            super._transfer(from, address(this), fees);\n        }\n\n        super._transfer(from, to, amount);\n    }\n\n    //=======Swap=======//\n    function setSwapEnabled(bool _swapEnabled) external onlyOwner {\n        require(\n            swapEnabled != _swapEnabled,\n            \"Swap is already set to that state\"\n        );\n        swapEnabled = _swapEnabled;\n    }\n\n    function setSwapTokensAtAmount(uint newAmount) external onlyOwner {\n        require(\n            newAmount > totalSupply() / 1000000,\n            \"New Amount must more than 0.0001% of total supply\"\n        );\n        swapTokensAtAmount = newAmount;\n    }\n\n    function swapAndLiquify(uint tokens) private {\n        uint half = tokens / 2;\n        uint otherHalf = tokens - half;\n\n        uint initialBalance = address(this).balance;\n\n        address[] memory path = new address[](2);\n        path[0] = address(this);\n        path[1] = uniswapV2Router.WETH();\n\n        _approve(address(this), address(uniswapV2Router), tokens);\n\n        uniswapV2Router.swapExactTokensForETHSupportingFeeOnTransferTokens(\n            half,\n            0, // accept any amount of ETH\n            path,\n            address(this),\n            block.timestamp\n        );\n\n        uint newBalance = address(this).balance - initialBalance;\n\n        uniswapV2Router.addLiquidityETH{value: newBalance}(\n            address(this),\n            otherHalf,\n            0, // slippage is unavoidable\n            0, // slippage is unavoidable\n            DEAD,\n            block.timestamp\n        );\n\n        emit SwapAndLiquify(half, newBalance, otherHalf);\n    }\n\n    //Revisar como se llegar a tener BNBs aca.\n    function swapAndSendDividends(uint amount) private {\n        address[] memory path = new address[](2);\n        // path[0] = uniswapV2Router.WETH();\n        path[0] = address(this);\n        path[1] = rewardToken;\n\n        _approve(address(this), address(uniswapV2Router), amount);\n        \n        uint balanceRewardToken = IERC20(rewardToken).balanceOf(address(this));\n\n        uniswapV2Router\n            .swapExactTokensForTokensSupportingFeeOnTransferTokens(\n                amount,\n                0,\n                path,\n                address(this),\n                block.timestamp\n            );\n\n        uint amountToDistribute = IERC20(rewardToken).balanceOf(address(this)) - balanceRewardToken;\n\n        _distributeDividends(amountToDistribute);\n        emit SendDividends(amountToDistribute);\n    }\n\n    //=======MaxWallet=======//\n    mapping(address => bool) private _isExcludedFromMaxWalletLimit;\n    bool public maxWalletAvailable;\n    bool public maxWalletLimitEnabled;\n    uint public maxWalletAmount;\n\n    modifier _maxWalletAvailable() {\n        require(maxWalletAvailable, \"Max wallet limit is not available\");\n        _;\n    }\n\n    function setEnableMaxWalletLimit(\n        bool enable\n    ) external onlyOwner _maxWalletAvailable {\n        require(\n            enable != maxWalletLimitEnabled,\n            \"Max wallet limit is already set to that state\"\n        );\n        maxWalletLimitEnabled = enable;\n        emit MaxWalletLimitStateChanged(maxWalletLimitEnabled);\n    }\n\n    function setMaxWalletAmount(\n        uint _maxWalletAmount\n    ) external onlyOwner _maxWalletAvailable {\n        require(\n            _maxWalletAmount >= totalSupply() / (10 ** decimals()) / 100,\n            \"Max wallet percentage cannot be lower than 1%\"\n        );\n        maxWalletAmount = _maxWalletAmount;\n        emit MaxWalletLimitRateChanged(maxWalletAmount);\n    }\n\n    function setExcludeFromMaxWallet(\n        address account,\n        bool exclude\n    ) external onlyOwner _maxWalletAvailable {\n        require(\n            _isExcludedFromMaxWalletLimit[account] != exclude,\n            \"Account is already set to that state\"\n        );\n        _isExcludedFromMaxWalletLimit[account] = exclude;\n        emit ExcludedFromMaxWalletLimit(account, exclude);\n    }\n\n    function isExcludedFromMaxWalletLimit(\n        address account\n    ) public view returns (bool) {\n        return _isExcludedFromMaxWalletLimit[account];\n    }\n\n    //=======MaxTransaction=======//\n    mapping(address => bool) private _isExcludedFromMaxTxLimit;\n    bool public maxTransactionAvailable;\n    bool public maxTransactionLimitEnabled;\n    uint public maxTransactionAmountBuy;\n    uint public maxTransactionAmountSell;\n\n    modifier _maxTransactionAvailable() {\n        require(\n            maxTransactionAvailable,\n            \"Max transaction limit is not available\"\n        );\n        _;\n    }\n\n    function setEnableMaxTransactionLimit(\n        bool enable\n    ) external onlyOwner _maxTransactionAvailable {\n        require(\n            enable != maxTransactionLimitEnabled,\n            \"Max transaction limit is already set to that state\"\n        );\n        maxTransactionLimitEnabled = enable;\n        emit MaxTransactionLimitStateChanged(maxTransactionLimitEnabled);\n    }\n\n    function setMaxTransactionAmounts(\n        uint _maxTransactionAmountBuy,\n        uint _maxTransactionAmountSell\n    ) external onlyOwner _maxTransactionAvailable {\n        require(\n            _maxTransactionAmountBuy >=\n                totalSupply() / (10 ** decimals()) / 1000 &&\n                _maxTransactionAmountSell >=\n                totalSupply() / (10 ** decimals()) / 1000,\n            \"Max Transaction limis cannot be lower than 0.1% of total supply\"\n        );\n        maxTransactionAmountBuy = _maxTransactionAmountBuy * (10 ** decimals());\n        maxTransactionAmountSell =\n            _maxTransactionAmountSell *\n            (10 ** decimals());\n        emit MaxTransactionLimitRatesChanged(\n            maxTransactionAmountBuy,\n            maxTransactionAmountSell\n        );\n    }\n\n    function setExcludeFromMaxTransactionLimit(\n        address account,\n        bool exclude\n    ) external onlyOwner _maxTransactionAvailable {\n        require(\n            _isExcludedFromMaxTxLimit[account] != exclude,\n            \"Account is already set to that state\"\n        );\n        _isExcludedFromMaxTxLimit[account] = exclude;\n        emit ExcludedFromMaxTransactionLimit(account, exclude);\n    }\n\n    function isExcludedFromMaxTransaction(\n        address account\n    ) public view returns (bool) {\n        return _isExcludedFromMaxTxLimit[account];\n    }\n}\n",
  "sourcePath": "/Users/glenci/Xhype/src/XHypeV2.sol",
  "compiler": {
    "name": "solc",
    "version": "0.8.19+commit.7dd6d404.Emscripten.clang"
  },
  "schemaVersion": "3.4.10",
  "updatedAt": "2023-05-08T16:30:20.028Z",
  "devdoc": {
    "events": {
      "Approval(address,address,uint256)": {
        "details": "Emitted when the allowance of a `spender` for an `owner` is set by a call to {approve}. `value` is the new allowance."
      },
      "DividendsDistributed(address,uint256)": {
        "details": "This event emits when new funds are distributed",
        "params": {
          "by": "the address of the sender who distributed funds",
          "dividendsDistributed": "the amount of funds received for distribution"
        }
      },
      "DividendsWithdrawn(address,uint256)": {
        "details": "This event emits when distributed funds are withdrawn by a token holder.",
        "params": {
          "by": "the address of the receiver of funds",
          "fundsWithdrawn": "the amount of funds that were withdrawn"
        }
      },
      "Transfer(address,address,uint256)": {
        "details": "Emitted when `value` tokens are moved from one account (`from`) to another (`to`). Note that `value` may be zero."
      }
    },
    "kind": "dev",
    "methods": {
      "allowance(address,address)": {
        "details": "See {IERC20-allowance}."
      },
      "approve(address,uint256)": {
        "details": "See {IERC20-approve}. NOTE: If `amount` is the maximum `uint256`, the allowance is not updated on `transferFrom`. This is semantically equivalent to an infinite approval. Requirements: - `spender` cannot be the zero address."
      },
      "balanceOf(address)": {
        "details": "See {IERC20-balanceOf}."
      },
      "cumulativeDividendsOf(address)": {
        "details": "accumulativeFundsOf(account) = withdrawableDividendsOf(account) + withdrawnDividendsOf(account) = (pointsPerShare * balanceOf(account) + pointsCorrection[account]) / POINTS_MULTIPLIER",
        "params": {
          "account": "The address of a token holder."
        },
        "returns": {
          "_0": "The amount of dividends that `account` has earned in total."
        }
      },
      "decimals()": {
        "details": "Returns the number of decimals used to get its user representation. For example, if `decimals` equals `2`, a balance of `505` tokens should be displayed to a user as `5.05` (`505 / 10 ** 2`). Tokens usually opt for a value of 18, imitating the relationship between Ether and Wei. This is the value {ERC20} uses, unless this function is overridden; NOTE: This information is only used for _display_ purposes: it in no way affects any of the arithmetic of the contract, including {IERC20-balanceOf} and {IERC20-transfer}."
      },
      "decreaseAllowance(address,uint256)": {
        "details": "Atomically decreases the allowance granted to `spender` by the caller. This is an alternative to {approve} that can be used as a mitigation for problems described in {IERC20-approve}. Emits an {Approval} event indicating the updated allowance. Requirements: - `spender` cannot be the zero address. - `spender` must have allowance for the caller of at least `subtractedValue`."
      },
      "increaseAllowance(address,uint256)": {
        "details": "Atomically increases the allowance granted to `spender` by the caller. This is an alternative to {approve} that can be used as a mitigation for problems described in {IERC20-approve}. Emits an {Approval} event indicating the updated allowance. Requirements: - `spender` cannot be the zero address."
      },
      "name()": {
        "details": "Returns the name of the token."
      },
      "owner()": {
        "details": "Returns the address of the current owner."
      },
      "renounceOwnership()": {
        "details": "Leaves the contract without owner. It will not be possible to call `onlyOwner` functions anymore. Can only be called by the current owner. NOTE: Renouncing ownership will leave the contract without an owner, thereby removing any functionality that is only available to the owner."
      },
      "symbol()": {
        "details": "Returns the symbol of the token, usually a shorter version of the name."
      },
      "totalSupply()": {
        "details": "See {IERC20-totalSupply}."
      },
      "transfer(address,uint256)": {
        "details": "See {IERC20-transfer}. Requirements: - `to` cannot be the zero address. - the caller must have a balance of at least `amount`."
      },
      "transferFrom(address,address,uint256)": {
        "details": "See {IERC20-transferFrom}. Emits an {Approval} event indicating the updated allowance. This is not required by the EIP. See the note at the beginning of {ERC20}. NOTE: Does not update the allowance if the current allowance is the maximum `uint256`. Requirements: - `from` and `to` cannot be the zero address. - `from` must have a balance of at least `amount`. - the caller must have allowance for ``from``'s tokens of at least `amount`."
      },
      "transferOwnership(address)": {
        "details": "Transfers ownership of the contract to a new account (`newOwner`). Can only be called by the current owner."
      },
      "withdrawableDividendsOf(address)": {
        "details": "Returns the total amount of dividends a given address is able to withdraw.",
        "params": {
          "account": "Address of a dividend recipient"
        },
        "returns": {
          "_0": "A uint256 representing the dividends `account` can withdraw"
        }
      },
      "withdrawnDividendsOf(address)": {
        "params": {
          "account": "The address of a token holder."
        },
        "returns": {
          "_0": "The amount of dividends that `account` has withdrawn."
        }
      }
    },
    "version": 1
  },
  "userdoc": {
    "kind": "user",
    "methods": {
      "cumulativeDividendsOf(address)": {
        "notice": "View the amount of dividends that an address has earned in total."
      },
      "withdrawnDividendsOf(address)": {
        "notice": "View the amount of dividends that an address has withdrawn."
      }
    },
    "version": 1
  }
}