{
  "contractName": "XHype",
  "abi": [
    {
      "inputs": [
        {
          "components": [
            {
              "internalType": "string",
              "name": "name_",
              "type": "string"
            },
            {
              "internalType": "string",
              "name": "symbol_",
              "type": "string"
            },
            {
              "internalType": "uint256",
              "name": "totalSupply_",
              "type": "uint256"
            },
            {
              "internalType": "address",
              "name": "router_",
              "type": "address"
            },
            {
              "internalType": "address",
              "name": "rewardToken_",
              "type": "address"
            },
            {
              "internalType": "uint256",
              "name": "mininmumTokenBalanceForDividends_",
              "type": "uint256"
            },
            {
              "internalType": "bool",
              "name": "walletToWalletTransferWithoutFee_",
              "type": "bool"
            },
            {
              "internalType": "bool",
              "name": "maxTransactionLimitAvailable_",
              "type": "bool"
            },
            {
              "internalType": "uint256",
              "name": "maxTransactionAmountBuy_",
              "type": "uint256"
            },
            {
              "internalType": "uint256",
              "name": "maxTransactionAmountSell_",
              "type": "uint256"
            },
            {
              "internalType": "bool",
              "name": "maxWalletLimitAvailable_",
              "type": "bool"
            },
            {
              "internalType": "uint256",
              "name": "maxWalletAmount_",
              "type": "uint256"
            },
            {
              "components": [
                {
                  "internalType": "bool",
                  "name": "salaryFeeAvailable_",
                  "type": "bool"
                },
                {
                  "internalType": "bool",
                  "name": "stakingFeeAvailable_",
                  "type": "bool"
                },
                {
                  "internalType": "uint256",
                  "name": "liquditiyFeeOnBuy_",
                  "type": "uint256"
                },
                {
                  "internalType": "uint256",
                  "name": "liquidityFeeOnSell_",
                  "type": "uint256"
                },
                {
                  "internalType": "uint256",
                  "name": "rewardFeeOnBuy_",
                  "type": "uint256"
                },
                {
                  "internalType": "uint256",
                  "name": "rewardFeeOnSell_",
                  "type": "uint256"
                },
                {
                  "internalType": "uint256",
                  "name": "marketingFeeOnBuy_",
                  "type": "uint256"
                },
                {
                  "internalType": "uint256",
                  "name": "marketingFeeOnSell_",
                  "type": "uint256"
                },
                {
                  "internalType": "uint256",
                  "name": "buybackFeeOnBuy_",
                  "type": "uint256"
                },
                {
                  "internalType": "uint256",
                  "name": "buybackFeeOnSell_",
                  "type": "uint256"
                },
                {
                  "internalType": "uint256",
                  "name": "salaryFeeOnBuy_",
                  "type": "uint256"
                },
                {
                  "internalType": "uint256",
                  "name": "salaryFeeOnSell_",
                  "type": "uint256"
                },
                {
                  "internalType": "uint256",
                  "name": "stakingFeeOnBuy_",
                  "type": "uint256"
                },
                {
                  "internalType": "uint256",
                  "name": "stakingFeeOnSell_",
                  "type": "uint256"
                },
                {
                  "internalType": "address",
                  "name": "marketingWallet_",
                  "type": "address"
                },
                {
                  "internalType": "address",
                  "name": "buybackWallet_",
                  "type": "address"
                },
                {
                  "internalType": "address",
                  "name": "salaryWallet_",
                  "type": "address"
                },
                {
                  "internalType": "address",
                  "name": "stakingWallet_",
                  "type": "address"
                },
                {
                  "internalType": "address",
                  "name": "marketingCurrency_",
                  "type": "address"
                },
                {
                  "internalType": "address",
                  "name": "buybackCurrency_",
                  "type": "address"
                },
                {
                  "internalType": "address",
                  "name": "salaryCurrency_",
                  "type": "address"
                }
              ],
              "internalType": "struct XHype.FeeManager",
              "name": "feeManager_",
              "type": "tuple"
            },
            {
              "internalType": "uint256",
              "name": "serviceFee_",
              "type": "uint256"
            },
            {
              "internalType": "address",
              "name": "serviceFeeReceiver_",
              "type": "address"
            }
          ],
          "internalType": "struct XHype.ConstructorArgument",
          "name": "_arg",
          "type": "tuple"
        }
      ],
      "stateMutability": "payable",
      "type": "constructor"
    },
    {
      "anonymous": false,
      "inputs": [
        {
          "indexed": true,
          "internalType": "address",
          "name": "owner",
          "type": "address"
        },
        {
          "indexed": true,
          "internalType": "address",
          "name": "spender",
          "type": "address"
        },
        {
          "indexed": false,
          "internalType": "uint256",
          "name": "value",
          "type": "uint256"
        }
      ],
      "name": "Approval",
      "type": "event"
    },
    {
      "anonymous": false,
      "inputs": [
        {
          "indexed": false,
          "internalType": "address",
          "name": "buybackWallet",
          "type": "address"
        }
      ],
      "name": "BuybackWalletChanged",
      "type": "event"
    },
    {
      "anonymous": false,
      "inputs": [
        {
          "indexed": true,
          "internalType": "address",
          "name": "account",
          "type": "address"
        },
        {
          "indexed": false,
          "internalType": "bool",
          "name": "isExcluded",
          "type": "bool"
        }
      ],
      "name": "ExcludeFromFees",
      "type": "event"
    },
    {
      "anonymous": false,
      "inputs": [
        {
          "indexed": true,
          "internalType": "address",
          "name": "account",
          "type": "address"
        },
        {
          "indexed": false,
          "internalType": "bool",
          "name": "isExcluded",
          "type": "bool"
        }
      ],
      "name": "ExcludedFromMaxTransactionLimit",
      "type": "event"
    },
    {
      "anonymous": false,
      "inputs": [
        {
          "indexed": true,
          "internalType": "address",
          "name": "account",
          "type": "address"
        },
        {
          "indexed": false,
          "internalType": "bool",
          "name": "isExcluded",
          "type": "bool"
        }
      ],
      "name": "ExcludedFromMaxWalletLimit",
      "type": "event"
    },
    {
      "anonymous": false,
      "inputs": [
        {
          "indexed": true,
          "internalType": "uint256",
          "name": "newValue",
          "type": "uint256"
        },
        {
          "indexed": true,
          "internalType": "uint256",
          "name": "oldValue",
          "type": "uint256"
        }
      ],
      "name": "GasForProcessingUpdated",
      "type": "event"
    },
    {
      "anonymous": false,
      "inputs": [
        {
          "indexed": false,
          "internalType": "address",
          "name": "marketingWallet",
          "type": "address"
        }
      ],
      "name": "MarketingWalletChanged",
      "type": "event"
    },
    {
      "anonymous": false,
      "inputs": [
        {
          "indexed": false,
          "internalType": "uint256",
          "name": "maxTransferRateBuy",
          "type": "uint256"
        },
        {
          "indexed": false,
          "internalType": "uint256",
          "name": "maxTransferRateSell",
          "type": "uint256"
        }
      ],
      "name": "MaxTransactionLimitRatesChanged",
      "type": "event"
    },
    {
      "anonymous": false,
      "inputs": [
        {
          "indexed": false,
          "internalType": "bool",
          "name": "maxTransactionLimit",
          "type": "bool"
        }
      ],
      "name": "MaxTransactionLimitStateChanged",
      "type": "event"
    },
    {
      "anonymous": false,
      "inputs": [
        {
          "indexed": false,
          "internalType": "uint256",
          "name": "maxWalletLimitRate",
          "type": "uint256"
        }
      ],
      "name": "MaxWalletLimitRateChanged",
      "type": "event"
    },
    {
      "anonymous": false,
      "inputs": [
        {
          "indexed": false,
          "internalType": "bool",
          "name": "maxWalletLimit",
          "type": "bool"
        }
      ],
      "name": "MaxWalletLimitStateChanged",
      "type": "event"
    },
    {
      "anonymous": false,
      "inputs": [
        {
          "indexed": true,
          "internalType": "address",
          "name": "previousOwner",
          "type": "address"
        },
        {
          "indexed": true,
          "internalType": "address",
          "name": "newOwner",
          "type": "address"
        }
      ],
      "name": "OwnershipTransferred",
      "type": "event"
    },
    {
      "anonymous": false,
      "inputs": [
        {
          "indexed": false,
          "internalType": "uint256",
          "name": "iterations",
          "type": "uint256"
        },
        {
          "indexed": false,
          "internalType": "uint256",
          "name": "claims",
          "type": "uint256"
        },
        {
          "indexed": false,
          "internalType": "uint256",
          "name": "lastProcessedIndex",
          "type": "uint256"
        },
        {
          "indexed": true,
          "internalType": "bool",
          "name": "automatic",
          "type": "bool"
        },
        {
          "indexed": false,
          "internalType": "uint256",
          "name": "gas",
          "type": "uint256"
        },
        {
          "indexed": true,
          "internalType": "address",
          "name": "processor",
          "type": "address"
        }
      ],
      "name": "ProcessedDividendTracker",
      "type": "event"
    },
    {
      "anonymous": false,
      "inputs": [
        {
          "indexed": false,
          "internalType": "address",
          "name": "salaryWallet",
          "type": "address"
        }
      ],
      "name": "SalaryWalletChanged",
      "type": "event"
    },
    {
      "anonymous": false,
      "inputs": [
        {
          "indexed": false,
          "internalType": "uint256",
          "name": "bnbSend",
          "type": "uint256"
        }
      ],
      "name": "SendBuyback",
      "type": "event"
    },
    {
      "anonymous": false,
      "inputs": [
        {
          "indexed": false,
          "internalType": "uint256",
          "name": "amount",
          "type": "uint256"
        }
      ],
      "name": "SendDividends",
      "type": "event"
    },
    {
      "anonymous": false,
      "inputs": [
        {
          "indexed": false,
          "internalType": "uint256",
          "name": "bnbSend",
          "type": "uint256"
        }
      ],
      "name": "SendMarketing",
      "type": "event"
    },
    {
      "anonymous": false,
      "inputs": [
        {
          "indexed": false,
          "internalType": "uint256",
          "name": "bnbSend",
          "type": "uint256"
        }
      ],
      "name": "SendSalary",
      "type": "event"
    },
    {
      "anonymous": false,
      "inputs": [
        {
          "indexed": false,
          "internalType": "uint256",
          "name": "tokenSend",
          "type": "uint256"
        }
      ],
      "name": "SendStaking",
      "type": "event"
    },
    {
      "anonymous": false,
      "inputs": [
        {
          "indexed": true,
          "internalType": "address",
          "name": "pair",
          "type": "address"
        },
        {
          "indexed": true,
          "internalType": "bool",
          "name": "value",
          "type": "bool"
        }
      ],
      "name": "SetAutomatedMarketMakerPair",
      "type": "event"
    },
    {
      "anonymous": false,
      "inputs": [
        {
          "indexed": false,
          "internalType": "address",
          "name": "stakingWallet",
          "type": "address"
        }
      ],
      "name": "StakingWalletChanged",
      "type": "event"
    },
    {
      "anonymous": false,
      "inputs": [
        {
          "indexed": false,
          "internalType": "uint256",
          "name": "tokensSwapped",
          "type": "uint256"
        },
        {
          "indexed": false,
          "internalType": "uint256",
          "name": "bnbReceived",
          "type": "uint256"
        },
        {
          "indexed": false,
          "internalType": "uint256",
          "name": "tokensIntoLiqudity",
          "type": "uint256"
        }
      ],
      "name": "SwapAndLiquify",
      "type": "event"
    },
    {
      "anonymous": false,
      "inputs": [
        {
          "indexed": true,
          "internalType": "address",
          "name": "from",
          "type": "address"
        },
        {
          "indexed": true,
          "internalType": "address",
          "name": "to",
          "type": "address"
        },
        {
          "indexed": false,
          "internalType": "uint256",
          "name": "value",
          "type": "uint256"
        }
      ],
      "name": "Transfer",
      "type": "event"
    },
    {
      "anonymous": false,
      "inputs": [
        {
          "indexed": false,
          "internalType": "uint256",
          "name": "liquidityFeeOnBuy",
          "type": "uint256"
        },
        {
          "indexed": false,
          "internalType": "uint256",
          "name": "marketingFeeOnBuy",
          "type": "uint256"
        },
        {
          "indexed": false,
          "internalType": "uint256",
          "name": "rewardFeeOnBuy",
          "type": "uint256"
        },
        {
          "indexed": false,
          "internalType": "uint256",
          "name": "buybackFeeOnBuy",
          "type": "uint256"
        },
        {
          "indexed": false,
          "internalType": "uint256",
          "name": "salaryFeeOnBuy",
          "type": "uint256"
        },
        {
          "indexed": false,
          "internalType": "uint256",
          "name": "stakingFeeOnBuy",
          "type": "uint256"
        }
      ],
      "name": "UpdateBuyFees",
      "type": "event"
    },
    {
      "anonymous": false,
      "inputs": [
        {
          "indexed": true,
          "internalType": "address",
          "name": "newAddress",
          "type": "address"
        },
        {
          "indexed": true,
          "internalType": "address",
          "name": "oldAddress",
          "type": "address"
        }
      ],
      "name": "UpdateDividendTracker",
      "type": "event"
    },
    {
      "anonymous": false,
      "inputs": [
        {
          "indexed": false,
          "internalType": "uint256",
          "name": "liquidityFeeOnSell",
          "type": "uint256"
        },
        {
          "indexed": false,
          "internalType": "uint256",
          "name": "marketingFeeOnSell",
          "type": "uint256"
        },
        {
          "indexed": false,
          "internalType": "uint256",
          "name": "rewardFeeOnSell",
          "type": "uint256"
        },
        {
          "indexed": false,
          "internalType": "uint256",
          "name": "buybackFeeOnSell",
          "type": "uint256"
        },
        {
          "indexed": false,
          "internalType": "uint256",
          "name": "salaryFeeOnSell",
          "type": "uint256"
        },
        {
          "indexed": false,
          "internalType": "uint256",
          "name": "stakingFeeOnSell",
          "type": "uint256"
        }
      ],
      "name": "UpdateSellFees",
      "type": "event"
    },
    {
      "anonymous": false,
      "inputs": [
        {
          "indexed": true,
          "internalType": "address",
          "name": "newAddress",
          "type": "address"
        },
        {
          "indexed": true,
          "internalType": "address",
          "name": "oldAddress",
          "type": "address"
        }
      ],
      "name": "UpdateUniswapV2Router",
      "type": "event"
    },
    {
      "inputs": [
        {
          "internalType": "address",
          "name": "owner",
          "type": "address"
        },
        {
          "internalType": "address",
          "name": "spender",
          "type": "address"
        }
      ],
      "name": "allowance",
      "outputs": [
        {
          "internalType": "uint256",
          "name": "",
          "type": "uint256"
        }
      ],
      "stateMutability": "view",
      "type": "function"
    },
    {
      "inputs": [
        {
          "internalType": "address",
          "name": "spender",
          "type": "address"
        },
        {
          "internalType": "uint256",
          "name": "amount",
          "type": "uint256"
        }
      ],
      "name": "approve",
      "outputs": [
        {
          "internalType": "bool",
          "name": "",
          "type": "bool"
        }
      ],
      "stateMutability": "nonpayable",
      "type": "function"
    },
    {
      "inputs": [
        {
          "internalType": "address",
          "name": "",
          "type": "address"
        }
      ],
      "name": "automatedMarketMakerPairs",
      "outputs": [
        {
          "internalType": "bool",
          "name": "",
          "type": "bool"
        }
      ],
      "stateMutability": "view",
      "type": "function"
    },
    {
      "inputs": [
        {
          "internalType": "address",
          "name": "account",
          "type": "address"
        }
      ],
      "name": "balanceOf",
      "outputs": [
        {
          "internalType": "uint256",
          "name": "",
          "type": "uint256"
        }
      ],
      "stateMutability": "view",
      "type": "function"
    },
    {
      "inputs": [],
      "name": "buybackCurrency",
      "outputs": [
        {
          "internalType": "address",
          "name": "",
          "type": "address"
        }
      ],
      "stateMutability": "view",
      "type": "function"
    },
    {
      "inputs": [],
      "name": "buybackFeeOnBuy",
      "outputs": [
        {
          "internalType": "uint256",
          "name": "",
          "type": "uint256"
        }
      ],
      "stateMutability": "view",
      "type": "function"
    },
    {
      "inputs": [],
      "name": "buybackFeeOnSell",
      "outputs": [
        {
          "internalType": "uint256",
          "name": "",
          "type": "uint256"
        }
      ],
      "stateMutability": "view",
      "type": "function"
    },
    {
      "inputs": [],
      "name": "buybackWallet",
      "outputs": [
        {
          "internalType": "address",
          "name": "",
          "type": "address"
        }
      ],
      "stateMutability": "view",
      "type": "function"
    },
    {
      "inputs": [],
      "name": "decimals",
      "outputs": [
        {
          "internalType": "uint8",
          "name": "",
          "type": "uint8"
        }
      ],
      "stateMutability": "view",
      "type": "function"
    },
    {
      "inputs": [
        {
          "internalType": "address",
          "name": "spender",
          "type": "address"
        },
        {
          "internalType": "uint256",
          "name": "subtractedValue",
          "type": "uint256"
        }
      ],
      "name": "decreaseAllowance",
      "outputs": [
        {
          "internalType": "bool",
          "name": "",
          "type": "bool"
        }
      ],
      "stateMutability": "nonpayable",
      "type": "function"
    },
    {
      "inputs": [],
      "name": "dividendTracker",
      "outputs": [
        {
          "internalType": "contract DividendTracker",
          "name": "",
          "type": "address"
        }
      ],
      "stateMutability": "view",
      "type": "function"
    },
    {
      "inputs": [],
      "name": "gasForProcessing",
      "outputs": [
        {
          "internalType": "uint256",
          "name": "",
          "type": "uint256"
        }
      ],
      "stateMutability": "view",
      "type": "function"
    },
    {
      "inputs": [
        {
          "internalType": "address",
          "name": "spender",
          "type": "address"
        },
        {
          "internalType": "uint256",
          "name": "addedValue",
          "type": "uint256"
        }
      ],
      "name": "increaseAllowance",
      "outputs": [
        {
          "internalType": "bool",
          "name": "",
          "type": "bool"
        }
      ],
      "stateMutability": "nonpayable",
      "type": "function"
    },
    {
      "inputs": [],
      "name": "liquidityFeeOnBuy",
      "outputs": [
        {
          "internalType": "uint256",
          "name": "",
          "type": "uint256"
        }
      ],
      "stateMutability": "view",
      "type": "function"
    },
    {
      "inputs": [],
      "name": "liquidityFeeOnSell",
      "outputs": [
        {
          "internalType": "uint256",
          "name": "",
          "type": "uint256"
        }
      ],
      "stateMutability": "view",
      "type": "function"
    },
    {
      "inputs": [],
      "name": "marketingCurrency",
      "outputs": [
        {
          "internalType": "address",
          "name": "",
          "type": "address"
        }
      ],
      "stateMutability": "view",
      "type": "function"
    },
    {
      "inputs": [],
      "name": "marketingFeeOnBuy",
      "outputs": [
        {
          "internalType": "uint256",
          "name": "",
          "type": "uint256"
        }
      ],
      "stateMutability": "view",
      "type": "function"
    },
    {
      "inputs": [],
      "name": "marketingFeeOnSell",
      "outputs": [
        {
          "internalType": "uint256",
          "name": "",
          "type": "uint256"
        }
      ],
      "stateMutability": "view",
      "type": "function"
    },
    {
      "inputs": [],
      "name": "marketingWallet",
      "outputs": [
        {
          "internalType": "address",
          "name": "",
          "type": "address"
        }
      ],
      "stateMutability": "view",
      "type": "function"
    },
    {
      "inputs": [],
      "name": "maxTransactionAmountBuy",
      "outputs": [
        {
          "internalType": "uint256",
          "name": "",
          "type": "uint256"
        }
      ],
      "stateMutability": "view",
      "type": "function"
    },
    {
      "inputs": [],
      "name": "maxTransactionAmountSell",
      "outputs": [
        {
          "internalType": "uint256",
          "name": "",
          "type": "uint256"
        }
      ],
      "stateMutability": "view",
      "type": "function"
    },
    {
      "inputs": [],
      "name": "maxTransactionAvailable",
      "outputs": [
        {
          "internalType": "bool",
          "name": "",
          "type": "bool"
        }
      ],
      "stateMutability": "view",
      "type": "function"
    },
    {
      "inputs": [],
      "name": "maxTransactionLimitEnabled",
      "outputs": [
        {
          "internalType": "bool",
          "name": "",
          "type": "bool"
        }
      ],
      "stateMutability": "view",
      "type": "function"
    },
    {
      "inputs": [],
      "name": "maxWalletAmount",
      "outputs": [
        {
          "internalType": "uint256",
          "name": "",
          "type": "uint256"
        }
      ],
      "stateMutability": "view",
      "type": "function"
    },
    {
      "inputs": [],
      "name": "maxWalletAvailable",
      "outputs": [
        {
          "internalType": "bool",
          "name": "",
          "type": "bool"
        }
      ],
      "stateMutability": "view",
      "type": "function"
    },
    {
      "inputs": [],
      "name": "maxWalletLimitEnabled",
      "outputs": [
        {
          "internalType": "bool",
          "name": "",
          "type": "bool"
        }
      ],
      "stateMutability": "view",
      "type": "function"
    },
    {
      "inputs": [],
      "name": "name",
      "outputs": [
        {
          "internalType": "string",
          "name": "",
          "type": "string"
        }
      ],
      "stateMutability": "view",
      "type": "function"
    },
    {
      "inputs": [],
      "name": "owner",
      "outputs": [
        {
          "internalType": "address",
          "name": "",
          "type": "address"
        }
      ],
      "stateMutability": "view",
      "type": "function"
    },
    {
      "inputs": [],
      "name": "renounceOwnership",
      "outputs": [],
      "stateMutability": "nonpayable",
      "type": "function"
    },
    {
      "inputs": [],
      "name": "rewardFeeOnBuy",
      "outputs": [
        {
          "internalType": "uint256",
          "name": "",
          "type": "uint256"
        }
      ],
      "stateMutability": "view",
      "type": "function"
    },
    {
      "inputs": [],
      "name": "rewardFeeOnSell",
      "outputs": [
        {
          "internalType": "uint256",
          "name": "",
          "type": "uint256"
        }
      ],
      "stateMutability": "view",
      "type": "function"
    },
    {
      "inputs": [],
      "name": "rewardToken",
      "outputs": [
        {
          "internalType": "address",
          "name": "",
          "type": "address"
        }
      ],
      "stateMutability": "view",
      "type": "function"
    },
    {
      "inputs": [],
      "name": "salaryCurrency",
      "outputs": [
        {
          "internalType": "address",
          "name": "",
          "type": "address"
        }
      ],
      "stateMutability": "view",
      "type": "function"
    },
    {
      "inputs": [],
      "name": "salaryFeeAvailable",
      "outputs": [
        {
          "internalType": "bool",
          "name": "",
          "type": "bool"
        }
      ],
      "stateMutability": "view",
      "type": "function"
    },
    {
      "inputs": [],
      "name": "salaryFeeOnBuy",
      "outputs": [
        {
          "internalType": "uint256",
          "name": "",
          "type": "uint256"
        }
      ],
      "stateMutability": "view",
      "type": "function"
    },
    {
      "inputs": [],
      "name": "salaryFeeOnSell",
      "outputs": [
        {
          "internalType": "uint256",
          "name": "",
          "type": "uint256"
        }
      ],
      "stateMutability": "view",
      "type": "function"
    },
    {
      "inputs": [],
      "name": "salaryWallet",
      "outputs": [
        {
          "internalType": "address",
          "name": "",
          "type": "address"
        }
      ],
      "stateMutability": "view",
      "type": "function"
    },
    {
      "inputs": [],
      "name": "stakingFeeAvailable",
      "outputs": [
        {
          "internalType": "bool",
          "name": "",
          "type": "bool"
        }
      ],
      "stateMutability": "view",
      "type": "function"
    },
    {
      "inputs": [],
      "name": "stakingFeeOnBuy",
      "outputs": [
        {
          "internalType": "uint256",
          "name": "",
          "type": "uint256"
        }
      ],
      "stateMutability": "view",
      "type": "function"
    },
    {
      "inputs": [],
      "name": "stakingFeeOnSell",
      "outputs": [
        {
          "internalType": "uint256",
          "name": "",
          "type": "uint256"
        }
      ],
      "stateMutability": "view",
      "type": "function"
    },
    {
      "inputs": [],
      "name": "stakingWallet",
      "outputs": [
        {
          "internalType": "address",
          "name": "",
          "type": "address"
        }
      ],
      "stateMutability": "view",
      "type": "function"
    },
    {
      "inputs": [],
      "name": "swapEnabled",
      "outputs": [
        {
          "internalType": "bool",
          "name": "",
          "type": "bool"
        }
      ],
      "stateMutability": "view",
      "type": "function"
    },
    {
      "inputs": [],
      "name": "swapTokensAtAmount",
      "outputs": [
        {
          "internalType": "uint256",
          "name": "",
          "type": "uint256"
        }
      ],
      "stateMutability": "view",
      "type": "function"
    },
    {
      "inputs": [],
      "name": "swapWithLimit",
      "outputs": [
        {
          "internalType": "bool",
          "name": "",
          "type": "bool"
        }
      ],
      "stateMutability": "view",
      "type": "function"
    },
    {
      "inputs": [],
      "name": "symbol",
      "outputs": [
        {
          "internalType": "string",
          "name": "",
          "type": "string"
        }
      ],
      "stateMutability": "view",
      "type": "function"
    },
    {
      "inputs": [],
      "name": "totalSupply",
      "outputs": [
        {
          "internalType": "uint256",
          "name": "",
          "type": "uint256"
        }
      ],
      "stateMutability": "view",
      "type": "function"
    },
    {
      "inputs": [
        {
          "internalType": "address",
          "name": "to",
          "type": "address"
        },
        {
          "internalType": "uint256",
          "name": "amount",
          "type": "uint256"
        }
      ],
      "name": "transfer",
      "outputs": [
        {
          "internalType": "bool",
          "name": "",
          "type": "bool"
        }
      ],
      "stateMutability": "nonpayable",
      "type": "function"
    },
    {
      "inputs": [
        {
          "internalType": "address",
          "name": "from",
          "type": "address"
        },
        {
          "internalType": "address",
          "name": "to",
          "type": "address"
        },
        {
          "internalType": "uint256",
          "name": "amount",
          "type": "uint256"
        }
      ],
      "name": "transferFrom",
      "outputs": [
        {
          "internalType": "bool",
          "name": "",
          "type": "bool"
        }
      ],
      "stateMutability": "nonpayable",
      "type": "function"
    },
    {
      "inputs": [
        {
          "internalType": "address",
          "name": "newOwner",
          "type": "address"
        }
      ],
      "name": "transferOwnership",
      "outputs": [],
      "stateMutability": "nonpayable",
      "type": "function"
    },
    {
      "inputs": [],
      "name": "uniswapV2Pair",
      "outputs": [
        {
          "internalType": "address",
          "name": "",
          "type": "address"
        }
      ],
      "stateMutability": "view",
      "type": "function"
    },
    {
      "inputs": [],
      "name": "uniswapV2Router",
      "outputs": [
        {
          "internalType": "contract IUniswapV2Router02",
          "name": "",
          "type": "address"
        }
      ],
      "stateMutability": "view",
      "type": "function"
    },
    {
      "inputs": [],
      "name": "walletToWalletTransferWithoutFee",
      "outputs": [
        {
          "internalType": "bool",
          "name": "",
          "type": "bool"
        }
      ],
      "stateMutability": "view",
      "type": "function"
    },
    {
      "stateMutability": "payable",
      "type": "receive"
    },
    {
      "inputs": [
        {
          "internalType": "address",
          "name": "token",
          "type": "address"
        }
      ],
      "name": "claimStuckTokens",
      "outputs": [],
      "stateMutability": "nonpayable",
      "type": "function"
    },
    {
      "inputs": [
        {
          "internalType": "address",
          "name": "newAddress",
          "type": "address"
        }
      ],
      "name": "updateUniswapV2Router",
      "outputs": [],
      "stateMutability": "nonpayable",
      "type": "function"
    },
    {
      "inputs": [
        {
          "internalType": "address",
          "name": "pair",
          "type": "address"
        },
        {
          "internalType": "bool",
          "name": "value",
          "type": "bool"
        }
      ],
      "name": "setAutomatedMarketMakerPair",
      "outputs": [],
      "stateMutability": "nonpayable",
      "type": "function"
    },
    {
      "inputs": [
        {
          "internalType": "address",
          "name": "account",
          "type": "address"
        },
        {
          "internalType": "bool",
          "name": "excluded",
          "type": "bool"
        }
      ],
      "name": "excludeFromFees",
      "outputs": [],
      "stateMutability": "nonpayable",
      "type": "function"
    },
    {
      "inputs": [
        {
          "internalType": "address",
          "name": "account",
          "type": "address"
        }
      ],
      "name": "isExcludedFromFees",
      "outputs": [
        {
          "internalType": "bool",
          "name": "",
          "type": "bool"
        }
      ],
      "stateMutability": "view",
      "type": "function"
    },
    {
      "inputs": [
        {
          "internalType": "uint256",
          "name": "_liquidityFeeOnBuy",
          "type": "uint256"
        },
        {
          "internalType": "uint256",
          "name": "_marketingFeeOnBuy",
          "type": "uint256"
        },
        {
          "internalType": "uint256",
          "name": "_rewardFeeOnBuy",
          "type": "uint256"
        },
        {
          "internalType": "uint256",
          "name": "_buybackFeeOnBuy",
          "type": "uint256"
        },
        {
          "internalType": "uint256",
          "name": "_salaryFeeOnBuy",
          "type": "uint256"
        },
        {
          "internalType": "uint256",
          "name": "_stakingFeeOnBuy",
          "type": "uint256"
        }
      ],
      "name": "updateBuyFees",
      "outputs": [],
      "stateMutability": "nonpayable",
      "type": "function"
    },
    {
      "inputs": [
        {
          "internalType": "uint256",
          "name": "_liquidityFeeOnSell",
          "type": "uint256"
        },
        {
          "internalType": "uint256",
          "name": "_marketingFeeOnSell",
          "type": "uint256"
        },
        {
          "internalType": "uint256",
          "name": "_rewardFeeOnSell",
          "type": "uint256"
        },
        {
          "internalType": "uint256",
          "name": "_buybackFeeOnSell",
          "type": "uint256"
        },
        {
          "internalType": "uint256",
          "name": "_salaryFeeOnSell",
          "type": "uint256"
        },
        {
          "internalType": "uint256",
          "name": "_stakingFeeOnSell",
          "type": "uint256"
        }
      ],
      "name": "updateSellFees",
      "outputs": [],
      "stateMutability": "nonpayable",
      "type": "function"
    },
    {
      "inputs": [
        {
          "internalType": "bool",
          "name": "enable",
          "type": "bool"
        }
      ],
      "name": "enableWalletToWalletTransferWithoutFee",
      "outputs": [],
      "stateMutability": "nonpayable",
      "type": "function"
    },
    {
      "inputs": [
        {
          "internalType": "address",
          "name": "_marketingWallet",
          "type": "address"
        }
      ],
      "name": "changeMarketingWallet",
      "outputs": [],
      "stateMutability": "nonpayable",
      "type": "function"
    },
    {
      "inputs": [
        {
          "internalType": "address",
          "name": "_buybackWallet",
          "type": "address"
        }
      ],
      "name": "changeBuybackWallet",
      "outputs": [],
      "stateMutability": "nonpayable",
      "type": "function"
    },
    {
      "inputs": [
        {
          "internalType": "address",
          "name": "_salaryWallet",
          "type": "address"
        }
      ],
      "name": "changeSalaryWallet",
      "outputs": [],
      "stateMutability": "nonpayable",
      "type": "function"
    },
    {
      "inputs": [
        {
          "internalType": "address",
          "name": "_stakingWallet",
          "type": "address"
        }
      ],
      "name": "changeStakingWallet",
      "outputs": [],
      "stateMutability": "nonpayable",
      "type": "function"
    },
    {
      "inputs": [
        {
          "internalType": "bool",
          "name": "_swapEnabled",
          "type": "bool"
        }
      ],
      "name": "setSwapEnabled",
      "outputs": [],
      "stateMutability": "nonpayable",
      "type": "function"
    },
    {
      "inputs": [
        {
          "internalType": "uint256",
          "name": "newAmount",
          "type": "uint256"
        }
      ],
      "name": "setSwapTokensAtAmount",
      "outputs": [],
      "stateMutability": "nonpayable",
      "type": "function"
    },
    {
      "inputs": [
        {
          "internalType": "bool",
          "name": "_swapWithLimit",
          "type": "bool"
        }
      ],
      "name": "setSwapWithLimit",
      "outputs": [],
      "stateMutability": "nonpayable",
      "type": "function"
    },
    {
      "inputs": [
        {
          "internalType": "bool",
          "name": "enable",
          "type": "bool"
        }
      ],
      "name": "setEnableMaxWalletLimit",
      "outputs": [],
      "stateMutability": "nonpayable",
      "type": "function"
    },
    {
      "inputs": [
        {
          "internalType": "uint256",
          "name": "_maxWalletAmount",
          "type": "uint256"
        }
      ],
      "name": "setMaxWalletAmount",
      "outputs": [],
      "stateMutability": "nonpayable",
      "type": "function"
    },
    {
      "inputs": [
        {
          "internalType": "address",
          "name": "account",
          "type": "address"
        },
        {
          "internalType": "bool",
          "name": "exclude",
          "type": "bool"
        }
      ],
      "name": "setExcludeFromMaxWallet",
      "outputs": [],
      "stateMutability": "nonpayable",
      "type": "function"
    },
    {
      "inputs": [
        {
          "internalType": "address",
          "name": "account",
          "type": "address"
        }
      ],
      "name": "isExcludedFromMaxWalletLimit",
      "outputs": [
        {
          "internalType": "bool",
          "name": "",
          "type": "bool"
        }
      ],
      "stateMutability": "view",
      "type": "function"
    },
    {
      "inputs": [
        {
          "internalType": "bool",
          "name": "enable",
          "type": "bool"
        }
      ],
      "name": "setEnableMaxTransactionLimit",
      "outputs": [],
      "stateMutability": "nonpayable",
      "type": "function"
    },
    {
      "inputs": [
        {
          "internalType": "uint256",
          "name": "_maxTransactionAmountBuy",
          "type": "uint256"
        },
        {
          "internalType": "uint256",
          "name": "_maxTransactionAmountSell",
          "type": "uint256"
        }
      ],
      "name": "setMaxTransactionAmounts",
      "outputs": [],
      "stateMutability": "nonpayable",
      "type": "function"
    },
    {
      "inputs": [
        {
          "internalType": "address",
          "name": "account",
          "type": "address"
        },
        {
          "internalType": "bool",
          "name": "exclude",
          "type": "bool"
        }
      ],
      "name": "setExcludeFromMaxTransactionLimit",
      "outputs": [],
      "stateMutability": "nonpayable",
      "type": "function"
    },
    {
      "inputs": [
        {
          "internalType": "address",
          "name": "account",
          "type": "address"
        }
      ],
      "name": "isExcludedFromMaxTransaction",
      "outputs": [
        {
          "internalType": "bool",
          "name": "",
          "type": "bool"
        }
      ],
      "stateMutability": "view",
      "type": "function"
    },
    {
      "inputs": [
        {
          "internalType": "address",
          "name": "newAddress",
          "type": "address"
        }
      ],
      "name": "updateDividendTracker",
      "outputs": [],
      "stateMutability": "nonpayable",
      "type": "function"
    },
    {
      "inputs": [
        {
          "internalType": "uint256",
          "name": "newValue",
          "type": "uint256"
        }
      ],
      "name": "updateGasForProcessing",
      "outputs": [],
      "stateMutability": "nonpayable",
      "type": "function"
    },
    {
      "inputs": [
        {
          "internalType": "uint256",
          "name": "newMinimumBalance",
          "type": "uint256"
        }
      ],
      "name": "updateMinimumBalanceForDividends",
      "outputs": [],
      "stateMutability": "nonpayable",
      "type": "function"
    },
    {
      "inputs": [
        {
          "internalType": "uint256",
          "name": "claimWait",
          "type": "uint256"
        }
      ],
      "name": "updateClaimWait",
      "outputs": [],
      "stateMutability": "nonpayable",
      "type": "function"
    },
    {
      "inputs": [],
      "name": "getClaimWait",
      "outputs": [
        {
          "internalType": "uint256",
          "name": "",
          "type": "uint256"
        }
      ],
      "stateMutability": "view",
      "type": "function"
    },
    {
      "inputs": [],
      "name": "getTotalDividendsDistributed",
      "outputs": [
        {
          "internalType": "uint256",
          "name": "",
          "type": "uint256"
        }
      ],
      "stateMutability": "view",
      "type": "function"
    },
    {
      "inputs": [
        {
          "internalType": "address",
          "name": "account",
          "type": "address"
        }
      ],
      "name": "withdrawableDividendOf",
      "outputs": [
        {
          "internalType": "uint256",
          "name": "",
          "type": "uint256"
        }
      ],
      "stateMutability": "view",
      "type": "function"
    },
    {
      "inputs": [
        {
          "internalType": "address",
          "name": "account",
          "type": "address"
        }
      ],
      "name": "dividendTokenBalanceOf",
      "outputs": [
        {
          "internalType": "uint256",
          "name": "",
          "type": "uint256"
        }
      ],
      "stateMutability": "view",
      "type": "function"
    },
    {
      "inputs": [
        {
          "internalType": "address",
          "name": "account",
          "type": "address"
        }
      ],
      "name": "totalRewardsEarned",
      "outputs": [
        {
          "internalType": "uint256",
          "name": "",
          "type": "uint256"
        }
      ],
      "stateMutability": "view",
      "type": "function"
    },
    {
      "inputs": [
        {
          "internalType": "address",
          "name": "account",
          "type": "address"
        }
      ],
      "name": "excludeFromDividends",
      "outputs": [],
      "stateMutability": "nonpayable",
      "type": "function"
    },
    {
      "inputs": [
        {
          "internalType": "address",
          "name": "account",
          "type": "address"
        }
      ],
      "name": "getAccountDividendsInfo",
      "outputs": [
        {
          "internalType": "address",
          "name": "",
          "type": "address"
        },
        {
          "internalType": "int256",
          "name": "",
          "type": "int256"
        },
        {
          "internalType": "int256",
          "name": "",
          "type": "int256"
        },
        {
          "internalType": "uint256",
          "name": "",
          "type": "uint256"
        },
        {
          "internalType": "uint256",
          "name": "",
          "type": "uint256"
        },
        {
          "internalType": "uint256",
          "name": "",
          "type": "uint256"
        },
        {
          "internalType": "uint256",
          "name": "",
          "type": "uint256"
        },
        {
          "internalType": "uint256",
          "name": "",
          "type": "uint256"
        }
      ],
      "stateMutability": "view",
      "type": "function"
    },
    {
      "inputs": [
        {
          "internalType": "uint256",
          "name": "index",
          "type": "uint256"
        }
      ],
      "name": "getAccountDividendsInfoAtIndex",
      "outputs": [
        {
          "internalType": "address",
          "name": "",
          "type": "address"
        },
        {
          "internalType": "int256",
          "name": "",
          "type": "int256"
        },
        {
          "internalType": "int256",
          "name": "",
          "type": "int256"
        },
        {
          "internalType": "uint256",
          "name": "",
          "type": "uint256"
        },
        {
          "internalType": "uint256",
          "name": "",
          "type": "uint256"
        },
        {
          "internalType": "uint256",
          "name": "",
          "type": "uint256"
        },
        {
          "internalType": "uint256",
          "name": "",
          "type": "uint256"
        },
        {
          "internalType": "uint256",
          "name": "",
          "type": "uint256"
        }
      ],
      "stateMutability": "view",
      "type": "function"
    },
    {
      "inputs": [
        {
          "internalType": "uint256",
          "name": "gas",
          "type": "uint256"
        }
      ],
      "name": "processDividendTracker",
      "outputs": [],
      "stateMutability": "nonpayable",
      "type": "function"
    },
    {
      "inputs": [],
      "name": "claim",
      "outputs": [],
      "stateMutability": "nonpayable",
      "type": "function"
    },
    {
      "inputs": [
        {
          "internalType": "address",
          "name": "claimee",
          "type": "address"
        }
      ],
      "name": "claimAddress",
      "outputs": [],
      "stateMutability": "nonpayable",
      "type": "function"
    },
    {
      "inputs": [],
      "name": "getLastProcessedIndex",
      "outputs": [
        {
          "internalType": "uint256",
          "name": "",
          "type": "uint256"
        }
      ],
      "stateMutability": "view",
      "type": "function"
    },
    {
      "inputs": [
        {
          "internalType": "uint256",
          "name": "index",
          "type": "uint256"
        }
      ],
      "name": "setLastProcessedIndex",
      "outputs": [],
      "stateMutability": "nonpayable",
      "type": "function"
    },
    {
      "inputs": [],
      "name": "getNumberOfDividendTokenHolders",
      "outputs": [
        {
          "internalType": "uint256",
          "name": "",
          "type": "uint256"
        }
      ],
      "stateMutability": "view",
      "type": "function"
    }
  ],
  "bytecode": "0x60a060405261dead601f60006101000a81548173ffffffffffffffffffffffffffffffffffffffff021916908373ffffffffffffffffffffffffffffffffffffffff160217905550620493e060255560405163000106d838038063000106d883398181016040528101906300000077919063000025e2565b8060000151816020015181600390816300000094919063000028a6565b50806004908163000000a8919063000028a6565b50505063000000cf63000000c263000018c360201b60201c565b63000018cb60201b60201c565b80610180015160200151806300000109575060008161018001516101a0015182610180015161018001516300000107919063000029d1565b145b630000014e576040517f08c379a00000000000000000000000000000000000000000000000000000000081526004016300000145906300002a78565b60405180910390fd5b806101800151600001518063000001cc57506000816101800151610160015182610180015161014001516300000186919063000029d1565b14801563000001cb5750600073ffffffffffffffffffffffffffffffffffffffff16816101800151610280015173ffffffffffffffffffffffffffffffffffffffff16145b5b6300000211576040517f08c379a00000000000000000000000000000000000000000000000000000000081526004016300000208906300002af0565b60405180910390fd5b60198161018001516101800151826101800151610140015183610180015161010001518461018001516080015185610180015160c00151866101800151604001516300000260919063000029d1565b630000026e919063000029d1565b630000027c919063000029d1565b630000028a919063000029d1565b6300000298919063000029d1565b11158015630000032d575060198161018001516101a001518261018001516101600151836101800151610120015184610180015160a0015185610180015160e001518661018001516060015163000002f2919063000029d1565b6300000300919063000029d1565b630000030e919063000029d1565b630000031c919063000029d1565b630000032a919063000029d1565b11155b6300000372576040517f08c379a00000000000000000000000000000000000000000000000000000000081526004016300000369906300002b68565b60405180910390fd5b60648160400151630000038791906300002bbb565b816101600151101563000003d4576040517f08c379a000000000000000000000000000000000000000000000000000000000815260040163000003cb906300002c74565b60405180910390fd5b6103e8816040015163000003ea91906300002bbb565b81610100015110158015630000041a57506103e88160400151630000041191906300002bbb565b81610120015110155b630000045f576040517f08c379a00000000000000000000000000000000000000000000000000000000081526004016300000456906300002d12565b60405180910390fd5b73bb4cdb9cbd36b01bd1cbaebf2de08d9173bc095c73ffffffffffffffffffffffffffffffffffffffff16816101800151610240015173ffffffffffffffffffffffffffffffffffffffff16141580156300000505575073bb4cdb9cbd36b01bd1cbaebf2de08d9173bc095c73ffffffffffffffffffffffffffffffffffffffff16816101800151610260015173ffffffffffffffffffffffffffffffffffffffff1614155b8015630000055d575073bb4cdb9cbd36b01bd1cbaebf2de08d9173bc095c73ffffffffffffffffffffffffffffffffffffffff16816101800151610280015173ffffffffffffffffffffffffffffffffffffffff1614155b63000005a2576040517f08c379a00000000000000000000000000000000000000000000000000000000081526004016300000599906300002db0565b60405180910390fd5b600073ffffffffffffffffffffffffffffffffffffffff16816080015173ffffffffffffffffffffffffffffffffffffffff16141580156300000629575073bb4cdb9cbd36b01bd1cbaebf2de08d9173bc095c73ffffffffffffffffffffffffffffffffffffffff16816080015173ffffffffffffffffffffffffffffffffffffffff1614155b630000066e576040517f08c379a00000000000000000000000000000000000000000000000000000000081526004016300000665906300002e28565b60405180910390fd5b80610180015160000151600e60006101000a81548160ff02191690831515021790555080610180015160200151601160006101000a81548160ff02191690831515021790555080610180015160400151600681905550806101800151606001516007819055508061018001516080015160088190555080610180015160a0015160098190555080610180015160c00151600a8190555080610180015160e00151600b819055508061018001516101000151600c819055508061018001516101200151600d819055508061018001516101400151600f81905550806101800151610160015160108190555080610180015161018001516012819055508061018001516101a00151601381905550601254600f54600c54600854600a54600654630000079a919063000029d1565b63000007a8919063000029d1565b63000007b6919063000029d1565b63000007c4919063000029d1565b63000007d2919063000029d1565b601481905550601354601054600d54600954600b5460075463000007f8919063000029d1565b6300000806919063000029d1565b6300000814919063000029d1565b6300000822919063000029d1565b6300000830919063000029d1565b6015819055508061018001516101c00151601660006101000a81548173ffffffffffffffffffffffffffffffffffffffff021916908373ffffffffffffffffffffffffffffffffffffffff1602179055508061018001516101e00151601760006101000a81548173ffffffffffffffffffffffffffffffffffffffff021916908373ffffffffffffffffffffffffffffffffffffffff1602179055508061018001516102000151601860006101000a81548173ffffffffffffffffffffffffffffffffffffffff021916908373ffffffffffffffffffffffffffffffffffffffff1602179055508061018001516102200151601960006101000a81548173ffffffffffffffffffffffffffffffffffffffff021916908373ffffffffffffffffffffffffffffffffffffffff1602179055508061018001516102400151601a60006101000a81548173ffffffffffffffffffffffffffffffffffffffff021916908373ffffffffffffffffffffffffffffffffffffffff1602179055508061018001516102600151601b60006101000a81548173ffffffffffffffffffffffffffffffffffffffff021916908373ffffffffffffffffffffffffffffffffffffffff1602179055508061018001516102800151601c60006101000a81548173ffffffffffffffffffffffffffffffffffffffff021916908373ffffffffffffffffffffffffffffffffffffffff1602179055508060c00151601c60146101000a81548160ff0219169083151502179055508060e00151602a60006101000a81548160ff0219169083151502179055508060e00151602a60016101000a81548160ff0219169083151502179055506300000aaf630000199160201b60201c565b600a6300000abf91906300002fce565b8161010001516300000ad391906300003025565b602b819055506300000aeb630000199160201b60201c565b600a6300000afb91906300002fce565b8161012001516300000b0f91906300003025565b602c81905550806101400151602760006101000a81548160ff021916908315150217905550806101400151602760016101000a81548160ff0219169083151502179055506300000b65630000199160201b60201c565b600a6300000b7591906300002fce565b8161016001516300000b8991906300003025565b6028819055508060a0015181608001516040516300000ba9906300001ef6565b6300000bb8929190630000309f565b604051809103906000f0801580156300000bd6573d6000803e3d6000fd5b50602460006101000a81548173ffffffffffffffffffffffffffffffffffffffff021916908373ffffffffffffffffffffffffffffffffffffffff160217905550806080015173ffffffffffffffffffffffffffffffffffffffff1660808173ffffffffffffffffffffffffffffffffffffffff168152505060008160600151905060008173ffffffffffffffffffffffffffffffffffffffff1663c45a01556040518163ffffffff1660e01b8152600401602060405180830381865afa1580156300000ca7573d6000803e3d6000fd5b505050506040513d601f19601f820116820180604052508101906300000ccf919063000030d0565b73ffffffffffffffffffffffffffffffffffffffff1663c9c65396308473ffffffffffffffffffffffffffffffffffffffff1663ad5c46486040518163ffffffff1660e01b8152600401602060405180830381865afa1580156300000d38573d6000803e3d6000fd5b505050506040513d601f19601f820116820180604052508101906300000d60919063000030d0565b6040518363ffffffff1660e01b81526004016300000d819291906300003107565b6020604051808303816000875af11580156300000da2573d6000803e3d6000fd5b505050506040513d601f19601f820116820180604052508101906300000dca919063000030d0565b905081601d60006101000a81548173ffffffffffffffffffffffffffffffffffffffff021916908373ffffffffffffffffffffffffffffffffffffffff16021790555080601e60006101000a81548173ffffffffffffffffffffffffffffffffffffffff021916908373ffffffffffffffffffffffffffffffffffffffff1602179055506300000ea530601d60009054906101000a900473ffffffffffffffffffffffffffffffffffffffff167fffffffffffffffffffffffffffffffffffffffffffffffffffffffffffffffff630000199a60201b60201c565b6300000eba8160016300001b7360201b60201c565b602460009054906101000a900473ffffffffffffffffffffffffffffffffffffffff1673ffffffffffffffffffffffffffffffffffffffff166331e79db0602460009054906101000a900473ffffffffffffffffffffffffffffffffffffffff166040518263ffffffff1660e01b81526004016300000f3b91906300003138565b600060405180830381600087803b1580156300000f5757600080fd5b505af11580156300000f6d573d6000803e3d6000fd5b50505050602460009054906101000a900473ffffffffffffffffffffffffffffffffffffffff1673ffffffffffffffffffffffffffffffffffffffff166331e79db0306040518263ffffffff1660e01b81526004016300000fd091906300003138565b600060405180830381600087803b1580156300000fec57600080fd5b505af11580156300001002573d6000803e3d6000fd5b50505050602460009054906101000a900473ffffffffffffffffffffffffffffffffffffffff1673ffffffffffffffffffffffffffffffffffffffff166331e79db0601f60009054906101000a900473ffffffffffffffffffffffffffffffffffffffff166040518263ffffffff1660e01b8152600401630000108791906300003138565b600060405180830381600087803b15801563000010a357600080fd5b505af115801563000010b9573d6000803e3d6000fd5b50505050602460009054906101000a900473ffffffffffffffffffffffffffffffffffffffff1673ffffffffffffffffffffffffffffffffffffffff166331e79db0601960009054906101000a900473ffffffffffffffffffffffffffffffffffffffff166040518263ffffffff1660e01b8152600401630000113e91906300003138565b600060405180830381600087803b158015630000115a57600080fd5b505af11580156300001170573d6000803e3d6000fd5b50505050602460009054906101000a900473ffffffffffffffffffffffffffffffffffffffff1673ffffffffffffffffffffffffffffffffffffffff166331e79db0836040518263ffffffff1660e01b815260040163000011d391906300003138565b600060405180830381600087803b15801563000011ef57600080fd5b505af11580156300001205573d6000803e3d6000fd5b5050505060016029600063000012216300001d4a60201b60201c565b73ffffffffffffffffffffffffffffffffffffffff1673ffffffffffffffffffffffffffffffffffffffff16815260200190815260200160002060006101000a81548160ff0219169083151502179055506001602960008073ffffffffffffffffffffffffffffffffffffffff1673ffffffffffffffffffffffffffffffffffffffff16815260200190815260200160002060006101000a81548160ff0219169083151502179055506001602960003073ffffffffffffffffffffffffffffffffffffffff1673ffffffffffffffffffffffffffffffffffffffff16815260200190815260200160002060006101000a81548160ff021916908315150217905550600160296000601f60009054906101000a900473ffffffffffffffffffffffffffffffffffffffff1673ffffffffffffffffffffffffffffffffffffffff1673ffffffffffffffffffffffffffffffffffffffff16815260200190815260200160002060006101000a81548160ff021916908315150217905550600160296000601960009054906101000a900473ffffffffffffffffffffffffffffffffffffffff1673ffffffffffffffffffffffffffffffffffffffff1673ffffffffffffffffffffffffffffffffffffffff16815260200190815260200160002060006101000a81548160ff021916908315150217905550600160266000630000142e6300001d4a60201b60201c565b73ffffffffffffffffffffffffffffffffffffffff1673ffffffffffffffffffffffffffffffffffffffff16815260200190815260200160002060006101000a81548160ff0219169083151502179055506001602660008073ffffffffffffffffffffffffffffffffffffffff1673ffffffffffffffffffffffffffffffffffffffff16815260200190815260200160002060006101000a81548160ff0219169083151502179055506001602660003073ffffffffffffffffffffffffffffffffffffffff1673ffffffffffffffffffffffffffffffffffffffff16815260200190815260200160002060006101000a81548160ff021916908315150217905550600160266000601f60009054906101000a900473ffffffffffffffffffffffffffffffffffffffff1673ffffffffffffffffffffffffffffffffffffffff1673ffffffffffffffffffffffffffffffffffffffff16815260200190815260200160002060006101000a81548160ff021916908315150217905550600160266000601960009054906101000a900473ffffffffffffffffffffffffffffffffffffffff1673ffffffffffffffffffffffffffffffffffffffff1673ffffffffffffffffffffffffffffffffffffffff16815260200190815260200160002060006101000a81548160ff021916908315150217905550600160226000630000163b6300001d4a60201b60201c565b73ffffffffffffffffffffffffffffffffffffffff1673ffffffffffffffffffffffffffffffffffffffff16815260200190815260200160002060006101000a81548160ff0219169083151502179055506001602260003073ffffffffffffffffffffffffffffffffffffffff1673ffffffffffffffffffffffffffffffffffffffff16815260200190815260200160002060006101000a81548160ff021916908315150217905550600160226000601f60009054906101000a900473ffffffffffffffffffffffffffffffffffffffff1673ffffffffffffffffffffffffffffffffffffffff1673ffffffffffffffffffffffffffffffffffffffff16815260200190815260200160002060006101000a81548160ff021916908315150217905550600160226000601960009054906101000a900473ffffffffffffffffffffffffffffffffffffffff1673ffffffffffffffffffffffffffffffffffffffff1673ffffffffffffffffffffffffffffffffffffffff16815260200190815260200160002060006101000a81548160ff0219169083151502179055506001602160006101000a81548160ff021916908315150217905550611388670de0b6b3a76400008460400151630000181291906300003025565b630000182091906300002bbb565b6020819055506300001866630000183d6300001d4a60201b60201c565b670de0b6b3a76400008560400151630000185991906300003025565b6300001d7460201b60201c565b826101c0015173ffffffffffffffffffffffffffffffffffffffff166108fc846101a001519081150290604051600060405180830381858888f1935050505015801563000018b8573d6000803e3d6000fd5b5050505063000033c8565b600033905090565b6000600560009054906101000a900473ffffffffffffffffffffffffffffffffffffffff16905081600560006101000a81548173ffffffffffffffffffffffffffffffffffffffff021916908373ffffffffffffffffffffffffffffffffffffffff1602179055508173ffffffffffffffffffffffffffffffffffffffff168173ffffffffffffffffffffffffffffffffffffffff167f8be0079c531659141344cd1fd0a4f28419497f9722a3daafe3b4186f6b6457e060405160405180910390a35050565b60006012905090565b600073ffffffffffffffffffffffffffffffffffffffff168373ffffffffffffffffffffffffffffffffffffffff16036300001a0f576040517f08c379a00000000000000000000000000000000000000000000000000000000081526004016300001a069063000031d1565b60405180910390fd5b600073ffffffffffffffffffffffffffffffffffffffff168273ffffffffffffffffffffffffffffffffffffffff16036300001a84576040517f08c379a00000000000000000000000000000000000000000000000000000000081526004016300001a7b90630000326f565b60405180910390fd5b80600160008573ffffffffffffffffffffffffffffffffffffffff1673ffffffffffffffffffffffffffffffffffffffff16815260200190815260200160002060008473ffffffffffffffffffffffffffffffffffffffff1673ffffffffffffffffffffffffffffffffffffffff168152602001908152602001600020819055508173ffffffffffffffffffffffffffffffffffffffff168373ffffffffffffffffffffffffffffffffffffffff167f8c5be1e5ebec7d5bd14f71427d1e84f3dd0314c0f7b2291e5b200ac8c7c3b925836040516300001b6691906300003293565b60405180910390a3505050565b801515602360008473ffffffffffffffffffffffffffffffffffffffff1673ffffffffffffffffffffffffffffffffffffffff16815260200190815260200160002060009054906101000a900460ff161515036300001c0b576040517f08c379a00000000000000000000000000000000000000000000000000000000081526004016300001c0290630000332c565b60405180910390fd5b80602360008473ffffffffffffffffffffffffffffffffffffffff1673ffffffffffffffffffffffffffffffffffffffff16815260200190815260200160002060006101000a81548160ff02191690831515021790555080156300001d0057602460009054906101000a900473ffffffffffffffffffffffffffffffffffffffff1673ffffffffffffffffffffffffffffffffffffffff166331e79db0836040518263ffffffff1660e01b81526004016300001cc991906300003138565b600060405180830381600087803b1580156300001ce557600080fd5b505af11580156300001cfb573d6000803e3d6000fd5b505050505b8015158273ffffffffffffffffffffffffffffffffffffffff167fffa9187bf1f18bf477bd0ea1bcbb64e93b6a98132473929edfce215cd9b16fab60405160405180910390a35050565b6000600560009054906101000a900473ffffffffffffffffffffffffffffffffffffffff16905090565b600073ffffffffffffffffffffffffffffffffffffffff168273ffffffffffffffffffffffffffffffffffffffff16036300001de9576040517f08c379a00000000000000000000000000000000000000000000000000000000081526004016300001de09063000033a4565b60405180910390fd5b6300001dff600083836300001eec60201b60201c565b80600260008282546300001e15919063000029d1565b92505081905550806000808473ffffffffffffffffffffffffffffffffffffffff1673ffffffffffffffffffffffffffffffffffffffff168152602001908152602001600020600082825401925050819055508173ffffffffffffffffffffffffffffffffffffffff16600073ffffffffffffffffffffffffffffffffffffffff167fddf252ad1be2c89b69c2b068fc378daa952ba7f163c4a11628f55a4df523b3ef836040516300001eca91906300003293565b60405180910390a36300001ee8600083836300001ef160201b60201c565b5050565b505050565b505050565b613e2b80630000c8ad83390190565b6000604051905090565b600080fd5b600080fd5b600080fd5b6000601f19601f8301169050919050565b7f4e487b7100000000000000000000000000000000000000000000000000000000600052604160045260246000fd5b6300001f6b826300001f1e565b810181811067ffffffffffffffff821117156300001f90576300001f8f6300001f2f565b5b80604052505050565b60006300001fa76300001f05565b90506300001fb782826300001f5e565b919050565b600080fd5b600080fd5b600080fd5b600067ffffffffffffffff8211156300001fec576300001feb6300001f2f565b5b6300001ff9826300001f1e565b9050602081019050919050565b60005b8381101563000020285780820151818401526020810190506300002009565b60008484015250505050565b6000630000204f6300002048846300001fcb565b6300001f99565b90508281526020810184848401111563000020715763000020706300001fc6565b5b63000020808482856300002006565b509392505050565b600082601f83011263000020a35763000020a26300001fc1565b5b815163000020b78482602086016300002034565b91505092915050565b6000819050919050565b63000020d78163000020c0565b811463000020e457600080fd5b50565b60008151905063000020fa8163000020ca565b92915050565b600073ffffffffffffffffffffffffffffffffffffffff82169050919050565b6000630000212f826300002100565b9050919050565b6300002143816300002120565b8114630000215057600080fd5b50565b6000815190506300002166816300002136565b92915050565b60008115159050919050565b630000218581630000216c565b8114630000219257600080fd5b50565b60008151905063000021a8816300002178565b92915050565b60006102a0828403121563000021cb5763000021ca6300001f19565b5b63000021da6102a06300001f99565b9050600063000021ee848285016300002195565b60008301525060206300002206848285016300002195565b6020830152506040630000221e8482850163000020e7565b604083015250606063000022368482850163000020e7565b6060830152506080630000224e8482850163000020e7565b60808301525060a063000022668482850163000020e7565b60a08301525060c0630000227e8482850163000020e7565b60c08301525060e063000022968482850163000020e7565b60e08301525061010063000022af8482850163000020e7565b6101008301525061012063000022c98482850163000020e7565b6101208301525061014063000022e38482850163000020e7565b6101408301525061016063000022fd8482850163000020e7565b6101608301525061018063000023178482850163000020e7565b610180830152506101a063000023318482850163000020e7565b6101a0830152506101c0630000234b848285016300002153565b6101c0830152506101e06300002365848285016300002153565b6101e083015250610200630000237f848285016300002153565b610200830152506102206300002399848285016300002153565b6102208301525061024063000023b3848285016300002153565b6102408301525061026063000023cd848285016300002153565b6102608301525061028063000023e7848285016300002153565b6102808301525092915050565b6000610460828403121563000024115763000024106300001f19565b5b63000024206101e06300001f99565b9050600082015167ffffffffffffffff81111563000024465763000024456300001fbc565b5b6300002456848285016300002088565b600083015250602082015167ffffffffffffffff811115630000248057630000247f6300001fbc565b5b6300002490848285016300002088565b602083015250604063000024a88482850163000020e7565b604083015250606063000024c0848285016300002153565b606083015250608063000024d8848285016300002153565b60808301525060a063000024f08482850163000020e7565b60a08301525060c06300002508848285016300002195565b60c08301525060e06300002520848285016300002195565b60e08301525061010063000025398482850163000020e7565b6101008301525061012063000025538482850163000020e7565b61012083015250610140630000256d848285016300002195565b6101408301525061016063000025878482850163000020e7565b6101608301525061018063000025a18482850163000021ae565b6101808301525061042063000025bb8482850163000020e7565b6101a08301525061044063000025d5848285016300002153565b6101c08301525092915050565b60006020828403121563000025fe5763000025fd6300001f0f565b5b600082015167ffffffffffffffff81111563000026225763000026216300001f14565b5b63000026328482850163000023f4565b91505092915050565b600081519050919050565b7f4e487b7100000000000000000000000000000000000000000000000000000000600052602260045260246000fd5b60006002820490506001821680630000268f57607f821691505b60208210810363000026a85763000026a76300002646565b5b50919050565b60008190508160005260206000209050919050565b60006020601f8301049050919050565b600082821b905092915050565b60006008830263000027147fffffffffffffffffffffffffffffffffffffffffffffffffffffffffffffffff8263000026d3565b6300002722868363000026d3565b95508019841693508086168417925050509392505050565b6000819050919050565b6000630000276b6300002764630000275d8463000020c0565b630000273a565b63000020c0565b9050919050565b6000819050919050565b6300002789836300002744565b63000027a5630000279b826300002772565b84845463000026e0565b825550505050565b600090565b63000027be63000027ad565b63000027cd818484630000277c565b505050565b5b8181101563000027f95763000027ec60008263000027b2565b60018101905063000027d3565b5050565b601f82111563000028525763000028158163000026ae565b63000028228463000026c3565b810160208510156300002833578190505b630000284f63000028458563000026c3565b83018263000027d2565b50505b505050565b600082821c905092915050565b60006300002879600019846008026300002857565b1980831691505092915050565b6000630000289683836300002864565b9150826002028217905092915050565b63000028b382630000263b565b67ffffffffffffffff81111563000028d25763000028d16300001f2f565b5b63000028e082546300002675565b63000028ef82828563000027fd565b600060209050601f831160018114630000292c57600084156300002914578287015190505b630000292285826300002886565b865550630000299a565b601f198416630000293e8663000026ae565b60005b82811015630000296a578489015182556001820191506020850194506020810190506300002941565b86831015630000298d57848901516300002989601f8916826300002864565b8355505b6001600288020188555050505b505050505050565b7f4e487b7100000000000000000000000000000000000000000000000000000000600052601160045260246000fd5b600063000029e08263000020c0565b915063000029ef8363000020c0565b92508282019050808211156300002a0d576300002a0c63000029a2565b5b92915050565b600082825260208201905092915050565b7f5374616b696e6720466565206973206e6f7420617661696c61626c6500000000600082015250565b60006300002a5e601c836300002a13565b91506300002a6d826300002a24565b602082019050919050565b600060208201905081810360008301526300002a95816300002a4d565b9050919050565b7f53616c617279204665652069736e277420617661696c61626c65000000000000600082015250565b60006300002ad6601a836300002a13565b91506300002ae5826300002a9c565b602082019050919050565b600060208201905081810360008301526300002b0d816300002ac5565b9050919050565b7f46656573206d757374206265206c657373207468616e20323525000000000000600082015250565b60006300002b4e601a836300002a13565b91506300002b5d826300002b14565b602082019050919050565b600060208201905081810360008301526300002b85816300002b3d565b9050919050565b7f4e487b7100000000000000000000000000000000000000000000000000000000600052601260045260246000fd5b60006300002bca8263000020c0565b91506300002bd98363000020c0565b9250826300002bef576300002bee6300002b8c565b5b828204905092915050565b7f4d61782077616c6c6574206c696d69742072617465206d75737420626520677260008201527f6561746572207468616e203125206f6620746f74616c20737570706c79000000602082015250565b60006300002c5a603d836300002a13565b91506300002c69826300002bfa565b604082019050919050565b600060208201905081810360008301526300002c91816300002c49565b9050919050565b7f4d6178207472616e73616374696f6e207261746573206d75737420626520677260008201527f6561746572207468616e20302e3125206f6620746f74616c20737570706c7900602082015250565b60006300002cf8603f836300002a13565b91506300002d07826300002c98565b604082019050919050565b600060208201905081810360008301526300002d2f816300002ce7565b9050919050565b7f4d61726b6574696e672c206275796261636b20616e642073616c61727920637560008201527f7272656e636965732063616e6e6f742062652057424e42000000000000000000602082015250565b60006300002d966037836300002a13565b91506300002da5826300002d36565b604082019050919050565b600060208201905081810360008301526300002dcd816300002d85565b9050919050565b7f52657761726420746f6b656e2063616e6e6f7420626520424e42000000000000600082015250565b60006300002e0e601a836300002a13565b91506300002e1d826300002dd4565b602082019050919050565b600060208201905081810360008301526300002e45816300002dfd565b9050919050565b60008160011c9050919050565b6000808291508390505b60018511156300002eb3578086048111156300002e87576300002e8663000029a2565b5b60018516156300002e985780820291505b80810290506300002eaa856300002e4c565b94506300002e63565b94509492505050565b6000826300002ed057600190506300002fba565b816300002ee257600090506300002fba565b81600181146300002efe57600281146300002f0a576300002f47565b60019150506300002fba565b60ff8411156300002f22576300002f2163000029a2565b5b8360020a9150848211156300002f3f576300002f3e63000029a2565b5b506300002fba565b5060208310610133831016604e8410600b84101617156300002f865782820a9050838111156300002f7f576300002f7e63000029a2565b5b6300002fba565b6300002f9784848460016300002e59565b925090508184048111156300002fb4576300002fb363000029a2565b5b81810290505b9392505050565b600060ff82169050919050565b60006300002fdd8263000020c0565b91506300002fec836300002fc1565b9250630000301d7fffffffffffffffffffffffffffffffffffffffffffffffffffffffffffffffff84846300002ebc565b905092915050565b600063000030348263000020c0565b915063000030438363000020c0565b925082820263000030558163000020c0565b91508282048414831517630000307257630000307163000029a2565b5b5092915050565b63000030868163000020c0565b82525050565b6300003099816300002120565b82525050565b600060408201905063000030b860008301856300003079565b63000030c96020830184630000308c565b9392505050565b60006020828403121563000030ec5763000030eb6300001f0f565b5b600063000030fe848285016300002153565b91505092915050565b600060408201905063000031206000830185630000308c565b63000031316020830184630000308c565b9392505050565b600060208201905063000031516000830184630000308c565b92915050565b7f45524332303a20617070726f76652066726f6d20746865207a65726f2061646460008201527f7265737300000000000000000000000000000000000000000000000000000000602082015250565b600063000031b76024836300002a13565b915063000031c6826300003157565b604082019050919050565b6000602082019050818103600083015263000031ee8163000031a6565b9050919050565b7f45524332303a20617070726f766520746f20746865207a65726f20616464726560008201527f7373000000000000000000000000000000000000000000000000000000000000602082015250565b600063000032556022836300002a13565b915063000032648263000031f5565b604082019050919050565b60006020820190508181036000830152630000328c816300003244565b9050919050565b600060208201905063000032ac60008301846300003079565b92915050565b7f4175746f6d61746564206d61726b6574206d616b65722070616972206973206160008201527f6c72656164792073657420746f20746861742076616c75650000000000000000602082015250565b600063000033126038836300002a13565b915063000033218263000032b2565b604082019050919050565b600060208201905081810360008301526300003349816300003301565b9050919050565b7f45524332303a206d696e7420746f20746865207a65726f206164647265737300600082015250565b6000630000338a601f836300002a13565b91506300003399826300003350565b602082019050919050565b6000602082019050818103600083015263000033c1816300003379565b9050919050565b6080516194b363000033fa600039600081816145f501528181616a0901528181616b0f0152616bad01526194b36000f3fe6080604052600436106105065760003560e01c806375f0a87411610297578063b62496f511610165578063e01af92c116100cc578063ea61629c11610085578063ea61629c14611466578063f27fd25414611491578063f2fde38b146114d5578063f7228f69146114fe578063f7c618c114611529578063f9d0831a146115545761050d565b8063e01af92c14611356578063e2f456051461137f578063e4f24cb0146113aa578063e7841ec0146113e7578063e98030c714611412578063ea57baee1461143b5761050d565b8063d8144bcd1161011e578063d8144bcd14611244578063dc24dd571461126f578063dc2f218014611298578063dc4c7dbc146112c3578063dd62ed3e146112ee578063deab8aea1461132b5761050d565b8063b62496f514611136578063b6f7f68114611173578063b805a2221461119c578063b9b71a09146111c7578063bb85c6d1146111f2578063c02466681461121b5761050d565b8063988be11811610209578063a8b9d240116101c2578063a8b9d24014610ff9578063a9059cbb14611036578063aa4bde2814611073578063ad56c13c1461109e578063afa4f3b2146110e2578063b288ace31461110b5761050d565b8063988be11814610ed75780639a7a23d614610f005780639c1b8af514610f29578063a26579ad14610f54578063a457c2d714610f7f578063a8a69b9d14610fbc5761050d565b8063871c128d1161025b578063871c128d14610ddb57806388bdd9be14610e045780638da5cb5b14610e2d578063929f136014610e5857806395d89b4114610e815780639710545b14610eac5761050d565b806375f0a87414610d08578063768b2a7314610d33578063784b8e8214610d5e57806379e02b4414610d875780637b3c83b114610db05761050d565b806331e79db0116103d457806356a6cabf116103465780636843cd84116102ff5780636843cd8414610bf85780636a3725f714610c355780636ddd171314610c60578063700bb19114610c8b57806370a0823114610cb4578063715018a614610cf15761050d565b806356a6cabf14610afa5780635898ac1c14610b2357806359136fa514610b4e5780635fc2e59614610b7957806364b0f65314610ba457806365b8dbc014610bcf5761050d565b8063488eb37f11610398578063488eb37f146109fc57806349bd5a5e14610a275780634e71d92d14610a525780634f84452714610a695780634fbee19314610a945780635654d0b314610ad15761050d565b806331e79db01461091b578063384c05bd14610944578063395093511461096d5780633b364da8146109aa5780633f249df0146109d35761050d565b806318d9ceae116104785780632a6c7dba116104315780632a6c7dba1461081b5780632ba86bf2146108445780632c1f52161461086f5780632ce86fbf1461089a57806330bb4cff146108c5578063313ce567146108f05761050d565b806318d9ceae146106fb57806321a9d82a1461073857806322d3e2aa1461076357806323b872dd1461078c57806327a14fc2146107c9578063286b3aa0146107f25761050d565b8063095ea7b3116104ca578063095ea7b3146105e957806314e7ed2314610626578063150c880c146106515780631529fbbf1461067a5780631694505e146106a557806318160ddd146106d05761050d565b80630105d0fd1461051257806303c401461461053d57806305452b871461056857806306ee6ad81461059357806306fdde03146105be5761050d565b3661050d57005b600080fd5b34801561051e57600080fd5b5061052761157d565b6040516105349190616d61565b60405180910390f35b34801561054957600080fd5b50610552611583565b60405161055f9190616d97565b60405180910390f35b34801561057457600080fd5b5061057d611596565b60405161058a9190616d61565b60405180910390f35b34801561059f57600080fd5b506105a861159c565b6040516105b59190616df3565b60405180910390f35b3480156105ca57600080fd5b506105d36115c2565b6040516105e09190616e9e565b60405180910390f35b3480156105f557600080fd5b50610610600480360381019061060b9190616f1d565b611654565b60405161061d9190616d97565b60405180910390f35b34801561063257600080fd5b5061063b611677565b6040516106489190616d61565b60405180910390f35b34801561065d57600080fd5b5061067860048036038101906106739190616f89565b61167d565b005b34801561068657600080fd5b5061068f61180f565b60405161069c9190616d97565b60405180910390f35b3480156106b157600080fd5b506106ba611822565b6040516106c79190617028565b60405180910390f35b3480156106dc57600080fd5b506106e5611848565b6040516106f29190616d61565b60405180910390f35b34801561070757600080fd5b50610722600480360381019061071d9190617043565b611852565b60405161072f9190616d97565b60405180910390f35b34801561074457600080fd5b5061074d6118a8565b60405161075a9190616d97565b60405180910390f35b34801561076f57600080fd5b5061078a60048036038101906107859190617070565b6118bb565b005b34801561079857600080fd5b506107b360048036038101906107ae91906170fd565b6119fb565b6040516107c09190616d97565b60405180910390f35b3480156107d557600080fd5b506107f060048036038101906107eb9190617150565b611a2a565b005b3480156107fe57600080fd5b5061081960048036038101906108149190617150565b611b38565b005b34801561082757600080fd5b50610842600480360381019061083d919061717d565b611bd0565b005b34801561085057600080fd5b50610859611cdf565b6040516108669190616d97565b60405180910390f35b34801561087b57600080fd5b50610884611cf2565b60405161089191906171cb565b60405180910390f35b3480156108a657600080fd5b506108af611d18565b6040516108bc9190616d61565b60405180910390f35b3480156108d157600080fd5b506108da611d1e565b6040516108e79190616d61565b60405180910390f35b3480156108fc57600080fd5b50610905611db6565b6040516109129190617202565b60405180910390f35b34801561092757600080fd5b50610942600480360381019061093d9190617043565b611dbf565b005b34801561095057600080fd5b5061096b60048036038101906109669190617043565b611e57565b005b34801561097957600080fd5b50610994600480360381019061098f9190616f1d565b611fdb565b6040516109a19190616d97565b60405180910390f35b3480156109b657600080fd5b506109d160048036038101906109cc9190617150565b612012565b005b3480156109df57600080fd5b506109fa60048036038101906109f59190617043565b6120aa565b005b348015610a0857600080fd5b50610a11612157565b604051610a1e9190616d97565b60405180910390f35b348015610a3357600080fd5b50610a3c61216a565b604051610a499190616df3565b60405180910390f35b348015610a5e57600080fd5b50610a67612190565b005b348015610a7557600080fd5b50610a7e612234565b604051610a8b9190616d61565b60405180910390f35b348015610aa057600080fd5b50610abb6004803603810190610ab69190617043565b61223a565b604051610ac89190616d97565b60405180910390f35b348015610add57600080fd5b50610af86004803603810190610af3919061717d565b612290565b005b348015610b0657600080fd5b50610b216004803603810190610b1c919061717d565b61230a565b005b348015610b2f57600080fd5b50610b38612419565b604051610b459190616d97565b60405180910390f35b348015610b5a57600080fd5b50610b6361242c565b604051610b709190616d61565b60405180910390f35b348015610b8557600080fd5b50610b8e612432565b604051610b9b9190616d61565b60405180910390f35b348015610bb057600080fd5b50610bb9612438565b604051610bc69190616d61565b60405180910390f35b348015610bdb57600080fd5b50610bf66004803603810190610bf19190617043565b6124d0565b005b348015610c0457600080fd5b50610c1f6004803603810190610c1a9190617043565b61280c565b604051610c2c9190616d61565b60405180910390f35b348015610c4157600080fd5b50610c4a6128b1565b604051610c579190616d97565b60405180910390f35b348015610c6c57600080fd5b50610c756128c4565b604051610c829190616d97565b60405180910390f35b348015610c9757600080fd5b50610cb26004803603810190610cad9190617150565b6128d7565b005b348015610cc057600080fd5b50610cdb6004803603810190610cd69190617043565b6129de565b604051610ce89190616d61565b60405180910390f35b348015610cfd57600080fd5b50610d06612a26565b005b348015610d1457600080fd5b50610d1d612a3a565b604051610d2a9190616df3565b60405180910390f35b348015610d3f57600080fd5b50610d48612a60565b604051610d559190616d61565b60405180910390f35b348015610d6a57600080fd5b50610d856004803603810190610d809190617043565b612a66565b005b348015610d9357600080fd5b50610dae6004803603810190610da99190617070565b612c8d565b005b348015610dbc57600080fd5b50610dc5612dcd565b604051610dd29190616d61565b60405180910390f35b348015610de757600080fd5b50610e026004803603810190610dfd9190617150565b612dd3565b005b348015610e1057600080fd5b50610e2b6004803603810190610e269190617043565b612eae565b005b348015610e3957600080fd5b50610e42613365565b604051610e4f9190616df3565b60405180910390f35b348015610e6457600080fd5b50610e7f6004803603810190610e7a9190616f89565b61338f565b005b348015610e8d57600080fd5b50610e96613521565b604051610ea39190616e9e565b60405180910390f35b348015610eb857600080fd5b50610ec16135b3565b604051610ece9190616df3565b60405180910390f35b348015610ee357600080fd5b50610efe6004803603810190610ef9919061717d565b6135d9565b005b348015610f0c57600080fd5b50610f276004803603810190610f229190616f89565b613653565b005b348015610f3557600080fd5b50610f3e6136f9565b604051610f4b9190616d61565b60405180910390f35b348015610f6057600080fd5b50610f696136ff565b604051610f769190616d61565b60405180910390f35b348015610f8b57600080fd5b50610fa66004803603810190610fa19190616f1d565b613797565b604051610fb39190616d97565b60405180910390f35b348015610fc857600080fd5b50610fe36004803603810190610fde9190617043565b61380e565b604051610ff09190616d97565b60405180910390f35b34801561100557600080fd5b50611020600480360381019061101b9190617043565b613864565b60405161102d9190616d61565b60405180910390f35b34801561104257600080fd5b5061105d60048036038101906110589190616f1d565b613909565b60405161106a9190616d97565b60405180910390f35b34801561107f57600080fd5b5061108861392c565b6040516110959190616d61565b60405180910390f35b3480156110aa57600080fd5b506110c560048036038101906110c09190617043565b613932565b6040516110d9989796959493929190617236565b60405180910390f35b3480156110ee57600080fd5b5061110960048036038101906111049190617150565b6139f6565b005b34801561111757600080fd5b50611120613a5f565b60405161112d9190616d61565b60405180910390f35b34801561114257600080fd5b5061115d60048036038101906111589190617043565b613a65565b60405161116a9190616d97565b60405180910390f35b34801561117f57600080fd5b5061119a600480360381019061119591906172b4565b613a85565b005b3480156111a857600080fd5b506111b1613c1a565b6040516111be9190616d61565b60405180910390f35b3480156111d357600080fd5b506111dc613c20565b6040516111e99190616d61565b60405180910390f35b3480156111fe57600080fd5b5061121960048036038101906112149190617043565b613c26565b005b34801561122757600080fd5b50611242600480360381019061123d9190616f89565b613dfe565b005b34801561125057600080fd5b50611259613f41565b6040516112669190616df3565b60405180910390f35b34801561127b57600080fd5b5061129660048036038101906112919190617043565b613f67565b005b3480156112a457600080fd5b506112ad61413f565b6040516112ba9190616d61565b60405180910390f35b3480156112cf57600080fd5b506112d8614145565b6040516112e59190616d61565b60405180910390f35b3480156112fa57600080fd5b50611315600480360381019061131091906172f4565b61414b565b6040516113229190616d61565b60405180910390f35b34801561133757600080fd5b506113406141d2565b60405161134d9190616df3565b60405180910390f35b34801561136257600080fd5b5061137d6004803603810190611378919061717d565b6141f8565b005b34801561138b57600080fd5b50611394614272565b6040516113a19190616d61565b60405180910390f35b3480156113b657600080fd5b506113d160048036038101906113cc9190617043565b614278565b6040516113de9190616d61565b60405180910390f35b3480156113f357600080fd5b506113fc61431d565b6040516114099190616d61565b60405180910390f35b34801561141e57600080fd5b5061143960048036038101906114349190617150565b6143b5565b005b34801561144757600080fd5b5061145061444d565b60405161145d9190616df3565b60405180910390f35b34801561147257600080fd5b5061147b614473565b6040516114889190616d97565b60405180910390f35b34801561149d57600080fd5b506114b860048036038101906114b39190617150565b614486565b6040516114cc989796959493929190617236565b60405180910390f35b3480156114e157600080fd5b506114fc60048036038101906114f79190617043565b61454a565b005b34801561150a57600080fd5b506115136145cd565b6040516115209190616df3565b60405180910390f35b34801561153557600080fd5b5061153e6145f3565b60405161154b9190616df3565b60405180910390f35b34801561156057600080fd5b5061157b60048036038101906115769190617043565b614617565b005b602b5481565b600e60009054906101000a900460ff1681565b60095481565b601960009054906101000a900473ffffffffffffffffffffffffffffffffffffffff1681565b6060600380546115d190617363565b80601f01602080910402602001604051908101604052809291908181526020018280546115fd90617363565b801561164a5780601f1061161f5761010080835404028352916020019161164a565b820191906000526020600020905b81548152906001019060200180831161162d57829003601f168201915b5050505050905090565b60008061165f614815565b905061166c81858561481d565b600191505092915050565b600c5481565b6116856149e6565b602a60009054906101000a900460ff166116d4576040517f08c379a00000000000000000000000000000000000000000000000000000000081526004016116cb90617406565b60405180910390fd5b801515602960008473ffffffffffffffffffffffffffffffffffffffff1673ffffffffffffffffffffffffffffffffffffffff16815260200190815260200160002060009054906101000a900460ff16151503611766576040517f08c379a000000000000000000000000000000000000000000000000000000000815260040161175d90617498565b60405180910390fd5b80602960008473ffffffffffffffffffffffffffffffffffffffff1673ffffffffffffffffffffffffffffffffffffffff16815260200190815260200160002060006101000a81548160ff0219169083151502179055508173ffffffffffffffffffffffffffffffffffffffff167f8727c4afe988887760e8db0bbad9f9fcceee6428545956832f67c8fdbd589c10826040516118039190616d97565b60405180910390a25050565b601c60149054906101000a900460ff1681565b601d60009054906101000a900473ffffffffffffffffffffffffffffffffffffffff1681565b6000600254905090565b6000602960008373ffffffffffffffffffffffffffffffffffffffff1673ffffffffffffffffffffffffffffffffffffffff16815260200190815260200160002060009054906101000a900460ff169050919050565b602760019054906101000a900460ff1681565b6118c36149e6565b601981838587898b6118d591906174e7565b6118df91906174e7565b6118e991906174e7565b6118f391906174e7565b6118fd91906174e7565b111561193e576040517f08c379a000000000000000000000000000000000000000000000000000000000815260040161193590617567565b60405180910390fd5b856007819055508360098190555084600b8190555082600d819055508160108190555080601381905550601354601054600d54600954600b5460075461198491906174e7565b61198e91906174e7565b61199891906174e7565b6119a291906174e7565b6119ac91906174e7565b6015819055507f98ffcf24c99d860cbce53a40a00f892b91e84b61b9c1106ec062f7b2c17b1dad8686868686866040516119eb96959493929190617587565b60405180910390a1505050505050565b600080611a06614815565b9050611a13858285614a64565b611a1e858585614af0565b60019150509392505050565b611a326149e6565b602760009054906101000a900460ff16611a81576040517f08c379a0000000000000000000000000000000000000000000000000000000008152600401611a789061765a565b60405180910390fd5b6064611a8b611db6565b600a611a9791906177ad565b611a9f611848565b611aa99190617827565b611ab39190617827565b811015611af5576040517f08c379a0000000000000000000000000000000000000000000000000000000008152600401611aec906178ca565b60405180910390fd5b806028819055507ffbede00c52e68e7972265f0deb49773af2ec3e07ebaf22d74be3c4f0c6d56867602854604051611b2d9190616d61565b60405180910390a150565b611b406149e6565b602460009054906101000a900473ffffffffffffffffffffffffffffffffffffffff1673ffffffffffffffffffffffffffffffffffffffff1663286b3aa0826040518263ffffffff1660e01b8152600401611b9b9190616d61565b600060405180830381600087803b158015611bb557600080fd5b505af1158015611bc9573d6000803e3d6000fd5b5050505050565b611bd86149e6565b602760009054906101000a900460ff16611c27576040517f08c379a0000000000000000000000000000000000000000000000000000000008152600401611c1e9061765a565b60405180910390fd5b602760019054906101000a900460ff16151581151503611c7c576040517f08c379a0000000000000000000000000000000000000000000000000000000008152600401611c739061795c565b60405180910390fd5b80602760016101000a81548160ff0219169083151502179055507f670f884265aba2d05e7c26efbc42f8365effc4cb3fcfcefddba0c0b71a6231f1602760019054906101000a900460ff16604051611cd49190616d97565b60405180910390a150565b602a60019054906101000a900460ff1681565b602460009054906101000a900473ffffffffffffffffffffffffffffffffffffffff1681565b60075481565b6000602460009054906101000a900473ffffffffffffffffffffffffffffffffffffffff1673ffffffffffffffffffffffffffffffffffffffff166385a6b3ae6040518163ffffffff1660e01b8152600401602060405180830381865afa158015611d8d573d6000803e3d6000fd5b505050506040513d601f19601f82011682018060405250810190611db19190617991565b905090565b60006012905090565b611dc76149e6565b602460009054906101000a900473ffffffffffffffffffffffffffffffffffffffff1673ffffffffffffffffffffffffffffffffffffffff166331e79db0826040518263ffffffff1660e01b8152600401611e229190616df3565b600060405180830381600087803b158015611e3c57600080fd5b505af1158015611e50573d6000803e3d6000fd5b5050505050565b611e5f6149e6565b601160009054906101000a900460ff16611eae576040517f08c379a0000000000000000000000000000000000000000000000000000000008152600401611ea590617a0a565b60405180910390fd5b601960009054906101000a900473ffffffffffffffffffffffffffffffffffffffff1673ffffffffffffffffffffffffffffffffffffffff168173ffffffffffffffffffffffffffffffffffffffff1603611f3e576040517f08c379a0000000000000000000000000000000000000000000000000000000008152600401611f3590617a9c565b60405180910390fd5b80601960006101000a81548173ffffffffffffffffffffffffffffffffffffffff021916908373ffffffffffffffffffffffffffffffffffffffff1602179055507feff29f22320650eef14587b44577ea92058e98f8ac4973c413f74b979a1949af601960009054906101000a900473ffffffffffffffffffffffffffffffffffffffff16604051611fd09190616df3565b60405180910390a150565b600080611fe6614815565b9050612007818585611ff8858961414b565b61200291906174e7565b61481d565b600191505092915050565b61201a6149e6565b602460009054906101000a900473ffffffffffffffffffffffffffffffffffffffff1673ffffffffffffffffffffffffffffffffffffffff16630dcb2e89826040518263ffffffff1660e01b81526004016120759190616d61565b600060405180830381600087803b15801561208f57600080fd5b505af11580156120a3573d6000803e3d6000fd5b5050505050565b6120b26149e6565b602460009054906101000a900473ffffffffffffffffffffffffffffffffffffffff1673ffffffffffffffffffffffffffffffffffffffff1663bc4c4b378260006040518363ffffffff1660e01b8152600401612110929190617add565b6020604051808303816000875af115801561212f573d6000803e3d6000fd5b505050506040513d601f19601f820116820180604052508101906121539190617b1b565b5050565b602160019054906101000a900460ff1681565b601e60009054906101000a900473ffffffffffffffffffffffffffffffffffffffff1681565b602460009054906101000a900473ffffffffffffffffffffffffffffffffffffffff1673ffffffffffffffffffffffffffffffffffffffff1663bc4c4b373360006040518363ffffffff1660e01b81526004016121ee929190617add565b6020604051808303816000875af115801561220d573d6000803e3d6000fd5b505050506040513d601f19601f820116820180604052508101906122319190617b1b565b50565b60125481565b6000602260008373ffffffffffffffffffffffffffffffffffffffff1673ffffffffffffffffffffffffffffffffffffffff16815260200190815260200160002060009054906101000a900460ff169050919050565b6122986149e6565b801515601c60149054906101000a900460ff161515036122ed576040517f08c379a00000000000000000000000000000000000000000000000000000000081526004016122e490617be0565b60405180910390fd5b80601c60146101000a81548160ff02191690831515021790555050565b6123126149e6565b602a60009054906101000a900460ff16612361576040517f08c379a000000000000000000000000000000000000000000000000000000000815260040161235890617406565b60405180910390fd5b602a60019054906101000a900460ff161515811515036123b6576040517f08c379a00000000000000000000000000000000000000000000000000000000081526004016123ad90617c72565b60405180910390fd5b80602a60016101000a81548160ff0219169083151502179055507fe81be35e61864c26afd7a4655e99f321378d0aaae1e5af8ee67b658a7460f3cf602a60019054906101000a900460ff1660405161240e9190616d97565b60405180910390a150565b601160009054906101000a900460ff1681565b602c5481565b600a5481565b6000602460009054906101000a900473ffffffffffffffffffffffffffffffffffffffff1673ffffffffffffffffffffffffffffffffffffffff166309bbedde6040518163ffffffff1660e01b8152600401602060405180830381865afa1580156124a7573d6000803e3d6000fd5b505050506040513d601f19601f820116820180604052508101906124cb9190617991565b905090565b6124d86149e6565b601d60009054906101000a900473ffffffffffffffffffffffffffffffffffffffff1673ffffffffffffffffffffffffffffffffffffffff168173ffffffffffffffffffffffffffffffffffffffff1603612568576040517f08c379a000000000000000000000000000000000000000000000000000000000815260040161255f90617d04565b60405180910390fd5b601d60009054906101000a900473ffffffffffffffffffffffffffffffffffffffff1673ffffffffffffffffffffffffffffffffffffffff168173ffffffffffffffffffffffffffffffffffffffff167f8fc842bbd331dfa973645f4ed48b11683d501ebf1352708d77a5da2ab49a576e60405160405180910390a380601d60006101000a81548173ffffffffffffffffffffffffffffffffffffffff021916908373ffffffffffffffffffffffffffffffffffffffff1602179055506000601d60009054906101000a900473ffffffffffffffffffffffffffffffffffffffff1673ffffffffffffffffffffffffffffffffffffffff1663c45a01556040518163ffffffff1660e01b8152600401602060405180830381865afa158015612694573d6000803e3d6000fd5b505050506040513d601f19601f820116820180604052508101906126b89190617d39565b73ffffffffffffffffffffffffffffffffffffffff1663c9c6539630601d60009054906101000a900473ffffffffffffffffffffffffffffffffffffffff1673ffffffffffffffffffffffffffffffffffffffff1663ad5c46486040518163ffffffff1660e01b8152600401602060405180830381865afa158015612741573d6000803e3d6000fd5b505050506040513d601f19601f820116820180604052508101906127659190617d39565b6040518363ffffffff1660e01b8152600401612782929190617d66565b6020604051808303816000875af11580156127a1573d6000803e3d6000fd5b505050506040513d601f19601f820116820180604052508101906127c59190617d39565b905080601e60006101000a81548173ffffffffffffffffffffffffffffffffffffffff021916908373ffffffffffffffffffffffffffffffffffffffff1602179055505050565b6000602460009054906101000a900473ffffffffffffffffffffffffffffffffffffffff1673ffffffffffffffffffffffffffffffffffffffff166370a08231836040518263ffffffff1660e01b81526004016128699190616df3565b602060405180830381865afa158015612886573d6000803e3d6000fd5b505050506040513d601f19601f820116820180604052508101906128aa9190617991565b9050919050565b602760009054906101000a900460ff1681565b602160009054906101000a900460ff1681565b6000806000602460009054906101000a900473ffffffffffffffffffffffffffffffffffffffff1673ffffffffffffffffffffffffffffffffffffffff1663ffb2c479856040518263ffffffff1660e01b81526004016129379190616d61565b6060604051808303816000875af1158015612956573d6000803e3d6000fd5b505050506040513d601f19601f8201168201806040525081019061297a9190617d8f565b9250925092503273ffffffffffffffffffffffffffffffffffffffff16600015157fc864333d6121033635ab41b29ae52f10a22cf4438c3e4f1c4c68518feb2f8a98858585896040516129d09493929190617de2565b60405180910390a350505050565b60008060008373ffffffffffffffffffffffffffffffffffffffff1673ffffffffffffffffffffffffffffffffffffffff168152602001908152602001600020549050919050565b612a2e6149e6565b612a386000615d4f565b565b601660009054906101000a900473ffffffffffffffffffffffffffffffffffffffff1681565b60085481565b612a6e6149e6565b600e60009054906101000a900460ff16612abd576040517f08c379a0000000000000000000000000000000000000000000000000000000008152600401612ab490617e73565b60405180910390fd5b601860009054906101000a900473ffffffffffffffffffffffffffffffffffffffff1673ffffffffffffffffffffffffffffffffffffffff168173ffffffffffffffffffffffffffffffffffffffff1603612b4d576040517f08c379a0000000000000000000000000000000000000000000000000000000008152600401612b4490617f05565b60405180910390fd5b612b5681615e15565b1580612bb15750600073ffffffffffffffffffffffffffffffffffffffff16601c60009054906101000a900473ffffffffffffffffffffffffffffffffffffffff1673ffffffffffffffffffffffffffffffffffffffff1614155b612bf0576040517f08c379a0000000000000000000000000000000000000000000000000000000008152600401612be790617f97565b60405180910390fd5b80601860006101000a81548173ffffffffffffffffffffffffffffffffffffffff021916908373ffffffffffffffffffffffffffffffffffffffff1602179055507fb0be59d7981f6c55cd9b4097b9762fdaede2984a14e27dceb0d9cb5afc0aa4e6601860009054906101000a900473ffffffffffffffffffffffffffffffffffffffff16604051612c829190616df3565b60405180910390a150565b612c956149e6565b601981838587898b612ca791906174e7565b612cb191906174e7565b612cbb91906174e7565b612cc591906174e7565b612ccf91906174e7565b1115612d10576040517f08c379a0000000000000000000000000000000000000000000000000000000008152600401612d0790617567565b60405180910390fd5b856006819055508360088190555084600a8190555082600c8190555081600f8190555080601281905550601254600f54600c54600854600a54600654612d5691906174e7565b612d6091906174e7565b612d6a91906174e7565b612d7491906174e7565b612d7e91906174e7565b6014819055507fa3d33def0313a6d92d1f19612c9bca9d7f98bdcbc654a32f87b449b5787cc809868686868686604051612dbd96959493929190617587565b60405180910390a1505050505050565b60065481565b612ddb6149e6565b62030d408110158015612df157506207a1208111155b612e30576040517f08c379a0000000000000000000000000000000000000000000000000000000008152600401612e2790618029565b60405180910390fd5b6025548103612e74576040517f08c379a0000000000000000000000000000000000000000000000000000000008152600401612e6b906180bb565b60405180910390fd5b602554817f40d7e40e79af4e8e5a9b3c57030d8ea93f13d669c06d448c4d631d4ae7d23db760405160405180910390a38060258190555050565b612eb66149e6565b602460009054906101000a900473ffffffffffffffffffffffffffffffffffffffff1673ffffffffffffffffffffffffffffffffffffffff168173ffffffffffffffffffffffffffffffffffffffff1603612f46576040517f08c379a0000000000000000000000000000000000000000000000000000000008152600401612f3d9061814d565b60405180910390fd5b60008190503073ffffffffffffffffffffffffffffffffffffffff168173ffffffffffffffffffffffffffffffffffffffff16638da5cb5b6040518163ffffffff1660e01b8152600401602060405180830381865afa158015612fad573d6000803e3d6000fd5b505050506040513d601f19601f82011682018060405250810190612fd19190617d39565b73ffffffffffffffffffffffffffffffffffffffff1614613027576040517f08c379a000000000000000000000000000000000000000000000000000000000815260040161301e906181df565b60405180910390fd5b8073ffffffffffffffffffffffffffffffffffffffff166331e79db0826040518263ffffffff1660e01b81526004016130609190616df3565b600060405180830381600087803b15801561307a57600080fd5b505af115801561308e573d6000803e3d6000fd5b505050508073ffffffffffffffffffffffffffffffffffffffff166331e79db0306040518263ffffffff1660e01b81526004016130cb9190616df3565b600060405180830381600087803b1580156130e557600080fd5b505af11580156130f9573d6000803e3d6000fd5b505050508073ffffffffffffffffffffffffffffffffffffffff166331e79db0601f60009054906101000a900473ffffffffffffffffffffffffffffffffffffffff166040518263ffffffff1660e01b81526004016131589190616df3565b600060405180830381600087803b15801561317257600080fd5b505af1158015613186573d6000803e3d6000fd5b505050508073ffffffffffffffffffffffffffffffffffffffff166331e79db0601d60009054906101000a900473ffffffffffffffffffffffffffffffffffffffff166040518263ffffffff1660e01b81526004016131e59190616df3565b600060405180830381600087803b1580156131ff57600080fd5b505af1158015613213573d6000803e3d6000fd5b505050508073ffffffffffffffffffffffffffffffffffffffff166331e79db0601e60009054906101000a900473ffffffffffffffffffffffffffffffffffffffff166040518263ffffffff1660e01b81526004016132729190616df3565b600060405180830381600087803b15801561328c57600080fd5b505af11580156132a0573d6000803e3d6000fd5b50505050602460009054906101000a900473ffffffffffffffffffffffffffffffffffffffff1673ffffffffffffffffffffffffffffffffffffffff168273ffffffffffffffffffffffffffffffffffffffff167f90c7d74461c613da5efa97d90740869367d74ab3aa5837aa4ae9a975f954b7a860405160405180910390a380602460006101000a81548173ffffffffffffffffffffffffffffffffffffffff021916908373ffffffffffffffffffffffffffffffffffffffff1602179055505050565b6000600560009054906101000a900473ffffffffffffffffffffffffffffffffffffffff16905090565b6133976149e6565b602760009054906101000a900460ff166133e6576040517f08c379a00000000000000000000000000000000000000000000000000000000081526004016133dd9061765a565b60405180910390fd5b801515602660008473ffffffffffffffffffffffffffffffffffffffff1673ffffffffffffffffffffffffffffffffffffffff16815260200190815260200160002060009054906101000a900460ff16151503613478576040517f08c379a000000000000000000000000000000000000000000000000000000000815260040161346f90617498565b60405180910390fd5b80602660008473ffffffffffffffffffffffffffffffffffffffff1673ffffffffffffffffffffffffffffffffffffffff16815260200190815260200160002060006101000a81548160ff0219169083151502179055508173ffffffffffffffffffffffffffffffffffffffff167f1d9a11e204b58ad56c619c61600e42167624659d218f0143f1f64956b0daae6c826040516135159190616d97565b60405180910390a25050565b60606004805461353090617363565b80601f016020809104026020016040519081016040528092919081815260200182805461355c90617363565b80156135a95780601f1061357e576101008083540402835291602001916135a9565b820191906000526020600020905b81548152906001019060200180831161358c57829003601f168201915b5050505050905090565b601b60009054906101000a900473ffffffffffffffffffffffffffffffffffffffff1681565b6135e16149e6565b801515602160019054906101000a900460ff16151503613636576040517f08c379a000000000000000000000000000000000000000000000000000000000815260040161362d90618271565b60405180910390fd5b80602160016101000a81548160ff02191690831515021790555050565b61365b6149e6565b601e60009054906101000a900473ffffffffffffffffffffffffffffffffffffffff1673ffffffffffffffffffffffffffffffffffffffff168273ffffffffffffffffffffffffffffffffffffffff16036136eb576040517f08c379a00000000000000000000000000000000000000000000000000000000081526004016136e290618329565b60405180910390fd5b6136f58282615e38565b5050565b60255481565b6000602460009054906101000a900473ffffffffffffffffffffffffffffffffffffffff1673ffffffffffffffffffffffffffffffffffffffff16636f2789ec6040518163ffffffff1660e01b8152600401602060405180830381865afa15801561376e573d6000803e3d6000fd5b505050506040513d601f19601f820116820180604052508101906137929190617991565b905090565b6000806137a2614815565b905060006137b0828661414b565b9050838110156137f5576040517f08c379a00000000000000000000000000000000000000000000000000000000081526004016137ec906183bb565b60405180910390fd5b613802828686840361481d565b60019250505092915050565b6000602660008373ffffffffffffffffffffffffffffffffffffffff1673ffffffffffffffffffffffffffffffffffffffff16815260200190815260200160002060009054906101000a900460ff169050919050565b6000602460009054906101000a900473ffffffffffffffffffffffffffffffffffffffff1673ffffffffffffffffffffffffffffffffffffffff1663a8b9d240836040518263ffffffff1660e01b81526004016138c19190616df3565b602060405180830381865afa1580156138de573d6000803e3d6000fd5b505050506040513d601f19601f820116820180604052508101906139029190617991565b9050919050565b600080613914614815565b9050613921818585614af0565b600191505092915050565b60285481565b600080600080600080600080602460009054906101000a900473ffffffffffffffffffffffffffffffffffffffff1673ffffffffffffffffffffffffffffffffffffffff1663fbcbc0f18a6040518263ffffffff1660e01b81526004016139999190616df3565b61010060405180830381865afa1580156139b7573d6000803e3d6000fd5b505050506040513d601f19601f820116820180604052508101906139db9190618407565b97509750975097509750975097509750919395975091939597565b6139fe6149e6565b620f4240613a0a611848565b613a149190617827565b8111613a55576040517f08c379a0000000000000000000000000000000000000000000000000000000008152600401613a4c9061852f565b60405180910390fd5b8060208190555050565b600d5481565b60236020528060005260406000206000915054906101000a900460ff1681565b613a8d6149e6565b602a60009054906101000a900460ff16613adc576040517f08c379a0000000000000000000000000000000000000000000000000000000008152600401613ad390617406565b60405180910390fd5b6103e8613ae7611db6565b600a613af391906177ad565b613afb611848565b613b059190617827565b613b0f9190617827565b8210158015613b5057506103e8613b24611db6565b600a613b3091906177ad565b613b38611848565b613b429190617827565b613b4c9190617827565b8110155b613b8f576040517f08c379a0000000000000000000000000000000000000000000000000000000008152600401613b86906185c1565b60405180910390fd5b613b97611db6565b600a613ba391906177ad565b82613bae91906185e1565b602b81905550613bbc611db6565b600a613bc891906177ad565b81613bd391906185e1565b602c819055507f2a88f79986e057b8152c19cea35cd214cf53364efbf95d5b22b37797c05be55f602b54602c54604051613c0e929190618623565b60405180910390a15050565b60135481565b60105481565b613c2e6149e6565b601660009054906101000a900473ffffffffffffffffffffffffffffffffffffffff1673ffffffffffffffffffffffffffffffffffffffff168173ffffffffffffffffffffffffffffffffffffffff1603613cbe576040517f08c379a0000000000000000000000000000000000000000000000000000000008152600401613cb5906186be565b60405180910390fd5b613cc781615e15565b1580613d225750600073ffffffffffffffffffffffffffffffffffffffff16601a60009054906101000a900473ffffffffffffffffffffffffffffffffffffffff1673ffffffffffffffffffffffffffffffffffffffff1614155b613d61576040517f08c379a0000000000000000000000000000000000000000000000000000000008152600401613d5890618750565b60405180910390fd5b80601660006101000a81548173ffffffffffffffffffffffffffffffffffffffff021916908373ffffffffffffffffffffffffffffffffffffffff1602179055507fa964ba5c52d7e7bfcae4fb1ae4db9f211756d0e618e85fac5283b882a39e7a0b601660009054906101000a900473ffffffffffffffffffffffffffffffffffffffff16604051613df39190616df3565b60405180910390a150565b613e066149e6565b801515602260008473ffffffffffffffffffffffffffffffffffffffff1673ffffffffffffffffffffffffffffffffffffffff16815260200190815260200160002060009054906101000a900460ff16151503613e98576040517f08c379a0000000000000000000000000000000000000000000000000000000008152600401613e8f906187e2565b60405180910390fd5b80602260008473ffffffffffffffffffffffffffffffffffffffff1673ffffffffffffffffffffffffffffffffffffffff16815260200190815260200160002060006101000a81548160ff0219169083151502179055508173ffffffffffffffffffffffffffffffffffffffff167f9d8f7706ea1113d1a167b526eca956215946dd36cc7df39eb16180222d8b5df782604051613f359190616d97565b60405180910390a25050565b601c60009054906101000a900473ffffffffffffffffffffffffffffffffffffffff1681565b613f6f6149e6565b601760009054906101000a900473ffffffffffffffffffffffffffffffffffffffff1673ffffffffffffffffffffffffffffffffffffffff168173ffffffffffffffffffffffffffffffffffffffff1603613fff576040517f08c379a0000000000000000000000000000000000000000000000000000000008152600401613ff690618874565b60405180910390fd5b61400881615e15565b15806140635750600073ffffffffffffffffffffffffffffffffffffffff16601b60009054906101000a900473ffffffffffffffffffffffffffffffffffffffff1673ffffffffffffffffffffffffffffffffffffffff1614155b6140a2576040517f08c379a000000000000000000000000000000000000000000000000000000000815260040161409990618906565b60405180910390fd5b80601760006101000a81548173ffffffffffffffffffffffffffffffffffffffff021916908373ffffffffffffffffffffffffffffffffffffffff1602179055507f3e00e5c2cd3f171acb433b785fca1f688d3fe2389451a73c271318e33c5ec02e601760009054906101000a900473ffffffffffffffffffffffffffffffffffffffff166040516141349190616df3565b60405180910390a150565b600f5481565b600b5481565b6000600160008473ffffffffffffffffffffffffffffffffffffffff1673ffffffffffffffffffffffffffffffffffffffff16815260200190815260200160002060008373ffffffffffffffffffffffffffffffffffffffff1673ffffffffffffffffffffffffffffffffffffffff16815260200190815260200160002054905092915050565b601760009054906101000a900473ffffffffffffffffffffffffffffffffffffffff1681565b6142006149e6565b801515602160009054906101000a900460ff16151503614255576040517f08c379a000000000000000000000000000000000000000000000000000000000815260040161424c90618998565b60405180910390fd5b80602160006101000a81548160ff02191690831515021790555050565b60205481565b6000602460009054906101000a900473ffffffffffffffffffffffffffffffffffffffff1673ffffffffffffffffffffffffffffffffffffffff166327ce0147836040518263ffffffff1660e01b81526004016142d59190616df3565b602060405180830381865afa1580156142f2573d6000803e3d6000fd5b505050506040513d601f19601f820116820180604052508101906143169190617991565b9050919050565b6000602460009054906101000a900473ffffffffffffffffffffffffffffffffffffffff1673ffffffffffffffffffffffffffffffffffffffff1663e7841ec06040518163ffffffff1660e01b8152600401602060405180830381865afa15801561438c573d6000803e3d6000fd5b505050506040513d601f19601f820116820180604052508101906143b09190617991565b905090565b6143bd6149e6565b602460009054906101000a900473ffffffffffffffffffffffffffffffffffffffff1673ffffffffffffffffffffffffffffffffffffffff1663e98030c7826040518263ffffffff1660e01b81526004016144189190616d61565b600060405180830381600087803b15801561443257600080fd5b505af1158015614446573d6000803e3d6000fd5b5050505050565b601860009054906101000a900473ffffffffffffffffffffffffffffffffffffffff1681565b602a60009054906101000a900460ff1681565b600080600080600080600080602460009054906101000a900473ffffffffffffffffffffffffffffffffffffffff1673ffffffffffffffffffffffffffffffffffffffff16635183d6fd8a6040518263ffffffff1660e01b81526004016144ed9190616d61565b61010060405180830381865afa15801561450b573d6000803e3d6000fd5b505050506040513d601f19601f8201168201806040525081019061452f9190618407565b97509750975097509750975097509750919395975091939597565b6145526149e6565b600073ffffffffffffffffffffffffffffffffffffffff168173ffffffffffffffffffffffffffffffffffffffff16036145c1576040517f08c379a00000000000000000000000000000000000000000000000000000000081526004016145b890618a2a565b60405180910390fd5b6145ca81615d4f565b50565b601a60009054906101000a900473ffffffffffffffffffffffffffffffffffffffff1681565b7f000000000000000000000000000000000000000000000000000000000000000081565b61461f6149e6565b3073ffffffffffffffffffffffffffffffffffffffff168173ffffffffffffffffffffffffffffffffffffffff160361468d576040517f08c379a000000000000000000000000000000000000000000000000000000000815260040161468490618a96565b60405180910390fd5b600073ffffffffffffffffffffffffffffffffffffffff168173ffffffffffffffffffffffffffffffffffffffff160361470d573373ffffffffffffffffffffffffffffffffffffffff166108fc479081150290604051600060405180830381858888f19350505050158015614707573d6000803e3d6000fd5b50614812565b600081905060008173ffffffffffffffffffffffffffffffffffffffff166370a08231306040518263ffffffff1660e01b815260040161474d9190616df3565b602060405180830381865afa15801561476a573d6000803e3d6000fd5b505050506040513d601f19601f8201168201806040525081019061478e9190617991565b90508173ffffffffffffffffffffffffffffffffffffffff1663a9059cbb33836040518363ffffffff1660e01b81526004016147cb929190618ab6565b6020604051808303816000875af11580156147ea573d6000803e3d6000fd5b505050506040513d601f19601f8201168201806040525081019061480e9190617b1b565b5050505b50565b600033905090565b600073ffffffffffffffffffffffffffffffffffffffff168373ffffffffffffffffffffffffffffffffffffffff160361488c576040517f08c379a000000000000000000000000000000000000000000000000000000000815260040161488390618b51565b60405180910390fd5b600073ffffffffffffffffffffffffffffffffffffffff168273ffffffffffffffffffffffffffffffffffffffff16036148fb576040517f08c379a00000000000000000000000000000000000000000000000000000000081526004016148f290618be3565b60405180910390fd5b80600160008573ffffffffffffffffffffffffffffffffffffffff1673ffffffffffffffffffffffffffffffffffffffff16815260200190815260200160002060008473ffffffffffffffffffffffffffffffffffffffff1673ffffffffffffffffffffffffffffffffffffffff168152602001908152602001600020819055508173ffffffffffffffffffffffffffffffffffffffff168373ffffffffffffffffffffffffffffffffffffffff167f8c5be1e5ebec7d5bd14f71427d1e84f3dd0314c0f7b2291e5b200ac8c7c3b925836040516149d99190616d61565b60405180910390a3505050565b6149ee614815565b73ffffffffffffffffffffffffffffffffffffffff16614a0c613365565b73ffffffffffffffffffffffffffffffffffffffff1614614a62576040517f08c379a0000000000000000000000000000000000000000000000000000000008152600401614a5990618c4f565b60405180910390fd5b565b6000614a70848461414b565b90507fffffffffffffffffffffffffffffffffffffffffffffffffffffffffffffffff8114614aea5781811015614adc576040517f08c379a0000000000000000000000000000000000000000000000000000000008152600401614ad390618cbb565b60405180910390fd5b614ae9848484840361481d565b5b50505050565b600073ffffffffffffffffffffffffffffffffffffffff168373ffffffffffffffffffffffffffffffffffffffff1603614b5f576040517f08c379a0000000000000000000000000000000000000000000000000000000008152600401614b5690618d4d565b60405180910390fd5b600073ffffffffffffffffffffffffffffffffffffffff168273ffffffffffffffffffffffffffffffffffffffff1603614bce576040517f08c379a0000000000000000000000000000000000000000000000000000000008152600401614bc590618ddf565b60405180910390fd5b60008103614be757614be283836000615fff565b615d4a565b602a60019054906101000a900460ff1615614e4957601e60009054906101000a900473ffffffffffffffffffffffffffffffffffffffff1673ffffffffffffffffffffffffffffffffffffffff168373ffffffffffffffffffffffffffffffffffffffff161480614ca55750601e60009054906101000a900473ffffffffffffffffffffffffffffffffffffffff1673ffffffffffffffffffffffffffffffffffffffff168273ffffffffffffffffffffffffffffffffffffffff16145b8015614d01575060001515602960008573ffffffffffffffffffffffffffffffffffffffff1673ffffffffffffffffffffffffffffffffffffffff16815260200190815260200160002060009054906101000a900460ff161515145b8015614d5d575060001515602960008473ffffffffffffffffffffffffffffffffffffffff1673ffffffffffffffffffffffffffffffffffffffff16815260200190815260200160002060009054906101000a900460ff161515145b15614e4857601e60009054906101000a900473ffffffffffffffffffffffffffffffffffffffff1673ffffffffffffffffffffffffffffffffffffffff168373ffffffffffffffffffffffffffffffffffffffff1603614e0157602b54811115614dfc576040517f08c379a0000000000000000000000000000000000000000000000000000000008152600401614df390618e71565b60405180910390fd5b614e47565b602c54811115614e46576040517f08c379a0000000000000000000000000000000000000000000000000000000008152600401614e3d90618e71565b60405180910390fd5b5b5b5b6000614e54306129de565b905060006020548210159050602160009054906101000a900460ff168015614e795750805b8015614e925750602160029054906101000a900460ff16155b8015614ee85750602360008673ffffffffffffffffffffffffffffffffffffffff1673ffffffffffffffffffffffffffffffffffffffff16815260200190815260200160002060009054906101000a900460ff16155b8015614f0357506000601554601454614f0191906174e7565b115b1561574d576001602160026101000a81548160ff021916908315150217905550602160019054906101000a900460ff1615614f3e5760205491505b6000601554601454614f5091906174e7565b90506000600754600654614f6491906174e7565b90506000600b54600a54614f7891906174e7565b90506000600954600854614f8c91906174e7565b90506000600d54600c54614fa091906174e7565b90506000601054600f54614fb491906174e7565b90506000601354601254614fc891906174e7565b90506000806000881115614ff95788888c614fe391906185e1565b614fed9190617827565b9150614ff882616275565b5b60008311156150805788838c61500f91906185e1565b6150199190617827565b905061504830601960009054906101000a900473ffffffffffffffffffffffffffffffffffffffff1683615fff565b7fafba1489df28e27c673e6daf26f6cf0e47e78cc4916ed43bedfd0ceef78620a6816040516150779190616d61565b60405180910390a15b808261508c91906174e7565b8b6150979190618e91565b9a5060008486888a6150a991906174e7565b6150b391906174e7565b6150bd91906174e7565b905060008c1180156150cf5750600081115b156157275760004790506000600267ffffffffffffffff8111156150f6576150f5618ec5565b5b6040519080825280602002602001820160405280156151245781602001602082028036833780820191505090505b509050308160008151811061513c5761513b618ef4565b5b602002602001019073ffffffffffffffffffffffffffffffffffffffff16908173ffffffffffffffffffffffffffffffffffffffff1681525050601d60009054906101000a900473ffffffffffffffffffffffffffffffffffffffff1673ffffffffffffffffffffffffffffffffffffffff1663ad5c46486040518163ffffffff1660e01b8152600401602060405180830381865afa1580156151e3573d6000803e3d6000fd5b505050506040513d601f19601f820116820180604052508101906152079190617d39565b8160018151811061521b5761521a618ef4565b5b602002602001019073ffffffffffffffffffffffffffffffffffffffff16908173ffffffffffffffffffffffffffffffffffffffff1681525050601d60009054906101000a900473ffffffffffffffffffffffffffffffffffffffff1673ffffffffffffffffffffffffffffffffffffffff1663791ac9478f60008430426040518663ffffffff1660e01b81526004016152b995949392919061901c565b600060405180830381600087803b1580156152d357600080fd5b505af11580156152e7573d6000803e3d6000fd5b50505050600082476152f99190618e91565b905060008b111561544e576000848c8361531391906185e1565b61531d9190617827565b9050600073ffffffffffffffffffffffffffffffffffffffff16601a60009054906101000a900473ffffffffffffffffffffffffffffffffffffffff1673ffffffffffffffffffffffffffffffffffffffff16036153c5576153c081601660009054906101000a900473ffffffffffffffffffffffffffffffffffffffff1673ffffffffffffffffffffffffffffffffffffffff166165cf90919063ffffffff16565b615415565b61541481601660009054906101000a900473ffffffffffffffffffffffffffffffffffffffff16601a60009054906101000a900473ffffffffffffffffffffffffffffffffffffffff166166c3565b5b7fddce3d5e4f18a9c2902704a38b56baadd81a9af59b8ded8a3220b6a6c1696b6b816040516154449190616d61565b60405180910390a1505b60008911156155a1576000848a8361546691906185e1565b6154709190617827565b9050600073ffffffffffffffffffffffffffffffffffffffff16601b60009054906101000a900473ffffffffffffffffffffffffffffffffffffffff1673ffffffffffffffffffffffffffffffffffffffff16036155185761551381601760009054906101000a900473ffffffffffffffffffffffffffffffffffffffff1673ffffffffffffffffffffffffffffffffffffffff166165cf90919063ffffffff16565b615568565b61556781601760009054906101000a900473ffffffffffffffffffffffffffffffffffffffff16601b60009054906101000a900473ffffffffffffffffffffffffffffffffffffffff166166c3565b5b7f3ec58ee176e1acbbe315f4a07c9123500e770af8180c2acfa7f0842ea138cf09816040516155979190616d61565b60405180910390a1505b60008811156156f45760008489836155b991906185e1565b6155c39190617827565b9050600073ffffffffffffffffffffffffffffffffffffffff16601c60009054906101000a900473ffffffffffffffffffffffffffffffffffffffff1673ffffffffffffffffffffffffffffffffffffffff160361566b5761566681601860009054906101000a900473ffffffffffffffffffffffffffffffffffffffff1673ffffffffffffffffffffffffffffffffffffffff166165cf90919063ffffffff16565b6156bb565b6156ba81601860009054906101000a900473ffffffffffffffffffffffffffffffffffffffff16601c60009054906101000a900473ffffffffffffffffffffffffffffffffffffffff166166c3565b5b7f1fd3398f0606700b7acf5d8f9c3b9200797a376b69f3066787a82055688092a8816040516156ea9190616d61565b60405180910390a1505b60008a1115615723576000848b8361570c91906185e1565b6157169190617827565b9050615721816168da565b505b5050505b6000602160026101000a81548160ff021916908315150217905550505050505050505050505b6000602160029054906101000a900460ff16159050602260008773ffffffffffffffffffffffffffffffffffffffff1673ffffffffffffffffffffffffffffffffffffffff16815260200190815260200160002060009054906101000a900460ff16806158035750602260008673ffffffffffffffffffffffffffffffffffffffff1673ffffffffffffffffffffffffffffffffffffffff16815260200190815260200160002060009054906101000a900460ff165b1561580d57600090505b601c60149054906101000a900460ff1680156158775750601e60009054906101000a900473ffffffffffffffffffffffffffffffffffffffff1673ffffffffffffffffffffffffffffffffffffffff168673ffffffffffffffffffffffffffffffffffffffff1614155b80156158d15750601e60009054906101000a900473ffffffffffffffffffffffffffffffffffffffff1673ffffffffffffffffffffffffffffffffffffffff168573ffffffffffffffffffffffffffffffffffffffff1614155b156158db57600090505b8015615980576000601e60009054906101000a900473ffffffffffffffffffffffffffffffffffffffff1673ffffffffffffffffffffffffffffffffffffffff168773ffffffffffffffffffffffffffffffffffffffff1603615942576014549050615948565b60155490505b60006064828761595891906185e1565b6159629190617827565b905080866159709190618e91565b955061597d883083615fff565b50505b602760019054906101000a900460ff1615615b045760001515602660008873ffffffffffffffffffffffffffffffffffffffff1673ffffffffffffffffffffffffffffffffffffffff16815260200190815260200160002060009054906101000a900460ff161515148015615a45575060001515602660008773ffffffffffffffffffffffffffffffffffffffff1673ffffffffffffffffffffffffffffffffffffffff16815260200190815260200160002060009054906101000a900460ff161515145b8015615a9f5750601e60009054906101000a900473ffffffffffffffffffffffffffffffffffffffff1673ffffffffffffffffffffffffffffffffffffffff168573ffffffffffffffffffffffffffffffffffffffff1614155b15615b03576000615aaf866129de565b90506028548582615ac091906174e7565b1115615b01576040517f08c379a0000000000000000000000000000000000000000000000000000000008152600401615af8906190e8565b60405180910390fd5b505b5b615b0f868686615fff565b602460009054906101000a900473ffffffffffffffffffffffffffffffffffffffff1673ffffffffffffffffffffffffffffffffffffffff1663e30443bc87615b57896129de565b6040518363ffffffff1660e01b8152600401615b74929190619108565b600060405180830381600087803b158015615b8e57600080fd5b505af1925050508015615b9f575060015b50602460009054906101000a900473ffffffffffffffffffffffffffffffffffffffff1673ffffffffffffffffffffffffffffffffffffffff1663e30443bc86615be8886129de565b6040518363ffffffff1660e01b8152600401615c05929190619108565b600060405180830381600087803b158015615c1f57600080fd5b505af1925050508015615c30575060015b50602160029054906101000a900460ff16615d465760006025549050602460009054906101000a900473ffffffffffffffffffffffffffffffffffffffff1673ffffffffffffffffffffffffffffffffffffffff1663ffb2c479826040518263ffffffff1660e01b8152600401615ca79190616d61565b6060604051808303816000875af1925050508015615ce357506040513d601f19601f82011682018060405250810190615ce09190617d8f565b60015b15615d44573273ffffffffffffffffffffffffffffffffffffffff16600115157fc864333d6121033635ab41b29ae52f10a22cf4438c3e4f1c4c68518feb2f8a9885858589604051615d389493929190617de2565b60405180910390a35050505b505b5050505b505050565b6000600560009054906101000a900473ffffffffffffffffffffffffffffffffffffffff16905081600560006101000a81548173ffffffffffffffffffffffffffffffffffffffff021916908373ffffffffffffffffffffffffffffffffffffffff1602179055508173ffffffffffffffffffffffffffffffffffffffff168173ffffffffffffffffffffffffffffffffffffffff167f8be0079c531659141344cd1fd0a4f28419497f9722a3daafe3b4186f6b6457e060405160405180910390a35050565b6000808273ffffffffffffffffffffffffffffffffffffffff163b119050919050565b801515602360008473ffffffffffffffffffffffffffffffffffffffff1673ffffffffffffffffffffffffffffffffffffffff16815260200190815260200160002060009054906101000a900460ff16151503615eca576040517f08c379a0000000000000000000000000000000000000000000000000000000008152600401615ec1906191a3565b60405180910390fd5b80602360008473ffffffffffffffffffffffffffffffffffffffff1673ffffffffffffffffffffffffffffffffffffffff16815260200190815260200160002060006101000a81548160ff0219169083151502179055508015615fb557602460009054906101000a900473ffffffffffffffffffffffffffffffffffffffff1673ffffffffffffffffffffffffffffffffffffffff166331e79db0836040518263ffffffff1660e01b8152600401615f829190616df3565b600060405180830381600087803b158015615f9c57600080fd5b505af1158015615fb0573d6000803e3d6000fd5b505050505b8015158273ffffffffffffffffffffffffffffffffffffffff167fffa9187bf1f18bf477bd0ea1bcbb64e93b6a98132473929edfce215cd9b16fab60405160405180910390a35050565b600073ffffffffffffffffffffffffffffffffffffffff168373ffffffffffffffffffffffffffffffffffffffff160361606e576040517f08c379a000000000000000000000000000000000000000000000000000000000815260040161606590618d4d565b60405180910390fd5b600073ffffffffffffffffffffffffffffffffffffffff168273ffffffffffffffffffffffffffffffffffffffff16036160dd576040517f08c379a00000000000000000000000000000000000000000000000000000000081526004016160d490618ddf565b60405180910390fd5b6160e8838383616d3e565b60008060008573ffffffffffffffffffffffffffffffffffffffff1673ffffffffffffffffffffffffffffffffffffffff1681526020019081526020016000205490508181101561616e576040517f08c379a000000000000000000000000000000000000000000000000000000000815260040161616590619235565b60405180910390fd5b8181036000808673ffffffffffffffffffffffffffffffffffffffff1673ffffffffffffffffffffffffffffffffffffffff16815260200190815260200160002081905550816000808573ffffffffffffffffffffffffffffffffffffffff1673ffffffffffffffffffffffffffffffffffffffff168152602001908152602001600020600082825401925050819055508273ffffffffffffffffffffffffffffffffffffffff168473ffffffffffffffffffffffffffffffffffffffff167fddf252ad1be2c89b69c2b068fc378daa952ba7f163c4a11628f55a4df523b3ef8460405161625c9190616d61565b60405180910390a361626f848484616d43565b50505050565b60006002826162849190617827565b9050600081836162949190618e91565b905060004790506000600267ffffffffffffffff8111156162b8576162b7618ec5565b5b6040519080825280602002602001820160405280156162e65781602001602082028036833780820191505090505b50905030816000815181106162fe576162fd618ef4565b5b602002602001019073ffffffffffffffffffffffffffffffffffffffff16908173ffffffffffffffffffffffffffffffffffffffff1681525050601d60009054906101000a900473ffffffffffffffffffffffffffffffffffffffff1673ffffffffffffffffffffffffffffffffffffffff1663ad5c46486040518163ffffffff1660e01b8152600401602060405180830381865afa1580156163a5573d6000803e3d6000fd5b505050506040513d601f19601f820116820180604052508101906163c99190617d39565b816001815181106163dd576163dc618ef4565b5b602002602001019073ffffffffffffffffffffffffffffffffffffffff16908173ffffffffffffffffffffffffffffffffffffffff1681525050601d60009054906101000a900473ffffffffffffffffffffffffffffffffffffffff1673ffffffffffffffffffffffffffffffffffffffff1663791ac9478560008430426040518663ffffffff1660e01b815260040161647b95949392919061901c565b600060405180830381600087803b15801561649557600080fd5b505af11580156164a9573d6000803e3d6000fd5b50505050600082476164bb9190618e91565b9050601d60009054906101000a900473ffffffffffffffffffffffffffffffffffffffff1673ffffffffffffffffffffffffffffffffffffffff1663f305d719823087600080601f60009054906101000a900473ffffffffffffffffffffffffffffffffffffffff16426040518863ffffffff1660e01b815260040161654696959493929190619255565b60606040518083038185885af1158015616564573d6000803e3d6000fd5b50505050506040513d601f19601f820116820180604052508101906165899190617d8f565b5050507f17bbfb9a6069321b6ded73bd96327c9e6b7212a5cd51ff219cd61370acafb5618582866040516165bf939291906192b6565b60405180910390a1505050505050565b80471015616612576040517f08c379a000000000000000000000000000000000000000000000000000000000815260040161660990619339565b60405180910390fd5b60008273ffffffffffffffffffffffffffffffffffffffff16826040516166389061938a565b60006040518083038185875af1925050503d8060008114616675576040519150601f19603f3d011682016040523d82523d6000602084013e61667a565b606091505b50509050806166be576040517f08c379a00000000000000000000000000000000000000000000000000000000081526004016166b590619411565b60405180910390fd5b505050565b6000600267ffffffffffffffff8111156166e0576166df618ec5565b5b60405190808252806020026020018201604052801561670e5781602001602082028036833780820191505090505b509050601d60009054906101000a900473ffffffffffffffffffffffffffffffffffffffff1673ffffffffffffffffffffffffffffffffffffffff1663ad5c46486040518163ffffffff1660e01b8152600401602060405180830381865afa15801561677e573d6000803e3d6000fd5b505050506040513d601f19601f820116820180604052508101906167a29190617d39565b816000815181106167b6576167b5618ef4565b5b602002602001019073ffffffffffffffffffffffffffffffffffffffff16908173ffffffffffffffffffffffffffffffffffffffff1681525050818160018151811061680557616804618ef4565b5b602002602001019073ffffffffffffffffffffffffffffffffffffffff16908173ffffffffffffffffffffffffffffffffffffffff1681525050601d60009054906101000a900473ffffffffffffffffffffffffffffffffffffffff1673ffffffffffffffffffffffffffffffffffffffff1663b6f9de958560008487426040518663ffffffff1660e01b81526004016168a29493929190619431565b6000604051808303818588803b1580156168bb57600080fd5b505af11580156168cf573d6000803e3d6000fd5b505050505050505050565b6000600267ffffffffffffffff8111156168f7576168f6618ec5565b5b6040519080825280602002602001820160405280156169255781602001602082028036833780820191505090505b509050601d60009054906101000a900473ffffffffffffffffffffffffffffffffffffffff1673ffffffffffffffffffffffffffffffffffffffff1663ad5c46486040518163ffffffff1660e01b8152600401602060405180830381865afa158015616995573d6000803e3d6000fd5b505050506040513d601f19601f820116820180604052508101906169b99190617d39565b816000815181106169cd576169cc618ef4565b5b602002602001019073ffffffffffffffffffffffffffffffffffffffff16908173ffffffffffffffffffffffffffffffffffffffff16815250507f000000000000000000000000000000000000000000000000000000000000000081600181518110616a3c57616a3b618ef4565b5b602002602001019073ffffffffffffffffffffffffffffffffffffffff16908173ffffffffffffffffffffffffffffffffffffffff1681525050601d60009054906101000a900473ffffffffffffffffffffffffffffffffffffffff1673ffffffffffffffffffffffffffffffffffffffff1663b6f9de958360008430426040518663ffffffff1660e01b8152600401616ad99493929190619431565b6000604051808303818588803b158015616af257600080fd5b505af1158015616b06573d6000803e3d6000fd5b505050505060007f000000000000000000000000000000000000000000000000000000000000000073ffffffffffffffffffffffffffffffffffffffff166370a08231306040518263ffffffff1660e01b8152600401616b669190616df3565b602060405180830381865afa158015616b83573d6000803e3d6000fd5b505050506040513d601f19601f82011682018060405250810190616ba79190617991565b905060007f000000000000000000000000000000000000000000000000000000000000000073ffffffffffffffffffffffffffffffffffffffff1663a9059cbb602460009054906101000a900473ffffffffffffffffffffffffffffffffffffffff16846040518363ffffffff1660e01b8152600401616c28929190618ab6565b6020604051808303816000875af1158015616c47573d6000803e3d6000fd5b505050506040513d601f19601f82011682018060405250810190616c6b9190617b1b565b90508015616d3857602460009054906101000a900473ffffffffffffffffffffffffffffffffffffffff1673ffffffffffffffffffffffffffffffffffffffff16633243c791836040518263ffffffff1660e01b8152600401616cce9190616d61565b600060405180830381600087803b158015616ce857600080fd5b505af1158015616cfc573d6000803e3d6000fd5b505050507fb0cc2628d6d644cf6be9d8110e142297ac910d6d8026d795a99f272fd9ad60b182604051616d2f9190616d61565b60405180910390a15b50505050565b505050565b505050565b6000819050919050565b616d5b81616d48565b82525050565b6000602082019050616d766000830184616d52565b92915050565b60008115159050919050565b616d9181616d7c565b82525050565b6000602082019050616dac6000830184616d88565b92915050565b600073ffffffffffffffffffffffffffffffffffffffff82169050919050565b6000616ddd82616db2565b9050919050565b616ded81616dd2565b82525050565b6000602082019050616e086000830184616de4565b92915050565b600081519050919050565b600082825260208201905092915050565b60005b83811015616e48578082015181840152602081019050616e2d565b60008484015250505050565b6000601f19601f8301169050919050565b6000616e7082616e0e565b616e7a8185616e19565b9350616e8a818560208601616e2a565b616e9381616e54565b840191505092915050565b60006020820190508181036000830152616eb88184616e65565b905092915050565b600080fd5b616ece81616dd2565b8114616ed957600080fd5b50565b600081359050616eeb81616ec5565b92915050565b616efa81616d48565b8114616f0557600080fd5b50565b600081359050616f1781616ef1565b92915050565b60008060408385031215616f3457616f33616ec0565b5b6000616f4285828601616edc565b9250506020616f5385828601616f08565b9150509250929050565b616f6681616d7c565b8114616f7157600080fd5b50565b600081359050616f8381616f5d565b92915050565b60008060408385031215616fa057616f9f616ec0565b5b6000616fae85828601616edc565b9250506020616fbf85828601616f74565b9150509250929050565b6000819050919050565b6000616fee616fe9616fe484616db2565b616fc9565b616db2565b9050919050565b600061700082616fd3565b9050919050565b600061701282616ff5565b9050919050565b61702281617007565b82525050565b600060208201905061703d6000830184617019565b92915050565b60006020828403121561705957617058616ec0565b5b600061706784828501616edc565b91505092915050565b60008060008060008060c0878903121561708d5761708c616ec0565b5b600061709b89828a01616f08565b96505060206170ac89828a01616f08565b95505060406170bd89828a01616f08565b94505060606170ce89828a01616f08565b93505060806170df89828a01616f08565b92505060a06170f089828a01616f08565b9150509295509295509295565b60008060006060848603121561711657617115616ec0565b5b600061712486828701616edc565b935050602061713586828701616edc565b925050604061714686828701616f08565b9150509250925092565b60006020828403121561716657617165616ec0565b5b600061717484828501616f08565b91505092915050565b60006020828403121561719357617192616ec0565b5b60006171a184828501616f74565b91505092915050565b60006171b582616ff5565b9050919050565b6171c5816171aa565b82525050565b60006020820190506171e060008301846171bc565b92915050565b600060ff82169050919050565b6171fc816171e6565b82525050565b600060208201905061721760008301846171f3565b92915050565b6000819050919050565b6172308161721d565b82525050565b60006101008201905061724c600083018b616de4565b617259602083018a617227565b6172666040830189617227565b6172736060830188616d52565b6172806080830187616d52565b61728d60a0830186616d52565b61729a60c0830185616d52565b6172a760e0830184616d52565b9998505050505050505050565b600080604083850312156172cb576172ca616ec0565b5b60006172d985828601616f08565b92505060206172ea85828601616f08565b9150509250929050565b6000806040838503121561730b5761730a616ec0565b5b600061731985828601616edc565b925050602061732a85828601616edc565b9150509250929050565b7f4e487b7100000000000000000000000000000000000000000000000000000000600052602260045260246000fd5b6000600282049050600182168061737b57607f821691505b60208210810361738e5761738d617334565b5b50919050565b7f4d6178207472616e73616374696f6e206c696d6974206973206e6f742061766160008201527f696c61626c650000000000000000000000000000000000000000000000000000602082015250565b60006173f0602683616e19565b91506173fb82617394565b604082019050919050565b6000602082019050818103600083015261741f816173e3565b9050919050565b7f4163636f756e7420697320616c72656164792073657420746f2074686174207360008201527f7461746500000000000000000000000000000000000000000000000000000000602082015250565b6000617482602483616e19565b915061748d82617426565b604082019050919050565b600060208201905081810360008301526174b181617475565b9050919050565b7f4e487b7100000000000000000000000000000000000000000000000000000000600052601160045260246000fd5b60006174f282616d48565b91506174fd83616d48565b9250828201905080821115617515576175146174b8565b5b92915050565b7f46656573206d757374206265206c657373207468616e20323525000000000000600082015250565b6000617551601a83616e19565b915061755c8261751b565b602082019050919050565b6000602082019050818103600083015261758081617544565b9050919050565b600060c08201905061759c6000830189616d52565b6175a96020830188616d52565b6175b66040830187616d52565b6175c36060830186616d52565b6175d06080830185616d52565b6175dd60a0830184616d52565b979650505050505050565b7f4d61782077616c6c6574206c696d6974206973206e6f7420617661696c61626c60008201527f6500000000000000000000000000000000000000000000000000000000000000602082015250565b6000617644602183616e19565b915061764f826175e8565b604082019050919050565b6000602082019050818103600083015261767381617637565b9050919050565b60008160011c9050919050565b6000808291508390505b60018511156176d1578086048111156176ad576176ac6174b8565b5b60018516156176bc5780820291505b80810290506176ca8561767a565b9450617691565b94509492505050565b6000826176ea57600190506177a6565b816176f857600090506177a6565b816001811461770e576002811461771857617747565b60019150506177a6565b60ff84111561772a576177296174b8565b5b8360020a915084821115617741576177406174b8565b5b506177a6565b5060208310610133831016604e8410600b841016171561777c5782820a905083811115617777576177766174b8565b5b6177a6565b6177898484846001617687565b925090508184048111156177a05761779f6174b8565b5b81810290505b9392505050565b60006177b882616d48565b91506177c3836171e6565b92506177f07fffffffffffffffffffffffffffffffffffffffffffffffffffffffffffffffff84846176da565b905092915050565b7f4e487b7100000000000000000000000000000000000000000000000000000000600052601260045260246000fd5b600061783282616d48565b915061783d83616d48565b92508261784d5761784c6177f8565b5b828204905092915050565b7f4d61782077616c6c65742070657263656e746167652063616e6e6f742062652060008201527f6c6f776572207468616e20312500000000000000000000000000000000000000602082015250565b60006178b4602d83616e19565b91506178bf82617858565b604082019050919050565b600060208201905081810360008301526178e3816178a7565b9050919050565b7f4d61782077616c6c6574206c696d697420697320616c7265616479207365742060008201527f746f207468617420737461746500000000000000000000000000000000000000602082015250565b6000617946602d83616e19565b9150617951826178ea565b604082019050919050565b6000602082019050818103600083015261797581617939565b9050919050565b60008151905061798b81616ef1565b92915050565b6000602082840312156179a7576179a6616ec0565b5b60006179b58482850161797c565b91505092915050565b7f5374616b696e67206665652069736e277420617661696c61626c650000000000600082015250565b60006179f4601b83616e19565b91506179ff826179be565b602082019050919050565b60006020820190508181036000830152617a23816179e7565b9050919050565b7f5374616b696e672077616c6c657420697320616c72656164792074686174206160008201527f6464726573730000000000000000000000000000000000000000000000000000602082015250565b6000617a86602683616e19565b9150617a9182617a2a565b604082019050919050565b60006020820190508181036000830152617ab581617a79565b9050919050565b6000617ac782616db2565b9050919050565b617ad781617abc565b82525050565b6000604082019050617af26000830185617ace565b617aff6020830184616d88565b9392505050565b600081519050617b1581616f5d565b92915050565b600060208284031215617b3157617b30616ec0565b5b6000617b3f84828501617b06565b91505092915050565b7f57616c6c657420746f2077616c6c6574207472616e7366657220776974686f7560008201527f742066656520697320616c72656164792073657420746f20746861742076616c60208201527f7565000000000000000000000000000000000000000000000000000000000000604082015250565b6000617bca604283616e19565b9150617bd582617b48565b606082019050919050565b60006020820190508181036000830152617bf981617bbd565b9050919050565b7f4d6178207472616e73616374696f6e206c696d697420697320616c726561647960008201527f2073657420746f20746861742073746174650000000000000000000000000000602082015250565b6000617c5c603283616e19565b9150617c6782617c00565b604082019050919050565b60006020820190508181036000830152617c8b81617c4f565b9050919050565b7f54686520726f7574657220616c7265616479206861732074686174206164647260008201527f6573730000000000000000000000000000000000000000000000000000000000602082015250565b6000617cee602383616e19565b9150617cf982617c92565b604082019050919050565b60006020820190508181036000830152617d1d81617ce1565b9050919050565b600081519050617d3381616ec5565b92915050565b600060208284031215617d4f57617d4e616ec0565b5b6000617d5d84828501617d24565b91505092915050565b6000604082019050617d7b6000830185616de4565b617d886020830184616de4565b9392505050565b600080600060608486031215617da857617da7616ec0565b5b6000617db68682870161797c565b9350506020617dc78682870161797c565b9250506040617dd88682870161797c565b9150509250925092565b6000608082019050617df76000830187616d52565b617e046020830186616d52565b617e116040830185616d52565b617e1e6060830184616d52565b95945050505050565b7f53616c617279206665652069736e277420617661696c61626c65000000000000600082015250565b6000617e5d601a83616e19565b9150617e6882617e27565b602082019050919050565b60006020820190508181036000830152617e8c81617e50565b9050919050565b7f53616c6172792077616c6c657420697320616c7265616479207468617420616460008201527f6472657373000000000000000000000000000000000000000000000000000000602082015250565b6000617eef602583616e19565b9150617efa82617e93565b604082019050919050565b60006020820190508181036000830152617f1e81617ee2565b9050919050565b7f53616c6172792077616c6c65742063616e6e6f74206265206120636f6e74726160008201527f6374207768656e2063757272656e637920697320424e42000000000000000000602082015250565b6000617f81603783616e19565b9150617f8c82617f25565b604082019050919050565b60006020820190508181036000830152617fb081617f74565b9050919050565b7f676173466f7250726f63657373696e67206d757374206265206265747765656e60008201527f203230302c30303020616e64203530302c303030000000000000000000000000602082015250565b6000618013603483616e19565b915061801e82617fb7565b604082019050919050565b6000602082019050818103600083015261804281618006565b9050919050565b7f43616e6e6f742075706461746520676173466f7250726f63657373696e67207460008201527f6f2073616d652076616c75650000000000000000000000000000000000000000602082015250565b60006180a5602c83616e19565b91506180b082618049565b604082019050919050565b600060208201905081810360008301526180d481618098565b9050919050565b7f546865206469766964656e6420747261636b657220616c72656164792068617360008201527f2074686174206164647265737300000000000000000000000000000000000000602082015250565b6000618137602d83616e19565b9150618142826180db565b604082019050919050565b600060208201905081810360008301526181668161812a565b9050919050565b7f546865206e6577206469766964656e6420747261636b6572206d75737420626560008201527f206f776e65642062792074686520746f6b656e20636f6e747261637400000000602082015250565b60006181c9603c83616e19565b91506181d48261816d565b604082019050919050565b600060208201905081810360008301526181f8816181bc565b9050919050565b7f537761702077697468206c696d697420697320616c726561647920736574207460008201527f6f20746861742073746174650000000000000000000000000000000000000000602082015250565b600061825b602c83616e19565b9150618266826181ff565b604082019050919050565b6000602082019050818103600083015261828a8161824e565b9050919050565b7f5468652050616e63616b655377617020706169722063616e6e6f74206265207260008201527f656d6f7665642066726f6d206175746f6d617465644d61726b65744d616b657260208201527f5061697273000000000000000000000000000000000000000000000000000000604082015250565b6000618313604583616e19565b915061831e82618291565b606082019050919050565b6000602082019050818103600083015261834281618306565b9050919050565b7f45524332303a2064656372656173656420616c6c6f77616e63652062656c6f7760008201527f207a65726f000000000000000000000000000000000000000000000000000000602082015250565b60006183a5602583616e19565b91506183b082618349565b604082019050919050565b600060208201905081810360008301526183d481618398565b9050919050565b6183e48161721d565b81146183ef57600080fd5b50565b600081519050618401816183db565b92915050565b600080600080600080600080610100898b03121561842857618427616ec0565b5b60006184368b828c01617d24565b98505060206184478b828c016183f2565b97505060406184588b828c016183f2565b96505060606184698b828c0161797c565b955050608061847a8b828c0161797c565b94505060a061848b8b828c0161797c565b93505060c061849c8b828c0161797c565b92505060e06184ad8b828c0161797c565b9150509295985092959890939650565b7f4e657720416d6f756e74206d757374206d6f7265207468616e20302e3030303160008201527f25206f6620746f74616c20737570706c79000000000000000000000000000000602082015250565b6000618519603183616e19565b9150618524826184bd565b604082019050919050565b600060208201905081810360008301526185488161850c565b9050919050565b7f4d6178205472616e73616374696f6e206c696d69732063616e6e6f742062652060008201527f6c6f776572207468616e20302e3125206f6620746f74616c20737570706c7900602082015250565b60006185ab603f83616e19565b91506185b68261854f565b604082019050919050565b600060208201905081810360008301526185da8161859e565b9050919050565b60006185ec82616d48565b91506185f783616d48565b925082820261860581616d48565b9150828204841483151761861c5761861b6174b8565b5b5092915050565b60006040820190506186386000830185616d52565b6186456020830184616d52565b9392505050565b7f4d61726b6574696e672077616c6c657420697320616c7265616479207468617460008201527f2061646472657373000000000000000000000000000000000000000000000000602082015250565b60006186a8602883616e19565b91506186b38261864c565b604082019050919050565b600060208201905081810360008301526186d78161869b565b9050919050565b7f4d61726b6574696e672077616c6c65742063616e6e6f74206265206120636f6e60008201527f7472616374207768656e2063757272656e637920697320424e42000000000000602082015250565b600061873a603a83616e19565b9150618745826186de565b604082019050919050565b600060208201905081810360008301526187698161872d565b9050919050565b7f4163636f756e7420697320616c7265616479207468652076616c7565206f662060008201527f276578636c756465642700000000000000000000000000000000000000000000602082015250565b60006187cc602a83616e19565b91506187d782618770565b604082019050919050565b600060208201905081810360008301526187fb816187bf565b9050919050565b7f4275796261636b2077616c6c657420697320616c72656164792074686174206160008201527f6464726573730000000000000000000000000000000000000000000000000000602082015250565b600061885e602683616e19565b915061886982618802565b604082019050919050565b6000602082019050818103600083015261888d81618851565b9050919050565b7f4275796261636b2077616c6c65742063616e6e6f74206265206120636f6e747260008201527f616374207768656e2063757272656e637920697320424e420000000000000000602082015250565b60006188f0603883616e19565b91506188fb82618894565b604082019050919050565b6000602082019050818103600083015261891f816188e3565b9050919050565b7f5377617020697320616c72656164792073657420746f2074686174207374617460008201527f6500000000000000000000000000000000000000000000000000000000000000602082015250565b6000618982602183616e19565b915061898d82618926565b604082019050919050565b600060208201905081810360008301526189b181618975565b9050919050565b7f4f776e61626c653a206e6577206f776e657220697320746865207a65726f206160008201527f6464726573730000000000000000000000000000000000000000000000000000602082015250565b6000618a14602683616e19565b9150618a1f826189b8565b604082019050919050565b60006020820190508181036000830152618a4381618a07565b9050919050565b7f4f776e65722063616e6e6f7420636c61696d206e617469766520746f6b656e73600082015250565b6000618a80602083616e19565b9150618a8b82618a4a565b602082019050919050565b60006020820190508181036000830152618aaf81618a73565b9050919050565b6000604082019050618acb6000830185616de4565b618ad86020830184616d52565b9392505050565b7f45524332303a20617070726f76652066726f6d20746865207a65726f2061646460008201527f7265737300000000000000000000000000000000000000000000000000000000602082015250565b6000618b3b602483616e19565b9150618b4682618adf565b604082019050919050565b60006020820190508181036000830152618b6a81618b2e565b9050919050565b7f45524332303a20617070726f766520746f20746865207a65726f20616464726560008201527f7373000000000000000000000000000000000000000000000000000000000000602082015250565b6000618bcd602283616e19565b9150618bd882618b71565b604082019050919050565b60006020820190508181036000830152618bfc81618bc0565b9050919050565b7f4f776e61626c653a2063616c6c6572206973206e6f7420746865206f776e6572600082015250565b6000618c39602083616e19565b9150618c4482618c03565b602082019050919050565b60006020820190508181036000830152618c6881618c2c565b9050919050565b7f45524332303a20696e73756666696369656e7420616c6c6f77616e6365000000600082015250565b6000618ca5601d83616e19565b9150618cb082618c6f565b602082019050919050565b60006020820190508181036000830152618cd481618c98565b9050919050565b7f45524332303a207472616e736665722066726f6d20746865207a65726f20616460008201527f6472657373000000000000000000000000000000000000000000000000000000602082015250565b6000618d37602583616e19565b9150618d4282618cdb565b604082019050919050565b60006020820190508181036000830152618d6681618d2a565b9050919050565b7f45524332303a207472616e7366657220746f20746865207a65726f206164647260008201527f6573730000000000000000000000000000000000000000000000000000000000602082015250565b6000618dc9602383616e19565b9150618dd482618d6d565b604082019050919050565b60006020820190508181036000830152618df881618dbc565b9050919050565b7f416e74695768616c653a205472616e7366657220616d6f756e7420657863656560008201527f647320746865206d61785472616e73616374696f6e416d6f756e740000000000602082015250565b6000618e5b603b83616e19565b9150618e6682618dff565b604082019050919050565b60006020820190508181036000830152618e8a81618e4e565b9050919050565b6000618e9c82616d48565b9150618ea783616d48565b9250828203905081811115618ebf57618ebe6174b8565b5b92915050565b7f4e487b7100000000000000000000000000000000000000000000000000000000600052604160045260246000fd5b7f4e487b7100000000000000000000000000000000000000000000000000000000600052603260045260246000fd5b6000819050919050565b6000618f48618f43618f3e84618f23565b616fc9565b616d48565b9050919050565b618f5881618f2d565b82525050565b600081519050919050565b600082825260208201905092915050565b6000819050602082019050919050565b618f9381616dd2565b82525050565b6000618fa58383618f8a565b60208301905092915050565b6000602082019050919050565b6000618fc982618f5e565b618fd38185618f69565b9350618fde83618f7a565b8060005b8381101561900f578151618ff68882618f99565b975061900183618fb1565b925050600181019050618fe2565b5085935050505092915050565b600060a0820190506190316000830188616d52565b61903e6020830187618f4f565b81810360408301526190508186618fbe565b905061905f6060830185616de4565b61906c6080830184616d52565b9695505050505050565b7f4d617857616c6c65743a20526563697069656e7420657863656564732074686560008201527f206d617857616c6c6574416d6f756e7400000000000000000000000000000000602082015250565b60006190d2603083616e19565b91506190dd82619076565b604082019050919050565b60006020820190508181036000830152619101816190c5565b9050919050565b600060408201905061911d6000830185617ace565b61912a6020830184616d52565b9392505050565b7f4175746f6d61746564206d61726b6574206d616b65722070616972206973206160008201527f6c72656164792073657420746f20746861742076616c75650000000000000000602082015250565b600061918d603883616e19565b915061919882619131565b604082019050919050565b600060208201905081810360008301526191bc81619180565b9050919050565b7f45524332303a207472616e7366657220616d6f756e742065786365656473206260008201527f616c616e63650000000000000000000000000000000000000000000000000000602082015250565b600061921f602683616e19565b915061922a826191c3565b604082019050919050565b6000602082019050818103600083015261924e81619212565b9050919050565b600060c08201905061926a6000830189616de4565b6192776020830188616d52565b6192846040830187618f4f565b6192916060830186618f4f565b61929e6080830185616de4565b6192ab60a0830184616d52565b979650505050505050565b60006060820190506192cb6000830186616d52565b6192d86020830185616d52565b6192e56040830184616d52565b949350505050565b7f416464726573733a20696e73756666696369656e742062616c616e6365000000600082015250565b6000619323601d83616e19565b915061932e826192ed565b602082019050919050565b6000602082019050818103600083015261935281619316565b9050919050565b600081905092915050565b50565b6000619374600083619359565b915061937f82619364565b600082019050919050565b600061939582619367565b9150819050919050565b7f416464726573733a20756e61626c6520746f2073656e642076616c75652c207260008201527f6563697069656e74206d61792068617665207265766572746564000000000000602082015250565b60006193fb603a83616e19565b91506194068261939f565b604082019050919050565b6000602082019050818103600083015261942a816193ee565b9050919050565b60006080820190506194466000830187618f4f565b81810360208301526194588186618fbe565b90506194676040830185616de4565b6194746060830184616d52565b9594505050505056fea2646970667358221220708900abd0718934bd8121d9137cc498dcb6d70966e1e2ec49e269673c01e2d864736f6c6343000813003360a06040523480156200001157600080fd5b5060405162003e2b38038062003e2b8339818101604052810190620000379190620002c3565b6040518060400160405280600e81526020017f52657761726420547261636b65720000000000000000000000000000000000008152506040518060400160405280600f81526020017f4469766964656e64547261636b657200000000000000000000000000000000008152508282828160039081620000b791906200057a565b508060049081620000c991906200057a565b505050620000ec620000e06200015060201b60201c565b6200015860201b60201c565b8073ffffffffffffffffffffffffffffffffffffffff1660808173ffffffffffffffffffffffffffffffffffffffff1681525050505050610e10601181905550670de0b6b3a76400008262000142919062000690565b6012819055505050620006db565b600033905090565b6000600560009054906101000a900473ffffffffffffffffffffffffffffffffffffffff16905081600560006101000a81548173ffffffffffffffffffffffffffffffffffffffff021916908373ffffffffffffffffffffffffffffffffffffffff1602179055508173ffffffffffffffffffffffffffffffffffffffff168173ffffffffffffffffffffffffffffffffffffffff167f8be0079c531659141344cd1fd0a4f28419497f9722a3daafe3b4186f6b6457e060405160405180910390a35050565b600080fd5b6000819050919050565b620002388162000223565b81146200024457600080fd5b50565b60008151905062000258816200022d565b92915050565b600073ffffffffffffffffffffffffffffffffffffffff82169050919050565b60006200028b826200025e565b9050919050565b6200029d816200027e565b8114620002a957600080fd5b50565b600081519050620002bd8162000292565b92915050565b60008060408385031215620002dd57620002dc6200021e565b5b6000620002ed8582860162000247565b92505060206200030085828601620002ac565b9150509250929050565b600081519050919050565b7f4e487b7100000000000000000000000000000000000000000000000000000000600052604160045260246000fd5b7f4e487b7100000000000000000000000000000000000000000000000000000000600052602260045260246000fd5b600060028204905060018216806200038c57607f821691505b602082108103620003a257620003a162000344565b5b50919050565b60008190508160005260206000209050919050565b60006020601f8301049050919050565b600082821b905092915050565b6000600883026200040c7fffffffffffffffffffffffffffffffffffffffffffffffffffffffffffffffff82620003cd565b620004188683620003cd565b95508019841693508086168417925050509392505050565b6000819050919050565b60006200045b620004556200044f8462000223565b62000430565b62000223565b9050919050565b6000819050919050565b62000477836200043a565b6200048f620004868262000462565b848454620003da565b825550505050565b600090565b620004a662000497565b620004b38184846200046c565b505050565b5b81811015620004db57620004cf6000826200049c565b600181019050620004b9565b5050565b601f8211156200052a57620004f481620003a8565b620004ff84620003bd565b810160208510156200050f578190505b620005276200051e85620003bd565b830182620004b8565b50505b505050565b600082821c905092915050565b60006200054f600019846008026200052f565b1980831691505092915050565b60006200056a83836200053c565b9150826002028217905092915050565b62000585826200030a565b67ffffffffffffffff811115620005a157620005a062000315565b5b620005ad825462000373565b620005ba828285620004df565b600060209050601f831160018114620005f25760008415620005dd578287015190505b620005e985826200055c565b86555062000659565b601f1984166200060286620003a8565b60005b828110156200062c5784890151825560018201915060208501945060208101905062000605565b868310156200064c578489015162000648601f8916826200053c565b8355505b6001600288020188555050505b505050505050565b7f4e487b7100000000000000000000000000000000000000000000000000000000600052601160045260246000fd5b60006200069d8262000223565b9150620006aa8362000223565b9250828202620006ba8162000223565b91508282048414831517620006d457620006d362000661565b5b5092915050565b60805161372d620006fe600039600081816114f10152611e96015261372d6000f3fe608060405234801561001057600080fd5b50600436106102325760003560e01c8063715018a611610130578063bc4c4b37116100b8578063e98030c71161007c578063e98030c7146106f8578063f2fde38b14610714578063f7c618c114610730578063fbcbc0f11461074e578063ffb2c4791461078557610232565b8063bc4c4b3714610640578063be10b61414610670578063dd62ed3e1461068e578063e30443bc146106be578063e7841ec0146106da57610232565b806395d89b41116100ff57806395d89b4114610562578063a457c2d714610580578063a8b9d240146105b0578063a9059cbb146105e0578063aafd847a1461061057610232565b8063715018a6146104ec57806385a6b3ae146104f65780638da5cb5b1461051457806391b89fba1461053257610232565b80633009a609116101be5780634e7b827f116101825780634e7b827f1461042d5780635183d6fd1461045d5780636a474002146104945780636f2789ec1461049e57806370a08231146104bc57610232565b80633009a60914610389578063313ce567146103a757806331e79db0146103c55780633243c791146103e157806339509351146103fd57610232565b806318160ddd1161020557806318160ddd146102bf578063226cfa3d146102dd57806323b872dd1461030d57806327ce01471461033d578063286b3aa01461036d57610232565b806306fdde0314610237578063095ea7b31461025557806309bbedde146102855780630dcb2e89146102a3575b600080fd5b61023f6107b7565b60405161024c91906125a7565b60405180910390f35b61026f600480360381019061026a9190612662565b610849565b60405161027c91906126bd565b60405180910390f35b61028d61086c565b60405161029a91906126e7565b60405180910390f35b6102bd60048036038101906102b89190612702565b61087c565b005b6102c76108d2565b6040516102d491906126e7565b60405180910390f35b6102f760048036038101906102f2919061272f565b6108dc565b60405161030491906126e7565b60405180910390f35b6103276004803603810190610322919061275c565b6108f4565b60405161033491906126bd565b60405180910390f35b6103576004803603810190610352919061272f565b610923565b60405161036491906126e7565b60405180910390f35b61038760048036038101906103829190612702565b6109c6565b005b6103916109d8565b60405161039e91906126e7565b60405180910390f35b6103af6109de565b6040516103bc91906127cb565b60405180910390f35b6103df60048036038101906103da919061272f565b6109e7565b005b6103fb60048036038101906103f69190612702565b610b5b565b005b61041760048036038101906104129190612662565b610c3d565b60405161042491906126bd565b60405180910390f35b6104476004803603810190610442919061272f565b610c74565b60405161045491906126bd565b60405180910390f35b61047760048036038101906104729190612702565b610c94565b60405161048b98979695949392919061280e565b60405180910390f35b61049c610e09565b005b6104a6610e4c565b6040516104b391906126e7565b60405180910390f35b6104d660048036038101906104d1919061272f565b610e52565b6040516104e391906126e7565b60405180910390f35b6104f4610e9a565b005b6104fe610eae565b60405161050b91906126e7565b60405180910390f35b61051c610eb4565b604051610529919061288c565b60405180910390f35b61054c6004803603810190610547919061272f565b610ede565b60405161055991906126e7565b60405180910390f35b61056a610ef0565b60405161057791906125a7565b60405180910390f35b61059a60048036038101906105959190612662565b610f82565b6040516105a791906126bd565b60405180910390f35b6105ca60048036038101906105c5919061272f565b610ff9565b6040516105d791906126e7565b60405180910390f35b6105fa60048036038101906105f59190612662565b61105c565b60405161060791906126bd565b60405180910390f35b61062a6004803603810190610625919061272f565b61107f565b60405161063791906126e7565b60405180910390f35b61065a60048036038101906106559190612911565b6110c8565b60405161066791906126bd565b60405180910390f35b610678611193565b60405161068591906126e7565b60405180910390f35b6106a860048036038101906106a39190612951565b611199565b6040516106b591906126e7565b60405180910390f35b6106d860048036038101906106d39190612991565b611220565b005b6106e2611388565b6040516106ef91906126e7565b60405180910390f35b610712600480360381019061070d9190612702565b611392565b005b61072e6004803603810190610729919061272f565b61146c565b005b6107386114ef565b604051610745919061288c565b60405180910390f35b6107686004803603810190610763919061272f565b611513565b60405161077c98979695949392919061280e565b60405180910390f35b61079f600480360381019061079a9190612702565b6116f2565b6040516107ae939291906129d1565b60405180910390f35b6060600380546107c690612a37565b80601f01602080910402602001604051908101604052809291908181526020018280546107f290612a37565b801561083f5780601f106108145761010080835404028352916020019161083f565b820191906000526020600020905b81548152906001019060200180831161082257829003601f168201915b5050505050905090565b600080610854611883565b905061086181858561188b565b600191505092915050565b6000600a60000180549050905090565b610884611a54565b60125481036108c8576040517f08c379a00000000000000000000000000000000000000000000000000000000081526004016108bf90612b00565b60405180910390fd5b8060128190555050565b6000600254905090565b60106020528060005260406000206000915090505481565b6000806108ff611883565b905061090c858285611ad2565b610917858585611b5e565b60019150509392505050565b60007001000000000000000000000000000000006109b56109b0600860008673ffffffffffffffffffffffffffffffffffffffff1673ffffffffffffffffffffffffffffffffffffffff168152602001908152602001600020546109a261099d61098c88610e52565b600654611ba490919063ffffffff16565b611bba565b611bd790919063ffffffff16565b611c22565b6109bf9190612b7e565b9050919050565b6109ce611a54565b80600e8190555050565b600e5481565b60006012905090565b6109ef611a54565b600f60008273ffffffffffffffffffffffffffffffffffffffff1673ffffffffffffffffffffffffffffffffffffffff16815260200190815260200160002060009054906101000a900460ff1615610a4657600080fd5b6001600f60008373ffffffffffffffffffffffffffffffffffffffff1673ffffffffffffffffffffffffffffffffffffffff16815260200190815260200160002060006101000a81548160ff021916908315150217905550610aa9816000611c39565b600a73__IterableMapping_______________________634c60db9c9091836040518363ffffffff1660e01b8152600401610ae5929190612bc5565b60006040518083038186803b158015610afd57600080fd5b505af4158015610b11573d6000803e3d6000fd5b505050508073ffffffffffffffffffffffffffffffffffffffff167fa878b31040b2e6d0a9a3d3361209db3908ba62014b0dca52adbaee451d128b2560405160405180910390a250565b610b63611a54565b6000610b6d6108d2565b11610b7757600080fd5b6000811115610c3a57610bca610b8b6108d2565b610baf70010000000000000000000000000000000084611ba490919063ffffffff16565b610bb99190612b7e565b600654611ca690919063ffffffff16565b6006819055503373ffffffffffffffffffffffffffffffffffffffff167fa493a9229478c3fcd73f66d2cdeb7f94fd0f341da924d1054236d7845411651182604051610c1691906126e7565b60405180910390a2610c3381600754611ca690919063ffffffff16565b6007819055505b50565b600080610c48611883565b9050610c69818585610c5a8589611199565b610c649190612bee565b61188b565b600191505092915050565b600f6020528060005260406000206000915054906101000a900460ff1681565b600080600080600080600080600a73__IterableMapping_______________________63deb3d89690916040518263ffffffff1660e01b8152600401610cda9190612c22565b602060405180830381865af4158015610cf7573d6000803e3d6000fd5b505050506040513d601f19601f82011682018060405250810190610d1b9190612c52565b8910610d625760007fffffffffffffffffffffffffffffffffffffffffffffffffffffffffffffffff80600080600080600097509750975097509750975097509750610dfe565b6000600a73__IterableMapping_______________________63d1aa9e7e90918c6040518363ffffffff1660e01b8152600401610da0929190612c8e565b602060405180830381865af4158015610dbd573d6000803e3d6000fd5b505050506040513d601f19601f82011682018060405250810190610de19190612ccc565b9050610dec81611513565b98509850985098509850985098509850505b919395975091939597565b6000610e4a576040517f08c379a0000000000000000000000000000000000000000000000000000000008152600401610e4190612d91565b60405180910390fd5b565b60115481565b60008060008373ffffffffffffffffffffffffffffffffffffffff1673ffffffffffffffffffffffffffffffffffffffff168152602001908152602001600020549050919050565b610ea2611a54565b610eac6000611cbc565b565b60075481565b6000600560009054906101000a900473ffffffffffffffffffffffffffffffffffffffff16905090565b6000610ee982610ff9565b9050919050565b606060048054610eff90612a37565b80601f0160208091040260200160405190810160405280929190818152602001828054610f2b90612a37565b8015610f785780601f10610f4d57610100808354040283529160200191610f78565b820191906000526020600020905b815481529060010190602001808311610f5b57829003601f168201915b5050505050905090565b600080610f8d611883565b90506000610f9b8286611199565b905083811015610fe0576040517f08c379a0000000000000000000000000000000000000000000000000000000008152600401610fd790612e23565b60405180910390fd5b610fed828686840361188b565b60019250505092915050565b6000611055600960008473ffffffffffffffffffffffffffffffffffffffff1673ffffffffffffffffffffffffffffffffffffffff1681526020019081526020016000205461104784610923565b611d8290919063ffffffff16565b9050919050565b600080611067611883565b9050611074818585611b5e565b600191505092915050565b6000600960008373ffffffffffffffffffffffffffffffffffffffff1673ffffffffffffffffffffffffffffffffffffffff168152602001908152602001600020549050919050565b60006110d2611a54565b60006110dd84611d98565b905060008111156111875742601060008673ffffffffffffffffffffffffffffffffffffffff1673ffffffffffffffffffffffffffffffffffffffff168152602001908152602001600020819055508215158473ffffffffffffffffffffffffffffffffffffffff167fa2c38e2d2fb7e3e1912d937fd1ca11ed6d51864dee4cfa7a7bf02becd7acf0928360405161117591906126e7565b60405180910390a3600191505061118d565b60009150505b92915050565b60125481565b6000600160008473ffffffffffffffffffffffffffffffffffffffff1673ffffffffffffffffffffffffffffffffffffffff16815260200190815260200160002060008373ffffffffffffffffffffffffffffffffffffffff1673ffffffffffffffffffffffffffffffffffffffff16815260200190815260200160002054905092915050565b611228611a54565b600f60008373ffffffffffffffffffffffffffffffffffffffff1673ffffffffffffffffffffffffffffffffffffffff16815260200190815260200160002060009054906101000a900460ff166113845760125481106112ff5761128c8282611c39565b600a73__IterableMapping_______________________63bc2b405c909184846040518463ffffffff1660e01b81526004016112ca93929190612ea2565b60006040518083038186803b1580156112e257600080fd5b505af41580156112f6573d6000803e3d6000fd5b50505050611377565b61130a826000611c39565b600a73__IterableMapping_______________________634c60db9c9091846040518363ffffffff1660e01b8152600401611346929190612ed9565b60006040518083038186803b15801561135e57600080fd5b505af4158015611372573d6000803e3d6000fd5b505050505b6113828260016110c8565b505b5050565b6000600e54905090565b61139a611a54565b610e1081101580156113af5750620151808111155b6113ee576040517f08c379a00000000000000000000000000000000000000000000000000000000081526004016113e590612f74565b60405180910390fd5b6011548103611432576040517f08c379a000000000000000000000000000000000000000000000000000000000815260040161142990613006565b60405180910390fd5b601154817f474ea64804364a1e29a4487ddb63c3342a2dd826ccd8acf48825e680a0e6f20f60405160405180910390a38060118190555050565b611474611a54565b600073ffffffffffffffffffffffffffffffffffffffff168173ffffffffffffffffffffffffffffffffffffffff16036114e3576040517f08c379a00000000000000000000000000000000000000000000000000000000081526004016114da90613098565b60405180910390fd5b6114ec81611cbc565b50565b7f000000000000000000000000000000000000000000000000000000000000000081565b600080600080600080600080889750600a73__IterableMapping_______________________6317e142d190918a6040518363ffffffff1660e01b815260040161155e929190612bc5565b602060405180830381865af415801561157b573d6000803e3d6000fd5b505050506040513d601f19601f8201168201806040525081019061159f91906130e4565b96507fffffffffffffffffffffffffffffffffffffffffffffffffffffffffffffffff95506000871261164457600e548711156115f2576115eb600e5488611fee90919063ffffffff16565b9550611643565b6000600e54600a600001805490501161160c57600061162a565b611629600e54600a60000180549050611d8290919063ffffffff16565b5b905061163f8189611bd790919063ffffffff16565b9650505b5b61164d88610ff9565b945061165888610923565b9350601060008973ffffffffffffffffffffffffffffffffffffffff1673ffffffffffffffffffffffffffffffffffffffff168152602001908152602001600020549250600083116116ab5760006116c1565b6116c060115484611ca690919063ffffffff16565b5b91504282116116d15760006116e5565b6116e44283611d8290919063ffffffff16565b5b9050919395975091939597565b600080600080600a6000018054905090506000810361171d57600080600e549350935093505061187c565b6000600e5490506000805a90506000805b898410801561173c57508582105b1561186357848061174c90613111565b955050600a60000180549050851061176357600094505b6000600a600001868154811061177c5761177b613159565b5b9060005260206000200160009054906101000a900473ffffffffffffffffffffffffffffffffffffffff1690506117f1601060008373ffffffffffffffffffffffffffffffffffffffff1673ffffffffffffffffffffffffffffffffffffffff16815260200190815260200160002054612039565b15611816576118018160016110c8565b1561181557818061181190613111565b9250505b5b828061182190613111565b93505060005a905080851115611859576118566118478287611d8290919063ffffffff16565b87611ca690919063ffffffff16565b95505b809450505061172e565b84600e819055508181600e549850985098505050505050505b9193909250565b600033905090565b600073ffffffffffffffffffffffffffffffffffffffff168373ffffffffffffffffffffffffffffffffffffffff16036118fa576040517f08c379a00000000000000000000000000000000000000000000000000000000081526004016118f1906131fa565b60405180910390fd5b600073ffffffffffffffffffffffffffffffffffffffff168273ffffffffffffffffffffffffffffffffffffffff1603611969576040517f08c379a00000000000000000000000000000000000000000000000000000000081526004016119609061328c565b60405180910390fd5b80600160008573ffffffffffffffffffffffffffffffffffffffff1673ffffffffffffffffffffffffffffffffffffffff16815260200190815260200160002060008473ffffffffffffffffffffffffffffffffffffffff1673ffffffffffffffffffffffffffffffffffffffff168152602001908152602001600020819055508173ffffffffffffffffffffffffffffffffffffffff168373ffffffffffffffffffffffffffffffffffffffff167f8c5be1e5ebec7d5bd14f71427d1e84f3dd0314c0f7b2291e5b200ac8c7c3b92583604051611a4791906126e7565b60405180910390a3505050565b611a5c611883565b73ffffffffffffffffffffffffffffffffffffffff16611a7a610eb4565b73ffffffffffffffffffffffffffffffffffffffff1614611ad0576040517f08c379a0000000000000000000000000000000000000000000000000000000008152600401611ac7906132f8565b60405180910390fd5b565b6000611ade8484611199565b90507fffffffffffffffffffffffffffffffffffffffffffffffffffffffffffffffff8114611b585781811015611b4a576040517f08c379a0000000000000000000000000000000000000000000000000000000008152600401611b4190613364565b60405180910390fd5b611b57848484840361188b565b5b50505050565b6000611b9f576040517f08c379a0000000000000000000000000000000000000000000000000000000008152600401611b96906133d0565b60405180910390fd5b505050565b60008183611bb291906133f0565b905092915050565b6000808290506000811215611bce57600080fd5b80915050919050565b6000808284611be69190613432565b905060008312158015611bf95750838112155b80611c0f5750600083128015611c0e57508381125b5b611c1857600080fd5b8091505092915050565b600080821215611c3157600080fd5b819050919050565b6000611c4483610e52565b905080821115611c75576000611c638284611d8290919063ffffffff16565b9050611c6f848261206c565b50611ca1565b80821015611ca0576000611c928383611d8290919063ffffffff16565b9050611c9e848261212b565b505b5b505050565b60008183611cb49190612bee565b905092915050565b6000600560009054906101000a900473ffffffffffffffffffffffffffffffffffffffff16905081600560006101000a81548173ffffffffffffffffffffffffffffffffffffffff021916908373ffffffffffffffffffffffffffffffffffffffff1602179055508173ffffffffffffffffffffffffffffffffffffffff168173ffffffffffffffffffffffffffffffffffffffff167f8be0079c531659141344cd1fd0a4f28419497f9722a3daafe3b4186f6b6457e060405160405180910390a35050565b60008183611d909190613476565b905092915050565b600080611da483610ff9565b90506000811115611fe357611e0181600960008673ffffffffffffffffffffffffffffffffffffffff1673ffffffffffffffffffffffffffffffffffffffff16815260200190815260200160002054611ca690919063ffffffff16565b600960008573ffffffffffffffffffffffffffffffffffffffff1673ffffffffffffffffffffffffffffffffffffffff168152602001908152602001600020819055508273ffffffffffffffffffffffffffffffffffffffff167fee503bee2bb6a87e57bc57db795f98137327401a0e7b7ce42e37926cc1a9ca4d82604051611e8a91906126e7565b60405180910390a260007f000000000000000000000000000000000000000000000000000000000000000073ffffffffffffffffffffffffffffffffffffffff1663a9059cbb85846040518363ffffffff1660e01b8152600401611eef9291906134b9565b6020604051808303816000875af1158015611f0e573d6000803e3d6000fd5b505050506040513d601f19601f82011682018060405250810190611f3291906134f7565b905080611fd957611f8b82600960008773ffffffffffffffffffffffffffffffffffffffff1673ffffffffffffffffffffffffffffffffffffffff16815260200190815260200160002054611d8290919063ffffffff16565b600960008673ffffffffffffffffffffffffffffffffffffffff1673ffffffffffffffffffffffffffffffffffffffff16815260200190815260200160002081905550600092505050611fe9565b8192505050611fe9565b60009150505b919050565b6000808284611ffd9190613524565b9050600083121580156120105750838113155b80612026575060008312801561202557508381135b5b61202f57600080fd5b8091505092915050565b60004282111561204c5760009050612067565b6011546120628342611d8290919063ffffffff16565b101590505b919050565b61207682826121ea565b6120e461209661209183600654611ba490919063ffffffff16565b611bba565b600860008573ffffffffffffffffffffffffffffffffffffffff1673ffffffffffffffffffffffffffffffffffffffff16815260200190815260200160002054611fee90919063ffffffff16565b600860008473ffffffffffffffffffffffffffffffffffffffff1673ffffffffffffffffffffffffffffffffffffffff168152602001908152602001600020819055505050565b6121358282612340565b6121a361215561215083600654611ba490919063ffffffff16565b611bba565b600860008573ffffffffffffffffffffffffffffffffffffffff1673ffffffffffffffffffffffffffffffffffffffff16815260200190815260200160002054611bd790919063ffffffff16565b600860008473ffffffffffffffffffffffffffffffffffffffff1673ffffffffffffffffffffffffffffffffffffffff168152602001908152602001600020819055505050565b600073ffffffffffffffffffffffffffffffffffffffff168273ffffffffffffffffffffffffffffffffffffffff1603612259576040517f08c379a0000000000000000000000000000000000000000000000000000000008152600401612250906135b3565b60405180910390fd5b6122656000838361250d565b80600260008282546122779190612bee565b92505081905550806000808473ffffffffffffffffffffffffffffffffffffffff1673ffffffffffffffffffffffffffffffffffffffff168152602001908152602001600020600082825401925050819055508173ffffffffffffffffffffffffffffffffffffffff16600073ffffffffffffffffffffffffffffffffffffffff167fddf252ad1be2c89b69c2b068fc378daa952ba7f163c4a11628f55a4df523b3ef8360405161232891906126e7565b60405180910390a361233c60008383612512565b5050565b600073ffffffffffffffffffffffffffffffffffffffff168273ffffffffffffffffffffffffffffffffffffffff16036123af576040517f08c379a00000000000000000000000000000000000000000000000000000000081526004016123a690613645565b60405180910390fd5b6123bb8260008361250d565b60008060008473ffffffffffffffffffffffffffffffffffffffff1673ffffffffffffffffffffffffffffffffffffffff16815260200190815260200160002054905081811015612441576040517f08c379a0000000000000000000000000000000000000000000000000000000008152600401612438906136d7565b60405180910390fd5b8181036000808573ffffffffffffffffffffffffffffffffffffffff1673ffffffffffffffffffffffffffffffffffffffff1681526020019081526020016000208190555081600260008282540392505081905550600073ffffffffffffffffffffffffffffffffffffffff168373ffffffffffffffffffffffffffffffffffffffff167fddf252ad1be2c89b69c2b068fc378daa952ba7f163c4a11628f55a4df523b3ef846040516124f491906126e7565b60405180910390a361250883600084612512565b505050565b505050565b505050565b600081519050919050565b600082825260208201905092915050565b60005b83811015612551578082015181840152602081019050612536565b60008484015250505050565b6000601f19601f8301169050919050565b600061257982612517565b6125838185612522565b9350612593818560208601612533565b61259c8161255d565b840191505092915050565b600060208201905081810360008301526125c1818461256e565b905092915050565b600080fd5b600073ffffffffffffffffffffffffffffffffffffffff82169050919050565b60006125f9826125ce565b9050919050565b612609816125ee565b811461261457600080fd5b50565b60008135905061262681612600565b92915050565b6000819050919050565b61263f8161262c565b811461264a57600080fd5b50565b60008135905061265c81612636565b92915050565b60008060408385031215612679576126786125c9565b5b600061268785828601612617565b92505060206126988582860161264d565b9150509250929050565b60008115159050919050565b6126b7816126a2565b82525050565b60006020820190506126d260008301846126ae565b92915050565b6126e18161262c565b82525050565b60006020820190506126fc60008301846126d8565b92915050565b600060208284031215612718576127176125c9565b5b60006127268482850161264d565b91505092915050565b600060208284031215612745576127446125c9565b5b600061275384828501612617565b91505092915050565b600080600060608486031215612775576127746125c9565b5b600061278386828701612617565b935050602061279486828701612617565b92505060406127a58682870161264d565b9150509250925092565b600060ff82169050919050565b6127c5816127af565b82525050565b60006020820190506127e060008301846127bc565b92915050565b6127ef816125ee565b82525050565b6000819050919050565b612808816127f5565b82525050565b600061010082019050612824600083018b6127e6565b612831602083018a6127ff565b61283e60408301896127ff565b61284b60608301886126d8565b61285860808301876126d8565b61286560a08301866126d8565b61287260c08301856126d8565b61287f60e08301846126d8565b9998505050505050505050565b60006020820190506128a160008301846127e6565b92915050565b60006128b2826125ce565b9050919050565b6128c2816128a7565b81146128cd57600080fd5b50565b6000813590506128df816128b9565b92915050565b6128ee816126a2565b81146128f957600080fd5b50565b60008135905061290b816128e5565b92915050565b60008060408385031215612928576129276125c9565b5b6000612936858286016128d0565b9250506020612947858286016128fc565b9150509250929050565b60008060408385031215612968576129676125c9565b5b600061297685828601612617565b925050602061298785828601612617565b9150509250929050565b600080604083850312156129a8576129a76125c9565b5b60006129b6858286016128d0565b92505060206129c78582860161264d565b9150509250929050565b60006060820190506129e660008301866126d8565b6129f360208301856126d8565b612a0060408301846126d8565b949350505050565b7f4e487b7100000000000000000000000000000000000000000000000000000000600052602260045260246000fd5b60006002820490506001821680612a4f57607f821691505b602082108103612a6257612a61612a08565b5b50919050565b7f4e6577206d696d696d756d2062616c616e636520666f72206469766964656e6460008201527f2063616e6e6f742062652073616d652061732063757272656e74206d696e696d60208201527f756d2062616c616e636500000000000000000000000000000000000000000000604082015250565b6000612aea604a83612522565b9150612af582612a68565b606082019050919050565b60006020820190508181036000830152612b1981612add565b9050919050565b7f4e487b7100000000000000000000000000000000000000000000000000000000600052601260045260246000fd5b7f4e487b7100000000000000000000000000000000000000000000000000000000600052601160045260246000fd5b6000612b898261262c565b9150612b948361262c565b925082612ba457612ba3612b20565b5b828204905092915050565b8082525050565b612bbf816125ee565b82525050565b6000604082019050612bda6000830185612baf565b612be76020830184612bb6565b9392505050565b6000612bf98261262c565b9150612c048361262c565b9250828201905080821115612c1c57612c1b612b4f565b5b92915050565b6000602082019050612c376000830184612baf565b92915050565b600081519050612c4c81612636565b92915050565b600060208284031215612c6857612c676125c9565b5b6000612c7684828501612c3d565b91505092915050565b612c888161262c565b82525050565b6000604082019050612ca36000830185612baf565b612cb06020830184612c7f565b9392505050565b600081519050612cc681612600565b92915050565b600060208284031215612ce257612ce16125c9565b5b6000612cf084828501612cb7565b91505092915050565b7f77697468647261774469766964656e642064697361626c65642e20557365207460008201527f68652027636c61696d272066756e6374696f6e206f6e20746865206d61696e2060208201527f636f6e74726163742e0000000000000000000000000000000000000000000000604082015250565b6000612d7b604983612522565b9150612d8682612cf9565b606082019050919050565b60006020820190508181036000830152612daa81612d6e565b9050919050565b7f45524332303a2064656372656173656420616c6c6f77616e63652062656c6f7760008201527f207a65726f000000000000000000000000000000000000000000000000000000602082015250565b6000612e0d602583612522565b9150612e1882612db1565b604082019050919050565b60006020820190508181036000830152612e3c81612e00565b9050919050565b6000819050919050565b6000612e68612e63612e5e846125ce565b612e43565b6125ce565b9050919050565b6000612e7a82612e4d565b9050919050565b6000612e8c82612e6f565b9050919050565b612e9c81612e81565b82525050565b6000606082019050612eb76000830186612baf565b612ec46020830185612e93565b612ed16040830184612c7f565b949350505050565b6000604082019050612eee6000830185612baf565b612efb6020830184612e93565b9392505050565b7f636c61696d57616974206d757374206265207570646174656420746f2062657460008201527f7765656e203120616e6420323420686f75727300000000000000000000000000602082015250565b6000612f5e603383612522565b9150612f6982612f02565b604082019050919050565b60006020820190508181036000830152612f8d81612f51565b9050919050565b7f43616e6e6f742075706461746520636c61696d5761697420746f2073616d652060008201527f76616c7565000000000000000000000000000000000000000000000000000000602082015250565b6000612ff0602583612522565b9150612ffb82612f94565b604082019050919050565b6000602082019050818103600083015261301f81612fe3565b9050919050565b7f4f776e61626c653a206e6577206f776e657220697320746865207a65726f206160008201527f6464726573730000000000000000000000000000000000000000000000000000602082015250565b6000613082602683612522565b915061308d82613026565b604082019050919050565b600060208201905081810360008301526130b181613075565b9050919050565b6130c1816127f5565b81146130cc57600080fd5b50565b6000815190506130de816130b8565b92915050565b6000602082840312156130fa576130f96125c9565b5b6000613108848285016130cf565b91505092915050565b600061311c8261262c565b91507fffffffffffffffffffffffffffffffffffffffffffffffffffffffffffffffff820361314e5761314d612b4f565b5b600182019050919050565b7f4e487b7100000000000000000000000000000000000000000000000000000000600052603260045260246000fd5b7f45524332303a20617070726f76652066726f6d20746865207a65726f2061646460008201527f7265737300000000000000000000000000000000000000000000000000000000602082015250565b60006131e4602483612522565b91506131ef82613188565b604082019050919050565b60006020820190508181036000830152613213816131d7565b9050919050565b7f45524332303a20617070726f766520746f20746865207a65726f20616464726560008201527f7373000000000000000000000000000000000000000000000000000000000000602082015250565b6000613276602283612522565b91506132818261321a565b604082019050919050565b600060208201905081810360008301526132a581613269565b9050919050565b7f4f776e61626c653a2063616c6c6572206973206e6f7420746865206f776e6572600082015250565b60006132e2602083612522565b91506132ed826132ac565b602082019050919050565b60006020820190508181036000830152613311816132d5565b9050919050565b7f45524332303a20696e73756666696369656e7420616c6c6f77616e6365000000600082015250565b600061334e601d83612522565b915061335982613318565b602082019050919050565b6000602082019050818103600083015261337d81613341565b9050919050565b7f4e6f207472616e736665727320616c6c6f776564000000000000000000000000600082015250565b60006133ba601483612522565b91506133c582613384565b602082019050919050565b600060208201905081810360008301526133e9816133ad565b9050919050565b60006133fb8261262c565b91506134068361262c565b92508282026134148161262c565b9150828204841483151761342b5761342a612b4f565b5b5092915050565b600061343d826127f5565b9150613448836127f5565b9250828201905082811215600083121683821260008412151617156134705761346f612b4f565b5b92915050565b60006134818261262c565b915061348c8361262c565b92508282039050818111156134a4576134a3612b4f565b5b92915050565b6134b381612e81565b82525050565b60006040820190506134ce60008301856134aa565b6134db60208301846126d8565b9392505050565b6000815190506134f1816128e5565b92915050565b60006020828403121561350d5761350c6125c9565b5b600061351b848285016134e2565b91505092915050565b600061352f826127f5565b915061353a836127f5565b925082820390508181126000841216828213600085121516171561356157613560612b4f565b5b92915050565b7f45524332303a206d696e7420746f20746865207a65726f206164647265737300600082015250565b600061359d601f83612522565b91506135a882613567565b602082019050919050565b600060208201905081810360008301526135cc81613590565b9050919050565b7f45524332303a206275726e2066726f6d20746865207a65726f2061646472657360008201527f7300000000000000000000000000000000000000000000000000000000000000602082015250565b600061362f602183612522565b915061363a826135d3565b604082019050919050565b6000602082019050818103600083015261365e81613622565b9050919050565b7f45524332303a206275726e20616d6f756e7420657863656564732062616c616e60008201527f6365000000000000000000000000000000000000000000000000000000000000602082015250565b60006136c1602283612522565b91506136cc82613665565b604082019050919050565b600060208201905081810360008301526136f0816136b4565b905091905056fea26469706673582212209e9ababe4c1e928474775f2f0fcb272519e29674b0b4e283db24c8790f4ba39e64736f6c63430008130033",
  "immutableReferences": {
    "3617": [
      {
        "length": 32,
        "start": 17909
      },
      {
        "length": 32,
        "start": 27145
      },
      {
        "length": 32,
        "start": 27407
      },
      {
        "length": 32,
        "start": 27565
      }
    ]
  },
  "source": "// SPDX-License-Identifier: UNLICENSED\npragma solidity 0.8.19;\n\nimport \"@openzeppelin/contracts/token/ERC20/ERC20.sol\";\nimport \"@openzeppelin/contracts/access/Ownable.sol\";\nimport \"@openzeppelin/contracts/utils/Address.sol\";\nimport \"@uniswap/v2-periphery/contracts/interfaces/IUniswapV2Router02.sol\";\nimport \"@uniswap/v2-core/contracts/interfaces/IUniswapV2Factory.sol\";\nimport \"./DividendTracker.sol\";\n\n\ncontract XHype is ERC20, Ownable {\n    using Address for address payable;\n\n    uint256 public liquidityFeeOnBuy;\n    uint256 public liquidityFeeOnSell;\n\n    uint256 public rewardFeeOnBuy; //OK\n    uint256 public rewardFeeOnSell; //OK\n\n    uint256 public marketingFeeOnBuy;\n    uint256 public marketingFeeOnSell;\n\n    uint256 public buybackFeeOnBuy;\n    uint256 public buybackFeeOnSell;\n\n    bool public salaryFeeAvailable;\n    uint256 public salaryFeeOnBuy; //NO\n    uint256 public salaryFeeOnSell;\n\n    bool public stakingFeeAvailable;\n    uint256 public stakingFeeOnBuy;\n    uint256 public stakingFeeOnSell;\n\n    uint256 private _totalFeesOnBuy;\n    uint256 private _totalFeesOnSell;\n\n    address public marketingWallet;\n    address public buybackWallet;\n    address public salaryWallet;\n    address public stakingWallet;\n\n    address public marketingCurrency;\n    address public buybackCurrency;\n    address public salaryCurrency;\n\n    bool public walletToWalletTransferWithoutFee; //Se va\n\n    IUniswapV2Router02 public uniswapV2Router;\n    address public uniswapV2Pair;\n\n    address private DEAD = 0x000000000000000000000000000000000000dEaD;\n\n    uint256 public swapTokensAtAmount;\n    bool public swapEnabled;\n    bool public swapWithLimit;\n    bool private swapping;\n\n    mapping(address => bool) private _isExcludedFromFees;\n    mapping(address => bool) public automatedMarketMakerPairs;\n\n    DividendTracker public dividendTracker;\n    address public immutable rewardToken;\n    uint256 public gasForProcessing = 300000;\n\n    event ExcludeFromFees(address indexed account, bool isExcluded);\n    event ExcludedFromMaxTransactionLimit(\n        address indexed account,\n        bool isExcluded\n    );\n    event ExcludedFromMaxWalletLimit(address indexed account, bool isExcluded);\n    event UpdateBuyFees(\n        uint256 liquidityFeeOnBuy,\n        uint256 marketingFeeOnBuy,\n        uint256 rewardFeeOnBuy,\n        uint256 buybackFeeOnBuy,\n        uint256 salaryFeeOnBuy,\n        uint256 stakingFeeOnBuy\n    );\n    event UpdateSellFees(\n        uint256 liquidityFeeOnSell,\n        uint256 marketingFeeOnSell,\n        uint256 rewardFeeOnSell,\n        uint256 buybackFeeOnSell,\n        uint256 salaryFeeOnSell,\n        uint256 stakingFeeOnSell\n    );\n    event MarketingWalletChanged(address marketingWallet);\n    event BuybackWalletChanged(address buybackWallet);\n    event SalaryWalletChanged(address salaryWallet);\n    event StakingWalletChanged(address stakingWallet);\n    event MaxWalletLimitRateChanged(uint256 maxWalletLimitRate);\n    event MaxWalletLimitStateChanged(bool maxWalletLimit);\n    event MaxTransactionLimitRatesChanged(\n        uint256 maxTransferRateBuy,\n        uint256 maxTransferRateSell\n    );\n    event MaxTransactionLimitStateChanged(bool maxTransactionLimit);\n    event SetAutomatedMarketMakerPair(address indexed pair, bool indexed value);\n    event SwapAndLiquify(\n        uint256 tokensSwapped,\n        uint256 bnbReceived,\n        uint256 tokensIntoLiqudity\n    );\n    event SendMarketing(uint256 bnbSend);\n    event SendBuyback(uint256 bnbSend);\n    event SendSalary(uint256 bnbSend);\n    event SendStaking(uint256 tokenSend);\n    event UpdateUniswapV2Router(\n        address indexed newAddress,\n        address indexed oldAddress\n    );\n    event UpdateDividendTracker(\n        address indexed newAddress,\n        address indexed oldAddress\n    );\n    event GasForProcessingUpdated(\n        uint256 indexed newValue,\n        uint256 indexed oldValue\n    );\n    event SendDividends(uint256 amount);\n    event ProcessedDividendTracker(\n        uint256 iterations,\n        uint256 claims,\n        uint256 lastProcessedIndex,\n        bool indexed automatic,\n        uint256 gas,\n        address indexed processor\n    );\n\n    struct FeeManager {\n        bool salaryFeeAvailable_;\n        bool stakingFeeAvailable_;\n        uint256 liquditiyFeeOnBuy_;\n        uint256 liquidityFeeOnSell_;\n        uint256 rewardFeeOnBuy_;\n        uint256 rewardFeeOnSell_;\n        uint256 marketingFeeOnBuy_;\n        uint256 marketingFeeOnSell_;\n        uint256 buybackFeeOnBuy_;\n        uint256 buybackFeeOnSell_;\n        uint256 salaryFeeOnBuy_;\n        uint256 salaryFeeOnSell_;\n        uint256 stakingFeeOnBuy_;\n        uint256 stakingFeeOnSell_;\n        address marketingWallet_;\n        address buybackWallet_;\n        address salaryWallet_;\n        address stakingWallet_;\n        address marketingCurrency_;\n        address buybackCurrency_;\n        address salaryCurrency_;\n    }\n\n    struct ConstructorArgument {\n        string name_;\n        string symbol_;\n        uint256 totalSupply_;\n        address router_;\n        address rewardToken_;\n        uint256 mininmumTokenBalanceForDividends_;\n        bool walletToWalletTransferWithoutFee_;\n        bool maxTransactionLimitAvailable_;\n        uint256 maxTransactionAmountBuy_;\n        uint256 maxTransactionAmountSell_;\n        bool maxWalletLimitAvailable_;\n        uint256 maxWalletAmount_;\n        FeeManager feeManager_;\n        uint256 serviceFee_;\n        address serviceFeeReceiver_;\n    }\n\n    constructor(\n        ConstructorArgument memory _arg\n    ) payable ERC20(_arg.name_, _arg.symbol_) {\n        require(\n            _arg.feeManager_.stakingFeeAvailable_ ||\n                _arg.feeManager_.stakingFeeOnBuy_ +\n                    _arg.feeManager_.stakingFeeOnSell_ ==\n                0,\n            \"Staking Fee is not available\"\n        );\n        require(\n            _arg.feeManager_.salaryFeeAvailable_ ||\n                (_arg.feeManager_.salaryFeeOnBuy_ +\n                    _arg.feeManager_.salaryFeeOnSell_ ==\n                    0 &&\n                    _arg.feeManager_.salaryCurrency_ == address(0)),\n            \"Salary Fee isn't available\"\n        );\n        require(\n            _arg.feeManager_.liquditiyFeeOnBuy_ +\n                _arg.feeManager_.marketingFeeOnBuy_ +\n                _arg.feeManager_.rewardFeeOnBuy_ +\n                _arg.feeManager_.buybackFeeOnBuy_ +\n                _arg.feeManager_.salaryFeeOnBuy_ +\n                _arg.feeManager_.stakingFeeOnBuy_ <=\n                25 &&\n                _arg.feeManager_.liquidityFeeOnSell_ +\n                    _arg.feeManager_.marketingFeeOnSell_ +\n                    _arg.feeManager_.rewardFeeOnSell_ +\n                    _arg.feeManager_.buybackFeeOnSell_ +\n                    _arg.feeManager_.salaryFeeOnSell_ +\n                    _arg.feeManager_.stakingFeeOnSell_ <=\n                25,\n            \"Fees must be less than 25%\"\n        );\n        require(\n            _arg.maxWalletAmount_ >= _arg.totalSupply_ / 100,\n            \"Max wallet limit rate must be greater than 1% of total supply\"\n        );\n        require(\n            _arg.maxTransactionAmountBuy_ >= _arg.totalSupply_ / 1000 &&\n                _arg.maxTransactionAmountSell_ >= _arg.totalSupply_ / 1000,\n            \"Max transaction rates must be greater than 0.1% of total supply\"\n        );\n        require(\n            _arg.feeManager_.marketingCurrency_ !=\n                0xbb4CdB9CBd36B01bD1cBaEBF2De08d9173bc095c &&\n                _arg.feeManager_.buybackCurrency_ !=\n                0xbb4CdB9CBd36B01bD1cBaEBF2De08d9173bc095c &&\n                _arg.feeManager_.salaryCurrency_ !=\n                0xbb4CdB9CBd36B01bD1cBaEBF2De08d9173bc095c,\n            \"Marketing, buyback and salary currencies cannot be WBNB\"\n        );\n        require(\n            _arg.rewardToken_ != address(0) &&\n                _arg.rewardToken_ != 0xbb4CdB9CBd36B01bD1cBaEBF2De08d9173bc095c,\n            \"Reward token cannot be BNB\"\n        );\n\n        salaryFeeAvailable = _arg.feeManager_.salaryFeeAvailable_;\n        stakingFeeAvailable = _arg.feeManager_.stakingFeeAvailable_;\n\n        liquidityFeeOnBuy = _arg.feeManager_.liquditiyFeeOnBuy_;\n        liquidityFeeOnSell = _arg.feeManager_.liquidityFeeOnSell_;\n        rewardFeeOnBuy = _arg.feeManager_.rewardFeeOnBuy_;\n        rewardFeeOnSell = _arg.feeManager_.rewardFeeOnSell_;\n        marketingFeeOnBuy = _arg.feeManager_.marketingFeeOnBuy_;\n        marketingFeeOnSell = _arg.feeManager_.marketingFeeOnSell_;\n        buybackFeeOnBuy = _arg.feeManager_.buybackFeeOnBuy_;\n        buybackFeeOnSell = _arg.feeManager_.buybackFeeOnSell_;\n        salaryFeeOnBuy = _arg.feeManager_.salaryFeeOnBuy_;\n        salaryFeeOnSell = _arg.feeManager_.salaryFeeOnSell_;\n        stakingFeeOnBuy = _arg.feeManager_.stakingFeeOnBuy_;\n        stakingFeeOnSell = _arg.feeManager_.stakingFeeOnSell_;\n\n        _totalFeesOnBuy =\n            liquidityFeeOnBuy +\n            marketingFeeOnBuy +\n            rewardFeeOnBuy +\n            buybackFeeOnBuy +\n            salaryFeeOnBuy +\n            stakingFeeOnBuy;\n        _totalFeesOnSell =\n            liquidityFeeOnSell +\n            marketingFeeOnSell +\n            rewardFeeOnSell +\n            buybackFeeOnSell +\n            salaryFeeOnSell +\n            stakingFeeOnSell;\n\n        marketingWallet = _arg.feeManager_.marketingWallet_;\n        buybackWallet = _arg.feeManager_.buybackWallet_;\n        salaryWallet = _arg.feeManager_.salaryWallet_;\n        stakingWallet = _arg.feeManager_.stakingWallet_;\n\n        marketingCurrency = _arg.feeManager_.marketingCurrency_;\n        buybackCurrency = _arg.feeManager_.buybackCurrency_;\n        salaryCurrency = _arg.feeManager_.salaryCurrency_;\n\n        walletToWalletTransferWithoutFee = _arg\n            .walletToWalletTransferWithoutFee_;\n\n        maxTransactionAvailable = _arg.maxTransactionLimitAvailable_;\n        maxTransactionLimitEnabled = _arg.maxTransactionLimitAvailable_;\n        maxTransactionAmountBuy =\n            _arg.maxTransactionAmountBuy_ *\n            (10 ** decimals());\n        maxTransactionAmountSell =\n            _arg.maxTransactionAmountSell_ *\n            (10 ** decimals());\n\n        maxWalletAvailable = _arg.maxWalletLimitAvailable_;\n        maxWalletLimitEnabled = _arg.maxWalletLimitAvailable_;\n        maxWalletAmount = _arg.maxWalletAmount_ * (10 ** decimals());\n\n        dividendTracker = new DividendTracker(\n            _arg.mininmumTokenBalanceForDividends_,\n            _arg.rewardToken_\n        );\n        rewardToken = _arg.rewardToken_;\n\n        IUniswapV2Router02 _uniswapV2Router = IUniswapV2Router02(_arg.router_);\n        address _uniswapV2Pair = IUniswapV2Factory(_uniswapV2Router.factory())\n            .createPair(address(this), _uniswapV2Router.WETH());\n\n        uniswapV2Router = _uniswapV2Router;\n        uniswapV2Pair = _uniswapV2Pair;\n\n        _approve(address(this), address(uniswapV2Router), type(uint256).max);\n\n        _setAutomatedMarketMakerPair(_uniswapV2Pair, true);\n\n        dividendTracker.excludeFromDividends(address(dividendTracker));\n        dividendTracker.excludeFromDividends(address(this));\n        dividendTracker.excludeFromDividends(DEAD);\n        dividendTracker.excludeFromDividends(stakingWallet);\n        dividendTracker.excludeFromDividends(address(_uniswapV2Router));\n\n        _isExcludedFromMaxTxLimit[owner()] = true;\n        _isExcludedFromMaxTxLimit[address(0)] = true;\n        _isExcludedFromMaxTxLimit[address(this)] = true;\n        _isExcludedFromMaxTxLimit[DEAD] = true;\n        _isExcludedFromMaxTxLimit[stakingWallet] = true;\n\n        _isExcludedFromMaxWalletLimit[owner()] = true;\n        _isExcludedFromMaxWalletLimit[address(0)] = true;\n        _isExcludedFromMaxWalletLimit[address(this)] = true;\n        _isExcludedFromMaxWalletLimit[DEAD] = true;\n        _isExcludedFromMaxWalletLimit[stakingWallet] = true;\n\n        _isExcludedFromFees[owner()] = true;\n        _isExcludedFromFees[address(this)] = true;\n        _isExcludedFromFees[DEAD] = true;\n        _isExcludedFromFees[stakingWallet] = true;\n\n        swapEnabled = true;\n        swapTokensAtAmount = (_arg.totalSupply_ * (10 ** 18)) / 5000;\n        _mint(owner(), _arg.totalSupply_ * (10 ** 18));\n\n        payable(_arg.serviceFeeReceiver_).transfer(_arg.serviceFee_);\n    }\n\n    receive() external payable {}\n\n    function claimStuckTokens(address token) external onlyOwner {\n        require(token != address(this), \"Owner cannot claim native tokens\");\n        if (token == address(0x0)) {\n            payable(msg.sender).transfer(address(this).balance);\n            return;\n        }\n        IERC20 ERC20token = IERC20(token);\n        uint256 balance = ERC20token.balanceOf(address(this));\n        ERC20token.transfer(msg.sender, balance);\n    }\n\n    function isContract(address account) internal view returns (bool) {\n        return account.code.length > 0;\n    }\n\n    function updateUniswapV2Router(address newAddress) external onlyOwner {\n        require(\n            newAddress != address(uniswapV2Router),\n            \"The router already has that address\"\n        );\n        emit UpdateUniswapV2Router(newAddress, address(uniswapV2Router));\n        uniswapV2Router = IUniswapV2Router02(newAddress);\n        address _uniswapV2Pair = IUniswapV2Factory(uniswapV2Router.factory())\n            .createPair(address(this), uniswapV2Router.WETH());\n        uniswapV2Pair = _uniswapV2Pair;\n    }\n\n    function setAutomatedMarketMakerPair(\n        address pair,\n        bool value\n    ) external onlyOwner {\n        require(\n            pair != uniswapV2Pair,\n            \"The PancakeSwap pair cannot be removed from automatedMarketMakerPairs\"\n        );\n\n        _setAutomatedMarketMakerPair(pair, value);\n    }\n\n    function _setAutomatedMarketMakerPair(address pair, bool value) private {\n        require(\n            automatedMarketMakerPairs[pair] != value,\n            \"Automated market maker pair is already set to that value\"\n        );\n        automatedMarketMakerPairs[pair] = value;\n\n        if (value) {\n            dividendTracker.excludeFromDividends(pair);\n        }\n\n        emit SetAutomatedMarketMakerPair(pair, value);\n    }\n\n    //=======FeeManagement=======//\n    function excludeFromFees(\n        address account,\n        bool excluded\n    ) external onlyOwner {\n        require(\n            _isExcludedFromFees[account] != excluded,\n            \"Account is already the value of 'excluded'\"\n        );\n        _isExcludedFromFees[account] = excluded;\n\n        emit ExcludeFromFees(account, excluded);\n    }\n\n    function isExcludedFromFees(address account) public view returns (bool) {\n        return _isExcludedFromFees[account];\n    }\n\n    function updateBuyFees(\n        uint256 _liquidityFeeOnBuy,\n        uint256 _marketingFeeOnBuy,\n        uint256 _rewardFeeOnBuy,\n        uint256 _buybackFeeOnBuy,\n        uint256 _salaryFeeOnBuy,\n        uint256 _stakingFeeOnBuy\n    ) external onlyOwner {\n        require(\n            _liquidityFeeOnBuy +\n                _marketingFeeOnBuy +\n                _rewardFeeOnBuy +\n                _buybackFeeOnBuy +\n                _salaryFeeOnBuy +\n                _stakingFeeOnBuy <=\n                25,\n            \"Fees must be less than 25%\"\n        );\n        liquidityFeeOnBuy = _liquidityFeeOnBuy;\n        rewardFeeOnBuy = _rewardFeeOnBuy;\n        marketingFeeOnBuy = _marketingFeeOnBuy;\n        buybackFeeOnBuy = _buybackFeeOnBuy;\n        salaryFeeOnBuy = _salaryFeeOnBuy;\n        stakingFeeOnBuy = _stakingFeeOnBuy;\n\n        _totalFeesOnBuy =\n            liquidityFeeOnBuy +\n            marketingFeeOnBuy +\n            rewardFeeOnBuy +\n            buybackFeeOnBuy +\n            salaryFeeOnBuy +\n            stakingFeeOnBuy;\n        emit UpdateBuyFees(\n            _liquidityFeeOnBuy,\n            _marketingFeeOnBuy,\n            _rewardFeeOnBuy,\n            _buybackFeeOnBuy,\n            _salaryFeeOnBuy,\n            _stakingFeeOnBuy\n        );\n    }\n\n    function updateSellFees(\n        uint256 _liquidityFeeOnSell,\n        uint256 _marketingFeeOnSell,\n        uint256 _rewardFeeOnSell,\n        uint256 _buybackFeeOnSell,\n        uint256 _salaryFeeOnSell,\n        uint256 _stakingFeeOnSell\n    ) external onlyOwner {\n        require(\n            _liquidityFeeOnSell +\n                _marketingFeeOnSell +\n                _rewardFeeOnSell +\n                _buybackFeeOnSell +\n                _salaryFeeOnSell +\n                _stakingFeeOnSell <=\n                25,\n            \"Fees must be less than 25%\"\n        );\n        liquidityFeeOnSell = _liquidityFeeOnSell;\n        rewardFeeOnSell = _rewardFeeOnSell;\n        marketingFeeOnSell = _marketingFeeOnSell;\n        buybackFeeOnSell = _buybackFeeOnSell;\n        salaryFeeOnSell = _salaryFeeOnSell;\n        stakingFeeOnSell = _stakingFeeOnSell;\n        _totalFeesOnSell =\n            liquidityFeeOnSell +\n            marketingFeeOnSell +\n            rewardFeeOnSell +\n            buybackFeeOnSell +\n            salaryFeeOnSell +\n            stakingFeeOnSell;\n        emit UpdateSellFees(\n            _liquidityFeeOnSell,\n            _marketingFeeOnSell,\n            _rewardFeeOnSell,\n            _buybackFeeOnSell,\n            _salaryFeeOnSell,\n            _stakingFeeOnSell\n        );\n    }\n\n    function enableWalletToWalletTransferWithoutFee(\n        bool enable\n    ) external onlyOwner {\n        require(\n            walletToWalletTransferWithoutFee != enable,\n            \"Wallet to wallet transfer without fee is already set to that value\"\n        );\n        walletToWalletTransferWithoutFee = enable;\n    }\n\n    function changeMarketingWallet(\n        address _marketingWallet\n    ) external onlyOwner {\n        require(\n            _marketingWallet != marketingWallet,\n            \"Marketing wallet is already that address\"\n        );\n        require(\n            !isContract(_marketingWallet) || (marketingCurrency != address(0)),\n            \"Marketing wallet cannot be a contract when currency is BNB\"\n        );\n        marketingWallet = _marketingWallet;\n        emit MarketingWalletChanged(marketingWallet);\n    }\n\n    function changeBuybackWallet(address _buybackWallet) external onlyOwner {\n        require(\n            _buybackWallet != buybackWallet,\n            \"Buyback wallet is already that address\"\n        );\n        require(\n            !isContract(_buybackWallet) || (buybackCurrency != address(0)),\n            \"Buyback wallet cannot be a contract when currency is BNB\"\n        );\n        buybackWallet = _buybackWallet;\n        emit BuybackWalletChanged(buybackWallet);\n    }\n\n    function changeSalaryWallet(address _salaryWallet) external onlyOwner {\n        require(salaryFeeAvailable, \"Salary fee isn't available\");\n        require(\n            _salaryWallet != salaryWallet,\n            \"Salary wallet is already that address\"\n        );\n        require(\n            !isContract(_salaryWallet) || (salaryCurrency != address(0)),\n            \"Salary wallet cannot be a contract when currency is BNB\"\n        );\n        salaryWallet = _salaryWallet;\n        emit SalaryWalletChanged(salaryWallet);\n    }\n\n    function changeStakingWallet(address _stakingWallet) external onlyOwner {\n        require(stakingFeeAvailable, \"Staking fee isn't available\");\n        require(\n            _stakingWallet != stakingWallet,\n            \"Staking wallet is already that address\"\n        );\n        stakingWallet = _stakingWallet;\n        emit StakingWalletChanged(stakingWallet);\n    }\n\n    function swapAndSendFee(\n        uint256 amount,\n        address feeReceiver,\n        address currency\n    ) private {\n        address[] memory path = new address[](2);\n        path[0] = uniswapV2Router.WETH();\n        path[1] = currency;\n\n        uniswapV2Router.swapExactETHForTokensSupportingFeeOnTransferTokens{\n            value: amount\n        }(0, path, feeReceiver, block.timestamp);\n    }\n\n    function _transfer(\n        address from,\n        address to,\n        uint256 amount\n    ) internal override {\n        require(from != address(0), \"ERC20: transfer from the zero address\");\n        require(to != address(0), \"ERC20: transfer to the zero address\");\n\n        if (amount == 0) {\n            super._transfer(from, to, 0);\n            return;\n        }\n\n        if (maxTransactionLimitEnabled) {\n            if (\n                (from == uniswapV2Pair || to == uniswapV2Pair) &&\n                _isExcludedFromMaxTxLimit[from] == false &&\n                _isExcludedFromMaxTxLimit[to] == false\n            ) {\n                if (from == uniswapV2Pair) {\n                    require(\n                        amount <= maxTransactionAmountBuy,\n                        \"AntiWhale: Transfer amount exceeds the maxTransactionAmount\"\n                    );\n                } else {\n                    require(\n                        amount <= maxTransactionAmountSell,\n                        \"AntiWhale: Transfer amount exceeds the maxTransactionAmount\"\n                    );\n                }\n            }\n        }\n\n        uint256 contractTokenBalance = balanceOf(address(this));\n\n        bool canSwap = contractTokenBalance >= swapTokensAtAmount;\n\n        if (\n            swapEnabled &&\n            canSwap &&\n            !swapping &&\n            !automatedMarketMakerPairs[from] &&\n            _totalFeesOnBuy + _totalFeesOnSell > 0\n        ) {\n            swapping = true;\n\n            if (swapWithLimit) {\n                contractTokenBalance = swapTokensAtAmount;\n            }\n\n            uint256 totalFee = _totalFeesOnBuy + _totalFeesOnSell;\n            uint256 liquidityShare = liquidityFeeOnBuy + liquidityFeeOnSell;\n            uint256 marketingShare = marketingFeeOnBuy + marketingFeeOnSell;\n            uint256 rewardShare = rewardFeeOnBuy + rewardFeeOnSell;\n            uint256 buybackShare = buybackFeeOnBuy + buybackFeeOnSell;\n            uint256 salaryShare = salaryFeeOnBuy + salaryFeeOnSell;\n            uint256 stakingShare = stakingFeeOnBuy + stakingFeeOnSell;\n\n            uint256 liquidityTokens;\n            uint256 stakingTokens;\n\n            if (liquidityShare > 0) {\n                liquidityTokens =\n                    (contractTokenBalance * liquidityShare) /\n                    totalFee;\n                swapAndLiquify(liquidityTokens);\n            }\n\n            if (stakingShare > 0) {\n                stakingTokens =\n                    (contractTokenBalance * stakingShare) /\n                    totalFee;\n                super._transfer(address(this), stakingWallet, stakingTokens);\n                emit SendStaking(stakingTokens);\n            }\n\n            contractTokenBalance -= liquidityTokens + stakingTokens;\n            uint256 bnbShare = marketingShare +\n                rewardShare +\n                buybackShare +\n                salaryShare;\n\n            if (contractTokenBalance > 0 && bnbShare > 0) {\n                uint256 initialBalance = address(this).balance;\n\n                address[] memory path = new address[](2);\n                path[0] = address(this);\n                path[1] = uniswapV2Router.WETH();\n\n                uniswapV2Router\n                    .swapExactTokensForETHSupportingFeeOnTransferTokens(\n                        contractTokenBalance,\n                        0,\n                        path,\n                        address(this),\n                        block.timestamp\n                    );\n\n                uint256 newBalance = address(this).balance - initialBalance;\n\n                if (marketingShare > 0) {\n                    uint256 marketingBNB = (newBalance * marketingShare) /\n                        bnbShare;\n                    if (marketingCurrency == address(0)) {\n                        payable(marketingWallet).sendValue(marketingBNB);\n                    } else {\n                        swapAndSendFee(\n                            marketingBNB,\n                            marketingWallet,\n                            marketingCurrency\n                        );\n                    }\n\n                    emit SendMarketing(marketingBNB);\n                }\n\n                if (buybackShare > 0) {\n                    uint256 buybackBNB = (newBalance * buybackShare) / bnbShare;\n                    if (buybackCurrency == address(0)) {\n                        payable(buybackWallet).sendValue(buybackBNB);\n                    } else {\n                        swapAndSendFee(\n                            buybackBNB,\n                            buybackWallet,\n                            buybackCurrency\n                        );\n                    }\n                    emit SendBuyback(buybackBNB);\n                }\n\n                if (salaryShare > 0) {\n                    uint256 salaryBNB = (newBalance * salaryShare) / bnbShare;\n                    if (salaryCurrency == address(0)) {\n                        payable(salaryWallet).sendValue(salaryBNB);\n                    } else {\n                        swapAndSendFee(salaryBNB, salaryWallet, salaryCurrency);\n                    }\n                    emit SendSalary(salaryBNB);\n                }\n\n                if (rewardShare > 0) {\n                    uint256 rewardBNB = (newBalance * rewardShare) / bnbShare;\n                    swapAndSendDividends(rewardBNB);\n                }\n            }\n\n            swapping = false;\n        }\n\n        bool takeFee = !swapping;\n\n        if (_isExcludedFromFees[from] || _isExcludedFromFees[to]) {\n            takeFee = false;\n        }\n\n        if (\n            walletToWalletTransferWithoutFee &&\n            from != uniswapV2Pair &&\n            to != uniswapV2Pair\n        ) {\n            takeFee = false;\n        }\n\n        if (takeFee) {\n            uint256 _totalFees;\n            if (from == uniswapV2Pair) {\n                _totalFees = _totalFeesOnBuy;\n            } else {\n                _totalFees = _totalFeesOnSell;\n            }\n            uint256 fees = (amount * _totalFees) / 100;\n\n            amount = amount - fees;\n\n            super._transfer(from, address(this), fees);\n        }\n\n        if (maxWalletLimitEnabled) {\n            if (\n                _isExcludedFromMaxWalletLimit[from] == false &&\n                _isExcludedFromMaxWalletLimit[to] == false &&\n                to != uniswapV2Pair\n            ) {\n                uint balance = balanceOf(to);\n                require(\n                    balance + amount <= maxWalletAmount,\n                    \"MaxWallet: Recipient exceeds the maxWalletAmount\"\n                );\n            }\n        }\n\n        super._transfer(from, to, amount);\n\n        try\n            dividendTracker.setBalance(payable(from), balanceOf(from))\n        {} catch {}\n        try dividendTracker.setBalance(payable(to), balanceOf(to)) {} catch {}\n\n        if (!swapping) {\n            uint256 gas = gasForProcessing;\n\n            try dividendTracker.process(gas) returns (\n                uint256 iterations,\n                uint256 claims,\n                uint256 lastProcessedIndex\n            ) {\n                emit ProcessedDividendTracker(\n                    iterations,\n                    claims,\n                    lastProcessedIndex,\n                    true,\n                    gas,\n                    tx.origin\n                );\n            } catch {}\n        }\n    }\n\n    //=======Swap=======//\n    function setSwapEnabled(bool _swapEnabled) external onlyOwner {\n        require(\n            swapEnabled != _swapEnabled,\n            \"Swap is already set to that state\"\n        );\n        swapEnabled = _swapEnabled;\n    }\n\n    function setSwapTokensAtAmount(uint256 newAmount) external onlyOwner {\n        require(\n            newAmount > totalSupply() / 1_000_000,\n            \"New Amount must more than 0.0001% of total supply\"\n        );\n        swapTokensAtAmount = newAmount;\n    }\n\n    function setSwapWithLimit(bool _swapWithLimit) external onlyOwner {\n        require(\n            swapWithLimit != _swapWithLimit,\n            \"Swap with limit is already set to that state\"\n        );\n        swapWithLimit = _swapWithLimit;\n    }\n\n    function swapAndLiquify(uint256 tokens) private {\n        uint256 half = tokens / 2;\n        uint256 otherHalf = tokens - half;\n\n        uint256 initialBalance = address(this).balance;\n\n        address[] memory path = new address[](2);\n        path[0] = address(this);\n        path[1] = uniswapV2Router.WETH();\n\n        uniswapV2Router.swapExactTokensForETHSupportingFeeOnTransferTokens(\n            half,\n            0, // accept any amount of ETH\n            path,\n            address(this),\n            block.timestamp\n        );\n\n        uint256 newBalance = address(this).balance - initialBalance;\n\n        uniswapV2Router.addLiquidityETH{value: newBalance}(\n            address(this),\n            otherHalf,\n            0, // slippage is unavoidable\n            0, // slippage is unavoidable\n            DEAD,\n            block.timestamp\n        );\n\n        emit SwapAndLiquify(half, newBalance, otherHalf);\n    }\n\n    function swapAndSendDividends(uint256 amount) private {\n        address[] memory path = new address[](2);\n        path[0] = uniswapV2Router.WETH();\n        path[1] = rewardToken;\n\n        uniswapV2Router.swapExactETHForTokensSupportingFeeOnTransferTokens{\n            value: amount\n        }(0, path, address(this), block.timestamp);\n\n        uint256 balanceRewardToken = IERC20(rewardToken).balanceOf(\n            address(this)\n        );\n        bool success = IERC20(rewardToken).transfer(\n            address(dividendTracker),\n            balanceRewardToken\n        );\n\n        if (success) {\n            dividendTracker.distributeDividends(balanceRewardToken);\n            emit SendDividends(balanceRewardToken);\n        }\n    }\n\n    //=======MaxWallet=======//\n    mapping(address => bool) private _isExcludedFromMaxWalletLimit;\n    bool public maxWalletAvailable;\n    bool public maxWalletLimitEnabled;\n    uint256 public maxWalletAmount;\n\n    modifier _maxWalletAvailable() {\n        require(maxWalletAvailable, \"Max wallet limit is not available\");\n        _;\n    }\n\n    function setEnableMaxWalletLimit(\n        bool enable\n    ) external onlyOwner _maxWalletAvailable {\n        require(\n            enable != maxWalletLimitEnabled,\n            \"Max wallet limit is already set to that state\"\n        );\n        maxWalletLimitEnabled = enable;\n        emit MaxWalletLimitStateChanged(maxWalletLimitEnabled);\n    }\n\n    function setMaxWalletAmount(\n        uint256 _maxWalletAmount\n    ) external onlyOwner _maxWalletAvailable {\n        require(\n            _maxWalletAmount >= totalSupply() / (10 ** decimals()) / 100,\n            \"Max wallet percentage cannot be lower than 1%\"\n        );\n        maxWalletAmount = _maxWalletAmount;\n        emit MaxWalletLimitRateChanged(maxWalletAmount);\n    }\n\n    function setExcludeFromMaxWallet(\n        address account,\n        bool exclude\n    ) external onlyOwner _maxWalletAvailable {\n        require(\n            _isExcludedFromMaxWalletLimit[account] != exclude,\n            \"Account is already set to that state\"\n        );\n        _isExcludedFromMaxWalletLimit[account] = exclude;\n        emit ExcludedFromMaxWalletLimit(account, exclude);\n    }\n\n    function isExcludedFromMaxWalletLimit(\n        address account\n    ) public view returns (bool) {\n        return _isExcludedFromMaxWalletLimit[account];\n    }\n\n    //=======MaxTransaction=======//\n    mapping(address => bool) private _isExcludedFromMaxTxLimit;\n    bool public maxTransactionAvailable;\n    bool public maxTransactionLimitEnabled;\n    uint256 public maxTransactionAmountBuy;\n    uint256 public maxTransactionAmountSell;\n\n    modifier _maxTransactionAvailable() {\n        require(\n            maxTransactionAvailable,\n            \"Max transaction limit is not available\"\n        );\n        _;\n    }\n\n    function setEnableMaxTransactionLimit(\n        bool enable\n    ) external onlyOwner _maxTransactionAvailable {\n        require(\n            enable != maxTransactionLimitEnabled,\n            \"Max transaction limit is already set to that state\"\n        );\n        maxTransactionLimitEnabled = enable;\n        emit MaxTransactionLimitStateChanged(maxTransactionLimitEnabled);\n    }\n\n    function setMaxTransactionAmounts(\n        uint256 _maxTransactionAmountBuy,\n        uint256 _maxTransactionAmountSell\n    ) external onlyOwner _maxTransactionAvailable {\n        require(\n            _maxTransactionAmountBuy >=\n                totalSupply() / (10 ** decimals()) / 1000 &&\n                _maxTransactionAmountSell >=\n                totalSupply() / (10 ** decimals()) / 1000,\n            \"Max Transaction limis cannot be lower than 0.1% of total supply\"\n        );\n        maxTransactionAmountBuy = _maxTransactionAmountBuy * (10 ** decimals());\n        maxTransactionAmountSell =\n            _maxTransactionAmountSell *\n            (10 ** decimals());\n        emit MaxTransactionLimitRatesChanged(\n            maxTransactionAmountBuy,\n            maxTransactionAmountSell\n        );\n    }\n\n    function setExcludeFromMaxTransactionLimit(\n        address account,\n        bool exclude\n    ) external onlyOwner _maxTransactionAvailable {\n        require(\n            _isExcludedFromMaxTxLimit[account] != exclude,\n            \"Account is already set to that state\"\n        );\n        _isExcludedFromMaxTxLimit[account] = exclude;\n        emit ExcludedFromMaxTransactionLimit(account, exclude);\n    }\n\n    function isExcludedFromMaxTransaction(\n        address account\n    ) public view returns (bool) {\n        return _isExcludedFromMaxTxLimit[account];\n    }\n\n    //=======Dividend Tracker=======//\n    function updateDividendTracker(address newAddress) public onlyOwner {\n        require(\n            newAddress != address(dividendTracker),\n            \"The dividend tracker already has that address\"\n        );\n\n        DividendTracker newDividendTracker = DividendTracker(\n            payable(newAddress)\n        );\n\n        require(\n            newDividendTracker.owner() == address(this),\n            \"The new dividend tracker must be owned by the token contract\"\n        );\n\n        newDividendTracker.excludeFromDividends(address(newDividendTracker));\n        newDividendTracker.excludeFromDividends(address(this));\n        newDividendTracker.excludeFromDividends(DEAD);\n        newDividendTracker.excludeFromDividends(address(uniswapV2Router));\n        newDividendTracker.excludeFromDividends(address(uniswapV2Pair));\n\n        emit UpdateDividendTracker(newAddress, address(dividendTracker));\n\n        dividendTracker = newDividendTracker;\n    }\n\n    function updateGasForProcessing(uint256 newValue) public onlyOwner {\n        require(\n            newValue >= 200000 && newValue <= 500000,\n            \"gasForProcessing must be between 200,000 and 500,000\"\n        );\n        require(\n            newValue != gasForProcessing,\n            \"Cannot update gasForProcessing to same value\"\n        );\n        emit GasForProcessingUpdated(newValue, gasForProcessing);\n        gasForProcessing = newValue;\n    }\n\n    function updateMinimumBalanceForDividends(\n        uint256 newMinimumBalance\n    ) external onlyOwner {\n        dividendTracker.updateMinimumTokenBalanceForDividends(\n            newMinimumBalance\n        );\n    }\n\n    function updateClaimWait(uint256 claimWait) external onlyOwner {\n        dividendTracker.updateClaimWait(claimWait);\n    }\n\n    function getClaimWait() external view returns (uint256) {\n        return dividendTracker.claimWait();\n    }\n\n    function getTotalDividendsDistributed() external view returns (uint256) {\n        return dividendTracker.totalDividendsDistributed();\n    }\n\n    function withdrawableDividendOf(\n        address account\n    ) public view returns (uint256) {\n        return dividendTracker.withdrawableDividendOf(account);\n    }\n\n    function dividendTokenBalanceOf(\n        address account\n    ) public view returns (uint256) {\n        return dividendTracker.balanceOf(account);\n    }\n\n    function totalRewardsEarned(address account) public view returns (uint256) {\n        return dividendTracker.accumulativeDividendOf(account);\n    }\n\n    function excludeFromDividends(address account) external onlyOwner {\n        dividendTracker.excludeFromDividends(account);\n    }\n\n    function getAccountDividendsInfo(\n        address account\n    )\n        external\n        view\n        returns (\n            address,\n            int256,\n            int256,\n            uint256,\n            uint256,\n            uint256,\n            uint256,\n            uint256\n        )\n    {\n        return dividendTracker.getAccount(account);\n    }\n\n    function getAccountDividendsInfoAtIndex(\n        uint256 index\n    )\n        external\n        view\n        returns (\n            address,\n            int256,\n            int256,\n            uint256,\n            uint256,\n            uint256,\n            uint256,\n            uint256\n        )\n    {\n        return dividendTracker.getAccountAtIndex(index);\n    }\n\n    function processDividendTracker(uint256 gas) external {\n        (\n            uint256 iterations,\n            uint256 claims,\n            uint256 lastProcessedIndex\n        ) = dividendTracker.process(gas);\n        emit ProcessedDividendTracker(\n            iterations,\n            claims,\n            lastProcessedIndex,\n            false,\n            gas,\n            tx.origin\n        );\n    }\n\n    function claim() external {\n        dividendTracker.processAccount(payable(msg.sender), false);\n    }\n\n    function claimAddress(address claimee) external onlyOwner {\n        dividendTracker.processAccount(payable(claimee), false);\n    }\n\n    function getLastProcessedIndex() external view returns (uint256) {\n        return dividendTracker.getLastProcessedIndex();\n    }\n\n    function setLastProcessedIndex(uint256 index) external onlyOwner {\n        dividendTracker.setLastProcessedIndex(index);\n    }\n\n    function getNumberOfDividendTokenHolders() external view returns (uint256) {\n        return dividendTracker.getNumberOfTokenHolders();\n    }\n}",
  "sourcePath": "/Users/glenci/Xhype/src/XHype.sol",
  "compiler": {
    "name": "solc",
    "version": "0.8.19+commit.7dd6d404.Emscripten.clang"
  },
  "schemaVersion": "3.4.10",
  "updatedAt": "2023-05-08T16:30:19.996Z",
  "devdoc": {
    "events": {
      "Approval(address,address,uint256)": {
        "details": "Emitted when the allowance of a `spender` for an `owner` is set by a call to {approve}. `value` is the new allowance."
      },
      "Transfer(address,address,uint256)": {
        "details": "Emitted when `value` tokens are moved from one account (`from`) to another (`to`). Note that `value` may be zero."
      }
    },
    "kind": "dev",
    "methods": {
      "allowance(address,address)": {
        "details": "See {IERC20-allowance}."
      },
      "approve(address,uint256)": {
        "details": "See {IERC20-approve}. NOTE: If `amount` is the maximum `uint256`, the allowance is not updated on `transferFrom`. This is semantically equivalent to an infinite approval. Requirements: - `spender` cannot be the zero address."
      },
      "balanceOf(address)": {
        "details": "See {IERC20-balanceOf}."
      },
      "decimals()": {
        "details": "Returns the number of decimals used to get its user representation. For example, if `decimals` equals `2`, a balance of `505` tokens should be displayed to a user as `5.05` (`505 / 10 ** 2`). Tokens usually opt for a value of 18, imitating the relationship between Ether and Wei. This is the value {ERC20} uses, unless this function is overridden; NOTE: This information is only used for _display_ purposes: it in no way affects any of the arithmetic of the contract, including {IERC20-balanceOf} and {IERC20-transfer}."
      },
      "decreaseAllowance(address,uint256)": {
        "details": "Atomically decreases the allowance granted to `spender` by the caller. This is an alternative to {approve} that can be used as a mitigation for problems described in {IERC20-approve}. Emits an {Approval} event indicating the updated allowance. Requirements: - `spender` cannot be the zero address. - `spender` must have allowance for the caller of at least `subtractedValue`."
      },
      "increaseAllowance(address,uint256)": {
        "details": "Atomically increases the allowance granted to `spender` by the caller. This is an alternative to {approve} that can be used as a mitigation for problems described in {IERC20-approve}. Emits an {Approval} event indicating the updated allowance. Requirements: - `spender` cannot be the zero address."
      },
      "name()": {
        "details": "Returns the name of the token."
      },
      "owner()": {
        "details": "Returns the address of the current owner."
      },
      "renounceOwnership()": {
        "details": "Leaves the contract without owner. It will not be possible to call `onlyOwner` functions anymore. Can only be called by the current owner. NOTE: Renouncing ownership will leave the contract without an owner, thereby removing any functionality that is only available to the owner."
      },
      "symbol()": {
        "details": "Returns the symbol of the token, usually a shorter version of the name."
      },
      "totalSupply()": {
        "details": "See {IERC20-totalSupply}."
      },
      "transfer(address,uint256)": {
        "details": "See {IERC20-transfer}. Requirements: - `to` cannot be the zero address. - the caller must have a balance of at least `amount`."
      },
      "transferFrom(address,address,uint256)": {
        "details": "See {IERC20-transferFrom}. Emits an {Approval} event indicating the updated allowance. This is not required by the EIP. See the note at the beginning of {ERC20}. NOTE: Does not update the allowance if the current allowance is the maximum `uint256`. Requirements: - `from` and `to` cannot be the zero address. - `from` must have a balance of at least `amount`. - the caller must have allowance for ``from``'s tokens of at least `amount`."
      },
      "transferOwnership(address)": {
        "details": "Transfers ownership of the contract to a new account (`newOwner`). Can only be called by the current owner."
      }
    },
    "version": 1
  },
  "userdoc": {
    "kind": "user",
    "methods": {},
    "version": 1
  }
}