{
  "contractName": "XhypeV2",
  "abi": [
    {
      "inputs": [
        {
          "internalType": "address",
          "name": "_rewardToken",
          "type": "address"
        },
        {
          "internalType": "address",
          "name": "router",
          "type": "address"
        }
      ],
      "stateMutability": "payable",
      "type": "constructor"
    },
    {
      "anonymous": false,
      "inputs": [
        {
          "indexed": true,
          "internalType": "address",
          "name": "owner",
          "type": "address"
        },
        {
          "indexed": true,
          "internalType": "address",
          "name": "spender",
          "type": "address"
        },
        {
          "indexed": false,
          "internalType": "uint256",
          "name": "value",
          "type": "uint256"
        }
      ],
      "name": "Approval",
      "type": "event"
    },
    {
      "anonymous": false,
      "inputs": [
        {
          "indexed": true,
          "internalType": "address",
          "name": "by",
          "type": "address"
        },
        {
          "indexed": false,
          "internalType": "uint256",
          "name": "dividendsDistributed",
          "type": "uint256"
        }
      ],
      "name": "DividendsDistributed",
      "type": "event"
    },
    {
      "anonymous": false,
      "inputs": [
        {
          "indexed": true,
          "internalType": "address",
          "name": "by",
          "type": "address"
        },
        {
          "indexed": false,
          "internalType": "uint256",
          "name": "fundsWithdrawn",
          "type": "uint256"
        }
      ],
      "name": "DividendsWithdrawn",
      "type": "event"
    },
    {
      "anonymous": false,
      "inputs": [
        {
          "indexed": true,
          "internalType": "address",
          "name": "account",
          "type": "address"
        },
        {
          "indexed": false,
          "internalType": "bool",
          "name": "isExcluded",
          "type": "bool"
        }
      ],
      "name": "ExcludeFromDividends",
      "type": "event"
    },
    {
      "anonymous": false,
      "inputs": [
        {
          "indexed": true,
          "internalType": "address",
          "name": "account",
          "type": "address"
        },
        {
          "indexed": false,
          "internalType": "bool",
          "name": "isExcluded",
          "type": "bool"
        }
      ],
      "name": "ExcludeFromFees",
      "type": "event"
    },
    {
      "anonymous": false,
      "inputs": [
        {
          "indexed": true,
          "internalType": "address",
          "name": "previousOwner",
          "type": "address"
        },
        {
          "indexed": true,
          "internalType": "address",
          "name": "newOwner",
          "type": "address"
        }
      ],
      "name": "OwnershipTransferred",
      "type": "event"
    },
    {
      "anonymous": false,
      "inputs": [
        {
          "indexed": false,
          "internalType": "uint256",
          "name": "amount",
          "type": "uint256"
        }
      ],
      "name": "SendDividends",
      "type": "event"
    },
    {
      "anonymous": false,
      "inputs": [
        {
          "indexed": true,
          "internalType": "address",
          "name": "from",
          "type": "address"
        },
        {
          "indexed": true,
          "internalType": "address",
          "name": "to",
          "type": "address"
        },
        {
          "indexed": false,
          "internalType": "uint256",
          "name": "value",
          "type": "uint256"
        }
      ],
      "name": "Transfer",
      "type": "event"
    },
    {
      "anonymous": false,
      "inputs": [
        {
          "indexed": false,
          "internalType": "uint256",
          "name": "buyFee",
          "type": "uint256"
        }
      ],
      "name": "UpdateBuyFee",
      "type": "event"
    },
    {
      "anonymous": false,
      "inputs": [
        {
          "indexed": false,
          "internalType": "uint256",
          "name": "sellFee",
          "type": "uint256"
        }
      ],
      "name": "UpdateSellFee",
      "type": "event"
    },
    {
      "anonymous": false,
      "inputs": [
        {
          "indexed": true,
          "internalType": "address",
          "name": "newAddress",
          "type": "address"
        },
        {
          "indexed": true,
          "internalType": "address",
          "name": "oldAddress",
          "type": "address"
        }
      ],
      "name": "UpdateUniswapV2Router",
      "type": "event"
    },
    {
      "inputs": [
        {
          "internalType": "address",
          "name": "owner",
          "type": "address"
        },
        {
          "internalType": "address",
          "name": "spender",
          "type": "address"
        }
      ],
      "name": "allowance",
      "outputs": [
        {
          "internalType": "uint256",
          "name": "",
          "type": "uint256"
        }
      ],
      "stateMutability": "view",
      "type": "function"
    },
    {
      "inputs": [
        {
          "internalType": "address",
          "name": "spender",
          "type": "address"
        },
        {
          "internalType": "uint256",
          "name": "amount",
          "type": "uint256"
        }
      ],
      "name": "approve",
      "outputs": [
        {
          "internalType": "bool",
          "name": "",
          "type": "bool"
        }
      ],
      "stateMutability": "nonpayable",
      "type": "function"
    },
    {
      "inputs": [
        {
          "internalType": "address",
          "name": "account",
          "type": "address"
        }
      ],
      "name": "balanceOf",
      "outputs": [
        {
          "internalType": "uint256",
          "name": "",
          "type": "uint256"
        }
      ],
      "stateMutability": "view",
      "type": "function"
    },
    {
      "inputs": [],
      "name": "buyFee",
      "outputs": [
        {
          "internalType": "uint256",
          "name": "",
          "type": "uint256"
        }
      ],
      "stateMutability": "view",
      "type": "function"
    },
    {
      "inputs": [
        {
          "internalType": "address",
          "name": "account",
          "type": "address"
        }
      ],
      "name": "cumulativeDividendsOf",
      "outputs": [
        {
          "internalType": "uint256",
          "name": "",
          "type": "uint256"
        }
      ],
      "stateMutability": "view",
      "type": "function"
    },
    {
      "inputs": [],
      "name": "decimals",
      "outputs": [
        {
          "internalType": "uint8",
          "name": "",
          "type": "uint8"
        }
      ],
      "stateMutability": "view",
      "type": "function"
    },
    {
      "inputs": [
        {
          "internalType": "address",
          "name": "spender",
          "type": "address"
        },
        {
          "internalType": "uint256",
          "name": "subtractedValue",
          "type": "uint256"
        }
      ],
      "name": "decreaseAllowance",
      "outputs": [
        {
          "internalType": "bool",
          "name": "",
          "type": "bool"
        }
      ],
      "stateMutability": "nonpayable",
      "type": "function"
    },
    {
      "inputs": [
        {
          "internalType": "address",
          "name": "spender",
          "type": "address"
        },
        {
          "internalType": "uint256",
          "name": "addedValue",
          "type": "uint256"
        }
      ],
      "name": "increaseAllowance",
      "outputs": [
        {
          "internalType": "bool",
          "name": "",
          "type": "bool"
        }
      ],
      "stateMutability": "nonpayable",
      "type": "function"
    },
    {
      "inputs": [],
      "name": "minBalanceForDividends",
      "outputs": [
        {
          "internalType": "uint256",
          "name": "",
          "type": "uint256"
        }
      ],
      "stateMutability": "view",
      "type": "function"
    },
    {
      "inputs": [],
      "name": "name",
      "outputs": [
        {
          "internalType": "string",
          "name": "",
          "type": "string"
        }
      ],
      "stateMutability": "view",
      "type": "function"
    },
    {
      "inputs": [],
      "name": "owner",
      "outputs": [
        {
          "internalType": "address",
          "name": "",
          "type": "address"
        }
      ],
      "stateMutability": "view",
      "type": "function"
    },
    {
      "inputs": [],
      "name": "pointsPerShare",
      "outputs": [
        {
          "internalType": "uint256",
          "name": "",
          "type": "uint256"
        }
      ],
      "stateMutability": "view",
      "type": "function"
    },
    {
      "inputs": [
        {
          "internalType": "address",
          "name": "",
          "type": "address"
        }
      ],
      "name": "previousSale",
      "outputs": [
        {
          "internalType": "uint256",
          "name": "",
          "type": "uint256"
        }
      ],
      "stateMutability": "view",
      "type": "function"
    },
    {
      "inputs": [],
      "name": "renounceOwnership",
      "outputs": [],
      "stateMutability": "nonpayable",
      "type": "function"
    },
    {
      "inputs": [],
      "name": "rewardToken",
      "outputs": [
        {
          "internalType": "address",
          "name": "",
          "type": "address"
        }
      ],
      "stateMutability": "view",
      "type": "function"
    },
    {
      "inputs": [],
      "name": "sellFee",
      "outputs": [
        {
          "internalType": "uint256",
          "name": "",
          "type": "uint256"
        }
      ],
      "stateMutability": "view",
      "type": "function"
    },
    {
      "inputs": [],
      "name": "swapEnabled",
      "outputs": [
        {
          "internalType": "bool",
          "name": "",
          "type": "bool"
        }
      ],
      "stateMutability": "view",
      "type": "function"
    },
    {
      "inputs": [],
      "name": "swapTokensAtAmount",
      "outputs": [
        {
          "internalType": "uint256",
          "name": "",
          "type": "uint256"
        }
      ],
      "stateMutability": "view",
      "type": "function"
    },
    {
      "inputs": [],
      "name": "symbol",
      "outputs": [
        {
          "internalType": "string",
          "name": "",
          "type": "string"
        }
      ],
      "stateMutability": "view",
      "type": "function"
    },
    {
      "inputs": [
        {
          "internalType": "address",
          "name": "to",
          "type": "address"
        },
        {
          "internalType": "uint256",
          "name": "amount",
          "type": "uint256"
        }
      ],
      "name": "transfer",
      "outputs": [
        {
          "internalType": "bool",
          "name": "",
          "type": "bool"
        }
      ],
      "stateMutability": "nonpayable",
      "type": "function"
    },
    {
      "inputs": [
        {
          "internalType": "address",
          "name": "from",
          "type": "address"
        },
        {
          "internalType": "address",
          "name": "to",
          "type": "address"
        },
        {
          "internalType": "uint256",
          "name": "amount",
          "type": "uint256"
        }
      ],
      "name": "transferFrom",
      "outputs": [
        {
          "internalType": "bool",
          "name": "",
          "type": "bool"
        }
      ],
      "stateMutability": "nonpayable",
      "type": "function"
    },
    {
      "inputs": [
        {
          "internalType": "address",
          "name": "newOwner",
          "type": "address"
        }
      ],
      "name": "transferOwnership",
      "outputs": [],
      "stateMutability": "nonpayable",
      "type": "function"
    },
    {
      "inputs": [],
      "name": "uniswapV2Pair",
      "outputs": [
        {
          "internalType": "address",
          "name": "",
          "type": "address"
        }
      ],
      "stateMutability": "view",
      "type": "function"
    },
    {
      "inputs": [],
      "name": "uniswapV2Router",
      "outputs": [
        {
          "internalType": "contract IUniswapV2Router02",
          "name": "",
          "type": "address"
        }
      ],
      "stateMutability": "view",
      "type": "function"
    },
    {
      "inputs": [
        {
          "internalType": "address",
          "name": "",
          "type": "address"
        }
      ],
      "name": "vestedWalletsWithdrawn",
      "outputs": [
        {
          "internalType": "uint256",
          "name": "",
          "type": "uint256"
        }
      ],
      "stateMutability": "view",
      "type": "function"
    },
    {
      "inputs": [
        {
          "internalType": "address",
          "name": "account",
          "type": "address"
        }
      ],
      "name": "withdrawableDividendsOf",
      "outputs": [
        {
          "internalType": "uint256",
          "name": "",
          "type": "uint256"
        }
      ],
      "stateMutability": "view",
      "type": "function"
    },
    {
      "inputs": [
        {
          "internalType": "address",
          "name": "account",
          "type": "address"
        }
      ],
      "name": "withdrawnDividendsOf",
      "outputs": [
        {
          "internalType": "uint256",
          "name": "",
          "type": "uint256"
        }
      ],
      "stateMutability": "view",
      "type": "function"
    },
    {
      "stateMutability": "payable",
      "type": "receive"
    },
    {
      "inputs": [],
      "name": "totalSupply",
      "outputs": [
        {
          "internalType": "uint256",
          "name": "",
          "type": "uint256"
        }
      ],
      "stateMutability": "view",
      "type": "function"
    },
    {
      "inputs": [
        {
          "internalType": "address",
          "name": "_user",
          "type": "address"
        }
      ],
      "name": "getSharesOf",
      "outputs": [
        {
          "internalType": "uint256",
          "name": "",
          "type": "uint256"
        }
      ],
      "stateMutability": "view",
      "type": "function"
    },
    {
      "inputs": [],
      "name": "totalShareableSupply",
      "outputs": [
        {
          "internalType": "uint256",
          "name": "",
          "type": "uint256"
        }
      ],
      "stateMutability": "view",
      "type": "function"
    },
    {
      "inputs": [
        {
          "internalType": "address",
          "name": "newAddress",
          "type": "address"
        }
      ],
      "name": "updateUniswapV2Router",
      "outputs": [],
      "stateMutability": "nonpayable",
      "type": "function"
    },
    {
      "inputs": [
        {
          "internalType": "uint256",
          "name": "amount",
          "type": "uint256"
        }
      ],
      "name": "setMinBalanceForDividends",
      "outputs": [],
      "stateMutability": "nonpayable",
      "type": "function"
    },
    {
      "inputs": [
        {
          "internalType": "uint256",
          "name": "_startDate",
          "type": "uint256"
        }
      ],
      "name": "setStartDate",
      "outputs": [],
      "stateMutability": "nonpayable",
      "type": "function"
    },
    {
      "inputs": [],
      "name": "startNukingTheWhales",
      "outputs": [],
      "stateMutability": "nonpayable",
      "type": "function"
    },
    {
      "inputs": [
        {
          "internalType": "address",
          "name": "account",
          "type": "address"
        },
        {
          "internalType": "bool",
          "name": "excluded",
          "type": "bool"
        }
      ],
      "name": "excludeFromFees",
      "outputs": [],
      "stateMutability": "nonpayable",
      "type": "function"
    },
    {
      "inputs": [
        {
          "internalType": "address",
          "name": "account",
          "type": "address"
        }
      ],
      "name": "isExcludedFromFees",
      "outputs": [
        {
          "internalType": "bool",
          "name": "",
          "type": "bool"
        }
      ],
      "stateMutability": "view",
      "type": "function"
    },
    {
      "inputs": [
        {
          "internalType": "uint256",
          "name": "_newFee",
          "type": "uint256"
        }
      ],
      "name": "updateBuyFee",
      "outputs": [],
      "stateMutability": "nonpayable",
      "type": "function"
    },
    {
      "inputs": [
        {
          "internalType": "uint256",
          "name": "_newFee",
          "type": "uint256"
        }
      ],
      "name": "updateSellFees",
      "outputs": [],
      "stateMutability": "nonpayable",
      "type": "function"
    },
    {
      "inputs": [
        {
          "internalType": "address",
          "name": "account",
          "type": "address"
        }
      ],
      "name": "excludeFromDividends",
      "outputs": [],
      "stateMutability": "nonpayable",
      "type": "function"
    },
    {
      "inputs": [
        {
          "internalType": "address",
          "name": "account",
          "type": "address"
        }
      ],
      "name": "includeInDividends",
      "outputs": [],
      "stateMutability": "nonpayable",
      "type": "function"
    },
    {
      "inputs": [],
      "name": "toggleSwapEnabled",
      "outputs": [],
      "stateMutability": "nonpayable",
      "type": "function"
    },
    {
      "inputs": [
        {
          "internalType": "uint256",
          "name": "newAmount",
          "type": "uint256"
        }
      ],
      "name": "setSwapTokensAtAmount",
      "outputs": [],
      "stateMutability": "nonpayable",
      "type": "function"
    },
    {
      "inputs": [
        {
          "internalType": "address",
          "name": "account",
          "type": "address"
        },
        {
          "internalType": "uint256",
          "name": "amount",
          "type": "uint256"
        },
        {
          "internalType": "uint256",
          "name": "vestingTime",
          "type": "uint256"
        },
        {
          "internalType": "bool",
          "name": "sixMonthLock",
          "type": "bool"
        }
      ],
      "name": "setVestedWallet",
      "outputs": [],
      "stateMutability": "nonpayable",
      "type": "function"
    },
    {
      "inputs": [
        {
          "internalType": "address",
          "name": "wallet",
          "type": "address"
        }
      ],
      "name": "getVestedWalletWithdrawn",
      "outputs": [
        {
          "internalType": "uint256",
          "name": "",
          "type": "uint256"
        }
      ],
      "stateMutability": "view",
      "type": "function"
    },
    {
      "inputs": [
        {
          "internalType": "uint256",
          "name": "totalVestedAmount",
          "type": "uint256"
        },
        {
          "internalType": "uint256",
          "name": "vestingTime",
          "type": "uint256"
        },
        {
          "internalType": "bool",
          "name": "sixMonthLocked",
          "type": "bool"
        }
      ],
      "name": "getUnvestedAmount",
      "outputs": [
        {
          "internalType": "uint256",
          "name": "",
          "type": "uint256"
        }
      ],
      "stateMutability": "view",
      "type": "function"
    },
    {
      "inputs": [],
      "name": "withdrawDividends",
      "outputs": [],
      "stateMutability": "nonpayable",
      "type": "function"
    },
    {
      "inputs": [
        {
          "internalType": "address",
          "name": "receiver",
          "type": "address"
        }
      ],
      "name": "withdrawBalance",
      "outputs": [],
      "stateMutability": "nonpayable",
      "type": "function"
    },
    {
      "inputs": [
        {
          "internalType": "address",
          "name": "token",
          "type": "address"
        }
      ],
      "name": "claimStuckTokens",
      "outputs": [],
      "stateMutability": "nonpayable",
      "type": "function"
    }
  ],
  "bytecode": "0x60e060405260056009556008600a556b033b2e3c9fd0803ce8000000600b5561dead600c60006101000a81548173ffffffffffffffffffffffffffffffffffffffff021916908373ffffffffffffffffffffffffffffffffffffffff160217905550683635c9adc5dea000006011556000601c60006101000a81548160ff02191690831515021790555060405162008299380380620082998339818101604052810190620000ae919062001bc3565b6200109660201b620021ac176200113260201b62001ffe176040518060400160405280600581526020017f58487970650000000000000000000000000000000000000000000000000000008152506040518060400160405280600381526020017f5848500000000000000000000000000000000000000000000000000000000000815250816003908162000143919062001e84565b50806004908162000155919062001e84565b5050508167ffffffffffffffff1660808167ffffffffffffffff16815250508067ffffffffffffffff1660a08167ffffffffffffffff16815250505050620001b2620001a6620011e160201b60201c565b620011e960201b60201c565b8173ffffffffffffffffffffffffffffffffffffffff1660c08173ffffffffffffffffffffffffffffffffffffffff1681525050600081905060008173ffffffffffffffffffffffffffffffffffffffff1663c45a01556040518163ffffffff1660e01b8152600401602060405180830381865afa15801562000239573d6000803e3d6000fd5b505050506040513d601f19601f820116820180604052508101906200025f919062001f6b565b73ffffffffffffffffffffffffffffffffffffffff1663c9c65396308473ffffffffffffffffffffffffffffffffffffffff1663ad5c46486040518163ffffffff1660e01b8152600401602060405180830381865afa158015620002c7573d6000803e3d6000fd5b505050506040513d601f19601f82011682018060405250810190620002ed919062001f6b565b6040518363ffffffff1660e01b81526004016200030c92919062001fae565b6020604051808303816000875af11580156200032c573d6000803e3d6000fd5b505050506040513d601f19601f8201168201806040525081019062000352919062001f6b565b905081600d60006101000a81548173ffffffffffffffffffffffffffffffffffffffff021916908373ffffffffffffffffffffffffffffffffffffffff16021790555080600e60006101000a81548173ffffffffffffffffffffffffffffffffffffffff021916908373ffffffffffffffffffffffffffffffffffffffff160217905550600160136000620003ec620012af60201b60201c565b73ffffffffffffffffffffffffffffffffffffffff1673ffffffffffffffffffffffffffffffffffffffff16815260200190815260200160002060006101000a81548160ff02191690831515021790555060146200044f620012af60201b60201c565b9080600181540180825580915050600190039060005260206000200160009091909190916101000a81548173ffffffffffffffffffffffffffffffffffffffff021916908373ffffffffffffffffffffffffffffffffffffffff1602179055506001601360003073ffffffffffffffffffffffffffffffffffffffff1673ffffffffffffffffffffffffffffffffffffffff16815260200190815260200160002060006101000a81548160ff0219169083151502179055506014309080600181540180825580915050600190039060005260206000200160009091909190916101000a81548173ffffffffffffffffffffffffffffffffffffffff021916908373ffffffffffffffffffffffffffffffffffffffff160217905550600160136000600c60009054906101000a900473ffffffffffffffffffffffffffffffffffffffff1673ffffffffffffffffffffffffffffffffffffffff1673ffffffffffffffffffffffffffffffffffffffff16815260200190815260200160002060006101000a81548160ff0219169083151502179055506014600c60009054906101000a900473ffffffffffffffffffffffffffffffffffffffff169080600181540180825580915050600190039060005260206000200160009091909190916101000a81548173ffffffffffffffffffffffffffffffffffffffff021916908373ffffffffffffffffffffffffffffffffffffffff1602179055506001601360008373ffffffffffffffffffffffffffffffffffffffff1673ffffffffffffffffffffffffffffffffffffffff16815260200190815260200160002060006101000a81548160ff0219169083151502179055506014819080600181540180825580915050600190039060005260206000200160009091909190916101000a81548173ffffffffffffffffffffffffffffffffffffffff021916908373ffffffffffffffffffffffffffffffffffffffff1602179055506001601360008473ffffffffffffffffffffffffffffffffffffffff1673ffffffffffffffffffffffffffffffffffffffff16815260200190815260200160002060006101000a81548160ff0219169083151502179055506014829080600181540180825580915050600190039060005260206000200160009091909190916101000a81548173ffffffffffffffffffffffffffffffffffffffff021916908373ffffffffffffffffffffffffffffffffffffffff160217905550600160136000734aeb644a9a035e5e0b354ea4b463d1c0e8e79cf973ffffffffffffffffffffffffffffffffffffffff1673ffffffffffffffffffffffffffffffffffffffff16815260200190815260200160002060006101000a81548160ff0219169083151502179055506014734aeb644a9a035e5e0b354ea4b463d1c0e8e79cf99080600181540180825580915050600190039060005260206000200160009091909190916101000a81548173ffffffffffffffffffffffffffffffffffffffff021916908373ffffffffffffffffffffffffffffffffffffffff160217905550600160136000733ab47f80a046d2a4d92a5c229fe93fa6708aeb1373ffffffffffffffffffffffffffffffffffffffff1673ffffffffffffffffffffffffffffffffffffffff16815260200190815260200160002060006101000a81548160ff0219169083151502179055506014733ab47f80a046d2a4d92a5c229fe93fa6708aeb139080600181540180825580915050600190039060005260206000200160009091909190916101000a81548173ffffffffffffffffffffffffffffffffffffffff021916908373ffffffffffffffffffffffffffffffffffffffff160217905550600160136000731767c992c70ab29fbe9194f4d8160c373b6d7ed873ffffffffffffffffffffffffffffffffffffffff1673ffffffffffffffffffffffffffffffffffffffff16815260200190815260200160002060006101000a81548160ff0219169083151502179055506014731767c992c70ab29fbe9194f4d8160c373b6d7ed89080600181540180825580915050600190039060005260206000200160009091909190916101000a81548173ffffffffffffffffffffffffffffffffffffffff021916908373ffffffffffffffffffffffffffffffffffffffff16021790555060016013600073e24bfb419f5c0eda8660d53452212cf0c87e415173ffffffffffffffffffffffffffffffffffffffff1673ffffffffffffffffffffffffffffffffffffffff16815260200190815260200160002060006101000a81548160ff021916908315150217905550601473e24bfb419f5c0eda8660d53452212cf0c87e41519080600181540180825580915050600190039060005260206000200160009091909190916101000a81548173ffffffffffffffffffffffffffffffffffffffff021916908373ffffffffffffffffffffffffffffffffffffffff16021790555060016013600073f949709f80dec4d9e2420c0e6a98081f13fff36873ffffffffffffffffffffffffffffffffffffffff1673ffffffffffffffffffffffffffffffffffffffff16815260200190815260200160002060006101000a81548160ff021916908315150217905550601473f949709f80dec4d9e2420c0e6a98081f13fff3689080600181540180825580915050600190039060005260206000200160009091909190916101000a81548173ffffffffffffffffffffffffffffffffffffffff021916908373ffffffffffffffffffffffffffffffffffffffff160217905550600160136000739dbe36b089451aaeff495824bb507ed0902f564473ffffffffffffffffffffffffffffffffffffffff1673ffffffffffffffffffffffffffffffffffffffff16815260200190815260200160002060006101000a81548160ff0219169083151502179055506014739dbe36b089451aaeff495824bb507ed0902f56449080600181540180825580915050600190039060005260206000200160009091909190916101000a81548173ffffffffffffffffffffffffffffffffffffffff021916908373ffffffffffffffffffffffffffffffffffffffff16021790555060016013600073ad064a0827214234e228b9213af52e5e6457e4c073ffffffffffffffffffffffffffffffffffffffff1673ffffffffffffffffffffffffffffffffffffffff16815260200190815260200160002060006101000a81548160ff021916908315150217905550601473ad064a0827214234e228b9213af52e5e6457e4c09080600181540180825580915050600190039060005260206000200160009091909190916101000a81548173ffffffffffffffffffffffffffffffffffffffff021916908373ffffffffffffffffffffffffffffffffffffffff160217905550600160136000734f931e269402cfa2cb998ef3402c7897da7bd1db73ffffffffffffffffffffffffffffffffffffffff1673ffffffffffffffffffffffffffffffffffffffff16815260200190815260200160002060006101000a81548160ff0219169083151502179055506014734f931e269402cfa2cb998ef3402c7897da7bd1db9080600181540180825580915050600190039060005260206000200160009091909190916101000a81548173ffffffffffffffffffffffffffffffffffffffff021916908373ffffffffffffffffffffffffffffffffffffffff16021790555060016015600062000f0d620012af60201b60201c565b73ffffffffffffffffffffffffffffffffffffffff1673ffffffffffffffffffffffffffffffffffffffff16815260200190815260200160002060006101000a81548160ff0219169083151502179055506001601560003073ffffffffffffffffffffffffffffffffffffffff1673ffffffffffffffffffffffffffffffffffffffff16815260200190815260200160002060006101000a81548160ff021916908315150217905550600160156000600c60009054906101000a900473ffffffffffffffffffffffffffffffffffffffff1673ffffffffffffffffffffffffffffffffffffffff1673ffffffffffffffffffffffffffffffffffffffff16815260200190815260200160002060006101000a81548160ff0219169083151502179055506001601060006101000a81548160ff02191690831515021790555069021e19e0c9bab2400000600f819055506200108c62001070620012af60201b60201c565b62001080620012d960201b60201c565b620012e360201b60201c565b50505050620023db565b6000601360008373ffffffffffffffffffffffffffffffffffffffff1673ffffffffffffffffffffffffffffffffffffffff16815260200190815260200160002060009054906101000a900460ff1615620010f557600090506200112d565b60115462001109836200145060201b60201c565b1015620011185760006200112a565b62001129826200145060201b60201c565b5b90505b919050565b60008060005b601480549050811015620011bd57620011986014828154811062001161576200116062001fdb565b5b9060005260206000200160009054906101000a900473ffffffffffffffffffffffffffffffffffffffff166200145060201b60201c565b82620011a5919062002039565b91508080620011b49062002074565b91505062001138565b5080620011cf620012d960201b60201c565b620011db9190620020c1565b91505090565b600033905090565b6000600860009054906101000a900473ffffffffffffffffffffffffffffffffffffffff16905081600860006101000a81548173ffffffffffffffffffffffffffffffffffffffff021916908373ffffffffffffffffffffffffffffffffffffffff1602179055508173ffffffffffffffffffffffffffffffffffffffff168173ffffffffffffffffffffffffffffffffffffffff167f8be0079c531659141344cd1fd0a4f28419497f9722a3daafe3b4186f6b6457e060405160405180910390a35050565b6000600860009054906101000a900473ffffffffffffffffffffffffffffffffffffffff16905090565b6000600b54905090565b600073ffffffffffffffffffffffffffffffffffffffff168273ffffffffffffffffffffffffffffffffffffffff160362001355576040517f08c379a00000000000000000000000000000000000000000000000000000000081526004016200134c906200215d565b60405180910390fd5b62001369600083836200149860201b60201c565b80600260008282546200137d919062002039565b92505081905550806000808473ffffffffffffffffffffffffffffffffffffffff1673ffffffffffffffffffffffffffffffffffffffff168152602001908152602001600020600082825401925050819055508173ffffffffffffffffffffffffffffffffffffffff16600073ffffffffffffffffffffffffffffffffffffffff167fddf252ad1be2c89b69c2b068fc378daa952ba7f163c4a11628f55a4df523b3ef8360405162001430919062002190565b60405180910390a36200144c60008383620019dd60201b60201c565b5050565b60008060008373ffffffffffffffffffffffffffffffffffffffff1673ffffffffffffffffffffffffffffffffffffffff168152602001908152602001600020549050919050565b601960008473ffffffffffffffffffffffffffffffffffffffff1673ffffffffffffffffffffffffffffffffffffffff16815260200190815260200160002060009054906101000a900460ff1615620015445762ed4e00601254620014fe919062002039565b42101562001543576040517f08c379a00000000000000000000000000000000000000000000000000000000081526004016200153a90620021fd565b60405180910390fd5b5b6000601860008573ffffffffffffffffffffffffffffffffffffffff1673ffffffffffffffffffffffffffffffffffffffff168152602001908152602001600020541115620016cc57600062001631601860008673ffffffffffffffffffffffffffffffffffffffff1673ffffffffffffffffffffffffffffffffffffffff168152602001908152602001600020546303c26700601960008873ffffffffffffffffffffffffffffffffffffffff1673ffffffffffffffffffffffffffffffffffffffff16815260200190815260200160002060009054906101000a900460ff1662001a8e60201b60201c565b9050601b60008573ffffffffffffffffffffffffffffffffffffffff1673ffffffffffffffffffffffffffffffffffffffff1681526020019081526020016000205481620016809190620020c1565b821115620016c5576040517f08c379a0000000000000000000000000000000000000000000000000000000008152600401620016bc9062002295565b60405180910390fd5b50620019d8565b6000601760008573ffffffffffffffffffffffffffffffffffffffff1673ffffffffffffffffffffffffffffffffffffffff16815260200190815260200160002054111562001854576000620017b9601760008673ffffffffffffffffffffffffffffffffffffffff1673ffffffffffffffffffffffffffffffffffffffff168152602001908152602001600020546301e13380601960008873ffffffffffffffffffffffffffffffffffffffff1673ffffffffffffffffffffffffffffffffffffffff16815260200190815260200160002060009054906101000a900460ff1662001a8e60201b60201c565b9050601b60008573ffffffffffffffffffffffffffffffffffffffff1673ffffffffffffffffffffffffffffffffffffffff1681526020019081526020016000205481620018089190620020c1565b8211156200184d576040517f08c379a0000000000000000000000000000000000000000000000000000000008152600401620018449062002295565b60405180910390fd5b50620019d7565b6000601660008573ffffffffffffffffffffffffffffffffffffffff1673ffffffffffffffffffffffffffffffffffffffff168152602001908152602001600020541115620019d657600062001940601660008673ffffffffffffffffffffffffffffffffffffffff1673ffffffffffffffffffffffffffffffffffffffff168152602001908152602001600020546276a700601960008873ffffffffffffffffffffffffffffffffffffffff1673ffffffffffffffffffffffffffffffffffffffff16815260200190815260200160002060009054906101000a900460ff1662001a8e60201b60201c565b9050601b60008573ffffffffffffffffffffffffffffffffffffffff1673ffffffffffffffffffffffffffffffffffffffff16815260200190815260200160002054816200198f9190620020c1565b821115620019d4576040517f08c379a0000000000000000000000000000000000000000000000000000000008152600401620019cb9062002295565b60405180910390fd5b505b5b5b505050565b601a60008473ffffffffffffffffffffffffffffffffffffffff1673ffffffffffffffffffffffffffffffffffffffff16815260200190815260200160002060009054906101000a900460ff161562001a895780601b60008573ffffffffffffffffffffffffffffffffffffffff1673ffffffffffffffffffffffffffffffffffffffff168152602001908152602001600020600082825462001a81919062002039565b925050819055505b505050565b600080831162001ad5576040517f08c379a000000000000000000000000000000000000000000000000000000000815260040162001acc9062002307565b60405180910390fd5b428360125462001ae6919062002039565b1162001af55783905062001b52565b6000838562001b05919062002358565b905060008362001b1757600062001b1c565b62ed4e005b62ffffff1660125462001b30919062002039565b4262001b3d9190620020c1565b9050818162001b4d919062002390565b925050505b9392505050565b600080fd5b600073ffffffffffffffffffffffffffffffffffffffff82169050919050565b600062001b8b8262001b5e565b9050919050565b62001b9d8162001b7e565b811462001ba957600080fd5b50565b60008151905062001bbd8162001b92565b92915050565b6000806040838503121562001bdd5762001bdc62001b59565b5b600062001bed8582860162001bac565b925050602062001c008582860162001bac565b9150509250929050565b600081519050919050565b7f4e487b7100000000000000000000000000000000000000000000000000000000600052604160045260246000fd5b7f4e487b7100000000000000000000000000000000000000000000000000000000600052602260045260246000fd5b6000600282049050600182168062001c8c57607f821691505b60208210810362001ca25762001ca162001c44565b5b50919050565b60008190508160005260206000209050919050565b60006020601f8301049050919050565b600082821b905092915050565b60006008830262001d0c7fffffffffffffffffffffffffffffffffffffffffffffffffffffffffffffffff8262001ccd565b62001d18868362001ccd565b95508019841693508086168417925050509392505050565b6000819050919050565b6000819050919050565b600062001d6562001d5f62001d598462001d30565b62001d3a565b62001d30565b9050919050565b6000819050919050565b62001d818362001d44565b62001d9962001d908262001d6c565b84845462001cda565b825550505050565b600090565b62001db062001da1565b62001dbd81848462001d76565b505050565b5b8181101562001de55762001dd960008262001da6565b60018101905062001dc3565b5050565b601f82111562001e345762001dfe8162001ca8565b62001e098462001cbd565b8101602085101562001e19578190505b62001e3162001e288562001cbd565b83018262001dc2565b50505b505050565b600082821c905092915050565b600062001e596000198460080262001e39565b1980831691505092915050565b600062001e74838362001e46565b9150826002028217905092915050565b62001e8f8262001c0a565b67ffffffffffffffff81111562001eab5762001eaa62001c15565b5b62001eb7825462001c73565b62001ec482828562001de9565b600060209050601f83116001811462001efc576000841562001ee7578287015190505b62001ef3858262001e66565b86555062001f63565b601f19841662001f0c8662001ca8565b60005b8281101562001f365784890151825560018201915060208501945060208101905062001f0f565b8683101562001f56578489015162001f52601f89168262001e46565b8355505b6001600288020188555050505b505050505050565b60006020828403121562001f845762001f8362001b59565b5b600062001f948482850162001bac565b91505092915050565b62001fa88162001b7e565b82525050565b600060408201905062001fc5600083018562001f9d565b62001fd4602083018462001f9d565b9392505050565b7f4e487b7100000000000000000000000000000000000000000000000000000000600052603260045260246000fd5b7f4e487b7100000000000000000000000000000000000000000000000000000000600052601160045260246000fd5b6000620020468262001d30565b9150620020538362001d30565b92508282019050808211156200206e576200206d6200200a565b5b92915050565b6000620020818262001d30565b91507fffffffffffffffffffffffffffffffffffffffffffffffffffffffffffffffff8203620020b657620020b56200200a565b5b600182019050919050565b6000620020ce8262001d30565b9150620020db8362001d30565b9250828203905081811115620020f657620020f56200200a565b5b92915050565b600082825260208201905092915050565b7f45524332303a206d696e7420746f20746865207a65726f206164647265737300600082015250565b600062002145601f83620020fc565b915062002152826200210d565b602082019050919050565b60006020820190508181036000830152620021788162002136565b9050919050565b6200218a8162001d30565b82525050565b6000602082019050620021a760008301846200217f565b92915050565b7f4c6f636b20706572696f64206e6f74206f766572000000000000000000000000600082015250565b6000620021e5601483620020fc565b9150620021f282620021ad565b602082019050919050565b600060208201905081810360008301526200221881620021d6565b9050919050565b7f43616e277420757365206d6f7265207468616e20756e76657374656420616d6f60008201527f756e740000000000000000000000000000000000000000000000000000000000602082015250565b60006200227d602383620020fc565b91506200228a826200221f565b604082019050919050565b60006020820190508181036000830152620022b0816200226e565b9050919050565b7f43616e277420646976696465206279207a65726f000000000000000000000000600082015250565b6000620022ef601483620020fc565b9150620022fc82620022b7565b602082019050919050565b600060208201905081810360008301526200232281620022e0565b9050919050565b7f4e487b7100000000000000000000000000000000000000000000000000000000600052601260045260246000fd5b6000620023658262001d30565b9150620023728362001d30565b92508262002385576200238462002329565b5b828204905092915050565b60006200239d8262001d30565b9150620023aa8362001d30565b9250828202620023ba8162001d30565b91508282048414831517620023d457620023d36200200a565b5b5092915050565b60805160a05160c051615e6b6200242e60003960008181610da0015281816122b90152818161235301528181613eb201528181613f2301526140840152600061417501526000610cb50152615e6b6000f3fe6080604052600436106102975760003560e01c80637e245d791161015a578063b131e610116100c1578063e2f456051161007a578063e2f4560514610a5b578063eba4c33314610a86578063ee85348e14610aaf578063f2fde38b14610aec578063f7c618c114610b15578063f9d0831a14610b405761029e565b8063b131e61014610927578063c024666814610964578063c0f306ef1461098d578063c12614cd146109b6578063d8e56bc0146109f3578063dd62ed3e14610a1e5761029e565b806396e0eb951161011357806396e0eb95146108195780639d7ceafb14610844578063a457c2d71461086d578063a83ac89b146108aa578063a9059cbb146108c1578063afa4f3b2146108fe5761029e565b80637e245d791461070957806382d95df51461073457806383cd10ff1461075d5780638da5cb5b146107865780639267f61c146107b157806395d89b41146107ee5761029e565b806347062402116101fe57806365b8dbc0116101b757806365b8dbc0146105fb57806368b85670146106245780636ddd17131461066157806370a082311461068c578063715018a6146106c9578063756af45f146106e05761029e565b806347062402146104d757806349bd5a5e146105025780634fbee1931461052d5780634fe038fc1461056a57806353f83ad7146105a75780635ef46022146105e45761029e565b80632b14ca56116102505780632b14ca56146103db5780632e92abdd14610406578063313ce5671461041d57806331e79db0146104485780633950935114610471578063467abe0a146104ae5761029e565b806306fdde03146102a3578063095ea7b3146102ce5780631694505e1461030b57806318160ddd146103365780631a60b63d1461036157806323b872dd1461039e5761029e565b3661029e57005b600080fd5b3480156102af57600080fd5b506102b8610b69565b6040516102c59190614317565b60405180910390f35b3480156102da57600080fd5b506102f560048036038101906102f091906143d2565b610bfb565b604051610302919061442d565b60405180910390f35b34801561031757600080fd5b50610320610c1e565b60405161032d91906144a7565b60405180910390f35b34801561034257600080fd5b5061034b610c44565b60405161035891906144d1565b60405180910390f35b34801561036d57600080fd5b50610388600480360381019061038391906144ec565b610c4e565b60405161039591906144d1565b60405180910390f35b3480156103aa57600080fd5b506103c560048036038101906103c09190614519565b610d16565b6040516103d2919061442d565b60405180910390f35b3480156103e757600080fd5b506103f0610d45565b6040516103fd91906144d1565b60405180910390f35b34801561041257600080fd5b5061041b610d4b565b005b34801561042957600080fd5b50610432610dc9565b60405161043f9190614588565b60405180910390f35b34801561045457600080fd5b5061046f600480360381019061046a91906144ec565b610dd2565b005b34801561047d57600080fd5b50610498600480360381019061049391906143d2565b610f25565b6040516104a5919061442d565b60405180910390f35b3480156104ba57600080fd5b506104d560048036038101906104d091906145a3565b610f5c565b005b3480156104e357600080fd5b506104ec610feb565b6040516104f991906144d1565b60405180910390f35b34801561050e57600080fd5b50610517610ff1565b60405161052491906145df565b60405180910390f35b34801561053957600080fd5b50610554600480360381019061054f91906144ec565b611017565b604051610561919061442d565b60405180910390f35b34801561057657600080fd5b50610591600480360381019061058c91906144ec565b61106d565b60405161059e91906144d1565b60405180910390f35b3480156105b357600080fd5b506105ce60048036038101906105c991906144ec565b6110b6565b6040516105db91906144d1565b60405180910390f35b3480156105f057600080fd5b506105f96110ff565b005b34801561060757600080fd5b50610622600480360381019061061d91906144ec565b611133565b005b34801561063057600080fd5b5061064b60048036038101906106469190614626565b61146f565b60405161065891906144d1565b60405180910390f35b34801561066d57600080fd5b50610676611529565b604051610683919061442d565b60405180910390f35b34801561069857600080fd5b506106b360048036038101906106ae91906144ec565b61153c565b6040516106c091906144d1565b60405180910390f35b3480156106d557600080fd5b506106de611584565b005b3480156106ec57600080fd5b50610707600480360381019061070291906144ec565b611598565b005b34801561071557600080fd5b5061071e6115f0565b60405161072b91906144d1565b60405180910390f35b34801561074057600080fd5b5061075b600480360381019061075691906145a3565b6115f6565b005b34801561076957600080fd5b50610784600480360381019061077f9190614679565b61168f565b005b34801561079257600080fd5b5061079b61196d565b6040516107a891906145df565b60405180910390f35b3480156107bd57600080fd5b506107d860048036038101906107d391906144ec565b611997565b6040516107e591906144d1565b60405180910390f35b3480156107fa57600080fd5b506108036119af565b6040516108109190614317565b60405180910390f35b34801561082557600080fd5b5061082e611a41565b60405161083b91906144d1565b60405180910390f35b34801561085057600080fd5b5061086b600480360381019061086691906145a3565b611a47565b005b34801561087957600080fd5b50610894600480360381019061088f91906143d2565b611a9c565b6040516108a1919061442d565b60405180910390f35b3480156108b657600080fd5b506108bf611b13565b005b3480156108cd57600080fd5b506108e860048036038101906108e391906143d2565b611b38565b6040516108f5919061442d565b60405180910390f35b34801561090a57600080fd5b50610925600480360381019061092091906145a3565b611b5b565b005b34801561093357600080fd5b5061094e600480360381019061094991906144ec565b611bc4565b60405161095b91906144d1565b60405180910390f35b34801561097057600080fd5b5061098b600480360381019061098691906146e0565b611c27565b005b34801561099957600080fd5b506109b460048036038101906109af91906144ec565b611d6a565b005b3480156109c257600080fd5b506109dd60048036038101906109d891906144ec565b611fe6565b6040516109ea91906144d1565b60405180910390f35b3480156109ff57600080fd5b50610a08611ffe565b604051610a1591906144d1565b60405180910390f35b348015610a2a57600080fd5b50610a456004803603810190610a409190614720565b612092565b604051610a5291906144d1565b60405180910390f35b348015610a6757600080fd5b50610a70612119565b604051610a7d91906144d1565b60405180910390f35b348015610a9257600080fd5b50610aad6004803603810190610aa891906145a3565b61211f565b005b348015610abb57600080fd5b50610ad66004803603810190610ad191906144ec565b6121ac565b604051610ae391906144d1565b60405180910390f35b348015610af857600080fd5b50610b136004803603810190610b0e91906144ec565b612234565b005b348015610b2157600080fd5b50610b2a6122b7565b604051610b3791906145df565b60405180910390f35b348015610b4c57600080fd5b50610b676004803603810190610b6291906144ec565b6122db565b005b606060038054610b789061478f565b80601f0160208091040260200160405190810160405280929190818152602001828054610ba49061478f565b8015610bf15780601f10610bc657610100808354040283529160200191610bf1565b820191906000526020600020905b815481529060010190602001808311610bd457829003601f168201915b5050505050905090565b600080610c06612472565b9050610c1381858561247a565b600191505092915050565b600d60009054906101000a900473ffffffffffffffffffffffffffffffffffffffff1681565b6000600b54905090565b60006fffffffffffffffffffffffffffffffff8016610d05610d00600660008673ffffffffffffffffffffffffffffffffffffffff1673ffffffffffffffffffffffffffffffffffffffff16815260200190815260200160002054610cf2610ced610cdc887f000000000000000000000000000000000000000000000000000000000000000063ffffffff16565b60055461264390919063ffffffff16565b61267a565b6126b090919063ffffffff16565b6126c6565b610d0f919061481e565b9050919050565b600080610d21612472565b9050610d2e8582856126dd565b610d39858585612769565b60019150509392505050565b600a5481565b6000610d5633612e25565b905060008111610d9b576040517f08c379a0000000000000000000000000000000000000000000000000000000008152600401610d929061489b565b60405180910390fd5b610dc67f00000000000000000000000000000000000000000000000000000000000000003383612f29565b50565b60006012905090565b610dda61305f565b601360008273ffffffffffffffffffffffffffffffffffffffff1673ffffffffffffffffffffffffffffffffffffffff16815260200190815260200160002060009054906101000a900460ff1615610e67576040517f08c379a0000000000000000000000000000000000000000000000000000000008152600401610e5e90614907565b60405180910390fd5b6001601360008373ffffffffffffffffffffffffffffffffffffffff1673ffffffffffffffffffffffffffffffffffffffff16815260200190815260200160002060006101000a81548160ff0219169083151502179055506014819080600181540180825580915050600190039060005260206000200160009091909190916101000a81548173ffffffffffffffffffffffffffffffffffffffff021916908373ffffffffffffffffffffffffffffffffffffffff16021790555050565b600080610f30612472565b9050610f51818585610f428589612092565b610f4c9190614927565b61247a565b600191505092915050565b610f6461305f565b600f811115610fa8576040517f08c379a0000000000000000000000000000000000000000000000000000000008152600401610f9f906149a7565b60405180910390fd5b806009819055507fa480a3a15a511fbdc37ae77ae3f490e03ab3688adde11456ce779e6c1e0abaa2600954604051610fe091906144d1565b60405180910390a150565b60095481565b600e60009054906101000a900473ffffffffffffffffffffffffffffffffffffffff1681565b6000601560008373ffffffffffffffffffffffffffffffffffffffff1673ffffffffffffffffffffffffffffffffffffffff16815260200190815260200160002060009054906101000a900460ff169050919050565b6000601b60008373ffffffffffffffffffffffffffffffffffffffff1673ffffffffffffffffffffffffffffffffffffffff168152602001908152602001600020549050919050565b6000600760008373ffffffffffffffffffffffffffffffffffffffff1673ffffffffffffffffffffffffffffffffffffffff168152602001908152602001600020549050919050565b61110761305f565b601060009054906101000a900460ff1615601060006101000a81548160ff021916908315150217905550565b61113b61305f565b600d60009054906101000a900473ffffffffffffffffffffffffffffffffffffffff1673ffffffffffffffffffffffffffffffffffffffff168173ffffffffffffffffffffffffffffffffffffffff16036111cb576040517f08c379a00000000000000000000000000000000000000000000000000000000081526004016111c290614a39565b60405180910390fd5b600d60009054906101000a900473ffffffffffffffffffffffffffffffffffffffff1673ffffffffffffffffffffffffffffffffffffffff168173ffffffffffffffffffffffffffffffffffffffff167f8fc842bbd331dfa973645f4ed48b11683d501ebf1352708d77a5da2ab49a576e60405160405180910390a380600d60006101000a81548173ffffffffffffffffffffffffffffffffffffffff021916908373ffffffffffffffffffffffffffffffffffffffff1602179055506000600d60009054906101000a900473ffffffffffffffffffffffffffffffffffffffff1673ffffffffffffffffffffffffffffffffffffffff1663c45a01556040518163ffffffff1660e01b8152600401602060405180830381865afa1580156112f7573d6000803e3d6000fd5b505050506040513d601f19601f8201168201806040525081019061131b9190614a6e565b73ffffffffffffffffffffffffffffffffffffffff1663c9c6539630600d60009054906101000a900473ffffffffffffffffffffffffffffffffffffffff1673ffffffffffffffffffffffffffffffffffffffff1663ad5c46486040518163ffffffff1660e01b8152600401602060405180830381865afa1580156113a4573d6000803e3d6000fd5b505050506040513d601f19601f820116820180604052508101906113c89190614a6e565b6040518363ffffffff1660e01b81526004016113e5929190614a9b565b6020604051808303816000875af1158015611404573d6000803e3d6000fd5b505050506040513d601f19601f820116820180604052508101906114289190614a6e565b905080600e60006101000a81548173ffffffffffffffffffffffffffffffffffffffff021916908373ffffffffffffffffffffffffffffffffffffffff1602179055505050565b60008083116114b3576040517f08c379a00000000000000000000000000000000000000000000000000000000081526004016114aa90614b10565b60405180910390fd5b42836012546114c29190614927565b116114cf57839050611522565b600083856114dd919061481e565b90506000836114ed5760006114f2565b62ed4e005b62ffffff166012546115049190614927565b4261150f9190614b30565b9050818161151d9190614b64565b925050505b9392505050565b601060009054906101000a900460ff1681565b60008060008373ffffffffffffffffffffffffffffffffffffffff1673ffffffffffffffffffffffffffffffffffffffff168152602001908152602001600020549050919050565b61158c61305f565b61159660006130dd565b565b6115a061305f565b600047116115e3576040517f08c379a00000000000000000000000000000000000000000000000000000000081526004016115da9061489b565b60405180910390fd5b6115ed81476131a3565b50565b60055481565b6115fe61305f565b600060125414611643576040517f08c379a000000000000000000000000000000000000000000000000000000000815260040161163a90614c18565b60405180910390fd5b428111611685576040517f08c379a000000000000000000000000000000000000000000000000000000000815260040161167c90614c84565b60405180910390fd5b8060128190555050565b61169761305f565b60038214806116a65750600c82145b806116b15750601882145b6116f0576040517f08c379a00000000000000000000000000000000000000000000000000000000081526004016116e790614cf0565b60405180910390fd5b60006116fb8561153c565b1461173b576040517f08c379a000000000000000000000000000000000000000000000000000000000815260040161173290614d5c565b60405180910390fd5b601a60008573ffffffffffffffffffffffffffffffffffffffff1673ffffffffffffffffffffffffffffffffffffffff16815260200190815260200160002060009054906101000a900460ff16156117c8576040517f08c379a00000000000000000000000000000000000000000000000000000000081526004016117bf90614dc8565b60405180910390fd5b600382036118195782601660008673ffffffffffffffffffffffffffffffffffffffff1673ffffffffffffffffffffffffffffffffffffffff1681526020019081526020016000208190555061190f565b600c820361186a5782601760008673ffffffffffffffffffffffffffffffffffffffff1673ffffffffffffffffffffffffffffffffffffffff1681526020019081526020016000208190555061190e565b82601860008673ffffffffffffffffffffffffffffffffffffffff1673ffffffffffffffffffffffffffffffffffffffff16815260200190815260200160002081905550801561190d576001601960008673ffffffffffffffffffffffffffffffffffffffff1673ffffffffffffffffffffffffffffffffffffffff16815260200190815260200160002060006101000a81548160ff0219169083151502179055505b5b5b6001601a60008673ffffffffffffffffffffffffffffffffffffffff1673ffffffffffffffffffffffffffffffffffffffff16815260200190815260200160002060006101000a81548160ff02191690831515021790555050505050565b6000600860009054906101000a900473ffffffffffffffffffffffffffffffffffffffff16905090565b601d6020528060005260406000206000915090505481565b6060600480546119be9061478f565b80601f01602080910402602001604051908101604052809291908181526020018280546119ea9061478f565b8015611a375780601f10611a0c57610100808354040283529160200191611a37565b820191906000526020600020905b815481529060010190602001808311611a1a57829003601f168201915b5050505050905090565b60115481565b611a4f61305f565b60008111611a92576040517f08c379a0000000000000000000000000000000000000000000000000000000008152600401611a8990614e34565b60405180910390fd5b8060118190555050565b600080611aa7612472565b90506000611ab58286612092565b905083811015611afa576040517f08c379a0000000000000000000000000000000000000000000000000000000008152600401611af190614ec6565b60405180910390fd5b611b07828686840361247a565b60019250505092915050565b611b1b61305f565b6001601c60006101000a81548160ff021916908315150217905550565b600080611b43612472565b9050611b50818585612769565b600191505092915050565b611b6361305f565b620f4240611b6f610c44565b611b79919061481e565b8111611bba576040517f08c379a0000000000000000000000000000000000000000000000000000000008152600401611bb190614f58565b60405180910390fd5b80600f8190555050565b6000611c20600760008473ffffffffffffffffffffffffffffffffffffffff1673ffffffffffffffffffffffffffffffffffffffff16815260200190815260200160002054611c1284610c4e565b6132a390919063ffffffff16565b9050919050565b611c2f61305f565b801515601560008473ffffffffffffffffffffffffffffffffffffffff1673ffffffffffffffffffffffffffffffffffffffff16815260200190815260200160002060009054906101000a900460ff16151503611cc1576040517f08c379a0000000000000000000000000000000000000000000000000000000008152600401611cb890614fea565b60405180910390fd5b80601560008473ffffffffffffffffffffffffffffffffffffffff1673ffffffffffffffffffffffffffffffffffffffff16815260200190815260200160002060006101000a81548160ff0219169083151502179055508173ffffffffffffffffffffffffffffffffffffffff167f9d8f7706ea1113d1a167b526eca956215946dd36cc7df39eb16180222d8b5df782604051611d5e919061442d565b60405180910390a25050565b611d7261305f565b601360008273ffffffffffffffffffffffffffffffffffffffff1673ffffffffffffffffffffffffffffffffffffffff16815260200190815260200160002060009054906101000a900460ff16611dfe576040517f08c379a0000000000000000000000000000000000000000000000000000000008152600401611df590615056565b60405180910390fd5b60005b601480549050811015611fe2578173ffffffffffffffffffffffffffffffffffffffff1660148281548110611e3957611e38615076565b5b9060005260206000200160009054906101000a900473ffffffffffffffffffffffffffffffffffffffff1673ffffffffffffffffffffffffffffffffffffffff1603611fcf5760146001601480549050611e939190614b30565b81548110611ea457611ea3615076565b5b9060005260206000200160009054906101000a900473ffffffffffffffffffffffffffffffffffffffff1660148281548110611ee357611ee2615076565b5b9060005260206000200160006101000a81548173ffffffffffffffffffffffffffffffffffffffff021916908373ffffffffffffffffffffffffffffffffffffffff1602179055506000601360008473ffffffffffffffffffffffffffffffffffffffff1673ffffffffffffffffffffffffffffffffffffffff16815260200190815260200160002060006101000a81548160ff0219169083151502179055506014805480611f9557611f946150a5565b5b6001900381819060005260206000200160006101000a81549073ffffffffffffffffffffffffffffffffffffffff02191690559055611fe2565b8080611fda906150d4565b915050611e01565b5050565b601b6020528060005260406000206000915090505481565b60008060005b601480549050811015612078576120586014828154811061202857612027615076565b5b9060005260206000200160009054906101000a900473ffffffffffffffffffffffffffffffffffffffff1661153c565b826120639190614927565b91508080612070906150d4565b915050612004565b5080612082610c44565b61208c9190614b30565b91505090565b6000600160008473ffffffffffffffffffffffffffffffffffffffff1673ffffffffffffffffffffffffffffffffffffffff16815260200190815260200160002060008373ffffffffffffffffffffffffffffffffffffffff1673ffffffffffffffffffffffffffffffffffffffff16815260200190815260200160002054905092915050565b600f5481565b61212761305f565b600f81111561216b576040517f08c379a000000000000000000000000000000000000000000000000000000000815260040161216290615168565b60405180910390fd5b80600a819055507f7d59573ec4acab62b908b5c1cde109eb12273d011506abaa850256636a42d54a816040516121a191906144d1565b60405180910390a150565b6000601360008373ffffffffffffffffffffffffffffffffffffffff1673ffffffffffffffffffffffffffffffffffffffff16815260200190815260200160002060009054906101000a900460ff1615612209576000905061222f565b6011546122158361153c565b101561222257600061222c565b61222b8261153c565b5b90505b919050565b61223c61305f565b600073ffffffffffffffffffffffffffffffffffffffff168173ffffffffffffffffffffffffffffffffffffffff16036122ab576040517f08c379a00000000000000000000000000000000000000000000000000000000081526004016122a2906151fa565b60405180910390fd5b6122b4816130dd565b50565b7f000000000000000000000000000000000000000000000000000000000000000081565b6122e361305f565b3073ffffffffffffffffffffffffffffffffffffffff168173ffffffffffffffffffffffffffffffffffffffff1603612351576040517f08c379a000000000000000000000000000000000000000000000000000000000815260040161234890615266565b60405180910390fd5b7f000000000000000000000000000000000000000000000000000000000000000073ffffffffffffffffffffffffffffffffffffffff168173ffffffffffffffffffffffffffffffffffffffff16036123df576040517f08c379a00000000000000000000000000000000000000000000000000000000081526004016123d6906152f8565b60405180910390fd5b600081905060008173ffffffffffffffffffffffffffffffffffffffff166370a08231306040518263ffffffff1660e01b815260040161241f91906145df565b602060405180830381865afa15801561243c573d6000803e3d6000fd5b505050506040513d601f19601f82011682018060405250810190612460919061532d565b905061246d833383612f29565b505050565b600033905090565b600073ffffffffffffffffffffffffffffffffffffffff168373ffffffffffffffffffffffffffffffffffffffff16036124e9576040517f08c379a00000000000000000000000000000000000000000000000000000000081526004016124e0906153cc565b60405180910390fd5b600073ffffffffffffffffffffffffffffffffffffffff168273ffffffffffffffffffffffffffffffffffffffff1603612558576040517f08c379a000000000000000000000000000000000000000000000000000000000815260040161254f9061545e565b60405180910390fd5b80600160008573ffffffffffffffffffffffffffffffffffffffff1673ffffffffffffffffffffffffffffffffffffffff16815260200190815260200160002060008473ffffffffffffffffffffffffffffffffffffffff1673ffffffffffffffffffffffffffffffffffffffff168152602001908152602001600020819055508173ffffffffffffffffffffffffffffffffffffffff168373ffffffffffffffffffffffffffffffffffffffff167f8c5be1e5ebec7d5bd14f71427d1e84f3dd0314c0f7b2291e5b200ac8c7c3b9258360405161263691906144d1565b60405180910390a3505050565b60008083148061266b57508183838561265c9190614b64565b925082612669919061481e565b145b61267457600080fd5b92915050565b60007f800000000000000000000000000000000000000000000000000000000000000082106126a857600080fd5b819050919050565b600081836126be9190615488565b905092915050565b6000808212156126d557600080fd5b819050919050565b60006126e98484612092565b90507fffffffffffffffffffffffffffffffffffffffffffffffffffffffffffffffff81146127635781811015612755576040517f08c379a000000000000000000000000000000000000000000000000000000000815260040161274c90615518565b60405180910390fd5b612762848484840361247a565b5b50505050565b600073ffffffffffffffffffffffffffffffffffffffff168373ffffffffffffffffffffffffffffffffffffffff16036127d8576040517f08c379a00000000000000000000000000000000000000000000000000000000081526004016127cf906155aa565b60405180910390fd5b600073ffffffffffffffffffffffffffffffffffffffff168273ffffffffffffffffffffffffffffffffffffffff1603612847576040517f08c379a000000000000000000000000000000000000000000000000000000000815260040161283e9061563c565b60405180910390fd5b600081036128605761285b838360006132c6565b612e20565b601c60009054906101000a900460ff1615612b245761287d61196d565b73ffffffffffffffffffffffffffffffffffffffff168373ffffffffffffffffffffffffffffffffffffffff16141580156128eb57506128bb61196d565b73ffffffffffffffffffffffffffffffffffffffff168273ffffffffffffffffffffffffffffffffffffffff1614155b15612954576103e860056128fd610c44565b6129079190614b64565b612911919061481e565b811115612953576040517f08c379a000000000000000000000000000000000000000000000000000000000815260040161294a906156ce565b60405180910390fd5b5b600e60009054906101000a900473ffffffffffffffffffffffffffffffffffffffff1673ffffffffffffffffffffffffffffffffffffffff168273ffffffffffffffffffffffffffffffffffffffff1614806129fd5750600d60009054906101000a900473ffffffffffffffffffffffffffffffffffffffff1673ffffffffffffffffffffffffffffffffffffffff168273ffffffffffffffffffffffffffffffffffffffff16145b15612b23576000612a0d8461153c565b905060006103e86005612a1e610c44565b612a289190614b64565b612a32919061481e565b905080821115612b20576000429050600583612a4e919061481e565b8410612a8f576040517f08c379a0000000000000000000000000000000000000000000000000000000008152600401612a8690615786565b60405180910390fd5b62015180601d60008873ffffffffffffffffffffffffffffffffffffffff1673ffffffffffffffffffffffffffffffffffffffff1681526020019081526020016000205482612ade9190614b30565b11612b1e576040517f08c379a0000000000000000000000000000000000000000000000000000000008152600401612b1590615818565b60405180910390fd5b505b50505b5b6000612b2f3061153c565b90506000600f548210159050601060009054906101000a900460ff168015612b545750805b8015612b6d5750601060019054906101000a900460ff16155b15612bb2576001601060016101000a81548160ff021916908315150217905550612b968261353c565b6000601060016101000a81548160ff0219169083151502179055505b6000601060019054906101000a900460ff16159050601560008773ffffffffffffffffffffffffffffffffffffffff1673ffffffffffffffffffffffffffffffffffffffff16815260200190815260200160002060009054906101000a900460ff1680612c685750601560008673ffffffffffffffffffffffffffffffffffffffff1673ffffffffffffffffffffffffffffffffffffffff16815260200190815260200160002060009054906101000a900460ff165b15612c7257600090505b600e60009054906101000a900473ffffffffffffffffffffffffffffffffffffffff1673ffffffffffffffffffffffffffffffffffffffff168673ffffffffffffffffffffffffffffffffffffffff1614158015612d1e5750600e60009054906101000a900473ffffffffffffffffffffffffffffffffffffffff1673ffffffffffffffffffffffffffffffffffffffff168573ffffffffffffffffffffffffffffffffffffffff1614155b15612d2857600090505b8015612e11576000600e60009054906101000a900473ffffffffffffffffffffffffffffffffffffffff1673ffffffffffffffffffffffffffffffffffffffff168773ffffffffffffffffffffffffffffffffffffffff1603612d8f576009549050612dd9565b600a54905042601d60008973ffffffffffffffffffffffffffffffffffffffff1673ffffffffffffffffffffffffffffffffffffffff168152602001908152602001600020819055505b600060648287612de99190614b64565b612df3919061481e565b90508086612e019190614b30565b9550612e0e8830836132c6565b50505b612e1c8686866132c6565b5050505b505050565b600080612e3183611bc4565b90506000811115612f2057612e8e81600760008673ffffffffffffffffffffffffffffffffffffffff1673ffffffffffffffffffffffffffffffffffffffff1681526020019081526020016000205461379f90919063ffffffff16565b600760008573ffffffffffffffffffffffffffffffffffffffff1673ffffffffffffffffffffffffffffffffffffffff168152602001908152602001600020819055508273ffffffffffffffffffffffffffffffffffffffff167f08d688a92fc311df9b853769e8a99b320411042a86f106fd29e7f21ee06e79da82604051612f1791906144d1565b60405180910390a25b80915050919050565b6000808473ffffffffffffffffffffffffffffffffffffffff1663a9059cbb8585604051602401612f5b929190615838565b6040516020818303038152906040529060e01b6020820180517bffffffffffffffffffffffffffffffffffffffffffffffffffffffff8381831617835250505050604051612fa991906158a8565b6000604051808303816000865af19150503d8060008114612fe6576040519150601f19603f3d011682016040523d82523d6000602084013e612feb565b606091505b5091509150818015613019575060008151148061301857508080602001905181019061301791906158d4565b5b5b613058576040517f08c379a000000000000000000000000000000000000000000000000000000000815260040161304f9061594d565b60405180910390fd5b5050505050565b613067612472565b73ffffffffffffffffffffffffffffffffffffffff1661308561196d565b73ffffffffffffffffffffffffffffffffffffffff16146130db576040517f08c379a00000000000000000000000000000000000000000000000000000000081526004016130d2906159b9565b60405180910390fd5b565b6000600860009054906101000a900473ffffffffffffffffffffffffffffffffffffffff16905081600860006101000a81548173ffffffffffffffffffffffffffffffffffffffff021916908373ffffffffffffffffffffffffffffffffffffffff1602179055508173ffffffffffffffffffffffffffffffffffffffff168173ffffffffffffffffffffffffffffffffffffffff167f8be0079c531659141344cd1fd0a4f28419497f9722a3daafe3b4186f6b6457e060405160405180910390a35050565b60008273ffffffffffffffffffffffffffffffffffffffff1682600067ffffffffffffffff8111156131d8576131d76159d9565b5b6040519080825280601f01601f19166020018201604052801561320a5781602001600182028036833780820191505090505b5060405161321891906158a8565b60006040518083038185875af1925050503d8060008114613255576040519150601f19603f3d011682016040523d82523d6000602084013e61325a565b606091505b505090508061329e576040517f08c379a000000000000000000000000000000000000000000000000000000000815260040161329590615a7a565b60405180910390fd5b505050565b60008282846132b29190614b30565b91508111156132c057600080fd5b92915050565b600073ffffffffffffffffffffffffffffffffffffffff168373ffffffffffffffffffffffffffffffffffffffff1603613335576040517f08c379a000000000000000000000000000000000000000000000000000000000815260040161332c906155aa565b60405180910390fd5b600073ffffffffffffffffffffffffffffffffffffffff168273ffffffffffffffffffffffffffffffffffffffff16036133a4576040517f08c379a000000000000000000000000000000000000000000000000000000000815260040161339b9061563c565b60405180910390fd5b6133af8383836137c2565b60008060008573ffffffffffffffffffffffffffffffffffffffff1673ffffffffffffffffffffffffffffffffffffffff16815260200190815260200160002054905081811015613435576040517f08c379a000000000000000000000000000000000000000000000000000000000815260040161342c90615b0c565b60405180910390fd5b8181036000808673ffffffffffffffffffffffffffffffffffffffff1673ffffffffffffffffffffffffffffffffffffffff16815260200190815260200160002081905550816000808573ffffffffffffffffffffffffffffffffffffffff1673ffffffffffffffffffffffffffffffffffffffff168152602001908152602001600020600082825401925050819055508273ffffffffffffffffffffffffffffffffffffffff168473ffffffffffffffffffffffffffffffffffffffff167fddf252ad1be2c89b69c2b068fc378daa952ba7f163c4a11628f55a4df523b3ef8460405161352391906144d1565b60405180910390a3613536848484613cd5565b50505050565b6000600267ffffffffffffffff811115613559576135586159d9565b5b6040519080825280602002602001820160405280156135875781602001602082028036833780820191505090505b509050308160008151811061359f5761359e615076565b5b602002602001019073ffffffffffffffffffffffffffffffffffffffff16908173ffffffffffffffffffffffffffffffffffffffff1681525050600d60009054906101000a900473ffffffffffffffffffffffffffffffffffffffff1673ffffffffffffffffffffffffffffffffffffffff1663ad5c46486040518163ffffffff1660e01b8152600401602060405180830381865afa158015613646573d6000803e3d6000fd5b505050506040513d601f19601f8201168201806040525081019061366a9190614a6e565b8160018151811061367e5761367d615076565b5b602002602001019073ffffffffffffffffffffffffffffffffffffffff16908173ffffffffffffffffffffffffffffffffffffffff168152505060004790506136ea30600d60009054906101000a900473ffffffffffffffffffffffffffffffffffffffff168561247a565b600d60009054906101000a900473ffffffffffffffffffffffffffffffffffffffff1673ffffffffffffffffffffffffffffffffffffffff1663791ac9478460008530426040518663ffffffff1660e01b815260040161374e959493929190615c25565b600060405180830381600087803b15801561376857600080fd5b505af115801561377c573d6000803e3d6000fd5b505050506000814761378e9190614b30565b905061379981613d83565b50505050565b60008282846137ae9190614927565b91508110156137bc57600080fd5b92915050565b601960008473ffffffffffffffffffffffffffffffffffffffff1673ffffffffffffffffffffffffffffffffffffffff16815260200190815260200160002060009054906101000a900460ff16156138685762ed4e006012546138259190614927565b421015613867576040517f08c379a000000000000000000000000000000000000000000000000000000000815260040161385e90615ccb565b60405180910390fd5b5b6000601860008573ffffffffffffffffffffffffffffffffffffffff1673ffffffffffffffffffffffffffffffffffffffff1681526020019081526020016000205411156139e157600061394c601860008673ffffffffffffffffffffffffffffffffffffffff1673ffffffffffffffffffffffffffffffffffffffff168152602001908152602001600020546303c26700601960008873ffffffffffffffffffffffffffffffffffffffff1673ffffffffffffffffffffffffffffffffffffffff16815260200190815260200160002060009054906101000a900460ff1661146f565b9050601b60008573ffffffffffffffffffffffffffffffffffffffff1673ffffffffffffffffffffffffffffffffffffffff16815260200190815260200160002054816139999190614b30565b8211156139db576040517f08c379a00000000000000000000000000000000000000000000000000000000081526004016139d290615d5d565b60405180910390fd5b50613cd0565b6000601760008573ffffffffffffffffffffffffffffffffffffffff1673ffffffffffffffffffffffffffffffffffffffff168152602001908152602001600020541115613b5a576000613ac5601760008673ffffffffffffffffffffffffffffffffffffffff1673ffffffffffffffffffffffffffffffffffffffff168152602001908152602001600020546301e13380601960008873ffffffffffffffffffffffffffffffffffffffff1673ffffffffffffffffffffffffffffffffffffffff16815260200190815260200160002060009054906101000a900460ff1661146f565b9050601b60008573ffffffffffffffffffffffffffffffffffffffff1673ffffffffffffffffffffffffffffffffffffffff1681526020019081526020016000205481613b129190614b30565b821115613b54576040517f08c379a0000000000000000000000000000000000000000000000000000000008152600401613b4b90615d5d565b60405180910390fd5b50613ccf565b6000601660008573ffffffffffffffffffffffffffffffffffffffff1673ffffffffffffffffffffffffffffffffffffffff168152602001908152602001600020541115613cce576000613c3d601660008673ffffffffffffffffffffffffffffffffffffffff1673ffffffffffffffffffffffffffffffffffffffff168152602001908152602001600020546276a700601960008873ffffffffffffffffffffffffffffffffffffffff1673ffffffffffffffffffffffffffffffffffffffff16815260200190815260200160002060009054906101000a900460ff1661146f565b9050601b60008573ffffffffffffffffffffffffffffffffffffffff1673ffffffffffffffffffffffffffffffffffffffff1681526020019081526020016000205481613c8a9190614b30565b821115613ccc576040517f08c379a0000000000000000000000000000000000000000000000000000000008152600401613cc390615d5d565b60405180910390fd5b505b5b5b505050565b601a60008473ffffffffffffffffffffffffffffffffffffffff1673ffffffffffffffffffffffffffffffffffffffff16815260200190815260200160002060009054906101000a900460ff1615613d7e5780601b60008573ffffffffffffffffffffffffffffffffffffffff1673ffffffffffffffffffffffffffffffffffffffff1681526020019081526020016000206000828254613d769190614927565b925050819055505b505050565b6000600267ffffffffffffffff811115613da057613d9f6159d9565b5b604051908082528060200260200182016040528015613dce5781602001602082028036833780820191505090505b509050600d60009054906101000a900473ffffffffffffffffffffffffffffffffffffffff1673ffffffffffffffffffffffffffffffffffffffff1663ad5c46486040518163ffffffff1660e01b8152600401602060405180830381865afa158015613e3e573d6000803e3d6000fd5b505050506040513d601f19601f82011682018060405250810190613e629190614a6e565b81600081518110613e7657613e75615076565b5b602002602001019073ffffffffffffffffffffffffffffffffffffffff16908173ffffffffffffffffffffffffffffffffffffffff16815250507f000000000000000000000000000000000000000000000000000000000000000081600181518110613ee557613ee4615076565b5b602002602001019073ffffffffffffffffffffffffffffffffffffffff16908173ffffffffffffffffffffffffffffffffffffffff168152505060007f000000000000000000000000000000000000000000000000000000000000000073ffffffffffffffffffffffffffffffffffffffff166370a08231306040518263ffffffff1660e01b8152600401613f7a91906145df565b602060405180830381865afa158015613f97573d6000803e3d6000fd5b505050506040513d601f19601f82011682018060405250810190613fbb919061532d565b9050613fea30600d60009054906101000a900473ffffffffffffffffffffffffffffffffffffffff168561247a565b600d60009054906101000a900473ffffffffffffffffffffffffffffffffffffffff1673ffffffffffffffffffffffffffffffffffffffff1663b6f9de958460008530426040518663ffffffff1660e01b815260040161404d9493929190615d7d565b6000604051808303818588803b15801561406657600080fd5b505af115801561407a573d6000803e3d6000fd5b50505050506000817f000000000000000000000000000000000000000000000000000000000000000073ffffffffffffffffffffffffffffffffffffffff166370a08231306040518263ffffffff1660e01b81526004016140db91906145df565b602060405180830381865afa1580156140f8573d6000803e3d6000fd5b505050506040513d601f19601f8201168201806040525081019061411c919061532d565b6141269190614b30565b90506141318161416e565b7fb0cc2628d6d644cf6be9d8110e142297ac910d6d8026d795a99f272fd9ad60b18160405161416091906144d1565b60405180910390a150505050565b600061419c7f000000000000000000000000000000000000000000000000000000000000000063ffffffff16565b9050600081116141e1576040517f08c379a00000000000000000000000000000000000000000000000000000000081526004016141d890615e15565b60405180910390fd5b60008211156142835761422e816142136fffffffffffffffffffffffffffffffff80168561264390919063ffffffff16565b61421d919061481e565b60055461379f90919063ffffffff16565b6005819055503373ffffffffffffffffffffffffffffffffffffffff167fa493a9229478c3fcd73f66d2cdeb7f94fd0f341da924d1054236d784541165118360405161427a91906144d1565b60405180910390a25b5050565b600081519050919050565b600082825260208201905092915050565b60005b838110156142c15780820151818401526020810190506142a6565b60008484015250505050565b6000601f19601f8301169050919050565b60006142e982614287565b6142f38185614292565b93506143038185602086016142a3565b61430c816142cd565b840191505092915050565b6000602082019050818103600083015261433181846142de565b905092915050565b600080fd5b600073ffffffffffffffffffffffffffffffffffffffff82169050919050565b60006143698261433e565b9050919050565b6143798161435e565b811461438457600080fd5b50565b60008135905061439681614370565b92915050565b6000819050919050565b6143af8161439c565b81146143ba57600080fd5b50565b6000813590506143cc816143a6565b92915050565b600080604083850312156143e9576143e8614339565b5b60006143f785828601614387565b9250506020614408858286016143bd565b9150509250929050565b60008115159050919050565b61442781614412565b82525050565b6000602082019050614442600083018461441e565b92915050565b6000819050919050565b600061446d6144686144638461433e565b614448565b61433e565b9050919050565b600061447f82614452565b9050919050565b600061449182614474565b9050919050565b6144a181614486565b82525050565b60006020820190506144bc6000830184614498565b92915050565b6144cb8161439c565b82525050565b60006020820190506144e660008301846144c2565b92915050565b60006020828403121561450257614501614339565b5b600061451084828501614387565b91505092915050565b60008060006060848603121561453257614531614339565b5b600061454086828701614387565b935050602061455186828701614387565b9250506040614562868287016143bd565b9150509250925092565b600060ff82169050919050565b6145828161456c565b82525050565b600060208201905061459d6000830184614579565b92915050565b6000602082840312156145b9576145b8614339565b5b60006145c7848285016143bd565b91505092915050565b6145d98161435e565b82525050565b60006020820190506145f460008301846145d0565b92915050565b61460381614412565b811461460e57600080fd5b50565b600081359050614620816145fa565b92915050565b60008060006060848603121561463f5761463e614339565b5b600061464d868287016143bd565b935050602061465e868287016143bd565b925050604061466f86828701614611565b9150509250925092565b6000806000806080858703121561469357614692614339565b5b60006146a187828801614387565b94505060206146b2878288016143bd565b93505060406146c3878288016143bd565b92505060606146d487828801614611565b91505092959194509250565b600080604083850312156146f7576146f6614339565b5b600061470585828601614387565b925050602061471685828601614611565b9150509250929050565b6000806040838503121561473757614736614339565b5b600061474585828601614387565b925050602061475685828601614387565b9150509250929050565b7f4e487b7100000000000000000000000000000000000000000000000000000000600052602260045260246000fd5b600060028204905060018216806147a757607f821691505b6020821081036147ba576147b9614760565b5b50919050565b7f4e487b7100000000000000000000000000000000000000000000000000000000600052601260045260246000fd5b7f4e487b7100000000000000000000000000000000000000000000000000000000600052601160045260246000fd5b60006148298261439c565b91506148348361439c565b925082614844576148436147c0565b5b828204905092915050565b7f4e6f7468696e6720746f20776974686472617700000000000000000000000000600082015250565b6000614885601383614292565b91506148908261484f565b602082019050919050565b600060208201905081810360008301526148b481614878565b9050919050565b7f4163636f756e7420697320616c7265616479206578636c756465640000000000600082015250565b60006148f1601b83614292565b91506148fc826148bb565b602082019050919050565b60006020820190508181036000830152614920816148e4565b9050919050565b60006149328261439c565b915061493d8361439c565b9250828201905080821115614955576149546147ef565b5b92915050565b7f466565206d757374206265206c657373207468616e2031352500000000000000600082015250565b6000614991601983614292565b915061499c8261495b565b602082019050919050565b600060208201905081810360008301526149c081614984565b9050919050565b7f54686520726f7574657220616c7265616479206861732074686174206164647260008201527f6573730000000000000000000000000000000000000000000000000000000000602082015250565b6000614a23602383614292565b9150614a2e826149c7565b604082019050919050565b60006020820190508181036000830152614a5281614a16565b9050919050565b600081519050614a6881614370565b92915050565b600060208284031215614a8457614a83614339565b5b6000614a9284828501614a59565b91505092915050565b6000604082019050614ab060008301856145d0565b614abd60208301846145d0565b9392505050565b7f43616e277420646976696465206279207a65726f000000000000000000000000600082015250565b6000614afa601483614292565b9150614b0582614ac4565b602082019050919050565b60006020820190508181036000830152614b2981614aed565b9050919050565b6000614b3b8261439c565b9150614b468361439c565b9250828203905081811115614b5e57614b5d6147ef565b5b92915050565b6000614b6f8261439c565b9150614b7a8361439c565b9250828202614b888161439c565b91508282048414831517614b9f57614b9e6147ef565b5b5092915050565b7f537461727420646174652063616e20626520736574746564206f6e6c79206f6e60008201527f6365000000000000000000000000000000000000000000000000000000000000602082015250565b6000614c02602283614292565b9150614c0d82614ba6565b604082019050919050565b60006020820190508181036000830152614c3181614bf5565b9050919050565b7f53746172742064617465206d75737420626520696e2074686520667574757265600082015250565b6000614c6e602083614292565b9150614c7982614c38565b602082019050919050565b60006020820190508181036000830152614c9d81614c61565b9050919050565b7f56657374696e672074696d65206e6f7420616c6c6f7765640000000000000000600082015250565b6000614cda601883614292565b9150614ce582614ca4565b602082019050919050565b60006020820190508181036000830152614d0981614ccd565b9050919050565b7f43616e27742076657374206163636f756e7420776974682062616c616e636500600082015250565b6000614d46601f83614292565b9150614d5182614d10565b602082019050919050565b60006020820190508181036000830152614d7581614d39565b9050919050565b7f57616c6c657420697320616c7265616479207665737465640000000000000000600082015250565b6000614db2601883614292565b9150614dbd82614d7c565b602082019050919050565b60006020820190508181036000830152614de181614da5565b9050919050565b7f416d6f756e74206d75737420626520626967676572207468616e203000000000600082015250565b6000614e1e601c83614292565b9150614e2982614de8565b602082019050919050565b60006020820190508181036000830152614e4d81614e11565b9050919050565b7f45524332303a2064656372656173656420616c6c6f77616e63652062656c6f7760008201527f207a65726f000000000000000000000000000000000000000000000000000000602082015250565b6000614eb0602583614292565b9150614ebb82614e54565b604082019050919050565b60006020820190508181036000830152614edf81614ea3565b9050919050565b7f4e657720416d6f756e74206d757374206265206d6f7265207468616e20302e3060008201527f30303125206f6620746f74616c20737570706c79000000000000000000000000602082015250565b6000614f42603483614292565b9150614f4d82614ee6565b604082019050919050565b60006020820190508181036000830152614f7181614f35565b9050919050565b7f4163636f756e7420697320616c7265616479207468652076616c7565206f662060008201527f276578636c756465642700000000000000000000000000000000000000000000602082015250565b6000614fd4602a83614292565b9150614fdf82614f78565b604082019050919050565b6000602082019050818103600083015261500381614fc7565b9050919050565b7f4163636f756e7420697320616c726561647920696e636c756465640000000000600082015250565b6000615040601b83614292565b915061504b8261500a565b602082019050919050565b6000602082019050818103600083015261506f81615033565b9050919050565b7f4e487b7100000000000000000000000000000000000000000000000000000000600052603260045260246000fd5b7f4e487b7100000000000000000000000000000000000000000000000000000000600052603160045260246000fd5b60006150df8261439c565b91507fffffffffffffffffffffffffffffffffffffffffffffffffffffffffffffffff8203615111576151106147ef565b5b600182019050919050565b7f46656573206d757374206265206c657373207468616e20313525000000000000600082015250565b6000615152601a83614292565b915061515d8261511c565b602082019050919050565b6000602082019050818103600083015261518181615145565b9050919050565b7f4f776e61626c653a206e6577206f776e657220697320746865207a65726f206160008201527f6464726573730000000000000000000000000000000000000000000000000000602082015250565b60006151e4602683614292565b91506151ef82615188565b604082019050919050565b60006020820190508181036000830152615213816151d7565b9050919050565b7f4f776e65722063616e6e6f7420636c61696d206e617469766520746f6b656e73600082015250565b6000615250602083614292565b915061525b8261521a565b602082019050919050565b6000602082019050818103600083015261527f81615243565b9050919050565b7f4f776e65722063616e6e6f7420636c61696d207265776172647320746f6b656e60008201527f7300000000000000000000000000000000000000000000000000000000000000602082015250565b60006152e2602183614292565b91506152ed82615286565b604082019050919050565b60006020820190508181036000830152615311816152d5565b9050919050565b600081519050615327816143a6565b92915050565b60006020828403121561534357615342614339565b5b600061535184828501615318565b91505092915050565b7f45524332303a20617070726f76652066726f6d20746865207a65726f2061646460008201527f7265737300000000000000000000000000000000000000000000000000000000602082015250565b60006153b6602483614292565b91506153c18261535a565b604082019050919050565b600060208201905081810360008301526153e5816153a9565b9050919050565b7f45524332303a20617070726f766520746f20746865207a65726f20616464726560008201527f7373000000000000000000000000000000000000000000000000000000000000602082015250565b6000615448602283614292565b9150615453826153ec565b604082019050919050565b600060208201905081810360008301526154778161543b565b9050919050565b6000819050919050565b60006154938261547e565b915061549e8361547e565b9250828201905082811215600083121683821260008412151617156154c6576154c56147ef565b5b92915050565b7f45524332303a20696e73756666696369656e7420616c6c6f77616e6365000000600082015250565b6000615502601d83614292565b915061550d826154cc565b602082019050919050565b60006020820190508181036000830152615531816154f5565b9050919050565b7f45524332303a207472616e736665722066726f6d20746865207a65726f20616460008201527f6472657373000000000000000000000000000000000000000000000000000000602082015250565b6000615594602583614292565b915061559f82615538565b604082019050919050565b600060208201905081810360008301526155c381615587565b9050919050565b7f45524332303a207472616e7366657220746f20746865207a65726f206164647260008201527f6573730000000000000000000000000000000000000000000000000000000000602082015250565b6000615626602383614292565b9150615631826155ca565b604082019050919050565b6000602082019050818103600083015261565581615619565b9050919050565b7f5472616e7366657220616d6f756e7420657863656564732074686520302e352560008201527f206f662074686520737570706c792e0000000000000000000000000000000000602082015250565b60006156b8602f83614292565b91506156c38261565c565b604082019050919050565b600060208201905081810360008301526156e7816156ab565b9050919050565b7f466f7220796f75722070726f74656374696f6e2c206d61782073656c6c20697360008201527f2032302520696620796f7520686f6c6420302e3525206f72206d6f7265206f6660208201527f20737570706c792e000000000000000000000000000000000000000000000000604082015250565b6000615770604883614292565b915061577b826156ee565b606082019050919050565b6000602082019050818103600083015261579f81615763565b9050919050565b7f596f75206d757374207761697420612066756c6c20646179206265666f72652060008201527f796f75206d61792073656c6c20616761696e2e00000000000000000000000000602082015250565b6000615802603383614292565b915061580d826157a6565b604082019050919050565b60006020820190508181036000830152615831816157f5565b9050919050565b600060408201905061584d60008301856145d0565b61585a60208301846144c2565b9392505050565b600081519050919050565b600081905092915050565b600061588282615861565b61588c818561586c565b935061589c8185602086016142a3565b80840191505092915050565b60006158b48284615877565b915081905092915050565b6000815190506158ce816145fa565b92915050565b6000602082840312156158ea576158e9614339565b5b60006158f8848285016158bf565b91505092915050565b7f5472616e7366657248656c7065723a205452414e534645525f4641494c454400600082015250565b6000615937601f83614292565b915061594282615901565b602082019050919050565b600060208201905081810360008301526159668161592a565b9050919050565b7f4f776e61626c653a2063616c6c6572206973206e6f7420746865206f776e6572600082015250565b60006159a3602083614292565b91506159ae8261596d565b602082019050919050565b600060208201905081810360008301526159d281615996565b9050919050565b7f4e487b7100000000000000000000000000000000000000000000000000000000600052604160045260246000fd5b7f5472616e7366657248656c7065723a204554485f5452414e534645525f46414960008201527f4c45440000000000000000000000000000000000000000000000000000000000602082015250565b6000615a64602383614292565b9150615a6f82615a08565b604082019050919050565b60006020820190508181036000830152615a9381615a57565b9050919050565b7f45524332303a207472616e7366657220616d6f756e742065786365656473206260008201527f616c616e63650000000000000000000000000000000000000000000000000000602082015250565b6000615af6602683614292565b9150615b0182615a9a565b604082019050919050565b60006020820190508181036000830152615b2581615ae9565b9050919050565b6000819050919050565b6000615b51615b4c615b4784615b2c565b614448565b61439c565b9050919050565b615b6181615b36565b82525050565b600081519050919050565b600082825260208201905092915050565b6000819050602082019050919050565b615b9c8161435e565b82525050565b6000615bae8383615b93565b60208301905092915050565b6000602082019050919050565b6000615bd282615b67565b615bdc8185615b72565b9350615be783615b83565b8060005b83811015615c18578151615bff8882615ba2565b9750615c0a83615bba565b925050600181019050615beb565b5085935050505092915050565b600060a082019050615c3a60008301886144c2565b615c476020830187615b58565b8181036040830152615c598186615bc7565b9050615c6860608301856145d0565b615c7560808301846144c2565b9695505050505050565b7f4c6f636b20706572696f64206e6f74206f766572000000000000000000000000600082015250565b6000615cb5601483614292565b9150615cc082615c7f565b602082019050919050565b60006020820190508181036000830152615ce481615ca8565b9050919050565b7f43616e277420757365206d6f7265207468616e20756e76657374656420616d6f60008201527f756e740000000000000000000000000000000000000000000000000000000000602082015250565b6000615d47602383614292565b9150615d5282615ceb565b604082019050919050565b60006020820190508181036000830152615d7681615d3a565b9050919050565b6000608082019050615d926000830187615b58565b8181036020830152615da48186615bc7565b9050615db360408301856145d0565b615dc060608301846144c2565b95945050505050565b7f4e6f207368617265732063697263756c6174696e670000000000000000000000600082015250565b6000615dff601583614292565b9150615e0a82615dc9565b602082019050919050565b60006020820190508181036000830152615e2e81615df2565b905091905056fea26469706673582212202dcbd5ec22ad0036f0ba970bd1d4abe8b799a8e2f57dd557a86b037698b3b1d764736f6c63430008110033",
  "immutableReferences": {
    "1876": [
      {
        "length": 32,
        "start": 3253
      }
    ],
    "1882": [
      {
        "length": 32,
        "start": 16757
      }
    ],
    "2189": [
      {
        "length": 32,
        "start": 3488
      },
      {
        "length": 32,
        "start": 8889
      },
      {
        "length": 32,
        "start": 9043
      },
      {
        "length": 32,
        "start": 16050
      },
      {
        "length": 32,
        "start": 16163
      },
      {
        "length": 32,
        "start": 16516
      }
    ]
  },
  "source": "// SPDX-License-Identifier: UNLICENSED\npragma solidity 0.8.17;\n\nimport \"@openzeppelin/contracts/token/ERC20/ERC20.sol\";\nimport \"@openzeppelin/contracts/access/Ownable.sol\";\nimport \"@openzeppelin/contracts/utils/Address.sol\";\nimport \"@uniswap/v2-periphery/contracts/interfaces/IUniswapV2Router02.sol\";\nimport \"@uniswap/v2-core/contracts/interfaces/IUniswapV2Factory.sol\";\nimport \"@uniswap/lib/contracts/libraries/TransferHelper.sol\";\nimport \"./AbstractDividends.sol\";\n\ncontract XhypeV2 is ERC20, AbstractDividends, Ownable {\n    event ExcludeFromFees(address indexed account, bool isExcluded);\n    event ExcludeFromDividends(address indexed account, bool isExcluded);\n    event UpdateBuyFee(uint buyFee);\n    event UpdateSellFee(uint sellFee);\n    \n    event UpdateUniswapV2Router(address indexed newAddress,address indexed oldAddress);\n    event SendDividends(uint amount);\n\n    using Address for address;\n    using Address for address payable;\n\n    //FEES VARIABLES\n    uint public buyFee = 5;\n    uint public sellFee = 8;\n    uint private constant MAX_FEE = 15; //15%    \n    \n\n    address public immutable rewardToken;\n    uint private _totalSupply = 1000000000 ether;\n    address private DEAD = 0x000000000000000000000000000000000000dEaD;\n\n    //SWAPPING VARIABLES\n    IUniswapV2Router02 public uniswapV2Router;\n    address public uniswapV2Pair;\n\n    uint public swapTokensAtAmount;\n    bool public swapEnabled;    \n    bool private swapping;\n\n    //DIVIDENDS VARIABLES\n    uint public minBalanceForDividends = 1000 ether;\n    uint private startDate;\n    mapping(address => bool) private _isExcludedFromDividends;\n    address[] private _excludedFromDividends;\n    mapping(address => bool) private _isExcludedFromFees;\n\n    //VESTING VARIABLES\n    //User/wallet => vested amount\n    mapping(address => uint) private threeMonthVestedWallets;\n    mapping(address => uint) private twelveMonthVestedWallets;\n    mapping(address => uint) private twentyFourMonthVestedWallets;\n    mapping(address => bool) private sixMonthLockedWallets;\n    mapping(address => bool) private isVested;\n    //User/wallet => withdrawn amount\n    mapping(address => uint) public vestedWalletsWithdrawn;\n\n    \n    bool private nukeTheWhales = false;\n    mapping (address => uint256) public previousSale;\n\n    constructor(\n        address _rewardToken,\n        address router\n    )\n        payable\n        ERC20(\"XHype\", \"XHP\")\n        AbstractDividends(getSharesOf, totalShareableSupply)\n    {\n        rewardToken = _rewardToken;\n        \n        IUniswapV2Router02 _uniswapV2Router = IUniswapV2Router02(router);\n        address _uniswapV2Pair = IUniswapV2Factory(_uniswapV2Router.factory())\n            .createPair(address(this), _uniswapV2Router.WETH());\n\n        uniswapV2Router = _uniswapV2Router;\n        uniswapV2Pair = _uniswapV2Pair;\n\n        _isExcludedFromDividends[owner()] = true;\n        _excludedFromDividends.push(owner());\n        _isExcludedFromDividends[address(this)] = true;\n        _excludedFromDividends.push(address(this));\n        _isExcludedFromDividends[DEAD] = true;\n        _excludedFromDividends.push(DEAD);\n        _isExcludedFromDividends[address(_uniswapV2Pair)] = true;\n        _excludedFromDividends.push(address(_uniswapV2Pair));\n        _isExcludedFromDividends[address(_uniswapV2Router)] = true;\n        _excludedFromDividends.push(address(_uniswapV2Router));\n        _isExcludedFromDividends[address(0x4aEb644A9a035e5E0b354EA4b463D1c0E8E79CF9)] = true; //Advisors\n        _excludedFromDividends.push(address(0x4aEb644A9a035e5E0b354EA4b463D1c0E8E79CF9));\n        _isExcludedFromDividends[address(0x3aB47F80a046d2A4D92A5c229fe93fA6708aEB13)] = true; //Treasury\n        _excludedFromDividends.push(address(0x3aB47F80a046d2A4D92A5c229fe93fA6708aEB13));\n        _isExcludedFromDividends[address(0x1767c992C70AB29fBE9194f4D8160C373B6d7ED8)] = true; //Marketing\n        _excludedFromDividends.push(address(0x1767c992C70AB29fBE9194f4D8160C373B6d7ED8));\n        _isExcludedFromDividends[address(0xe24bfB419f5C0EDa8660d53452212cf0c87E4151)] = true; //Team\n        _excludedFromDividends.push(address(0xe24bfB419f5C0EDa8660d53452212cf0c87E4151));\n        _isExcludedFromDividends[address(0xF949709F80dec4d9E2420c0e6a98081F13fFf368)] = true; //DEXES\n        _excludedFromDividends.push(address(0xF949709F80dec4d9E2420c0e6a98081F13fFf368));\n        _isExcludedFromDividends[address(0x9DBe36b089451aAEfF495824BB507eD0902f5644)] = true; //Future Developments\n        _excludedFromDividends.push(address(0x9DBe36b089451aAEfF495824BB507eD0902f5644));\n        _isExcludedFromDividends[address(0xaD064A0827214234E228B9213Af52E5e6457e4C0)] = true; //Charity Wallet\n        _excludedFromDividends.push(address(0xaD064A0827214234E228B9213Af52E5e6457e4C0));\n        _isExcludedFromDividends[address(0x4f931e269402Cfa2cB998EF3402c7897DA7bd1db)] = true; //Burning Pool\n        _excludedFromDividends.push(address(0x4f931e269402Cfa2cB998EF3402c7897DA7bd1db));\n\n        _isExcludedFromFees[owner()] = true;\n        _isExcludedFromFees[address(this)] = true;\n        _isExcludedFromFees[DEAD] = true;\n\n        swapEnabled = true;\n        swapTokensAtAmount = 10000 ether; //10K\n        _mint(owner(), totalSupply());\n    }\n\n    function totalSupply() public view override returns (uint256) {\n        return _totalSupply;\n    }\n\n    function getSharesOf(address _user) public view returns (uint) {\n        if (_isExcludedFromDividends[_user]) {\n            return 0;\n        }\n        \n        return balanceOf(_user) >= minBalanceForDividends ? balanceOf(_user) : 0;\n    }\n\n    function totalShareableSupply() public view returns (uint) {\n        uint excludedSupply;\n        for (uint i; i < _excludedFromDividends.length; i++) {\n            excludedSupply += balanceOf(_excludedFromDividends[i]);\n        }\n        return totalSupply() - excludedSupply;\n    }\n\n    function updateUniswapV2Router(address newAddress) external onlyOwner {\n        require(newAddress != address(uniswapV2Router),\"The router already has that address\");\n        emit UpdateUniswapV2Router(newAddress, address(uniswapV2Router));\n        uniswapV2Router = IUniswapV2Router02(newAddress);\n        address _uniswapV2Pair = IUniswapV2Factory(uniswapV2Router.factory())\n            .createPair(address(this), uniswapV2Router.WETH());\n        uniswapV2Pair = _uniswapV2Pair;\n    }\n\n    function setMinBalanceForDividends(uint amount) external onlyOwner {\n        require(amount > 0,\"Amount must be bigger than 0\");\n        minBalanceForDividends = amount;\n    }\n\n    function setStartDate(uint _startDate) external onlyOwner {\n        require(startDate == 0,\"Start date can be setted only once\");\n        require(_startDate > block.timestamp,\"Start date must be in the future\");\n        startDate = _startDate;\n    }\n\n    function startNukingTheWhales() public onlyOwner() {\n        nukeTheWhales = true;\n    }\n\n    //=======FeeManagement=======//\n    function excludeFromFees(address account, bool excluded) external onlyOwner {\n        require(_isExcludedFromFees[account] != excluded,\"Account is already the value of 'excluded'\");\n        _isExcludedFromFees[account] = excluded;\n\n        emit ExcludeFromFees(account, excluded);\n    }\n\n    function isExcludedFromFees(address account) external view returns (bool) {\n        return _isExcludedFromFees[account];\n    }\n\n    function updateBuyFee(uint _newFee) external onlyOwner {\n        require(_newFee <= MAX_FEE,\"Fee must be less than 15%\");\n        buyFee = _newFee;\n        \n        emit UpdateBuyFee(buyFee);\n    }\n\n    function updateSellFees(uint _newFee) external onlyOwner {\n        require(_newFee <= MAX_FEE, \"Fees must be less than 15%\");\n        sellFee = _newFee;\n        \n        emit UpdateSellFee(_newFee);\n    }\n\n    function excludeFromDividends(address account) external onlyOwner() {\n        require(!_isExcludedFromDividends[account], \"Account is already excluded\");\n        \n        _isExcludedFromDividends[account] = true;\n        _excludedFromDividends.push(account);\n    }\n\n    function includeInDividends(address account) external onlyOwner() {\n        require(_isExcludedFromDividends[account], \"Account is already included\");\n        for (uint256 i = 0; i < _excludedFromDividends.length; i++){\n            if (_excludedFromDividends[i] == account) {\n                _excludedFromDividends[i] = _excludedFromDividends[_excludedFromDividends.length - 1];\n                _isExcludedFromDividends[account] = false;\n                _excludedFromDividends.pop();\n                break;\n            }\n        }\n    }\n\n    function _transfer(\n        address from,\n        address to,\n        uint amount\n    ) internal override {\n        require(from != address(0), \"ERC20: transfer from the zero address\");\n        require(to != address(0), \"ERC20: transfer to the zero address\");\n        \n        if (amount == 0) {\n            super._transfer(from, to, 0);\n            return;\n        }\n        \n        if (nukeTheWhales) {\n            if(from != owner() && to != owner()) {\n                require(amount <= (totalSupply()) * (5) / (10**3), \"Transfer amount exceeds the 0.5% of the supply.\");\n            }\n\n            if(to == address(uniswapV2Pair) || to == address(uniswapV2Router)) {\n                uint256 fromBalance = balanceOf(from);\n                uint256 threshold = (totalSupply()) * (5) / (10**3);\n \n                if (fromBalance > threshold) {\n                    uint _now = block.timestamp;\n                    require(amount < fromBalance / (5), \"For your protection, max sell is 20% if you hold 0.5% or more of supply.\");\n                    require( _now - (previousSale[from]) > 1 days, \"You must wait a full day before you may sell again.\");\n                }\n            }\n        }\n\n        uint contractTokenBalance = balanceOf(address(this));\n\n        bool canSwap = contractTokenBalance >= swapTokensAtAmount;\n\n        if (swapEnabled && canSwap && !swapping) {\n            swapping = true;\n            \n            swapAndSendDividends(contractTokenBalance);\n\n            swapping = false;\n        }\n\n        bool takeFee = !swapping;\n\n        if (_isExcludedFromFees[from] || _isExcludedFromFees[to]) {\n            takeFee = false;\n        }\n\n        if (from != uniswapV2Pair && to != uniswapV2Pair) {\n            takeFee = false;\n        }\n\n        if (takeFee) {\n            uint _fees;\n            if (from == uniswapV2Pair) {\n                _fees = buyFee;\n            } else {\n                _fees = sellFee;\n                previousSale[from] = block.timestamp;\n            }\n            uint fees = (amount * _fees) / 100;\n\n            amount = amount - fees;\n\n            super._transfer(from, address(this), fees);\n        }\n\n        super._transfer(from, to, amount);\n    }\n\n    //=======Swap=======//\n    function toggleSwapEnabled() external onlyOwner {        \n        swapEnabled = !swapEnabled;\n    }\n\n    function setSwapTokensAtAmount(uint newAmount) external onlyOwner {\n        require(newAmount > totalSupply() / 1000000, \"New Amount must be more than 0.0001% of total supply\");\n        swapTokensAtAmount = newAmount;\n    }\n\n    function swapAndSendDividends(uint amount) private {\n        address[] memory path = new address[](2);\n        path[0] = address(this);\n        path[1] = uniswapV2Router.WETH();\n\n        uint initialBalance = address(this).balance;\n\n        _approve(address(this), address(uniswapV2Router), amount);\n\n        uniswapV2Router.swapExactTokensForETHSupportingFeeOnTransferTokens(\n            amount,\n            0, // accept any amount of ETH\n            path,\n            address(this),\n            block.timestamp\n        );\n\n        uint newBalance = address(this).balance - initialBalance;\n\n        swapEthForTokensAndDistribute(newBalance);\n    }\n\n    function swapEthForTokensAndDistribute(uint256 amount) internal {\n        address[] memory path = new address[](2);\n        path[0] = uniswapV2Router.WETH();\n        path[1] = address(rewardToken);\n\n        uint initialBalance = IERC20(rewardToken).balanceOf(address(this));\n\n        _approve(address(this), address(uniswapV2Router), amount);\n\n        // make the swap\n        uniswapV2Router.swapExactETHForTokensSupportingFeeOnTransferTokens{value:amount}(\n            0, // accept any amount of Tokens\n            path,\n            address(this),\n            block.timestamp\n        );\n\n        uint amountToDistribute = IERC20(rewardToken).balanceOf(address(this)) - initialBalance;\n\n        _distributeDividends(amountToDistribute);\n        emit SendDividends(amountToDistribute);\n    }\n\n    function setVestedWallet(address account, uint amount, uint vestingTime, bool sixMonthLock) external onlyOwner {\n        require(vestingTime == 3 || vestingTime == 12 || vestingTime == 24, \"Vesting time not allowed\");\n        require(balanceOf(account) == 0,\"Can't vest account with balance\");\n        require(!isVested[account],\"Wallet is already vested\");\n\n        if (vestingTime == 3){\n            threeMonthVestedWallets[account] = amount;\n        }else if(vestingTime == 12){\n            twelveMonthVestedWallets[account] = amount;\n        }else{\n            twentyFourMonthVestedWallets[account] = amount;\n            if (sixMonthLock){\n                sixMonthLockedWallets[account] = true;\n            }\n        }\n        isVested[account] = true;\n    }\n\n    function _beforeTokenTransfer(\n        address from,\n        address to,\n        uint256 amount\n    ) internal override view {\n        if (sixMonthLockedWallets[from]){\n            require(block.timestamp >= startDate + 180 days,\"Lock period not over\"); //6 month lock\n        }\n        if (twentyFourMonthVestedWallets[from] > 0){\n            uint unvestedAmount = getUnvestedAmount(twentyFourMonthVestedWallets[from], 730 days, sixMonthLockedWallets[from]);//24 month linear release            \n            require(amount <= unvestedAmount - vestedWalletsWithdrawn[from],\"Can't use more than unvested amount\");\n        }else if (twelveMonthVestedWallets[from] > 0){\n            uint unvestedAmount = getUnvestedAmount(twelveMonthVestedWallets[from], 365 days, sixMonthLockedWallets[from]);//12 month linear release\n            require(amount <= unvestedAmount - vestedWalletsWithdrawn[from],\"Can't use more than unvested amount\");\n        }else if (threeMonthVestedWallets[from] > 0){\n            uint unvestedAmount = getUnvestedAmount(threeMonthVestedWallets[from], 90 days, sixMonthLockedWallets[from]);//3 month linear release\n            require(amount <= unvestedAmount - vestedWalletsWithdrawn[from],\"Can't use more than unvested amount\");\n        }\n    }\n\n    function getVestedWalletWithdrawn(address wallet) external view returns(uint){\n        return vestedWalletsWithdrawn[wallet];\n    }\n\n    function getUnvestedAmount(uint totalVestedAmount, uint vestingTime, bool sixMonthLocked) public view returns(uint){\n        require(vestingTime > 0,\"Can't divide by zero\");\n        if (startDate + vestingTime <= block.timestamp){\n            return totalVestedAmount;\n        }\n        uint availableAmountPerDay = totalVestedAmount / vestingTime;\n        uint timePassed = block.timestamp - (startDate + (sixMonthLocked ? 180 days : 0));\n\n        return timePassed * availableAmountPerDay;\n    }\n\n    function _afterTokenTransfer(address from, address to, uint256 amount) internal override{\n        if (isVested[from]){\n            vestedWalletsWithdrawn[from] += amount;\n        }\n       \n    }\n\n    function withdrawDividends() external{\n        uint256 amount = _prepareCollect(msg.sender);\n        require(amount > 0, \"Nothing to withdraw\");\n        TransferHelper.safeTransfer(rewardToken, msg.sender, amount);\n    }\n\n    function withdrawBalance(address receiver) external onlyOwner{\n        require(address(this).balance > 0,\"Nothing to withdraw\");\n        TransferHelper.safeTransferETH(receiver, address(this).balance);\n    }\n\n    receive() external payable {}\n\n    function claimStuckTokens(address token) external onlyOwner {\n        require(token != address(this), \"Owner cannot claim native tokens\");\n        require(token != rewardToken, \"Owner cannot claim rewards tokens\");\n\n        IERC20 ERC20token = IERC20(token);\n        uint balance = ERC20token.balanceOf(address(this));\n        TransferHelper.safeTransfer(token, msg.sender, balance);        \n    }\n}",
  "sourcePath": "/Users/glenci/Xhype/src/XHypeV2.sol",
  "compiler": {
    "name": "solc",
    "version": "0.8.17+commit.8df45f5f.Emscripten.clang"
  },
  "schemaVersion": "3.4.10",
  "updatedAt": "2023-05-19T12:55:07.333Z",
  "devdoc": {
    "kind": "dev",
    "methods": {
      "allowance(address,address)": {
        "details": "See {IERC20-allowance}."
      },
      "approve(address,uint256)": {
        "details": "See {IERC20-approve}. NOTE: If `amount` is the maximum `uint256`, the allowance is not updated on `transferFrom`. This is semantically equivalent to an infinite approval. Requirements: - `spender` cannot be the zero address."
      },
      "balanceOf(address)": {
        "details": "See {IERC20-balanceOf}."
      },
      "cumulativeDividendsOf(address)": {
        "details": "accumulativeFundsOf(account) = withdrawableDividendsOf(account) + withdrawnDividendsOf(account) = (pointsPerShare * balanceOf(account) + pointsCorrection[account]) / POINTS_MULTIPLIER",
        "params": {
          "account": "The address of a token holder."
        },
        "returns": {
          "_0": "The amount of dividends that `account` has earned in total."
        }
      },
      "decimals()": {
        "details": "Returns the number of decimals used to get its user representation. For example, if `decimals` equals `2`, a balance of `505` tokens should be displayed to a user as `5.05` (`505 / 10 ** 2`). Tokens usually opt for a value of 18, imitating the relationship between Ether and Wei. This is the value {ERC20} uses, unless this function is overridden; NOTE: This information is only used for _display_ purposes: it in no way affects any of the arithmetic of the contract, including {IERC20-balanceOf} and {IERC20-transfer}."
      },
      "decreaseAllowance(address,uint256)": {
        "details": "Atomically decreases the allowance granted to `spender` by the caller. This is an alternative to {approve} that can be used as a mitigation for problems described in {IERC20-approve}. Emits an {Approval} event indicating the updated allowance. Requirements: - `spender` cannot be the zero address. - `spender` must have allowance for the caller of at least `subtractedValue`."
      },
      "increaseAllowance(address,uint256)": {
        "details": "Atomically increases the allowance granted to `spender` by the caller. This is an alternative to {approve} that can be used as a mitigation for problems described in {IERC20-approve}. Emits an {Approval} event indicating the updated allowance. Requirements: - `spender` cannot be the zero address."
      },
      "name()": {
        "details": "Returns the name of the token."
      },
      "owner()": {
        "details": "Returns the address of the current owner."
      },
      "renounceOwnership()": {
        "details": "Leaves the contract without owner. It will not be possible to call `onlyOwner` functions anymore. Can only be called by the current owner. NOTE: Renouncing ownership will leave the contract without an owner, thereby removing any functionality that is only available to the owner."
      },
      "symbol()": {
        "details": "Returns the symbol of the token, usually a shorter version of the name."
      },
      "totalSupply()": {
        "details": "See {IERC20-totalSupply}."
      },
      "transfer(address,uint256)": {
        "details": "See {IERC20-transfer}. Requirements: - `to` cannot be the zero address. - the caller must have a balance of at least `amount`."
      },
      "transferFrom(address,address,uint256)": {
        "details": "See {IERC20-transferFrom}. Emits an {Approval} event indicating the updated allowance. This is not required by the EIP. See the note at the beginning of {ERC20}. NOTE: Does not update the allowance if the current allowance is the maximum `uint256`. Requirements: - `from` and `to` cannot be the zero address. - `from` must have a balance of at least `amount`. - the caller must have allowance for ``from``'s tokens of at least `amount`."
      },
      "transferOwnership(address)": {
        "details": "Transfers ownership of the contract to a new account (`newOwner`). Can only be called by the current owner."
      },
      "withdrawableDividendsOf(address)": {
        "details": "Returns the total amount of dividends a given address is able to withdraw.",
        "params": {
          "account": "Address of a dividend recipient"
        },
        "returns": {
          "_0": "A uint256 representing the dividends `account` can withdraw"
        }
      },
      "withdrawnDividendsOf(address)": {
        "params": {
          "account": "The address of a token holder."
        },
        "returns": {
          "_0": "The amount of dividends that `account` has withdrawn."
        }
      }
    },
    "version": 1
  },
  "userdoc": {
    "kind": "user",
    "methods": {
      "cumulativeDividendsOf(address)": {
        "notice": "View the amount of dividends that an address has earned in total."
      },
      "withdrawnDividendsOf(address)": {
        "notice": "View the amount of dividends that an address has withdrawn."
      }
    },
    "version": 1
  }
}